{
  "abi": [
    {
      "inputs": [
        {
          "internalType": "address",
          "name": "_liquidityManager",
          "type": "address"
        },
        {
          "internalType": "address",
          "name": "_governanceExecutor",
          "type": "address"
        }
      ],
      "stateMutability": "nonpayable",
      "type": "constructor"
    },
    {
      "anonymous": false,
      "inputs": [
        {
          "indexed": true,
          "internalType": "address",
          "name": "previousOwner",
          "type": "address"
        },
        {
          "indexed": true,
          "internalType": "address",
          "name": "newOwner",
          "type": "address"
        }
      ],
      "name": "OwnershipTransferred",
      "type": "event"
    },
    {
      "inputs": [
        {
          "internalType": "uint256",
          "name": "",
          "type": "uint256"
        }
      ],
      "name": "clusters",
      "outputs": [
        {
          "internalType": "contract ICluster",
          "name": "",
          "type": "address"
        }
      ],
      "stateMutability": "view",
      "type": "function"
    },
    {
      "inputs": [],
      "name": "governanceExecutor",
      "outputs": [
        {
          "internalType": "address",
          "name": "",
          "type": "address"
        }
      ],
      "stateMutability": "view",
      "type": "function"
    },
    {
      "inputs": [],
      "name": "initializeIfNecessary",
      "outputs": [],
      "stateMutability": "nonpayable",
      "type": "function"
    },
    {
      "inputs": [],
      "name": "isInitialized",
      "outputs": [
        {
          "internalType": "bool",
          "name": "",
          "type": "bool"
        }
      ],
      "stateMutability": "view",
      "type": "function"
    },
    {
      "inputs": [],
      "name": "liquidityManager",
      "outputs": [
        {
          "internalType": "address",
          "name": "",
          "type": "address"
        }
      ],
      "stateMutability": "view",
      "type": "function"
    },
    {
      "inputs": [],
      "name": "owner",
      "outputs": [
        {
          "internalType": "address",
          "name": "",
          "type": "address"
        }
      ],
      "stateMutability": "view",
      "type": "function"
    },
    {
      "inputs": [],
      "name": "renounceOwnership",
      "outputs": [],
      "stateMutability": "nonpayable",
      "type": "function"
    },
    {
      "inputs": [
        {
          "internalType": "address",
          "name": "newOwner",
          "type": "address"
        }
      ],
      "name": "transferOwnership",
      "outputs": [],
      "stateMutability": "nonpayable",
      "type": "function"
    }
  ],
  "bytecode": {
    "object": "0x60c060405234801561001057600080fd5b506040516200262d3803806200262d83398101604081905261003191610211565b61003a3361005c565b6001600160a01b03808316608052811660a0526100556100ac565b50506102a8565b600080546001600160a01b038381166001600160a01b0319831681178455604051919092169283917f8be0079c531659141344cd1fd0a4f28419497f9722a3daafe3b4186f6b6457e09190a35050565b60015460109060006102fb6100c1848461025a565b116100d5576100d0838361025a565b6100e2565b6100e26102fb600161025a565b9050815b81811015610106576100f661010c565b6100ff8161026d565b90506100e6565b50505050565b60015460009061011b906101be565b905060008160805160a051604051610132906101e7565b9283526001600160a01b039182166020840152166040820152606001604051809103906000f08015801561016a573d6000803e3d6000fd5b506001805480820182556000919091527fb10e2d527612073b26eecdfd717e6a320cf44b4afac2b0732d9fcbe2b7fa0cf60180546001600160a01b0319166001600160a01b03929092169190911790555050565b60006102fb82106101d1576000196101e1565b6101dc600383610286565b6001901b5b92915050565b610f0a806200172383390190565b80516001600160a01b038116811461020c57600080fd5b919050565b6000806040838503121561022457600080fd5b61022d836101f5565b915061023b602084016101f5565b90509250929050565b634e487b7160e01b600052601160045260246000fd5b808201808211156101e1576101e1610244565b60006001820161027f5761027f610244565b5060010190565b6000826102a357634e487b7160e01b600052601260045260246000fd5b500490565b60805160a051611448620002db60003960008181610109015261036e0152600081816092015261034d01526114486000f3fe608060405234801561001057600080fd5b50600436106100885760003560e01c80638fc983861161005b5780638fc9838614610104578063919500c01461012b578063ab08f0441461013e578063f2fde38b1461014657600080fd5b8063338274381461008d578063392e53cd146100d1578063715018a6146100e95780638da5cb5b146100f3575b600080fd5b6100b47f000000000000000000000000000000000000000000000000000000000000000081565b6040516001600160a01b0390911681526020015b60405180910390f35b6100d9610159565b60405190151581526020016100c8565b6100f1610171565b005b6000546001600160a01b03166100b4565b6100b47f000000000000000000000000000000000000000000000000000000000000000081565b6100b461013936600461045b565b610185565b6100f16101af565b6100f1610154366004610474565b61020f565b60006101686102fb60016104ba565b60015414919050565b61017961028d565b61018360006102e7565b565b6001818154811061019557600080fd5b6000918252602090912001546001600160a01b0316905081565b60015460109060006102fb6101c484846104ba565b116101d8576101d383836104ba565b6101e5565b6101e56102fb60016104ba565b9050815b81811015610209576101f9610337565b610202816104cd565b90506101e9565b50505050565b61021761028d565b6001600160a01b0381166102815760405162461bcd60e51b815260206004820152602660248201527f4f776e61626c653a206e6577206f776e657220697320746865207a65726f206160448201526564647265737360d01b60648201526084015b60405180910390fd5b61028a816102e7565b50565b6000546001600160a01b031633146101835760405162461bcd60e51b815260206004820181905260248201527f4f776e61626c653a2063616c6c6572206973206e6f7420746865206f776e65726044820152606401610278565b600080546001600160a01b038381166001600160a01b0319831681178455604051919092169283917f8be0079c531659141344cd1fd0a4f28419497f9722a3daafe3b4186f6b6457e09190a35050565b60015460009061034690610425565b90506000817f00000000000000000000000000000000000000000000000000000000000000007f00000000000000000000000000000000000000000000000000000000000000006040516103999061044e565b9283526001600160a01b039182166020840152166040820152606001604051809103906000f0801580156103d1573d6000803e3d6000fd5b506001805480820182556000919091527fb10e2d527612073b26eecdfd717e6a320cf44b4afac2b0732d9fcbe2b7fa0cf60180546001600160a01b0319166001600160a01b03929092169190911790555050565b60006102fb821061043857600019610448565b6104436003836104e6565b6001901b5b92915050565b610f0a8061050983390190565b60006020828403121561046d57600080fd5b5035919050565b60006020828403121561048657600080fd5b81356001600160a01b038116811461049d57600080fd5b9392505050565b634e487b7160e01b600052601160045260246000fd5b80820180821115610448576104486104a4565b6000600182016104df576104df6104a4565b5060010190565b60008261050357634e487b7160e01b600052601260045260246000fd5b50049056fe60e060405234801561001057600080fd5b50604051610f0a380380610f0a83398101604081905261002f91610068565b6080929092526001600160a01b0390811660a0521660c0526100a4565b80516001600160a01b038116811461006357600080fd5b919050565b60008060006060848603121561007d57600080fd5b8351925061008d6020850161004c565b915061009b6040850161004c565b90509250925092565b60805160a05160c051610e1c6100ee6000396000818161015e015281816102b00152610375015260008181609d015281816101c4015261043d015260006101240152610e1c6000f3fe608060405234801561001057600080fd5b50600436106100935760003560e01c806382b5e8891161006657806382b5e889146101465780638fc9838614610159578063c0ab2cc614610180578063c50adadf14610193578063d9caed12146101a657600080fd5b8063338274381461009857806347e7ef24146100dc578063523fba7f146100f157806359b6a0c91461011f575b600080fd5b6100bf7f000000000000000000000000000000000000000000000000000000000000000081565b6040516001600160a01b0390911681526020015b60405180910390f35b6100ef6100ea366004610818565b6101b9565b005b6101116100ff366004610844565b60006020819052908152604090205481565b6040519081526020016100d3565b6101117f000000000000000000000000000000000000000000000000000000000000000081565b6100ef610154366004610844565b610249565b6100bf7f000000000000000000000000000000000000000000000000000000000000000081565b6100ef61018e366004610868565b6102a5565b6101116101a1366004610a93565b610368565b6100ef6101b4366004610bb3565b610432565b336001600160a01b037f0000000000000000000000000000000000000000000000000000000000000000161461020257604051632976566b60e01b815260040160405180910390fd5b6001600160a01b0382166000908152602081905260408120805483929061022a908490610c0a565b9091555061024590506001600160a01b0383163330846104fb565b5050565b6040516317066a5760e21b81523060048201526001600160a01b03821690635c19a95c90602401600060405180830381600087803b15801561028a57600080fd5b505af115801561029e573d6000803e3d6000fd5b5050505050565b336001600160a01b037f000000000000000000000000000000000000000000000000000000000000000016146102ee57604051632976566b60e01b815260040160405180910390fd5b604051630acf027160e31b81526004810183905260ff821660248201526001600160a01b038416906356781388906044016020604051808303816000875af115801561033e573d6000803e3d6000fd5b505050506040513d601f19601f820116820180604052508101906103629190610c23565b50505050565b6000336001600160a01b037f000000000000000000000000000000000000000000000000000000000000000016146103b357604051632976566b60e01b815260040160405180910390fd5b604051633eaf40f160e11b81526001600160a01b03871690637d5e81e2906103e5908890889088908890600401610ce1565b6020604051808303816000875af1158015610404573d6000803e3d6000fd5b505050506040513d601f19601f820116820180604052508101906104289190610c23565b9695505050505050565b336001600160a01b037f0000000000000000000000000000000000000000000000000000000000000000161461047b57604051632976566b60e01b815260040160405180910390fd5b6001600160a01b0383166000908152602081905260409020548111156104b457604051633fe8fd1d60e01b815260040160405180910390fd5b6001600160a01b038316600090815260208190526040812080548392906104dc908490610d82565b909155506104f690506001600160a01b0384168383610566565b505050565b6040516001600160a01b03808516602483015283166044820152606481018290526103629085906323b872dd60e01b906084015b60408051601f198184030181529190526020810180516001600160e01b03166001600160e01b031990931692909217909152610596565b6040516001600160a01b0383166024820152604481018290526104f690849063a9059cbb60e01b9060640161052f565b60006105eb826040518060400160405280602081526020017f5361666545524332303a206c6f772d6c6576656c2063616c6c206661696c6564815250856001600160a01b03166106709092919063ffffffff16565b905080516000148061060c57508080602001905181019061060c9190610d95565b6104f65760405162461bcd60e51b815260206004820152602a60248201527f5361666545524332303a204552433230206f7065726174696f6e20646964206e6044820152691bdd081cdd58d8d9595960b21b60648201526084015b60405180910390fd5b606061067f8484600085610687565b949350505050565b6060824710156106e85760405162461bcd60e51b815260206004820152602660248201527f416464726573733a20696e73756666696369656e742062616c616e636520666f6044820152651c8818d85b1b60d21b6064820152608401610667565b600080866001600160a01b031685876040516107049190610db7565b60006040518083038185875af1925050503d8060008114610741576040519150601f19603f3d011682016040523d82523d6000602084013e610746565b606091505b509150915061075787838387610762565b979650505050505050565b606083156107d15782516000036107ca576001600160a01b0385163b6107ca5760405162461bcd60e51b815260206004820152601d60248201527f416464726573733a2063616c6c20746f206e6f6e2d636f6e74726163740000006044820152606401610667565b508161067f565b61067f83838151156107e65781518083602001fd5b8060405162461bcd60e51b81526004016106679190610dd3565b6001600160a01b038116811461081557600080fd5b50565b6000806040838503121561082b57600080fd5b823561083681610800565b946020939093013593505050565b60006020828403121561085657600080fd5b813561086181610800565b9392505050565b60008060006060848603121561087d57600080fd5b833561088881610800565b925060208401359150604084013560ff811681146108a557600080fd5b809150509250925092565b634e487b7160e01b600052604160045260246000fd5b604051601f8201601f1916810167ffffffffffffffff811182821017156108ef576108ef6108b0565b604052919050565b600067ffffffffffffffff821115610911576109116108b0565b5060051b60200190565b600082601f83011261092c57600080fd5b8135602061094161093c836108f7565b6108c6565b82815260059290921b8401810191818101908684111561096057600080fd5b8286015b8481101561097b5780358352918301918301610964565b509695505050505050565b600067ffffffffffffffff8311156109a0576109a06108b0565b6109b3601f8401601f19166020016108c6565b90508281528383830111156109c757600080fd5b828260208301376000602084830101529392505050565b600082601f8301126109ef57600080fd5b813560206109ff61093c836108f7565b82815260059290921b84018101918181019086841115610a1e57600080fd5b8286015b8481101561097b57803567ffffffffffffffff811115610a425760008081fd5b8701603f81018913610a545760008081fd5b610a65898683013560408401610986565b845250918301918301610a22565b600082601f830112610a8457600080fd5b61086183833560208501610986565b600080600080600060a08688031215610aab57600080fd5b8535610ab681610800565b945060208681013567ffffffffffffffff80821115610ad457600080fd5b818901915089601f830112610ae857600080fd5b8135610af661093c826108f7565b81815260059190911b8301840190848101908c831115610b1557600080fd5b938501935b82851015610b3c578435610b2d81610800565b82529385019390850190610b1a565b985050506040890135925080831115610b5457600080fd5b610b608a848b0161091b565b95506060890135925080831115610b7657600080fd5b610b828a848b016109de565b94506080890135925080831115610b9857600080fd5b5050610ba688828901610a73565b9150509295509295909350565b600080600060608486031215610bc857600080fd5b8335610bd381610800565b92506020840135610be381610800565b929592945050506040919091013590565b634e487b7160e01b600052601160045260246000fd5b80820180821115610c1d57610c1d610bf4565b92915050565b600060208284031215610c3557600080fd5b5051919050565b60005b83811015610c57578181015183820152602001610c3f565b50506000910152565b60008151808452610c78816020860160208601610c3c565b601f01601f19169290920160200192915050565b600081518084526020808501808196508360051b8101915082860160005b85811015610cd4578284038952610cc2848351610c60565b98850198935090840190600101610caa565b5091979650505050505050565b6080808252855190820181905260009060209060a0840190828901845b82811015610d235781516001600160a01b031684529284019290840190600101610cfe565b5050508381038285015286518082528783019183019060005b81811015610d5857835183529284019291840191600101610d3c565b50508481036040860152610d6c8188610c8c565b9250505082810360608401526107578185610c60565b81810381811115610c1d57610c1d610bf4565b600060208284031215610da757600080fd5b8151801515811461086157600080fd5b60008251610dc9818460208701610c3c565b9190910192915050565b6020815260006108616020830184610c6056fea2646970667358221220d79cfc2200058d844d07e74519516a4e7979970f7e90e62baa305899516ccfd664736f6c63430008130033a26469706673582212201333d0966db5f5d80d2e5aa95d4e017e9decd2769fda76a331a88902dff0808e64736f6c6343000813003360e060405234801561001057600080fd5b50604051610f0a380380610f0a83398101604081905261002f91610068565b6080929092526001600160a01b0390811660a0521660c0526100a4565b80516001600160a01b038116811461006357600080fd5b919050565b60008060006060848603121561007d57600080fd5b8351925061008d6020850161004c565b915061009b6040850161004c565b90509250925092565b60805160a05160c051610e1c6100ee6000396000818161015e015281816102b00152610375015260008181609d015281816101c4015261043d015260006101240152610e1c6000f3fe608060405234801561001057600080fd5b50600436106100935760003560e01c806382b5e8891161006657806382b5e889146101465780638fc9838614610159578063c0ab2cc614610180578063c50adadf14610193578063d9caed12146101a657600080fd5b8063338274381461009857806347e7ef24146100dc578063523fba7f146100f157806359b6a0c91461011f575b600080fd5b6100bf7f000000000000000000000000000000000000000000000000000000000000000081565b6040516001600160a01b0390911681526020015b60405180910390f35b6100ef6100ea366004610818565b6101b9565b005b6101116100ff366004610844565b60006020819052908152604090205481565b6040519081526020016100d3565b6101117f000000000000000000000000000000000000000000000000000000000000000081565b6100ef610154366004610844565b610249565b6100bf7f000000000000000000000000000000000000000000000000000000000000000081565b6100ef61018e366004610868565b6102a5565b6101116101a1366004610a93565b610368565b6100ef6101b4366004610bb3565b610432565b336001600160a01b037f0000000000000000000000000000000000000000000000000000000000000000161461020257604051632976566b60e01b815260040160405180910390fd5b6001600160a01b0382166000908152602081905260408120805483929061022a908490610c0a565b9091555061024590506001600160a01b0383163330846104fb565b5050565b6040516317066a5760e21b81523060048201526001600160a01b03821690635c19a95c90602401600060405180830381600087803b15801561028a57600080fd5b505af115801561029e573d6000803e3d6000fd5b5050505050565b336001600160a01b037f000000000000000000000000000000000000000000000000000000000000000016146102ee57604051632976566b60e01b815260040160405180910390fd5b604051630acf027160e31b81526004810183905260ff821660248201526001600160a01b038416906356781388906044016020604051808303816000875af115801561033e573d6000803e3d6000fd5b505050506040513d601f19601f820116820180604052508101906103629190610c23565b50505050565b6000336001600160a01b037f000000000000000000000000000000000000000000000000000000000000000016146103b357604051632976566b60e01b815260040160405180910390fd5b604051633eaf40f160e11b81526001600160a01b03871690637d5e81e2906103e5908890889088908890600401610ce1565b6020604051808303816000875af1158015610404573d6000803e3d6000fd5b505050506040513d601f19601f820116820180604052508101906104289190610c23565b9695505050505050565b336001600160a01b037f0000000000000000000000000000000000000000000000000000000000000000161461047b57604051632976566b60e01b815260040160405180910390fd5b6001600160a01b0383166000908152602081905260409020548111156104b457604051633fe8fd1d60e01b815260040160405180910390fd5b6001600160a01b038316600090815260208190526040812080548392906104dc908490610d82565b909155506104f690506001600160a01b0384168383610566565b505050565b6040516001600160a01b03808516602483015283166044820152606481018290526103629085906323b872dd60e01b906084015b60408051601f198184030181529190526020810180516001600160e01b03166001600160e01b031990931692909217909152610596565b6040516001600160a01b0383166024820152604481018290526104f690849063a9059cbb60e01b9060640161052f565b60006105eb826040518060400160405280602081526020017f5361666545524332303a206c6f772d6c6576656c2063616c6c206661696c6564815250856001600160a01b03166106709092919063ffffffff16565b905080516000148061060c57508080602001905181019061060c9190610d95565b6104f65760405162461bcd60e51b815260206004820152602a60248201527f5361666545524332303a204552433230206f7065726174696f6e20646964206e6044820152691bdd081cdd58d8d9595960b21b60648201526084015b60405180910390fd5b606061067f8484600085610687565b949350505050565b6060824710156106e85760405162461bcd60e51b815260206004820152602660248201527f416464726573733a20696e73756666696369656e742062616c616e636520666f6044820152651c8818d85b1b60d21b6064820152608401610667565b600080866001600160a01b031685876040516107049190610db7565b60006040518083038185875af1925050503d8060008114610741576040519150601f19603f3d011682016040523d82523d6000602084013e610746565b606091505b509150915061075787838387610762565b979650505050505050565b606083156107d15782516000036107ca576001600160a01b0385163b6107ca5760405162461bcd60e51b815260206004820152601d60248201527f416464726573733a2063616c6c20746f206e6f6e2d636f6e74726163740000006044820152606401610667565b508161067f565b61067f83838151156107e65781518083602001fd5b8060405162461bcd60e51b81526004016106679190610dd3565b6001600160a01b038116811461081557600080fd5b50565b6000806040838503121561082b57600080fd5b823561083681610800565b946020939093013593505050565b60006020828403121561085657600080fd5b813561086181610800565b9392505050565b60008060006060848603121561087d57600080fd5b833561088881610800565b925060208401359150604084013560ff811681146108a557600080fd5b809150509250925092565b634e487b7160e01b600052604160045260246000fd5b604051601f8201601f1916810167ffffffffffffffff811182821017156108ef576108ef6108b0565b604052919050565b600067ffffffffffffffff821115610911576109116108b0565b5060051b60200190565b600082601f83011261092c57600080fd5b8135602061094161093c836108f7565b6108c6565b82815260059290921b8401810191818101908684111561096057600080fd5b8286015b8481101561097b5780358352918301918301610964565b509695505050505050565b600067ffffffffffffffff8311156109a0576109a06108b0565b6109b3601f8401601f19166020016108c6565b90508281528383830111156109c757600080fd5b828260208301376000602084830101529392505050565b600082601f8301126109ef57600080fd5b813560206109ff61093c836108f7565b82815260059290921b84018101918181019086841115610a1e57600080fd5b8286015b8481101561097b57803567ffffffffffffffff811115610a425760008081fd5b8701603f81018913610a545760008081fd5b610a65898683013560408401610986565b845250918301918301610a22565b600082601f830112610a8457600080fd5b61086183833560208501610986565b600080600080600060a08688031215610aab57600080fd5b8535610ab681610800565b945060208681013567ffffffffffffffff80821115610ad457600080fd5b818901915089601f830112610ae857600080fd5b8135610af661093c826108f7565b81815260059190911b8301840190848101908c831115610b1557600080fd5b938501935b82851015610b3c578435610b2d81610800565b82529385019390850190610b1a565b985050506040890135925080831115610b5457600080fd5b610b608a848b0161091b565b95506060890135925080831115610b7657600080fd5b610b828a848b016109de565b94506080890135925080831115610b9857600080fd5b5050610ba688828901610a73565b9150509295509295909350565b600080600060608486031215610bc857600080fd5b8335610bd381610800565b92506020840135610be381610800565b929592945050506040919091013590565b634e487b7160e01b600052601160045260246000fd5b80820180821115610c1d57610c1d610bf4565b92915050565b600060208284031215610c3557600080fd5b5051919050565b60005b83811015610c57578181015183820152602001610c3f565b50506000910152565b60008151808452610c78816020860160208601610c3c565b601f01601f19169290920160200192915050565b600081518084526020808501808196508360051b8101915082860160005b85811015610cd4578284038952610cc2848351610c60565b98850198935090840190600101610caa565b5091979650505050505050565b6080808252855190820181905260009060209060a0840190828901845b82811015610d235781516001600160a01b031684529284019290840190600101610cfe565b5050508381038285015286518082528783019183019060005b81811015610d5857835183529284019291840191600101610d3c565b50508481036040860152610d6c8188610c8c565b9250505082810360608401526107578185610c60565b81810381811115610c1d57610c1d610bf4565b600060208284031215610da757600080fd5b8151801515811461086157600080fd5b60008251610dc9818460208701610c3c565b9190910192915050565b6020815260006108616020830184610c6056fea2646970667358221220d79cfc2200058d844d07e74519516a4e7979970f7e90e62baa305899516ccfd664736f6c63430008130033",
    "linkReferences": {}
  },
  "methodIdentifiers": {
    "clusters(uint256)": "919500c0",
    "governanceExecutor()": "8fc98386",
    "initializeIfNecessary()": "ab08f044",
    "isInitialized()": "392e53cd",
    "liquidityManager()": "33827438",
    "owner()": "8da5cb5b",
    "renounceOwnership()": "715018a6",
    "transferOwnership(address)": "f2fde38b"
  },
  "id": 65
}