{
  "abi": [
    {
      "inputs": [
        {
          "internalType": "uint256",
          "name": "amountToMint",
          "type": "uint256"
        }
      ],
      "stateMutability": "nonpayable",
      "type": "constructor"
    },
    {
      "inputs": [],
      "name": "InvalidShortString",
      "type": "error"
    },
    {
      "inputs": [
        {
          "internalType": "string",
          "name": "str",
          "type": "string"
        }
      ],
      "name": "StringTooLong",
      "type": "error"
    },
    {
      "anonymous": false,
      "inputs": [
        {
          "indexed": true,
          "internalType": "address",
          "name": "owner",
          "type": "address"
        },
        {
          "indexed": true,
          "internalType": "address",
          "name": "spender",
          "type": "address"
        },
        {
          "indexed": false,
          "internalType": "uint256",
          "name": "value",
          "type": "uint256"
        }
      ],
      "name": "Approval",
      "type": "event"
    },
    {
      "anonymous": false,
      "inputs": [
        {
          "indexed": true,
          "internalType": "address",
          "name": "delegator",
          "type": "address"
        },
        {
          "indexed": true,
          "internalType": "address",
          "name": "fromDelegate",
          "type": "address"
        },
        {
          "indexed": true,
          "internalType": "address",
          "name": "toDelegate",
          "type": "address"
        }
      ],
      "name": "DelegateChanged",
      "type": "event"
    },
    {
      "anonymous": false,
      "inputs": [
        {
          "indexed": true,
          "internalType": "address",
          "name": "delegate",
          "type": "address"
        },
        {
          "indexed": false,
          "internalType": "uint256",
          "name": "previousBalance",
          "type": "uint256"
        },
        {
          "indexed": false,
          "internalType": "uint256",
          "name": "newBalance",
          "type": "uint256"
        }
      ],
      "name": "DelegateVotesChanged",
      "type": "event"
    },
    {
      "anonymous": false,
      "inputs": [],
      "name": "EIP712DomainChanged",
      "type": "event"
    },
    {
      "anonymous": false,
      "inputs": [
        {
          "indexed": true,
          "internalType": "address",
          "name": "from",
          "type": "address"
        },
        {
          "indexed": true,
          "internalType": "address",
          "name": "to",
          "type": "address"
        },
        {
          "indexed": false,
          "internalType": "uint256",
          "name": "value",
          "type": "uint256"
        }
      ],
      "name": "Transfer",
      "type": "event"
    },
    {
      "inputs": [],
      "name": "CLOCK_MODE",
      "outputs": [
        {
          "internalType": "string",
          "name": "",
          "type": "string"
        }
      ],
      "stateMutability": "view",
      "type": "function"
    },
    {
      "inputs": [],
      "name": "DOMAIN_SEPARATOR",
      "outputs": [
        {
          "internalType": "bytes32",
          "name": "",
          "type": "bytes32"
        }
      ],
      "stateMutability": "view",
      "type": "function"
    },
    {
      "inputs": [
        {
          "internalType": "address",
          "name": "owner",
          "type": "address"
        },
        {
          "internalType": "address",
          "name": "spender",
          "type": "address"
        }
      ],
      "name": "allowance",
      "outputs": [
        {
          "internalType": "uint256",
          "name": "",
          "type": "uint256"
        }
      ],
      "stateMutability": "view",
      "type": "function"
    },
    {
      "inputs": [
        {
          "internalType": "address",
          "name": "spender",
          "type": "address"
        },
        {
          "internalType": "uint256",
          "name": "amount",
          "type": "uint256"
        }
      ],
      "name": "approve",
      "outputs": [
        {
          "internalType": "bool",
          "name": "",
          "type": "bool"
        }
      ],
      "stateMutability": "nonpayable",
      "type": "function"
    },
    {
      "inputs": [
        {
          "internalType": "address",
          "name": "account",
          "type": "address"
        }
      ],
      "name": "balanceOf",
      "outputs": [
        {
          "internalType": "uint256",
          "name": "",
          "type": "uint256"
        }
      ],
      "stateMutability": "view",
      "type": "function"
    },
    {
      "inputs": [
        {
          "internalType": "address",
          "name": "account",
          "type": "address"
        },
        {
          "internalType": "uint32",
          "name": "pos",
          "type": "uint32"
        }
      ],
      "name": "checkpoints",
      "outputs": [
        {
          "components": [
            {
              "internalType": "uint32",
              "name": "fromBlock",
              "type": "uint32"
            },
            {
              "internalType": "uint224",
              "name": "votes",
              "type": "uint224"
            }
          ],
          "internalType": "struct ERC20Votes.Checkpoint",
          "name": "",
          "type": "tuple"
        }
      ],
      "stateMutability": "view",
      "type": "function"
    },
    {
      "inputs": [],
      "name": "clock",
      "outputs": [
        {
          "internalType": "uint48",
          "name": "",
          "type": "uint48"
        }
      ],
      "stateMutability": "view",
      "type": "function"
    },
    {
      "inputs": [],
      "name": "decimals",
      "outputs": [
        {
          "internalType": "uint8",
          "name": "",
          "type": "uint8"
        }
      ],
      "stateMutability": "view",
      "type": "function"
    },
    {
      "inputs": [
        {
          "internalType": "address",
          "name": "spender",
          "type": "address"
        },
        {
          "internalType": "uint256",
          "name": "subtractedValue",
          "type": "uint256"
        }
      ],
      "name": "decreaseAllowance",
      "outputs": [
        {
          "internalType": "bool",
          "name": "",
          "type": "bool"
        }
      ],
      "stateMutability": "nonpayable",
      "type": "function"
    },
    {
      "inputs": [
        {
          "internalType": "address",
          "name": "delegatee",
          "type": "address"
        }
      ],
      "name": "delegate",
      "outputs": [],
      "stateMutability": "nonpayable",
      "type": "function"
    },
    {
      "inputs": [
        {
          "internalType": "address",
          "name": "delegatee",
          "type": "address"
        },
        {
          "internalType": "uint256",
          "name": "nonce",
          "type": "uint256"
        },
        {
          "internalType": "uint256",
          "name": "expiry",
          "type": "uint256"
        },
        {
          "internalType": "uint8",
          "name": "v",
          "type": "uint8"
        },
        {
          "internalType": "bytes32",
          "name": "r",
          "type": "bytes32"
        },
        {
          "internalType": "bytes32",
          "name": "s",
          "type": "bytes32"
        }
      ],
      "name": "delegateBySig",
      "outputs": [],
      "stateMutability": "nonpayable",
      "type": "function"
    },
    {
      "inputs": [
        {
          "internalType": "address",
          "name": "account",
          "type": "address"
        }
      ],
      "name": "delegates",
      "outputs": [
        {
          "internalType": "address",
          "name": "",
          "type": "address"
        }
      ],
      "stateMutability": "view",
      "type": "function"
    },
    {
      "inputs": [],
      "name": "deploymentTimestamp",
      "outputs": [
        {
          "internalType": "uint256",
          "name": "",
          "type": "uint256"
        }
      ],
      "stateMutability": "view",
      "type": "function"
    },
    {
      "inputs": [],
      "name": "eip712Domain",
      "outputs": [
        {
          "internalType": "bytes1",
          "name": "fields",
          "type": "bytes1"
        },
        {
          "internalType": "string",
          "name": "name",
          "type": "string"
        },
        {
          "internalType": "string",
          "name": "version",
          "type": "string"
        },
        {
          "internalType": "uint256",
          "name": "chainId",
          "type": "uint256"
        },
        {
          "internalType": "address",
          "name": "verifyingContract",
          "type": "address"
        },
        {
          "internalType": "bytes32",
          "name": "salt",
          "type": "bytes32"
        },
        {
          "internalType": "uint256[]",
          "name": "extensions",
          "type": "uint256[]"
        }
      ],
      "stateMutability": "view",
      "type": "function"
    },
    {
      "inputs": [],
      "name": "faucet",
      "outputs": [],
      "stateMutability": "nonpayable",
      "type": "function"
    },
    {
      "inputs": [
        {
          "internalType": "uint256",
          "name": "timepoint",
          "type": "uint256"
        }
      ],
      "name": "getPastTotalSupply",
      "outputs": [
        {
          "internalType": "uint256",
          "name": "",
          "type": "uint256"
        }
      ],
      "stateMutability": "view",
      "type": "function"
    },
    {
      "inputs": [
        {
          "internalType": "address",
          "name": "account",
          "type": "address"
        },
        {
          "internalType": "uint256",
          "name": "timepoint",
          "type": "uint256"
        }
      ],
      "name": "getPastVotes",
      "outputs": [
        {
          "internalType": "uint256",
          "name": "",
          "type": "uint256"
        }
      ],
      "stateMutability": "view",
      "type": "function"
    },
    {
      "inputs": [
        {
          "internalType": "address",
          "name": "account",
          "type": "address"
        }
      ],
      "name": "getVotes",
      "outputs": [
        {
          "internalType": "uint256",
          "name": "",
          "type": "uint256"
        }
      ],
      "stateMutability": "view",
      "type": "function"
    },
    {
      "inputs": [
        {
          "internalType": "address",
          "name": "spender",
          "type": "address"
        },
        {
          "internalType": "uint256",
          "name": "addedValue",
          "type": "uint256"
        }
      ],
      "name": "increaseAllowance",
      "outputs": [
        {
          "internalType": "bool",
          "name": "",
          "type": "bool"
        }
      ],
      "stateMutability": "nonpayable",
      "type": "function"
    },
    {
      "inputs": [
        {
          "internalType": "address",
          "name": "",
          "type": "address"
        }
      ],
      "name": "initialRecipients",
      "outputs": [
        {
          "internalType": "uint256",
          "name": "totalAmount",
          "type": "uint256"
        },
        {
          "internalType": "uint256",
          "name": "finalTimestamp",
          "type": "uint256"
        },
        {
          "internalType": "uint256",
          "name": "alreadyPaid",
          "type": "uint256"
        }
      ],
      "stateMutability": "view",
      "type": "function"
    },
    {
      "inputs": [],
      "name": "name",
      "outputs": [
        {
          "internalType": "string",
          "name": "",
          "type": "string"
        }
      ],
      "stateMutability": "view",
      "type": "function"
    },
    {
      "inputs": [
        {
          "internalType": "address",
          "name": "owner",
          "type": "address"
        }
      ],
      "name": "nonces",
      "outputs": [
        {
          "internalType": "uint256",
          "name": "",
          "type": "uint256"
        }
      ],
      "stateMutability": "view",
      "type": "function"
    },
    {
      "inputs": [
        {
          "internalType": "address",
          "name": "account",
          "type": "address"
        }
      ],
      "name": "numCheckpoints",
      "outputs": [
        {
          "internalType": "uint32",
          "name": "",
          "type": "uint32"
        }
      ],
      "stateMutability": "view",
      "type": "function"
    },
    {
      "inputs": [
        {
          "internalType": "address",
          "name": "owner",
          "type": "address"
        },
        {
          "internalType": "address",
          "name": "spender",
          "type": "address"
        },
        {
          "internalType": "uint256",
          "name": "value",
          "type": "uint256"
        },
        {
          "internalType": "uint256",
          "name": "deadline",
          "type": "uint256"
        },
        {
          "internalType": "uint8",
          "name": "v",
          "type": "uint8"
        },
        {
          "internalType": "bytes32",
          "name": "r",
          "type": "bytes32"
        },
        {
          "internalType": "bytes32",
          "name": "s",
          "type": "bytes32"
        }
      ],
      "name": "permit",
      "outputs": [],
      "stateMutability": "nonpayable",
      "type": "function"
    },
    {
      "inputs": [],
      "name": "redeem",
      "outputs": [],
      "stateMutability": "nonpayable",
      "type": "function"
    },
    {
      "inputs": [],
      "name": "symbol",
      "outputs": [
        {
          "internalType": "string",
          "name": "",
          "type": "string"
        }
      ],
      "stateMutability": "view",
      "type": "function"
    },
    {
      "inputs": [],
      "name": "totalSupply",
      "outputs": [
        {
          "internalType": "uint256",
          "name": "",
          "type": "uint256"
        }
      ],
      "stateMutability": "view",
      "type": "function"
    },
    {
      "inputs": [
        {
          "internalType": "address",
          "name": "to",
          "type": "address"
        },
        {
          "internalType": "uint256",
          "name": "amount",
          "type": "uint256"
        }
      ],
      "name": "transfer",
      "outputs": [
        {
          "internalType": "bool",
          "name": "",
          "type": "bool"
        }
      ],
      "stateMutability": "nonpayable",
      "type": "function"
    },
    {
      "inputs": [
        {
          "internalType": "address",
          "name": "from",
          "type": "address"
        },
        {
          "internalType": "address",
          "name": "to",
          "type": "address"
        },
        {
          "internalType": "uint256",
          "name": "amount",
          "type": "uint256"
        }
      ],
      "name": "transferFrom",
      "outputs": [
        {
          "internalType": "bool",
          "name": "",
          "type": "bool"
        }
      ],
      "stateMutability": "nonpayable",
      "type": "function"
    }
  ],
  "bytecode": {
    "object": "0x6101606040523480156200001257600080fd5b5060405162002eb438038062002eb4833981016040819052620000359162000987565b6040518060400160405280600e81526020016d29ba30b4b93bb0bc902a37b5b2b760911b81525080604051806040016040528060018152602001603160f81b8152506040518060400160405280600e81526020016d29ba30b4b93bb0bc902a37b5b2b760911b8152506040518060400160405280600381526020016253575960e81b8152508160039081620000cb919062000a45565b506004620000da828262000a45565b50620000ec91508390506005620002fa565b61012052620000fd816006620002fa565b61014052815160208084019190912060e052815190820120610100524660a0526200018b60e05161010051604080517f8b73c3c69bb8fe3d512ecc4cf759cc79239f7b179b0ffacaa9a75d522b39400f60208201529081019290925260608201524660808201523060a082015260009060c00160405160208183030381529060405280519060200120905090565b60805250503060c05250620001a1338262000333565b5042600d55604080516060808201835269021e19e0c9bab2400000808352600a6020808501828152600086880181815273f39fd6e51aad88f6f4ce6ab8827279cfffb922668252600c80855297517f6bb5d2bb374dbecbce8c790309e49d7026e9a4004feb9e95e6c3c50ef91438605591517f6bb5d2bb374dbecbce8c790309e49d7026e9a4004feb9e95e6c3c50ef91438615590517f6bb5d2bb374dbecbce8c790309e49d7026e9a4004feb9e95e6c3c50ef91438625586519485018752928452838101918252948301828152737fa9385be102ac3eac297483dd6233d62b3e149690925292909352517f0c629eb3c393d1a1823b74e4cc59232613764e287af71969da751500735b5f5d55517f0c629eb3c393d1a1823b74e4cc59232613764e287af71969da751500735b5f5e55517f0c629eb3c393d1a1823b74e4cc59232613764e287af71969da751500735b5f5f5562000bc8565b60006020835110156200031a57620003128362000343565b90506200032d565b8162000327848262000a45565b5060ff90505b92915050565b6200033f82826200038f565b5050565b600080829050601f815111156200037a578260405163305a27a960e01b815260040162000371919062000b11565b60405180910390fd5b8051620003878262000b61565b179392505050565b6200039b828262000437565b6001600160e01b03620003af620005048216565b1115620004185760405162461bcd60e51b815260206004820152603060248201527f4552433230566f7465733a20746f74616c20737570706c79207269736b73206f60448201526f766572666c6f77696e6720766f74657360801b606482015260840162000371565b62000431600b62000da76200050a60201b17836200051f565b50505050565b6001600160a01b0382166200048f5760405162461bcd60e51b815260206004820152601f60248201527f45524332303a206d696e7420746f20746865207a65726f206164647265737300604482015260640162000371565b8060026000828254620004a3919062000b9c565b90915550506001600160a01b038216600081815260208181526040808320805486019055518481527fddf252ad1be2c89b69c2b068fc378daa952ba7f163c4a11628f55a4df523b3ef910160405180910390a36200033f60008383620006ac565b60025490565b600062000518828462000b9c565b9392505050565b825460009081908181156200056e5760008781526020902082016000190160408051808201909152905463ffffffff8116825264010000000090046001600160e01b0316602082015262000583565b60408051808201909152600080825260208201525b905080602001516001600160e01b03169350620005a184868860201c565b9250600082118015620005ce5750620005b9620006b9565b65ffffffffffff16816000015163ffffffff16145b156200061757620005df83620006cb565b60008881526020902083016000190180546001600160e01b03929092166401000000000263ffffffff9092169190911790556200069d565b8660405180604001604052806200064562000637620006b960201b60201c565b65ffffffffffff166200073a565b63ffffffff1681526020016200065b86620006cb565b6001600160e01b0390811690915282546001810184556000938452602093849020835194909301519091166401000000000263ffffffff909316929092179101555b5050935093915050565b505050565b620006a7838383620007a1565b6000620006c643620007d5565b905090565b60006001600160e01b03821115620007365760405162461bcd60e51b815260206004820152602760248201527f53616665436173743a2076616c756520646f65736e27742066697420696e20326044820152663234206269747360c81b606482015260840162000371565b5090565b600063ffffffff821115620007365760405162461bcd60e51b815260206004820152602660248201527f53616665436173743a2076616c756520646f65736e27742066697420696e203360448201526532206269747360d01b606482015260840162000371565b6001600160a01b03838116600090815260096020526040808220548584168352912054620006a7929182169116836200083e565b600065ffffffffffff821115620007365760405162461bcd60e51b815260206004820152602660248201527f53616665436173743a2076616c756520646f65736e27742066697420696e203460448201526538206269747360d01b606482015260840162000371565b816001600160a01b0316836001600160a01b031614158015620008615750600081115b15620006a7576001600160a01b03831615620008ee576001600160a01b0383166000908152600a6020908152604082208291620008ab919062000979901b62000db317856200051f565b91509150846001600160a01b031660008051602062002e948339815191528383604051620008e3929190918252602082015260400190565b60405180910390a250505b6001600160a01b03821615620006a7576001600160a01b0382166000908152600a60209081526040822082916200093291906200050a901b62000da717856200051f565b91509150836001600160a01b031660008051602062002e9483398151915283836040516200096a929190918252602082015260400190565b60405180910390a25050505050565b600062000518828462000bb2565b6000602082840312156200099a57600080fd5b5051919050565b634e487b7160e01b600052604160045260246000fd5b600181811c90821680620009cc57607f821691505b602082108103620009ed57634e487b7160e01b600052602260045260246000fd5b50919050565b601f821115620006a757600081815260208120601f850160051c8101602086101562000a1c5750805b601f850160051c820191505b8181101562000a3d5782815560010162000a28565b505050505050565b81516001600160401b0381111562000a615762000a61620009a1565b62000a798162000a728454620009b7565b84620009f3565b602080601f83116001811462000ab1576000841562000a985750858301515b600019600386901b1c1916600185901b17855562000a3d565b600085815260208120601f198616915b8281101562000ae25788860151825594840194600190910190840162000ac1565b508582101562000b015787850151600019600388901b60f8161c191681555b5050505050600190811b01905550565b600060208083528351808285015260005b8181101562000b405785810183015185820160400152820162000b22565b506000604082860101526040601f19601f8301168501019250505092915050565b80516020808301519190811015620009ed5760001960209190910360031b1b16919050565b634e487b7160e01b600052601160045260246000fd5b808201808211156200032d576200032d62000b86565b818103818111156200032d576200032d62000b86565b60805160a05160c05160e05161010051610120516101405161227162000c23600039600061074c01526000610721015260006111e1015260006111b9015260006111140152600061113e0152600061116801526122716000f3fe608060405234801561001057600080fd5b50600436106101cf5760003560e01c80637ecebe0011610104578063a9059cbb116100a2578063d505accf11610071578063d505accf14610438578063dd62ed3e1461044b578063de5f72fd1461045e578063f1127ed81461046657600080fd5b8063a9059cbb14610401578063be040fb014610414578063bfc12c051461041c578063c3cda5201461042557600080fd5b806391ddadf4116100de57806391ddadf4146103b457806395d89b41146103d35780639ab24eb0146103db578063a457c2d7146103ee57600080fd5b80637ecebe001461037357806384b0196e146103865780638e539e8c146103a157600080fd5b80633a46b1a811610171578063587cde1e1161014b578063587cde1e146102c95780635c19a95c1461030d5780636fcfff451461032257806370a082311461034a57600080fd5b80633a46b1a8146102645780634bf5d7e91461027757806351f60c841461027f57600080fd5b806323b872dd116101ad57806323b872dd14610227578063313ce5671461023a5780633644e51514610249578063395093511461025157600080fd5b806306fdde03146101d4578063095ea7b3146101f257806318160ddd14610215575b600080fd5b6101dc6104a3565b6040516101e99190611eab565b60405180910390f35b610205610200366004611eda565b610535565b60405190151581526020016101e9565b6002545b6040519081526020016101e9565b610205610235366004611f04565b61054f565b604051601281526020016101e9565b610219610573565b61020561025f366004611eda565b610582565b610219610272366004611eda565b6105a4565b6101dc61062e565b6102ae61028d366004611f40565b600c6020526000908152604090208054600182015460029092015490919083565b604080519384526020840192909252908201526060016101e9565b6102f56102d7366004611f40565b6001600160a01b039081166000908152600960205260409020541690565b6040516001600160a01b0390911681526020016101e9565b61032061031b366004611f40565b6106c6565b005b610335610330366004611f40565b6106d3565b60405163ffffffff90911681526020016101e9565b610219610358366004611f40565b6001600160a01b031660009081526020819052604090205490565b610219610381366004611f40565b6106f5565b61038e610713565b6040516101e99796959493929190611f5b565b6102196103af366004611ff1565b61079c565b6103bc610803565b60405165ffffffffffff90911681526020016101e9565b6101dc61080e565b6102196103e9366004611f40565b61081d565b6102056103fc366004611eda565b61089f565b61020561040f366004611eda565b61091a565b610320610928565b610219600d5481565b61032061043336600461201b565b610a49565b610320610446366004612073565b610b7f565b6102196104593660046120dd565b610ce3565b610320610d0e565b610479610474366004612110565b610d23565b60408051825163ffffffff1681526020928301516001600160e01b031692810192909252016101e9565b6060600380546104b290612150565b80601f01602080910402602001604051908101604052809291908181526020018280546104de90612150565b801561052b5780601f106105005761010080835404028352916020019161052b565b820191906000526020600020905b81548152906001019060200180831161050e57829003601f168201915b5050505050905090565b600033610543818585610dbf565b60019150505b92915050565b60003361055d858285610ee3565b610568858585610f5d565b506001949350505050565b600061057d611107565b905090565b6000336105438185856105958383610ce3565b61059f919061219a565b610dbf565b60006105ae610803565b65ffffffffffff1682106106055760405162461bcd60e51b815260206004820152601960248201527804552433230566f7465733a20667574757265206c6f6f6b757603c1b60448201526064015b60405180910390fd5b6001600160a01b0383166000908152600a602052604090206106279083611232565b9392505050565b606043610639610803565b65ffffffffffff161461068e5760405162461bcd60e51b815260206004820152601d60248201527f4552433230566f7465733a2062726f6b656e20636c6f636b206d6f646500000060448201526064016105fc565b5060408051808201909152601d81527f6d6f64653d626c6f636b6e756d6265722666726f6d3d64656661756c74000000602082015290565b6106d0338261131b565b50565b6001600160a01b0381166000908152600a602052604081205461054990611394565b6001600160a01b038116600090815260076020526040812054610549565b6000606080828080836107477f000000000000000000000000000000000000000000000000000000000000000060056113fd565b6107727f000000000000000000000000000000000000000000000000000000000000000060066113fd565b60408051600080825260208201909252600f60f81b9b939a50919850469750309650945092509050565b60006107a6610803565b65ffffffffffff1682106107f85760405162461bcd60e51b815260206004820152601960248201527804552433230566f7465733a20667574757265206c6f6f6b757603c1b60448201526064016105fc565b610549600b83611232565b600061057d436114a8565b6060600480546104b290612150565b6001600160a01b0381166000908152600a6020526040812054801561088c576001600160a01b0383166000908152600a602052604090208054600019830190811061086a5761086a6121ad565b60009182526020909120015464010000000090046001600160e01b031661088f565b60005b6001600160e01b03169392505050565b600033816108ad8286610ce3565b90508381101561090d5760405162461bcd60e51b815260206004820152602560248201527f45524332303a2064656372656173656420616c6c6f77616e63652062656c6f77604482015264207a65726f60d81b60648201526084016105fc565b6105688286868403610dbf565b600033610543818585610f5d565b336000908152600c6020526040902080546109855760405162461bcd60e51b815260206004820152601860248201527f4e6f7420617574686f72697a656420746f2072656465656d000000000000000060448201526064016105fc565b600061099542836001015461150f565b905060008260020154600d5484600101546109b091906121c3565b8454600d546109bf90866121c3565b6109c991906121d6565b6109d39190612203565b6109dd91906121c3565b905060008111610a255760405162461bcd60e51b81526020600482015260136024820152724e6f20746f6b656e7320746f2072656465656d60681b60448201526064016105fc565b808360020154610a35919061219a565b6002840155610a443382611525565b505050565b83421115610a995760405162461bcd60e51b815260206004820152601d60248201527f4552433230566f7465733a207369676e6174757265206578706972656400000060448201526064016105fc565b604080517fe48329057bfd03d55e49b547132e39cffd9c1820ad7b9d4c5307691425d15adf60208201526001600160a01b038816918101919091526060810186905260808101859052600090610b1390610b0b9060a00160405160208183030381529060405280519060200120611533565b858585611560565b9050610b1e81611588565b8614610b6c5760405162461bcd60e51b815260206004820152601960248201527f4552433230566f7465733a20696e76616c6964206e6f6e63650000000000000060448201526064016105fc565b610b76818861131b565b50505050505050565b83421115610bcf5760405162461bcd60e51b815260206004820152601d60248201527f45524332305065726d69743a206578706972656420646561646c696e6500000060448201526064016105fc565b60007f6e71edae12b1b97f4d1f60370fef10105fa2faae0126114a169c64845d6126c9888888610bfe8c611588565b6040805160208101969096526001600160a01b0394851690860152929091166060840152608083015260a082015260c0810186905260e0016040516020818303038152906040528051906020012090506000610c5982611533565b90506000610c6982878787611560565b9050896001600160a01b0316816001600160a01b031614610ccc5760405162461bcd60e51b815260206004820152601e60248201527f45524332305065726d69743a20696e76616c6964207369676e6174757265000060448201526064016105fc565b610cd78a8a8a610dbf565b50505050505050505050565b6001600160a01b03918216600090815260016020908152604080832093909416825291909152205490565b610d213368056bc75e2d63100000611525565b565b60408051808201909152600080825260208201526001600160a01b0383166000908152600a60205260409020805463ffffffff8416908110610d6757610d676121ad565b60009182526020918290206040805180820190915291015463ffffffff8116825264010000000090046001600160e01b0316918101919091529392505050565b6000610627828461219a565b600061062782846121c3565b6001600160a01b038316610e215760405162461bcd60e51b8152602060048201526024808201527f45524332303a20617070726f76652066726f6d20746865207a65726f206164646044820152637265737360e01b60648201526084016105fc565b6001600160a01b038216610e825760405162461bcd60e51b815260206004820152602260248201527f45524332303a20617070726f766520746f20746865207a65726f206164647265604482015261737360f01b60648201526084016105fc565b6001600160a01b0383811660008181526001602090815260408083209487168084529482529182902085905590518481527f8c5be1e5ebec7d5bd14f71427d1e84f3dd0314c0f7b2291e5b200ac8c7c3b925910160405180910390a3505050565b6000610eef8484610ce3565b90506000198114610f575781811015610f4a5760405162461bcd60e51b815260206004820152601d60248201527f45524332303a20696e73756666696369656e7420616c6c6f77616e636500000060448201526064016105fc565b610f578484848403610dbf565b50505050565b6001600160a01b038316610fc15760405162461bcd60e51b815260206004820152602560248201527f45524332303a207472616e736665722066726f6d20746865207a65726f206164604482015264647265737360d81b60648201526084016105fc565b6001600160a01b0382166110235760405162461bcd60e51b815260206004820152602360248201527f45524332303a207472616e7366657220746f20746865207a65726f206164647260448201526265737360e81b60648201526084016105fc565b6001600160a01b0383166000908152602081905260409020548181101561109b5760405162461bcd60e51b815260206004820152602660248201527f45524332303a207472616e7366657220616d6f756e7420657863656564732062604482015265616c616e636560d01b60648201526084016105fc565b6001600160a01b03848116600081815260208181526040808320878703905593871680835291849020805487019055925185815290927fddf252ad1be2c89b69c2b068fc378daa952ba7f163c4a11628f55a4df523b3ef910160405180910390a3610f578484846115b0565b6000306001600160a01b037f00000000000000000000000000000000000000000000000000000000000000001614801561116057507f000000000000000000000000000000000000000000000000000000000000000046145b1561118a57507f000000000000000000000000000000000000000000000000000000000000000090565b61057d604080517f8b73c3c69bb8fe3d512ecc4cf759cc79239f7b179b0ffacaa9a75d522b39400f60208201527f0000000000000000000000000000000000000000000000000000000000000000918101919091527f000000000000000000000000000000000000000000000000000000000000000060608201524660808201523060a082015260009060c00160405160208183030381529060405280519060200120905090565b81546000908181600581111561128c57600061124d846115bb565b61125790856121c3565b600088815260209020909150869082015463ffffffff16111561127c5780915061128a565b61128781600161219a565b92505b505b808210156112d95760006112a083836116a3565b600088815260209020909150869082015463ffffffff1611156112c5578091506112d3565b6112d081600161219a565b92505b5061128c565b8015611305576000868152602090208101600019015464010000000090046001600160e01b0316611308565b60005b6001600160e01b03169695505050505050565b6001600160a01b038281166000818152600960208181526040808420805485845282862054949093528787166001600160a01b03198416811790915590519190951694919391928592917f3134e8a2e6d97e929a7e54011ea5485d7d196dd5f0ba4d4ef95803e8e3fc257f9190a4610f578284836116be565b600063ffffffff8211156113f95760405162461bcd60e51b815260206004820152602660248201527f53616665436173743a2076616c756520646f65736e27742066697420696e203360448201526532206269747360d01b60648201526084016105fc565b5090565b606060ff831461141757611410836117fb565b9050610549565b81805461142390612150565b80601f016020809104026020016040519081016040528092919081815260200182805461144f90612150565b801561149c5780601f106114715761010080835404028352916020019161149c565b820191906000526020600020905b81548152906001019060200180831161147f57829003601f168201915b50505050509050610549565b600065ffffffffffff8211156113f95760405162461bcd60e51b815260206004820152602660248201527f53616665436173743a2076616c756520646f65736e27742066697420696e203460448201526538206269747360d01b60648201526084016105fc565b600081831061151e5781610627565b5090919050565b61152f828261183a565b5050565b6000610549611540611107565b8360405161190160f01b8152600281019290925260228201526042902090565b6000806000611571878787876118c4565b9150915061157e81611988565b5095945050505050565b6001600160a01b03811660009081526007602052604090208054600181018255905b50919050565b610a44838383611ad2565b6000816000036115cd57506000919050565b600060016115da84611b04565b901c6001901b905060018184816115f3576115f36121ed565b048201901c9050600181848161160b5761160b6121ed565b048201901c90506001818481611623576116236121ed565b048201901c9050600181848161163b5761163b6121ed565b048201901c90506001818481611653576116536121ed565b048201901c9050600181848161166b5761166b6121ed565b048201901c90506001818481611683576116836121ed565b048201901c90506106278182858161169d5761169d6121ed565b0461150f565b60006116b26002848418612203565b6106279084841661219a565b816001600160a01b0316836001600160a01b0316141580156116e05750600081115b15610a44576001600160a01b0383161561176e576001600160a01b0383166000908152600a60205260408120819061171b90610db385611b98565b91509150846001600160a01b03167fdec2bacdd2f05b59de34da9b523dff8be42e5e38e818c82fdb0bae774387a7248383604051611763929190918252602082015260400190565b60405180910390a250505b6001600160a01b03821615610a44576001600160a01b0382166000908152600a6020526040812081906117a490610da785611b98565b91509150836001600160a01b03167fdec2bacdd2f05b59de34da9b523dff8be42e5e38e818c82fdb0bae774387a72483836040516117ec929190918252602082015260400190565b60405180910390a25050505050565b6060600061180883611d0d565b604080516020808252818301909252919250600091906020820181803683375050509182525060208101929092525090565b6118448282611d35565b6002546001600160e01b0310156118b65760405162461bcd60e51b815260206004820152603060248201527f4552433230566f7465733a20746f74616c20737570706c79207269736b73206f60448201526f766572666c6f77696e6720766f74657360801b60648201526084016105fc565b610f57600b610da783611b98565b6000807f7fffffffffffffffffffffffffffffff5d576e7357a4501ddfe92f46681b20a08311156118fb575060009050600361197f565b6040805160008082526020820180845289905260ff881692820192909252606081018690526080810185905260019060a0016020604051602081039080840390855afa15801561194f573d6000803e3d6000fd5b5050604051601f1901519150506001600160a01b0381166119785760006001925092505061197f565b9150600090505b94509492505050565b600081600481111561199c5761199c612225565b036119a45750565b60018160048111156119b8576119b8612225565b03611a055760405162461bcd60e51b815260206004820152601860248201527f45434453413a20696e76616c6964207369676e6174757265000000000000000060448201526064016105fc565b6002816004811115611a1957611a19612225565b03611a665760405162461bcd60e51b815260206004820152601f60248201527f45434453413a20696e76616c6964207369676e6174757265206c656e6774680060448201526064016105fc565b6003816004811115611a7a57611a7a612225565b036106d05760405162461bcd60e51b815260206004820152602260248201527f45434453413a20696e76616c6964207369676e6174757265202773272076616c604482015261756560f01b60648201526084016105fc565b6001600160a01b03838116600090815260096020526040808220548584168352912054610a44929182169116836116be565b600080608083901c15611b1957608092831c92015b604083901c15611b2b57604092831c92015b602083901c15611b3d57602092831c92015b601083901c15611b4f57601092831c92015b600883901c15611b6157600892831c92015b600483901c15611b7357600492831c92015b600283901c15611b8557600292831c92015b600183901c156105495760010192915050565b82546000908190818115611be55760008781526020902082016000190160408051808201909152905463ffffffff8116825264010000000090046001600160e01b03166020820152611bfa565b60408051808201909152600080825260208201525b905080602001516001600160e01b03169350611c1a84868863ffffffff16565b9250600082118015611c445750611c2f610803565b65ffffffffffff16816000015163ffffffff16145b15611c8957611c5283611dfc565b60008881526020902083016000190180546001600160e01b03929092166401000000000263ffffffff909216919091179055611d03565b866040518060400160405280611cad611ca0610803565b65ffffffffffff16611394565b63ffffffff168152602001611cc186611dfc565b6001600160e01b0390811690915282546001810184556000938452602093849020835194909301519091166401000000000263ffffffff909316929092179101555b5050935093915050565b600060ff8216601f81111561054957604051632cd44ac360e21b815260040160405180910390fd5b6001600160a01b038216611d8b5760405162461bcd60e51b815260206004820152601f60248201527f45524332303a206d696e7420746f20746865207a65726f20616464726573730060448201526064016105fc565b8060026000828254611d9d919061219a565b90915550506001600160a01b038216600081815260208181526040808320805486019055518481527fddf252ad1be2c89b69c2b068fc378daa952ba7f163c4a11628f55a4df523b3ef910160405180910390a361152f600083836115b0565b60006001600160e01b038211156113f95760405162461bcd60e51b815260206004820152602760248201527f53616665436173743a2076616c756520646f65736e27742066697420696e20326044820152663234206269747360c81b60648201526084016105fc565b6000815180845260005b81811015611e8b57602081850181015186830182015201611e6f565b506000602082860101526020601f19601f83011685010191505092915050565b6020815260006106276020830184611e65565b80356001600160a01b0381168114611ed557600080fd5b919050565b60008060408385031215611eed57600080fd5b611ef683611ebe565b946020939093013593505050565b600080600060608486031215611f1957600080fd5b611f2284611ebe565b9250611f3060208501611ebe565b9150604084013590509250925092565b600060208284031215611f5257600080fd5b61062782611ebe565b60ff60f81b881681526000602060e081840152611f7b60e084018a611e65565b8381036040850152611f8d818a611e65565b606085018990526001600160a01b038816608086015260a0850187905284810360c0860152855180825283870192509083019060005b81811015611fdf57835183529284019291840191600101611fc3565b50909c9b505050505050505050505050565b60006020828403121561200357600080fd5b5035919050565b803560ff81168114611ed557600080fd5b60008060008060008060c0878903121561203457600080fd5b61203d87611ebe565b955060208701359450604087013593506120596060880161200a565b92506080870135915060a087013590509295509295509295565b600080600080600080600060e0888a03121561208e57600080fd5b61209788611ebe565b96506120a560208901611ebe565b955060408801359450606088013593506120c16080890161200a565b925060a0880135915060c0880135905092959891949750929550565b600080604083850312156120f057600080fd5b6120f983611ebe565b915061210760208401611ebe565b90509250929050565b6000806040838503121561212357600080fd5b61212c83611ebe565b9150602083013563ffffffff8116811461214557600080fd5b809150509250929050565b600181811c9082168061216457607f821691505b6020821081036115aa57634e487b7160e01b600052602260045260246000fd5b634e487b7160e01b600052601160045260246000fd5b8082018082111561054957610549612184565b634e487b7160e01b600052603260045260246000fd5b8181038181111561054957610549612184565b808202811582820484141761054957610549612184565b634e487b7160e01b600052601260045260246000fd5b60008261222057634e487b7160e01b600052601260045260246000fd5b500490565b634e487b7160e01b600052602160045260246000fdfea2646970667358221220c784ccbce6d136f9a041ea5659eae7bccb5348c3b71c8530124bdf40eb4b4aa564736f6c63430008130033dec2bacdd2f05b59de34da9b523dff8be42e5e38e818c82fdb0bae774387a724",
    "linkReferences": {}
  },
  "methodIdentifiers": {
    "CLOCK_MODE()": "4bf5d7e9",
    "DOMAIN_SEPARATOR()": "3644e515",
    "allowance(address,address)": "dd62ed3e",
    "approve(address,uint256)": "095ea7b3",
    "balanceOf(address)": "70a08231",
    "checkpoints(address,uint32)": "f1127ed8",
    "clock()": "91ddadf4",
    "decimals()": "313ce567",
    "decreaseAllowance(address,uint256)": "a457c2d7",
    "delegate(address)": "5c19a95c",
    "delegateBySig(address,uint256,uint256,uint8,bytes32,bytes32)": "c3cda520",
    "delegates(address)": "587cde1e",
    "deploymentTimestamp()": "bfc12c05",
    "eip712Domain()": "84b0196e",
    "faucet()": "de5f72fd",
    "getPastTotalSupply(uint256)": "8e539e8c",
    "getPastVotes(address,uint256)": "3a46b1a8",
    "getVotes(address)": "9ab24eb0",
    "increaseAllowance(address,uint256)": "39509351",
    "initialRecipients(address)": "51f60c84",
    "name()": "06fdde03",
    "nonces(address)": "7ecebe00",
    "numCheckpoints(address)": "6fcfff45",
    "permit(address,address,uint256,uint256,uint8,bytes32,bytes32)": "d505accf",
    "redeem()": "be040fb0",
    "symbol()": "95d89b41",
    "totalSupply()": "18160ddd",
    "transfer(address,uint256)": "a9059cbb",
    "transferFrom(address,address,uint256)": "23b872dd"
  },
  "id": 76
}