{
  "abi": [
    {
      "inputs": [
        {
          "internalType": "contract IPoolManager",
          "name": "_poolManager",
          "type": "address"
        },
        {
          "internalType": "contract ISwapManager",
          "name": "_swapManager",
          "type": "address"
        },
        {
          "internalType": "contract ILiquidityRamp",
          "name": "_liquidityRamp",
          "type": "address"
        },
        {
          "internalType": "contract ILiquidityManager",
          "name": "_liquidityManager",
          "type": "address"
        }
      ],
      "stateMutability": "nonpayable",
      "type": "constructor"
    },
    {
      "inputs": [],
      "name": "DEX__DeadlinePassed",
      "type": "error"
    },
    {
      "inputs": [],
      "name": "DEX__InvalidPath",
      "type": "error"
    },
    {
      "inputs": [],
      "name": "DEX__InvalidPrice",
      "type": "error"
    },
    {
      "inputs": [],
      "name": "DEX__PoolNotFound",
      "type": "error"
    },
    {
      "inputs": [],
      "name": "DEX__Slippage",
      "type": "error"
    },
    {
      "inputs": [],
      "name": "DEX__ZeroAmount",
      "type": "error"
    },
    {
      "inputs": [
        {
          "internalType": "contract IERC20",
          "name": "tokenA",
          "type": "address"
        },
        {
          "internalType": "contract IERC20",
          "name": "tokenB",
          "type": "address"
        },
        {
          "internalType": "uint256",
          "name": "amountA",
          "type": "uint256"
        },
        {
          "internalType": "uint256",
          "name": "amountB",
          "type": "uint256"
        },
        {
          "internalType": "uint256",
          "name": "acceptedSlippage",
          "type": "uint256"
        },
        {
          "internalType": "address",
          "name": "provider",
          "type": "address"
        },
        {
          "internalType": "uint256",
          "name": "deadline",
          "type": "uint256"
        }
      ],
      "name": "addLiquidity",
      "outputs": [
        {
          "internalType": "uint256",
          "name": "",
          "type": "uint256"
        },
        {
          "internalType": "uint256",
          "name": "",
          "type": "uint256"
        }
      ],
      "stateMutability": "nonpayable",
      "type": "function"
    },
    {
      "inputs": [
        {
          "internalType": "contract IERC20[]",
          "name": "path",
          "type": "address[]"
        },
        {
          "internalType": "uint256",
          "name": "desiredAmountOut",
          "type": "uint256"
        },
        {
          "internalType": "uint256",
          "name": "maxPrice",
          "type": "uint256"
        },
        {
          "internalType": "address",
          "name": "recipient",
          "type": "address"
        },
        {
          "internalType": "address",
          "name": "routingAgent",
          "type": "address"
        },
        {
          "internalType": "uint256",
          "name": "deadline",
          "type": "uint256"
        }
      ],
      "name": "buy",
      "outputs": [
        {
          "internalType": "uint256",
          "name": "actualAmountOut",
          "type": "uint256"
        },
        {
          "internalType": "uint256",
          "name": "amountIn",
          "type": "uint256"
        }
      ],
      "stateMutability": "nonpayable",
      "type": "function"
    },
    {
      "inputs": [
        {
          "internalType": "contract IERC20[]",
          "name": "path",
          "type": "address[]"
        }
      ],
      "name": "calculateSwapAmounts",
      "outputs": [
        {
          "internalType": "uint256",
          "name": "amountInMax",
          "type": "uint256"
        },
        {
          "internalType": "uint256",
          "name": "amountOutMax",
          "type": "uint256"
        }
      ],
      "stateMutability": "view",
      "type": "function"
    },
    {
      "inputs": [
        {
          "internalType": "contract IERC20",
          "name": "baseToken",
          "type": "address"
        },
        {
          "internalType": "contract IERC20",
          "name": "quoteToken",
          "type": "address"
        }
      ],
      "name": "getDepth",
      "outputs": [
        {
          "internalType": "uint256",
          "name": "depth",
          "type": "uint256"
        }
      ],
      "stateMutability": "view",
      "type": "function"
    },
    {
      "inputs": [
        {
          "internalType": "contract IERC20",
          "name": "baseToken",
          "type": "address"
        },
        {
          "internalType": "contract IERC20",
          "name": "quoteToken",
          "type": "address"
        }
      ],
      "name": "getPrice",
      "outputs": [
        {
          "internalType": "uint256",
          "name": "price",
          "type": "uint256"
        }
      ],
      "stateMutability": "view",
      "type": "function"
    },
    {
      "inputs": [],
      "name": "liquidityManager",
      "outputs": [
        {
          "internalType": "contract ILiquidityManager",
          "name": "",
          "type": "address"
        }
      ],
      "stateMutability": "view",
      "type": "function"
    },
    {
      "inputs": [],
      "name": "liquidityRamp",
      "outputs": [
        {
          "internalType": "contract ILiquidityRamp",
          "name": "",
          "type": "address"
        }
      ],
      "stateMutability": "view",
      "type": "function"
    },
    {
      "inputs": [],
      "name": "poolManager",
      "outputs": [
        {
          "internalType": "contract IPoolManager",
          "name": "",
          "type": "address"
        }
      ],
      "stateMutability": "view",
      "type": "function"
    },
    {
      "inputs": [
        {
          "internalType": "contract IERC20",
          "name": "tokenA",
          "type": "address"
        },
        {
          "internalType": "contract IERC20",
          "name": "tokenB",
          "type": "address"
        },
        {
          "internalType": "uint256",
          "name": "desiredAmountTokenA",
          "type": "uint256"
        },
        {
          "internalType": "uint256",
          "name": "desiredAmountTokenB",
          "type": "uint256"
        },
        {
          "internalType": "uint256",
          "name": "lpTokenQty",
          "type": "uint256"
        },
        {
          "internalType": "address",
          "name": "recipient",
          "type": "address"
        },
        {
          "internalType": "uint256",
          "name": "deadline",
          "type": "uint256"
        },
        {
          "internalType": "uint256",
          "name": "acceptedSlippage",
          "type": "uint256"
        }
      ],
      "name": "redeemLiquidity",
      "outputs": [
        {
          "internalType": "uint256",
          "name": "newLpTokenQty",
          "type": "uint256"
        }
      ],
      "stateMutability": "nonpayable",
      "type": "function"
    },
    {
      "inputs": [],
      "name": "swapManager",
      "outputs": [
        {
          "internalType": "contract ISwapManager",
          "name": "",
          "type": "address"
        }
      ],
      "stateMutability": "view",
      "type": "function"
    }
  ],
  "bytecode": {
    "object": "0x6101006040523480156200001257600080fd5b506040516200298938038062002989833981016040819052620000359162000071565b6001600160a01b0393841660805291831660a052821660c0521660e052620000d9565b6001600160a01b03811681146200006e57600080fd5b50565b600080600080608085870312156200008857600080fd5b8451620000958162000058565b6020860151909450620000a88162000058565b6040860151909350620000bb8162000058565b6060860151909250620000ce8162000058565b939692955090935050565b60805160a05160c05160e05161277b6200020e6000396000818160ce015281816105f4015281816109b001528181610a4701528181610c9301528181610ddf0152818161130301528181611338015281816114ba0152818161155101528181611657015281816116ee01528181611a3401528181611c7901528181611d9601528181611e3c0152611f0701526000818161014801528181610383015281816103db015261139a0152600081816101820152818161064a0152818161091701528181610bd301528181610f33015281816111040152611a680152600081816101cf0152818161022f015281816102fe015281816106790152818161083e01528181610af701528181610e5a0152818161102e015281816111c7015281816112760152818161142a0152611941015261277b6000f3fe608060405234801561001057600080fd5b506004361061009e5760003560e01c80636373097511610066578063637309751461016a578063709d039d1461017d578063ac41865a146101a4578063ba9f20b8146101b7578063dc4c90d3146101ca57600080fd5b80633118b3c8146100a357806333827438146100c957806341f12688146101085780634772b4df146101305780634dfd324e14610143575b600080fd5b6100b66100b13660046122bd565b6101f1565b6040519081526020015b60405180910390f35b6100f07f000000000000000000000000000000000000000000000000000000000000000081565b6040516001600160a01b0390911681526020016100c0565b61011b6101163660046123e4565b6104e7565b604080519283526020830191909152016100c0565b6100b661013e366004612464565b610839565b6100f07f000000000000000000000000000000000000000000000000000000000000000081565b61011b61017836600461249d565b610aca565b6100f07f000000000000000000000000000000000000000000000000000000000000000081565b6100b66101b2366004612464565b611029565b61011b6101c53660046124d2565b611177565b6100f07f000000000000000000000000000000000000000000000000000000000000000081565b6000828042111561021557604051630b5399cb60e31b815260040160405180910390fd5b604051638ae93f0b60e01b81526000906001600160a01b037f00000000000000000000000000000000000000000000000000000000000000001690638ae93f0b90610266908e908e90600401612544565b602060405180830381865afa158015610283573d6000803e3d6000fd5b505050506040513d601f19601f820116820180604052508101906102a7919061255e565b9050806000036102ca576040516305153add60e41b815260040160405180910390fd5b60006102d7828d8d611407565b9050878110156102e5578097505b6040516306ed78b760e21b8152600481018390526000907f00000000000000000000000000000000000000000000000000000000000000006001600160a01b031690631bb5e2dc90602401602060405180830381865afa15801561034d573d6000803e3d6000fd5b505050506040513d601f19601f820116820180604052508101906103719190612577565b90506103a86001600160a01b038216337f00000000000000000000000000000000000000000000000000000000000000008c6117ea565b60405163e5f415c960e01b81526001600160a01b038281166004830152602482018b9052898116604483015260009182917f0000000000000000000000000000000000000000000000000000000000000000169063e5f415c99060640160408051808303816000875af1158015610423573d6000803e3d6000fd5b505050506040513d601f19601f820116820180604052508101906104479190612594565b91509150826001600160a01b031663c451463b6040518163ffffffff1660e01b8152600401602060405180830381865afa158015610489573d6000803e3d6000fd5b505050506040513d601f19601f820116820180604052508101906104ad9190612577565b6001600160a01b03168f6001600160a01b0316036104c757905b6104d48d8d84848c61185b565b50989d9c50505050505050505050505050565b600080828042111561050c57604051630b5399cb60e31b815260040160405180910390fd5b60028951101561052f57604051635701c3f560e01b815260040160405180910390fd5b61053889610aca565b93509150600083610551670de0b6b3a7640000856125ce565b61055b91906125e5565b90508784670de0b6b3a7640000610573600187612607565b61057d91906125ce565b61058791906125e5565b11156105a657604051635a3967e360e11b815260040160405180910390fd5b838910156105e557670de0b6b3a76400006001816105c4848d6125ce565b6105ce919061261a565b6105d89190612607565b6105e291906125e5565b92505b89516002036107c257610648337f0000000000000000000000000000000000000000000000000000000000000000858d6000815181106106275761062761262d565b60200260200101516001600160a01b03166117ea909392919063ffffffff16565b7f00000000000000000000000000000000000000000000000000000000000000006001600160a01b03166337acfb907f00000000000000000000000000000000000000000000000000000000000000006001600160a01b0316638ae93f0b8d6000815181106106b9576106b961262d565b60200260200101518e6001815181106106d4576106d461262d565b60200260200101516040518363ffffffff1660e01b81526004016106f9929190612544565b602060405180830381865afa158015610716573d6000803e3d6000fd5b505050506040513d601f19601f8201168201806040525081019061073a919061255e565b89898e60008151811061074f5761074f61262d565b6020026020010151886040518663ffffffff1660e01b8152600401610778959493929190612643565b6020604051808303816000875af1158015610797573d6000803e3d6000fd5b505050506040513d601f19601f820116820180604052508101906107bb919061255e565b935061082c565b6107db3330858d6000815181106106275761062761262d565b6107e68a8488611924565b935061082c87858c60018e516107fc9190612607565b8151811061080c5761080c61262d565b60200260200101516001600160a01b0316611b359092919063ffffffff16565b5050965096945050505050565b6000807f00000000000000000000000000000000000000000000000000000000000000006001600160a01b0316638ae93f0b85856040518363ffffffff1660e01b815260040161088a929190612544565b602060405180830381865afa1580156108a7573d6000803e3d6000fd5b505050506040513d601f19601f820116820180604052508101906108cb919061255e565b9050806000036108ee576040516305153add60e41b815260040160405180910390fd5b6040516303f40b6b60e61b8152600481018290526001600160a01b0385811660248301526000917f00000000000000000000000000000000000000000000000000000000000000009091169063fd02dac090604401602060405180830381865afa158015610960573d6000803e3d6000fd5b505050506040513d601f19601f82011682018060405250810190610984919061255e565b604051635496696b60e01b8152600481018490526001600160a01b0387811660248301529192506000917f00000000000000000000000000000000000000000000000000000000000000001690635496696b90604401602060405180830381865afa1580156109f7573d6000803e3d6000fd5b505050506040513d601f19601f82011682018060405250810190610a1b919061255e565b604051635496696b60e01b8152600481018590526001600160a01b0387811660248301529192506000917f00000000000000000000000000000000000000000000000000000000000000001690635496696b90604401602060405180830381865afa158015610a8e573d6000803e3d6000fd5b505050506040513d601f19601f82011682018060405250810190610ab2919061255e565b9050610abf828285611b6a565b979650505050505050565b6000806000199050600060018451610ae29190612607565b90505b8015610e3a5760006001600160a01b037f000000000000000000000000000000000000000000000000000000000000000016638ae93f0b86610b28600186612607565b81518110610b3857610b3861262d565b6020026020010151878581518110610b5257610b5261262d565b60200260200101516040518363ffffffff1660e01b8152600401610b77929190612544565b602060405180830381865afa158015610b94573d6000803e3d6000fd5b505050506040513d601f19601f82011682018060405250810190610bb8919061255e565b905080600003610bcf575060009485945092505050565b60007f00000000000000000000000000000000000000000000000000000000000000006001600160a01b031663fd02dac083888681518110610c1357610c1361262d565b60200260200101516040518363ffffffff1660e01b8152600401610c4a9291909182526001600160a01b0316602082015260400190565b602060405180830381865afa158015610c67573d6000803e3d6000fd5b505050506040513d601f19601f82011682018060405250810190610c8b919061255e565b9050610d4b847f00000000000000000000000000000000000000000000000000000000000000006001600160a01b031663591409fa898781518110610cd257610cd261262d565b60200260200101516040518263ffffffff1660e01b8152600401610d0591906001600160a01b0391909116815260200190565b602060405180830381865afa158015610d22573d6000803e3d6000fd5b505050506040513d601f19601f82011682018060405250810190610d46919061255e565b611bd1565b9350610d9984610d46888681518110610d6657610d6661262d565b602002602001015189600188610d7c9190612607565b81518110610d8c57610d8c61262d565b6020026020010151610839565b9350670de0b6b3a7640000600181610db184886125ce565b610dbb919061261a565b610dc59190612607565b610dcf91906125e5565b9450610e20856001600160a01b037f0000000000000000000000000000000000000000000000000000000000000000166367e45cf289610e10600189612607565b81518110610cd257610cd261262d565b945084935050508080610e3290612680565b915050610ae5565b5081905060005b60018451610e4f9190612607565b8110156110235760007f00000000000000000000000000000000000000000000000000000000000000006001600160a01b0316638ae93f0b868481518110610e9957610e9961262d565b602002602001015187856001610eaf919061261a565b81518110610ebf57610ebf61262d565b60200260200101516040518363ffffffff1660e01b8152600401610ee4929190612544565b602060405180830381865afa158015610f01573d6000803e3d6000fd5b505050506040513d601f19601f82011682018060405250810190610f25919061255e565b905060006001600160a01b037f00000000000000000000000000000000000000000000000000000000000000001663fd02dac08388610f6587600161261a565b81518110610f7557610f7561262d565b60200260200101516040518363ffffffff1660e01b8152600401610fac9291909182526001600160a01b0316602082015260400190565b602060405180830381865afa158015610fc9573d6000803e3d6000fd5b505050506040513d601f19601f82011682018060405250810190610fed919061255e565b905080611002670de0b6b3a7640000866125ce565b61100c91906125e5565b93505050808061101b90612697565b915050610e41565b50915091565b6000807f00000000000000000000000000000000000000000000000000000000000000006001600160a01b0316638ae93f0b85856040518363ffffffff1660e01b815260040161107a929190612544565b602060405180830381865afa158015611097573d6000803e3d6000fd5b505050506040513d601f19601f820116820180604052508101906110bb919061255e565b9050806000036110de576040516305153add60e41b815260040160405180910390fd5b6040516303f40b6b60e61b8152600481018290526001600160a01b0385811660248301527f0000000000000000000000000000000000000000000000000000000000000000169063fd02dac090604401602060405180830381865afa15801561114b573d6000803e3d6000fd5b505050506040513d601f19601f8201168201806040525081019061116f919061255e565b949350505050565b600080828042111561119c57604051630b5399cb60e31b815260040160405180910390fd5b6111a88a8a8a8a611beb565b604051638ae93f0b60e01b815291995097506000906001600160a01b037f00000000000000000000000000000000000000000000000000000000000000001690638ae93f0b906111fe908e908e90600401612544565b602060405180830381865afa15801561121b573d6000803e3d6000fd5b505050506040513d601f19601f8201168201806040525081019061123f919061255e565b9050801561125f576112558b8b8b8b8b86611e35565b90995097506112f3565b60405163e343361560e01b81526001600160a01b037f0000000000000000000000000000000000000000000000000000000000000000169063e3433615906112ad908e908e90600401612544565b6020604051808303816000875af11580156112cc573d6000803e3d6000fd5b505050506040513d601f19601f820116820180604052508101906112f0919061255e565b90505b6113286001600160a01b038c16337f00000000000000000000000000000000000000000000000000000000000000008c6117ea565b61135d6001600160a01b038b16337f00000000000000000000000000000000000000000000000000000000000000008b6117ea565b604051634b2fc7bb60e01b81526001600160a01b038c811660048301528b81166024830152604482018b9052606482018a905287811660848301527f00000000000000000000000000000000000000000000000000000000000000001690634b2fc7bb9060a401600060405180830381600087803b1580156113de57600080fd5b505af11580156113f2573d6000803e3d6000fd5b509a9d999c50989a5050505050505050505050565b6040516306ed78b760e21b81526004810184905260009081906001600160a01b037f00000000000000000000000000000000000000000000000000000000000000001690631bb5e2dc90602401602060405180830381865afa158015611471573d6000803e3d6000fd5b505050506040513d601f19601f820116820180604052508101906114959190612577565b604051632c8a04fd60e11b81526001600160a01b0386811660048301529192506000917f0000000000000000000000000000000000000000000000000000000000000000169063591409fa90602401602060405180830381865afa158015611501573d6000803e3d6000fd5b505050506040513d601f19601f82011682018060405250810190611525919061255e565b604051635496696b60e01b8152600481018890526001600160a01b0387811660248301529192506000917f00000000000000000000000000000000000000000000000000000000000000001690635496696b90604401602060405180830381865afa158015611598573d6000803e3d6000fd5b505050506040513d601f19601f820116820180604052508101906115bc919061255e565b836001600160a01b03166318160ddd6040518163ffffffff1660e01b8152600401602060405180830381865afa1580156115fa573d6000803e3d6000fd5b505050506040513d601f19601f8201168201806040525081019061161e919061255e565b61162890846125ce565b61163291906125e5565b604051632c8a04fd60e11b81526001600160a01b0387811660048301529192506000917f0000000000000000000000000000000000000000000000000000000000000000169063591409fa90602401602060405180830381865afa15801561169e573d6000803e3d6000fd5b505050506040513d601f19601f820116820180604052508101906116c2919061255e565b604051635496696b60e01b8152600481018a90526001600160a01b0388811660248301529192506000917f00000000000000000000000000000000000000000000000000000000000000001690635496696b90604401602060405180830381865afa158015611735573d6000803e3d6000fd5b505050506040513d601f19601f82011682018060405250810190611759919061255e565b856001600160a01b03166318160ddd6040518163ffffffff1660e01b8152600401602060405180830381865afa158015611797573d6000803e3d6000fd5b505050506040513d601f19601f820116820180604052508101906117bb919061255e565b6117c590846125ce565b6117cf91906125e5565b90506117db8382611bd1565b955050505050505b9392505050565b6040516001600160a01b03808516602483015283166044820152606481018290526118559085906323b872dd60e01b906084015b60408051601f198184030181529190526020810180516001600160e01b03166001600160e01b0319909316929092179091526120a8565b50505050565b600084611870670de0b6b3a7640000886125ce565b61187a91906125e5565b9050600083611891670de0b6b3a7640000876125ce565b61189b91906125e5565b9050670de0b6b3a76400006118b0848261261a565b6118ba90846125ce565b6118c491906125e5565b8111806118fd57506118de83670de0b6b3a764000061261a565b6118f0670de0b6b3a7640000846125ce565b6118fa91906125e5565b81105b1561191b5760405163f462205160e01b815260040160405180910390fd5b50505050505050565b6000805b600185516119369190612607565b811015611b2c5760007f00000000000000000000000000000000000000000000000000000000000000006001600160a01b0316638ae93f0b8784815181106119805761198061262d565b602002602001015188856001611996919061261a565b815181106119a6576119a661262d565b60200260200101516040518363ffffffff1660e01b81526004016119cb929190612544565b602060405180830381865afa1580156119e8573d6000803e3d6000fd5b505050506040513d601f19601f82011682018060405250810190611a0c919061255e565b905080600003611a2f576040516305153add60e41b815260040160405180910390fd5b611a667f00000000000000000000000000000000000000000000000000000000000000008688858151811061080c5761080c61262d565b7f00000000000000000000000000000000000000000000000000000000000000006001600160a01b03166337acfb908230878a8781518110611aaa57611aaa61262d565b60200260200101518a6040518663ffffffff1660e01b8152600401611ad3959493929190612643565b6020604051808303816000875af1158015611af2573d6000803e3d6000fd5b505050506040513d601f19601f82011682018060405250810190611b16919061255e565b9450508080611b2490612697565b915050611928565b50919392505050565b6040516001600160a01b038316602482015260448101829052611b6590849063a9059cbb60e01b9060640161181e565b505050565b6000611b7684836125ce565b611b8884670de0b6b3a76400006125ce565b10611b95575060006117e3565b611ba08260026125ce565b611bb2670de0b6b3a7640000856125ce565b611bbc91906125e5565b611bc76002866125e5565b61116f9190612607565b6000818310611be05781611be2565b825b90505b92915050565b6040516309ab24eb60e41b81526000600482018190529081906001600160a01b03871690639ab24eb090602401602060405180830381865afa925050508015611c51575060408051601f3d908101601f19168201909252611c4e9181019061255e565b60015b15611d0d57506040516333f22e7960e11b81526001600160a01b0387811660048301526000917f0000000000000000000000000000000000000000000000000000000000000000909116906367e45cf290602401602060405180830381865afa158015611cc2573d6000803e3d6000fd5b505050506040513d601f19601f82011682018060405250810190611ce6919061255e565b905080851115611d0b5784611cfb82866125ce565b611d0591906125e5565b93508094505b505b6040516309ab24eb60e41b8152600060048201526001600160a01b03861690639ab24eb090602401602060405180830381865afa925050508015611d6e575060408051601f3d908101601f19168201909252611d6b9181019061255e565b60015b15611e2a57506040516333f22e7960e11b81526001600160a01b0386811660048301526000917f0000000000000000000000000000000000000000000000000000000000000000909116906367e45cf290602401602060405180830381865afa158015611ddf573d6000803e3d6000fd5b505050506040513d601f19601f82011682018060405250810190611e03919061255e565b905080841115611e285783611e1882876125ce565b611e2291906125e5565b94508093505b505b509194909350915050565b60008060007f00000000000000000000000000000000000000000000000000000000000000006001600160a01b0316635496696b858b6040518363ffffffff1660e01b8152600401611e9a9291909182526001600160a01b0316602082015260400190565b602060405180830381865afa158015611eb7573d6000803e3d6000fd5b505050506040513d601f19601f82011682018060405250810190611edb919061255e565b604051635496696b60e01b8152600481018690526001600160a01b038a811660248301529192506000917f00000000000000000000000000000000000000000000000000000000000000001690635496696b90604401602060405180830381865afa158015611f4e573d6000803e3d6000fd5b505050506040513d601f19601f82011682018060405250810190611f72919061255e565b9050600082118015611f845750600081115b1561209857600081611f9e670de0b6b3a7640000856125ce565b611fa891906125e5565b9050600088611fbf670de0b6b3a76400008c6125ce565b611fc991906125e5565b9050670de0b6b3a7640000611fde898261261a565b611fe890846125ce565b611ff291906125e5565b81118061202b575061200c88670de0b6b3a764000061261a565b61201e670de0b6b3a7640000846125ce565b61202891906125e5565b81105b156120495760405163f462205160e01b815260040160405180910390fd5b8181111561207557670de0b6b3a7640000612064838b6125ce565b61206e91906125e5565b9950612095565b81612088670de0b6b3a76400008c6125ce565b61209291906125e5565b98505b50505b5095989497509395505050505050565b60006120fd826040518060400160405280602081526020017f5361666545524332303a206c6f772d6c6576656c2063616c6c206661696c6564815250856001600160a01b03166121829092919063ffffffff16565b905080516000148061211e57508080602001905181019061211e91906126b0565b611b655760405162461bcd60e51b815260206004820152602a60248201527f5361666545524332303a204552433230206f7065726174696f6e20646964206e6044820152691bdd081cdd58d8d9595960b21b60648201526084015b60405180910390fd5b606061116f848460008585600080866001600160a01b031685876040516121a991906126f6565b60006040518083038185875af1925050503d80600081146121e6576040519150601f19603f3d011682016040523d82523d6000602084013e6121eb565b606091505b5091509150610abf878383876060831561226657825160000361225f576001600160a01b0385163b61225f5760405162461bcd60e51b815260206004820152601d60248201527f416464726573733a2063616c6c20746f206e6f6e2d636f6e74726163740000006044820152606401612179565b508161116f565b61116f838381511561227b5781518083602001fd5b8060405162461bcd60e51b81526004016121799190612712565b6001600160a01b03811681146122aa57600080fd5b50565b80356122b881612295565b919050565b600080600080600080600080610100898b0312156122da57600080fd5b88356122e581612295565b975060208901356122f581612295565b965060408901359550606089013594506080890135935060a089013561231a81612295565b979a969950949793969295929450505060c08201359160e0013590565b634e487b7160e01b600052604160045260246000fd5b600082601f83011261235e57600080fd5b8135602067ffffffffffffffff8083111561237b5761237b612337565b8260051b604051601f19603f830116810181811084821117156123a0576123a0612337565b6040529384528581018301938381019250878511156123be57600080fd5b83870191505b84821015610abf576123d5826122ad565b835291830191908301906123c4565b60008060008060008060c087890312156123fd57600080fd5b863567ffffffffffffffff81111561241457600080fd5b61242089828a0161234d565b9650506020870135945060408701359350606087013561243f81612295565b9250608087013561244f81612295565b8092505060a087013590509295509295509295565b6000806040838503121561247757600080fd5b823561248281612295565b9150602083013561249281612295565b809150509250929050565b6000602082840312156124af57600080fd5b813567ffffffffffffffff8111156124c657600080fd5b61116f8482850161234d565b600080600080600080600060e0888a0312156124ed57600080fd5b87356124f881612295565b9650602088013561250881612295565b955060408801359450606088013593506080880135925060a088013561252d81612295565b8092505060c0880135905092959891949750929550565b6001600160a01b0392831681529116602082015260400190565b60006020828403121561257057600080fd5b5051919050565b60006020828403121561258957600080fd5b81516117e381612295565b600080604083850312156125a757600080fd5b505080516020909101519092909150565b634e487b7160e01b600052601160045260246000fd5b8082028115828204841417611be557611be56125b8565b60008261260257634e487b7160e01b600052601260045260246000fd5b500490565b81810381811115611be557611be56125b8565b80820180821115611be557611be56125b8565b634e487b7160e01b600052603260045260246000fd5b9485526001600160a01b03938416602086015291831660408501529091166060830152608082015260c060a0820181905260009082015260e00190565b60008161268f5761268f6125b8565b506000190190565b6000600182016126a9576126a96125b8565b5060010190565b6000602082840312156126c257600080fd5b815180151581146117e357600080fd5b60005b838110156126ed5781810151838201526020016126d5565b50506000910152565b600082516127088184602087016126d2565b9190910192915050565b60208152600082518060208401526127318160408501602087016126d2565b601f01601f1916919091016040019291505056fea264697066735822122054ec499afc4040ebdfa9d91062b406a8757ddfd3e727e29727e43c2168302d2364736f6c63430008130033",
    "linkReferences": {}
  },
  "methodIdentifiers": {
    "addLiquidity(address,address,uint256,uint256,uint256,address,uint256)": "ba9f20b8",
    "buy(address[],uint256,uint256,address,address,uint256)": "41f12688",
    "calculateSwapAmounts(address[])": "63730975",
    "getDepth(address,address)": "4772b4df",
    "getPrice(address,address)": "ac41865a",
    "liquidityManager()": "33827438",
    "liquidityRamp()": "4dfd324e",
    "poolManager()": "dc4c90d3",
    "redeemLiquidity(address,address,uint256,uint256,uint256,address,uint256,uint256)": "3118b3c8",
    "swapManager()": "709d039d"
  },
  "id": 66
}