{
  "abi": [
    {
      "inputs": [
        {
          "internalType": "contract IPoolManager",
          "name": "_poolManager",
          "type": "address"
        },
        {
          "internalType": "contract ISwapManager",
          "name": "_swapManager",
          "type": "address"
        },
        {
          "internalType": "contract ILiquidityRamp",
          "name": "_liquidityRamp",
          "type": "address"
        },
        {
          "internalType": "contract ILiquidityManager",
          "name": "_liquidityManager",
          "type": "address"
        }
      ],
      "stateMutability": "nonpayable",
      "type": "constructor"
    },
    {
      "inputs": [],
      "name": "DEX__DeadlinePassed",
      "type": "error"
    },
    {
      "inputs": [],
      "name": "DEX__InvalidPath",
      "type": "error"
    },
    {
      "inputs": [],
      "name": "DEX__InvalidPrice",
      "type": "error"
    },
    {
      "inputs": [],
      "name": "DEX__PoolNotFound",
      "type": "error"
    },
    {
      "inputs": [],
      "name": "DEX__Slippage",
      "type": "error"
    },
    {
      "inputs": [],
      "name": "DEX__ZeroAmount",
      "type": "error"
    },
    {
      "inputs": [
        {
          "internalType": "contract IERC20",
          "name": "tokenA",
          "type": "address"
        },
        {
          "internalType": "contract IERC20",
          "name": "tokenB",
          "type": "address"
        },
        {
          "internalType": "uint256",
          "name": "amountA",
          "type": "uint256"
        },
        {
          "internalType": "uint256",
          "name": "amountB",
          "type": "uint256"
        },
        {
          "internalType": "uint256",
          "name": "acceptedSlippage",
          "type": "uint256"
        },
        {
          "internalType": "address",
          "name": "provider",
          "type": "address"
        },
        {
          "internalType": "uint256",
          "name": "deadline",
          "type": "uint256"
        }
      ],
      "name": "addLiquidity",
      "outputs": [
        {
          "internalType": "uint256",
          "name": "",
          "type": "uint256"
        },
        {
          "internalType": "uint256",
          "name": "",
          "type": "uint256"
        }
      ],
      "stateMutability": "nonpayable",
      "type": "function"
    },
    {
      "inputs": [
        {
          "internalType": "contract IERC20[]",
          "name": "path",
          "type": "address[]"
        },
        {
          "internalType": "uint256",
          "name": "desiredAmountOut",
          "type": "uint256"
        },
        {
          "internalType": "uint256",
          "name": "maxPrice",
          "type": "uint256"
        },
        {
          "internalType": "address",
          "name": "recipient",
          "type": "address"
        },
        {
          "internalType": "uint256",
          "name": "deadline",
          "type": "uint256"
        }
      ],
      "name": "buy",
      "outputs": [
        {
          "internalType": "uint256",
          "name": "actualAmountOut",
          "type": "uint256"
        },
        {
          "internalType": "uint256",
          "name": "amountToSwap",
          "type": "uint256"
        }
      ],
      "stateMutability": "nonpayable",
      "type": "function"
    },
    {
      "inputs": [
        {
          "internalType": "contract IERC20[]",
          "name": "path",
          "type": "address[]"
        }
      ],
      "name": "calculateSwapAmounts",
      "outputs": [
        {
          "internalType": "uint256",
          "name": "amountInRequired",
          "type": "uint256"
        },
        {
          "internalType": "uint256",
          "name": "amountOutMax",
          "type": "uint256"
        }
      ],
      "stateMutability": "view",
      "type": "function"
    },
    {
      "inputs": [
        {
          "internalType": "contract IERC20",
          "name": "baseToken",
          "type": "address"
        },
        {
          "internalType": "contract IERC20",
          "name": "quoteToken",
          "type": "address"
        }
      ],
      "name": "getDepth",
      "outputs": [
        {
          "internalType": "uint256",
          "name": "depth",
          "type": "uint256"
        }
      ],
      "stateMutability": "view",
      "type": "function"
    },
    {
      "inputs": [
        {
          "internalType": "contract IERC20",
          "name": "baseToken",
          "type": "address"
        },
        {
          "internalType": "contract IERC20",
          "name": "quoteToken",
          "type": "address"
        }
      ],
      "name": "getPrice",
      "outputs": [
        {
          "internalType": "uint256",
          "name": "price",
          "type": "uint256"
        }
      ],
      "stateMutability": "view",
      "type": "function"
    },
    {
      "inputs": [],
      "name": "liquidityManager",
      "outputs": [
        {
          "internalType": "contract ILiquidityManager",
          "name": "",
          "type": "address"
        }
      ],
      "stateMutability": "view",
      "type": "function"
    },
    {
      "inputs": [],
      "name": "liquidityRamp",
      "outputs": [
        {
          "internalType": "contract ILiquidityRamp",
          "name": "",
          "type": "address"
        }
      ],
      "stateMutability": "view",
      "type": "function"
    },
    {
      "inputs": [],
      "name": "poolManager",
      "outputs": [
        {
          "internalType": "contract IPoolManager",
          "name": "",
          "type": "address"
        }
      ],
      "stateMutability": "view",
      "type": "function"
    },
    {
      "inputs": [
        {
          "internalType": "contract IERC20",
          "name": "tokenA",
          "type": "address"
        },
        {
          "internalType": "contract IERC20",
          "name": "tokenB",
          "type": "address"
        },
        {
          "internalType": "uint256",
          "name": "desiredAmountTokenA",
          "type": "uint256"
        },
        {
          "internalType": "uint256",
          "name": "desiredAmountTokenB",
          "type": "uint256"
        },
        {
          "internalType": "uint256",
          "name": "lpTokenQty",
          "type": "uint256"
        },
        {
          "internalType": "address",
          "name": "recipient",
          "type": "address"
        },
        {
          "internalType": "uint256",
          "name": "deadline",
          "type": "uint256"
        },
        {
          "internalType": "uint256",
          "name": "acceptedSlippage",
          "type": "uint256"
        }
      ],
      "name": "redeemLiquidity",
      "outputs": [
        {
          "internalType": "uint256",
          "name": "",
          "type": "uint256"
        }
      ],
      "stateMutability": "nonpayable",
      "type": "function"
    },
    {
      "inputs": [],
      "name": "swapManager",
      "outputs": [
        {
          "internalType": "contract ISwapManager",
          "name": "",
          "type": "address"
        }
      ],
      "stateMutability": "view",
      "type": "function"
    }
  ],
  "bytecode": {
    "object": "0x6101006040523480156200001257600080fd5b5060405162003dfc38038062003dfc833981016040819052620000359162000071565b6001600160a01b0393841660805291831660a052821660c0521660e052620000d9565b6001600160a01b03811681146200006e57600080fd5b50565b600080600080608085870312156200008857600080fd5b8451620000958162000058565b6020860151909450620000a88162000058565b6040860151909350620000bb8162000058565b6060860151909250620000ce8162000058565b939692955090935050565b60805160a05160c05160e051613bee6200020e6000396000818160f6015281816102bf01528181610b2d01528181610bc401528181610efc0152818161105001528181611899015281816118ce01528181611bb801528181611e9701528181611f2e015281816121b0015281816122fd01528181612394015281816125380152818161289a015281816129b701528181612bb80152612c5101526000818161014801528181610852015281816108aa01526119510152600081816101820152818161031501528181610a9401528181610e40015281816113e20152611bec0152600081816101cf015281816103440152818161055e015281816107cd015281816109bb01528181610d580152818161130c01528181611663015281816117b001528181611ac50152611e070152613bee6000f3fe608060405234801561001057600080fd5b506004361061009e5760003560e01c80636373097511610066578063637309751461016a578063709d039d1461017d578063ac41865a146101a4578063ba9f20b8146101b7578063dc4c90d3146101ca57600080fd5b80632a64b539146100a35780633118b3c8146100d057806333827438146100f15780634772b4df146101305780634dfd324e14610143575b600080fd5b6100b66100b13660046133a9565b6101f1565b604080519283526020830191909152015b60405180910390f35b6100e36100de366004613414565b610520565b6040519081526020016100c7565b6101187f000000000000000000000000000000000000000000000000000000000000000081565b6040516001600160a01b0390911681526020016100c7565b6100e361013e36600461348e565b6109b6565b6101187f000000000000000000000000000000000000000000000000000000000000000081565b6100b66101783660046134c7565b610c47565b6101187f000000000000000000000000000000000000000000000000000000000000000081565b6100e36101b236600461348e565b611307565b6100b66101c53660046134fc565b611455565b6101187f000000000000000000000000000000000000000000000000000000000000000081565b600080828042111561021657604051630b5399cb60e31b815260040160405180910390fd5b60028851101561023957604051635701c3f560e01b815260040160405180910390fd5b61024288610c47565b9350915060008361025b670de0b6b3a764000085613584565b610265919061359b565b90508681111561028857604051635a3967e360e11b815260040160405180910390fd5b838810156102b057806102a3670de0b6b3a76400008a613584565b6102ad919061359b565b92505b88516002036104ab57610313337f0000000000000000000000000000000000000000000000000000000000000000858c6000815181106102f2576102f26135bd565b60200260200101516001600160a01b0316611a37909392919063ffffffff16565b7f00000000000000000000000000000000000000000000000000000000000000006001600160a01b03166370085be07f00000000000000000000000000000000000000000000000000000000000000006001600160a01b0316638ae93f0b8c600081518110610384576103846135bd565b60200260200101518d60018151811061039f5761039f6135bd565b60200260200101516040518363ffffffff1660e01b81526004016103c49291906135d3565b602060405180830381865afa1580156103e1573d6000803e3d6000fd5b505050506040513d601f19601f8201168201806040525081019061040591906135ed565b888c600081518110610419576104196135bd565b6020026020010151876040518563ffffffff1660e01b815260040161046194939291909384526001600160a01b03928316602085015291166040830152606082015260800190565b6020604051808303816000875af1158015610480573d6000803e3d6000fd5b505050506040513d601f19601f820116820180604052508101906104a491906135ed565b9350610514565b6104c43330858c6000815181106102f2576102f26135bd565b6104ce8984611aa8565b935061051486858b60018d516104e49190613606565b815181106104f4576104f46135bd565b60200260200101516001600160a01b0316611cd99092919063ffffffff16565b50509550959350505050565b6000828042111561054457604051630b5399cb60e31b815260040160405180910390fd5b604051638ae93f0b60e01b81526000906001600160a01b037f00000000000000000000000000000000000000000000000000000000000000001690638ae93f0b90610595908e908e906004016135d3565b602060405180830381865afa1580156105b2573d6000803e3d6000fd5b505050506040513d601f19601f820116820180604052508101906105d691906135ed565b9050806000036105f9576040516305153add60e41b815260040160405180910390fd5b61062f604051806040016040528060158152602001740a4445583a3a72656465656d4c697175696469747960581b815250611d0e565b6106cc6040518060400160405280601581526020017464657369726564416d6f756e745b25735d3a20256960581b8152508c6001600160a01b03166395d89b416040518163ffffffff1660e01b8152600401600060405180830381865afa15801561069e573d6000803e3d6000fd5b505050506040513d6000823e601f3d908101601f191682016040526106c6919081019061363d565b8b611d54565b6107696040518060400160405280601581526020017464657369726564416d6f756e745b25735d3a20256960581b8152508b6001600160a01b03166395d89b416040518163ffffffff1660e01b8152600401600060405180830381865afa15801561073b573d6000803e3d6000fd5b505050506040513d6000823e601f3d908101601f19168201604052610763919081019061363d565b8a611d54565b6107996040518060400160405280600e81526020016d6c70546f6b656e5174793a20256960901b81525088611d9b565b60006107a6828d8d611de4565b9050878110156107b4578097505b6040516306ed78b760e21b8152600481018390526000907f00000000000000000000000000000000000000000000000000000000000000006001600160a01b031690631bb5e2dc90602401602060405180830381865afa15801561081c573d6000803e3d6000fd5b505050506040513d601f19601f8201168201806040525081019061084091906136d1565b90506108776001600160a01b038216337f00000000000000000000000000000000000000000000000000000000000000008c611a37565b60405163e5f415c960e01b81526001600160a01b038281166004830152602482018b9052898116604483015260009182917f0000000000000000000000000000000000000000000000000000000000000000169063e5f415c99060640160408051808303816000875af11580156108f2573d6000803e3d6000fd5b505050506040513d601f19601f8201168201806040525081019061091691906136ee565b91509150826001600160a01b031663c451463b6040518163ffffffff1660e01b8152600401602060405180830381865afa158015610958573d6000803e3d6000fd5b505050506040513d601f19601f8201168201806040525081019061097c91906136d1565b6001600160a01b03168f6001600160a01b03160361099657905b6109a38d8d84848c61263c565b50989d9c50505050505050505050505050565b6000807f00000000000000000000000000000000000000000000000000000000000000006001600160a01b0316638ae93f0b85856040518363ffffffff1660e01b8152600401610a079291906135d3565b602060405180830381865afa158015610a24573d6000803e3d6000fd5b505050506040513d601f19601f82011682018060405250810190610a4891906135ed565b905080600003610a6b576040516305153add60e41b815260040160405180910390fd5b6040516303f40b6b60e61b8152600481018290526001600160a01b0385811660248301526000917f00000000000000000000000000000000000000000000000000000000000000009091169063fd02dac090604401602060405180830381865afa158015610add573d6000803e3d6000fd5b505050506040513d601f19601f82011682018060405250810190610b0191906135ed565b604051635496696b60e01b8152600481018490526001600160a01b0387811660248301529192506000917f00000000000000000000000000000000000000000000000000000000000000001690635496696b90604401602060405180830381865afa158015610b74573d6000803e3d6000fd5b505050506040513d601f19601f82011682018060405250810190610b9891906135ed565b604051635496696b60e01b8152600481018590526001600160a01b0387811660248301529192506000917f00000000000000000000000000000000000000000000000000000000000000001690635496696b90604401602060405180830381865afa158015610c0b573d6000803e3d6000fd5b505050506040513d601f19601f82011682018060405250810190610c2f91906135ed565b9050610c3c828285612705565b979650505050505050565b60008060001991506000806000806000610c956040518060400160405280601b81526020017f4445583a3a63616c63756c61746553776170416d6f756e747328290000000000815250611d0e565b60005b60018951610ca69190613606565b81101561117b57610d5660405180604001604052806009815260200168546f6b656e3a20257360b81b8152508a8381518110610ce457610ce46135bd565b60200260200101516001600160a01b03166395d89b416040518163ffffffff1660e01b8152600401600060405180830381865afa158015610d29573d6000803e3d6000fd5b505050506040513d6000823e601f3d908101601f19168201604052610d51919081019061363d565b61276c565b7f00000000000000000000000000000000000000000000000000000000000000006001600160a01b0316638ae93f0b8a8381518110610d9757610d976135bd565b60200260200101518b846001610dad9190613712565b81518110610dbd57610dbd6135bd565b60200260200101516040518363ffffffff1660e01b8152600401610de29291906135d3565b602060405180830381865afa158015610dff573d6000803e3d6000fd5b505050506040513d601f19601f82011682018060405250810190610e2391906135ed565b955085600003610e3e57506000988998509650505050505050565b7f00000000000000000000000000000000000000000000000000000000000000006001600160a01b031663fd02dac0878b8481518110610e8057610e806135bd565b60200260200101516040518363ffffffff1660e01b8152600401610eb79291909182526001600160a01b0316602082015260400190565b602060405180830381865afa158015610ed4573d6000803e3d6000fd5b505050506040513d601f19601f82011682018060405250810190610ef891906135ed565b94507f00000000000000000000000000000000000000000000000000000000000000006001600160a01b031663591409fa8a8381518110610f3b57610f3b6135bd565b60200260200101516040518263ffffffff1660e01b8152600401610f6e91906001600160a01b0391909116815260200190565b602060405180830381865afa158015610f8b573d6000803e3d6000fd5b505050506040513d601f19601f82011682018060405250810190610faf91906135ed565b9350610fbb88856127b1565b965061100e876110098b8481518110610fd657610fd66135bd565b60200260200101518c856001610fec9190613712565b81518110610ffc57610ffc6135bd565b60200260200101516109b6565b6127b1565b9650670de0b6b3a7640000600181611026888b613584565b6110309190613712565b61103a9190613606565b611044919061359b565b91506001600160a01b037f0000000000000000000000000000000000000000000000000000000000000000166367e45cf28a611081846001613712565b81518110611091576110916135bd565b60200260200101516040518263ffffffff1660e01b81526004016110c491906001600160a01b0391909116815260200190565b602060405180830381865afa1580156110e1573d6000803e3d6000fd5b505050506040513d601f19601f8201168201806040525081019061110591906135ed565b9250818310156111655784611122670de0b6b3a764000085613584565b61112c919061359b565b9650670de0b6b3a7640000600181611144888b613584565b61114e9190613712565b6111589190613606565b611162919061359b565b91505b819750808061117390613725565b915050610c98565b5061123b6040518060400160405280601881526020017f616d6f756e74496e52657175697265645b25735d3a2025690000000000000000815250896000815181106111c8576111c86135bd565b60200260200101516001600160a01b03166395d89b416040518163ffffffff1660e01b8152600401600060405180830381865afa15801561120d573d6000803e3d6000fd5b505050506040513d6000823e601f3d908101601f19168201604052611235919081019061363d565b89611d54565b6112fd60405180604001604052806014815260200173616d6f756e744f75744d61785b25735d3a20256960601b8152508960018b5161127a9190613606565b8151811061128a5761128a6135bd565b60200260200101516001600160a01b03166395d89b416040518163ffffffff1660e01b8152600401600060405180830381865afa1580156112cf573d6000803e3d6000fd5b505050506040513d6000823e601f3d908101601f191682016040526112f7919081019061363d565b88611d54565b5050505050915091565b6000807f00000000000000000000000000000000000000000000000000000000000000006001600160a01b0316638ae93f0b85856040518363ffffffff1660e01b81526004016113589291906135d3565b602060405180830381865afa158015611375573d6000803e3d6000fd5b505050506040513d601f19601f8201168201806040525081019061139991906135ed565b9050806000036113bc576040516305153add60e41b815260040160405180910390fd5b6040516303f40b6b60e61b8152600481018290526001600160a01b0385811660248301527f0000000000000000000000000000000000000000000000000000000000000000169063fd02dac090604401602060405180830381865afa158015611429573d6000803e3d6000fd5b505050506040513d601f19601f8201168201806040525081019061144d91906135ed565b949350505050565b600080828042111561147a57604051630b5399cb60e31b815260040160405180910390fd5b6114af604051806040016040528060148152602001730a4445583a3a6164644c6971756964697479282960601b815250611d0e565b6114db6040518060400160405280600a815260200169746f6b656e413a20257360b01b8152508b6127c7565b6115076040518060400160405280600a815260200169746f6b656e423a20257360b01b8152508a6127c7565b6115346040518060400160405280600b81526020016a616d6f756e74413a20256960a81b81525089611d9b565b6115616040518060400160405280600b81526020016a616d6f756e74423a20256960a81b81525088611d9b565b611597604051806040016040528060148152602001736163636570746564536c6970706167653a20256960601b81525087611d9b565b6115c56040518060400160405280600c81526020016b70726f76696465723a20257360a01b815250866127c7565b6115f36040518060400160405280600c81526020016b646561646c696e653a20256960a01b81525085611d9b565b6116146040518060800160405280605c81526020016138c8605c9139611d0e565b6116208a8a8a8a61280c565b809850819950505061164960405180606001604052806030815260200161397a60309139611d0e565b604051638ae93f0b60e01b81526000906001600160a01b037f00000000000000000000000000000000000000000000000000000000000000001690638ae93f0b9061169a908e908e906004016135d3565b602060405180830381865afa1580156116b7573d6000803e3d6000fd5b505050506040513d601f19601f820116820180604052508101906116db91906135ed565b90506117186040518060400160405280601a8152602001790a4261636b20746f204445583a3a6164644c697175696469747960301b815250611d0e565b6117396040518060600160405280602e8152602001613a98602e9139611d0e565b80156117785761176060405180608001604052806056815260200161392460569139611d0e565b61176e8b8b8b8b8b86612a56565b909950975061182d565b611799604051806060016040528060268152602001613a0360269139611d0e565b60405163e343361560e01b81526001600160a01b037f0000000000000000000000000000000000000000000000000000000000000000169063e3433615906117e7908e908e906004016135d3565b6020604051808303816000875af1158015611806573d6000803e3d6000fd5b505050506040513d601f19601f8201168201806040525081019061182a91906135ed565b90505b6118686040518060400160405280601a8152602001790a4261636b20746f204445583a3a6164644c697175696469747960301b815250611d0e565b611889604051806080016040528060438152602001613b0c60439139611d0e565b6118be6001600160a01b038c16337f00000000000000000000000000000000000000000000000000000000000000008c611a37565b6118f36001600160a01b038b16337f00000000000000000000000000000000000000000000000000000000000000008b611a37565b611914604051806080016040528060468152602001613ac660469139611d0e565b604051634b2fc7bb60e01b81526001600160a01b038c811660048301528b81166024830152604482018b9052606482018a905287811660848301527f00000000000000000000000000000000000000000000000000000000000000001690634b2fc7bb9060a401600060405180830381600087803b15801561199557600080fd5b505af11580156119a9573d6000803e3d6000fd5b505050506119e86040518060400160405280601a8152602001790a4261636b20746f204445583a3a6164644c697175696469747960301b815250611d0e565b611a266040518060400160405280601981526020017f72657475726e2028616d6f756e74412c20616d6f756e74422900000000000000815250611d0e565b509699959850949650505050505050565b6040516001600160a01b0380851660248301528316604482015260648101829052611aa29085906323b872dd60e01b906084015b60408051601f198184030181529190526020810180516001600160e01b03166001600160e01b03199093169290921790915261307c565b50505050565b6000805b60018451611aba9190613606565b811015611cce5760007f00000000000000000000000000000000000000000000000000000000000000006001600160a01b0316638ae93f0b868481518110611b0457611b046135bd565b602002602001015187856001611b1a9190613712565b81518110611b2a57611b2a6135bd565b60200260200101516040518363ffffffff1660e01b8152600401611b4f9291906135d3565b602060405180830381865afa158015611b6c573d6000803e3d6000fd5b505050506040513d601f19601f82011682018060405250810190611b9091906135ed565b905080600003611bb3576040516305153add60e41b815260040160405180910390fd5b611bea7f0000000000000000000000000000000000000000000000000000000000000000858785815181106104f4576104f46135bd565b7f00000000000000000000000000000000000000000000000000000000000000006001600160a01b03166370085be08230888681518110611c2d57611c2d6135bd565b6020026020010151886040518563ffffffff1660e01b8152600401611c7594939291909384526001600160a01b03928316602085015291166040830152606082015260800190565b6020604051808303816000875af1158015611c94573d6000803e3d6000fd5b505050506040513d601f19601f82011682018060405250810190611cb891906135ed565b9350508080611cc690613725565b915050611aac565b508190505b92915050565b6040516001600160a01b038316602482015260448101829052611d0990849063a9059cbb60e01b90606401611a6b565b505050565b611d5181604051602401611d22919061376a565b60408051601f198184030181529190526020810180516001600160e01b031663104c13eb60e21b179052613156565b50565b611d09838383604051602401611d6c9392919061377d565b60408051601f198184030181529190526020810180516001600160e01b031663f362ca5960e01b179052613156565b611de08282604051602401611db19291906137b3565b60408051601f198184030181529190526020810180516001600160e01b03166309710a9d60e41b179052613156565b5050565b6040516306ed78b760e21b81526004810184905260009081906001600160a01b037f00000000000000000000000000000000000000000000000000000000000000001690631bb5e2dc90602401602060405180830381865afa158015611e4e573d6000803e3d6000fd5b505050506040513d601f19601f82011682018060405250810190611e7291906136d1565b604051632c8a04fd60e11b81526001600160a01b0386811660048301529192506000917f0000000000000000000000000000000000000000000000000000000000000000169063591409fa90602401602060405180830381865afa158015611ede573d6000803e3d6000fd5b505050506040513d601f19601f82011682018060405250810190611f0291906135ed565b604051635496696b60e01b8152600481018890526001600160a01b0387811660248301529192506000917f00000000000000000000000000000000000000000000000000000000000000001690635496696b90604401602060405180830381865afa158015611f75573d6000803e3d6000fd5b505050506040513d601f19601f82011682018060405250810190611f9991906135ed565b836001600160a01b03166318160ddd6040518163ffffffff1660e01b8152600401602060405180830381865afa158015611fd7573d6000803e3d6000fd5b505050506040513d601f19601f82011682018060405250810190611ffb91906135ed565b6120059084613584565b61200f919061359b565b905061204f6040518060400160405280601b81526020017f0a4445583a3a5f63616c63756c6174654d61784c70546f6b656e730000000000815250611d0e565b6120ef6040518060400160405280601781526020017f6c70546f6b656e2e746f74616c537570706c793a202569000000000000000000815250846001600160a01b03166318160ddd6040518163ffffffff1660e01b8152600401602060405180830381865afa1580156120c6573d6000803e3d6000fd5b505050506040513d601f19601f820116820180604052508101906120ea91906135ed565b611d9b565b61222160405180604001604052806019815260200178706f6f6c546f6b656e42616c616e6365735b25735d3a20256960381b815250876001600160a01b03166395d89b416040518163ffffffff1660e01b8152600401600060405180830381865afa158015612162573d6000803e3d6000fd5b505050506040513d6000823e601f3d908101601f1916820160405261218a919081019061363d565b604051635496696b60e01b8152600481018b90526001600160a01b038a811660248301527f00000000000000000000000000000000000000000000000000000000000000001690635496696b906044015b602060405180830381865afa1580156121f8573d6000803e3d6000fd5b505050506040513d601f19601f8201168201806040525081019061221c91906135ed565b611d54565b6122a9604051806060016040528060288152602001613a7060289139876001600160a01b03166395d89b416040518163ffffffff1660e01b8152600401600060405180830381865afa15801561227b573d6000803e3d6000fd5b505050506040513d6000823e601f3d908101601f191682016040526122a3919081019061363d565b84611d54565b6122de604051806040016040528060138152602001726d61784c70546f6b656e73466f72413a20256960681b81525082611d9b565b604051632c8a04fd60e11b81526001600160a01b0386811660048301527f0000000000000000000000000000000000000000000000000000000000000000169063591409fa90602401602060405180830381865afa158015612344573d6000803e3d6000fd5b505050506040513d601f19601f8201168201806040525081019061236891906135ed565b604051635496696b60e01b8152600481018990526001600160a01b0387811660248301529193506000917f00000000000000000000000000000000000000000000000000000000000000001690635496696b90604401602060405180830381865afa1580156123db573d6000803e3d6000fd5b505050506040513d601f19601f820116820180604052508101906123ff91906135ed565b846001600160a01b03166318160ddd6040518163ffffffff1660e01b8152600401602060405180830381865afa15801561243d573d6000803e3d6000fd5b505050506040513d601f19601f8201168201806040525081019061246191906135ed565b61246b9085613584565b612475919061359b565b905061256760405180604001604052806019815260200178706f6f6c546f6b656e42616c616e6365735b25735d3a20256960381b815250876001600160a01b03166395d89b416040518163ffffffff1660e01b8152600401600060405180830381865afa1580156124ea573d6000803e3d6000fd5b505050506040513d6000823e601f3d908101601f19168201604052612512919081019061363d565b604051635496696b60e01b8152600481018c90526001600160a01b038a811660248301527f00000000000000000000000000000000000000000000000000000000000000001690635496696b906044016121db565b6125ef604051806060016040528060288152602001613a7060289139876001600160a01b03166395d89b416040518163ffffffff1660e01b8152600401600060405180830381865afa1580156125c1573d6000803e3d6000fd5b505050506040513d6000823e601f3d908101601f191682016040526125e9919081019061363d565b85611d54565b612624604051806040016040528060138152602001726d61784c70546f6b656e73466f72423a20256960681b81525082611d9b565b61262e82826127b1565b9450505050505b9392505050565b600084612651670de0b6b3a764000088613584565b61265b919061359b565b9050600083612672670de0b6b3a764000087613584565b61267c919061359b565b9050670de0b6b3a76400006126918482613712565b61269b9084613584565b6126a5919061359b565b8111806126de57506126bf83670de0b6b3a7640000613712565b6126d1670de0b6b3a764000084613584565b6126db919061359b565b81105b156126fc5760405163f462205160e01b815260040160405180910390fd5b50505050505050565b60006127118483613584565b61272384670de0b6b3a7640000613584565b1061273057506000612635565b61273b826002613584565b61274d670de0b6b3a764000085613584565b612757919061359b565b61276260028661359b565b61144d9190613606565b611de082826040516024016127829291906137d5565b60408051601f198184030181529190526020810180516001600160e01b0316634b5c427760e01b179052613156565b60008183106127c05781612635565b5090919050565b611de082826040516024016127dd929190613803565b60408051601f198184030181529190526020810180516001600160e01b031663319af33360e01b179052613156565b6040516309ab24eb60e41b81526000600482018190529081906001600160a01b03871690639ab24eb090602401602060405180830381865afa925050508015612872575060408051601f3d908101601f1916820190925261286f918101906135ed565b60015b1561292e57506040516333f22e7960e11b81526001600160a01b0387811660048301526000917f0000000000000000000000000000000000000000000000000000000000000000909116906367e45cf290602401602060405180830381865afa1580156128e3573d6000803e3d6000fd5b505050506040513d601f19601f8201168201806040525081019061290791906135ed565b90508085111561292c578461291c8286613584565b612926919061359b565b93508094505b505b6040516309ab24eb60e41b8152600060048201526001600160a01b03861690639ab24eb090602401602060405180830381865afa92505050801561298f575060408051601f3d908101601f1916820190925261298c918101906135ed565b60015b15612a4b57506040516333f22e7960e11b81526001600160a01b0386811660048301526000917f0000000000000000000000000000000000000000000000000000000000000000909116906367e45cf290602401602060405180830381865afa158015612a00573d6000803e3d6000fd5b505050506040513d601f19601f82011682018060405250810190612a2491906135ed565b905080841115612a495783612a398287613584565b612a43919061359b565b94508093505b505b509194909350915050565b600080612a7a6040518060600160405280602181526020016139e260219139611d0e565b612aa66040518060400160405280600a815260200169746f6b656e413a20257360b01b815250896127c7565b612ad26040518060400160405280600a815260200169746f6b656e423a20257360b01b815250886127c7565b612aff6040518060400160405280600b81526020016a616d6f756e74413a20256960a81b81525087611d9b565b612b2c6040518060400160405280600b81526020016a616d6f756e74423a20256960a81b81525086611d9b565b612b62604051806040016040528060148152602001736163636570746564536c6970706167653a20256960601b81525085611d9b565b612b8f6040518060400160405280600b81526020016a706f6f6c4964783a20257360a81b81525084611d9b565b604051635496696b60e01b8152600481018490526001600160a01b0389811660248301526000917f000000000000000000000000000000000000000000000000000000000000000090911690635496696b90604401602060405180830381865afa158015612c01573d6000803e3d6000fd5b505050506040513d601f19601f82011682018060405250810190612c2591906135ed565b604051635496696b60e01b8152600481018690526001600160a01b038a811660248301529192506000917f00000000000000000000000000000000000000000000000000000000000000001690635496696b90604401602060405180830381865afa158015612c98573d6000803e3d6000fd5b505050506040513d601f19601f82011682018060405250810190612cbc91906135ed565b9050612ceb6040518060400160405280600b81526020016a62616c616e63654120256960a81b81525083611d9b565b612d186040518060400160405280600b81526020016a62616c616e63654220256960a81b81525082611d9b565b600082118015612d285750600081115b1561301857612d6b6040518060400160405280601c81526020017f62616c616e636541203e20302026262062616c616e636542203e203000000000815250611d0e565b600081612d80670de0b6b3a764000085613584565b612d8a919061359b565b9050612dad604051806060016040528060238152602001613b4f60239139611d0e565b600088612dc2670de0b6b3a76400008c613584565b612dcc919061359b565b9050612dfc6040518060400160405280600c81526020016b706f6f6c526174696f20256960a01b81525083611d9b565b612e2d6040518060400160405280600f81526020016e6465706f736974526174696f20256960881b81525082611d9b565b670de0b6b3a7640000612e408982613712565b612e4a9084613584565b612e54919061359b565b811180612e8d5750612e6e88670de0b6b3a7640000613712565b612e80670de0b6b3a764000084613584565b612e8a919061359b565b81105b15612fc957612ed560405180606001604052806038815260200161389060389139670de0b6b3a7640000612ec18b82613712565b612ecb9086613584565b6120ea919061359b565b612f156040518060600160405280603881526020016139aa60389139612f038a670de0b6b3a7640000613712565b612ecb670de0b6b3a764000086613584565b612f5f604051806080016040528060478152602001613a2960479139670de0b6b3a7640000612f448b82613712565b612f4e9086613584565b612f58919061359b565b8311613177565b612fb0604051806080016040528060478152602001613b7260479139612f8d8a670de0b6b3a7640000613712565b612f9f670de0b6b3a764000086613584565b612fa9919061359b565b8310613177565b60405163f462205160e01b815260040160405180910390fd5b81811115612ff557670de0b6b3a7640000612fe4838b613584565b612fee919061359b565b9950613015565b81613008670de0b6b3a76400008c613584565b613012919061359b565b98505b50505b6130426040518060400160405280600881526020016730b6b7bab73a209d60c11b81525089611d9b565b61306c6040518060400160405280600881526020016730b6b7bab73a211d60c11b81525088611d9b565b5095989497509395505050505050565b60006130d1826040518060400160405280602081526020017f5361666545524332303a206c6f772d6c6576656c2063616c6c206661696c6564815250856001600160a01b03166131bc9092919063ffffffff16565b90508051600014806130f25750808060200190518101906130f2919061382d565b611d095760405162461bcd60e51b815260206004820152602a60248201527f5361666545524332303a204552433230206f7065726174696f6e20646964206e6044820152691bdd081cdd58d8d9595960b21b60648201526084015b60405180910390fd5b80516a636f6e736f6c652e6c6f67602083016000808483855afa5050505050565b611de0828260405160240161318d92919061384f565b60408051601f198184030181529190526020810180516001600160e01b031663c3b5563560e01b179052613156565b606061144d848460008585600080866001600160a01b031685876040516131e39190613873565b60006040518083038185875af1925050503d8060008114613220576040519150601f19603f3d011682016040523d82523d6000602084013e613225565b606091505b5091509150610c3c87838387606083156132a0578251600003613299576001600160a01b0385163b6132995760405162461bcd60e51b815260206004820152601d60248201527f416464726573733a2063616c6c20746f206e6f6e2d636f6e7472616374000000604482015260640161314d565b508161144d565b61144d83838151156132b55781518083602001fd5b8060405162461bcd60e51b815260040161314d919061376a565b634e487b7160e01b600052604160045260246000fd5b604051601f8201601f1916810167ffffffffffffffff8111828210171561330e5761330e6132cf565b604052919050565b6001600160a01b0381168114611d5157600080fd5b600082601f83011261333c57600080fd5b8135602067ffffffffffffffff821115613358576133586132cf565b8160051b6133678282016132e5565b928352848101820192828101908785111561338157600080fd5b83870192505b84831015610c3c57823561339a81613316565b82529183019190830190613387565b600080600080600060a086880312156133c157600080fd5b853567ffffffffffffffff8111156133d857600080fd5b6133e48882890161332b565b9550506020860135935060408601359250606086013561340381613316565b949793965091946080013592915050565b600080600080600080600080610100898b03121561343157600080fd5b883561343c81613316565b9750602089013561344c81613316565b965060408901359550606089013594506080890135935060a089013561347181613316565b979a969950949793969295929450505060c08201359160e0013590565b600080604083850312156134a157600080fd5b82356134ac81613316565b915060208301356134bc81613316565b809150509250929050565b6000602082840312156134d957600080fd5b813567ffffffffffffffff8111156134f057600080fd5b61144d8482850161332b565b600080600080600080600060e0888a03121561351757600080fd5b873561352281613316565b9650602088013561353281613316565b955060408801359450606088013593506080880135925060a088013561355781613316565b8092505060c0880135905092959891949750929550565b634e487b7160e01b600052601160045260246000fd5b8082028115828204841417611cd357611cd361356e565b6000826135b857634e487b7160e01b600052601260045260246000fd5b500490565b634e487b7160e01b600052603260045260246000fd5b6001600160a01b0392831681529116602082015260400190565b6000602082840312156135ff57600080fd5b5051919050565b81810381811115611cd357611cd361356e565b60005b8381101561363457818101518382015260200161361c565b50506000910152565b60006020828403121561364f57600080fd5b815167ffffffffffffffff8082111561366757600080fd5b818401915084601f83011261367b57600080fd5b81518181111561368d5761368d6132cf565b6136a0601f8201601f19166020016132e5565b91508082528560208285010111156136b757600080fd5b6136c8816020840160208601613619565b50949350505050565b6000602082840312156136e357600080fd5b815161263581613316565b6000806040838503121561370157600080fd5b505080516020909101519092909150565b80820180821115611cd357611cd361356e565b6000600182016137375761373761356e565b5060010190565b60008151808452613756816020860160208601613619565b601f01601f19169290920160200192915050565b602081526000612635602083018461373e565b606081526000613790606083018661373e565b82810360208401526137a2818661373e565b915050826040830152949350505050565b6040815260006137c6604083018561373e565b90508260208301529392505050565b6040815260006137e8604083018561373e565b82810360208401526137fa818561373e565b95945050505050565b604081526000613816604083018561373e565b905060018060a01b03831660208301529392505050565b60006020828403121561383f57600080fd5b8151801515811461263557600080fd5b604081526000613862604083018561373e565b905082151560208301529392505050565b60008251613885818460208701613619565b919091019291505056fe28706f6f6c526174696f202a2028505245434953494f4e202b206163636570746564536c6970706167652929202f20505245434953494f4e41646a75737420616d6f756e744120616e6420616d6f756e744220746f206e6f74206578636565642074686569722072657370656374697665206c696d697473207768696c65206d61696e7461696e696e672074686520726174696f5f61646a757374416d6f756e7473466f72536c69707061676528746f6b656e412c20746f6b656e422c20616d6f756e74412c20616d6f756e74422c206163636570746564536c6970706167652c20706f6f6c4964782946696e64206f72206372656174652074686520706f6f6c20696e64657820666f722074686520746f6b656e207061697228706f6f6c526174696f202a20505245434953494f4e29202f2028505245434953494f4e202b206163636570746564536c697070616765290a4445583a3a5f61646a757374416d6f756e7473466f72536c6970706167652829706f6f6c4d616e616765722e637265617465506f6f6c28746f6b656e412c20746f6b656e42296465706f736974526174696f203e2028706f6f6c526174696f202a2028505245434953494f4e202b206163636570746564536c6970706167652929202f20505245434953494f4e73696e676c655472616e73616374696f6e5769746864726177616c4c696d69745b25735d3a202569436865636b20616e642061646a75737420616d6f756e747320666f7220616363657074656420736c6970706167656c697175696469747952616d702e6164644c697175696469747928746f6b656e412c20746f6b656e422c20616d6f756e74412c20616d6f756e74422c2070726f7669646572295472616e7366657220746f6b656e73206469726563746c7920746f20746865206c6971756964697479206d616e6167657220616e6420616464206c6971756964697479676f7420706f6f6c526174696f2c2067657474696e67206465706f736974526174696f6465706f736974526174696f203c2028706f6f6c526174696f202a20505245434953494f4e29202f2028505245434953494f4e202b206163636570746564536c69707061676529a2646970667358221220a7faa4748c1bdbd914038ed2502e2742febf97fed8ad954154ebf7cd4897d1ad64736f6c63430008130033",
    "linkReferences": {}
  },
  "methodIdentifiers": {
    "addLiquidity(address,address,uint256,uint256,uint256,address,uint256)": "ba9f20b8",
    "buy(address[],uint256,uint256,address,uint256)": "2a64b539",
    "calculateSwapAmounts(address[])": "63730975",
    "getDepth(address,address)": "4772b4df",
    "getPrice(address,address)": "ac41865a",
    "liquidityManager()": "33827438",
    "liquidityRamp()": "4dfd324e",
    "poolManager()": "dc4c90d3",
    "redeemLiquidity(address,address,uint256,uint256,uint256,address,uint256,uint256)": "3118b3c8",
    "swapManager()": "709d039d"
  },
  "id": 66
}