{
  "abi": [
    {
      "inputs": [
        {
          "internalType": "contract IPoolManager",
          "name": "_poolManager",
          "type": "address"
        },
        {
          "internalType": "contract ISwapManager",
          "name": "_swapManager",
          "type": "address"
        },
        {
          "internalType": "contract ILiquidityRamp",
          "name": "_liquidityRamp",
          "type": "address"
        },
        {
          "internalType": "contract ILiquidityManager",
          "name": "_liquidityManager",
          "type": "address"
        }
      ],
      "stateMutability": "nonpayable",
      "type": "constructor"
    },
    {
      "inputs": [],
      "name": "DEX__DeadlinePassed",
      "type": "error"
    },
    {
      "inputs": [],
      "name": "DEX__InvalidPath",
      "type": "error"
    },
    {
      "inputs": [],
      "name": "DEX__InvalidPrice",
      "type": "error"
    },
    {
      "inputs": [],
      "name": "DEX__PoolNotFound",
      "type": "error"
    },
    {
      "inputs": [],
      "name": "DEX__Slippage",
      "type": "error"
    },
    {
      "inputs": [],
      "name": "DEX__ZeroAmount",
      "type": "error"
    },
    {
      "inputs": [
        {
          "internalType": "contract IERC20",
          "name": "tokenA",
          "type": "address"
        },
        {
          "internalType": "contract IERC20",
          "name": "tokenB",
          "type": "address"
        },
        {
          "internalType": "uint256",
          "name": "amountA",
          "type": "uint256"
        },
        {
          "internalType": "uint256",
          "name": "amountB",
          "type": "uint256"
        },
        {
          "internalType": "uint256",
          "name": "acceptedSlippage",
          "type": "uint256"
        },
        {
          "internalType": "address",
          "name": "provider",
          "type": "address"
        },
        {
          "internalType": "uint256",
          "name": "deadline",
          "type": "uint256"
        }
      ],
      "name": "addLiquidity",
      "outputs": [
        {
          "internalType": "uint256",
          "name": "",
          "type": "uint256"
        },
        {
          "internalType": "uint256",
          "name": "",
          "type": "uint256"
        }
      ],
      "stateMutability": "nonpayable",
      "type": "function"
    },
    {
      "inputs": [
        {
          "internalType": "contract IERC20[]",
          "name": "path",
          "type": "address[]"
        },
        {
          "internalType": "uint256",
          "name": "desiredAmountOut",
          "type": "uint256"
        },
        {
          "internalType": "uint256",
          "name": "maxPrice",
          "type": "uint256"
        },
        {
          "internalType": "address",
          "name": "recipient",
          "type": "address"
        },
        {
          "internalType": "address",
          "name": "routingAgent",
          "type": "address"
        },
        {
          "internalType": "uint256",
          "name": "deadline",
          "type": "uint256"
        }
      ],
      "name": "buy",
      "outputs": [
        {
          "internalType": "uint256",
          "name": "actualAmountOut",
          "type": "uint256"
        },
        {
          "internalType": "uint256",
          "name": "amountToSwap",
          "type": "uint256"
        }
      ],
      "stateMutability": "nonpayable",
      "type": "function"
    },
    {
      "inputs": [
        {
          "internalType": "contract IERC20[]",
          "name": "path",
          "type": "address[]"
        }
      ],
      "name": "calculateSwapAmounts",
      "outputs": [
        {
          "internalType": "uint256",
          "name": "amountInRequired",
          "type": "uint256"
        },
        {
          "internalType": "uint256",
          "name": "amountOutMax",
          "type": "uint256"
        }
      ],
      "stateMutability": "view",
      "type": "function"
    },
    {
      "inputs": [
        {
          "internalType": "contract IERC20",
          "name": "baseToken",
          "type": "address"
        },
        {
          "internalType": "contract IERC20",
          "name": "quoteToken",
          "type": "address"
        }
      ],
      "name": "getDepth",
      "outputs": [
        {
          "internalType": "uint256",
          "name": "depth",
          "type": "uint256"
        }
      ],
      "stateMutability": "view",
      "type": "function"
    },
    {
      "inputs": [
        {
          "internalType": "contract IERC20",
          "name": "baseToken",
          "type": "address"
        },
        {
          "internalType": "contract IERC20",
          "name": "quoteToken",
          "type": "address"
        }
      ],
      "name": "getPrice",
      "outputs": [
        {
          "internalType": "uint256",
          "name": "price",
          "type": "uint256"
        }
      ],
      "stateMutability": "view",
      "type": "function"
    },
    {
      "inputs": [],
      "name": "liquidityManager",
      "outputs": [
        {
          "internalType": "contract ILiquidityManager",
          "name": "",
          "type": "address"
        }
      ],
      "stateMutability": "view",
      "type": "function"
    },
    {
      "inputs": [],
      "name": "liquidityRamp",
      "outputs": [
        {
          "internalType": "contract ILiquidityRamp",
          "name": "",
          "type": "address"
        }
      ],
      "stateMutability": "view",
      "type": "function"
    },
    {
      "inputs": [],
      "name": "poolManager",
      "outputs": [
        {
          "internalType": "contract IPoolManager",
          "name": "",
          "type": "address"
        }
      ],
      "stateMutability": "view",
      "type": "function"
    },
    {
      "inputs": [
        {
          "internalType": "contract IERC20",
          "name": "tokenA",
          "type": "address"
        },
        {
          "internalType": "contract IERC20",
          "name": "tokenB",
          "type": "address"
        },
        {
          "internalType": "uint256",
          "name": "desiredAmountTokenA",
          "type": "uint256"
        },
        {
          "internalType": "uint256",
          "name": "desiredAmountTokenB",
          "type": "uint256"
        },
        {
          "internalType": "uint256",
          "name": "lpTokenQty",
          "type": "uint256"
        },
        {
          "internalType": "address",
          "name": "recipient",
          "type": "address"
        },
        {
          "internalType": "uint256",
          "name": "deadline",
          "type": "uint256"
        },
        {
          "internalType": "uint256",
          "name": "acceptedSlippage",
          "type": "uint256"
        }
      ],
      "name": "redeemLiquidity",
      "outputs": [
        {
          "internalType": "uint256",
          "name": "newLpTokenQty",
          "type": "uint256"
        }
      ],
      "stateMutability": "nonpayable",
      "type": "function"
    },
    {
      "inputs": [],
      "name": "swapManager",
      "outputs": [
        {
          "internalType": "contract ISwapManager",
          "name": "",
          "type": "address"
        }
      ],
      "stateMutability": "view",
      "type": "function"
    }
  ],
  "bytecode": {
    "object": "0x6101006040523480156200001257600080fd5b506040516200285838038062002858833981016040819052620000359162000071565b6001600160a01b0393841660805291831660a052821660c0521660e052620000d9565b6001600160a01b03811681146200006e57600080fd5b50565b600080600080608085870312156200008857600080fd5b8451620000958162000058565b6020860151909450620000a88162000058565b6040860151909350620000bb8162000058565b6060860151909250620000ce8162000058565b939692955090935050565b60805160a05160c05160e051612658620002006000396000818160ce015281816105dd015281816109bf01528181610a5601528181610caa01528181610dfe0152818161120e01528181611243015281816113c50152818161145c01528181611562015281816115f90152818161193f01528181611baa01528181611cc701528181611d6d0152611e3801526000818161014801528181610383015281816103db01526112a5015260008181610182015281816106330152818161092601528181610bec0152818161100f01526119730152600081816101cf0152818161022f015281816102fe015281816106620152818161084d01528181610afc01528181610f39015281816110d20152818161118101528181611335015261184c01526126586000f3fe608060405234801561001057600080fd5b506004361061009e5760003560e01c80636373097511610066578063637309751461016a578063709d039d1461017d578063ac41865a146101a4578063ba9f20b8146101b7578063dc4c90d3146101ca57600080fd5b80633118b3c8146100a357806333827438146100c957806341f12688146101085780634772b4df146101305780634dfd324e14610143575b600080fd5b6100b66100b13660046121ee565b6101f1565b6040519081526020015b60405180910390f35b6100f07f000000000000000000000000000000000000000000000000000000000000000081565b6040516001600160a01b0390911681526020016100c0565b61011b610116366004612315565b6104e7565b604080519283526020830191909152016100c0565b6100b661013e366004612395565b610848565b6100f07f000000000000000000000000000000000000000000000000000000000000000081565b61011b6101783660046123ce565b610ad9565b6100f07f000000000000000000000000000000000000000000000000000000000000000081565b6100b66101b2366004612395565b610f34565b61011b6101c5366004612403565b611082565b6100f07f000000000000000000000000000000000000000000000000000000000000000081565b6000828042111561021557604051630b5399cb60e31b815260040160405180910390fd5b604051638ae93f0b60e01b81526000906001600160a01b037f00000000000000000000000000000000000000000000000000000000000000001690638ae93f0b90610266908e908e90600401612475565b602060405180830381865afa158015610283573d6000803e3d6000fd5b505050506040513d601f19601f820116820180604052508101906102a7919061248f565b9050806000036102ca576040516305153add60e41b815260040160405180910390fd5b60006102d7828d8d611312565b9050878110156102e5578097505b6040516306ed78b760e21b8152600481018390526000907f00000000000000000000000000000000000000000000000000000000000000006001600160a01b031690631bb5e2dc90602401602060405180830381865afa15801561034d573d6000803e3d6000fd5b505050506040513d601f19601f8201168201806040525081019061037191906124a8565b90506103a86001600160a01b038216337f00000000000000000000000000000000000000000000000000000000000000008c6116f5565b60405163e5f415c960e01b81526001600160a01b038281166004830152602482018b9052898116604483015260009182917f0000000000000000000000000000000000000000000000000000000000000000169063e5f415c99060640160408051808303816000875af1158015610423573d6000803e3d6000fd5b505050506040513d601f19601f8201168201806040525081019061044791906124c5565b91509150826001600160a01b031663c451463b6040518163ffffffff1660e01b8152600401602060405180830381865afa158015610489573d6000803e3d6000fd5b505050506040513d601f19601f820116820180604052508101906104ad91906124a8565b6001600160a01b03168f6001600160a01b0316036104c757905b6104d48d8d84848c611766565b50989d9c50505050505050505050505050565b600080828042111561050c57604051630b5399cb60e31b815260040160405180910390fd5b60028951101561052f57604051635701c3f560e01b815260040160405180910390fd5b61053889610ad9565b93509150600083610551670de0b6b3a7640000856124ff565b61055b9190612516565b90508784670de0b6b3a7640000610573600187612538565b61057d91906124ff565b6105879190612516565b11156105a657604051635a3967e360e11b815260040160405180910390fd5b838910156105ce57806105c1670de0b6b3a76400008b6124ff565b6105cb9190612516565b92505b89516002036107d157610631337f0000000000000000000000000000000000000000000000000000000000000000858d6000815181106106105761061061254b565b60200260200101516001600160a01b03166116f5909392919063ffffffff16565b7f00000000000000000000000000000000000000000000000000000000000000006001600160a01b03166310e2df9b7f00000000000000000000000000000000000000000000000000000000000000006001600160a01b0316638ae93f0b8d6000815181106106a2576106a261254b565b60200260200101518e6001815181106106bd576106bd61254b565b60200260200101516040518363ffffffff1660e01b81526004016106e2929190612475565b602060405180830381865afa1580156106ff573d6000803e3d6000fd5b505050506040513d601f19601f82011682018060405250810190610723919061248f565b89898e6000815181106107385761073861254b565b60209081029190910101516040516001600160e01b031960e087901b16815260048101949094526001600160a01b03928316602485015290821660448401521660648201526084810186905260a4016020604051808303816000875af11580156107a6573d6000803e3d6000fd5b505050506040513d601f19601f820116820180604052508101906107ca919061248f565b935061083b565b6107ea3330858d6000815181106106105761061061254b565b6107f58a848861182f565b935061083b87858c60018e5161080b9190612538565b8151811061081b5761081b61254b565b60200260200101516001600160a01b0316611a669092919063ffffffff16565b5050965096945050505050565b6000807f00000000000000000000000000000000000000000000000000000000000000006001600160a01b0316638ae93f0b85856040518363ffffffff1660e01b8152600401610899929190612475565b602060405180830381865afa1580156108b6573d6000803e3d6000fd5b505050506040513d601f19601f820116820180604052508101906108da919061248f565b9050806000036108fd576040516305153add60e41b815260040160405180910390fd5b6040516303f40b6b60e61b8152600481018290526001600160a01b0385811660248301526000917f00000000000000000000000000000000000000000000000000000000000000009091169063fd02dac090604401602060405180830381865afa15801561096f573d6000803e3d6000fd5b505050506040513d601f19601f82011682018060405250810190610993919061248f565b604051635496696b60e01b8152600481018490526001600160a01b0387811660248301529192506000917f00000000000000000000000000000000000000000000000000000000000000001690635496696b90604401602060405180830381865afa158015610a06573d6000803e3d6000fd5b505050506040513d601f19601f82011682018060405250810190610a2a919061248f565b604051635496696b60e01b8152600481018590526001600160a01b0387811660248301529192506000917f00000000000000000000000000000000000000000000000000000000000000001690635496696b90604401602060405180830381865afa158015610a9d573d6000803e3d6000fd5b505050506040513d601f19601f82011682018060405250810190610ac1919061248f565b9050610ace828285611a9b565b979650505050505050565b60001960008080808080805b60018951610af39190612538565b811015610f29577f00000000000000000000000000000000000000000000000000000000000000006001600160a01b0316638ae93f0b8a8381518110610b3b57610b3b61254b565b60200260200101518b846001610b519190612561565b81518110610b6157610b6161254b565b60200260200101516040518363ffffffff1660e01b8152600401610b86929190612475565b602060405180830381865afa158015610ba3573d6000803e3d6000fd5b505050506040513d601f19601f82011682018060405250810190610bc7919061248f565b955085600003610be257506000988998509650505050505050565b6001600160a01b037f00000000000000000000000000000000000000000000000000000000000000001663fd02dac0878b610c1e856001612561565b81518110610c2e57610c2e61254b565b60200260200101516040518363ffffffff1660e01b8152600401610c659291909182526001600160a01b0316602082015260400190565b602060405180830381865afa158015610c82573d6000803e3d6000fd5b505050506040513d601f19601f82011682018060405250810190610ca6919061248f565b94507f00000000000000000000000000000000000000000000000000000000000000006001600160a01b031663591409fa8a8381518110610ce957610ce961254b565b60200260200101516040518263ffffffff1660e01b8152600401610d1c91906001600160a01b0391909116815260200190565b602060405180830381865afa158015610d39573d6000803e3d6000fd5b505050506040513d601f19601f82011682018060405250810190610d5d919061248f565b9350610d698885611b02565b9650610dbc87610db78b8481518110610d8457610d8461254b565b60200260200101518c856001610d9a9190612561565b81518110610daa57610daa61254b565b6020026020010151610848565b611b02565b9650670de0b6b3a7640000600181610dd4888b6124ff565b610dde9190612561565b610de89190612538565b610df29190612516565b91506001600160a01b037f0000000000000000000000000000000000000000000000000000000000000000166367e45cf28a610e2f846001612561565b81518110610e3f57610e3f61254b565b60200260200101516040518263ffffffff1660e01b8152600401610e7291906001600160a01b0391909116815260200190565b602060405180830381865afa158015610e8f573d6000803e3d6000fd5b505050506040513d601f19601f82011682018060405250810190610eb3919061248f565b925081831015610f135784610ed0670de0b6b3a7640000856124ff565b610eda9190612516565b9650670de0b6b3a7640000600181610ef2888b6124ff565b610efc9190612561565b610f069190612538565b610f109190612516565b91505b8197508080610f2190612574565b915050610ae5565b505050505050915091565b6000807f00000000000000000000000000000000000000000000000000000000000000006001600160a01b0316638ae93f0b85856040518363ffffffff1660e01b8152600401610f85929190612475565b602060405180830381865afa158015610fa2573d6000803e3d6000fd5b505050506040513d601f19601f82011682018060405250810190610fc6919061248f565b905080600003610fe9576040516305153add60e41b815260040160405180910390fd5b6040516303f40b6b60e61b8152600481018290526001600160a01b0385811660248301527f0000000000000000000000000000000000000000000000000000000000000000169063fd02dac090604401602060405180830381865afa158015611056573d6000803e3d6000fd5b505050506040513d601f19601f8201168201806040525081019061107a919061248f565b949350505050565b60008082804211156110a757604051630b5399cb60e31b815260040160405180910390fd5b6110b38a8a8a8a611b1c565b604051638ae93f0b60e01b815291995097506000906001600160a01b037f00000000000000000000000000000000000000000000000000000000000000001690638ae93f0b90611109908e908e90600401612475565b602060405180830381865afa158015611126573d6000803e3d6000fd5b505050506040513d601f19601f8201168201806040525081019061114a919061248f565b9050801561116a576111608b8b8b8b8b86611d66565b90995097506111fe565b60405163e343361560e01b81526001600160a01b037f0000000000000000000000000000000000000000000000000000000000000000169063e3433615906111b8908e908e90600401612475565b6020604051808303816000875af11580156111d7573d6000803e3d6000fd5b505050506040513d601f19601f820116820180604052508101906111fb919061248f565b90505b6112336001600160a01b038c16337f00000000000000000000000000000000000000000000000000000000000000008c6116f5565b6112686001600160a01b038b16337f00000000000000000000000000000000000000000000000000000000000000008b6116f5565b604051634b2fc7bb60e01b81526001600160a01b038c811660048301528b81166024830152604482018b9052606482018a905287811660848301527f00000000000000000000000000000000000000000000000000000000000000001690634b2fc7bb9060a401600060405180830381600087803b1580156112e957600080fd5b505af11580156112fd573d6000803e3d6000fd5b509a9d999c50989a5050505050505050505050565b6040516306ed78b760e21b81526004810184905260009081906001600160a01b037f00000000000000000000000000000000000000000000000000000000000000001690631bb5e2dc90602401602060405180830381865afa15801561137c573d6000803e3d6000fd5b505050506040513d601f19601f820116820180604052508101906113a091906124a8565b604051632c8a04fd60e11b81526001600160a01b0386811660048301529192506000917f0000000000000000000000000000000000000000000000000000000000000000169063591409fa90602401602060405180830381865afa15801561140c573d6000803e3d6000fd5b505050506040513d601f19601f82011682018060405250810190611430919061248f565b604051635496696b60e01b8152600481018890526001600160a01b0387811660248301529192506000917f00000000000000000000000000000000000000000000000000000000000000001690635496696b90604401602060405180830381865afa1580156114a3573d6000803e3d6000fd5b505050506040513d601f19601f820116820180604052508101906114c7919061248f565b836001600160a01b03166318160ddd6040518163ffffffff1660e01b8152600401602060405180830381865afa158015611505573d6000803e3d6000fd5b505050506040513d601f19601f82011682018060405250810190611529919061248f565b61153390846124ff565b61153d9190612516565b604051632c8a04fd60e11b81526001600160a01b0387811660048301529192506000917f0000000000000000000000000000000000000000000000000000000000000000169063591409fa90602401602060405180830381865afa1580156115a9573d6000803e3d6000fd5b505050506040513d601f19601f820116820180604052508101906115cd919061248f565b604051635496696b60e01b8152600481018a90526001600160a01b0388811660248301529192506000917f00000000000000000000000000000000000000000000000000000000000000001690635496696b90604401602060405180830381865afa158015611640573d6000803e3d6000fd5b505050506040513d601f19601f82011682018060405250810190611664919061248f565b856001600160a01b03166318160ddd6040518163ffffffff1660e01b8152600401602060405180830381865afa1580156116a2573d6000803e3d6000fd5b505050506040513d601f19601f820116820180604052508101906116c6919061248f565b6116d090846124ff565b6116da9190612516565b90506116e68382611b02565b955050505050505b9392505050565b6040516001600160a01b03808516602483015283166044820152606481018290526117609085906323b872dd60e01b906084015b60408051601f198184030181529190526020810180516001600160e01b03166001600160e01b031990931692909217909152611fd9565b50505050565b60008461177b670de0b6b3a7640000886124ff565b6117859190612516565b905060008361179c670de0b6b3a7640000876124ff565b6117a69190612516565b9050670de0b6b3a76400006117bb8482612561565b6117c590846124ff565b6117cf9190612516565b81118061180857506117e983670de0b6b3a7640000612561565b6117fb670de0b6b3a7640000846124ff565b6118059190612516565b81105b156118265760405163f462205160e01b815260040160405180910390fd5b50505050505050565b6000805b600185516118419190612538565b811015611a5d5760007f00000000000000000000000000000000000000000000000000000000000000006001600160a01b0316638ae93f0b87848151811061188b5761188b61254b565b6020026020010151888560016118a19190612561565b815181106118b1576118b161254b565b60200260200101516040518363ffffffff1660e01b81526004016118d6929190612475565b602060405180830381865afa1580156118f3573d6000803e3d6000fd5b505050506040513d601f19601f82011682018060405250810190611917919061248f565b90508060000361193a576040516305153add60e41b815260040160405180910390fd5b6119717f00000000000000000000000000000000000000000000000000000000000000008688858151811061081b5761081b61254b565b7f00000000000000000000000000000000000000000000000000000000000000006001600160a01b03166310e2df9b8230878a87815181106119b5576119b561254b565b60209081029190910101516040516001600160e01b031960e087901b16815260048101949094526001600160a01b03928316602485015290821660448401521660648201526084810188905260a4016020604051808303816000875af1158015611a23573d6000803e3d6000fd5b505050506040513d601f19601f82011682018060405250810190611a47919061248f565b9450508080611a5590612574565b915050611833565b50919392505050565b6040516001600160a01b038316602482015260448101829052611a9690849063a9059cbb60e01b90606401611729565b505050565b6000611aa784836124ff565b611ab984670de0b6b3a76400006124ff565b10611ac6575060006116ee565b611ad18260026124ff565b611ae3670de0b6b3a7640000856124ff565b611aed9190612516565b611af8600286612516565b61107a9190612538565b6000818310611b115781611b13565b825b90505b92915050565b6040516309ab24eb60e41b81526000600482018190529081906001600160a01b03871690639ab24eb090602401602060405180830381865afa925050508015611b82575060408051601f3d908101601f19168201909252611b7f9181019061248f565b60015b15611c3e57506040516333f22e7960e11b81526001600160a01b0387811660048301526000917f0000000000000000000000000000000000000000000000000000000000000000909116906367e45cf290602401602060405180830381865afa158015611bf3573d6000803e3d6000fd5b505050506040513d601f19601f82011682018060405250810190611c17919061248f565b905080851115611c3c5784611c2c82866124ff565b611c369190612516565b93508094505b505b6040516309ab24eb60e41b8152600060048201526001600160a01b03861690639ab24eb090602401602060405180830381865afa925050508015611c9f575060408051601f3d908101601f19168201909252611c9c9181019061248f565b60015b15611d5b57506040516333f22e7960e11b81526001600160a01b0386811660048301526000917f0000000000000000000000000000000000000000000000000000000000000000909116906367e45cf290602401602060405180830381865afa158015611d10573d6000803e3d6000fd5b505050506040513d601f19601f82011682018060405250810190611d34919061248f565b905080841115611d595783611d4982876124ff565b611d539190612516565b94508093505b505b509194909350915050565b60008060007f00000000000000000000000000000000000000000000000000000000000000006001600160a01b0316635496696b858b6040518363ffffffff1660e01b8152600401611dcb9291909182526001600160a01b0316602082015260400190565b602060405180830381865afa158015611de8573d6000803e3d6000fd5b505050506040513d601f19601f82011682018060405250810190611e0c919061248f565b604051635496696b60e01b8152600481018690526001600160a01b038a811660248301529192506000917f00000000000000000000000000000000000000000000000000000000000000001690635496696b90604401602060405180830381865afa158015611e7f573d6000803e3d6000fd5b505050506040513d601f19601f82011682018060405250810190611ea3919061248f565b9050600082118015611eb55750600081115b15611fc957600081611ecf670de0b6b3a7640000856124ff565b611ed99190612516565b9050600088611ef0670de0b6b3a76400008c6124ff565b611efa9190612516565b9050670de0b6b3a7640000611f0f8982612561565b611f1990846124ff565b611f239190612516565b811180611f5c5750611f3d88670de0b6b3a7640000612561565b611f4f670de0b6b3a7640000846124ff565b611f599190612516565b81105b15611f7a5760405163f462205160e01b815260040160405180910390fd5b81811115611fa657670de0b6b3a7640000611f95838b6124ff565b611f9f9190612516565b9950611fc6565b81611fb9670de0b6b3a76400008c6124ff565b611fc39190612516565b98505b50505b5095989497509395505050505050565b600061202e826040518060400160405280602081526020017f5361666545524332303a206c6f772d6c6576656c2063616c6c206661696c6564815250856001600160a01b03166120b39092919063ffffffff16565b905080516000148061204f57508080602001905181019061204f919061258d565b611a965760405162461bcd60e51b815260206004820152602a60248201527f5361666545524332303a204552433230206f7065726174696f6e20646964206e6044820152691bdd081cdd58d8d9595960b21b60648201526084015b60405180910390fd5b606061107a848460008585600080866001600160a01b031685876040516120da91906125d3565b60006040518083038185875af1925050503d8060008114612117576040519150601f19603f3d011682016040523d82523d6000602084013e61211c565b606091505b5091509150610ace8783838760608315612197578251600003612190576001600160a01b0385163b6121905760405162461bcd60e51b815260206004820152601d60248201527f416464726573733a2063616c6c20746f206e6f6e2d636f6e747261637400000060448201526064016120aa565b508161107a565b61107a83838151156121ac5781518083602001fd5b8060405162461bcd60e51b81526004016120aa91906125ef565b6001600160a01b03811681146121db57600080fd5b50565b80356121e9816121c6565b919050565b600080600080600080600080610100898b03121561220b57600080fd5b8835612216816121c6565b97506020890135612226816121c6565b965060408901359550606089013594506080890135935060a089013561224b816121c6565b979a969950949793969295929450505060c08201359160e0013590565b634e487b7160e01b600052604160045260246000fd5b600082601f83011261228f57600080fd5b8135602067ffffffffffffffff808311156122ac576122ac612268565b8260051b604051601f19603f830116810181811084821117156122d1576122d1612268565b6040529384528581018301938381019250878511156122ef57600080fd5b83870191505b84821015610ace57612306826121de565b835291830191908301906122f5565b60008060008060008060c0878903121561232e57600080fd5b863567ffffffffffffffff81111561234557600080fd5b61235189828a0161227e565b96505060208701359450604087013593506060870135612370816121c6565b92506080870135612380816121c6565b8092505060a087013590509295509295509295565b600080604083850312156123a857600080fd5b82356123b3816121c6565b915060208301356123c3816121c6565b809150509250929050565b6000602082840312156123e057600080fd5b813567ffffffffffffffff8111156123f757600080fd5b61107a8482850161227e565b600080600080600080600060e0888a03121561241e57600080fd5b8735612429816121c6565b96506020880135612439816121c6565b955060408801359450606088013593506080880135925060a088013561245e816121c6565b8092505060c0880135905092959891949750929550565b6001600160a01b0392831681529116602082015260400190565b6000602082840312156124a157600080fd5b5051919050565b6000602082840312156124ba57600080fd5b81516116ee816121c6565b600080604083850312156124d857600080fd5b505080516020909101519092909150565b634e487b7160e01b600052601160045260246000fd5b8082028115828204841417611b1657611b166124e9565b60008261253357634e487b7160e01b600052601260045260246000fd5b500490565b81810381811115611b1657611b166124e9565b634e487b7160e01b600052603260045260246000fd5b80820180821115611b1657611b166124e9565b600060018201612586576125866124e9565b5060010190565b60006020828403121561259f57600080fd5b815180151581146116ee57600080fd5b60005b838110156125ca5781810151838201526020016125b2565b50506000910152565b600082516125e58184602087016125af565b9190910192915050565b602081526000825180602084015261260e8160408501602087016125af565b601f01601f1916919091016040019291505056fea264697066735822122007b629c7190cc052edd86c93b26f3601a5233e2a39b213eb5ae82e2a7ae6fb5864736f6c63430008130033",
    "linkReferences": {}
  },
  "methodIdentifiers": {
    "addLiquidity(address,address,uint256,uint256,uint256,address,uint256)": "ba9f20b8",
    "buy(address[],uint256,uint256,address,address,uint256)": "41f12688",
    "calculateSwapAmounts(address[])": "63730975",
    "getDepth(address,address)": "4772b4df",
    "getPrice(address,address)": "ac41865a",
    "liquidityManager()": "33827438",
    "liquidityRamp()": "4dfd324e",
    "poolManager()": "dc4c90d3",
    "redeemLiquidity(address,address,uint256,uint256,uint256,address,uint256,uint256)": "3118b3c8",
    "swapManager()": "709d039d"
  },
  "id": 66
}