{
  "abi": [
    {
      "inputs": [
        {
          "internalType": "contract IPoolManager",
          "name": "_poolManager",
          "type": "address"
        },
        {
          "internalType": "contract ISwapManager",
          "name": "_swapManager",
          "type": "address"
        },
        {
          "internalType": "contract ILiquidityRamp",
          "name": "_liquidityRamp",
          "type": "address"
        },
        {
          "internalType": "contract ILiquidityManager",
          "name": "_liquidityManager",
          "type": "address"
        }
      ],
      "stateMutability": "nonpayable",
      "type": "constructor"
    },
    {
      "inputs": [],
      "name": "DEX2__DeadlinePassed",
      "type": "error"
    },
    {
      "inputs": [],
      "name": "DEX2__InvalidSlippage",
      "type": "error"
    },
    {
      "inputs": [],
      "name": "DEX2__PoolNotFound",
      "type": "error"
    },
    {
      "inputs": [],
      "name": "DEX2__PriceTooLow",
      "type": "error"
    },
    {
      "inputs": [],
      "name": "DEX2__Slippage",
      "type": "error"
    },
    {
      "inputs": [],
      "name": "DEX2__ZeroAmount",
      "type": "error"
    },
    {
      "inputs": [
        {
          "internalType": "contract IERC20",
          "name": "tokenA",
          "type": "address"
        },
        {
          "internalType": "contract IERC20",
          "name": "tokenB",
          "type": "address"
        },
        {
          "internalType": "uint256",
          "name": "amountA",
          "type": "uint256"
        },
        {
          "internalType": "uint256",
          "name": "amountB",
          "type": "uint256"
        },
        {
          "internalType": "uint256",
          "name": "acceptedSlippage",
          "type": "uint256"
        },
        {
          "internalType": "address",
          "name": "provider",
          "type": "address"
        },
        {
          "internalType": "uint256",
          "name": "deadline",
          "type": "uint256"
        }
      ],
      "name": "addLiquidity",
      "outputs": [
        {
          "internalType": "uint256",
          "name": "",
          "type": "uint256"
        },
        {
          "internalType": "uint256",
          "name": "",
          "type": "uint256"
        }
      ],
      "stateMutability": "nonpayable",
      "type": "function"
    },
    {
      "inputs": [
        {
          "internalType": "contract IERC20",
          "name": "baseToken",
          "type": "address"
        },
        {
          "internalType": "contract IERC20",
          "name": "quoteToken",
          "type": "address"
        },
        {
          "internalType": "uint256",
          "name": "desiredAmount",
          "type": "uint256"
        },
        {
          "internalType": "uint256",
          "name": "maxPrice",
          "type": "uint256"
        },
        {
          "internalType": "address",
          "name": "recipient",
          "type": "address"
        },
        {
          "internalType": "uint256",
          "name": "deadline",
          "type": "uint256"
        }
      ],
      "name": "buy",
      "outputs": [
        {
          "internalType": "uint256",
          "name": "totalIn",
          "type": "uint256"
        },
        {
          "internalType": "uint256",
          "name": "totalOut",
          "type": "uint256"
        }
      ],
      "stateMutability": "nonpayable",
      "type": "function"
    },
    {
      "inputs": [
        {
          "internalType": "contract IERC20",
          "name": "baseToken",
          "type": "address"
        },
        {
          "internalType": "contract IERC20",
          "name": "quoteToken",
          "type": "address"
        },
        {
          "internalType": "uint256",
          "name": "quoteAmount",
          "type": "uint256"
        }
      ],
      "name": "calculateBaseTokenReceived",
      "outputs": [
        {
          "internalType": "uint256",
          "name": "totalBase",
          "type": "uint256"
        }
      ],
      "stateMutability": "view",
      "type": "function"
    },
    {
      "inputs": [
        {
          "internalType": "contract IERC20",
          "name": "baseToken",
          "type": "address"
        },
        {
          "internalType": "contract IERC20",
          "name": "quoteToken",
          "type": "address"
        },
        {
          "internalType": "uint256",
          "name": "desiredAmount",
          "type": "uint256"
        }
      ],
      "name": "calculateTotalCost",
      "outputs": [
        {
          "internalType": "uint256",
          "name": "totalCost",
          "type": "uint256"
        }
      ],
      "stateMutability": "view",
      "type": "function"
    },
    {
      "inputs": [
        {
          "internalType": "contract IERC20",
          "name": "baseToken",
          "type": "address"
        },
        {
          "internalType": "contract IERC20",
          "name": "quoteToken",
          "type": "address"
        }
      ],
      "name": "getBidAsk",
      "outputs": [
        {
          "internalType": "uint256",
          "name": "bid",
          "type": "uint256"
        },
        {
          "internalType": "uint256",
          "name": "ask",
          "type": "uint256"
        }
      ],
      "stateMutability": "view",
      "type": "function"
    },
    {
      "inputs": [
        {
          "internalType": "contract IERC20",
          "name": "baseToken",
          "type": "address"
        },
        {
          "internalType": "contract IERC20",
          "name": "quoteToken",
          "type": "address"
        },
        {
          "internalType": "uint256",
          "name": "maxPrice",
          "type": "uint256"
        }
      ],
      "name": "getDepth",
      "outputs": [
        {
          "internalType": "uint256",
          "name": "depth",
          "type": "uint256"
        }
      ],
      "stateMutability": "view",
      "type": "function"
    },
    {
      "inputs": [],
      "name": "liquidityManager",
      "outputs": [
        {
          "internalType": "contract ILiquidityManager",
          "name": "",
          "type": "address"
        }
      ],
      "stateMutability": "view",
      "type": "function"
    },
    {
      "inputs": [],
      "name": "liquidityRamp",
      "outputs": [
        {
          "internalType": "contract ILiquidityRamp",
          "name": "",
          "type": "address"
        }
      ],
      "stateMutability": "view",
      "type": "function"
    },
    {
      "inputs": [],
      "name": "poolManager",
      "outputs": [
        {
          "internalType": "contract IPoolManager",
          "name": "",
          "type": "address"
        }
      ],
      "stateMutability": "view",
      "type": "function"
    },
    {
      "inputs": [
        {
          "internalType": "contract IERC20",
          "name": "tokenA",
          "type": "address"
        },
        {
          "internalType": "contract IERC20",
          "name": "tokenB",
          "type": "address"
        },
        {
          "internalType": "uint256",
          "name": "desiredAmountTokenA",
          "type": "uint256"
        },
        {
          "internalType": "uint256",
          "name": "desiredAmountTokenB",
          "type": "uint256"
        },
        {
          "internalType": "uint256",
          "name": "lpTokenQty",
          "type": "uint256"
        },
        {
          "internalType": "address",
          "name": "recipient",
          "type": "address"
        },
        {
          "internalType": "uint256",
          "name": "deadline",
          "type": "uint256"
        },
        {
          "internalType": "uint256",
          "name": "acceptedSlippage",
          "type": "uint256"
        }
      ],
      "name": "redeemLiquidity",
      "outputs": [
        {
          "internalType": "uint256",
          "name": "",
          "type": "uint256"
        }
      ],
      "stateMutability": "nonpayable",
      "type": "function"
    },
    {
      "inputs": [],
      "name": "swapManager",
      "outputs": [
        {
          "internalType": "contract ISwapManager",
          "name": "",
          "type": "address"
        }
      ],
      "stateMutability": "view",
      "type": "function"
    }
  ],
  "bytecode": {
    "object": "0x6101006040523480156200001257600080fd5b506040516200358538038062003585833981016040819052620000359162000071565b6001600160a01b0393841660805291831660a052821660c0521660e052620000d9565b6001600160a01b03811681146200006e57600080fd5b50565b600080600080608085870312156200008857600080fd5b8451620000958162000058565b6020860151909450620000a88162000058565b6040860151909350620000bb8162000058565b6060860151909250620000ce8162000058565b939692955090935050565b60805160a05160c05160e05161333e6200024760003960008181610101015281816102560152818161030701528181610bbb01528181610c3901528181610e4401528181610ec2015281816112460152818161127b015281816114f10152818161156f015281816117d80152818161187c0152818161195201528181611c8401528181611cf501528181611f83015281816120dc0152818161214d015281816123040152818161265d0152818161277a0152818161282001526128b3015260008181610140015281816107100152818161076801526112fe01526000818161016701528181610922015281816109d001528181610aea01528181610d93015281816114410152818161174f015281816119d10152611a530152600081816101ed015281816104210152818161068b0152818161087b01528181610a5701528181610d000152818161108601528181611198015281816113ae015281816116850152611bf4015261333e6000f3fe608060405234801561001057600080fd5b50600436106100a95760003560e01c80638924d15c116100715780638924d15c146101895780639f5fe72b1461019c578063a6b57fc8146101af578063ba9f20b8146101c2578063db9c3033146101d5578063dc4c90d3146101e857600080fd5b806309aa45a0146100ae5780633118b3c8146100db57806333827438146100fc5780634dfd324e1461013b578063709d039d14610162575b600080fd5b6100c16100bc366004612ca2565b61020f565b604080519283526020830191909152015b60405180910390f35b6100ee6100e9366004612d09565b6103ba565b6040519081526020016100d2565b6101237f000000000000000000000000000000000000000000000000000000000000000081565b6040516001600160a01b0390911681526020016100d2565b6101237f000000000000000000000000000000000000000000000000000000000000000081565b6101237f000000000000000000000000000000000000000000000000000000000000000081565b6100c1610197366004612d83565b610874565b6100ee6101aa366004612dbc565b610a52565b6100ee6101bd366004612dbc565b610cfb565b6100c16101d0366004612dfd565b610fbb565b6100ee6101e3366004612dbc565b6113a9565b6101237f000000000000000000000000000000000000000000000000000000000000000081565b6000808280421115610234576040516301f72c9960e21b815260040160405180910390fd5b604051632c8a04fd60e11b81526001600160a01b038a811660048301526000917f00000000000000000000000000000000000000000000000000000000000000009091169063591409fa90602401602060405180830381865afa15801561029f573d6000803e3d6000fd5b505050506040513d601f19601f820116820180604052508101906102c39190612e6f565b90506102cf8882611664565b97506102e5886102e08c8c8b610a52565b611664565b6040516333f22e7960e11b81526001600160a01b038b811660048301529199507f0000000000000000000000000000000000000000000000000000000000000000909116906367e45cf290602401602060405180830381865afa158015610350573d6000803e3d6000fd5b505050506040513d601f19601f820116820180604052508101906103749190612e6f565b905060006103838b8b8b6113a9565b90508082101561039b576103988b8b84610cfb565b98505b6103a88b8b8b8b8b61167e565b94509450505050965096945050505050565b600082804211156103de576040516301f72c9960e21b815260040160405180910390fd5b670de0b6b3a7640000831115610407576040516324c28bb960e21b815260040160405180910390fd5b604051638ae93f0b60e01b81526000906001600160a01b037f00000000000000000000000000000000000000000000000000000000000000001690638ae93f0b90610458908e908e90600401612e88565b602060405180830381865afa158015610475573d6000803e3d6000fd5b505050506040513d601f19601f820116820180604052508101906104999190612e6f565b9050806000036104bc57604051630252bcf960e11b815260040160405180910390fd5b6104ed6040518060400160405280601081526020016f0a72656465656d4c697175696469747960801b815250611af6565b61058a6040518060400160405280601581526020017464657369726564416d6f756e745b25735d3a20256960581b8152508c6001600160a01b03166395d89b416040518163ffffffff1660e01b8152600401600060405180830381865afa15801561055c573d6000803e3d6000fd5b505050506040513d6000823e601f3d908101601f191682016040526105849190810190612edc565b8b611b3c565b6106276040518060400160405280601581526020017464657369726564416d6f756e745b25735d3a20256960581b8152508b6001600160a01b03166395d89b416040518163ffffffff1660e01b8152600401600060405180830381865afa1580156105f9573d6000803e3d6000fd5b505050506040513d6000823e601f3d908101601f191682016040526106219190810190612edc565b8a611b3c565b6106576040518060400160405280600e81526020016d6c70546f6b656e5174793a20256960901b81525088611b88565b6000610664828d8d611bd1565b905087811015610672578097505b6040516306ed78b760e21b8152600481018390526000907f00000000000000000000000000000000000000000000000000000000000000006001600160a01b031690631bb5e2dc90602401602060405180830381865afa1580156106da573d6000803e3d6000fd5b505050506040513d601f19601f820116820180604052508101906106fe9190612f7e565b90506107356001600160a01b038216337f00000000000000000000000000000000000000000000000000000000000000008c61240e565b60405163e5f415c960e01b81526001600160a01b038281166004830152602482018b9052898116604483015260009182917f0000000000000000000000000000000000000000000000000000000000000000169063e5f415c99060640160408051808303816000875af11580156107b0573d6000803e3d6000fd5b505050506040513d601f19601f820116820180604052508101906107d49190612f9b565b91509150826001600160a01b031663c451463b6040518163ffffffff1660e01b8152600401602060405180830381865afa158015610816573d6000803e3d6000fd5b505050506040513d601f19601f8201168201806040525081019061083a9190612f7e565b6001600160a01b03168f6001600160a01b03160361085457905b6108618d8d84848c61246e565b50989d9c50505050505050505050505050565b60008060007f00000000000000000000000000000000000000000000000000000000000000006001600160a01b0316638ae93f0b86866040518363ffffffff1660e01b81526004016108c7929190612e88565b602060405180830381865afa1580156108e4573d6000803e3d6000fd5b505050506040513d601f19601f820116820180604052508101906109089190612e6f565b6040516303f40b6b60e61b81529091506001600160a01b037f0000000000000000000000000000000000000000000000000000000000000000169063fd02dac0906109599084908890600401612fbf565b602060405180830381865afa158015610976573d6000803e3d6000fd5b505050506040513d601f19601f8201168201806040525081019061099a9190612e6f565b6109ac670de0b6b3a764000080612fec565b6109b69190613003565b6040516303f40b6b60e61b81529093506001600160a01b037f0000000000000000000000000000000000000000000000000000000000000000169063fd02dac090610a079084908990600401612fbf565b602060405180830381865afa158015610a24573d6000803e3d6000fd5b505050506040513d601f19601f82011682018060405250810190610a489190612e6f565b9150509250929050565b6000807f00000000000000000000000000000000000000000000000000000000000000006001600160a01b0316638ae93f0b86866040518363ffffffff1660e01b8152600401610aa3929190612e88565b602060405180830381865afa158015610ac0573d6000803e3d6000fd5b505050506040513d601f19601f82011682018060405250810190610ae49190612e6f565b905060007f00000000000000000000000000000000000000000000000000000000000000006001600160a01b031663fd02dac083886040518363ffffffff1660e01b8152600401610b36929190612fbf565b602060405180830381865afa158015610b53573d6000803e3d6000fd5b505050506040513d601f19601f82011682018060405250810190610b779190612e6f565b905083811115610b9a57604051633eed426760e11b815260040160405180910390fd5b838111610cf157604051635496696b60e01b81526000906001600160a01b037f00000000000000000000000000000000000000000000000000000000000000001690635496696b90610bf29086908b90600401612fbf565b602060405180830381865afa158015610c0f573d6000803e3d6000fd5b505050506040513d601f19601f82011682018060405250810190610c339190612e6f565b905060007f00000000000000000000000000000000000000000000000000000000000000006001600160a01b0316635496696b85896040518363ffffffff1660e01b8152600401610c85929190612fbf565b602060405180830381865afa158015610ca2573d6000803e3d6000fd5b505050506040513d601f19601f82011682018060405250810190610cc69190612e6f565b9050610cd3828285612530565b610cdd9086613025565b9450610ce88361259f565b92505050610b9a565b50505b9392505050565b6000807f00000000000000000000000000000000000000000000000000000000000000006001600160a01b0316638ae93f0b86866040518363ffffffff1660e01b8152600401610d4c929190612e88565b602060405180830381865afa158015610d69573d6000803e3d6000fd5b505050506040513d601f19601f82011682018060405250810190610d8d9190612e6f565b905060007f00000000000000000000000000000000000000000000000000000000000000006001600160a01b031663fd02dac083886040518363ffffffff1660e01b8152600401610ddf929190612fbf565b602060405180830381865afa158015610dfc573d6000803e3d6000fd5b505050506040513d601f19601f82011682018060405250810190610e209190612e6f565b90505b808410610cf157604051635496696b60e01b81526000906001600160a01b037f00000000000000000000000000000000000000000000000000000000000000001690635496696b90610e7b9086908b90600401612fbf565b602060405180830381865afa158015610e98573d6000803e3d6000fd5b505050506040513d601f19601f82011682018060405250810190610ebc9190612e6f565b905060007f00000000000000000000000000000000000000000000000000000000000000006001600160a01b0316635496696b85896040518363ffffffff1660e01b8152600401610f0e929190612fbf565b602060405180830381865afa158015610f2b573d6000803e3d6000fd5b505050506040513d601f19601f82011682018060405250810190610f4f9190612e6f565b90506000610f5e838386612530565b90506000610f838286610f79670de0b6b3a76400008c612fec565b6102e09190613003565b9050610f8f8188613025565b9650610f9b8582612fec565b610fa59089613038565b9750610fb08561259f565b945050505050610e23565b6000808280421115610fe0576040516301f72c9960e21b815260040160405180910390fd5b611016604051806040016040528060158152602001740a444558323a3a6164644c6971756964697479282960581b815250611af6565b6110376040518060800160405280605c8152602001613121605c9139611af6565b6110438a8a8a8a6125cf565b809850819950505061106c6040518060600160405280603181526020016132d860319139611af6565b604051638ae93f0b60e01b81526000906001600160a01b037f00000000000000000000000000000000000000000000000000000000000000001690638ae93f0b906110bd908e908e90600401612e88565b602060405180830381865afa1580156110da573d6000803e3d6000fd5b505050506040513d601f19601f820116820180604052508101906110fe9190612e6f565b90506111216040518060600160405280602e8152602001613221602e9139611af6565b80156111605761114860405180608001604052806056815260200161317d60569139611af6565b6111568b8b8b8b8b86612819565b9099509750611215565b6111816040518060600160405280602681526020016131d360269139611af6565b60405163e343361560e01b81526001600160a01b037f0000000000000000000000000000000000000000000000000000000000000000169063e3433615906111cf908e908e90600401612e88565b6020604051808303816000875af11580156111ee573d6000803e3d6000fd5b505050506040513d601f19601f820116820180604052508101906112129190612e6f565b90505b61123660405180608001604052806043815260200161329560439139611af6565b61126b6001600160a01b038c16337f00000000000000000000000000000000000000000000000000000000000000008c61240e565b6112a06001600160a01b038b16337f00000000000000000000000000000000000000000000000000000000000000008b61240e565b6112c160405180608001604052806046815260200161324f60469139611af6565b604051634b2fc7bb60e01b81526001600160a01b038c811660048301528b81166024830152604482018b9052606482018a905287811660848301527f00000000000000000000000000000000000000000000000000000000000000001690634b2fc7bb9060a401600060405180830381600087803b15801561134257600080fd5b505af1158015611356573d6000803e3d6000fd5b505050506113986040518060400160405280601981526020017f72657475726e2028616d6f756e74412c20616d6f756e74422900000000000000815250611af6565b509699959850949650505050505050565b6000807f00000000000000000000000000000000000000000000000000000000000000006001600160a01b0316638ae93f0b86866040518363ffffffff1660e01b81526004016113fa929190612e88565b602060405180830381865afa158015611417573d6000803e3d6000fd5b505050506040513d601f19601f8201168201806040525081019061143b9190612e6f565b905060007f00000000000000000000000000000000000000000000000000000000000000006001600160a01b031663fd02dac083886040518363ffffffff1660e01b815260040161148d929190612fbf565b602060405180830381865afa1580156114aa573d6000803e3d6000fd5b505050506040513d601f19601f820116820180604052508101906114ce9190612e6f565b90505b8315610cf157604051635496696b60e01b81526000906001600160a01b037f00000000000000000000000000000000000000000000000000000000000000001690635496696b906115289086908b90600401612fbf565b602060405180830381865afa158015611545573d6000803e3d6000fd5b505050506040513d601f19601f820116820180604052508101906115699190612e6f565b905060007f00000000000000000000000000000000000000000000000000000000000000006001600160a01b0316635496696b85896040518363ffffffff1660e01b81526004016115bb929190612fbf565b602060405180830381865afa1580156115d8573d6000803e3d6000fd5b505050506040513d601f19601f820116820180604052508101906115fc9190612e6f565b9050600061160b838386612530565b905060006116198289611664565b9050670de0b6b3a764000061162e8683612fec565b6116389190613003565b6116429088613025565b965061164e8189613038565b97506116598561259f565b9450505050506114d1565b60008183106116735781611675565b825b90505b92915050565b60008060007f00000000000000000000000000000000000000000000000000000000000000006001600160a01b0316638ae93f0b89896040518363ffffffff1660e01b81526004016116d1929190612e88565b602060405180830381865afa1580156116ee573d6000803e3d6000fd5b505050506040513d601f19601f820116820180604052508101906117129190612e6f565b90508060000361173557604051630252bcf960e11b815260040160405180910390fd5b6040516303f40b6b60e61b81526000906001600160a01b037f0000000000000000000000000000000000000000000000000000000000000000169063fd02dac0906117869085908d90600401612fbf565b602060405180830381865afa1580156117a3573d6000803e3d6000fd5b505050506040513d601f19601f820116820180604052508101906117c79190612e6f565b90505b858111611aea5760006118fa7f00000000000000000000000000000000000000000000000000000000000000006001600160a01b0316635496696b858d6040518363ffffffff1660e01b8152600401611824929190612fbf565b602060405180830381865afa158015611841573d6000803e3d6000fd5b505050506040513d601f19601f820116820180604052508101906118659190612e6f565b604051635496696b60e01b81526001600160a01b037f00000000000000000000000000000000000000000000000000000000000000001690635496696b906118b39088908f90600401612fbf565b602060405180830381865afa1580156118d0573d6000803e3d6000fd5b505050506040513d601f19601f820116820180604052508101906118f49190612e6f565b84612530565b905060006119088983611664565b90506000670de0b6b3a76400006001816119228786612fec565b61192c9190613025565b6119369190613038565b6119409190613003565b90506119776001600160a01b038c16337f00000000000000000000000000000000000000000000000000000000000000008461240e565b611981828b613038565b995061198d8188613025565b96506119998287613025565b60405163038042df60e51b8152600481018790526001600160a01b038a811660248301528d81166044830152606482018490529197507f0000000000000000000000000000000000000000000000000000000000000000909116906370085be0906084016020604051808303816000875af1158015611a1c573d6000803e3d6000fd5b505050506040513d601f19601f82011682018060405250810190611a409190612e6f565b5089600003611a5157505050611aea565b7f00000000000000000000000000000000000000000000000000000000000000006001600160a01b031663fd02dac0868e6040518363ffffffff1660e01b8152600401611a9f929190612fbf565b602060405180830381865afa158015611abc573d6000803e3d6000fd5b505050506040513d601f19601f82011682018060405250810190611ae09190612e6f565b93505050506117ca565b50509550959350505050565b611b3981604051602401611b0a9190613077565b60408051601f198184030181529190526020810180516001600160e01b031663104c13eb60e21b179052612a6f565b50565b611b83838383604051602401611b549392919061308a565b60408051601f198184030181529190526020810180516001600160e01b031663f362ca5960e01b179052612a6f565b505050565b611bcd8282604051602401611b9e9291906130c0565b60408051601f198184030181529190526020810180516001600160e01b03166309710a9d60e41b179052612a6f565b5050565b6040516306ed78b760e21b81526004810184905260009081906001600160a01b037f00000000000000000000000000000000000000000000000000000000000000001690631bb5e2dc90602401602060405180830381865afa158015611c3b573d6000803e3d6000fd5b505050506040513d601f19601f82011682018060405250810190611c5f9190612f7e565b604051632c8a04fd60e11b81526001600160a01b0386811660048301529192506000917f0000000000000000000000000000000000000000000000000000000000000000169063591409fa90602401602060405180830381865afa158015611ccb573d6000803e3d6000fd5b505050506040513d601f19601f82011682018060405250810190611cef9190612e6f565b905060007f00000000000000000000000000000000000000000000000000000000000000006001600160a01b0316635496696b88886040518363ffffffff1660e01b8152600401611d41929190612fbf565b602060405180830381865afa158015611d5e573d6000803e3d6000fd5b505050506040513d601f19601f82011682018060405250810190611d829190612e6f565b836001600160a01b03166318160ddd6040518163ffffffff1660e01b8152600401602060405180830381865afa158015611dc0573d6000803e3d6000fd5b505050506040513d601f19601f82011682018060405250810190611de49190612e6f565b611dee9084612fec565b611df89190613003565b9050611e31604051806040016040528060168152602001750a5f63616c63756c6174654d61784c70546f6b656e7360501b815250611af6565b611ed16040518060400160405280601781526020017f6c70546f6b656e2e746f74616c537570706c793a202569000000000000000000815250846001600160a01b03166318160ddd6040518163ffffffff1660e01b8152600401602060405180830381865afa158015611ea8573d6000803e3d6000fd5b505050506040513d601f19601f82011682018060405250810190611ecc9190612e6f565b611b88565b61200060405180604001604052806019815260200178706f6f6c546f6b656e42616c616e6365735b25735d3a20256960381b815250876001600160a01b03166395d89b416040518163ffffffff1660e01b8152600401600060405180830381865afa158015611f44573d6000803e3d6000fd5b505050506040513d6000823e601f3d908101601f19168201604052611f6c9190810190612edc565b604051635496696b60e01b81526001600160a01b037f00000000000000000000000000000000000000000000000000000000000000001690635496696b90611fba908d908d90600401612fbf565b602060405180830381865afa158015611fd7573d6000803e3d6000fd5b505050506040513d601f19601f82011682018060405250810190611ffb9190612e6f565b611b3c565b6120886040518060600160405280602881526020016131f960289139876001600160a01b03166395d89b416040518163ffffffff1660e01b8152600401600060405180830381865afa15801561205a573d6000803e3d6000fd5b505050506040513d6000823e601f3d908101601f191682016040526120829190810190612edc565b84611b3c565b6120bd604051806040016040528060138152602001726d61784c70546f6b656e73466f72413a20256960681b81525082611b88565b604051632c8a04fd60e11b81526001600160a01b0386811660048301527f0000000000000000000000000000000000000000000000000000000000000000169063591409fa90602401602060405180830381865afa158015612123573d6000803e3d6000fd5b505050506040513d601f19601f820116820180604052508101906121479190612e6f565b915060007f00000000000000000000000000000000000000000000000000000000000000006001600160a01b0316635496696b89886040518363ffffffff1660e01b8152600401612199929190612fbf565b602060405180830381865afa1580156121b6573d6000803e3d6000fd5b505050506040513d601f19601f820116820180604052508101906121da9190612e6f565b846001600160a01b03166318160ddd6040518163ffffffff1660e01b8152600401602060405180830381865afa158015612218573d6000803e3d6000fd5b505050506040513d601f19601f8201168201806040525081019061223c9190612e6f565b6122469085612fec565b6122509190613003565b905061233b60405180604001604052806019815260200178706f6f6c546f6b656e42616c616e6365735b25735d3a20256960381b815250876001600160a01b03166395d89b416040518163ffffffff1660e01b8152600401600060405180830381865afa1580156122c5573d6000803e3d6000fd5b505050506040513d6000823e601f3d908101601f191682016040526122ed9190810190612edc565b604051635496696b60e01b81526001600160a01b037f00000000000000000000000000000000000000000000000000000000000000001690635496696b90611fba908e908d90600401612fbf565b6123c36040518060600160405280602881526020016131f960289139876001600160a01b03166395d89b416040518163ffffffff1660e01b8152600401600060405180830381865afa158015612395573d6000803e3d6000fd5b505050506040513d6000823e601f3d908101601f191682016040526123bd9190810190612edc565b85611b3c565b6123f8604051806040016040528060138152602001726d61784c70546f6b656e73466f72423a20256960681b81525082611b88565b6124028282611664565b98975050505050505050565b604080516001600160a01b0385811660248301528416604482015260648082018490528251808303909101815260849091019091526020810180516001600160e01b03166323b872dd60e01b179052612468908590612a90565b50505050565b600084612483670de0b6b3a764000088612fec565b61248d9190613003565b90506000836124a4670de0b6b3a764000087612fec565b6124ae9190613003565b9050670de0b6b3a76400006124c38482613025565b6124cd9084612fec565b6124d79190613003565b8111806125095750670de0b6b3a76400006124f28482613038565b6124fc9084612fec565b6125069190613003565b81105b1561252757604051633a2ed5fb60e01b815260040160405180910390fd5b50505050505050565b600061253c8483612fec565b61254e84670de0b6b3a7640000612fec565b1061255b57506000610cf4565b612566826002612fec565b612578670de0b6b3a764000085612fec565b6125829190613003565b61258d600286613003565b6125979190613038565b949350505050565b6000670de0b6b3a76400006125bb6611c37937e0800082613025565b6125c59084612fec565b6116789190613003565b6040516309ab24eb60e41b81526000600482018190529081906001600160a01b03871690639ab24eb090602401602060405180830381865afa925050508015612635575060408051601f3d908101601f1916820190925261263291810190612e6f565b60015b156126f157506040516333f22e7960e11b81526001600160a01b0387811660048301526000917f0000000000000000000000000000000000000000000000000000000000000000909116906367e45cf290602401602060405180830381865afa1580156126a6573d6000803e3d6000fd5b505050506040513d601f19601f820116820180604052508101906126ca9190612e6f565b9050808511156126ef57846126df8286612fec565b6126e99190613003565b93508094505b505b6040516309ab24eb60e41b8152600060048201526001600160a01b03861690639ab24eb090602401602060405180830381865afa925050508015612752575060408051601f3d908101601f1916820190925261274f91810190612e6f565b60015b1561280e57506040516333f22e7960e11b81526001600160a01b0386811660048301526000917f0000000000000000000000000000000000000000000000000000000000000000909116906367e45cf290602401602060405180830381865afa1580156127c3573d6000803e3d6000fd5b505050506040513d601f19601f820116820180604052508101906127e79190612e6f565b90508084111561280c57836127fc8287612fec565b6128069190613003565b94508093505b505b509194909350915050565b60008060007f00000000000000000000000000000000000000000000000000000000000000006001600160a01b0316635496696b858b6040518363ffffffff1660e01b815260040161286c929190612fbf565b602060405180830381865afa158015612889573d6000803e3d6000fd5b505050506040513d601f19601f820116820180604052508101906128ad9190612e6f565b905060007f00000000000000000000000000000000000000000000000000000000000000006001600160a01b0316635496696b868b6040518363ffffffff1660e01b81526004016128ff929190612fbf565b602060405180830381865afa15801561291c573d6000803e3d6000fd5b505050506040513d601f19601f820116820180604052508101906129409190612e6f565b90506000821180156129525750600081115b15612a5f5760008161296c670de0b6b3a764000085612fec565b6129769190613003565b905060008861298d670de0b6b3a76400008c612fec565b6129979190613003565b9050670de0b6b3a76400006129ac8982613025565b6129b69084612fec565b6129c09190613003565b8111806129f25750670de0b6b3a76400006129db8982613038565b6129e59084612fec565b6129ef9190613003565b81105b15612a1057604051633a2ed5fb60e01b815260040160405180910390fd5b81811115612a3c57670de0b6b3a7640000612a2b838b612fec565b612a359190613003565b9950612a5c565b81612a4f670de0b6b3a76400008c612fec565b612a599190613003565b98505b50505b5095989497509395505050505050565b80516a636f6e736f6c652e6c6f67602083016000808483855afa5050505050565b6000612ae5826040518060400160405280602081526020017f5361666545524332303a206c6f772d6c6576656c2063616c6c206661696c6564815250856001600160a01b0316612b6a9092919063ffffffff16565b9050805160001480612b06575080806020019051810190612b0691906130e2565b611b835760405162461bcd60e51b815260206004820152602a60248201527f5361666545524332303a204552433230206f7065726174696f6e20646964206e6044820152691bdd081cdd58d8d9595960b21b60648201526084015b60405180910390fd5b6060612597848460008585600080866001600160a01b03168587604051612b919190613104565b60006040518083038185875af1925050503d8060008114612bce576040519150601f19603f3d011682016040523d82523d6000602084013e612bd3565b606091505b5091509150612be487838387612bef565b979650505050505050565b60608315612c5e578251600003612c57576001600160a01b0385163b612c575760405162461bcd60e51b815260206004820152601d60248201527f416464726573733a2063616c6c20746f206e6f6e2d636f6e74726163740000006044820152606401612b61565b5081612597565b6125978383815115612c735781518083602001fd5b8060405162461bcd60e51b8152600401612b619190613077565b6001600160a01b0381168114611b3957600080fd5b60008060008060008060c08789031215612cbb57600080fd5b8635612cc681612c8d565b95506020870135612cd681612c8d565b945060408701359350606087013592506080870135612cf481612c8d565b8092505060a087013590509295509295509295565b600080600080600080600080610100898b031215612d2657600080fd5b8835612d3181612c8d565b97506020890135612d4181612c8d565b965060408901359550606089013594506080890135935060a0890135612d6681612c8d565b979a969950949793969295929450505060c08201359160e0013590565b60008060408385031215612d9657600080fd5b8235612da181612c8d565b91506020830135612db181612c8d565b809150509250929050565b600080600060608486031215612dd157600080fd5b8335612ddc81612c8d565b92506020840135612dec81612c8d565b929592945050506040919091013590565b600080600080600080600060e0888a031215612e1857600080fd5b8735612e2381612c8d565b96506020880135612e3381612c8d565b955060408801359450606088013593506080880135925060a0880135612e5881612c8d565b8092505060c0880135905092959891949750929550565b600060208284031215612e8157600080fd5b5051919050565b6001600160a01b0392831681529116602082015260400190565b634e487b7160e01b600052604160045260246000fd5b60005b83811015612ed3578181015183820152602001612ebb565b50506000910152565b600060208284031215612eee57600080fd5b815167ffffffffffffffff80821115612f0657600080fd5b818401915084601f830112612f1a57600080fd5b815181811115612f2c57612f2c612ea2565b604051601f8201601f19908116603f01168101908382118183101715612f5457612f54612ea2565b81604052828152876020848701011115612f6d57600080fd5b612be4836020830160208801612eb8565b600060208284031215612f9057600080fd5b8151610cf481612c8d565b60008060408385031215612fae57600080fd5b505080516020909101519092909150565b9182526001600160a01b0316602082015260400190565b634e487b7160e01b600052601160045260246000fd5b808202811582820484141761167857611678612fd6565b60008261302057634e487b7160e01b600052601260045260246000fd5b500490565b8082018082111561167857611678612fd6565b8181038181111561167857611678612fd6565b60008151808452613063816020860160208601612eb8565b601f01601f19169290920160200192915050565b602081526000611675602083018461304b565b60608152600061309d606083018661304b565b82810360208401526130af818661304b565b915050826040830152949350505050565b6040815260006130d3604083018561304b565b90508260208301529392505050565b6000602082840312156130f457600080fd5b81518015158114610cf457600080fd5b60008251613116818460208701612eb8565b919091019291505056fe41646a75737420616d6f756e744120616e6420616d6f756e744220746f206e6f74206578636565642074686569722072657370656374697665206c696d697473207768696c65206d61696e7461696e696e672074686520726174696f5f61646a757374416d6f756e7473466f72536c69707061676528746f6b656e412c20746f6b656e422c20616d6f756e74412c20616d6f756e74422c206163636570746564536c6970706167652c20706f6f6c49647829706f6f6c4d616e616765722e637265617465506f6f6c28746f6b656e412c20746f6b656e422973696e676c655472616e73616374696f6e5769746864726177616c4c696d69745b25735d3a202569436865636b20616e642061646a75737420616d6f756e747320666f7220616363657074656420736c6970706167656c697175696469747952616d702e6164644c697175696469747928746f6b656e412c20746f6b656e422c20616d6f756e74412c20616d6f756e74422c2070726f7669646572295472616e7366657220746f6b656e73206469726563746c7920746f20746865206c6971756964697479206d616e6167657220616e6420616464206c697175696469747946696e64206f72206372656174652074686520706f6f6c20696e4445583220666f722074686520746f6b656e2070616972a26469706673582212204a742cbeed3d1bad0b56a4c23a3fa42362c3fdd278d3656100bd6c6ba15fcd6b64736f6c63430008130033",
    "linkReferences": {}
  },
  "methodIdentifiers": {
    "addLiquidity(address,address,uint256,uint256,uint256,address,uint256)": "ba9f20b8",
    "buy(address,address,uint256,uint256,address,uint256)": "09aa45a0",
    "calculateBaseTokenReceived(address,address,uint256)": "a6b57fc8",
    "calculateTotalCost(address,address,uint256)": "db9c3033",
    "getBidAsk(address,address)": "8924d15c",
    "getDepth(address,address,uint256)": "9f5fe72b",
    "liquidityManager()": "33827438",
    "liquidityRamp()": "4dfd324e",
    "poolManager()": "dc4c90d3",
    "redeemLiquidity(address,address,uint256,uint256,uint256,address,uint256,uint256)": "3118b3c8",
    "swapManager()": "709d039d"
  },
  "id": 67
}