{
  "abi": [
    {
      "inputs": [
        {
          "internalType": "address",
          "name": "_poolTemplate",
          "type": "address"
        },
        {
          "internalType": "address",
          "name": "_tokenManagerTemplate",
          "type": "address"
        },
        {
          "internalType": "address",
          "name": "_clusterTemplate",
          "type": "address"
        }
      ],
      "stateMutability": "nonpayable",
      "type": "constructor"
    },
    {
      "inputs": [],
      "name": "Factory__IdenticalAddresses",
      "type": "error"
    },
    {
      "inputs": [],
      "name": "Factory__OverAllocation",
      "type": "error"
    },
    {
      "inputs": [],
      "name": "Factory__PoolExists",
      "type": "error"
    },
    {
      "inputs": [],
      "name": "Factory__PoolNotFound",
      "type": "error"
    },
    {
      "inputs": [],
      "name": "Factory__ZeroAddress",
      "type": "error"
    },
    {
      "anonymous": false,
      "inputs": [
        {
          "indexed": true,
          "internalType": "address",
          "name": "previousOwner",
          "type": "address"
        },
        {
          "indexed": true,
          "internalType": "address",
          "name": "newOwner",
          "type": "address"
        }
      ],
      "name": "OwnershipTransferred",
      "type": "event"
    },
    {
      "anonymous": false,
      "inputs": [
        {
          "indexed": true,
          "internalType": "contract IERC20",
          "name": "thisToken",
          "type": "address"
        },
        {
          "indexed": true,
          "internalType": "contract IERC20",
          "name": "thatToken",
          "type": "address"
        },
        {
          "indexed": false,
          "internalType": "contract IPool",
          "name": "pool",
          "type": "address"
        }
      ],
      "name": "PoolCreated",
      "type": "event"
    },
    {
      "anonymous": false,
      "inputs": [
        {
          "indexed": true,
          "internalType": "bytes32",
          "name": "role",
          "type": "bytes32"
        },
        {
          "indexed": true,
          "internalType": "bytes32",
          "name": "previousAdminRole",
          "type": "bytes32"
        },
        {
          "indexed": true,
          "internalType": "bytes32",
          "name": "newAdminRole",
          "type": "bytes32"
        }
      ],
      "name": "RoleAdminChanged",
      "type": "event"
    },
    {
      "anonymous": false,
      "inputs": [
        {
          "indexed": true,
          "internalType": "bytes32",
          "name": "role",
          "type": "bytes32"
        },
        {
          "indexed": true,
          "internalType": "address",
          "name": "account",
          "type": "address"
        },
        {
          "indexed": true,
          "internalType": "address",
          "name": "sender",
          "type": "address"
        }
      ],
      "name": "RoleGranted",
      "type": "event"
    },
    {
      "anonymous": false,
      "inputs": [
        {
          "indexed": true,
          "internalType": "bytes32",
          "name": "role",
          "type": "bytes32"
        },
        {
          "indexed": true,
          "internalType": "address",
          "name": "account",
          "type": "address"
        },
        {
          "indexed": true,
          "internalType": "address",
          "name": "sender",
          "type": "address"
        }
      ],
      "name": "RoleRevoked",
      "type": "event"
    },
    {
      "inputs": [],
      "name": "DEFAULT_ADMIN_ROLE",
      "outputs": [
        {
          "internalType": "bytes32",
          "name": "",
          "type": "bytes32"
        }
      ],
      "stateMutability": "view",
      "type": "function"
    },
    {
      "inputs": [],
      "name": "PRIVILEGED_ROLE",
      "outputs": [
        {
          "internalType": "bytes32",
          "name": "",
          "type": "bytes32"
        }
      ],
      "stateMutability": "view",
      "type": "function"
    },
    {
      "inputs": [
        {
          "internalType": "uint256",
          "name": "",
          "type": "uint256"
        }
      ],
      "name": "allPools",
      "outputs": [
        {
          "internalType": "contract IPool",
          "name": "",
          "type": "address"
        }
      ],
      "stateMutability": "view",
      "type": "function"
    },
    {
      "inputs": [],
      "name": "clusterTemplate",
      "outputs": [
        {
          "internalType": "address",
          "name": "",
          "type": "address"
        }
      ],
      "stateMutability": "view",
      "type": "function"
    },
    {
      "inputs": [
        {
          "internalType": "contract IERC20",
          "name": "thisToken",
          "type": "address"
        },
        {
          "internalType": "contract IERC20",
          "name": "thatToken",
          "type": "address"
        }
      ],
      "name": "createPool",
      "outputs": [
        {
          "internalType": "contract IPool",
          "name": "pool",
          "type": "address"
        }
      ],
      "stateMutability": "nonpayable",
      "type": "function"
    },
    {
      "inputs": [],
      "name": "developmentFundAddress",
      "outputs": [
        {
          "internalType": "address",
          "name": "",
          "type": "address"
        }
      ],
      "stateMutability": "view",
      "type": "function"
    },
    {
      "inputs": [],
      "name": "getAllPools",
      "outputs": [
        {
          "internalType": "contract IPool[]",
          "name": "",
          "type": "address[]"
        }
      ],
      "stateMutability": "view",
      "type": "function"
    },
    {
      "inputs": [
        {
          "internalType": "contract IERC20",
          "name": "",
          "type": "address"
        },
        {
          "internalType": "contract IERC20",
          "name": "",
          "type": "address"
        }
      ],
      "name": "getPool",
      "outputs": [
        {
          "internalType": "contract IPool",
          "name": "",
          "type": "address"
        }
      ],
      "stateMutability": "view",
      "type": "function"
    },
    {
      "inputs": [
        {
          "internalType": "bytes32",
          "name": "role",
          "type": "bytes32"
        }
      ],
      "name": "getRoleAdmin",
      "outputs": [
        {
          "internalType": "bytes32",
          "name": "",
          "type": "bytes32"
        }
      ],
      "stateMutability": "view",
      "type": "function"
    },
    {
      "inputs": [
        {
          "internalType": "address",
          "name": "account",
          "type": "address"
        }
      ],
      "name": "grantPrivilege",
      "outputs": [],
      "stateMutability": "nonpayable",
      "type": "function"
    },
    {
      "inputs": [
        {
          "internalType": "bytes32",
          "name": "role",
          "type": "bytes32"
        },
        {
          "internalType": "address",
          "name": "account",
          "type": "address"
        }
      ],
      "name": "grantRole",
      "outputs": [],
      "stateMutability": "nonpayable",
      "type": "function"
    },
    {
      "inputs": [
        {
          "internalType": "bytes32",
          "name": "role",
          "type": "bytes32"
        },
        {
          "internalType": "address",
          "name": "account",
          "type": "address"
        }
      ],
      "name": "hasRole",
      "outputs": [
        {
          "internalType": "bool",
          "name": "",
          "type": "bool"
        }
      ],
      "stateMutability": "view",
      "type": "function"
    },
    {
      "inputs": [],
      "name": "owner",
      "outputs": [
        {
          "internalType": "address",
          "name": "",
          "type": "address"
        }
      ],
      "stateMutability": "view",
      "type": "function"
    },
    {
      "inputs": [
        {
          "internalType": "contract IERC20",
          "name": "thisToken",
          "type": "address"
        },
        {
          "internalType": "contract IERC20",
          "name": "thatToken",
          "type": "address"
        },
        {
          "internalType": "contract IERC20",
          "name": "tokenToRecover",
          "type": "address"
        },
        {
          "internalType": "address",
          "name": "recipient",
          "type": "address"
        }
      ],
      "name": "recoverTokens",
      "outputs": [],
      "stateMutability": "nonpayable",
      "type": "function"
    },
    {
      "inputs": [],
      "name": "renounceOwnership",
      "outputs": [],
      "stateMutability": "nonpayable",
      "type": "function"
    },
    {
      "inputs": [
        {
          "internalType": "bytes32",
          "name": "role",
          "type": "bytes32"
        },
        {
          "internalType": "address",
          "name": "account",
          "type": "address"
        }
      ],
      "name": "renounceRole",
      "outputs": [],
      "stateMutability": "nonpayable",
      "type": "function"
    },
    {
      "inputs": [
        {
          "internalType": "address",
          "name": "account",
          "type": "address"
        }
      ],
      "name": "revokePrivilege",
      "outputs": [],
      "stateMutability": "nonpayable",
      "type": "function"
    },
    {
      "inputs": [
        {
          "internalType": "bytes32",
          "name": "role",
          "type": "bytes32"
        },
        {
          "internalType": "address",
          "name": "account",
          "type": "address"
        }
      ],
      "name": "revokeRole",
      "outputs": [],
      "stateMutability": "nonpayable",
      "type": "function"
    },
    {
      "inputs": [],
      "name": "routingAgentShare",
      "outputs": [
        {
          "internalType": "uint256",
          "name": "",
          "type": "uint256"
        }
      ],
      "stateMutability": "view",
      "type": "function"
    },
    {
      "inputs": [
        {
          "internalType": "address",
          "name": "_developmentFundAddress",
          "type": "address"
        }
      ],
      "name": "setDevelopmentFundAddress",
      "outputs": [],
      "stateMutability": "nonpayable",
      "type": "function"
    },
    {
      "inputs": [
        {
          "internalType": "uint256",
          "name": "_routingAgentShare",
          "type": "uint256"
        }
      ],
      "name": "setRoutingAgentShare",
      "outputs": [],
      "stateMutability": "nonpayable",
      "type": "function"
    },
    {
      "inputs": [
        {
          "internalType": "uint256",
          "name": "_upkeepAllocation",
          "type": "uint256"
        }
      ],
      "name": "setUpkeepAllocation",
      "outputs": [],
      "stateMutability": "nonpayable",
      "type": "function"
    },
    {
      "inputs": [
        {
          "internalType": "bytes4",
          "name": "interfaceId",
          "type": "bytes4"
        }
      ],
      "name": "supportsInterface",
      "outputs": [
        {
          "internalType": "bool",
          "name": "",
          "type": "bool"
        }
      ],
      "stateMutability": "view",
      "type": "function"
    },
    {
      "inputs": [],
      "name": "tokenManagerTemplate",
      "outputs": [
        {
          "internalType": "address",
          "name": "",
          "type": "address"
        }
      ],
      "stateMutability": "view",
      "type": "function"
    },
    {
      "inputs": [
        {
          "internalType": "contract IERC20",
          "name": "",
          "type": "address"
        }
      ],
      "name": "tokenManagers",
      "outputs": [
        {
          "internalType": "contract ITokenManager",
          "name": "",
          "type": "address"
        }
      ],
      "stateMutability": "view",
      "type": "function"
    },
    {
      "inputs": [
        {
          "internalType": "address",
          "name": "newOwner",
          "type": "address"
        }
      ],
      "name": "transferOwnership",
      "outputs": [],
      "stateMutability": "nonpayable",
      "type": "function"
    },
    {
      "inputs": [],
      "name": "upkeepAllocation",
      "outputs": [
        {
          "internalType": "uint256",
          "name": "",
          "type": "uint256"
        }
      ],
      "stateMutability": "view",
      "type": "function"
    }
  ],
  "bytecode": {
    "object": "0x60e060405260646200001b670de0b6b3a7640000600a620001f0565b6200002791906200021e565b6003556200003f6002670de0b6b3a76400006200021e565b6004553480156200004f57600080fd5b506040516200168b3803806200168b83398101604081905262000072916200025e565b6200007d3362000108565b6001600160a01b0383811660805282811660a052811660c052600280546001600160a01b031916331790557f6be6269fce08e74b0ffaefbb0797e1c9eb02d4f2252d97420e0ae87f99a24fc060005260016020527faa1c8b08dbb9bd22207628d19d6b99db3f22a1475a05809121f154277abd52d854620000ff903362000158565b505050620002a8565b600080546001600160a01b038381166001600160a01b0319831681178455604051919092169283917f8be0079c531659141344cd1fd0a4f28419497f9722a3daafe3b4186f6b6457e09190a35050565b62000164828262000168565b5050565b60008281526001602090815260408083206001600160a01b038516845290915290205460ff16620001645760008281526001602081815260408084206001600160a01b0386168086529252808420805460ff19169093179092559051339285917f2f8788117e7eff1d82e926ec794901d17c78024a50270940304540a733656f0d9190a45050565b60008160001904831182151516156200021957634e487b7160e01b600052601160045260246000fd5b500290565b6000826200023c57634e487b7160e01b600052601260045260246000fd5b500490565b80516001600160a01b03811681146200025957600080fd5b919050565b6000806000606084860312156200027457600080fd5b6200027f8462000241565b92506200028f6020850162000241565b91506200029f6040850162000241565b90509250925092565b60805160a05160c051611397620002f4600039600081816104120152818161090501526109f8015260008181610381015281816108c201526109b50152600061086801526113976000f3fe608060405234801561001057600080fd5b50600436106101a95760003560e01c806391d14854116100f9578063c614368e11610097578063d88ff1f411610071578063d88ff1f4146103d2578063e3433615146103e7578063f2fde38b146103fa578063f5389d4a1461040d57600080fd5b8063c614368e146103a3578063d0e34b9f146103ac578063d547741f146103bf57600080fd5b8063b2461417116100d3578063b246141714610343578063b88fd16e14610356578063ba7b5fd014610369578063c45b0fca1461037c57600080fd5b806391d148541461031357806393fb8f7614610326578063a217fddf1461033b57600080fd5b806342b735e611610166578063531aa03e11610140578063531aa03e146102b35780636fe99db2146102e7578063715018a6146102fa5780638da5cb5b1461030257600080fd5b806342b735e61461026457806344a7b4c9146102775780634f925dc81461028a57600080fd5b806301ffc9a7146101ae57806302f1ce01146101d6578063248a9ca3146101ed5780632f2ff15d1461021157806336568abe1461022657806341d1de9714610239575b600080fd5b6101c16101bc36600461106e565b610434565b60405190151581526020015b60405180910390f35b6101df60045481565b6040519081526020016101cd565b6101df6101fb366004611098565b6000908152600160208190526040909120015490565b61022461021f3660046110c6565b61046b565b005b6102246102343660046110c6565b610496565b61024c610247366004611098565b610519565b6040516001600160a01b0390911681526020016101cd565b6102246102723660046110f6565b610543565b610224610285366004611113565b610566565b61024c6102983660046110f6565b6006602052600090815260409020546001600160a01b031681565b61024c6102c136600461116f565b60056020908152600092835260408084209091529082529020546001600160a01b031681565b6102246102f53660046110f6565b61062f565b61022461064f565b6000546001600160a01b031661024c565b6101c16103213660046110c6565b610663565b6101df60008051602061134283398151915281565b6101df600081565b6102246103513660046110f6565b61068e565b60025461024c906001600160a01b031681565b610224610377366004611098565b6106b8565b61024c7f000000000000000000000000000000000000000000000000000000000000000081565b6101df60035481565b6102246103ba366004611098565b6106ee565b6102246103cd3660046110c6565b610724565b6103da61074a565b6040516101cd919061119d565b61024c6103f536600461116f565b6107ac565b6102246104083660046110f6565b610bca565b61024c7f000000000000000000000000000000000000000000000000000000000000000081565b60006001600160e01b03198216637965db0b60e01b148061046557506301ffc9a760e01b6001600160e01b03198316145b92915050565b6000828152600160208190526040909120015461048781610c40565b6104918383610c4a565b505050565b6001600160a01b038116331461050b5760405162461bcd60e51b815260206004820152602f60248201527f416363657373436f6e74726f6c3a2063616e206f6e6c792072656e6f756e636560448201526e103937b632b9903337b91039b2b63360891b60648201526084015b60405180910390fd5b6105158282610cb5565b5050565b6007818154811061052957600080fd5b6000918252602090912001546001600160a01b0316905081565b61054b610d1c565b6105636000805160206113428339815191528261046b565b50565b60008051602061134283398151915261057e81610c40565b6001600160a01b038086166000908152600560209081526040808320888516845290915290205416806105c45760405163a7fff15b60e01b815260040160405180910390fd5b60405163015825eb60e21b81526001600160a01b038581166004830152848116602483015282169063056097ac90604401600060405180830381600087803b15801561060f57600080fd5b505af1158015610623573d6000803e3d6000fd5b50505050505050505050565b610637610d1c565b61056360008051602061134283398151915282610724565b610657610d1c565b6106616000610d76565b565b60009182526001602090815260408084206001600160a01b0393909316845291905290205460ff1690565b610696610d1c565b600280546001600160a01b0319166001600160a01b0392909216919091179055565b6106c0610d1c565b670de0b6b3a76400008111156106e957604051630a953df960e31b815260040160405180910390fd5b600355565b6106f6610d1c565b670de0b6b3a764000081111561071f57604051630a953df960e31b815260040160405180910390fd5b600455565b6000828152600160208190526040909120015461074081610c40565b6104918383610cb5565b606060078054806020026020016040519081016040528092919081815260200182805480156107a257602002820191906000526020600020905b81546001600160a01b03168152600190910190602001808311610784575b5050505050905090565b6000816001600160a01b0316836001600160a01b0316036107e05760405163c06cd3c360e01b815260040160405180910390fd5b6001600160a01b03831615806107fd57506001600160a01b038216155b1561081b57604051634b46d9cd60e11b815260040160405180910390fd5b6001600160a01b03838116600090815260056020908152604080832086851684529091529020541615610861576040516312e0598f60e01b815260040160405180910390fd5b600061088c7f0000000000000000000000000000000000000000000000000000000000000000610dc6565b6001600160a01b0380861660009081526006602052604080822054878416835291205492935081169116816109a05760006108e67f0000000000000000000000000000000000000000000000000000000000000000610dc6565b60405163485cc95560e01b81526001600160a01b0389811660048301527f0000000000000000000000000000000000000000000000000000000000000000811660248301529194508492509082169063485cc95590604401600060405180830381600087803b15801561095857600080fd5b505af115801561096c573d6000803e3d6000fd5b505050506001600160a01b03878116600090815260066020526040902080546001600160a01b031916918516919091179055505b6001600160a01b038116610a935760006109d97f0000000000000000000000000000000000000000000000000000000000000000610dc6565b60405163485cc95560e01b81526001600160a01b0388811660048301527f0000000000000000000000000000000000000000000000000000000000000000811660248301529193508392509082169063485cc95590604401600060405180830381600087803b158015610a4b57600080fd5b505af1158015610a5f573d6000803e3d6000fd5b505050506001600160a01b03868116600090815260066020526040902080546001600160a01b031916918416919091179055505b60405163c0c53b8b60e01b81526001600160a01b0383811660048301528281166024830152306044830152939450849384169063c0c53b8b90606401600060405180830381600087803b158015610ae957600080fd5b505af1158015610afd573d6000803e3d6000fd5b505050506001600160a01b0386811660008181526005602081815260408084208b87168086529083528185208054978c166001600160a01b03199889168117909155938352818520868652835281852080548816851790556007805460018101825595527fa66cc928b5edb82af9bd49922954155ab7b0942694bea4ce44661d9a8736c68890940180549096168317909555935190815290927f9c5d829b9b23efc461f9aeef91979ec04bb903feb3bee4f26d22114abfc7335b910160405180910390a350505092915050565b610bd2610d1c565b6001600160a01b038116610c375760405162461bcd60e51b815260206004820152602660248201527f4f776e61626c653a206e6577206f776e657220697320746865207a65726f206160448201526564647265737360d01b6064820152608401610502565b61056381610d76565b6105638133610e60565b610c548282610663565b6105155760008281526001602081815260408084206001600160a01b0386168086529252808420805460ff19169093179092559051339285917f2f8788117e7eff1d82e926ec794901d17c78024a50270940304540a733656f0d9190a45050565b610cbf8282610663565b156105155760008281526001602090815260408083206001600160a01b0385168085529252808320805460ff1916905551339285917ff6391f5c32d9c69d2a47ea670b442974b53935d1edc7fd64eb21e047a839171b9190a45050565b6000546001600160a01b031633146106615760405162461bcd60e51b815260206004820181905260248201527f4f776e61626c653a2063616c6c6572206973206e6f7420746865206f776e65726044820152606401610502565b600080546001600160a01b038381166001600160a01b0319831681178455604051919092169283917f8be0079c531659141344cd1fd0a4f28419497f9722a3daafe3b4186f6b6457e09190a35050565b6000763d602d80600a3d3981f3363d3d373d3d3d363d730000008260601b60e81c176000526e5af43d82803e903d91602b57fd5bf38260781b17602052603760096000f090506001600160a01b038116610e5b5760405162461bcd60e51b8152602060048201526016602482015275115490cc4c4d8dce8818dc99585d194819985a5b195960521b6044820152606401610502565b919050565b610e6a8282610663565b61051557610e7781610eb9565b610e82836020610ecb565b604051602001610e9392919061120e565b60408051601f198184030181529082905262461bcd60e51b825261050291600401611283565b60606104656001600160a01b03831660145b60606000610eda8360026112cc565b610ee59060026112eb565b67ffffffffffffffff811115610efd57610efd6112fe565b6040519080825280601f01601f191660200182016040528015610f27576020820181803683370190505b509050600360fc1b81600081518110610f4257610f42611314565b60200101906001600160f81b031916908160001a905350600f60fb1b81600181518110610f7157610f71611314565b60200101906001600160f81b031916908160001a9053506000610f958460026112cc565b610fa09060016112eb565b90505b6001811115611018576f181899199a1a9b1b9c1cb0b131b232b360811b85600f1660108110610fd457610fd4611314565b1a60f81b828281518110610fea57610fea611314565b60200101906001600160f81b031916908160001a90535060049490941c936110118161132a565b9050610fa3565b5083156110675760405162461bcd60e51b815260206004820181905260248201527f537472696e67733a20686578206c656e67746820696e73756666696369656e746044820152606401610502565b9392505050565b60006020828403121561108057600080fd5b81356001600160e01b03198116811461106757600080fd5b6000602082840312156110aa57600080fd5b5035919050565b6001600160a01b038116811461056357600080fd5b600080604083850312156110d957600080fd5b8235915060208301356110eb816110b1565b809150509250929050565b60006020828403121561110857600080fd5b8135611067816110b1565b6000806000806080858703121561112957600080fd5b8435611134816110b1565b93506020850135611144816110b1565b92506040850135611154816110b1565b91506060850135611164816110b1565b939692955090935050565b6000806040838503121561118257600080fd5b823561118d816110b1565b915060208301356110eb816110b1565b6020808252825182820181905260009190848201906040850190845b818110156111de5783516001600160a01b0316835292840192918401916001016111b9565b50909695505050505050565b60005b838110156112055781810151838201526020016111ed565b50506000910152565b7f416363657373436f6e74726f6c3a206163636f756e74200000000000000000008152600083516112468160178501602088016111ea565b7001034b99036b4b9b9b4b733903937b6329607d1b60179184019182015283516112778160288401602088016111ea565b01602801949350505050565b60208152600082518060208401526112a28160408501602087016111ea565b601f01601f19169190910160400192915050565b634e487b7160e01b600052601160045260246000fd5b60008160001904831182151516156112e6576112e66112b6565b500290565b80820180821115610465576104656112b6565b634e487b7160e01b600052604160045260246000fd5b634e487b7160e01b600052603260045260246000fd5b600081611339576113396112b6565b50600019019056fe6be6269fce08e74b0ffaefbb0797e1c9eb02d4f2252d97420e0ae87f99a24fc0a2646970667358221220f89af9147d951c2fe23ccd034ca3555841dc1bb69de3aff929cd5446672c9df864736f6c63430008100033",
    "linkReferences": {}
  },
  "methodIdentifiers": {
    "DEFAULT_ADMIN_ROLE()": "a217fddf",
    "PRIVILEGED_ROLE()": "93fb8f76",
    "allPools(uint256)": "41d1de97",
    "clusterTemplate()": "f5389d4a",
    "createPool(address,address)": "e3433615",
    "developmentFundAddress()": "b88fd16e",
    "getAllPools()": "d88ff1f4",
    "getPool(address,address)": "531aa03e",
    "getRoleAdmin(bytes32)": "248a9ca3",
    "grantPrivilege(address)": "42b735e6",
    "grantRole(bytes32,address)": "2f2ff15d",
    "hasRole(bytes32,address)": "91d14854",
    "owner()": "8da5cb5b",
    "recoverTokens(address,address,address,address)": "44a7b4c9",
    "renounceOwnership()": "715018a6",
    "renounceRole(bytes32,address)": "36568abe",
    "revokePrivilege(address)": "6fe99db2",
    "revokeRole(bytes32,address)": "d547741f",
    "routingAgentShare()": "02f1ce01",
    "setDevelopmentFundAddress(address)": "b2461417",
    "setRoutingAgentShare(uint256)": "d0e34b9f",
    "setUpkeepAllocation(uint256)": "ba7b5fd0",
    "supportsInterface(bytes4)": "01ffc9a7",
    "tokenManagerTemplate()": "c45b0fca",
    "tokenManagers(address)": "4f925dc8",
    "transferOwnership(address)": "f2fde38b",
    "upkeepAllocation()": "c614368e"
  },
  "id": 60
}