{
  "abi": [
    {
      "inputs": [
        {
          "internalType": "contract ILiquidityManager",
          "name": "_liquidityManager",
          "type": "address"
        },
        {
          "internalType": "contract IPoolManager",
          "name": "_poolManager",
          "type": "address"
        },
        {
          "internalType": "contract ISwapManager",
          "name": "_swapManager",
          "type": "address"
        },
        {
          "internalType": "contract IDEX",
          "name": "_dex",
          "type": "address"
        }
      ],
      "stateMutability": "nonpayable",
      "type": "constructor"
    },
    {
      "inputs": [],
      "name": "dex",
      "outputs": [
        {
          "internalType": "contract IDEX",
          "name": "",
          "type": "address"
        }
      ],
      "stateMutability": "view",
      "type": "function"
    },
    {
      "inputs": [
        {
          "internalType": "address",
          "name": "recipient",
          "type": "address"
        },
        {
          "internalType": "uint256",
          "name": "owed",
          "type": "uint256"
        },
        {
          "internalType": "uint256",
          "name": "amountOut",
          "type": "uint256"
        },
        {
          "internalType": "bytes",
          "name": "data",
          "type": "bytes"
        }
      ],
      "name": "flashSwapCallback",
      "outputs": [],
      "stateMutability": "nonpayable",
      "type": "function"
    },
    {
      "inputs": [],
      "name": "liquidityManager",
      "outputs": [
        {
          "internalType": "contract ILiquidityManager",
          "name": "",
          "type": "address"
        }
      ],
      "stateMutability": "view",
      "type": "function"
    },
    {
      "inputs": [],
      "name": "poolManager",
      "outputs": [
        {
          "internalType": "contract IPoolManager",
          "name": "",
          "type": "address"
        }
      ],
      "stateMutability": "view",
      "type": "function"
    },
    {
      "inputs": [
        {
          "internalType": "uint256",
          "name": "poolIdx1",
          "type": "uint256"
        },
        {
          "internalType": "uint256",
          "name": "poolIdx2",
          "type": "uint256"
        },
        {
          "internalType": "uint256",
          "name": "poolIdx3",
          "type": "uint256"
        },
        {
          "internalType": "contract IERC20",
          "name": "tokenIn",
          "type": "address"
        },
        {
          "internalType": "uint256",
          "name": "amountIn",
          "type": "uint256"
        }
      ],
      "name": "startArbitrage",
      "outputs": [],
      "stateMutability": "nonpayable",
      "type": "function"
    },
    {
      "inputs": [],
      "name": "swapManager",
      "outputs": [
        {
          "internalType": "contract ISwapManager",
          "name": "",
          "type": "address"
        }
      ],
      "stateMutability": "view",
      "type": "function"
    }
  ],
  "bytecode": {
    "object": "0x61010060405234801561001157600080fd5b50604051610f3a380380610f3a8339810160408190526100309161006a565b6001600160a01b0393841660805291831660a052821660c0521660e0526100c9565b6001600160a01b038116811461006757600080fd5b50565b6000806000806080858703121561008057600080fd5b845161008b81610052565b602086015190945061009c81610052565b60408601519093506100ad81610052565b60608601519092506100be81610052565b939692955090935050565b60805160a05160c05160e051610dfc61013e600039600060af01526000818160d601528181610152015281816105a6015261088b015260008181610125015281816101f00152818161034b015281816104770152610748015260008181606c0152818161032901526106c20152610dfc6000f3fe608060405234801561001057600080fd5b50600436106100625760003560e01c80633382743814610067578063692058c2146100aa578063709d039d146100d1578063a5a6edad146100f8578063bc18b7f11461010d578063dc4c90d314610120575b600080fd5b61008e7f000000000000000000000000000000000000000000000000000000000000000081565b6040516001600160a01b03909116815260200160405180910390f35b61008e7f000000000000000000000000000000000000000000000000000000000000000081565b61008e7f000000000000000000000000000000000000000000000000000000000000000081565b61010b610106366004610b6d565b610147565b005b61010b61011b366004610c03565b61045e565b61008e7f000000000000000000000000000000000000000000000000000000000000000081565b336001600160a01b037f000000000000000000000000000000000000000000000000000000000000000016146101b55760405162461bcd60e51b815260206004820152600e60248201526d24b73b30b634b21031b0b63632b960911b60448201526064015b60405180910390fd5b600080806101c584860186610c4c565b9250925092506101d78187858b6106b1565b6040516306ed78b760e21b8152600481018590529096507f00000000000000000000000000000000000000000000000000000000000000006001600160a01b031690631bb5e2dc90602401602060405180830381865afa15801561023f573d6000803e3d6000fd5b505050506040513d601f19601f820116820180604052508101906102639190610c85565b60405163302bb94d60e01b81526001600160a01b038381166004830152919091169063302bb94d90602401602060405180830381865afa1580156102ab573d6000803e3d6000fd5b505050506040513d601f19601f820116820180604052508101906102cf9190610c85565b90506102dd8187848b6106b1565b95508686116103245760405162461bcd60e51b8152602060048201526013602482015272139bc8185c989a5d1c9859d9481c1c9bd99a5d606a1b60448201526064016101ac565b6104547f0000000000000000000000000000000000000000000000000000000000000000887f00000000000000000000000000000000000000000000000000000000000000006001600160a01b0316631bb5e2dc866040518263ffffffff1660e01b815260040161039791815260200190565b602060405180830381865afa1580156103b4573d6000803e3d6000fd5b505050506040513d601f19601f820116820180604052508101906103d89190610c85565b60405163302bb94d60e01b81526001600160a01b038681166004830152919091169063302bb94d90602401602060405180830381865afa158015610420573d6000803e3d6000fd5b505050506040513d601f19601f820116820180604052508101906104449190610c85565b6001600160a01b03169190610906565b5050505050505050565b6040516306ed78b760e21b8152600481018690526000907f00000000000000000000000000000000000000000000000000000000000000006001600160a01b031690631bb5e2dc90602401602060405180830381865afa1580156104c6573d6000803e3d6000fd5b505050506040513d601f19601f820116820180604052508101906104ea9190610c85565b60405163302bb94d60e01b81526001600160a01b038581166004830152919091169063302bb94d90602401602060405180830381865afa158015610532573d6000803e3d6000fd5b505050506040513d601f19601f820116820180604052508101906105569190610c85565b60408051602081018890529081018690526001600160a01b038216606082015290915060009060800160408051601f198184030181529082905263037acfb960e41b825291506001600160a01b037f000000000000000000000000000000000000000000000000000000000000000016906337acfb90906105e5908a90309033908a908a908990600401610cf9565b6020604051808303816000875af1158015610604573d6000803e3d6000fd5b505050506040513d601f19601f820116820180604052508101906106289190610d46565b506040516370a0823160e01b81523060048201526106a89033906001600160a01b038716906370a0823190602401602060405180830381865afa158015610673573d6000803e3d6000fd5b505050506040513d601f19601f820116820180604052508101906106979190610d46565b6001600160a01b0387169190610906565b50505050505050565b60006106e76001600160a01b0386167f000000000000000000000000000000000000000000000000000000000000000086610906565b604080516002808252606082018352600092602083019080368337019050509050858160008151811061071c5761071c610d5f565b6001600160a01b0392831660209182029290920101526040516306ed78b760e21b8152600481018690527f000000000000000000000000000000000000000000000000000000000000000090911690631bb5e2dc90602401602060405180830381865afa158015610791573d6000803e3d6000fd5b505050506040513d601f19601f820116820180604052508101906107b59190610c85565b60405163302bb94d60e01b81526001600160a01b038881166004830152919091169063302bb94d90602401602060405180830381865afa1580156107fd573d6000803e3d6000fd5b505050506040513d601f19601f820116820180604052508101906108219190610c85565b8160018151811061083457610834610d5f565b6001600160a01b03928316602091820292909201015260405163037acfb960e41b815260048101869052306024820152848216604482015287821660648201526084810187905260c060a4820152600060c48201527f0000000000000000000000000000000000000000000000000000000000000000909116906337acfb909060e4016020604051808303816000875af11580156108d6573d6000803e3d6000fd5b505050506040513d601f19601f820116820180604052508101906108fa9190610d46565b9150505b949350505050565b604080516001600160a01b038416602482015260448082018490528251808303909101815260649091019091526020810180516001600160e01b031663a9059cbb60e01b17905261095890849061095d565b505050565b60006109b2826040518060400160405280602081526020017f5361666545524332303a206c6f772d6c6576656c2063616c6c206661696c6564815250856001600160a01b0316610a329092919063ffffffff16565b90508051600014806109d35750808060200190518101906109d39190610d75565b6109585760405162461bcd60e51b815260206004820152602a60248201527f5361666545524332303a204552433230206f7065726174696f6e20646964206e6044820152691bdd081cdd58d8d9595960b21b60648201526084016101ac565b60606108fe848460008585600080866001600160a01b03168587604051610a599190610d97565b60006040518083038185875af1925050503d8060008114610a96576040519150601f19603f3d011682016040523d82523d6000602084013e610a9b565b606091505b5091509150610aac87838387610ab7565b979650505050505050565b60608315610b26578251600003610b1f576001600160a01b0385163b610b1f5760405162461bcd60e51b815260206004820152601d60248201527f416464726573733a2063616c6c20746f206e6f6e2d636f6e747261637400000060448201526064016101ac565b50816108fe565b6108fe8383815115610b3b5781518083602001fd5b8060405162461bcd60e51b81526004016101ac9190610db3565b6001600160a01b0381168114610b6a57600080fd5b50565b600080600080600060808688031215610b8557600080fd5b8535610b9081610b55565b94506020860135935060408601359250606086013567ffffffffffffffff80821115610bbb57600080fd5b818801915088601f830112610bcf57600080fd5b813581811115610bde57600080fd5b896020828501011115610bf057600080fd5b9699959850939650602001949392505050565b600080600080600060a08688031215610c1b57600080fd5b8535945060208601359350604086013592506060860135610c3b81610b55565b949793965091946080013592915050565b600080600060608486031215610c6157600080fd5b83359250602084013591506040840135610c7a81610b55565b809150509250925092565b600060208284031215610c9757600080fd5b8151610ca281610b55565b9392505050565b60005b83811015610cc4578181015183820152602001610cac565b50506000910152565b60008151808452610ce5816020860160208601610ca9565b601f01601f19169290920160200192915050565b8681526001600160a01b0386811660208301528581166040830152841660608201526080810183905260c060a08201819052600090610d3a90830184610ccd565b98975050505050505050565b600060208284031215610d5857600080fd5b5051919050565b634e487b7160e01b600052603260045260246000fd5b600060208284031215610d8757600080fd5b81518015158114610ca257600080fd5b60008251610da9818460208701610ca9565b9190910192915050565b602081526000610ca26020830184610ccd56fea26469706673582212204c2ef748db63f18aa5235f81dbdb343e85c0ce21aecc10d9295cc2fdad251aa164736f6c63430008130033",
    "linkReferences": {}
  },
  "methodIdentifiers": {
    "dex()": "692058c2",
    "flashSwapCallback(address,uint256,uint256,bytes)": "a5a6edad",
    "liquidityManager()": "33827438",
    "poolManager()": "dc4c90d3",
    "startArbitrage(uint256,uint256,uint256,address,uint256)": "bc18b7f1",
    "swapManager()": "709d039d"
  },
  "id": 91
}