{
  "abi": [
    {
      "inputs": [
        {
          "internalType": "address",
          "name": "user",
          "type": "address"
        },
        {
          "internalType": "uint256",
          "name": "proposalId",
          "type": "uint256"
        }
      ],
      "name": "GovernanceProxy__AlreadyVoted",
      "type": "error"
    },
    {
      "inputs": [
        {
          "internalType": "contract IERC20",
          "name": "thisToken",
          "type": "address"
        },
        {
          "internalType": "contract IERC20",
          "name": "thatToken",
          "type": "address"
        },
        {
          "internalType": "contract IERC20",
          "name": "votingToken",
          "type": "address"
        }
      ],
      "name": "GovernanceProxy__InvalidLPToken",
      "type": "error"
    },
    {
      "inputs": [
        {
          "internalType": "uint8",
          "name": "option",
          "type": "uint8"
        }
      ],
      "name": "GovernanceProxy__InvalidVoteOption",
      "type": "error"
    },
    {
      "inputs": [
        {
          "internalType": "uint256",
          "name": "proposalId",
          "type": "uint256"
        }
      ],
      "name": "GovernanceProxy__PassedVotingDeadline",
      "type": "error"
    },
    {
      "inputs": [],
      "name": "GovernanceProxy__ProposalThresholdNotMet",
      "type": "error"
    },
    {
      "inputs": [],
      "name": "GovernanceProxy__Unauthorized",
      "type": "error"
    },
    {
      "inputs": [
        {
          "internalType": "uint256",
          "name": "proposalId",
          "type": "uint256"
        }
      ],
      "name": "GovernanceProxy__VoteCastingStarted",
      "type": "error"
    },
    {
      "inputs": [
        {
          "internalType": "uint256",
          "name": "proposalId",
          "type": "uint256"
        }
      ],
      "name": "GovernanceProxy__VotesAlreadyCast",
      "type": "error"
    },
    {
      "inputs": [
        {
          "internalType": "uint256",
          "name": "proposalId",
          "type": "uint256"
        }
      ],
      "name": "GovernanceProxy__VotingNotElapsed",
      "type": "error"
    },
    {
      "inputs": [
        {
          "internalType": "uint256",
          "name": "proposalId",
          "type": "uint256"
        }
      ],
      "name": "GovernanceProxy__VotingNotStarted",
      "type": "error"
    },
    {
      "anonymous": false,
      "inputs": [
        {
          "indexed": true,
          "internalType": "address",
          "name": "previousOwner",
          "type": "address"
        },
        {
          "indexed": true,
          "internalType": "address",
          "name": "newOwner",
          "type": "address"
        }
      ],
      "name": "OwnershipTransferred",
      "type": "event"
    },
    {
      "anonymous": false,
      "inputs": [
        {
          "indexed": true,
          "internalType": "address",
          "name": "voter",
          "type": "address"
        },
        {
          "indexed": true,
          "internalType": "contract IGovernor",
          "name": "governor",
          "type": "address"
        },
        {
          "indexed": false,
          "internalType": "uint256",
          "name": "proposalId",
          "type": "uint256"
        },
        {
          "indexed": false,
          "internalType": "uint8",
          "name": "support",
          "type": "uint8"
        },
        {
          "indexed": false,
          "internalType": "uint256",
          "name": "weight",
          "type": "uint256"
        }
      ],
      "name": "ProxyVote",
      "type": "event"
    },
    {
      "inputs": [
        {
          "internalType": "contract IGovernor",
          "name": "governor",
          "type": "address"
        },
        {
          "internalType": "uint256",
          "name": "proposalId",
          "type": "uint256"
        }
      ],
      "name": "areAllVotesCast",
      "outputs": [
        {
          "internalType": "bool",
          "name": "",
          "type": "bool"
        }
      ],
      "stateMutability": "view",
      "type": "function"
    },
    {
      "inputs": [
        {
          "internalType": "contract IGovernor",
          "name": "governor",
          "type": "address"
        },
        {
          "internalType": "uint256",
          "name": "proposalId",
          "type": "uint256"
        }
      ],
      "name": "continueCastingVotes",
      "outputs": [],
      "stateMutability": "nonpayable",
      "type": "function"
    },
    {
      "inputs": [
        {
          "internalType": "address",
          "name": "voter",
          "type": "address"
        },
        {
          "internalType": "uint256",
          "name": "snapshot",
          "type": "uint256"
        },
        {
          "internalType": "contract ILPToken",
          "name": "lpToken",
          "type": "address"
        },
        {
          "internalType": "contract IERC20",
          "name": "votingToken",
          "type": "address"
        }
      ],
      "name": "getVotingPower",
      "outputs": [
        {
          "internalType": "uint256",
          "name": "votingPower",
          "type": "uint256"
        }
      ],
      "stateMutability": "view",
      "type": "function"
    },
    {
      "inputs": [],
      "name": "governanceExecutor",
      "outputs": [
        {
          "internalType": "contract IGovernanceExecutor",
          "name": "",
          "type": "address"
        }
      ],
      "stateMutability": "view",
      "type": "function"
    },
    {
      "inputs": [
        {
          "internalType": "contract IGovernor",
          "name": "governor",
          "type": "address"
        },
        {
          "internalType": "uint256",
          "name": "proposalId",
          "type": "uint256"
        },
        {
          "internalType": "address",
          "name": "voter",
          "type": "address"
        },
        {
          "internalType": "contract ILPToken",
          "name": "lpToken",
          "type": "address"
        }
      ],
      "name": "hasVotedOnProposal",
      "outputs": [
        {
          "internalType": "bool",
          "name": "",
          "type": "bool"
        }
      ],
      "stateMutability": "view",
      "type": "function"
    },
    {
      "inputs": [],
      "name": "liquidityManager",
      "outputs": [
        {
          "internalType": "contract ILiquidityManager",
          "name": "",
          "type": "address"
        }
      ],
      "stateMutability": "view",
      "type": "function"
    },
    {
      "inputs": [],
      "name": "owner",
      "outputs": [
        {
          "internalType": "address",
          "name": "",
          "type": "address"
        }
      ],
      "stateMutability": "view",
      "type": "function"
    },
    {
      "inputs": [],
      "name": "poolManager",
      "outputs": [
        {
          "internalType": "contract IPoolManager",
          "name": "",
          "type": "address"
        }
      ],
      "stateMutability": "view",
      "type": "function"
    },
    {
      "inputs": [
        {
          "internalType": "contract IGovernor",
          "name": "governor",
          "type": "address"
        },
        {
          "internalType": "uint256",
          "name": "proposalId",
          "type": "uint256"
        }
      ],
      "name": "proposalDeadline",
      "outputs": [
        {
          "internalType": "uint256",
          "name": "deadline",
          "type": "uint256"
        }
      ],
      "stateMutability": "view",
      "type": "function"
    },
    {
      "inputs": [
        {
          "internalType": "contract IGovernor",
          "name": "governor",
          "type": "address"
        },
        {
          "internalType": "uint256",
          "name": "proposalId",
          "type": "uint256"
        }
      ],
      "name": "proposalSnapshot",
      "outputs": [
        {
          "internalType": "uint256",
          "name": "snapshot",
          "type": "uint256"
        }
      ],
      "stateMutability": "view",
      "type": "function"
    },
    {
      "inputs": [
        {
          "internalType": "contract IGovernor",
          "name": "governor",
          "type": "address"
        },
        {
          "internalType": "contract ILPToken",
          "name": "lpToken",
          "type": "address"
        },
        {
          "internalType": "address[]",
          "name": "targets",
          "type": "address[]"
        },
        {
          "internalType": "uint256[]",
          "name": "values",
          "type": "uint256[]"
        },
        {
          "internalType": "bytes[]",
          "name": "calldatas",
          "type": "bytes[]"
        },
        {
          "internalType": "string",
          "name": "description",
          "type": "string"
        }
      ],
      "name": "propose",
      "outputs": [
        {
          "internalType": "uint256",
          "name": "proposalId",
          "type": "uint256"
        }
      ],
      "stateMutability": "nonpayable",
      "type": "function"
    },
    {
      "inputs": [
        {
          "internalType": "contract IGovernor",
          "name": "governor",
          "type": "address"
        },
        {
          "internalType": "uint256",
          "name": "proposalId",
          "type": "uint256"
        },
        {
          "internalType": "uint8",
          "name": "support",
          "type": "uint8"
        },
        {
          "internalType": "contract ILPToken[]",
          "name": "lpTokens",
          "type": "address[]"
        }
      ],
      "name": "proxyVote",
      "outputs": [],
      "stateMutability": "nonpayable",
      "type": "function"
    },
    {
      "inputs": [
        {
          "internalType": "contract IGovernor",
          "name": "governor",
          "type": "address"
        },
        {
          "internalType": "uint256",
          "name": "proposalId",
          "type": "uint256"
        }
      ],
      "name": "proxyVotingDeadline",
      "outputs": [
        {
          "internalType": "uint256",
          "name": "proxyDeadline",
          "type": "uint256"
        }
      ],
      "stateMutability": "view",
      "type": "function"
    },
    {
      "inputs": [],
      "name": "renounceOwnership",
      "outputs": [],
      "stateMutability": "nonpayable",
      "type": "function"
    },
    {
      "inputs": [
        {
          "internalType": "contract IGovernanceExecutor",
          "name": "_governanceExecutor",
          "type": "address"
        }
      ],
      "name": "setGovernanceExecutor",
      "outputs": [],
      "stateMutability": "nonpayable",
      "type": "function"
    },
    {
      "inputs": [
        {
          "internalType": "contract ILiquidityManager",
          "name": "_liquidityManager",
          "type": "address"
        }
      ],
      "name": "setLiquidityManager",
      "outputs": [],
      "stateMutability": "nonpayable",
      "type": "function"
    },
    {
      "inputs": [
        {
          "internalType": "contract IPoolManager",
          "name": "_poolManager",
          "type": "address"
        }
      ],
      "name": "setPoolManager",
      "outputs": [],
      "stateMutability": "nonpayable",
      "type": "function"
    },
    {
      "inputs": [
        {
          "internalType": "contract IGovernor",
          "name": "governor",
          "type": "address"
        },
        {
          "internalType": "uint256",
          "name": "proposalId",
          "type": "uint256"
        }
      ],
      "name": "startCastingVotes",
      "outputs": [],
      "stateMutability": "nonpayable",
      "type": "function"
    },
    {
      "inputs": [
        {
          "internalType": "contract IGovernor",
          "name": "",
          "type": "address"
        },
        {
          "internalType": "uint256",
          "name": "",
          "type": "uint256"
        }
      ],
      "name": "tallies",
      "outputs": [
        {
          "internalType": "uint256",
          "name": "againstVotes",
          "type": "uint256"
        },
        {
          "internalType": "uint256",
          "name": "forVotes",
          "type": "uint256"
        },
        {
          "internalType": "uint256",
          "name": "abstainVotes",
          "type": "uint256"
        }
      ],
      "stateMutability": "view",
      "type": "function"
    },
    {
      "inputs": [
        {
          "internalType": "address",
          "name": "newOwner",
          "type": "address"
        }
      ],
      "name": "transferOwnership",
      "outputs": [],
      "stateMutability": "nonpayable",
      "type": "function"
    },
    {
      "inputs": [
        {
          "internalType": "contract IGovernor",
          "name": "",
          "type": "address"
        },
        {
          "internalType": "uint256",
          "name": "",
          "type": "uint256"
        },
        {
          "internalType": "address",
          "name": "",
          "type": "address"
        },
        {
          "internalType": "contract ILPToken",
          "name": "",
          "type": "address"
        }
      ],
      "name": "voted",
      "outputs": [
        {
          "internalType": "uint256",
          "name": "",
          "type": "uint256"
        }
      ],
      "stateMutability": "view",
      "type": "function"
    },
    {
      "inputs": [
        {
          "internalType": "contract IGovernor",
          "name": "",
          "type": "address"
        },
        {
          "internalType": "uint256",
          "name": "",
          "type": "uint256"
        }
      ],
      "name": "votesCast",
      "outputs": [
        {
          "internalType": "bool",
          "name": "",
          "type": "bool"
        }
      ],
      "stateMutability": "view",
      "type": "function"
    }
  ],
  "bytecode": {
    "object": "0x608060405234801561001057600080fd5b5061001a3361001f565b61006f565b600080546001600160a01b038381166001600160a01b0319831681178455604051919092169283917f8be0079c531659141344cd1fd0a4f28419497f9722a3daafe3b4186f6b6457e09190a35050565b6123aa8061007e6000396000f3fe608060405234801561001057600080fd5b50600436106101425760003560e01c806352e352f3116100b85780638fc983861161007c5780638fc983861461032757806393a7a1f11461033a578063d5fcce111461034d578063dc4c90d314610360578063e845a9e914610373578063f2fde38b1461038657600080fd5b806352e352f3146102d5578063715018a6146102e857806375d7e54f146102f05780637aef6715146103035780638da5cb5b1461031657600080fd5b8063338274381161010a578063338274381461022057806334532c1d1461024b5780633c1624d41461025e57806346aafa3b1461027157806346bd815b146102af57806349e570b6146102c257600080fd5b80630de9cd33146101475780630f3003001461019457806315871cce146101a9578063161ebe35146101bc5780632c52f7b91461020d575b600080fd5b610181610155366004611c63565b600260209081526000948552604080862082529385528385208152918452828420909152825290205481565b6040519081526020015b60405180910390f35b6101a76101a2366004611cb6565b610399565b005b6101816101b7366004611cda565b6103ed565b6101f26101ca366004611cda565b6001602081815260009384526040808520909152918352912080549181015460029091015483565b6040805193845260208401929092529082015260600161018b565b61018161021b366004611c63565b610463565b600554610233906001600160a01b031681565b6040516001600160a01b03909116815260200161018b565b6101a7610259366004611d71565b61093b565b6101a761026c366004611cb6565b610db8565b61029f61027f366004611cda565b600360209081526000928352604080842090915290825290205460ff1681565b604051901515815260200161018b565b6101816102bd36600461201c565b610e0c565b61029f6102d0366004611c63565b611600565b61029f6102e3366004611cda565b611640565b6101a76116bb565b6101a76102fe366004611cda565b6116cf565b6101a7610311366004611cb6565b611918565b6000546001600160a01b0316610233565b600454610233906001600160a01b031681565b610181610348366004611cda565b61196c565b6101a761035b366004611cda565b611a7f565b600654610233906001600160a01b031681565b610181610381366004611cda565b611aeb565b6101a7610394366004611cb6565b611b1b565b6103a1611b94565b6004546001600160a01b0316156103cb5760405163422bc24960e11b815260040160405180910390fd5b600480546001600160a01b0319166001600160a01b0392909216919091179055565b604051632d63f69360e01b8152600481018290526000906001600160a01b03841690632d63f693906024015b602060405180830381865afa158015610436573d6000803e3d6000fd5b505050506040513d601f19601f8201168201806040525081019061045a91906120e9565b90505b92915050565b6000826001600160a01b03166375f4f18e6040518163ffffffff1660e01b8152600401602060405180830381865afa1580156104a3573d6000803e3d6000fd5b505050506040513d601f19601f820116820180604052508101906104c79190612102565b6001600160a01b0316826001600160a01b03161461065757826001600160a01b031663c451463b6040518163ffffffff1660e01b8152600401602060405180830381865afa15801561051d573d6000803e3d6000fd5b505050506040513d601f19601f820116820180604052508101906105419190612102565b6001600160a01b0316826001600160a01b03161461065757826001600160a01b03166375f4f18e6040518163ffffffff1660e01b8152600401602060405180830381865afa158015610597573d6000803e3d6000fd5b505050506040513d601f19601f820116820180604052508101906105bb9190612102565b836001600160a01b031663c451463b6040518163ffffffff1660e01b8152600401602060405180830381865afa1580156105f9573d6000803e3d6000fd5b505050506040513d601f19601f8201168201806040525081019061061d9190612102565b6040516330b370a160e21b81526001600160a01b039283166004820152908216602482015290831660448201526064015b60405180910390fd5b6000600660009054906101000a90046001600160a01b03166001600160a01b0316638ae93f0b856001600160a01b03166375f4f18e6040518163ffffffff1660e01b8152600401602060405180830381865afa1580156106bb573d6000803e3d6000fd5b505050506040513d601f19601f820116820180604052508101906106df9190612102565b866001600160a01b031663c451463b6040518163ffffffff1660e01b8152600401602060405180830381865afa15801561071d573d6000803e3d6000fd5b505050506040513d601f19601f820116820180604052508101906107419190612102565b6040516001600160e01b031960e085901b1681526001600160a01b03928316600482015291166024820152604401602060405180830381865afa15801561078c573d6000803e3d6000fd5b505050506040513d601f19601f820116820180604052508101906107b091906120e9565b60055460405162ce531d60e61b8152600481018390526001600160a01b0386811660248301526044820189905292935060009290911690633394c74090606401602060405180830381865afa15801561080d573d6000803e3d6000fd5b505050506040513d601f19601f8201168201806040525081019061083191906120e9565b604051630748d63560e31b81526001600160a01b03898116600483015260248201899052919250600091871690633a46b1a890604401602060405180830381865afa158015610884573d6000803e3d6000fd5b505050506040513d601f19601f820116820180604052508101906108a891906120e9565b604051632394e7a360e21b8152600481018990529091506000906001600160a01b03881690638e539e8c90602401602060405180830381865afa1580156108f3573d6000803e3d6000fd5b505050506040513d601f19601f8201168201806040525081019061091791906120e9565b9050806109248385612135565b61092e919061214c565b9998505050505050505050565b60028260ff161115610965576040516372a5301f60e11b815260ff8316600482015260240161064e565b604051632d63f69360e01b8152600481018490526000906001600160a01b03861690632d63f69390602401602060405180830381865afa1580156109ad573d6000803e3d6000fd5b505050506040513d601f19601f820116820180604052508101906109d191906120e9565b90508043116109f657604051632a3c3a1560e11b81526004810185905260240161064e565b60405163c01f9e3760e01b8152600481018590526000906001600160a01b0387169063c01f9e3790602401602060405180830381865afa158015610a3e573d6000803e3d6000fd5b505050506040513d601f19601f82011682018060405250810190610a6291906120e9565b905080431115610a8857604051639dccbe0360e01b81526004810186905260240161064e565b6004805460405163ac405c6b60e01b81526001600160a01b03898116938201939093526024810188905291169063ac405c6b90604401602060405180830381865afa158015610adb573d6000803e3d6000fd5b505050506040513d601f19601f82011682018060405250810190610aff919061216e565b15610b205760405163a38c976f60e01b81526004810186905260240161064e565b6000805b8451811015610c8f57610b52888833888581518110610b4557610b45612190565b6020026020010151611600565b15610b79576040516390ef2f7760e01b81523360048201526024810188905260440161064e565b6000610bfc3386888581518110610b9257610b92612190565b60200260200101518c6001600160a01b031663fc0c546a6040518163ffffffff1660e01b8152600401602060405180830381865afa158015610bd8573d6000803e3d6000fd5b505050506040513d601f19601f8201168201806040525081019061021b9190612102565b9050610c0881846121a6565b6001600160a01b038a1660009081526002602090815260408083208c84528252808320338452909152812088519295508392909190899086908110610c4f57610c4f612190565b60200260200101516001600160a01b03166001600160a01b0316815260200190815260200160002081905550508080610c87906121b9565b915050610b24565b508460ff16600003610cd9576001600160a01b038716600090815260016020908152604080832089845290915281208054839290610cce9084906121a6565b90915550610d5f9050565b8460ff16600103610d18576001600160a01b03871660009081526001602081815260408084208a85529091528220018054839290610cce9084906121a6565b8460ff16600203610d5f576001600160a01b038716600090815260016020908152604080832089845290915281206002018054839290610d599084906121a6565b90915550505b6040805187815260ff871660208201529081018290526001600160a01b0388169033907f90ebd8d464f9e3d291de93077110e97e236ca318134b23e4a6c38a42950fb7ba9060600160405180910390a350505050505050565b610dc0611b94565b6005546001600160a01b031615610dea5760405163422bc24960e11b815260040160405180910390fd5b600580546001600160a01b0319166001600160a01b0392909216919091179055565b6000856001600160a01b03166375f4f18e6040518163ffffffff1660e01b8152600401602060405180830381865afa158015610e4c573d6000803e3d6000fd5b505050506040513d601f19601f82011682018060405250810190610e709190612102565b6001600160a01b0316876001600160a01b031663fc0c546a6040518163ffffffff1660e01b8152600401602060405180830381865afa158015610eb7573d6000803e3d6000fd5b505050506040513d601f19601f82011682018060405250810190610edb9190612102565b6001600160a01b031614158015610fc65750856001600160a01b031663c451463b6040518163ffffffff1660e01b8152600401602060405180830381865afa158015610f2b573d6000803e3d6000fd5b505050506040513d601f19601f82011682018060405250810190610f4f9190612102565b6001600160a01b0316876001600160a01b031663fc0c546a6040518163ffffffff1660e01b8152600401602060405180830381865afa158015610f96573d6000803e3d6000fd5b505050506040513d601f19601f82011682018060405250810190610fba9190612102565b6001600160a01b031614155b1561112657856001600160a01b03166375f4f18e6040518163ffffffff1660e01b8152600401602060405180830381865afa158015611009573d6000803e3d6000fd5b505050506040513d601f19601f8201168201806040525081019061102d9190612102565b866001600160a01b031663c451463b6040518163ffffffff1660e01b8152600401602060405180830381865afa15801561106b573d6000803e3d6000fd5b505050506040513d601f19601f8201168201806040525081019061108f9190612102565b886001600160a01b031663fc0c546a6040518163ffffffff1660e01b8152600401602060405180830381865afa1580156110cd573d6000803e3d6000fd5b505050506040513d601f19601f820116820180604052508101906110f19190612102565b6040516330b370a160e21b81526001600160a01b0393841660048201529183166024830152909116604482015260640161064e565b6000866001600160a01b03166318160ddd6040518163ffffffff1660e01b8152600401602060405180830381865afa158015611166573d6000803e3d6000fd5b505050506040513d601f19601f8201168201806040525081019061118a91906120e9565b6040516309ab24eb60e41b81523360048201526001600160a01b03891690639ab24eb090602401602060405180830381865afa1580156111ce573d6000803e3d6000fd5b505050506040513d601f19601f820116820180604052508101906111f291906120e9565b60055460065460408051633afa78c760e11b815290516001600160a01b0393841693635496696b93811692638ae93f0b92918f16916375f4f18e916004808201926020929091908290030181865afa158015611252573d6000803e3d6000fd5b505050506040513d601f19601f820116820180604052508101906112769190612102565b8d6001600160a01b031663c451463b6040518163ffffffff1660e01b8152600401602060405180830381865afa1580156112b4573d6000803e3d6000fd5b505050506040513d601f19601f820116820180604052508101906112d89190612102565b6040516001600160e01b031960e085901b1681526001600160a01b03928316600482015291166024820152604401602060405180830381865afa158015611323573d6000803e3d6000fd5b505050506040513d601f19601f8201168201806040525081019061134791906120e9565b8c6001600160a01b031663fc0c546a6040518163ffffffff1660e01b8152600401602060405180830381865afa158015611385573d6000803e3d6000fd5b505050506040513d601f19601f820116820180604052508101906113a99190612102565b6040516001600160e01b031960e085901b16815260048101929092526001600160a01b03166024820152604401602060405180830381865afa1580156113f3573d6000803e3d6000fd5b505050506040513d601f19601f8201168201806040525081019061141791906120e9565b6114219190612135565b61142b919061214c565b60408051600481526024810182526020810180516001600160e01b0316630b58131b60e41b1790529051919250600091829182916001600160a01b038d1691611473916121f6565b600060405180830381855afa9150503d80600081146114ae576040519150601f19603f3d011682016040523d82523d6000602084013e6114b3565b606091505b509150915081156114d557808060200190518101906114d291906120e9565b92505b6000831180156114e457508284105b1561150257604051637469e8e560e11b815260040160405180910390fd5b600460009054906101000a90046001600160a01b03166001600160a01b03166346bd815b8c8d6001600160a01b031663fc0c546a6040518163ffffffff1660e01b8152600401602060405180830381865afa158015611565573d6000803e3d6000fd5b505050506040513d601f19601f820116820180604052508101906115899190612102565b8c8c8c8c6040518763ffffffff1660e01b81526004016115ae969594939291906122ce565b6020604051808303816000875af11580156115cd573d6000803e3d6000fd5b505050506040513d601f19601f820116820180604052508101906115f191906120e9565b9b9a5050505050505050505050565b6001600160a01b03938416600090815260026020908152604080832095835294815284822093861682529283528381209190941684529052902054151590565b600480546040516352e352f360e01b81526001600160a01b038581169382019390935260248101849052600092909116906352e352f390604401602060405180830381865afa158015611697573d6000803e3d6000fd5b505050506040513d601f19601f8201168201806040525081019061045a919061216e565b6116c3611b94565b6116cd6000611bee565b565b604051632d63f69360e01b8152600481018290526000906001600160a01b03841690632d63f69390602401602060405180830381865afa158015611717573d6000803e3d6000fd5b505050506040513d601f19601f8201168201806040525081019061173b91906120e9565b9050606481846001600160a01b031663c01f9e37856040518263ffffffff1660e01b815260040161176e91815260200190565b602060405180830381865afa15801561178b573d6000803e3d6000fd5b505050506040513d601f19601f820116820180604052508101906117af91906120e9565b6117b99190612361565b6117c4906050612135565b6117ce919061214c565b6117d890826121a6565b43116117fa57604051630c2da80960e41b81526004810183905260240161064e565b6001600160a01b038316600090815260036020908152604080832085845290915290205460ff16156118425760405163d33af09f60e01b81526004810183905260240161064e565b600480546001600160a01b0385811660008181526001602081815260408084208a8552909152918290209081015481546002909201549251633d6d3e0760e21b81529687019390935260248601889052604486019290925260648501919091526084840152169063f5b4f81c9060a401600060405180830381600087803b1580156118cc57600080fd5b505af11580156118e0573d6000803e3d6000fd5b5050506001600160a01b03909316600090815260036020908152604080832094835293905291909120805460ff191660011790555050565b611920611b94565b6006546001600160a01b03161561194a5760405163422bc24960e11b815260040160405180910390fd5b600680546001600160a01b0319166001600160a01b0392909216919091179055565b604051632d63f69360e01b81526004810182905260009081906001600160a01b03851690632d63f69390602401602060405180830381865afa1580156119b6573d6000803e3d6000fd5b505050506040513d601f19601f820116820180604052508101906119da91906120e9565b9050606481856001600160a01b031663c01f9e37866040518263ffffffff1660e01b8152600401611a0d91815260200190565b602060405180830381865afa158015611a2a573d6000803e3d6000fd5b505050506040513d601f19601f82011682018060405250810190611a4e91906120e9565b611a589190612361565b611a63906050612135565b611a6d919061214c565b611a7790826121a6565b949350505050565b6004805460405163d5fcce1160e01b81526001600160a01b03858116938201939093526024810184905291169063d5fcce1190604401600060405180830381600087803b158015611acf57600080fd5b505af1158015611ae3573d6000803e3d6000fd5b505050505050565b60405163c01f9e3760e01b8152600481018290526000906001600160a01b0384169063c01f9e3790602401610419565b611b23611b94565b6001600160a01b038116611b885760405162461bcd60e51b815260206004820152602660248201527f4f776e61626c653a206e6577206f776e657220697320746865207a65726f206160448201526564647265737360d01b606482015260840161064e565b611b9181611bee565b50565b6000546001600160a01b031633146116cd5760405162461bcd60e51b815260206004820181905260248201527f4f776e61626c653a2063616c6c6572206973206e6f7420746865206f776e6572604482015260640161064e565b600080546001600160a01b038381166001600160a01b0319831681178455604051919092169283917f8be0079c531659141344cd1fd0a4f28419497f9722a3daafe3b4186f6b6457e09190a35050565b6001600160a01b0381168114611b9157600080fd5b8035611c5e81611c3e565b919050565b60008060008060808587031215611c7957600080fd5b8435611c8481611c3e565b9350602085013592506040850135611c9b81611c3e565b91506060850135611cab81611c3e565b939692955090935050565b600060208284031215611cc857600080fd5b8135611cd381611c3e565b9392505050565b60008060408385031215611ced57600080fd5b8235611cf881611c3e565b946020939093013593505050565b634e487b7160e01b600052604160045260246000fd5b604051601f8201601f1916810167ffffffffffffffff81118282101715611d4557611d45611d06565b604052919050565b600067ffffffffffffffff821115611d6757611d67611d06565b5060051b60200190565b60008060008060808587031215611d8757600080fd5b8435611d9281611c3e565b93506020858101359350604086013560ff81168114611db057600080fd5b9250606086013567ffffffffffffffff811115611dcc57600080fd5b8601601f81018813611ddd57600080fd5b8035611df0611deb82611d4d565b611d1c565b81815260059190911b8201830190838101908a831115611e0f57600080fd5b928401925b82841015611e36578335611e2781611c3e565b82529284019290840190611e14565b979a9699509497505050505050565b600082601f830112611e5657600080fd5b81356020611e66611deb83611d4d565b82815260059290921b84018101918181019086841115611e8557600080fd5b8286015b84811015611ea9578035611e9c81611c3e565b8352918301918301611e89565b509695505050505050565b600082601f830112611ec557600080fd5b81356020611ed5611deb83611d4d565b82815260059290921b84018101918181019086841115611ef457600080fd5b8286015b84811015611ea95780358352918301918301611ef8565b600067ffffffffffffffff831115611f2957611f29611d06565b611f3c601f8401601f1916602001611d1c565b9050828152838383011115611f5057600080fd5b828260208301376000602084830101529392505050565b600082601f830112611f7857600080fd5b81356020611f88611deb83611d4d565b82815260059290921b84018101918181019086841115611fa757600080fd5b8286015b84811015611ea957803567ffffffffffffffff811115611fcb5760008081fd5b8701603f81018913611fdd5760008081fd5b611fee898683013560408401611f0f565b845250918301918301611fab565b600082601f83011261200d57600080fd5b61045a83833560208501611f0f565b60008060008060008060c0878903121561203557600080fd5b61203e87611c53565b955061204c60208801611c53565b9450604087013567ffffffffffffffff8082111561206957600080fd5b6120758a838b01611e45565b9550606089013591508082111561208b57600080fd5b6120978a838b01611eb4565b945060808901359150808211156120ad57600080fd5b6120b98a838b01611f67565b935060a08901359150808211156120cf57600080fd5b506120dc89828a01611ffc565b9150509295509295509295565b6000602082840312156120fb57600080fd5b5051919050565b60006020828403121561211457600080fd5b8151611cd381611c3e565b634e487b7160e01b600052601160045260246000fd5b808202811582820484141761045d5761045d61211f565b60008261216957634e487b7160e01b600052601260045260246000fd5b500490565b60006020828403121561218057600080fd5b81518015158114611cd357600080fd5b634e487b7160e01b600052603260045260246000fd5b8082018082111561045d5761045d61211f565b6000600182016121cb576121cb61211f565b5060010190565b60005b838110156121ed5781810151838201526020016121d5565b50506000910152565b600082516122088184602087016121d2565b9190910192915050565b600081518084526020808501945080840160005b8381101561224257815187529582019590820190600101612226565b509495945050505050565b600081518084526122658160208601602086016121d2565b601f01601f19169290920160200192915050565b600081518084526020808501808196508360051b8101915082860160005b858110156122c15782840389526122af84835161224d565b98850198935090840190600101612297565b5091979650505050505050565b600060c0820160018060a01b03808a1684526020818a168186015260c0604086015282895180855260e087019150828b01945060005b81811015612322578551851683529483019491830191600101612304565b50508581036060870152612336818a612212565b9350505050828103608084015261234d8186612279565b905082810360a084015261092e818561224d565b8181038181111561045d5761045d61211f56fea2646970667358221220a770ebbd12cd1a2a118c4e7d4cee5f08c1953f3bf4a76fcbae3ae73c48cc488f64736f6c63430008130033",
    "linkReferences": {}
  },
  "methodIdentifiers": {
    "areAllVotesCast(address,uint256)": "52e352f3",
    "continueCastingVotes(address,uint256)": "d5fcce11",
    "getVotingPower(address,uint256,address,address)": "2c52f7b9",
    "governanceExecutor()": "8fc98386",
    "hasVotedOnProposal(address,uint256,address,address)": "49e570b6",
    "liquidityManager()": "33827438",
    "owner()": "8da5cb5b",
    "poolManager()": "dc4c90d3",
    "proposalDeadline(address,uint256)": "e845a9e9",
    "proposalSnapshot(address,uint256)": "15871cce",
    "propose(address,address,address[],uint256[],bytes[],string)": "46bd815b",
    "proxyVote(address,uint256,uint8,address[])": "34532c1d",
    "proxyVotingDeadline(address,uint256)": "93a7a1f1",
    "renounceOwnership()": "715018a6",
    "setGovernanceExecutor(address)": "0f300300",
    "setLiquidityManager(address)": "3c1624d4",
    "setPoolManager(address)": "7aef6715",
    "startCastingVotes(address,uint256)": "75d7e54f",
    "tallies(address,uint256)": "161ebe35",
    "transferOwnership(address)": "f2fde38b",
    "voted(address,uint256,address,address)": "0de9cd33",
    "votesCast(address,uint256)": "46aafa3b"
  },
  "id": 68
}