{
  "abi": [
    {
      "inputs": [],
      "name": "GovernanceExecutor__Unauthorized",
      "type": "error"
    },
    {
      "anonymous": false,
      "inputs": [
        {
          "indexed": true,
          "internalType": "address",
          "name": "previousOwner",
          "type": "address"
        },
        {
          "indexed": true,
          "internalType": "address",
          "name": "newOwner",
          "type": "address"
        }
      ],
      "name": "OwnershipTransferred",
      "type": "event"
    },
    {
      "inputs": [
        {
          "internalType": "address",
          "name": "governorAddress",
          "type": "address"
        },
        {
          "internalType": "uint256",
          "name": "proposalId",
          "type": "uint256"
        }
      ],
      "name": "areAllVotesCast",
      "outputs": [
        {
          "internalType": "bool",
          "name": "",
          "type": "bool"
        }
      ],
      "stateMutability": "view",
      "type": "function"
    },
    {
      "inputs": [
        {
          "internalType": "contract IGovernor",
          "name": "governor",
          "type": "address"
        },
        {
          "internalType": "uint256",
          "name": "proposalId",
          "type": "uint256"
        },
        {
          "internalType": "uint256",
          "name": "forVotes",
          "type": "uint256"
        },
        {
          "internalType": "uint256",
          "name": "againstVotes",
          "type": "uint256"
        },
        {
          "internalType": "uint256",
          "name": "abstainVotes",
          "type": "uint256"
        }
      ],
      "name": "castVotes",
      "outputs": [],
      "stateMutability": "nonpayable",
      "type": "function"
    },
    {
      "inputs": [],
      "name": "clusterRegistry",
      "outputs": [
        {
          "internalType": "contract IClusterRegistry",
          "name": "",
          "type": "address"
        }
      ],
      "stateMutability": "view",
      "type": "function"
    },
    {
      "inputs": [
        {
          "internalType": "address",
          "name": "governorAddress",
          "type": "address"
        },
        {
          "internalType": "uint256",
          "name": "proposalId",
          "type": "uint256"
        }
      ],
      "name": "continueCastingVotes",
      "outputs": [],
      "stateMutability": "nonpayable",
      "type": "function"
    },
    {
      "inputs": [],
      "name": "governanceProxy",
      "outputs": [
        {
          "internalType": "contract IGovernanceProxy",
          "name": "",
          "type": "address"
        }
      ],
      "stateMutability": "view",
      "type": "function"
    },
    {
      "inputs": [],
      "name": "liquidityManager",
      "outputs": [
        {
          "internalType": "contract ILiquidityManager",
          "name": "",
          "type": "address"
        }
      ],
      "stateMutability": "view",
      "type": "function"
    },
    {
      "inputs": [],
      "name": "owner",
      "outputs": [
        {
          "internalType": "address",
          "name": "",
          "type": "address"
        }
      ],
      "stateMutability": "view",
      "type": "function"
    },
    {
      "inputs": [
        {
          "internalType": "contract IGovernor",
          "name": "governor",
          "type": "address"
        },
        {
          "internalType": "contract IERC20",
          "name": "votingToken",
          "type": "address"
        },
        {
          "internalType": "address[]",
          "name": "targets",
          "type": "address[]"
        },
        {
          "internalType": "uint256[]",
          "name": "values",
          "type": "uint256[]"
        },
        {
          "internalType": "bytes[]",
          "name": "calldatas",
          "type": "bytes[]"
        },
        {
          "internalType": "string",
          "name": "description",
          "type": "string"
        }
      ],
      "name": "propose",
      "outputs": [
        {
          "internalType": "uint256",
          "name": "",
          "type": "uint256"
        }
      ],
      "stateMutability": "nonpayable",
      "type": "function"
    },
    {
      "inputs": [],
      "name": "renounceOwnership",
      "outputs": [],
      "stateMutability": "nonpayable",
      "type": "function"
    },
    {
      "inputs": [
        {
          "internalType": "contract IClusterRegistry",
          "name": "_clusterRegistry",
          "type": "address"
        }
      ],
      "name": "setClusterRegistry",
      "outputs": [],
      "stateMutability": "nonpayable",
      "type": "function"
    },
    {
      "inputs": [
        {
          "internalType": "contract IGovernanceProxy",
          "name": "_governanceProxy",
          "type": "address"
        }
      ],
      "name": "setGovernanceProxy",
      "outputs": [],
      "stateMutability": "nonpayable",
      "type": "function"
    },
    {
      "inputs": [
        {
          "internalType": "contract ILiquidityManager",
          "name": "_liquidityManager",
          "type": "address"
        }
      ],
      "name": "setLiquidityManager",
      "outputs": [],
      "stateMutability": "nonpayable",
      "type": "function"
    },
    {
      "inputs": [
        {
          "internalType": "address",
          "name": "newOwner",
          "type": "address"
        }
      ],
      "name": "transferOwnership",
      "outputs": [],
      "stateMutability": "nonpayable",
      "type": "function"
    },
    {
      "inputs": [
        {
          "internalType": "address",
          "name": "",
          "type": "address"
        },
        {
          "internalType": "uint256",
          "name": "",
          "type": "uint256"
        }
      ],
      "name": "voteCastings",
      "outputs": [
        {
          "internalType": "contract IGovernor",
          "name": "governor",
          "type": "address"
        },
        {
          "internalType": "uint256",
          "name": "forVotes",
          "type": "uint256"
        },
        {
          "internalType": "uint256",
          "name": "againstVotes",
          "type": "uint256"
        },
        {
          "internalType": "uint256",
          "name": "abstainVotes",
          "type": "uint256"
        },
        {
          "internalType": "uint256",
          "name": "currentCluster",
          "type": "uint256"
        }
      ],
      "stateMutability": "view",
      "type": "function"
    }
  ],
  "bytecode": {
    "object": "0x608060405234801561001057600080fd5b5061001a3361001f565b61006f565b600080546001600160a01b038381166001600160a01b0319831681178455604051919092169283917f8be0079c531659141344cd1fd0a4f28419497f9722a3daafe3b4186f6b6457e09190a35050565b611d5e8061007e6000396000f3fe608060405234801561001057600080fd5b50600436106100ea5760003560e01c80637c2338ec1161008c578063afe3b8d911610066578063afe3b8d91461024c578063d5fcce111461025f578063f2fde38b14610272578063fd1ef5e91461028557600080fd5b80637c2338ec146101a65780638da5cb5b146101b95780639d54973a146101ca57600080fd5b80633c1624d4116100c85780633c1624d41461014757806346bd815b1461015a57806352e352f31461017b578063715018a61461019e57600080fd5b80630372e19b146100ef5780630ddfb51c146101045780633382743814610117575b600080fd5b6101026100fd3660046116dd565b610298565b005b610102610112366004611721565b610868565b60035461012a906001600160a01b031681565b6040516001600160a01b0390911681526020015b60405180910390f35b610102610155366004611721565b6108fc565b61016d61016836600461198c565b61098e565b60405190815260200161013e565b61018e610189366004611a59565b610ceb565b604051901515815260200161013e565b610102610d39565b60025461012a906001600160a01b031681565b6000546001600160a01b031661012a565b61021a6101d8366004611a59565b60016020818152600093845260408085209091529183529120805491810154600282015460038301546004909301546001600160a01b03909416939192909185565b604080516001600160a01b0390961686526020860194909452928401919091526060830152608082015260a00161013e565b60045461012a906001600160a01b031681565b61010261026d366004611a59565b610d4d565b610102610280366004611721565b611447565b610102610293366004611721565b6114c2565b6002546001600160a01b031633146102c357604051635d41d5d560e01b815260040160405180910390fd5b60006102d0848484611554565b9050600060016102df83611587565b6102ea906003611a9b565b6102f49190611ab2565b90506102fb810361030d5761030a600182611ab2565b90505b6000876001600160a01b031663fc0c546a6040518163ffffffff1660e01b8152600401602060405180830381865afa15801561034d573d6000803e3d6000fd5b505050506040513d601f19601f820116820180604052508101906103719190611ac5565b604051632d63f69360e01b8152600481018990529091506000906001600160a01b038a1690632d63f69390602401602060405180830381865afa1580156103bc573d6000803e3d6000fd5b505050506040513d601f19601f820116820180604052508101906103e09190611ae2565b60048054604051630246540360e61b81529293506000926001600160a01b0380871693633a46b1a8939091169163919500c091610425916102fb910190815260200190565b602060405180830381865afa158015610442573d6000803e3d6000fd5b505050506040513d601f19601f820116820180604052508101906104669190611ac5565b6040516001600160e01b031960e084901b1681526001600160a01b03909116600482015260248101859052604401602060405180830381865afa1580156104b1573d6000803e3d6000fd5b505050506040513d601f19601f820116820180604052508101906104d59190611ae2565b90508087106105c25760048054604051630246540360e61b81526102fb928101929092526001600160a01b03169063919500c090602401602060405180830381865afa158015610529573d6000803e3d6000fd5b505050506040513d601f19601f8201168201806040525081019061054d9190611ac5565b6001600160a01b031663c0ab2cc68b8b60006040518463ffffffff1660e01b815260040161057d93929190611afb565b600060405180830381600087803b15801561059757600080fd5b505af11580156105ab573d6000803e3d6000fd5b5050505080876105bb9190611ab2565b9650610794565b8088106106ad5760048054604051630246540360e61b81526102fb928101929092526001600160a01b03169063919500c090602401602060405180830381865afa158015610614573d6000803e3d6000fd5b505050506040513d601f19601f820116820180604052508101906106389190611ac5565b6001600160a01b031663c0ab2cc68b8b60016040518463ffffffff1660e01b815260040161066893929190611afb565b600060405180830381600087803b15801561068257600080fd5b505af1158015610696573d6000803e3d6000fd5b5050505080886106a69190611ab2565b9750610794565b8086106107945760048054604051630246540360e61b81526102fb928101929092526001600160a01b03169063919500c090602401602060405180830381865afa1580156106ff573d6000803e3d6000fd5b505050506040513d601f19601f820116820180604052508101906107239190611ac5565b6001600160a01b031663c0ab2cc68b8b60026040518463ffffffff1660e01b815260040161075393929190611afb565b600060405180830381600087803b15801561076d57600080fd5b505af1158015610781573d6000803e3d6000fd5b5050505080866107919190611ab2565b95505b6040518060a001604052808b6001600160a01b0316815260200189815260200188815260200187815260200185815250600160008c6001600160a01b03166001600160a01b0316815260200190815260200160002060008b815260200190815260200160002060008201518160000160006101000a8154816001600160a01b0302191690836001600160a01b031602179055506020820151816001015560408201518160020155606082015181600301556080820151816004015590505061085c8a8a610d4d565b50505050505050505050565b6108706115aa565b610891604051806060016040528060278152602001611cb360279139611604565b6004546001600160a01b0316156108bb57604051635d41d5d560e01b815260040160405180910390fd5b600480546001600160a01b0319166001600160a01b03831617815560408051808201909152908152637365742160e01b60208201526108f990611604565b50565b6109046115aa565b610925604051806060016040528060288152602001611d0160289139611604565b6003546001600160a01b03161561094f57604051635d41d5d560e01b815260040160405180910390fd5b600380546001600160a01b0319166001600160a01b0383161790556040805180820190915260048152637365742160e01b60208201526108f990611604565b6002546000906001600160a01b031633146109bc57604051635d41d5d560e01b815260040160405180910390fd5b60035460405163ccc0c8a160e01b81526001600160a01b038881166004830152600092169063ccc0c8a190602401602060405180830381865afa158015610a07573d6000803e3d6000fd5b505050506040513d601f19601f82011682018060405250810190610a2b9190611ae2565b905060008115801590610be3575060048054604051630246540360e61b81529182018490526001600160a01b03169063919500c090602401602060405180830381865afa158015610a80573d6000803e3d6000fd5b505050506040513d601f19601f82011682018060405250810190610aa49190611ac5565b6001600160a01b03166359b6a0c96040518163ffffffff1660e01b8152600401602060405180830381865afa158015610ae1573d6000803e3d6000fd5b505050506040513d601f19601f82011682018060405250810190610b059190611ae2565b6004546001600160a01b031663919500c0610b21600186611ab2565b6040518263ffffffff1660e01b8152600401610b3f91815260200190565b602060405180830381865afa158015610b5c573d6000803e3d6000fd5b505050506040513d601f19601f82011682018060405250810190610b809190611ac5565b6001600160a01b03166359b6a0c96040518163ffffffff1660e01b8152600401602060405180830381865afa158015610bbd573d6000803e3d6000fd5b505050506040513d601f19601f82011682018060405250810190610be19190611ae2565b115b15610bfa57610bf3600183611ab2565b9050610bfd565b50805b60048054604051630246540360e61b81529182018390526001600160a01b03169063919500c090602401602060405180830381865afa158015610c44573d6000803e3d6000fd5b505050506040513d601f19601f82011682018060405250810190610c689190611ac5565b6001600160a01b031663c50adadf8a898989896040518663ffffffff1660e01b8152600401610c9b959493929190611bb7565b6020604051808303816000875af1158015610cba573d6000803e3d6000fd5b505050506040513d601f19601f82011682018060405250810190610cde9190611ae2565b9998505050505050505050565b6001600160a01b0382166000908152600160208181526040808420858552909152822090810154158015610d2157506002810154155b8015610d2f57506003810154155b9150505b92915050565b610d416115aa565b610d4b6000611647565b565b6001600160a01b03821660009081526001602090815260408083208484529091528120905b600019826004015414158015610d885750606081105b1561144157815460408051637e062a3560e11b815290516000926001600160a01b03169163fc0c546a9160048083019260209291908290030181865afa158015610dd6573d6000803e3d6000fd5b505050506040513d601f19601f82011682018060405250810190610dfa9190611ac5565b8354604051632d63f69360e01b8152600481018790529192506000916001600160a01b0390911690632d63f69390602401602060405180830381865afa158015610e48573d6000803e3d6000fd5b505050506040513d601f19601f82011682018060405250810190610e6c9190611ae2565b6004805486820154604051630246540360e61b8152928301529192506000916001600160a01b0385811692633a46b1a892919091169063919500c090602401602060405180830381865afa158015610ec8573d6000803e3d6000fd5b505050506040513d601f19601f82011682018060405250810190610eec9190611ac5565b6040516001600160e01b031960e084901b1681526001600160a01b03909116600482015260248101859052604401602060405180830381865afa158015610f37573d6000803e3d6000fd5b505050506040513d601f19601f82011682018060405250810190610f5b9190611ae2565b6004805487820154604051630246540360e61b81529283015291925060009183916001600160a01b039091169063919500c090602401602060405180830381865afa158015610fae573d6000803e3d6000fd5b505050506040513d601f19601f82011682018060405250810190610fd29190611ac5565b6001600160a01b03166359b6a0c96040518163ffffffff1660e01b8152600401602060405180830381865afa15801561100f573d6000803e3d6000fd5b505050506040513d601f19601f820116820180604052508101906110339190611ae2565b1061103e578161110c565b6004805487820154604051630246540360e61b8152928301526001600160a01b03169063919500c090602401602060405180830381865afa158015611087573d6000803e3d6000fd5b505050506040513d601f19601f820116820180604052508101906110ab9190611ac5565b6001600160a01b03166359b6a0c96040518163ffffffff1660e01b8152600401602060405180830381865afa1580156110e8573d6000803e3d6000fd5b505050506040513d601f19601f8201168201806040525081019061110c9190611ae2565b90508086600201541061120c576004805487820154604051630246540360e61b8152928301526001600160a01b03169063919500c090602401602060405180830381865afa158015611162573d6000803e3d6000fd5b505050506040513d601f19601f820116820180604052508101906111869190611ac5565b8654604051636055966360e11b81526001600160a01b039283169263c0ab2cc6926111bb929116908b90600090600401611afb565b600060405180830381600087803b1580156111d557600080fd5b505af11580156111e9573d6000803e3d6000fd5b50505050808660020160008282546112019190611ab2565b909155506113f89050565b808660010154106112ff576004805487820154604051630246540360e61b8152928301526001600160a01b03169063919500c090602401602060405180830381865afa158015611260573d6000803e3d6000fd5b505050506040513d601f19601f820116820180604052508101906112849190611ac5565b8654604051636055966360e11b81526001600160a01b039283169263c0ab2cc6926112b9929116908b90600190600401611afb565b600060405180830381600087803b1580156112d357600080fd5b505af11580156112e7573d6000803e3d6000fd5b50505050808660010160008282546112019190611ab2565b808660030154106113f8576004805487820154604051630246540360e61b8152928301526001600160a01b03169063919500c090602401602060405180830381865afa158015611353573d6000803e3d6000fd5b505050506040513d601f19601f820116820180604052508101906113779190611ac5565b8654604051636055966360e11b81526001600160a01b039283169263c0ab2cc6926113ac929116908b90600290600401611afb565b600060405180830381600087803b1580156113c657600080fd5b505af11580156113da573d6000803e3d6000fd5b50505050808660030160008282546113f29190611ab2565b90915550505b6004860154156114225760018660040160008282546114179190611ab2565b9091555061142b9050565b60001960048701555b611436600186611c73565b945050505050610d72565b50505050565b61144f6115aa565b6001600160a01b0381166114b95760405162461bcd60e51b815260206004820152602660248201527f4f776e61626c653a206e6577206f776e657220697320746865207a65726f206160448201526564647265737360d01b60648201526084015b60405180910390fd5b6108f981611647565b6114ca6115aa565b6114eb604051806060016040528060278152602001611cda60279139611604565b6002546001600160a01b03161561151557604051635d41d5d560e01b815260040160405180910390fd5b600280546001600160a01b0319166001600160a01b0383161790556040805180820190915260048152637365742160e01b60208201526108f990611604565b60008284116115705781831161156a578161157f565b8261157f565b81841161157d578161157f565b835b949350505050565b6000805b8215610d335760019290921c91806115a281611c86565b91505061158b565b6000546001600160a01b03163314610d4b5760405162461bcd60e51b815260206004820181905260248201527f4f776e61626c653a2063616c6c6572206973206e6f7420746865206f776e657260448201526064016114b0565b6108f9816040516024016116189190611c9f565b60408051601f198184030181529190526020810180516001600160e01b031663104c13eb60e21b179052611697565b600080546001600160a01b038381166001600160a01b0319831681178455604051919092169283917f8be0079c531659141344cd1fd0a4f28419497f9722a3daafe3b4186f6b6457e09190a35050565b80516a636f6e736f6c652e6c6f67602083016000808483855afa5050505050565b6001600160a01b03811681146108f957600080fd5b80356116d8816116b8565b919050565b600080600080600060a086880312156116f557600080fd5b8535611700816116b8565b97602087013597506040870135966060810135965060800135945092505050565b60006020828403121561173357600080fd5b813561173e816116b8565b9392505050565b634e487b7160e01b600052604160045260246000fd5b604051601f8201601f1916810167ffffffffffffffff8111828210171561178457611784611745565b604052919050565b600067ffffffffffffffff8211156117a6576117a6611745565b5060051b60200190565b600082601f8301126117c157600080fd5b813560206117d66117d18361178c565b61175b565b82815260059290921b840181019181810190868411156117f557600080fd5b8286015b8481101561181957803561180c816116b8565b83529183019183016117f9565b509695505050505050565b600082601f83011261183557600080fd5b813560206118456117d18361178c565b82815260059290921b8401810191818101908684111561186457600080fd5b8286015b848110156118195780358352918301918301611868565b600067ffffffffffffffff83111561189957611899611745565b6118ac601f8401601f191660200161175b565b90508281528383830111156118c057600080fd5b828260208301376000602084830101529392505050565b600082601f8301126118e857600080fd5b813560206118f86117d18361178c565b82815260059290921b8401810191818101908684111561191757600080fd5b8286015b8481101561181957803567ffffffffffffffff81111561193b5760008081fd5b8701603f8101891361194d5760008081fd5b61195e89868301356040840161187f565b84525091830191830161191b565b600082601f83011261197d57600080fd5b61173e8383356020850161187f565b60008060008060008060c087890312156119a557600080fd5b6119ae876116cd565b95506119bc602088016116cd565b9450604087013567ffffffffffffffff808211156119d957600080fd5b6119e58a838b016117b0565b955060608901359150808211156119fb57600080fd5b611a078a838b01611824565b94506080890135915080821115611a1d57600080fd5b611a298a838b016118d7565b935060a0890135915080821115611a3f57600080fd5b50611a4c89828a0161196c565b9150509295509295509295565b60008060408385031215611a6c57600080fd5b8235611a77816116b8565b946020939093013593505050565b634e487b7160e01b600052601160045260246000fd5b8082028115828204841417610d3357610d33611a85565b81810381811115610d3357610d33611a85565b600060208284031215611ad757600080fd5b815161173e816116b8565b600060208284031215611af457600080fd5b5051919050565b6001600160a01b03939093168352602083019190915260ff16604082015260600190565b6000815180845260005b81811015611b4557602081850181015186830182015201611b29565b506000602082860101526020601f19601f83011685010191505092915050565b6000815180845260208085019450848260051b860182860160005b85811015611baa578383038952611b98838351611b1f565b98850198925090840190600101611b80565b5090979650505050505050565b6001600160a01b03868116825260a0602080840182905287519184018290526000928882019290919060c0860190855b81811015611c05578551851683529483019491830191600101611be7565b5050858103604087015288518082529082019350915080880160005b83811015611c3d57815185529382019390820190600101611c21565b505050508281036060840152611c538186611b65565b90508281036080840152611c678185611b1f565b98975050505050505050565b80820180821115610d3357610d33611a85565b600060018201611c9857611c98611a85565b5060010190565b60208152600061173e6020830184611b1f56fe0a476f7665726e616e63654578656375746f723a3a736574436c757374657252656769737472790a476f7665726e616e63654578656375746f723a3a736574476f7665726e616e636550726f78790a476f7665726e616e63654578656375746f723a3a7365744c69717569646974794d616e61676572a2646970667358221220d9ea6dbc68d2c1e74895639c920c2c523033e238d40c152f6d5e11ebfe4264dd64736f6c63430008130033",
    "linkReferences": {}
  },
  "methodIdentifiers": {
    "areAllVotesCast(address,uint256)": "52e352f3",
    "castVotes(address,uint256,uint256,uint256,uint256)": "0372e19b",
    "clusterRegistry()": "afe3b8d9",
    "continueCastingVotes(address,uint256)": "d5fcce11",
    "governanceProxy()": "7c2338ec",
    "liquidityManager()": "33827438",
    "owner()": "8da5cb5b",
    "propose(address,address,address[],uint256[],bytes[],string)": "46bd815b",
    "renounceOwnership()": "715018a6",
    "setClusterRegistry(address)": "0ddfb51c",
    "setGovernanceProxy(address)": "fd1ef5e9",
    "setLiquidityManager(address)": "3c1624d4",
    "transferOwnership(address)": "f2fde38b",
    "voteCastings(address,uint256)": "9d54973a"
  },
  "id": 68
}