{
  "abi": [
    {
      "inputs": [
        {
          "internalType": "address",
          "name": "user",
          "type": "address"
        },
        {
          "internalType": "uint256",
          "name": "proposalId",
          "type": "uint256"
        }
      ],
      "name": "GovernanceProxy__AlreadyVoted",
      "type": "error"
    },
    {
      "inputs": [
        {
          "internalType": "contract IERC20",
          "name": "thisToken",
          "type": "address"
        },
        {
          "internalType": "contract IERC20",
          "name": "thatToken",
          "type": "address"
        },
        {
          "internalType": "contract IERC20",
          "name": "votingToken",
          "type": "address"
        }
      ],
      "name": "GovernanceProxy__InvalidLPToken",
      "type": "error"
    },
    {
      "inputs": [
        {
          "internalType": "uint8",
          "name": "option",
          "type": "uint8"
        }
      ],
      "name": "GovernanceProxy__InvalidVoteOption",
      "type": "error"
    },
    {
      "inputs": [],
      "name": "GovernanceProxy__ProposalThresholdNotMet",
      "type": "error"
    },
    {
      "inputs": [],
      "name": "GovernanceProxy__Unauthorized",
      "type": "error"
    },
    {
      "inputs": [
        {
          "internalType": "uint256",
          "name": "proposalId",
          "type": "uint256"
        }
      ],
      "name": "GovernanceProxy__VotesAlreadyCast",
      "type": "error"
    },
    {
      "inputs": [
        {
          "internalType": "uint256",
          "name": "proposalId",
          "type": "uint256"
        }
      ],
      "name": "GovernanceProxy__VotingNotElapsed",
      "type": "error"
    },
    {
      "inputs": [
        {
          "internalType": "uint256",
          "name": "proposalId",
          "type": "uint256"
        }
      ],
      "name": "GovernanceProxy__VotingNotStarted",
      "type": "error"
    },
    {
      "anonymous": false,
      "inputs": [
        {
          "indexed": true,
          "internalType": "address",
          "name": "previousOwner",
          "type": "address"
        },
        {
          "indexed": true,
          "internalType": "address",
          "name": "newOwner",
          "type": "address"
        }
      ],
      "name": "OwnershipTransferred",
      "type": "event"
    },
    {
      "anonymous": false,
      "inputs": [
        {
          "indexed": true,
          "internalType": "address",
          "name": "voter",
          "type": "address"
        },
        {
          "indexed": true,
          "internalType": "contract IGovernor",
          "name": "governor",
          "type": "address"
        },
        {
          "indexed": false,
          "internalType": "uint256",
          "name": "proposalId",
          "type": "uint256"
        },
        {
          "indexed": false,
          "internalType": "uint8",
          "name": "support",
          "type": "uint8"
        },
        {
          "indexed": false,
          "internalType": "uint256",
          "name": "weight",
          "type": "uint256"
        }
      ],
      "name": "ProxyVote",
      "type": "event"
    },
    {
      "inputs": [
        {
          "internalType": "contract IGovernor",
          "name": "governor",
          "type": "address"
        },
        {
          "internalType": "uint256",
          "name": "proposalId",
          "type": "uint256"
        }
      ],
      "name": "castAggregateVotes",
      "outputs": [],
      "stateMutability": "nonpayable",
      "type": "function"
    },
    {
      "inputs": [
        {
          "internalType": "address",
          "name": "voter",
          "type": "address"
        },
        {
          "internalType": "uint256",
          "name": "snapshot",
          "type": "uint256"
        },
        {
          "internalType": "contract ILPToken",
          "name": "lpToken",
          "type": "address"
        },
        {
          "internalType": "contract IERC20",
          "name": "votingToken",
          "type": "address"
        }
      ],
      "name": "getVotingPower",
      "outputs": [
        {
          "internalType": "uint256",
          "name": "votingPower",
          "type": "uint256"
        }
      ],
      "stateMutability": "view",
      "type": "function"
    },
    {
      "inputs": [],
      "name": "governanceExecutor",
      "outputs": [
        {
          "internalType": "contract IGovernanceExecutor",
          "name": "",
          "type": "address"
        }
      ],
      "stateMutability": "view",
      "type": "function"
    },
    {
      "inputs": [
        {
          "internalType": "contract IGovernor",
          "name": "governor",
          "type": "address"
        },
        {
          "internalType": "uint256",
          "name": "proposalId",
          "type": "uint256"
        },
        {
          "internalType": "address",
          "name": "voter",
          "type": "address"
        },
        {
          "internalType": "contract ILPToken",
          "name": "lpToken",
          "type": "address"
        }
      ],
      "name": "hasVotedOnProposal",
      "outputs": [
        {
          "internalType": "bool",
          "name": "",
          "type": "bool"
        }
      ],
      "stateMutability": "view",
      "type": "function"
    },
    {
      "inputs": [],
      "name": "liquidityManager",
      "outputs": [
        {
          "internalType": "contract ILiquidityManager",
          "name": "",
          "type": "address"
        }
      ],
      "stateMutability": "view",
      "type": "function"
    },
    {
      "inputs": [],
      "name": "owner",
      "outputs": [
        {
          "internalType": "address",
          "name": "",
          "type": "address"
        }
      ],
      "stateMutability": "view",
      "type": "function"
    },
    {
      "inputs": [],
      "name": "poolManager",
      "outputs": [
        {
          "internalType": "contract IPoolManager",
          "name": "",
          "type": "address"
        }
      ],
      "stateMutability": "view",
      "type": "function"
    },
    {
      "inputs": [
        {
          "internalType": "contract IGovernor",
          "name": "governor",
          "type": "address"
        },
        {
          "internalType": "contract ILPToken",
          "name": "lpToken",
          "type": "address"
        },
        {
          "internalType": "address[]",
          "name": "targets",
          "type": "address[]"
        },
        {
          "internalType": "uint256[]",
          "name": "values",
          "type": "uint256[]"
        },
        {
          "internalType": "bytes[]",
          "name": "calldatas",
          "type": "bytes[]"
        },
        {
          "internalType": "string",
          "name": "description",
          "type": "string"
        }
      ],
      "name": "propose",
      "outputs": [
        {
          "internalType": "uint256",
          "name": "proposalId",
          "type": "uint256"
        }
      ],
      "stateMutability": "nonpayable",
      "type": "function"
    },
    {
      "inputs": [
        {
          "internalType": "contract IGovernor",
          "name": "governor",
          "type": "address"
        },
        {
          "internalType": "uint256",
          "name": "proposalId",
          "type": "uint256"
        },
        {
          "internalType": "uint8",
          "name": "support",
          "type": "uint8"
        },
        {
          "internalType": "contract ILPToken[]",
          "name": "lpTokens",
          "type": "address[]"
        }
      ],
      "name": "proxyVote",
      "outputs": [],
      "stateMutability": "nonpayable",
      "type": "function"
    },
    {
      "inputs": [],
      "name": "renounceOwnership",
      "outputs": [],
      "stateMutability": "nonpayable",
      "type": "function"
    },
    {
      "inputs": [
        {
          "internalType": "contract IGovernanceExecutor",
          "name": "_governanceExecutor",
          "type": "address"
        }
      ],
      "name": "setGovernanceExecutor",
      "outputs": [],
      "stateMutability": "nonpayable",
      "type": "function"
    },
    {
      "inputs": [
        {
          "internalType": "contract ILiquidityManager",
          "name": "_liquidityManager",
          "type": "address"
        }
      ],
      "name": "setLiquidityManager",
      "outputs": [],
      "stateMutability": "nonpayable",
      "type": "function"
    },
    {
      "inputs": [
        {
          "internalType": "contract IPoolManager",
          "name": "_poolManager",
          "type": "address"
        }
      ],
      "name": "setPoolManager",
      "outputs": [],
      "stateMutability": "nonpayable",
      "type": "function"
    },
    {
      "inputs": [
        {
          "internalType": "contract IGovernor",
          "name": "",
          "type": "address"
        },
        {
          "internalType": "uint256",
          "name": "",
          "type": "uint256"
        }
      ],
      "name": "tallies",
      "outputs": [
        {
          "internalType": "uint256",
          "name": "againstVotes",
          "type": "uint256"
        },
        {
          "internalType": "uint256",
          "name": "forVotes",
          "type": "uint256"
        },
        {
          "internalType": "uint256",
          "name": "abstainVotes",
          "type": "uint256"
        }
      ],
      "stateMutability": "view",
      "type": "function"
    },
    {
      "inputs": [
        {
          "internalType": "address",
          "name": "newOwner",
          "type": "address"
        }
      ],
      "name": "transferOwnership",
      "outputs": [],
      "stateMutability": "nonpayable",
      "type": "function"
    },
    {
      "inputs": [
        {
          "internalType": "contract IGovernor",
          "name": "",
          "type": "address"
        },
        {
          "internalType": "uint256",
          "name": "",
          "type": "uint256"
        },
        {
          "internalType": "address",
          "name": "",
          "type": "address"
        },
        {
          "internalType": "contract ILPToken",
          "name": "",
          "type": "address"
        }
      ],
      "name": "voted",
      "outputs": [
        {
          "internalType": "uint256",
          "name": "",
          "type": "uint256"
        }
      ],
      "stateMutability": "view",
      "type": "function"
    },
    {
      "inputs": [
        {
          "internalType": "contract IGovernor",
          "name": "",
          "type": "address"
        },
        {
          "internalType": "uint256",
          "name": "",
          "type": "uint256"
        }
      ],
      "name": "votesCast",
      "outputs": [
        {
          "internalType": "bool",
          "name": "",
          "type": "bool"
        }
      ],
      "stateMutability": "view",
      "type": "function"
    }
  ],
  "bytecode": {
    "object": "0x608060405234801561001057600080fd5b5061001a3361001f565b61006f565b600080546001600160a01b038381166001600160a01b0319831681178455604051919092169283917f8be0079c531659141344cd1fd0a4f28419497f9722a3daafe3b4186f6b6457e09190a35050565b6120c68061007e6000396000f3fe608060405234801561001057600080fd5b506004361061010b5760003560e01c806346bd815b116100a25780637aef6715116100715780637aef6715146102a65780638da5cb5b146102b95780638fc98386146102ca578063dc4c90d3146102dd578063f2fde38b146102f057600080fd5b806346bd815b1461026557806349e570b6146102785780634ce1e8801461028b578063715018a61461029e57600080fd5b806333827438116100de57806333827438146101d657806334532c1d146102015780633c1624d41461021457806346aafa3b1461022757600080fd5b80630de9cd33146101105780630f3003001461015d578063161ebe35146101725780632c52f7b9146101c3575b600080fd5b61014a61011e36600461193c565b600260209081526000948552604080862082529385528385208152918452828420909152825290205481565b6040519081526020015b60405180910390f35b61017061016b36600461198f565b610303565b005b6101a86101803660046119b3565b6001602081815260009384526040808520909152918352912080549181015460029091015483565b60408051938452602084019290925290820152606001610154565b61014a6101d136600461193c565b610397565b6005546101e9906001600160a01b031681565b6040516001600160a01b039091168152602001610154565b61017061020f366004611a4a565b61086f565b61017061022236600461198f565b610bc1565b6102556102353660046119b3565b600360209081526000928352604080842090915290825290205460ff1681565b6040519015158152602001610154565b61014a610273366004611cf5565b610c53565b61025561028636600461193c565b611447565b6101706102993660046119b3565b611487565b6101706116d0565b6101706102b436600461198f565b6116e4565b6000546001600160a01b03166101e9565b6004546101e9906001600160a01b031681565b6006546101e9906001600160a01b031681565b6101706102fe36600461198f565b611793565b61030b611809565b61032c60405180606001604052806027815260200161206a60279139611863565b6004546001600160a01b0316156103565760405163422bc24960e11b815260040160405180910390fd5b600480546001600160a01b0319166001600160a01b03831617815560408051808201909152908152637365742160e01b602082015261039490611863565b50565b6000826001600160a01b03166375f4f18e6040518163ffffffff1660e01b8152600401602060405180830381865afa1580156103d7573d6000803e3d6000fd5b505050506040513d601f19601f820116820180604052508101906103fb9190611dc2565b6001600160a01b0316826001600160a01b03161461058b57826001600160a01b031663c451463b6040518163ffffffff1660e01b8152600401602060405180830381865afa158015610451573d6000803e3d6000fd5b505050506040513d601f19601f820116820180604052508101906104759190611dc2565b6001600160a01b0316826001600160a01b03161461058b57826001600160a01b03166375f4f18e6040518163ffffffff1660e01b8152600401602060405180830381865afa1580156104cb573d6000803e3d6000fd5b505050506040513d601f19601f820116820180604052508101906104ef9190611dc2565b836001600160a01b031663c451463b6040518163ffffffff1660e01b8152600401602060405180830381865afa15801561052d573d6000803e3d6000fd5b505050506040513d601f19601f820116820180604052508101906105519190611dc2565b6040516330b370a160e21b81526001600160a01b039283166004820152908216602482015290831660448201526064015b60405180910390fd5b6000600660009054906101000a90046001600160a01b03166001600160a01b0316638ae93f0b856001600160a01b03166375f4f18e6040518163ffffffff1660e01b8152600401602060405180830381865afa1580156105ef573d6000803e3d6000fd5b505050506040513d601f19601f820116820180604052508101906106139190611dc2565b866001600160a01b031663c451463b6040518163ffffffff1660e01b8152600401602060405180830381865afa158015610651573d6000803e3d6000fd5b505050506040513d601f19601f820116820180604052508101906106759190611dc2565b6040516001600160e01b031960e085901b1681526001600160a01b03928316600482015291166024820152604401602060405180830381865afa1580156106c0573d6000803e3d6000fd5b505050506040513d601f19601f820116820180604052508101906106e49190611ddf565b60055460405162ce531d60e61b8152600481018390526001600160a01b0386811660248301526044820189905292935060009290911690633394c74090606401602060405180830381865afa158015610741573d6000803e3d6000fd5b505050506040513d601f19601f820116820180604052508101906107659190611ddf565b604051630748d63560e31b81526001600160a01b03898116600483015260248201899052919250600091871690633a46b1a890604401602060405180830381865afa1580156107b8573d6000803e3d6000fd5b505050506040513d601f19601f820116820180604052508101906107dc9190611ddf565b604051632394e7a360e21b8152600481018990529091506000906001600160a01b03881690638e539e8c90602401602060405180830381865afa158015610827573d6000803e3d6000fd5b505050506040513d601f19601f8201168201806040525081019061084b9190611ddf565b9050806108588385611e0e565b6108629190611e2b565b9998505050505050505050565b60028260ff161115610899576040516372a5301f60e11b815260ff83166004820152602401610582565b604051632d63f69360e01b8152600481018490526000906001600160a01b03861690632d63f69390602401602060405180830381865afa1580156108e1573d6000803e3d6000fd5b505050506040513d601f19601f820116820180604052508101906109059190611ddf565b905080431161092a57604051632a3c3a1560e11b815260048101859052602401610582565b6000805b8351811015610a995761095c87873387858151811061094f5761094f611e4d565b6020026020010151611447565b15610983576040516390ef2f7760e01b815233600482015260248101879052604401610582565b6000610a06338587858151811061099c5761099c611e4d565b60200260200101518b6001600160a01b031663fc0c546a6040518163ffffffff1660e01b8152600401602060405180830381865afa1580156109e2573d6000803e3d6000fd5b505050506040513d601f19601f820116820180604052508101906101d19190611dc2565b9050610a128184611e63565b6001600160a01b03891660009081526002602090815260408083208b84528252808320338452909152812087519295508392909190889086908110610a5957610a59611e4d565b60200260200101516001600160a01b03166001600160a01b0316815260200190815260200160002081905550508080610a9190611e76565b91505061092e565b508360ff16600003610ae3576001600160a01b038616600090815260016020908152604080832088845290915281208054839290610ad8908490611e63565b90915550610b699050565b8360ff16600103610b22576001600160a01b03861660009081526001602081815260408084208985529091528220018054839290610ad8908490611e63565b8360ff16600203610b69576001600160a01b038616600090815260016020908152604080832088845290915281206002018054839290610b63908490611e63565b90915550505b6040805186815260ff861660208201529081018290526001600160a01b0387169033907f90ebd8d464f9e3d291de93077110e97e236ca318134b23e4a6c38a42950fb7ba9060600160405180910390a3505050505050565b610bc9611809565b610bea60405180606001604052806025815260200161204560259139611863565b6005546001600160a01b031615610c145760405163422bc24960e11b815260040160405180910390fd5b600580546001600160a01b0319166001600160a01b0383161790556040805180820190915260048152637365742160e01b602082015261039490611863565b6000856001600160a01b03166375f4f18e6040518163ffffffff1660e01b8152600401602060405180830381865afa158015610c93573d6000803e3d6000fd5b505050506040513d601f19601f82011682018060405250810190610cb79190611dc2565b6001600160a01b0316876001600160a01b031663fc0c546a6040518163ffffffff1660e01b8152600401602060405180830381865afa158015610cfe573d6000803e3d6000fd5b505050506040513d601f19601f82011682018060405250810190610d229190611dc2565b6001600160a01b031614158015610e0d5750856001600160a01b031663c451463b6040518163ffffffff1660e01b8152600401602060405180830381865afa158015610d72573d6000803e3d6000fd5b505050506040513d601f19601f82011682018060405250810190610d969190611dc2565b6001600160a01b0316876001600160a01b031663fc0c546a6040518163ffffffff1660e01b8152600401602060405180830381865afa158015610ddd573d6000803e3d6000fd5b505050506040513d601f19601f82011682018060405250810190610e019190611dc2565b6001600160a01b031614155b15610f6d57856001600160a01b03166375f4f18e6040518163ffffffff1660e01b8152600401602060405180830381865afa158015610e50573d6000803e3d6000fd5b505050506040513d601f19601f82011682018060405250810190610e749190611dc2565b866001600160a01b031663c451463b6040518163ffffffff1660e01b8152600401602060405180830381865afa158015610eb2573d6000803e3d6000fd5b505050506040513d601f19601f82011682018060405250810190610ed69190611dc2565b886001600160a01b031663fc0c546a6040518163ffffffff1660e01b8152600401602060405180830381865afa158015610f14573d6000803e3d6000fd5b505050506040513d601f19601f82011682018060405250810190610f389190611dc2565b6040516330b370a160e21b81526001600160a01b03938416600482015291831660248301529091166044820152606401610582565b6000866001600160a01b03166318160ddd6040518163ffffffff1660e01b8152600401602060405180830381865afa158015610fad573d6000803e3d6000fd5b505050506040513d601f19601f82011682018060405250810190610fd19190611ddf565b6040516309ab24eb60e41b81523360048201526001600160a01b03891690639ab24eb090602401602060405180830381865afa158015611015573d6000803e3d6000fd5b505050506040513d601f19601f820116820180604052508101906110399190611ddf565b60055460065460408051633afa78c760e11b815290516001600160a01b0393841693635496696b93811692638ae93f0b92918f16916375f4f18e916004808201926020929091908290030181865afa158015611099573d6000803e3d6000fd5b505050506040513d601f19601f820116820180604052508101906110bd9190611dc2565b8d6001600160a01b031663c451463b6040518163ffffffff1660e01b8152600401602060405180830381865afa1580156110fb573d6000803e3d6000fd5b505050506040513d601f19601f8201168201806040525081019061111f9190611dc2565b6040516001600160e01b031960e085901b1681526001600160a01b03928316600482015291166024820152604401602060405180830381865afa15801561116a573d6000803e3d6000fd5b505050506040513d601f19601f8201168201806040525081019061118e9190611ddf565b8c6001600160a01b031663fc0c546a6040518163ffffffff1660e01b8152600401602060405180830381865afa1580156111cc573d6000803e3d6000fd5b505050506040513d601f19601f820116820180604052508101906111f09190611dc2565b6040516001600160e01b031960e085901b16815260048101929092526001600160a01b03166024820152604401602060405180830381865afa15801561123a573d6000803e3d6000fd5b505050506040513d601f19601f8201168201806040525081019061125e9190611ddf565b6112689190611e0e565b6112729190611e2b565b60408051600481526024810182526020810180516001600160e01b0316630b58131b60e41b1790529051919250600091829182916001600160a01b038d16916112ba91611eb3565b600060405180830381855afa9150503d80600081146112f5576040519150601f19603f3d011682016040523d82523d6000602084013e6112fa565b606091505b5091509150811561131c57808060200190518101906113199190611ddf565b92505b60008311801561132b57508284105b1561134957604051637469e8e560e11b815260040160405180910390fd5b600460009054906101000a90046001600160a01b03166001600160a01b03166346bd815b8c8d6001600160a01b031663fc0c546a6040518163ffffffff1660e01b8152600401602060405180830381865afa1580156113ac573d6000803e3d6000fd5b505050506040513d601f19601f820116820180604052508101906113d09190611dc2565b8c8c8c8c6040518763ffffffff1660e01b81526004016113f596959493929190611f8b565b6020604051808303816000875af1158015611414573d6000803e3d6000fd5b505050506040513d601f19601f820116820180604052508101906114389190611ddf565b9b9a5050505050505050505050565b6001600160a01b03938416600090815260026020908152604080832095835294815284822093861682529283528381209190941684529052902054151590565b604051632d63f69360e01b8152600481018290526000906001600160a01b03841690632d63f69390602401602060405180830381865afa1580156114cf573d6000803e3d6000fd5b505050506040513d601f19601f820116820180604052508101906114f39190611ddf565b9050606481846001600160a01b031663c01f9e37856040518263ffffffff1660e01b815260040161152691815260200190565b602060405180830381865afa158015611543573d6000803e3d6000fd5b505050506040513d601f19601f820116820180604052508101906115679190611ddf565b611571919061201e565b61157c90604b611e0e565b6115869190611e2b565b6115909082611e63565b43116115b257604051630c2da80960e41b815260048101839052602401610582565b6001600160a01b038316600090815260036020908152604080832085845290915290205460ff16156115fa5760405163d33af09f60e01b815260048101839052602401610582565b600480546001600160a01b0385811660008181526001602081815260408084208a8552909152918290209081015481546002909201549251630372e19b60e01b815296870193909352602486018890526044860192909252606485019190915260848401521690630372e19b9060a401600060405180830381600087803b15801561168457600080fd5b505af1158015611698573d6000803e3d6000fd5b5050506001600160a01b03909316600090815260036020908152604080832094835293905291909120805460ff191660011790555050565b6116d8611809565b6116e260006118a6565b565b6116ec611809565b61172a6040518060400160405280602081526020017f0a476f7665726e616e636550726f78793a3a736574506f6f6c4d616e61676572815250611863565b6006546001600160a01b0316156117545760405163422bc24960e11b815260040160405180910390fd5b600680546001600160a01b0319166001600160a01b0383161790556040805180820190915260048152637365742160e01b602082015261039490611863565b61179b611809565b6001600160a01b0381166118005760405162461bcd60e51b815260206004820152602660248201527f4f776e61626c653a206e6577206f776e657220697320746865207a65726f206160448201526564647265737360d01b6064820152608401610582565b610394816118a6565b6000546001600160a01b031633146116e25760405162461bcd60e51b815260206004820181905260248201527f4f776e61626c653a2063616c6c6572206973206e6f7420746865206f776e65726044820152606401610582565b610394816040516024016118779190612031565b60408051601f198184030181529190526020810180516001600160e01b031663104c13eb60e21b1790526118f6565b600080546001600160a01b038381166001600160a01b0319831681178455604051919092169283917f8be0079c531659141344cd1fd0a4f28419497f9722a3daafe3b4186f6b6457e09190a35050565b80516a636f6e736f6c652e6c6f67602083016000808483855afa5050505050565b6001600160a01b038116811461039457600080fd5b803561193781611917565b919050565b6000806000806080858703121561195257600080fd5b843561195d81611917565b935060208501359250604085013561197481611917565b9150606085013561198481611917565b939692955090935050565b6000602082840312156119a157600080fd5b81356119ac81611917565b9392505050565b600080604083850312156119c657600080fd5b82356119d181611917565b946020939093013593505050565b634e487b7160e01b600052604160045260246000fd5b604051601f8201601f1916810167ffffffffffffffff81118282101715611a1e57611a1e6119df565b604052919050565b600067ffffffffffffffff821115611a4057611a406119df565b5060051b60200190565b60008060008060808587031215611a6057600080fd5b8435611a6b81611917565b93506020858101359350604086013560ff81168114611a8957600080fd5b9250606086013567ffffffffffffffff811115611aa557600080fd5b8601601f81018813611ab657600080fd5b8035611ac9611ac482611a26565b6119f5565b81815260059190911b8201830190838101908a831115611ae857600080fd5b928401925b82841015611b0f578335611b0081611917565b82529284019290840190611aed565b979a9699509497505050505050565b600082601f830112611b2f57600080fd5b81356020611b3f611ac483611a26565b82815260059290921b84018101918181019086841115611b5e57600080fd5b8286015b84811015611b82578035611b7581611917565b8352918301918301611b62565b509695505050505050565b600082601f830112611b9e57600080fd5b81356020611bae611ac483611a26565b82815260059290921b84018101918181019086841115611bcd57600080fd5b8286015b84811015611b825780358352918301918301611bd1565b600067ffffffffffffffff831115611c0257611c026119df565b611c15601f8401601f19166020016119f5565b9050828152838383011115611c2957600080fd5b828260208301376000602084830101529392505050565b600082601f830112611c5157600080fd5b81356020611c61611ac483611a26565b82815260059290921b84018101918181019086841115611c8057600080fd5b8286015b84811015611b8257803567ffffffffffffffff811115611ca45760008081fd5b8701603f81018913611cb65760008081fd5b611cc7898683013560408401611be8565b845250918301918301611c84565b600082601f830112611ce657600080fd5b6119ac83833560208501611be8565b60008060008060008060c08789031215611d0e57600080fd5b611d178761192c565b9550611d256020880161192c565b9450604087013567ffffffffffffffff80821115611d4257600080fd5b611d4e8a838b01611b1e565b95506060890135915080821115611d6457600080fd5b611d708a838b01611b8d565b94506080890135915080821115611d8657600080fd5b611d928a838b01611c40565b935060a0890135915080821115611da857600080fd5b50611db589828a01611cd5565b9150509295509295509295565b600060208284031215611dd457600080fd5b81516119ac81611917565b600060208284031215611df157600080fd5b5051919050565b634e487b7160e01b600052601160045260246000fd5b8082028115828204841417611e2557611e25611df8565b92915050565b600082611e4857634e487b7160e01b600052601260045260246000fd5b500490565b634e487b7160e01b600052603260045260246000fd5b80820180821115611e2557611e25611df8565b600060018201611e8857611e88611df8565b5060010190565b60005b83811015611eaa578181015183820152602001611e92565b50506000910152565b60008251611ec5818460208701611e8f565b9190910192915050565b600081518084526020808501945080840160005b83811015611eff57815187529582019590820190600101611ee3565b509495945050505050565b60008151808452611f22816020860160208601611e8f565b601f01601f19169290920160200192915050565b600081518084526020808501808196508360051b8101915082860160005b85811015611f7e578284038952611f6c848351611f0a565b98850198935090840190600101611f54565b5091979650505050505050565b600060c0820160018060a01b03808a1684526020818a168186015260c0604086015282895180855260e087019150828b01945060005b81811015611fdf578551851683529483019491830191600101611fc1565b50508581036060870152611ff3818a611ecf565b9350505050828103608084015261200a8186611f36565b905082810360a08401526108628185611f0a565b81810381811115611e2557611e25611df8565b6020815260006119ac6020830184611f0a56fe0a476f7665726e616e636550726f78793a3a7365744c69717569646974794d616e616765720a476f7665726e616e636550726f78793a3a736574476f7665726e616e63654578656375746f72a264697066735822122092af7782953e5fcbec43841b3e265ccb72b0130c57b590629076b1f41db98d0b64736f6c63430008130033",
    "linkReferences": {}
  },
  "methodIdentifiers": {
    "castAggregateVotes(address,uint256)": "4ce1e880",
    "getVotingPower(address,uint256,address,address)": "2c52f7b9",
    "governanceExecutor()": "8fc98386",
    "hasVotedOnProposal(address,uint256,address,address)": "49e570b6",
    "liquidityManager()": "33827438",
    "owner()": "8da5cb5b",
    "poolManager()": "dc4c90d3",
    "propose(address,address,address[],uint256[],bytes[],string)": "46bd815b",
    "proxyVote(address,uint256,uint8,address[])": "34532c1d",
    "renounceOwnership()": "715018a6",
    "setGovernanceExecutor(address)": "0f300300",
    "setLiquidityManager(address)": "3c1624d4",
    "setPoolManager(address)": "7aef6715",
    "tallies(address,uint256)": "161ebe35",
    "transferOwnership(address)": "f2fde38b",
    "voted(address,uint256,address,address)": "0de9cd33",
    "votesCast(address,uint256)": "46aafa3b"
  },
  "id": 69
}