{
  "abi": [
    {
      "inputs": [],
      "name": "GovernanceExecutor__Unauthorized",
      "type": "error"
    },
    {
      "anonymous": false,
      "inputs": [
        {
          "indexed": true,
          "internalType": "address",
          "name": "previousOwner",
          "type": "address"
        },
        {
          "indexed": true,
          "internalType": "address",
          "name": "newOwner",
          "type": "address"
        }
      ],
      "name": "OwnershipTransferred",
      "type": "event"
    },
    {
      "inputs": [],
      "name": "STOP_CASTING",
      "outputs": [
        {
          "internalType": "uint256",
          "name": "",
          "type": "uint256"
        }
      ],
      "stateMutability": "view",
      "type": "function"
    },
    {
      "inputs": [],
      "name": "VOTING_CLUSTER_LIMIT",
      "outputs": [
        {
          "internalType": "uint256",
          "name": "",
          "type": "uint256"
        }
      ],
      "stateMutability": "view",
      "type": "function"
    },
    {
      "inputs": [
        {
          "internalType": "address",
          "name": "governorAddress",
          "type": "address"
        },
        {
          "internalType": "uint256",
          "name": "proposalId",
          "type": "uint256"
        }
      ],
      "name": "areAllVotesCast",
      "outputs": [
        {
          "internalType": "bool",
          "name": "",
          "type": "bool"
        }
      ],
      "stateMutability": "view",
      "type": "function"
    },
    {
      "inputs": [],
      "name": "clusterRegistry",
      "outputs": [
        {
          "internalType": "contract IClusterRegistry",
          "name": "",
          "type": "address"
        }
      ],
      "stateMutability": "view",
      "type": "function"
    },
    {
      "inputs": [
        {
          "internalType": "address",
          "name": "governorAddress",
          "type": "address"
        },
        {
          "internalType": "uint256",
          "name": "proposalId",
          "type": "uint256"
        }
      ],
      "name": "continueCastingVotes",
      "outputs": [],
      "stateMutability": "nonpayable",
      "type": "function"
    },
    {
      "inputs": [],
      "name": "governanceProxy",
      "outputs": [
        {
          "internalType": "contract IGovernanceProxy",
          "name": "",
          "type": "address"
        }
      ],
      "stateMutability": "view",
      "type": "function"
    },
    {
      "inputs": [],
      "name": "liquidityManager",
      "outputs": [
        {
          "internalType": "contract ILiquidityManager",
          "name": "",
          "type": "address"
        }
      ],
      "stateMutability": "view",
      "type": "function"
    },
    {
      "inputs": [],
      "name": "owner",
      "outputs": [
        {
          "internalType": "address",
          "name": "",
          "type": "address"
        }
      ],
      "stateMutability": "view",
      "type": "function"
    },
    {
      "inputs": [
        {
          "internalType": "contract IGovernor",
          "name": "governor",
          "type": "address"
        },
        {
          "internalType": "contract IERC20",
          "name": "votingToken",
          "type": "address"
        },
        {
          "internalType": "address[]",
          "name": "targets",
          "type": "address[]"
        },
        {
          "internalType": "uint256[]",
          "name": "values",
          "type": "uint256[]"
        },
        {
          "internalType": "bytes[]",
          "name": "calldatas",
          "type": "bytes[]"
        },
        {
          "internalType": "string",
          "name": "description",
          "type": "string"
        }
      ],
      "name": "propose",
      "outputs": [
        {
          "internalType": "uint256",
          "name": "",
          "type": "uint256"
        }
      ],
      "stateMutability": "nonpayable",
      "type": "function"
    },
    {
      "inputs": [],
      "name": "renounceOwnership",
      "outputs": [],
      "stateMutability": "nonpayable",
      "type": "function"
    },
    {
      "inputs": [
        {
          "internalType": "contract IClusterRegistry",
          "name": "_clusterRegistry",
          "type": "address"
        }
      ],
      "name": "setClusterRegistry",
      "outputs": [],
      "stateMutability": "nonpayable",
      "type": "function"
    },
    {
      "inputs": [
        {
          "internalType": "contract IGovernanceProxy",
          "name": "_governanceProxy",
          "type": "address"
        }
      ],
      "name": "setGovernanceProxy",
      "outputs": [],
      "stateMutability": "nonpayable",
      "type": "function"
    },
    {
      "inputs": [
        {
          "internalType": "contract ILiquidityManager",
          "name": "_liquidityManager",
          "type": "address"
        }
      ],
      "name": "setLiquidityManager",
      "outputs": [],
      "stateMutability": "nonpayable",
      "type": "function"
    },
    {
      "inputs": [
        {
          "internalType": "contract IGovernor",
          "name": "governor",
          "type": "address"
        },
        {
          "internalType": "uint256",
          "name": "proposalId",
          "type": "uint256"
        },
        {
          "internalType": "uint256",
          "name": "forVotes",
          "type": "uint256"
        },
        {
          "internalType": "uint256",
          "name": "againstVotes",
          "type": "uint256"
        },
        {
          "internalType": "uint256",
          "name": "abstainVotes",
          "type": "uint256"
        }
      ],
      "name": "startCastingVotes",
      "outputs": [],
      "stateMutability": "nonpayable",
      "type": "function"
    },
    {
      "inputs": [
        {
          "internalType": "address",
          "name": "newOwner",
          "type": "address"
        }
      ],
      "name": "transferOwnership",
      "outputs": [],
      "stateMutability": "nonpayable",
      "type": "function"
    },
    {
      "inputs": [
        {
          "internalType": "address",
          "name": "governorAddress",
          "type": "address"
        },
        {
          "internalType": "uint256",
          "name": "proposalId",
          "type": "uint256"
        }
      ],
      "name": "voteCastingStarted",
      "outputs": [
        {
          "internalType": "bool",
          "name": "",
          "type": "bool"
        }
      ],
      "stateMutability": "view",
      "type": "function"
    },
    {
      "inputs": [
        {
          "internalType": "address",
          "name": "",
          "type": "address"
        },
        {
          "internalType": "uint256",
          "name": "",
          "type": "uint256"
        }
      ],
      "name": "voteCastings",
      "outputs": [
        {
          "internalType": "contract IGovernor",
          "name": "governor",
          "type": "address"
        },
        {
          "internalType": "uint256",
          "name": "forVotes",
          "type": "uint256"
        },
        {
          "internalType": "uint256",
          "name": "againstVotes",
          "type": "uint256"
        },
        {
          "internalType": "uint256",
          "name": "abstainVotes",
          "type": "uint256"
        },
        {
          "internalType": "uint256",
          "name": "currentCluster",
          "type": "uint256"
        }
      ],
      "stateMutability": "view",
      "type": "function"
    }
  ],
  "bytecode": {
    "object": "0x608060405234801561001057600080fd5b5061001a3361001f565b61006f565b600080546001600160a01b038381166001600160a01b0319831681178455604051919092169283917f8be0079c531659141344cd1fd0a4f28419497f9722a3daafe3b4186f6b6457e09190a35050565b611c7f8061007e6000396000f3fe608060405234801561001057600080fd5b506004361061010b5760003560e01c80637c2338ec116100a2578063afe3b8d911610071578063afe3b8d9146102a3578063d5fcce11146102b6578063f2fde38b146102c9578063f5b4f81c146102dc578063fd1ef5e9146102ef57600080fd5b80637c2338ec146101c55780638da5cb5b146101d85780639d54973a146101e9578063ac405c6b1461026b57600080fd5b806346bd815b116100de57806346bd815b1461017e57806352e352f3146101915780635c5d81b2146101b4578063715018a6146101bd57600080fd5b80630ddfb51c1461011057806329df9b191461012557806333827438146101405780633c1624d41461016b575b600080fd5b61012361011e366004611674565b610302565b005b61012d606081565b6040519081526020015b60405180910390f35b600354610153906001600160a01b031681565b6040516001600160a01b039091168152602001610137565b610123610179366004611674565b610356565b61012d61018c3660046118ef565b6103aa565b6101a461019f3660046119bc565b610707565b6040519015158152602001610137565b61012d60001981565b610123610784565b600254610153906001600160a01b031681565b6000546001600160a01b0316610153565b6102396101f73660046119bc565b60016020818152600093845260408085209091529183529120805491810154600282015460038301546004909301546001600160a01b03909416939192909185565b604080516001600160a01b0390961686526020860194909452928401919091526060830152608082015260a001610137565b6101a46102793660046119bc565b6001600160a01b039182166000908152600160209081526040808320938352929052205416151590565b600454610153906001600160a01b031681565b6101236102c43660046119bc565b610798565b6101236102d7366004611674565b610ebd565b6101236102ea3660046119e8565b610f3b565b6101236102fd366004611674565b61150b565b61030a61155f565b6004546001600160a01b03161561033457604051635d41d5d560e01b815260040160405180910390fd5b600480546001600160a01b0319166001600160a01b0392909216919091179055565b61035e61155f565b6003546001600160a01b03161561038857604051635d41d5d560e01b815260040160405180910390fd5b600380546001600160a01b0319166001600160a01b0392909216919091179055565b6002546000906001600160a01b031633146103d857604051635d41d5d560e01b815260040160405180910390fd5b60035460405163ccc0c8a160e01b81526001600160a01b038881166004830152600092169063ccc0c8a190602401602060405180830381865afa158015610423573d6000803e3d6000fd5b505050506040513d601f19601f820116820180604052508101906104479190611a2c565b9050600081158015906105ff575060048054604051630246540360e61b81529182018490526001600160a01b03169063919500c090602401602060405180830381865afa15801561049c573d6000803e3d6000fd5b505050506040513d601f19601f820116820180604052508101906104c09190611a45565b6001600160a01b03166359b6a0c96040518163ffffffff1660e01b8152600401602060405180830381865afa1580156104fd573d6000803e3d6000fd5b505050506040513d601f19601f820116820180604052508101906105219190611a2c565b6004546001600160a01b031663919500c061053d600186611a78565b6040518263ffffffff1660e01b815260040161055b91815260200190565b602060405180830381865afa158015610578573d6000803e3d6000fd5b505050506040513d601f19601f8201168201806040525081019061059c9190611a45565b6001600160a01b03166359b6a0c96040518163ffffffff1660e01b8152600401602060405180830381865afa1580156105d9573d6000803e3d6000fd5b505050506040513d601f19601f820116820180604052508101906105fd9190611a2c565b115b156106165761060f600183611a78565b9050610619565b50805b60048054604051630246540360e61b81529182018390526001600160a01b03169063919500c090602401602060405180830381865afa158015610660573d6000803e3d6000fd5b505050506040513d601f19601f820116820180604052508101906106849190611a45565b6001600160a01b031663c50adadf8a898989896040518663ffffffff1660e01b81526004016106b7959493929190611b26565b6020604051808303816000875af11580156106d6573d6000803e3d6000fd5b505050506040513d601f19601f820116820180604052508101906106fa9190611a2c565b9998505050505050505050565b6002546000906001600160a01b0316331461073557604051635d41d5d560e01b815260040160405180910390fd5b6001600160a01b03831660009081526001602081815260408084208685529091529091209081015415801561076c57506002810154155b801561077a57506003810154155b9150505b92915050565b61078c61155f565b61079660006115b9565b565b6002546001600160a01b031633146107c357604051635d41d5d560e01b815260040160405180910390fd5b6001600160a01b03821660009081526001602090815260408083208484529091528120905b6000198260040154141580156107fe5750606081105b15610eb757815460408051637e062a3560e11b815290516000926001600160a01b03169163fc0c546a9160048083019260209291908290030181865afa15801561084c573d6000803e3d6000fd5b505050506040513d601f19601f820116820180604052508101906108709190611a45565b8354604051632d63f69360e01b8152600481018790529192506000916001600160a01b0390911690632d63f69390602401602060405180830381865afa1580156108be573d6000803e3d6000fd5b505050506040513d601f19601f820116820180604052508101906108e29190611a2c565b6004805486820154604051630246540360e61b8152928301529192506000916001600160a01b0385811692633a46b1a892919091169063919500c090602401602060405180830381865afa15801561093e573d6000803e3d6000fd5b505050506040513d601f19601f820116820180604052508101906109629190611a45565b6040516001600160e01b031960e084901b1681526001600160a01b03909116600482015260248101859052604401602060405180830381865afa1580156109ad573d6000803e3d6000fd5b505050506040513d601f19601f820116820180604052508101906109d19190611a2c565b6004805487820154604051630246540360e61b81529283015291925060009183916001600160a01b039091169063919500c090602401602060405180830381865afa158015610a24573d6000803e3d6000fd5b505050506040513d601f19601f82011682018060405250810190610a489190611a45565b6001600160a01b03166359b6a0c96040518163ffffffff1660e01b8152600401602060405180830381865afa158015610a85573d6000803e3d6000fd5b505050506040513d601f19601f82011682018060405250810190610aa99190611a2c565b10610ab45781610b82565b6004805487820154604051630246540360e61b8152928301526001600160a01b03169063919500c090602401602060405180830381865afa158015610afd573d6000803e3d6000fd5b505050506040513d601f19601f82011682018060405250810190610b219190611a45565b6001600160a01b03166359b6a0c96040518163ffffffff1660e01b8152600401602060405180830381865afa158015610b5e573d6000803e3d6000fd5b505050506040513d601f19601f82011682018060405250810190610b829190611a2c565b905080866002015410610c82576004805487820154604051630246540360e61b8152928301526001600160a01b03169063919500c090602401602060405180830381865afa158015610bd8573d6000803e3d6000fd5b505050506040513d601f19601f82011682018060405250810190610bfc9190611a45565b8654604051636055966360e11b81526001600160a01b039283169263c0ab2cc692610c31929116908b90600090600401611be2565b600060405180830381600087803b158015610c4b57600080fd5b505af1158015610c5f573d6000803e3d6000fd5b5050505080866002016000828254610c779190611a78565b90915550610e6e9050565b80866001015410610d75576004805487820154604051630246540360e61b8152928301526001600160a01b03169063919500c090602401602060405180830381865afa158015610cd6573d6000803e3d6000fd5b505050506040513d601f19601f82011682018060405250810190610cfa9190611a45565b8654604051636055966360e11b81526001600160a01b039283169263c0ab2cc692610d2f929116908b90600190600401611be2565b600060405180830381600087803b158015610d4957600080fd5b505af1158015610d5d573d6000803e3d6000fd5b5050505080866001016000828254610c779190611a78565b80866003015410610e6e576004805487820154604051630246540360e61b8152928301526001600160a01b03169063919500c090602401602060405180830381865afa158015610dc9573d6000803e3d6000fd5b505050506040513d601f19601f82011682018060405250810190610ded9190611a45565b8654604051636055966360e11b81526001600160a01b039283169263c0ab2cc692610e22929116908b90600290600401611be2565b600060405180830381600087803b158015610e3c57600080fd5b505af1158015610e50573d6000803e3d6000fd5b5050505080866003016000828254610e689190611a78565b90915550505b600486015415610e98576001866004016000828254610e8d9190611a78565b90915550610ea19050565b60001960048701555b610eac600186611c06565b9450505050506107e8565b50505050565b610ec561155f565b6001600160a01b038116610f2f5760405162461bcd60e51b815260206004820152602660248201527f4f776e61626c653a206e6577206f776e657220697320746865207a65726f206160448201526564647265737360d01b60648201526084015b60405180910390fd5b610f38816115b9565b50565b6002546001600160a01b03163314610f6657604051635d41d5d560e01b815260040160405180910390fd5b6000610f73848484611609565b905060006001610f828361163c565b610f8d906003611c19565b610f979190611a78565b90506102fb8103610fb057610fad600182611a78565b90505b6000876001600160a01b031663fc0c546a6040518163ffffffff1660e01b8152600401602060405180830381865afa158015610ff0573d6000803e3d6000fd5b505050506040513d601f19601f820116820180604052508101906110149190611a45565b604051632d63f69360e01b8152600481018990529091506000906001600160a01b038a1690632d63f69390602401602060405180830381865afa15801561105f573d6000803e3d6000fd5b505050506040513d601f19601f820116820180604052508101906110839190611a2c565b60048054604051630246540360e61b81529293506000926001600160a01b0380871693633a46b1a8939091169163919500c0916110c8916102fb910190815260200190565b602060405180830381865afa1580156110e5573d6000803e3d6000fd5b505050506040513d601f19601f820116820180604052508101906111099190611a45565b6040516001600160e01b031960e084901b1681526001600160a01b03909116600482015260248101859052604401602060405180830381865afa158015611154573d6000803e3d6000fd5b505050506040513d601f19601f820116820180604052508101906111789190611a2c565b90508087106112655760048054604051630246540360e61b81526102fb928101929092526001600160a01b03169063919500c090602401602060405180830381865afa1580156111cc573d6000803e3d6000fd5b505050506040513d601f19601f820116820180604052508101906111f09190611a45565b6001600160a01b031663c0ab2cc68b8b60006040518463ffffffff1660e01b815260040161122093929190611be2565b600060405180830381600087803b15801561123a57600080fd5b505af115801561124e573d6000803e3d6000fd5b50505050808761125e9190611a78565b9650611437565b8088106113505760048054604051630246540360e61b81526102fb928101929092526001600160a01b03169063919500c090602401602060405180830381865afa1580156112b7573d6000803e3d6000fd5b505050506040513d601f19601f820116820180604052508101906112db9190611a45565b6001600160a01b031663c0ab2cc68b8b60016040518463ffffffff1660e01b815260040161130b93929190611be2565b600060405180830381600087803b15801561132557600080fd5b505af1158015611339573d6000803e3d6000fd5b5050505080886113499190611a78565b9750611437565b8086106114375760048054604051630246540360e61b81526102fb928101929092526001600160a01b03169063919500c090602401602060405180830381865afa1580156113a2573d6000803e3d6000fd5b505050506040513d601f19601f820116820180604052508101906113c69190611a45565b6001600160a01b031663c0ab2cc68b8b60026040518463ffffffff1660e01b81526004016113f693929190611be2565b600060405180830381600087803b15801561141057600080fd5b505af1158015611424573d6000803e3d6000fd5b5050505080866114349190611a78565b95505b6040518060a001604052808b6001600160a01b0316815260200189815260200188815260200187815260200185815250600160008c6001600160a01b03166001600160a01b0316815260200190815260200160002060008b815260200190815260200160002060008201518160000160006101000a8154816001600160a01b0302191690836001600160a01b03160217905550602082015181600101556040820151816002015560608201518160030155608082015181600401559050506114ff8a8a610798565b50505050505050505050565b61151361155f565b6002546001600160a01b03161561153d57604051635d41d5d560e01b815260040160405180910390fd5b600280546001600160a01b0319166001600160a01b0392909216919091179055565b6000546001600160a01b031633146107965760405162461bcd60e51b815260206004820181905260248201527f4f776e61626c653a2063616c6c6572206973206e6f7420746865206f776e65726044820152606401610f26565b600080546001600160a01b038381166001600160a01b0319831681178455604051919092169283917f8be0079c531659141344cd1fd0a4f28419497f9722a3daafe3b4186f6b6457e09190a35050565b60008284116116255781831161161f5781611634565b82611634565b8184116116325781611634565b835b949350505050565b6000805b821561077e5760019290921c918061165781611c30565b915050611640565b6001600160a01b0381168114610f3857600080fd5b60006020828403121561168657600080fd5b81356116918161165f565b9392505050565b80356116a38161165f565b919050565b634e487b7160e01b600052604160045260246000fd5b604051601f8201601f1916810167ffffffffffffffff811182821017156116e7576116e76116a8565b604052919050565b600067ffffffffffffffff821115611709576117096116a8565b5060051b60200190565b600082601f83011261172457600080fd5b81356020611739611734836116ef565b6116be565b82815260059290921b8401810191818101908684111561175857600080fd5b8286015b8481101561177c57803561176f8161165f565b835291830191830161175c565b509695505050505050565b600082601f83011261179857600080fd5b813560206117a8611734836116ef565b82815260059290921b840181019181810190868411156117c757600080fd5b8286015b8481101561177c57803583529183019183016117cb565b600067ffffffffffffffff8311156117fc576117fc6116a8565b61180f601f8401601f19166020016116be565b905082815283838301111561182357600080fd5b828260208301376000602084830101529392505050565b600082601f83011261184b57600080fd5b8135602061185b611734836116ef565b82815260059290921b8401810191818101908684111561187a57600080fd5b8286015b8481101561177c57803567ffffffffffffffff81111561189e5760008081fd5b8701603f810189136118b05760008081fd5b6118c18986830135604084016117e2565b84525091830191830161187e565b600082601f8301126118e057600080fd5b611691838335602085016117e2565b60008060008060008060c0878903121561190857600080fd5b61191187611698565b955061191f60208801611698565b9450604087013567ffffffffffffffff8082111561193c57600080fd5b6119488a838b01611713565b9550606089013591508082111561195e57600080fd5b61196a8a838b01611787565b9450608089013591508082111561198057600080fd5b61198c8a838b0161183a565b935060a08901359150808211156119a257600080fd5b506119af89828a016118cf565b9150509295509295509295565b600080604083850312156119cf57600080fd5b82356119da8161165f565b946020939093013593505050565b600080600080600060a08688031215611a0057600080fd5b8535611a0b8161165f565b97602087013597506040870135966060810135965060800135945092505050565b600060208284031215611a3e57600080fd5b5051919050565b600060208284031215611a5757600080fd5b81516116918161165f565b634e487b7160e01b600052601160045260246000fd5b8181038181111561077e5761077e611a62565b6000815180845260005b81811015611ab157602081850181015186830182015201611a95565b506000602082860101526020601f19601f83011685010191505092915050565b600081518084526020808501808196508360051b8101915082860160005b85811015611b19578284038952611b07848351611a8b565b98850198935090840190600101611aef565b5091979650505050505050565b6001600160a01b03868116825260a0602080840182905287519184018290526000928882019290919060c0860190855b81811015611b74578551851683529483019491830191600101611b56565b5050858103604087015288518082529082019350915080880160005b83811015611bac57815185529382019390820190600101611b90565b505050508281036060840152611bc28186611ad1565b90508281036080840152611bd68185611a8b565b98975050505050505050565b6001600160a01b03939093168352602083019190915260ff16604082015260600190565b8082018082111561077e5761077e611a62565b808202811582820484141761077e5761077e611a62565b600060018201611c4257611c42611a62565b506001019056fea2646970667358221220d6c37a94d346ba126b9d2907fc7d852153d9e5dd026e0f886604b51d866c3f6864736f6c63430008130033",
    "linkReferences": {}
  },
  "methodIdentifiers": {
    "STOP_CASTING()": "5c5d81b2",
    "VOTING_CLUSTER_LIMIT()": "29df9b19",
    "areAllVotesCast(address,uint256)": "52e352f3",
    "clusterRegistry()": "afe3b8d9",
    "continueCastingVotes(address,uint256)": "d5fcce11",
    "governanceProxy()": "7c2338ec",
    "liquidityManager()": "33827438",
    "owner()": "8da5cb5b",
    "propose(address,address,address[],uint256[],bytes[],string)": "46bd815b",
    "renounceOwnership()": "715018a6",
    "setClusterRegistry(address)": "0ddfb51c",
    "setGovernanceProxy(address)": "fd1ef5e9",
    "setLiquidityManager(address)": "3c1624d4",
    "startCastingVotes(address,uint256,uint256,uint256,uint256)": "f5b4f81c",
    "transferOwnership(address)": "f2fde38b",
    "voteCastingStarted(address,uint256)": "ac405c6b",
    "voteCastings(address,uint256)": "9d54973a"
  },
  "id": 67
}