{
  "abi": [
    {
      "inputs": [
        {
          "internalType": "address",
          "name": "user",
          "type": "address"
        },
        {
          "internalType": "uint256",
          "name": "proposalId",
          "type": "uint256"
        }
      ],
      "name": "GovernanceProxy__AlreadyVoted",
      "type": "error"
    },
    {
      "inputs": [
        {
          "internalType": "contract IERC20",
          "name": "thisToken",
          "type": "address"
        },
        {
          "internalType": "contract IERC20",
          "name": "thatToken",
          "type": "address"
        },
        {
          "internalType": "contract IERC20",
          "name": "votingToken",
          "type": "address"
        }
      ],
      "name": "GovernanceProxy__InvalidLPToken",
      "type": "error"
    },
    {
      "inputs": [
        {
          "internalType": "uint8",
          "name": "option",
          "type": "uint8"
        }
      ],
      "name": "GovernanceProxy__InvalidVoteOption",
      "type": "error"
    },
    {
      "inputs": [],
      "name": "GovernanceProxy__ProposalThresholdNotMet",
      "type": "error"
    },
    {
      "inputs": [],
      "name": "GovernanceProxy__Unauthorized",
      "type": "error"
    },
    {
      "inputs": [
        {
          "internalType": "uint256",
          "name": "proposalId",
          "type": "uint256"
        }
      ],
      "name": "GovernanceProxy__VotesAlreadyCast",
      "type": "error"
    },
    {
      "inputs": [
        {
          "internalType": "uint256",
          "name": "proposalId",
          "type": "uint256"
        }
      ],
      "name": "GovernanceProxy__VotingNotElapsed",
      "type": "error"
    },
    {
      "inputs": [
        {
          "internalType": "uint256",
          "name": "proposalId",
          "type": "uint256"
        }
      ],
      "name": "GovernanceProxy__VotingNotStarted",
      "type": "error"
    },
    {
      "anonymous": false,
      "inputs": [
        {
          "indexed": true,
          "internalType": "address",
          "name": "previousOwner",
          "type": "address"
        },
        {
          "indexed": true,
          "internalType": "address",
          "name": "newOwner",
          "type": "address"
        }
      ],
      "name": "OwnershipTransferred",
      "type": "event"
    },
    {
      "anonymous": false,
      "inputs": [
        {
          "indexed": true,
          "internalType": "address",
          "name": "voter",
          "type": "address"
        },
        {
          "indexed": true,
          "internalType": "contract IGovernor",
          "name": "governor",
          "type": "address"
        },
        {
          "indexed": false,
          "internalType": "uint256",
          "name": "proposalId",
          "type": "uint256"
        },
        {
          "indexed": false,
          "internalType": "uint8",
          "name": "support",
          "type": "uint8"
        },
        {
          "indexed": false,
          "internalType": "uint256",
          "name": "weight",
          "type": "uint256"
        }
      ],
      "name": "ProxyVote",
      "type": "event"
    },
    {
      "inputs": [
        {
          "internalType": "contract IGovernor",
          "name": "governor",
          "type": "address"
        },
        {
          "internalType": "uint256",
          "name": "proposalId",
          "type": "uint256"
        }
      ],
      "name": "castAggregateVotes",
      "outputs": [],
      "stateMutability": "nonpayable",
      "type": "function"
    },
    {
      "inputs": [
        {
          "internalType": "address",
          "name": "voter",
          "type": "address"
        },
        {
          "internalType": "uint256",
          "name": "snapshot",
          "type": "uint256"
        },
        {
          "internalType": "contract ILPToken",
          "name": "lpToken",
          "type": "address"
        },
        {
          "internalType": "contract IERC20",
          "name": "votingToken",
          "type": "address"
        }
      ],
      "name": "getVotingPower",
      "outputs": [
        {
          "internalType": "uint256",
          "name": "votingPower",
          "type": "uint256"
        }
      ],
      "stateMutability": "view",
      "type": "function"
    },
    {
      "inputs": [],
      "name": "governanceExecutor",
      "outputs": [
        {
          "internalType": "contract IGovernanceExecutor",
          "name": "",
          "type": "address"
        }
      ],
      "stateMutability": "view",
      "type": "function"
    },
    {
      "inputs": [
        {
          "internalType": "contract IGovernor",
          "name": "governor",
          "type": "address"
        },
        {
          "internalType": "uint256",
          "name": "proposalId",
          "type": "uint256"
        },
        {
          "internalType": "address",
          "name": "voter",
          "type": "address"
        },
        {
          "internalType": "contract ILPToken",
          "name": "lpToken",
          "type": "address"
        }
      ],
      "name": "hasVotedOnProposal",
      "outputs": [
        {
          "internalType": "bool",
          "name": "",
          "type": "bool"
        }
      ],
      "stateMutability": "view",
      "type": "function"
    },
    {
      "inputs": [],
      "name": "liquidityManager",
      "outputs": [
        {
          "internalType": "contract ILiquidityManager",
          "name": "",
          "type": "address"
        }
      ],
      "stateMutability": "view",
      "type": "function"
    },
    {
      "inputs": [],
      "name": "owner",
      "outputs": [
        {
          "internalType": "address",
          "name": "",
          "type": "address"
        }
      ],
      "stateMutability": "view",
      "type": "function"
    },
    {
      "inputs": [],
      "name": "poolManager",
      "outputs": [
        {
          "internalType": "contract IPoolManager",
          "name": "",
          "type": "address"
        }
      ],
      "stateMutability": "view",
      "type": "function"
    },
    {
      "inputs": [
        {
          "internalType": "contract IGovernor",
          "name": "governor",
          "type": "address"
        },
        {
          "internalType": "contract ILPToken",
          "name": "lpToken",
          "type": "address"
        },
        {
          "internalType": "address[]",
          "name": "targets",
          "type": "address[]"
        },
        {
          "internalType": "uint256[]",
          "name": "values",
          "type": "uint256[]"
        },
        {
          "internalType": "bytes[]",
          "name": "calldatas",
          "type": "bytes[]"
        },
        {
          "internalType": "string",
          "name": "description",
          "type": "string"
        }
      ],
      "name": "propose",
      "outputs": [
        {
          "internalType": "uint256",
          "name": "proposalId",
          "type": "uint256"
        }
      ],
      "stateMutability": "nonpayable",
      "type": "function"
    },
    {
      "inputs": [
        {
          "internalType": "contract IGovernor",
          "name": "governor",
          "type": "address"
        },
        {
          "internalType": "uint256",
          "name": "proposalId",
          "type": "uint256"
        },
        {
          "internalType": "uint8",
          "name": "support",
          "type": "uint8"
        },
        {
          "internalType": "contract ILPToken[]",
          "name": "lpTokens",
          "type": "address[]"
        }
      ],
      "name": "proxyVote",
      "outputs": [],
      "stateMutability": "nonpayable",
      "type": "function"
    },
    {
      "inputs": [],
      "name": "renounceOwnership",
      "outputs": [],
      "stateMutability": "nonpayable",
      "type": "function"
    },
    {
      "inputs": [
        {
          "internalType": "contract IGovernanceExecutor",
          "name": "_governanceExecutor",
          "type": "address"
        }
      ],
      "name": "setGovernanceExecutor",
      "outputs": [],
      "stateMutability": "nonpayable",
      "type": "function"
    },
    {
      "inputs": [
        {
          "internalType": "contract ILiquidityManager",
          "name": "_liquidityManager",
          "type": "address"
        }
      ],
      "name": "setLiquidityManager",
      "outputs": [],
      "stateMutability": "nonpayable",
      "type": "function"
    },
    {
      "inputs": [
        {
          "internalType": "contract IPoolManager",
          "name": "_poolManager",
          "type": "address"
        }
      ],
      "name": "setPoolManager",
      "outputs": [],
      "stateMutability": "nonpayable",
      "type": "function"
    },
    {
      "inputs": [
        {
          "internalType": "contract IGovernor",
          "name": "",
          "type": "address"
        },
        {
          "internalType": "uint256",
          "name": "",
          "type": "uint256"
        }
      ],
      "name": "tallies",
      "outputs": [
        {
          "internalType": "uint256",
          "name": "againstVotes",
          "type": "uint256"
        },
        {
          "internalType": "uint256",
          "name": "forVotes",
          "type": "uint256"
        },
        {
          "internalType": "uint256",
          "name": "abstainVotes",
          "type": "uint256"
        }
      ],
      "stateMutability": "view",
      "type": "function"
    },
    {
      "inputs": [
        {
          "internalType": "address",
          "name": "newOwner",
          "type": "address"
        }
      ],
      "name": "transferOwnership",
      "outputs": [],
      "stateMutability": "nonpayable",
      "type": "function"
    },
    {
      "inputs": [
        {
          "internalType": "contract IGovernor",
          "name": "",
          "type": "address"
        },
        {
          "internalType": "uint256",
          "name": "",
          "type": "uint256"
        },
        {
          "internalType": "address",
          "name": "",
          "type": "address"
        },
        {
          "internalType": "contract ILPToken",
          "name": "",
          "type": "address"
        }
      ],
      "name": "voted",
      "outputs": [
        {
          "internalType": "uint256",
          "name": "",
          "type": "uint256"
        }
      ],
      "stateMutability": "view",
      "type": "function"
    },
    {
      "inputs": [
        {
          "internalType": "contract IGovernor",
          "name": "",
          "type": "address"
        },
        {
          "internalType": "uint256",
          "name": "",
          "type": "uint256"
        }
      ],
      "name": "votesCast",
      "outputs": [
        {
          "internalType": "bool",
          "name": "",
          "type": "bool"
        }
      ],
      "stateMutability": "view",
      "type": "function"
    }
  ],
  "bytecode": {
    "object": "0x608060405234801561001057600080fd5b5061001a3361001f565b61006f565b600080546001600160a01b038381166001600160a01b0319831681178455604051919092169283917f8be0079c531659141344cd1fd0a4f28419497f9722a3daafe3b4186f6b6457e09190a35050565b611f308061007e6000396000f3fe608060405234801561001057600080fd5b506004361061010b5760003560e01c806346bd815b116100a25780637aef6715116100715780637aef6715146102a65780638da5cb5b146102b95780638fc98386146102ca578063dc4c90d3146102dd578063f2fde38b146102f057600080fd5b806346bd815b1461026557806349e570b6146102785780634ce1e8801461028b578063715018a61461029e57600080fd5b806333827438116100de57806333827438146101d657806334532c1d146102015780633c1624d41461021457806346aafa3b1461022757600080fd5b80630de9cd33146101105780630f3003001461015d578063161ebe35146101725780632c52f7b9146101c3575b600080fd5b61014a61011e366004611802565b600260209081526000948552604080862082529385528385208152918452828420909152825290205481565b6040519081526020015b60405180910390f35b61017061016b366004611855565b610303565b005b6101a8610180366004611879565b6001602081815260009384526040808520909152918352912080549181015460029091015483565b60408051938452602084019290925290820152606001610154565b61014a6101d1366004611802565b610357565b6005546101e9906001600160a01b031681565b6040516001600160a01b039091168152602001610154565b61017061020f366004611910565b61082f565b610170610222366004611855565b610b81565b610255610235366004611879565b600360209081526000928352604080842090915290825290205460ff1681565b6040519015158152602001610154565b61014a610273366004611bbb565b610bd5565b610255610286366004611802565b6113c9565b610170610299366004611879565b611409565b610170611652565b6101706102b4366004611855565b611666565b6000546001600160a01b03166101e9565b6004546101e9906001600160a01b031681565b6006546101e9906001600160a01b031681565b6101706102fe366004611855565b6116ba565b61030b611733565b6004546001600160a01b0316156103355760405163422bc24960e11b815260040160405180910390fd5b600480546001600160a01b0319166001600160a01b0392909216919091179055565b6000826001600160a01b03166375f4f18e6040518163ffffffff1660e01b8152600401602060405180830381865afa158015610397573d6000803e3d6000fd5b505050506040513d601f19601f820116820180604052508101906103bb9190611c88565b6001600160a01b0316826001600160a01b03161461054b57826001600160a01b031663c451463b6040518163ffffffff1660e01b8152600401602060405180830381865afa158015610411573d6000803e3d6000fd5b505050506040513d601f19601f820116820180604052508101906104359190611c88565b6001600160a01b0316826001600160a01b03161461054b57826001600160a01b03166375f4f18e6040518163ffffffff1660e01b8152600401602060405180830381865afa15801561048b573d6000803e3d6000fd5b505050506040513d601f19601f820116820180604052508101906104af9190611c88565b836001600160a01b031663c451463b6040518163ffffffff1660e01b8152600401602060405180830381865afa1580156104ed573d6000803e3d6000fd5b505050506040513d601f19601f820116820180604052508101906105119190611c88565b6040516330b370a160e21b81526001600160a01b039283166004820152908216602482015290831660448201526064015b60405180910390fd5b6000600660009054906101000a90046001600160a01b03166001600160a01b0316638ae93f0b856001600160a01b03166375f4f18e6040518163ffffffff1660e01b8152600401602060405180830381865afa1580156105af573d6000803e3d6000fd5b505050506040513d601f19601f820116820180604052508101906105d39190611c88565b866001600160a01b031663c451463b6040518163ffffffff1660e01b8152600401602060405180830381865afa158015610611573d6000803e3d6000fd5b505050506040513d601f19601f820116820180604052508101906106359190611c88565b6040516001600160e01b031960e085901b1681526001600160a01b03928316600482015291166024820152604401602060405180830381865afa158015610680573d6000803e3d6000fd5b505050506040513d601f19601f820116820180604052508101906106a49190611ca5565b60055460405162ce531d60e61b8152600481018390526001600160a01b0386811660248301526044820189905292935060009290911690633394c74090606401602060405180830381865afa158015610701573d6000803e3d6000fd5b505050506040513d601f19601f820116820180604052508101906107259190611ca5565b604051630748d63560e31b81526001600160a01b03898116600483015260248201899052919250600091871690633a46b1a890604401602060405180830381865afa158015610778573d6000803e3d6000fd5b505050506040513d601f19601f8201168201806040525081019061079c9190611ca5565b604051632394e7a360e21b8152600481018990529091506000906001600160a01b03881690638e539e8c90602401602060405180830381865afa1580156107e7573d6000803e3d6000fd5b505050506040513d601f19601f8201168201806040525081019061080b9190611ca5565b9050806108188385611cd4565b6108229190611cf1565b9998505050505050505050565b60028260ff161115610859576040516372a5301f60e11b815260ff83166004820152602401610542565b604051632d63f69360e01b8152600481018490526000906001600160a01b03861690632d63f69390602401602060405180830381865afa1580156108a1573d6000803e3d6000fd5b505050506040513d601f19601f820116820180604052508101906108c59190611ca5565b90508043116108ea57604051632a3c3a1560e11b815260048101859052602401610542565b6000805b8351811015610a595761091c87873387858151811061090f5761090f611d13565b60200260200101516113c9565b15610943576040516390ef2f7760e01b815233600482015260248101879052604401610542565b60006109c6338587858151811061095c5761095c611d13565b60200260200101518b6001600160a01b031663fc0c546a6040518163ffffffff1660e01b8152600401602060405180830381865afa1580156109a2573d6000803e3d6000fd5b505050506040513d601f19601f820116820180604052508101906101d19190611c88565b90506109d28184611d29565b6001600160a01b03891660009081526002602090815260408083208b84528252808320338452909152812087519295508392909190889086908110610a1957610a19611d13565b60200260200101516001600160a01b03166001600160a01b0316815260200190815260200160002081905550508080610a5190611d3c565b9150506108ee565b508360ff16600003610aa3576001600160a01b038616600090815260016020908152604080832088845290915281208054839290610a98908490611d29565b90915550610b299050565b8360ff16600103610ae2576001600160a01b03861660009081526001602081815260408084208985529091528220018054839290610a98908490611d29565b8360ff16600203610b29576001600160a01b038616600090815260016020908152604080832088845290915281206002018054839290610b23908490611d29565b90915550505b6040805186815260ff861660208201529081018290526001600160a01b0387169033907f90ebd8d464f9e3d291de93077110e97e236ca318134b23e4a6c38a42950fb7ba9060600160405180910390a3505050505050565b610b89611733565b6005546001600160a01b031615610bb35760405163422bc24960e11b815260040160405180910390fd5b600580546001600160a01b0319166001600160a01b0392909216919091179055565b6000856001600160a01b03166375f4f18e6040518163ffffffff1660e01b8152600401602060405180830381865afa158015610c15573d6000803e3d6000fd5b505050506040513d601f19601f82011682018060405250810190610c399190611c88565b6001600160a01b0316876001600160a01b031663fc0c546a6040518163ffffffff1660e01b8152600401602060405180830381865afa158015610c80573d6000803e3d6000fd5b505050506040513d601f19601f82011682018060405250810190610ca49190611c88565b6001600160a01b031614158015610d8f5750856001600160a01b031663c451463b6040518163ffffffff1660e01b8152600401602060405180830381865afa158015610cf4573d6000803e3d6000fd5b505050506040513d601f19601f82011682018060405250810190610d189190611c88565b6001600160a01b0316876001600160a01b031663fc0c546a6040518163ffffffff1660e01b8152600401602060405180830381865afa158015610d5f573d6000803e3d6000fd5b505050506040513d601f19601f82011682018060405250810190610d839190611c88565b6001600160a01b031614155b15610eef57856001600160a01b03166375f4f18e6040518163ffffffff1660e01b8152600401602060405180830381865afa158015610dd2573d6000803e3d6000fd5b505050506040513d601f19601f82011682018060405250810190610df69190611c88565b866001600160a01b031663c451463b6040518163ffffffff1660e01b8152600401602060405180830381865afa158015610e34573d6000803e3d6000fd5b505050506040513d601f19601f82011682018060405250810190610e589190611c88565b886001600160a01b031663fc0c546a6040518163ffffffff1660e01b8152600401602060405180830381865afa158015610e96573d6000803e3d6000fd5b505050506040513d601f19601f82011682018060405250810190610eba9190611c88565b6040516330b370a160e21b81526001600160a01b03938416600482015291831660248301529091166044820152606401610542565b6000866001600160a01b03166318160ddd6040518163ffffffff1660e01b8152600401602060405180830381865afa158015610f2f573d6000803e3d6000fd5b505050506040513d601f19601f82011682018060405250810190610f539190611ca5565b6040516309ab24eb60e41b81523360048201526001600160a01b03891690639ab24eb090602401602060405180830381865afa158015610f97573d6000803e3d6000fd5b505050506040513d601f19601f82011682018060405250810190610fbb9190611ca5565b60055460065460408051633afa78c760e11b815290516001600160a01b0393841693635496696b93811692638ae93f0b92918f16916375f4f18e916004808201926020929091908290030181865afa15801561101b573d6000803e3d6000fd5b505050506040513d601f19601f8201168201806040525081019061103f9190611c88565b8d6001600160a01b031663c451463b6040518163ffffffff1660e01b8152600401602060405180830381865afa15801561107d573d6000803e3d6000fd5b505050506040513d601f19601f820116820180604052508101906110a19190611c88565b6040516001600160e01b031960e085901b1681526001600160a01b03928316600482015291166024820152604401602060405180830381865afa1580156110ec573d6000803e3d6000fd5b505050506040513d601f19601f820116820180604052508101906111109190611ca5565b8c6001600160a01b031663fc0c546a6040518163ffffffff1660e01b8152600401602060405180830381865afa15801561114e573d6000803e3d6000fd5b505050506040513d601f19601f820116820180604052508101906111729190611c88565b6040516001600160e01b031960e085901b16815260048101929092526001600160a01b03166024820152604401602060405180830381865afa1580156111bc573d6000803e3d6000fd5b505050506040513d601f19601f820116820180604052508101906111e09190611ca5565b6111ea9190611cd4565b6111f49190611cf1565b60408051600481526024810182526020810180516001600160e01b0316630b58131b60e41b1790529051919250600091829182916001600160a01b038d169161123c91611d79565b600060405180830381855afa9150503d8060008114611277576040519150601f19603f3d011682016040523d82523d6000602084013e61127c565b606091505b5091509150811561129e578080602001905181019061129b9190611ca5565b92505b6000831180156112ad57508284105b156112cb57604051637469e8e560e11b815260040160405180910390fd5b600460009054906101000a90046001600160a01b03166001600160a01b03166346bd815b8c8d6001600160a01b031663fc0c546a6040518163ffffffff1660e01b8152600401602060405180830381865afa15801561132e573d6000803e3d6000fd5b505050506040513d601f19601f820116820180604052508101906113529190611c88565b8c8c8c8c6040518763ffffffff1660e01b815260040161137796959493929190611e54565b6020604051808303816000875af1158015611396573d6000803e3d6000fd5b505050506040513d601f19601f820116820180604052508101906113ba9190611ca5565b9b9a5050505050505050505050565b6001600160a01b03938416600090815260026020908152604080832095835294815284822093861682529283528381209190941684529052902054151590565b604051632d63f69360e01b8152600481018290526000906001600160a01b03841690632d63f69390602401602060405180830381865afa158015611451573d6000803e3d6000fd5b505050506040513d601f19601f820116820180604052508101906114759190611ca5565b9050606481846001600160a01b031663c01f9e37856040518263ffffffff1660e01b81526004016114a891815260200190565b602060405180830381865afa1580156114c5573d6000803e3d6000fd5b505050506040513d601f19601f820116820180604052508101906114e99190611ca5565b6114f39190611ee7565b6114fe90604b611cd4565b6115089190611cf1565b6115129082611d29565b431161153457604051630c2da80960e41b815260048101839052602401610542565b6001600160a01b038316600090815260036020908152604080832085845290915290205460ff161561157c5760405163d33af09f60e01b815260048101839052602401610542565b600480546001600160a01b0385811660008181526001602081815260408084208a8552909152918290209081015481546002909201549251630372e19b60e01b815296870193909352602486018890526044860192909252606485019190915260848401521690630372e19b9060a401600060405180830381600087803b15801561160657600080fd5b505af115801561161a573d6000803e3d6000fd5b5050506001600160a01b03909316600090815260036020908152604080832094835293905291909120805460ff191660011790555050565b61165a611733565b611664600061178d565b565b61166e611733565b6006546001600160a01b0316156116985760405163422bc24960e11b815260040160405180910390fd5b600680546001600160a01b0319166001600160a01b0392909216919091179055565b6116c2611733565b6001600160a01b0381166117275760405162461bcd60e51b815260206004820152602660248201527f4f776e61626c653a206e6577206f776e657220697320746865207a65726f206160448201526564647265737360d01b6064820152608401610542565b6117308161178d565b50565b6000546001600160a01b031633146116645760405162461bcd60e51b815260206004820181905260248201527f4f776e61626c653a2063616c6c6572206973206e6f7420746865206f776e65726044820152606401610542565b600080546001600160a01b038381166001600160a01b0319831681178455604051919092169283917f8be0079c531659141344cd1fd0a4f28419497f9722a3daafe3b4186f6b6457e09190a35050565b6001600160a01b038116811461173057600080fd5b80356117fd816117dd565b919050565b6000806000806080858703121561181857600080fd5b8435611823816117dd565b935060208501359250604085013561183a816117dd565b9150606085013561184a816117dd565b939692955090935050565b60006020828403121561186757600080fd5b8135611872816117dd565b9392505050565b6000806040838503121561188c57600080fd5b8235611897816117dd565b946020939093013593505050565b634e487b7160e01b600052604160045260246000fd5b604051601f8201601f1916810167ffffffffffffffff811182821017156118e4576118e46118a5565b604052919050565b600067ffffffffffffffff821115611906576119066118a5565b5060051b60200190565b6000806000806080858703121561192657600080fd5b8435611931816117dd565b93506020858101359350604086013560ff8116811461194f57600080fd5b9250606086013567ffffffffffffffff81111561196b57600080fd5b8601601f8101881361197c57600080fd5b803561198f61198a826118ec565b6118bb565b81815260059190911b8201830190838101908a8311156119ae57600080fd5b928401925b828410156119d55783356119c6816117dd565b825292840192908401906119b3565b979a9699509497505050505050565b600082601f8301126119f557600080fd5b81356020611a0561198a836118ec565b82815260059290921b84018101918181019086841115611a2457600080fd5b8286015b84811015611a48578035611a3b816117dd565b8352918301918301611a28565b509695505050505050565b600082601f830112611a6457600080fd5b81356020611a7461198a836118ec565b82815260059290921b84018101918181019086841115611a9357600080fd5b8286015b84811015611a485780358352918301918301611a97565b600067ffffffffffffffff831115611ac857611ac86118a5565b611adb601f8401601f19166020016118bb565b9050828152838383011115611aef57600080fd5b828260208301376000602084830101529392505050565b600082601f830112611b1757600080fd5b81356020611b2761198a836118ec565b82815260059290921b84018101918181019086841115611b4657600080fd5b8286015b84811015611a4857803567ffffffffffffffff811115611b6a5760008081fd5b8701603f81018913611b7c5760008081fd5b611b8d898683013560408401611aae565b845250918301918301611b4a565b600082601f830112611bac57600080fd5b61187283833560208501611aae565b60008060008060008060c08789031215611bd457600080fd5b611bdd876117f2565b9550611beb602088016117f2565b9450604087013567ffffffffffffffff80821115611c0857600080fd5b611c148a838b016119e4565b95506060890135915080821115611c2a57600080fd5b611c368a838b01611a53565b94506080890135915080821115611c4c57600080fd5b611c588a838b01611b06565b935060a0890135915080821115611c6e57600080fd5b50611c7b89828a01611b9b565b9150509295509295509295565b600060208284031215611c9a57600080fd5b8151611872816117dd565b600060208284031215611cb757600080fd5b5051919050565b634e487b7160e01b600052601160045260246000fd5b8082028115828204841417611ceb57611ceb611cbe565b92915050565b600082611d0e57634e487b7160e01b600052601260045260246000fd5b500490565b634e487b7160e01b600052603260045260246000fd5b80820180821115611ceb57611ceb611cbe565b600060018201611d4e57611d4e611cbe565b5060010190565b60005b83811015611d70578181015183820152602001611d58565b50506000910152565b60008251611d8b818460208701611d55565b9190910192915050565b600081518084526020808501945080840160005b83811015611dc557815187529582019590820190600101611da9565b509495945050505050565b60008151808452611de8816020860160208601611d55565b601f01601f19169290920160200192915050565b600082825180855260208086019550808260051b84010181860160005b84811015611e4757601f19868403018952611e35838351611dd0565b98840198925090830190600101611e19565b5090979650505050505050565b600060c0820160018060a01b03808a1684526020818a168186015260c0604086015282895180855260e087019150828b01945060005b81811015611ea8578551851683529483019491830191600101611e8a565b50508581036060870152611ebc818a611d95565b93505050508281036080840152611ed38186611dfc565b905082810360a08401526108228185611dd0565b81810381811115611ceb57611ceb611cbe56fea2646970667358221220d8018d0a1556968253bb2b1fded5c7458fc0116d19616c1970cd0a448b7b3ec664736f6c63430008130033",
    "linkReferences": {}
  },
  "methodIdentifiers": {
    "castAggregateVotes(address,uint256)": "4ce1e880",
    "getVotingPower(address,uint256,address,address)": "2c52f7b9",
    "governanceExecutor()": "8fc98386",
    "hasVotedOnProposal(address,uint256,address,address)": "49e570b6",
    "liquidityManager()": "33827438",
    "owner()": "8da5cb5b",
    "poolManager()": "dc4c90d3",
    "propose(address,address,address[],uint256[],bytes[],string)": "46bd815b",
    "proxyVote(address,uint256,uint8,address[])": "34532c1d",
    "renounceOwnership()": "715018a6",
    "setGovernanceExecutor(address)": "0f300300",
    "setLiquidityManager(address)": "3c1624d4",
    "setPoolManager(address)": "7aef6715",
    "tallies(address,uint256)": "161ebe35",
    "transferOwnership(address)": "f2fde38b",
    "voted(address,uint256,address,address)": "0de9cd33",
    "votesCast(address,uint256)": "46aafa3b"
  },
  "id": 68
}