{
  "abi": [
    {
      "inputs": [],
      "name": "GovernanceExecutor__Unauthorized",
      "type": "error"
    },
    {
      "anonymous": false,
      "inputs": [
        {
          "indexed": true,
          "internalType": "address",
          "name": "previousOwner",
          "type": "address"
        },
        {
          "indexed": true,
          "internalType": "address",
          "name": "newOwner",
          "type": "address"
        }
      ],
      "name": "OwnershipTransferred",
      "type": "event"
    },
    {
      "inputs": [],
      "name": "STOP_CASTING",
      "outputs": [
        {
          "internalType": "uint256",
          "name": "",
          "type": "uint256"
        }
      ],
      "stateMutability": "view",
      "type": "function"
    },
    {
      "inputs": [],
      "name": "VOTING_CLUSTER_LIMIT",
      "outputs": [
        {
          "internalType": "uint256",
          "name": "",
          "type": "uint256"
        }
      ],
      "stateMutability": "view",
      "type": "function"
    },
    {
      "inputs": [
        {
          "internalType": "address",
          "name": "governorAddress",
          "type": "address"
        },
        {
          "internalType": "uint256",
          "name": "proposalId",
          "type": "uint256"
        }
      ],
      "name": "areAllVotesCast",
      "outputs": [
        {
          "internalType": "bool",
          "name": "",
          "type": "bool"
        }
      ],
      "stateMutability": "view",
      "type": "function"
    },
    {
      "inputs": [
        {
          "internalType": "contract IGovernor",
          "name": "governor",
          "type": "address"
        },
        {
          "internalType": "uint256",
          "name": "proposalId",
          "type": "uint256"
        },
        {
          "internalType": "uint256",
          "name": "forVotes",
          "type": "uint256"
        },
        {
          "internalType": "uint256",
          "name": "againstVotes",
          "type": "uint256"
        },
        {
          "internalType": "uint256",
          "name": "abstainVotes",
          "type": "uint256"
        }
      ],
      "name": "castVotes",
      "outputs": [],
      "stateMutability": "nonpayable",
      "type": "function"
    },
    {
      "inputs": [],
      "name": "clusterRegistry",
      "outputs": [
        {
          "internalType": "contract IClusterRegistry",
          "name": "",
          "type": "address"
        }
      ],
      "stateMutability": "view",
      "type": "function"
    },
    {
      "inputs": [
        {
          "internalType": "address",
          "name": "governorAddress",
          "type": "address"
        },
        {
          "internalType": "uint256",
          "name": "proposalId",
          "type": "uint256"
        }
      ],
      "name": "continueCastingVotes",
      "outputs": [],
      "stateMutability": "nonpayable",
      "type": "function"
    },
    {
      "inputs": [],
      "name": "governanceProxy",
      "outputs": [
        {
          "internalType": "contract IGovernanceProxy",
          "name": "",
          "type": "address"
        }
      ],
      "stateMutability": "view",
      "type": "function"
    },
    {
      "inputs": [],
      "name": "liquidityManager",
      "outputs": [
        {
          "internalType": "contract ILiquidityManager",
          "name": "",
          "type": "address"
        }
      ],
      "stateMutability": "view",
      "type": "function"
    },
    {
      "inputs": [],
      "name": "owner",
      "outputs": [
        {
          "internalType": "address",
          "name": "",
          "type": "address"
        }
      ],
      "stateMutability": "view",
      "type": "function"
    },
    {
      "inputs": [
        {
          "internalType": "contract IGovernor",
          "name": "governor",
          "type": "address"
        },
        {
          "internalType": "contract IERC20",
          "name": "votingToken",
          "type": "address"
        },
        {
          "internalType": "address[]",
          "name": "targets",
          "type": "address[]"
        },
        {
          "internalType": "uint256[]",
          "name": "values",
          "type": "uint256[]"
        },
        {
          "internalType": "bytes[]",
          "name": "calldatas",
          "type": "bytes[]"
        },
        {
          "internalType": "string",
          "name": "description",
          "type": "string"
        }
      ],
      "name": "propose",
      "outputs": [
        {
          "internalType": "uint256",
          "name": "",
          "type": "uint256"
        }
      ],
      "stateMutability": "nonpayable",
      "type": "function"
    },
    {
      "inputs": [],
      "name": "renounceOwnership",
      "outputs": [],
      "stateMutability": "nonpayable",
      "type": "function"
    },
    {
      "inputs": [
        {
          "internalType": "contract IClusterRegistry",
          "name": "_clusterRegistry",
          "type": "address"
        }
      ],
      "name": "setClusterRegistry",
      "outputs": [],
      "stateMutability": "nonpayable",
      "type": "function"
    },
    {
      "inputs": [
        {
          "internalType": "contract IGovernanceProxy",
          "name": "_governanceProxy",
          "type": "address"
        }
      ],
      "name": "setGovernanceProxy",
      "outputs": [],
      "stateMutability": "nonpayable",
      "type": "function"
    },
    {
      "inputs": [
        {
          "internalType": "contract ILiquidityManager",
          "name": "_liquidityManager",
          "type": "address"
        }
      ],
      "name": "setLiquidityManager",
      "outputs": [],
      "stateMutability": "nonpayable",
      "type": "function"
    },
    {
      "inputs": [
        {
          "internalType": "address",
          "name": "newOwner",
          "type": "address"
        }
      ],
      "name": "transferOwnership",
      "outputs": [],
      "stateMutability": "nonpayable",
      "type": "function"
    },
    {
      "inputs": [
        {
          "internalType": "address",
          "name": "",
          "type": "address"
        },
        {
          "internalType": "uint256",
          "name": "",
          "type": "uint256"
        }
      ],
      "name": "voteCastings",
      "outputs": [
        {
          "internalType": "contract IGovernor",
          "name": "governor",
          "type": "address"
        },
        {
          "internalType": "uint256",
          "name": "forVotes",
          "type": "uint256"
        },
        {
          "internalType": "uint256",
          "name": "againstVotes",
          "type": "uint256"
        },
        {
          "internalType": "uint256",
          "name": "abstainVotes",
          "type": "uint256"
        },
        {
          "internalType": "uint256",
          "name": "currentCluster",
          "type": "uint256"
        }
      ],
      "stateMutability": "view",
      "type": "function"
    }
  ],
  "bytecode": {
    "object": "0x608060405234801561001057600080fd5b5061001a3361001f565b61006f565b600080546001600160a01b038381166001600160a01b0319831681178455604051919092169283917f8be0079c531659141344cd1fd0a4f28419497f9722a3daafe3b4186f6b6457e09190a35050565b611be28061007e6000396000f3fe608060405234801561001057600080fd5b50600436106101005760003560e01c8063715018a611610097578063afe3b8d911610066578063afe3b8d914610273578063d5fcce1114610286578063f2fde38b14610299578063fd1ef5e9146102ac57600080fd5b8063715018a6146101c55780637c2338ec146101cd5780638da5cb5b146101e05780639d54973a146101f157600080fd5b80633c1624d4116100d35780633c1624d41461017357806346bd815b1461018657806352e352f3146101995780635c5d81b2146101bc57600080fd5b80630372e19b146101055780630ddfb51c1461011a57806329df9b191461012d5780633382743814610148575b600080fd5b6101186101133660046115e7565b6102bf565b005b61011861012836600461162b565b61088f565b610135606081565b6040519081526020015b60405180910390f35b60035461015b906001600160a01b031681565b6040516001600160a01b03909116815260200161013f565b61011861018136600461162b565b6108e3565b610135610194366004611896565b610937565b6101ac6101a7366004611963565b610c94565b604051901515815260200161013f565b61013560001981565b610118610ce2565b60025461015b906001600160a01b031681565b6000546001600160a01b031661015b565b6102416101ff366004611963565b60016020818152600093845260408085209091529183529120805491810154600282015460038301546004909301546001600160a01b03909416939192909185565b604080516001600160a01b0390961686526020860194909452928401919091526060830152608082015260a00161013f565b60045461015b906001600160a01b031681565b610118610294366004611963565b610cf6565b6101186102a736600461162b565b6113f0565b6101186102ba36600461162b565b61146e565b6002546001600160a01b031633146102ea57604051635d41d5d560e01b815260040160405180910390fd5b60006102f78484846114c2565b905060006001610306836114f5565b6103119060036119a5565b61031b91906119bc565b90506102fb8103610334576103316001826119bc565b90505b6000876001600160a01b031663fc0c546a6040518163ffffffff1660e01b8152600401602060405180830381865afa158015610374573d6000803e3d6000fd5b505050506040513d601f19601f8201168201806040525081019061039891906119cf565b604051632d63f69360e01b8152600481018990529091506000906001600160a01b038a1690632d63f69390602401602060405180830381865afa1580156103e3573d6000803e3d6000fd5b505050506040513d601f19601f8201168201806040525081019061040791906119ec565b60048054604051630246540360e61b81529293506000926001600160a01b0380871693633a46b1a8939091169163919500c09161044c916102fb910190815260200190565b602060405180830381865afa158015610469573d6000803e3d6000fd5b505050506040513d601f19601f8201168201806040525081019061048d91906119cf565b6040516001600160e01b031960e084901b1681526001600160a01b03909116600482015260248101859052604401602060405180830381865afa1580156104d8573d6000803e3d6000fd5b505050506040513d601f19601f820116820180604052508101906104fc91906119ec565b90508087106105e95760048054604051630246540360e61b81526102fb928101929092526001600160a01b03169063919500c090602401602060405180830381865afa158015610550573d6000803e3d6000fd5b505050506040513d601f19601f8201168201806040525081019061057491906119cf565b6001600160a01b031663c0ab2cc68b8b60006040518463ffffffff1660e01b81526004016105a493929190611a05565b600060405180830381600087803b1580156105be57600080fd5b505af11580156105d2573d6000803e3d6000fd5b5050505080876105e291906119bc565b96506107bb565b8088106106d45760048054604051630246540360e61b81526102fb928101929092526001600160a01b03169063919500c090602401602060405180830381865afa15801561063b573d6000803e3d6000fd5b505050506040513d601f19601f8201168201806040525081019061065f91906119cf565b6001600160a01b031663c0ab2cc68b8b60016040518463ffffffff1660e01b815260040161068f93929190611a05565b600060405180830381600087803b1580156106a957600080fd5b505af11580156106bd573d6000803e3d6000fd5b5050505080886106cd91906119bc565b97506107bb565b8086106107bb5760048054604051630246540360e61b81526102fb928101929092526001600160a01b03169063919500c090602401602060405180830381865afa158015610726573d6000803e3d6000fd5b505050506040513d601f19601f8201168201806040525081019061074a91906119cf565b6001600160a01b031663c0ab2cc68b8b60026040518463ffffffff1660e01b815260040161077a93929190611a05565b600060405180830381600087803b15801561079457600080fd5b505af11580156107a8573d6000803e3d6000fd5b5050505080866107b891906119bc565b95505b6040518060a001604052808b6001600160a01b0316815260200189815260200188815260200187815260200185815250600160008c6001600160a01b03166001600160a01b0316815260200190815260200160002060008b815260200190815260200160002060008201518160000160006101000a8154816001600160a01b0302191690836001600160a01b03160217905550602082015181600101556040820151816002015560608201518160030155608082015181600401559050506108838a8a610cf6565b50505050505050505050565b610897611518565b6004546001600160a01b0316156108c157604051635d41d5d560e01b815260040160405180910390fd5b600480546001600160a01b0319166001600160a01b0392909216919091179055565b6108eb611518565b6003546001600160a01b03161561091557604051635d41d5d560e01b815260040160405180910390fd5b600380546001600160a01b0319166001600160a01b0392909216919091179055565b6002546000906001600160a01b0316331461096557604051635d41d5d560e01b815260040160405180910390fd5b60035460405163ccc0c8a160e01b81526001600160a01b038881166004830152600092169063ccc0c8a190602401602060405180830381865afa1580156109b0573d6000803e3d6000fd5b505050506040513d601f19601f820116820180604052508101906109d491906119ec565b905060008115801590610b8c575060048054604051630246540360e61b81529182018490526001600160a01b03169063919500c090602401602060405180830381865afa158015610a29573d6000803e3d6000fd5b505050506040513d601f19601f82011682018060405250810190610a4d91906119cf565b6001600160a01b03166359b6a0c96040518163ffffffff1660e01b8152600401602060405180830381865afa158015610a8a573d6000803e3d6000fd5b505050506040513d601f19601f82011682018060405250810190610aae91906119ec565b6004546001600160a01b031663919500c0610aca6001866119bc565b6040518263ffffffff1660e01b8152600401610ae891815260200190565b602060405180830381865afa158015610b05573d6000803e3d6000fd5b505050506040513d601f19601f82011682018060405250810190610b2991906119cf565b6001600160a01b03166359b6a0c96040518163ffffffff1660e01b8152600401602060405180830381865afa158015610b66573d6000803e3d6000fd5b505050506040513d601f19601f82011682018060405250810190610b8a91906119ec565b115b15610ba357610b9c6001836119bc565b9050610ba6565b50805b60048054604051630246540360e61b81529182018390526001600160a01b03169063919500c090602401602060405180830381865afa158015610bed573d6000803e3d6000fd5b505050506040513d601f19601f82011682018060405250810190610c1191906119cf565b6001600160a01b031663c50adadf8a898989896040518663ffffffff1660e01b8152600401610c44959493929190611ac4565b6020604051808303816000875af1158015610c63573d6000803e3d6000fd5b505050506040513d601f19601f82011682018060405250810190610c8791906119ec565b9998505050505050505050565b6001600160a01b0382166000908152600160208181526040808420858552909152822090810154158015610cca57506002810154155b8015610cd857506003810154155b9150505b92915050565b610cea611518565b610cf46000611572565b565b6001600160a01b03821660009081526001602090815260408083208484529091528120905b600019826004015414158015610d315750606081105b156113ea57815460408051637e062a3560e11b815290516000926001600160a01b03169163fc0c546a9160048083019260209291908290030181865afa158015610d7f573d6000803e3d6000fd5b505050506040513d601f19601f82011682018060405250810190610da391906119cf565b8354604051632d63f69360e01b8152600481018790529192506000916001600160a01b0390911690632d63f69390602401602060405180830381865afa158015610df1573d6000803e3d6000fd5b505050506040513d601f19601f82011682018060405250810190610e1591906119ec565b6004805486820154604051630246540360e61b8152928301529192506000916001600160a01b0385811692633a46b1a892919091169063919500c090602401602060405180830381865afa158015610e71573d6000803e3d6000fd5b505050506040513d601f19601f82011682018060405250810190610e9591906119cf565b6040516001600160e01b031960e084901b1681526001600160a01b03909116600482015260248101859052604401602060405180830381865afa158015610ee0573d6000803e3d6000fd5b505050506040513d601f19601f82011682018060405250810190610f0491906119ec565b6004805487820154604051630246540360e61b81529283015291925060009183916001600160a01b039091169063919500c090602401602060405180830381865afa158015610f57573d6000803e3d6000fd5b505050506040513d601f19601f82011682018060405250810190610f7b91906119cf565b6001600160a01b03166359b6a0c96040518163ffffffff1660e01b8152600401602060405180830381865afa158015610fb8573d6000803e3d6000fd5b505050506040513d601f19601f82011682018060405250810190610fdc91906119ec565b10610fe757816110b5565b6004805487820154604051630246540360e61b8152928301526001600160a01b03169063919500c090602401602060405180830381865afa158015611030573d6000803e3d6000fd5b505050506040513d601f19601f8201168201806040525081019061105491906119cf565b6001600160a01b03166359b6a0c96040518163ffffffff1660e01b8152600401602060405180830381865afa158015611091573d6000803e3d6000fd5b505050506040513d601f19601f820116820180604052508101906110b591906119ec565b9050808660020154106111b5576004805487820154604051630246540360e61b8152928301526001600160a01b03169063919500c090602401602060405180830381865afa15801561110b573d6000803e3d6000fd5b505050506040513d601f19601f8201168201806040525081019061112f91906119cf565b8654604051636055966360e11b81526001600160a01b039283169263c0ab2cc692611164929116908b90600090600401611a05565b600060405180830381600087803b15801561117e57600080fd5b505af1158015611192573d6000803e3d6000fd5b50505050808660020160008282546111aa91906119bc565b909155506113a19050565b808660010154106112a8576004805487820154604051630246540360e61b8152928301526001600160a01b03169063919500c090602401602060405180830381865afa158015611209573d6000803e3d6000fd5b505050506040513d601f19601f8201168201806040525081019061122d91906119cf565b8654604051636055966360e11b81526001600160a01b039283169263c0ab2cc692611262929116908b90600190600401611a05565b600060405180830381600087803b15801561127c57600080fd5b505af1158015611290573d6000803e3d6000fd5b50505050808660010160008282546111aa91906119bc565b808660030154106113a1576004805487820154604051630246540360e61b8152928301526001600160a01b03169063919500c090602401602060405180830381865afa1580156112fc573d6000803e3d6000fd5b505050506040513d601f19601f8201168201806040525081019061132091906119cf565b8654604051636055966360e11b81526001600160a01b039283169263c0ab2cc692611355929116908b90600290600401611a05565b600060405180830381600087803b15801561136f57600080fd5b505af1158015611383573d6000803e3d6000fd5b505050508086600301600082825461139b91906119bc565b90915550505b6004860154156113cb5760018660040160008282546113c091906119bc565b909155506113d49050565b60001960048701555b6113df600186611b80565b945050505050610d1b565b50505050565b6113f8611518565b6001600160a01b0381166114625760405162461bcd60e51b815260206004820152602660248201527f4f776e61626c653a206e6577206f776e657220697320746865207a65726f206160448201526564647265737360d01b60648201526084015b60405180910390fd5b61146b81611572565b50565b611476611518565b6002546001600160a01b0316156114a057604051635d41d5d560e01b815260040160405180910390fd5b600280546001600160a01b0319166001600160a01b0392909216919091179055565b60008284116114de578183116114d857816114ed565b826114ed565b8184116114eb57816114ed565b835b949350505050565b6000805b8215610cdc5760019290921c918061151081611b93565b9150506114f9565b6000546001600160a01b03163314610cf45760405162461bcd60e51b815260206004820181905260248201527f4f776e61626c653a2063616c6c6572206973206e6f7420746865206f776e65726044820152606401611459565b600080546001600160a01b038381166001600160a01b0319831681178455604051919092169283917f8be0079c531659141344cd1fd0a4f28419497f9722a3daafe3b4186f6b6457e09190a35050565b6001600160a01b038116811461146b57600080fd5b80356115e2816115c2565b919050565b600080600080600060a086880312156115ff57600080fd5b853561160a816115c2565b97602087013597506040870135966060810135965060800135945092505050565b60006020828403121561163d57600080fd5b8135611648816115c2565b9392505050565b634e487b7160e01b600052604160045260246000fd5b604051601f8201601f1916810167ffffffffffffffff8111828210171561168e5761168e61164f565b604052919050565b600067ffffffffffffffff8211156116b0576116b061164f565b5060051b60200190565b600082601f8301126116cb57600080fd5b813560206116e06116db83611696565b611665565b82815260059290921b840181019181810190868411156116ff57600080fd5b8286015b84811015611723578035611716816115c2565b8352918301918301611703565b509695505050505050565b600082601f83011261173f57600080fd5b8135602061174f6116db83611696565b82815260059290921b8401810191818101908684111561176e57600080fd5b8286015b848110156117235780358352918301918301611772565b600067ffffffffffffffff8311156117a3576117a361164f565b6117b6601f8401601f1916602001611665565b90508281528383830111156117ca57600080fd5b828260208301376000602084830101529392505050565b600082601f8301126117f257600080fd5b813560206118026116db83611696565b82815260059290921b8401810191818101908684111561182157600080fd5b8286015b8481101561172357803567ffffffffffffffff8111156118455760008081fd5b8701603f810189136118575760008081fd5b611868898683013560408401611789565b845250918301918301611825565b600082601f83011261188757600080fd5b61164883833560208501611789565b60008060008060008060c087890312156118af57600080fd5b6118b8876115d7565b95506118c6602088016115d7565b9450604087013567ffffffffffffffff808211156118e357600080fd5b6118ef8a838b016116ba565b9550606089013591508082111561190557600080fd5b6119118a838b0161172e565b9450608089013591508082111561192757600080fd5b6119338a838b016117e1565b935060a089013591508082111561194957600080fd5b5061195689828a01611876565b9150509295509295509295565b6000806040838503121561197657600080fd5b8235611981816115c2565b946020939093013593505050565b634e487b7160e01b600052601160045260246000fd5b8082028115828204841417610cdc57610cdc61198f565b81810381811115610cdc57610cdc61198f565b6000602082840312156119e157600080fd5b8151611648816115c2565b6000602082840312156119fe57600080fd5b5051919050565b6001600160a01b03939093168352602083019190915260ff16604082015260600190565b6000815180845260005b81811015611a4f57602081850181015186830182015201611a33565b506000602082860101526020601f19601f83011685010191505092915050565b600081518084526020808501808196508360051b8101915082860160005b85811015611ab7578284038952611aa5848351611a29565b98850198935090840190600101611a8d565b5091979650505050505050565b6001600160a01b03868116825260a0602080840182905287519184018290526000928882019290919060c0860190855b81811015611b12578551851683529483019491830191600101611af4565b5050858103604087015288518082529082019350915080880160005b83811015611b4a57815185529382019390820190600101611b2e565b505050508281036060840152611b608186611a6f565b90508281036080840152611b748185611a29565b98975050505050505050565b80820180821115610cdc57610cdc61198f565b600060018201611ba557611ba561198f565b506001019056fea264697066735822122060744237f3fb485cb66643420951896f756caf35e151ecd3277bbb63dc03f51264736f6c63430008130033",
    "linkReferences": {}
  },
  "methodIdentifiers": {
    "STOP_CASTING()": "5c5d81b2",
    "VOTING_CLUSTER_LIMIT()": "29df9b19",
    "areAllVotesCast(address,uint256)": "52e352f3",
    "castVotes(address,uint256,uint256,uint256,uint256)": "0372e19b",
    "clusterRegistry()": "afe3b8d9",
    "continueCastingVotes(address,uint256)": "d5fcce11",
    "governanceProxy()": "7c2338ec",
    "liquidityManager()": "33827438",
    "owner()": "8da5cb5b",
    "propose(address,address,address[],uint256[],bytes[],string)": "46bd815b",
    "renounceOwnership()": "715018a6",
    "setClusterRegistry(address)": "0ddfb51c",
    "setGovernanceProxy(address)": "fd1ef5e9",
    "setLiquidityManager(address)": "3c1624d4",
    "transferOwnership(address)": "f2fde38b",
    "voteCastings(address,uint256)": "9d54973a"
  },
  "id": 67
}