{
  "abi": [
    {
      "inputs": [
        {
          "internalType": "contract IGovernor",
          "name": "_governor",
          "type": "address"
        },
        {
          "internalType": "contract ILPToken",
          "name": "_lpToken",
          "type": "address"
        },
        {
          "internalType": "contract ITokenManager",
          "name": "_tokenManager",
          "type": "address"
        }
      ],
      "stateMutability": "nonpayable",
      "type": "constructor"
    },
    {
      "inputs": [],
      "name": "GovernorProxy__AlreadyVoted",
      "type": "error"
    },
    {
      "inputs": [],
      "name": "GovernorProxy__NoVotingPower",
      "type": "error"
    },
    {
      "inputs": [],
      "name": "GovernorProxy__ProposalAlreadyRegistered",
      "type": "error"
    },
    {
      "inputs": [],
      "name": "GovernorProxy__VotesAlreadyCommitted",
      "type": "error"
    },
    {
      "inputs": [],
      "name": "GovernorProxy__VotingPeriodNotElapsed",
      "type": "error"
    },
    {
      "inputs": [
        {
          "internalType": "uint256",
          "name": "_proposalId",
          "type": "uint256"
        },
        {
          "internalType": "enum IGovernorProxy.VoteType",
          "name": "_vote",
          "type": "uint8"
        }
      ],
      "name": "castVote",
      "outputs": [],
      "stateMutability": "nonpayable",
      "type": "function"
    },
    {
      "inputs": [
        {
          "internalType": "uint256",
          "name": "_proposalId",
          "type": "uint256"
        }
      ],
      "name": "commitVotes",
      "outputs": [],
      "stateMutability": "nonpayable",
      "type": "function"
    },
    {
      "inputs": [
        {
          "internalType": "address[]",
          "name": "targets",
          "type": "address[]"
        },
        {
          "internalType": "uint256[]",
          "name": "values",
          "type": "uint256[]"
        },
        {
          "internalType": "bytes[]",
          "name": "calldatas",
          "type": "bytes[]"
        },
        {
          "internalType": "string",
          "name": "description",
          "type": "string"
        }
      ],
      "name": "createProposal",
      "outputs": [
        {
          "internalType": "uint256",
          "name": "",
          "type": "uint256"
        }
      ],
      "stateMutability": "nonpayable",
      "type": "function"
    },
    {
      "inputs": [],
      "name": "governor",
      "outputs": [
        {
          "internalType": "contract IGovernor",
          "name": "",
          "type": "address"
        }
      ],
      "stateMutability": "view",
      "type": "function"
    },
    {
      "inputs": [],
      "name": "lpToken",
      "outputs": [
        {
          "internalType": "contract ILPToken",
          "name": "",
          "type": "address"
        }
      ],
      "stateMutability": "view",
      "type": "function"
    },
    {
      "inputs": [
        {
          "internalType": "uint256",
          "name": "",
          "type": "uint256"
        }
      ],
      "name": "proposals",
      "outputs": [
        {
          "internalType": "uint256",
          "name": "snapshotBlock",
          "type": "uint256"
        },
        {
          "internalType": "uint256",
          "name": "forVotes",
          "type": "uint256"
        },
        {
          "internalType": "uint256",
          "name": "againstVotes",
          "type": "uint256"
        },
        {
          "internalType": "uint256",
          "name": "abstainVotes",
          "type": "uint256"
        },
        {
          "internalType": "bool",
          "name": "voteCounted",
          "type": "bool"
        }
      ],
      "stateMutability": "view",
      "type": "function"
    },
    {
      "inputs": [
        {
          "internalType": "uint256",
          "name": "_proposalId",
          "type": "uint256"
        }
      ],
      "name": "registerProposal",
      "outputs": [],
      "stateMutability": "nonpayable",
      "type": "function"
    },
    {
      "inputs": [],
      "name": "tokenManager",
      "outputs": [
        {
          "internalType": "contract ITokenManager",
          "name": "",
          "type": "address"
        }
      ],
      "stateMutability": "view",
      "type": "function"
    }
  ],
  "bytecode": {
    "object": "0x60e060405234801561001057600080fd5b50604051610ea8380380610ea883398101604081905261002f91610064565b6001600160a01b0392831660805290821660a0521660c0526100b1565b6001600160a01b038116811461006157600080fd5b50565b60008060006060848603121561007957600080fd5b83516100848161004c565b60208501519093506100958161004c565b60408501519092506100a68161004c565b809150509250925092565b60805160a05160c051610d9061011860003960008181610176015281816103cf01526104950152600081816101b00152818161032d01526105e401526000818161010101528181610232015281816103fc015281816104c401526107790152610d906000f3fe608060405234801561001057600080fd5b50600436106100885760003560e01c80632a709b141161005b5780632a709b141461017157806356781388146101985780635fcbd285146101ab578063aa67fab4146101d257600080fd5b8063013cf08b1461008d5780630c340a24146100fc57806320ca84881461013b578063280e25fa14610150575b600080fd5b6100cd61009b366004610802565b600060208190529081526040902080546002820154600383015460048401546005909401549293919290919060ff1685565b6040805195865260208601949094529284019190915260608301521515608082015260a0015b60405180910390f35b6101237f000000000000000000000000000000000000000000000000000000000000000081565b6040516001600160a01b0390911681526020016100f3565b61014e610149366004610802565b6101e5565b005b61016361015e366004610a05565b610490565b6040519081526020016100f3565b6101237f000000000000000000000000000000000000000000000000000000000000000081565b61014e6101a6366004610b1d565b61055e565b6101237f000000000000000000000000000000000000000000000000000000000000000081565b61014e6101e0366004610802565b610733565b6000818152602081905260409020600581015460ff16156102195760405163225281ed60e11b815260040160405180910390fd5b60405163c01f9e3760e01b8152600481018390526000907f00000000000000000000000000000000000000000000000000000000000000006001600160a01b03169063c01f9e3790602401602060405180830381865afa158015610281573d6000803e3d6000fd5b505050506040513d601f19601f820116820180604052508101906102a59190610b51565b82549091506000906102b79042610b80565b83549091506000906102c99084610b80565b9050600a6102d8826007610b99565b6102e29190610bb8565b821015610302576040516376af5aa360e01b815260040160405180910390fd5b60058401805460ff191660011790558354604051632394e7a360e21b81526000916001600160a01b037f00000000000000000000000000000000000000000000000000000000000000001691638e539e8c916103649160040190815260200190565b602060405180830381865afa158015610381573d6000803e3d6000fd5b505050506040513d601f19601f820116820180604052508101906103a59190610b51565b6002860154600387015460048089015460405163405c51a360e11b81529495506001600160a01b037f000000000000000000000000000000000000000000000000000000000000000016946380b8a34694610456947f0000000000000000000000000000000000000000000000000000000000000000948e948a949091016001600160a01b03969096168652602086019490945260408501929092526060840152608083015260a082015260c00190565b600060405180830381600087803b15801561047057600080fd5b505af1158015610484573d6000803e3d6000fd5b50505050505050505050565b6000807f00000000000000000000000000000000000000000000000000000000000000006001600160a01b031663985216857f0000000000000000000000000000000000000000000000000000000000000000888888886040518663ffffffff1660e01b8152600401610507959493929190610c75565b6020604051808303816000875af1158015610526573d6000803e3d6000fd5b505050506040513d601f19601f8201168201806040525081019061054a9190610b51565b905061055581610733565b95945050505050565b600082815260208181526040808320338452600181019092529091205460ff161561059c5760405163552ab43f60e11b815260040160405180910390fd5b600581015460ff16156105c25760405163225281ed60e11b815260040160405180910390fd5b8054604051630748d63560e31b815233600482015260248101919091526000907f00000000000000000000000000000000000000000000000000000000000000006001600160a01b031690633a46b1a890604401602060405180830381865afa158015610633573d6000803e3d6000fd5b505050506040513d601f19601f820116820180604052508101906106579190610b51565b90508060000361067a57604051630361a8b760e41b815260040160405180910390fd5b33600090815260018381016020526040909120805460ff1916821790558360028111156106a9576106a9610d31565b036106cd57808260020160008282546106c29190610d47565b9091555061072d9050565b60008360028111156106e1576106e1610d31565b036106fa57808260030160008282546106c29190610d47565b600283600281111561070e5761070e610d31565b0361072d57808260040160008282546107279190610d47565b90915550505b50505050565b6000818152602081905260409020541561076057604051630f72f9a760e01b815260040160405180910390fd5b604051632d63f69360e01b8152600481018290526000907f00000000000000000000000000000000000000000000000000000000000000006001600160a01b031690632d63f69390602401602060405180830381865afa1580156107c8573d6000803e3d6000fd5b505050506040513d601f19601f820116820180604052508101906107ec9190610b51565b6000928352602083905260409092209190915550565b60006020828403121561081457600080fd5b5035919050565b634e487b7160e01b600052604160045260246000fd5b604051601f8201601f1916810167ffffffffffffffff8111828210171561085a5761085a61081b565b604052919050565b600067ffffffffffffffff82111561087c5761087c61081b565b5060051b60200190565b600082601f83011261089757600080fd5b813560206108ac6108a783610862565b610831565b82815260059290921b840181019181810190868411156108cb57600080fd5b8286015b848110156108e657803583529183019183016108cf565b509695505050505050565b600067ffffffffffffffff83111561090b5761090b61081b565b61091e601f8401601f1916602001610831565b905082815283838301111561093257600080fd5b828260208301376000602084830101529392505050565b600082601f83011261095a57600080fd5b8135602061096a6108a783610862565b82815260059290921b8401810191818101908684111561098957600080fd5b8286015b848110156108e657803567ffffffffffffffff8111156109ad5760008081fd5b8701603f810189136109bf5760008081fd5b6109d08986830135604084016108f1565b84525091830191830161098d565b600082601f8301126109ef57600080fd5b6109fe838335602085016108f1565b9392505050565b60008060008060808587031215610a1b57600080fd5b843567ffffffffffffffff80821115610a3357600080fd5b818701915087601f830112610a4757600080fd5b81356020610a576108a783610862565b82815260059290921b8401810191818101908b841115610a7657600080fd5b948201945b83861015610aaa5785356001600160a01b0381168114610a9b5760008081fd5b82529482019490820190610a7b565b98505088013592505080821115610ac057600080fd5b610acc88838901610886565b94506040870135915080821115610ae257600080fd5b610aee88838901610949565b93506060870135915080821115610b0457600080fd5b50610b11878288016109de565b91505092959194509250565b60008060408385031215610b3057600080fd5b82359150602083013560038110610b4657600080fd5b809150509250929050565b600060208284031215610b6357600080fd5b5051919050565b634e487b7160e01b600052601160045260246000fd5b81810381811115610b9357610b93610b6a565b92915050565b6000816000190483118215151615610bb357610bb3610b6a565b500290565b600082610bd557634e487b7160e01b600052601260045260246000fd5b500490565b6000815180845260005b81811015610c0057602081850181015186830182015201610be4565b506000602082860101526020601f19601f83011685010191505092915050565b600081518084526020808501808196508360051b8101915082860160005b85811015610c68578284038952610c56848351610bda565b98850198935090840190600101610c3e565b5091979650505050505050565b6001600160a01b03868116825260a0602080840182905287519184018290526000928882019290919060c0860190855b81811015610cc3578551851683529483019491830191600101610ca5565b5050858103604087015288518082529082019350915080880160005b83811015610cfb57815185529382019390820190600101610cdf565b505050508281036060840152610d118186610c20565b90508281036080840152610d258185610bda565b98975050505050505050565b634e487b7160e01b600052602160045260246000fd5b80820180821115610b9357610b93610b6a56fea26469706673582212200644ad0c8233282f5cd048870e4bce13b4874255295100846c57b431173fb8ef64736f6c63430008100033",
    "linkReferences": {}
  },
  "methodIdentifiers": {
    "castVote(uint256,uint8)": "56781388",
    "commitVotes(uint256)": "20ca8488",
    "createProposal(address[],uint256[],bytes[],string)": "280e25fa",
    "governor()": "0c340a24",
    "lpToken()": "5fcbd285",
    "proposals(uint256)": "013cf08b",
    "registerProposal(uint256)": "aa67fab4",
    "tokenManager()": "2a709b14"
  },
  "id": 61
}