{
  "abi": [
    {
      "inputs": [],
      "name": "LiquidityRamp__AmountIsZero",
      "type": "error"
    },
    {
      "inputs": [],
      "name": "LiquidityRamp__AmountTooHigh",
      "type": "error"
    },
    {
      "inputs": [],
      "name": "LiquidityRamp__MinLiquidity",
      "type": "error"
    },
    {
      "inputs": [],
      "name": "LiquidityRamp__PoolDoesNotExist",
      "type": "error"
    },
    {
      "inputs": [],
      "name": "LiquidityRamp__Unauthorized",
      "type": "error"
    },
    {
      "anonymous": false,
      "inputs": [
        {
          "indexed": true,
          "internalType": "uint256",
          "name": "poolIdx",
          "type": "uint256"
        },
        {
          "indexed": true,
          "internalType": "address",
          "name": "provider",
          "type": "address"
        },
        {
          "indexed": false,
          "internalType": "contract IERC20",
          "name": "tokenA",
          "type": "address"
        },
        {
          "indexed": false,
          "internalType": "contract IERC20",
          "name": "tokenB",
          "type": "address"
        },
        {
          "indexed": false,
          "internalType": "uint256",
          "name": "amountA",
          "type": "uint256"
        },
        {
          "indexed": false,
          "internalType": "uint256",
          "name": "amountB",
          "type": "uint256"
        }
      ],
      "name": "LiquidityAdded",
      "type": "event"
    },
    {
      "anonymous": false,
      "inputs": [
        {
          "indexed": true,
          "internalType": "uint256",
          "name": "poolIdx",
          "type": "uint256"
        },
        {
          "indexed": true,
          "internalType": "address",
          "name": "receiver",
          "type": "address"
        },
        {
          "indexed": false,
          "internalType": "contract IERC20",
          "name": "thisToken",
          "type": "address"
        },
        {
          "indexed": false,
          "internalType": "contract IERC20",
          "name": "thatToken",
          "type": "address"
        },
        {
          "indexed": false,
          "internalType": "uint256",
          "name": "thisOut",
          "type": "uint256"
        },
        {
          "indexed": false,
          "internalType": "uint256",
          "name": "thatOut",
          "type": "uint256"
        }
      ],
      "name": "LiquidityRedeemed",
      "type": "event"
    },
    {
      "anonymous": false,
      "inputs": [
        {
          "indexed": true,
          "internalType": "address",
          "name": "previousOwner",
          "type": "address"
        },
        {
          "indexed": true,
          "internalType": "address",
          "name": "newOwner",
          "type": "address"
        }
      ],
      "name": "OwnershipTransferred",
      "type": "event"
    },
    {
      "inputs": [
        {
          "internalType": "contract IERC20",
          "name": "tokenA",
          "type": "address"
        },
        {
          "internalType": "contract IERC20",
          "name": "tokenB",
          "type": "address"
        },
        {
          "internalType": "uint256",
          "name": "amountA",
          "type": "uint256"
        },
        {
          "internalType": "uint256",
          "name": "amountB",
          "type": "uint256"
        },
        {
          "internalType": "address",
          "name": "provider",
          "type": "address"
        }
      ],
      "name": "addLiquidity",
      "outputs": [],
      "stateMutability": "nonpayable",
      "type": "function"
    },
    {
      "inputs": [
        {
          "internalType": "contract IERC20",
          "name": "_thisToken",
          "type": "address"
        },
        {
          "internalType": "contract IERC20",
          "name": "_thatToken",
          "type": "address"
        }
      ],
      "name": "createLpToken",
      "outputs": [
        {
          "internalType": "contract ILPToken",
          "name": "",
          "type": "address"
        }
      ],
      "stateMutability": "nonpayable",
      "type": "function"
    },
    {
      "inputs": [],
      "name": "liquidityManager",
      "outputs": [
        {
          "internalType": "contract ILiquidityManager",
          "name": "",
          "type": "address"
        }
      ],
      "stateMutability": "view",
      "type": "function"
    },
    {
      "inputs": [],
      "name": "owner",
      "outputs": [
        {
          "internalType": "address",
          "name": "",
          "type": "address"
        }
      ],
      "stateMutability": "view",
      "type": "function"
    },
    {
      "inputs": [],
      "name": "poolManager",
      "outputs": [
        {
          "internalType": "contract IPoolManager",
          "name": "",
          "type": "address"
        }
      ],
      "stateMutability": "view",
      "type": "function"
    },
    {
      "inputs": [
        {
          "internalType": "contract ILPToken",
          "name": "lpToken",
          "type": "address"
        },
        {
          "internalType": "uint256",
          "name": "amountLpTokens",
          "type": "uint256"
        },
        {
          "internalType": "address",
          "name": "recipient",
          "type": "address"
        }
      ],
      "name": "redeemLiquidity",
      "outputs": [
        {
          "internalType": "uint256",
          "name": "thisOut",
          "type": "uint256"
        },
        {
          "internalType": "uint256",
          "name": "thatOut",
          "type": "uint256"
        }
      ],
      "stateMutability": "nonpayable",
      "type": "function"
    },
    {
      "inputs": [],
      "name": "renounceOwnership",
      "outputs": [],
      "stateMutability": "nonpayable",
      "type": "function"
    },
    {
      "inputs": [
        {
          "internalType": "contract ILiquidityManager",
          "name": "_liquidityManager",
          "type": "address"
        }
      ],
      "name": "setLiquidityManager",
      "outputs": [],
      "stateMutability": "nonpayable",
      "type": "function"
    },
    {
      "inputs": [
        {
          "internalType": "contract IPoolManager",
          "name": "_poolManager",
          "type": "address"
        }
      ],
      "name": "setPoolManager",
      "outputs": [],
      "stateMutability": "nonpayable",
      "type": "function"
    },
    {
      "inputs": [
        {
          "internalType": "contract ISwapManager",
          "name": "_swapManager",
          "type": "address"
        }
      ],
      "name": "setSwapManager",
      "outputs": [],
      "stateMutability": "nonpayable",
      "type": "function"
    },
    {
      "inputs": [],
      "name": "swapManager",
      "outputs": [
        {
          "internalType": "contract ISwapManager",
          "name": "",
          "type": "address"
        }
      ],
      "stateMutability": "view",
      "type": "function"
    },
    {
      "inputs": [
        {
          "internalType": "address",
          "name": "newOwner",
          "type": "address"
        }
      ],
      "name": "transferOwnership",
      "outputs": [],
      "stateMutability": "nonpayable",
      "type": "function"
    }
  ],
  "bytecode": {
    "object": "0x608060405234801561001057600080fd5b5061001a33610023565b60018055610073565b600080546001600160a01b038381166001600160a01b0319831681178455604051919092169283917f8be0079c531659141344cd1fd0a4f28419497f9722a3daafe3b4186f6b6457e09190a35050565b6142b2806100826000396000f3fe60806040523480156200001157600080fd5b5060043610620000c35760003560e01c8063715018a6116200007a578063715018a6146200016b5780637aef671514620001755780638da5cb5b146200018c578063dc4c90d3146200019e578063e5f415c914620001b2578063f2fde38b14620001df57600080fd5b806309ee07c414620000c857806330284efc14620000fc5780633382743814620001155780633c1624d414620001295780634b2fc7bb1462000140578063709d039d1462000157575b600080fd5b620000df620000d93660046200167c565b620001f6565b6040516001600160a01b0390911681526020015b60405180910390f35b620001136200010d366004620016ba565b6200029e565b005b600254620000df906001600160a01b031681565b620001136200013a366004620016ba565b620002f5565b6200011362000151366004620016da565b6200034c565b600454620000df906001600160a01b031681565b62000113620009ff565b6200011362000186366004620016ba565b62000a17565b6000546001600160a01b0316620000df565b600354620000df906001600160a01b031681565b620001c9620001c336600462001740565b62000a6e565b60408051928352602083019190915201620000f3565b62000113620001f0366004620016ba565b6200130e565b6003546000906001600160a01b0316331462000225576040516308a6ef2360e31b815260040160405180910390fd5b6000838330600460009054906101000a90046001600160a01b03166040516200024e9062001658565b6001600160a01b039485168152928416602084015290831660408301529091166060820152608001604051809103906000f08015801562000293573d6000803e3d6000fd5b509150505b92915050565b620002a862001391565b6004546001600160a01b031615620002d3576040516308a6ef2360e31b815260040160405180910390fd5b600480546001600160a01b0319166001600160a01b0392909216919091179055565b620002ff62001391565b6002546001600160a01b0316156200032a576040516308a6ef2360e31b815260040160405180910390fd5b600280546001600160a01b0319166001600160a01b0392909216919091179055565b62000356620013ed565b600354604051638ae93f0b60e01b81526001600160a01b03878116600483015286811660248301526000921690638ae93f0b90604401602060405180830381865afa158015620003aa573d6000803e3d6000fd5b505050506040513d601f19601f82011682018060405250810190620003d0919062001787565b905080600003620003f4576040516303fd3b0560e01b815260040160405180910390fd5b6003546040516306ed78b760e21b8152600481018390526000916001600160a01b031690631bb5e2dc90602401602060405180830381865afa1580156200043f573d6000803e3d6000fd5b505050506040513d601f19601f82011682018060405250810190620004659190620017a1565b600254604051637db4c98b60e11b8152600481018590526001600160a01b038a811660248301526044820189905292935091169063fb69931690606401600060405180830381600087803b158015620004bd57600080fd5b505af1158015620004d2573d6000803e3d6000fd5b5050600254604051637db4c98b60e11b8152600481018690526001600160a01b038a8116602483015260448201899052909116925063fb6993169150606401600060405180830381600087803b1580156200052c57600080fd5b505af115801562000541573d6000803e3d6000fd5b50505050806001600160a01b03166318160ddd6040518163ffffffff1660e01b8152600401602060405180830381865afa15801562000584573d6000803e3d6000fd5b505050506040513d601f19601f82011682018060405250810190620005aa919062001787565b60000362000739576000620005ca620005c48688620017d7565b62001448565b90506103e88111620005ef5760405163cff7acc560e01b815260040160405180910390fd5b600480546040516332ddee3f60e21b81529182018590526001600160a01b03169063cb77b8fc90602401600060405180830381600087803b1580156200063457600080fd5b505af115801562000649573d6000803e3d6000fd5b50506040516340c10f1960e01b815261dead60048201526103e860248201526001600160a01b03851692506340c10f199150604401600060405180830381600087803b1580156200069957600080fd5b505af1158015620006ae573d6000803e3d6000fd5b50505050816001600160a01b03166340c10f19856103e884620006d29190620017f1565b6040516001600160e01b031960e085901b1681526001600160a01b0390921660048301526024820152604401600060405180830381600087803b1580156200071957600080fd5b505af11580156200072e573d6000803e3d6000fd5b505050505062000993565b600254604051635496696b60e01b8152600481018490526001600160a01b0389811660248301526000928892911690635496696b90604401602060405180830381865afa1580156200078f573d6000803e3d6000fd5b505050506040513d601f19601f82011682018060405250810190620007b5919062001787565b620007c19190620017f1565b620007d5670de0b6b3a764000088620017d7565b620007e191906200181d565b600254604051635496696b60e01b8152600481018690526001600160a01b038a8116602483015292935060009288921690635496696b90604401602060405180830381865afa15801562000839573d6000803e3d6000fd5b505050506040513d601f19601f820116820180604052508101906200085f919062001787565b6200086b9190620017f1565b6200087f670de0b6b3a764000088620017d7565b6200088b91906200181d565b905060006200089b838362001554565b90506000670de0b6b3a764000082866001600160a01b03166318160ddd6040518163ffffffff1660e01b8152600401602060405180830381865afa158015620008e8573d6000803e3d6000fd5b505050506040513d601f19601f820116820180604052508101906200090e919062001787565b6200091a9190620017d7565b6200092691906200181d565b6040516340c10f1960e01b81526001600160a01b03898116600483015260248201839052919250908616906340c10f1990604401600060405180830381600087803b1580156200097557600080fd5b505af11580156200098a573d6000803e3d6000fd5b50505050505050505b604080516001600160a01b0389811682528881166020830152918101879052606081018690529084169083907f50dec338711d35a3c4031888b5588efcddc7258d887b4087496cc6beaa97fd279060800160405180910390a35050620009f860018055565b5050505050565b62000a0962001391565b62000a1560006200156c565b565b62000a2162001391565b6003546001600160a01b03161562000a4c576040516308a6ef2360e31b815260040160405180910390fd5b600380546001600160a01b0319166001600160a01b0392909216919091179055565b60008062000a7b620013ed565b8360000362000a9d576040516319d1f64360e21b815260040160405180910390fd5b6040516370a0823160e01b81523060048201526001600160a01b038616906370a0823190602401602060405180830381865afa15801562000ae2573d6000803e3d6000fd5b505050506040513d601f19601f8201168201806040525081019062000b08919062001787565b84111562000b29576040516350a4355f60e11b815260040160405180910390fd5b6000600360009054906101000a90046001600160a01b03166001600160a01b0316638ae93f0b876001600160a01b03166375f4f18e6040518163ffffffff1660e01b8152600401602060405180830381865afa15801562000b8e573d6000803e3d6000fd5b505050506040513d601f19601f8201168201806040525081019062000bb49190620017a1565b886001600160a01b031663c451463b6040518163ffffffff1660e01b8152600401602060405180830381865afa15801562000bf3573d6000803e3d6000fd5b505050506040513d601f19601f8201168201806040525081019062000c199190620017a1565b6040516001600160e01b031960e085901b1681526001600160a01b03928316600482015291166024820152604401602060405180830381865afa15801562000c65573d6000803e3d6000fd5b505050506040513d601f19601f8201168201806040525081019062000c8b919062001787565b9050856001600160a01b03166318160ddd6040518163ffffffff1660e01b8152600401602060405180830381865afa15801562000ccc573d6000803e3d6000fd5b505050506040513d601f19601f8201168201806040525081019062000cf2919062001787565b600260009054906101000a90046001600160a01b03166001600160a01b0316635496696b83896001600160a01b03166375f4f18e6040518163ffffffff1660e01b8152600401602060405180830381865afa15801562000d56573d6000803e3d6000fd5b505050506040513d601f19601f8201168201806040525081019062000d7c9190620017a1565b6040516001600160e01b031960e085901b16815260048101929092526001600160a01b03166024820152604401602060405180830381865afa15801562000dc7573d6000803e3d6000fd5b505050506040513d601f19601f8201168201806040525081019062000ded919062001787565b62000df99087620017d7565b62000e0591906200181d565b9250856001600160a01b03166318160ddd6040518163ffffffff1660e01b8152600401602060405180830381865afa15801562000e46573d6000803e3d6000fd5b505050506040513d601f19601f8201168201806040525081019062000e6c919062001787565b600260009054906101000a90046001600160a01b03166001600160a01b0316635496696b83896001600160a01b031663c451463b6040518163ffffffff1660e01b8152600401602060405180830381865afa15801562000ed0573d6000803e3d6000fd5b505050506040513d601f19601f8201168201806040525081019062000ef69190620017a1565b6040516001600160e01b031960e085901b16815260048101929092526001600160a01b03166024820152604401602060405180830381865afa15801562000f41573d6000803e3d6000fd5b505050506040513d601f19601f8201168201806040525081019062000f67919062001787565b62000f739087620017d7565b62000f7f91906200181d565b604051630852cd8d60e31b8152600481018790529092506001600160a01b038716906342966c6890602401600060405180830381600087803b15801562000fc557600080fd5b505af115801562000fda573d6000803e3d6000fd5b50505050600260009054906101000a90046001600160a01b03166001600160a01b031663a318c1a482886001600160a01b03166375f4f18e6040518163ffffffff1660e01b8152600401602060405180830381865afa15801562001042573d6000803e3d6000fd5b505050506040513d601f19601f82011682018060405250810190620010689190620017a1565b6040516001600160e01b031960e085901b16815260048101929092526001600160a01b0390811660248301528716604482015260648101869052608401600060405180830381600087803b158015620010c057600080fd5b505af1158015620010d5573d6000803e3d6000fd5b50505050600260009054906101000a90046001600160a01b03166001600160a01b031663a318c1a482886001600160a01b031663c451463b6040518163ffffffff1660e01b8152600401602060405180830381865afa1580156200113d573d6000803e3d6000fd5b505050506040513d601f19601f82011682018060405250810190620011639190620017a1565b6040516001600160e01b031960e085901b16815260048101929092526001600160a01b0390811660248301528716604482015260648101859052608401600060405180830381600087803b158015620011bb57600080fd5b505af1158015620011d0573d6000803e3d6000fd5b50505050836001600160a01b0316817f1b849ae1f9bad1660570e51a3f0528fb6a14d22b574ac4239eb907acde88df4b886001600160a01b03166375f4f18e6040518163ffffffff1660e01b8152600401602060405180830381865afa1580156200123f573d6000803e3d6000fd5b505050506040513d601f19601f82011682018060405250810190620012659190620017a1565b896001600160a01b031663c451463b6040518163ffffffff1660e01b8152600401602060405180830381865afa158015620012a4573d6000803e3d6000fd5b505050506040513d601f19601f82011682018060405250810190620012ca9190620017a1565b604080516001600160a01b03938416815292909116602083015281018790526060810186905260800160405180910390a3506200130660018055565b935093915050565b6200131862001391565b6001600160a01b038116620013835760405162461bcd60e51b815260206004820152602660248201527f4f776e61626c653a206e6577206f776e657220697320746865207a65726f206160448201526564647265737360d01b60648201526084015b60405180910390fd5b6200138e816200156c565b50565b6000546001600160a01b0316331462000a155760405162461bcd60e51b815260206004820181905260248201527f4f776e61626c653a2063616c6c6572206973206e6f7420746865206f776e657260448201526064016200137a565b600260015403620014415760405162461bcd60e51b815260206004820152601f60248201527f5265656e7472616e637947756172643a207265656e7472616e742063616c6c0060448201526064016200137a565b6002600155565b6000816000036200145b57506000919050565b600060016200146a84620015bc565b901c6001901b9050600181848162001486576200148662001807565b048201901c90506001818481620014a157620014a162001807565b048201901c90506001818481620014bc57620014bc62001807565b048201901c90506001818481620014d757620014d762001807565b048201901c90506001818481620014f257620014f262001807565b048201901c905060018184816200150d576200150d62001807565b048201901c9050600181848162001528576200152862001807565b048201901c90506200154d8182858162001546576200154662001807565b0462001554565b9392505050565b60008183106200156557816200154d565b5090919050565b600080546001600160a01b038381166001600160a01b0319831681178455604051919092169283917f8be0079c531659141344cd1fd0a4f28419497f9722a3daafe3b4186f6b6457e09190a35050565b600080608083901c15620015d257608092831c92015b604083901c15620015e557604092831c92015b602083901c15620015f857602092831c92015b601083901c156200160b57601092831c92015b600883901c156200161e57600892831c92015b600483901c156200163157600492831c92015b600283901c156200164457600292831c92015b600183901c15620002985760010192915050565b612a3c806200184183390190565b6001600160a01b03811681146200138e57600080fd5b600080604083850312156200169057600080fd5b82356200169d8162001666565b91506020830135620016af8162001666565b809150509250929050565b600060208284031215620016cd57600080fd5b81356200154d8162001666565b600080600080600060a08688031215620016f357600080fd5b8535620017008162001666565b94506020860135620017128162001666565b935060408601359250606086013591506080860135620017328162001666565b809150509295509295909350565b6000806000606084860312156200175657600080fd5b8335620017638162001666565b92506020840135915060408401356200177c8162001666565b809150509250925092565b6000602082840312156200179a57600080fd5b5051919050565b600060208284031215620017b457600080fd5b81516200154d8162001666565b634e487b7160e01b600052601160045260246000fd5b8082028115828204841417620002985762000298620017c1565b81810381811115620002985762000298620017c1565b634e487b7160e01b600052601260045260246000fd5b6000826200183b57634e487b7160e01b600052601260045260246000fd5b50049056fe6101e06040523480156200001257600080fd5b5060405162002a3c38038062002a3c833981016040819052620000359162000263565b6040518060400160405280601181526020017029ba30b4b93bb0bc902628102a37b5b2b760791b81525080604051806040016040528060018152602001603160f81b8152506040518060400160405280601181526020017029ba30b4b93bb0bc902628102a37b5b2b760791b8152506040518060400160405280600681526020016505357592d4c560d41b8152508160039081620000d4919062000370565b506004620000e3828262000370565b50620000f591508390506005620001c5565b6101205262000106816006620001c5565b61014052815160208084019190912060e052815190820120610100524660a0526200019460e05161010051604080517f8b73c3c69bb8fe3d512ecc4cf759cc79239f7b179b0ffacaa9a75d522b39400f60208201529081019290925260608201524660808201523060a082015260009060c00160405160208183030381529060405280519060200120905090565b60805250503060c052506001600160a01b039384166101a0529183166101c0528216610160521661018052620004b1565b6000602083511015620001e557620001dd83620001fe565b9050620001f8565b81620001f2848262000370565b5060ff90505b92915050565b600080829050601f8151111562000235578260405163305a27a960e01b81526004016200022c91906200043c565b60405180910390fd5b805162000242826200048c565b179392505050565b6001600160a01b03811681146200026057600080fd5b50565b600080600080608085870312156200027a57600080fd5b845162000287816200024a565b60208601519094506200029a816200024a565b6040860151909350620002ad816200024a565b6060860151909250620002c0816200024a565b939692955090935050565b634e487b7160e01b600052604160045260246000fd5b600181811c90821680620002f657607f821691505b6020821081036200031757634e487b7160e01b600052602260045260246000fd5b50919050565b601f8211156200036b57600081815260208120601f850160051c81016020861015620003465750805b601f850160051c820191505b81811015620003675782815560010162000352565b5050505b505050565b81516001600160401b038111156200038c576200038c620002cb565b620003a4816200039d8454620002e1565b846200031d565b602080601f831160018114620003dc5760008415620003c35750858301515b600019600386901b1c1916600185901b17855562000367565b600085815260208120601f198616915b828110156200040d57888601518255948401946001909101908401620003ec565b50858210156200042c5787850151600019600388901b60f8161c191681555b5050505050600190811b01905550565b600060208083528351808285015260005b818110156200046b578581018301518582016040015282016200044d565b506000604082860101526040601f19601f8301168501019250505092915050565b80516020808301519190811015620003175760001960209190910360031b1b16919050565b60805160a05160c05160e05161010051610120516101405161016051610180516101a0516101c0516124da62000562600039600081816104b101528181610644015261066a0152600081816103d60152818161060a01526106a401526000818161038601526107ce0152600081816102f801526108000152600061099c01526000610971015260006112e3015260006112bb01526000611216015260006112400152600061126a01526124da6000f3fe608060405234801561001057600080fd5b50600436106101f05760003560e01c8063709d039d1161010f5780639ab24eb0116100a2578063c451463b11610071578063c451463b146104ac578063d505accf146104d3578063dd62ed3e146104e6578063f1127ed8146104f957600080fd5b80639ab24eb014610460578063a457c2d714610473578063a9059cbb14610486578063c3cda5201461049957600080fd5b806384b0196e116100de57806384b0196e1461040b5780638e539e8c1461042657806391ddadf41461043957806395d89b411461045857600080fd5b8063709d039d1461038157806370a08231146103a857806375f4f18e146103d15780637ecebe00146103f857600080fd5b80633a46b1a8116101875780634dfd324e116101565780634dfd324e146102f3578063587cde1e1461031a5780635c19a95c146103465780636fcfff451461035957600080fd5b80633a46b1a8146102b057806340c10f19146102c357806342966c68146102d85780634bf5d7e9146102eb57600080fd5b8063302bb94d116101c3578063302bb94d1461025b578063313ce567146102865780633644e51514610295578063395093511461029d57600080fd5b806306fdde03146101f5578063095ea7b31461021357806318160ddd1461023657806323b872dd14610248575b600080fd5b6101fd610536565b60405161020a9190612121565b60405180910390f35b610226610221366004612149565b6105c8565b604051901515815260200161020a565b6002545b60405190815260200161020a565b610226610256366004612175565b6105e2565b61026e6102693660046121b6565b610606565b6040516001600160a01b03909116815260200161020a565b6040516012815260200161020a565b61023a61070d565b6102266102ab366004612149565b61071c565b61023a6102be366004612149565b61073e565b6102d66102d1366004612149565b6107c3565b005b6102d66102e63660046121d3565b610874565b6101fd610881565b61026e7f000000000000000000000000000000000000000000000000000000000000000081565b61026e6103283660046121b6565b6001600160a01b039081166000908152600960205260409020541690565b6102d66103543660046121b6565b610919565b61036c6103673660046121b6565b610923565b60405163ffffffff909116815260200161020a565b61026e7f000000000000000000000000000000000000000000000000000000000000000081565b61023a6103b63660046121b6565b6001600160a01b031660009081526020819052604090205490565b61026e7f000000000000000000000000000000000000000000000000000000000000000081565b61023a6104063660046121b6565b610945565b610413610963565b60405161020a97969594939291906121ec565b61023a6104343660046121d3565b6109ec565b610441610a53565b60405165ffffffffffff909116815260200161020a565b6101fd610a5e565b61023a61046e3660046121b6565b610a6d565b610226610481366004612149565b610aef565b610226610494366004612149565b610b6a565b6102d66104a7366004612298565b610b78565b61026e7f000000000000000000000000000000000000000000000000000000000000000081565b6102d66104e13660046122f2565b610cae565b61023a6104f4366004612360565b610e12565b61050c610507366004612399565b610e3d565b60408051825163ffffffff1681526020928301516001600160e01b0316928101929092520161020a565b606060038054610545906123d0565b80601f0160208091040260200160405190810160405280929190818152602001828054610571906123d0565b80156105be5780601f10610593576101008083540402835291602001916105be565b820191906000526020600020905b8154815290600101906020018083116105a157829003601f168201915b5050505050905090565b6000336105d6818585610ec1565b60019150505b92915050565b6000336105f0858285610fe5565b6105fb85858561105f565b506001949350505050565b60007f00000000000000000000000000000000000000000000000000000000000000006001600160a01b0316826001600160a01b03160361066857507f0000000000000000000000000000000000000000000000000000000000000000919050565b7f00000000000000000000000000000000000000000000000000000000000000006001600160a01b0316826001600160a01b0316036106c857507f0000000000000000000000000000000000000000000000000000000000000000919050565b60405162461bcd60e51b815260206004820152601560248201527426282a37b5b2b72fafaab735b737bbb72a37b5b2b760591b60448201526064015b60405180910390fd5b6000610717611209565b905090565b6000336105d681858561072f8383610e12565b610739919061241a565b610ec1565b6000610748610a53565b65ffffffffffff16821061079a5760405162461bcd60e51b815260206004820152601960248201527804552433230566f7465733a20667574757265206c6f6f6b757603c1b6044820152606401610704565b6001600160a01b0383166000908152600a602052604090206107bc9083611334565b9392505050565b336001600160a01b037f00000000000000000000000000000000000000000000000000000000000000001614806108225750336001600160a01b037f000000000000000000000000000000000000000000000000000000000000000016145b6108665760405162461bcd60e51b81526020600482015260156024820152741314151bdad95b97d7d55b985d5d1a1bdc9a5e9959605a1b6044820152606401610704565b610870828261141d565b5050565b61087e3382611427565b50565b60604361088c610a53565b65ffffffffffff16146108e15760405162461bcd60e51b815260206004820152601d60248201527f4552433230566f7465733a2062726f6b656e20636c6f636b206d6f64650000006044820152606401610704565b5060408051808201909152601d81527f6d6f64653d626c6f636b6e756d6265722666726f6d3d64656661756c74000000602082015290565b61087e3382611431565b6001600160a01b0381166000908152600a60205260408120546105dc906114aa565b6001600160a01b0381166000908152600760205260408120546105dc565b6000606080828080836109977f00000000000000000000000000000000000000000000000000000000000000006005611513565b6109c27f00000000000000000000000000000000000000000000000000000000000000006006611513565b60408051600080825260208201909252600f60f81b9b939a50919850469750309650945092509050565b60006109f6610a53565b65ffffffffffff168210610a485760405162461bcd60e51b815260206004820152601960248201527804552433230566f7465733a20667574757265206c6f6f6b757603c1b6044820152606401610704565b6105dc600b83611334565b6000610717436115be565b606060048054610545906123d0565b6001600160a01b0381166000908152600a60205260408120548015610adc576001600160a01b0383166000908152600a6020526040902080546000198301908110610aba57610aba61242d565b60009182526020909120015464010000000090046001600160e01b0316610adf565b60005b6001600160e01b03169392505050565b60003381610afd8286610e12565b905083811015610b5d5760405162461bcd60e51b815260206004820152602560248201527f45524332303a2064656372656173656420616c6c6f77616e63652062656c6f77604482015264207a65726f60d81b6064820152608401610704565b6105fb8286868403610ec1565b6000336105d681858561105f565b83421115610bc85760405162461bcd60e51b815260206004820152601d60248201527f4552433230566f7465733a207369676e617475726520657870697265640000006044820152606401610704565b604080517fe48329057bfd03d55e49b547132e39cffd9c1820ad7b9d4c5307691425d15adf60208201526001600160a01b038816918101919091526060810186905260808101859052600090610c4290610c3a9060a00160405160208183030381529060405280519060200120611625565b858585611652565b9050610c4d8161167a565b8614610c9b5760405162461bcd60e51b815260206004820152601960248201527f4552433230566f7465733a20696e76616c6964206e6f6e6365000000000000006044820152606401610704565b610ca58188611431565b50505050505050565b83421115610cfe5760405162461bcd60e51b815260206004820152601d60248201527f45524332305065726d69743a206578706972656420646561646c696e650000006044820152606401610704565b60007f6e71edae12b1b97f4d1f60370fef10105fa2faae0126114a169c64845d6126c9888888610d2d8c61167a565b6040805160208101969096526001600160a01b0394851690860152929091166060840152608083015260a082015260c0810186905260e0016040516020818303038152906040528051906020012090506000610d8882611625565b90506000610d9882878787611652565b9050896001600160a01b0316816001600160a01b031614610dfb5760405162461bcd60e51b815260206004820152601e60248201527f45524332305065726d69743a20696e76616c6964207369676e617475726500006044820152606401610704565b610e068a8a8a610ec1565b50505050505050505050565b6001600160a01b03918216600090815260016020908152604080832093909416825291909152205490565b60408051808201909152600080825260208201526001600160a01b0383166000908152600a60205260409020805463ffffffff8416908110610e8157610e8161242d565b60009182526020918290206040805180820190915291015463ffffffff8116825264010000000090046001600160e01b0316918101919091529392505050565b6001600160a01b038316610f235760405162461bcd60e51b8152602060048201526024808201527f45524332303a20617070726f76652066726f6d20746865207a65726f206164646044820152637265737360e01b6064820152608401610704565b6001600160a01b038216610f845760405162461bcd60e51b815260206004820152602260248201527f45524332303a20617070726f766520746f20746865207a65726f206164647265604482015261737360f01b6064820152608401610704565b6001600160a01b0383811660008181526001602090815260408083209487168084529482529182902085905590518481527f8c5be1e5ebec7d5bd14f71427d1e84f3dd0314c0f7b2291e5b200ac8c7c3b925910160405180910390a3505050565b6000610ff18484610e12565b90506000198114611059578181101561104c5760405162461bcd60e51b815260206004820152601d60248201527f45524332303a20696e73756666696369656e7420616c6c6f77616e63650000006044820152606401610704565b6110598484848403610ec1565b50505050565b6001600160a01b0383166110c35760405162461bcd60e51b815260206004820152602560248201527f45524332303a207472616e736665722066726f6d20746865207a65726f206164604482015264647265737360d81b6064820152608401610704565b6001600160a01b0382166111255760405162461bcd60e51b815260206004820152602360248201527f45524332303a207472616e7366657220746f20746865207a65726f206164647260448201526265737360e81b6064820152608401610704565b6001600160a01b0383166000908152602081905260409020548181101561119d5760405162461bcd60e51b815260206004820152602660248201527f45524332303a207472616e7366657220616d6f756e7420657863656564732062604482015265616c616e636560d01b6064820152608401610704565b6001600160a01b03848116600081815260208181526040808320878703905593871680835291849020805487019055925185815290927fddf252ad1be2c89b69c2b068fc378daa952ba7f163c4a11628f55a4df523b3ef910160405180910390a36110598484846116a7565b6000306001600160a01b037f00000000000000000000000000000000000000000000000000000000000000001614801561126257507f000000000000000000000000000000000000000000000000000000000000000046145b1561128c57507f000000000000000000000000000000000000000000000000000000000000000090565b610717604080517f8b73c3c69bb8fe3d512ecc4cf759cc79239f7b179b0ffacaa9a75d522b39400f60208201527f0000000000000000000000000000000000000000000000000000000000000000918101919091527f000000000000000000000000000000000000000000000000000000000000000060608201524660808201523060a082015260009060c00160405160208183030381529060405280519060200120905090565b81546000908181600581111561138e57600061134f846116b2565b6113599085612443565b600088815260209020909150869082015463ffffffff16111561137e5780915061138c565b61138981600161241a565b92505b505b808210156113db5760006113a2838361179a565b600088815260209020909150869082015463ffffffff1611156113c7578091506113d5565b6113d281600161241a565b92505b5061138e565b8015611407576000868152602090208101600019015464010000000090046001600160e01b031661140a565b60005b6001600160e01b03169695505050505050565b61087082826117b5565b610870828261183f565b6001600160a01b038281166000818152600960208181526040808420805485845282862054949093528787166001600160a01b03198416811790915590519190951694919391928592917f3134e8a2e6d97e929a7e54011ea5485d7d196dd5f0ba4d4ef95803e8e3fc257f9190a4611059828483611857565b600063ffffffff82111561150f5760405162461bcd60e51b815260206004820152602660248201527f53616665436173743a2076616c756520646f65736e27742066697420696e203360448201526532206269747360d01b6064820152608401610704565b5090565b606060ff831461152d5761152683611994565b90506105dc565b818054611539906123d0565b80601f0160208091040260200160405190810160405280929190818152602001828054611565906123d0565b80156115b25780601f10611587576101008083540402835291602001916115b2565b820191906000526020600020905b81548152906001019060200180831161159557829003601f168201915b505050505090506105dc565b600065ffffffffffff82111561150f5760405162461bcd60e51b815260206004820152602660248201527f53616665436173743a2076616c756520646f65736e27742066697420696e203460448201526538206269747360d01b6064820152608401610704565b60006105dc611632611209565b8360405161190160f01b8152600281019290925260228201526042902090565b6000806000611663878787876119d3565b9150915061167081611a97565b5095945050505050565b6001600160a01b03811660009081526007602052604090208054600181018255905b50919050565b505050565b6116a2838383611be1565b6000816000036116c457506000919050565b600060016116d184611c13565b901c6001901b905060018184816116ea576116ea612456565b048201901c9050600181848161170257611702612456565b048201901c9050600181848161171a5761171a612456565b048201901c9050600181848161173257611732612456565b048201901c9050600181848161174a5761174a612456565b048201901c9050600181848161176257611762612456565b048201901c9050600181848161177a5761177a612456565b048201901c90506107bc8182858161179457611794612456565b04611ca7565b60006117a9600284841861246c565b6107bc9084841661241a565b6117bf8282611cbd565b6002546001600160e01b0310156118315760405162461bcd60e51b815260206004820152603060248201527f4552433230566f7465733a20746f74616c20737570706c79207269736b73206f60448201526f766572666c6f77696e6720766f74657360801b6064820152608401610704565b611059600b611d8483611d90565b6118498282611f05565b611059600b61203e83611d90565b816001600160a01b0316836001600160a01b0316141580156118795750600081115b156116a2576001600160a01b03831615611907576001600160a01b0383166000908152600a6020526040812081906118b49061203e85611d90565b91509150846001600160a01b03167fdec2bacdd2f05b59de34da9b523dff8be42e5e38e818c82fdb0bae774387a72483836040516118fc929190918252602082015260400190565b60405180910390a250505b6001600160a01b038216156116a2576001600160a01b0382166000908152600a60205260408120819061193d90611d8485611d90565b91509150836001600160a01b03167fdec2bacdd2f05b59de34da9b523dff8be42e5e38e818c82fdb0bae774387a7248383604051611985929190918252602082015260400190565b60405180910390a25050505050565b606060006119a18361204a565b604080516020808252818301909252919250600091906020820181803683375050509182525060208101929092525090565b6000807f7fffffffffffffffffffffffffffffff5d576e7357a4501ddfe92f46681b20a0831115611a0a5750600090506003611a8e565b6040805160008082526020820180845289905260ff881692820192909252606081018690526080810185905260019060a0016020604051602081039080840390855afa158015611a5e573d6000803e3d6000fd5b5050604051601f1901519150506001600160a01b038116611a8757600060019250925050611a8e565b9150600090505b94509492505050565b6000816004811115611aab57611aab61248e565b03611ab35750565b6001816004811115611ac757611ac761248e565b03611b145760405162461bcd60e51b815260206004820152601860248201527f45434453413a20696e76616c6964207369676e617475726500000000000000006044820152606401610704565b6002816004811115611b2857611b2861248e565b03611b755760405162461bcd60e51b815260206004820152601f60248201527f45434453413a20696e76616c6964207369676e6174757265206c656e677468006044820152606401610704565b6003816004811115611b8957611b8961248e565b0361087e5760405162461bcd60e51b815260206004820152602260248201527f45434453413a20696e76616c6964207369676e6174757265202773272076616c604482015261756560f01b6064820152608401610704565b6001600160a01b038381166000908152600960205260408082205485841683529120546116a292918216911683611857565b600080608083901c15611c2857608092831c92015b604083901c15611c3a57604092831c92015b602083901c15611c4c57602092831c92015b601083901c15611c5e57601092831c92015b600883901c15611c7057600892831c92015b600483901c15611c8257600492831c92015b600283901c15611c9457600292831c92015b600183901c156105dc5760010192915050565b6000818310611cb657816107bc565b5090919050565b6001600160a01b038216611d135760405162461bcd60e51b815260206004820152601f60248201527f45524332303a206d696e7420746f20746865207a65726f2061646472657373006044820152606401610704565b8060026000828254611d25919061241a565b90915550506001600160a01b038216600081815260208181526040808320805486019055518481527fddf252ad1be2c89b69c2b068fc378daa952ba7f163c4a11628f55a4df523b3ef910160405180910390a3610870600083836116a7565b60006107bc828461241a565b82546000908190818115611ddd5760008781526020902082016000190160408051808201909152905463ffffffff8116825264010000000090046001600160e01b03166020820152611df2565b60408051808201909152600080825260208201525b905080602001516001600160e01b03169350611e1284868863ffffffff16565b9250600082118015611e3c5750611e27610a53565b65ffffffffffff16816000015163ffffffff16145b15611e8157611e4a83612072565b60008881526020902083016000190180546001600160e01b03929092166401000000000263ffffffff909216919091179055611efb565b866040518060400160405280611ea5611e98610a53565b65ffffffffffff166114aa565b63ffffffff168152602001611eb986612072565b6001600160e01b0390811690915282546001810184556000938452602093849020835194909301519091166401000000000263ffffffff909316929092179101555b5050935093915050565b6001600160a01b038216611f655760405162461bcd60e51b815260206004820152602160248201527f45524332303a206275726e2066726f6d20746865207a65726f206164647265736044820152607360f81b6064820152608401610704565b6001600160a01b03821660009081526020819052604090205481811015611fd95760405162461bcd60e51b815260206004820152602260248201527f45524332303a206275726e20616d6f756e7420657863656564732062616c616e604482015261636560f01b6064820152608401610704565b6001600160a01b0383166000818152602081815260408083208686039055600280548790039055518581529192917fddf252ad1be2c89b69c2b068fc378daa952ba7f163c4a11628f55a4df523b3ef910160405180910390a36116a2836000846116a7565b60006107bc8284612443565b600060ff8216601f8111156105dc57604051632cd44ac360e21b815260040160405180910390fd5b60006001600160e01b0382111561150f5760405162461bcd60e51b815260206004820152602760248201527f53616665436173743a2076616c756520646f65736e27742066697420696e20326044820152663234206269747360c81b6064820152608401610704565b6000815180845260005b81811015612101576020818501810151868301820152016120e5565b506000602082860101526020601f19601f83011685010191505092915050565b6020815260006107bc60208301846120db565b6001600160a01b038116811461087e57600080fd5b6000806040838503121561215c57600080fd5b823561216781612134565b946020939093013593505050565b60008060006060848603121561218a57600080fd5b833561219581612134565b925060208401356121a581612134565b929592945050506040919091013590565b6000602082840312156121c857600080fd5b81356107bc81612134565b6000602082840312156121e557600080fd5b5035919050565b60ff60f81b881681526000602060e08184015261220c60e084018a6120db565b838103604085015261221e818a6120db565b606085018990526001600160a01b038816608086015260a0850187905284810360c0860152855180825283870192509083019060005b8181101561227057835183529284019291840191600101612254565b50909c9b505050505050505050505050565b803560ff8116811461229357600080fd5b919050565b60008060008060008060c087890312156122b157600080fd5b86356122bc81612134565b955060208701359450604087013593506122d860608801612282565b92506080870135915060a087013590509295509295509295565b600080600080600080600060e0888a03121561230d57600080fd5b873561231881612134565b9650602088013561232881612134565b9550604088013594506060880135935061234460808901612282565b925060a0880135915060c0880135905092959891949750929550565b6000806040838503121561237357600080fd5b823561237e81612134565b9150602083013561238e81612134565b809150509250929050565b600080604083850312156123ac57600080fd5b82356123b781612134565b9150602083013563ffffffff8116811461238e57600080fd5b600181811c908216806123e457607f821691505b60208210810361169c57634e487b7160e01b600052602260045260246000fd5b634e487b7160e01b600052601160045260246000fd5b808201808211156105dc576105dc612404565b634e487b7160e01b600052603260045260246000fd5b818103818111156105dc576105dc612404565b634e487b7160e01b600052601260045260246000fd5b60008261248957634e487b7160e01b600052601260045260246000fd5b500490565b634e487b7160e01b600052602160045260246000fdfea264697066735822122022ddb164c390feedd1fbf864a0203495fab379c8ab1b47e22caa45980b48737564736f6c63430008130033a264697066735822122010aad6cf5b09eb4fb2d6783f01a24f921783a00d0405185c5fadf45e594c79fe64736f6c63430008130033",
    "linkReferences": {}
  },
  "methodIdentifiers": {
    "addLiquidity(address,address,uint256,uint256,address)": "4b2fc7bb",
    "createLpToken(address,address)": "09ee07c4",
    "liquidityManager()": "33827438",
    "owner()": "8da5cb5b",
    "poolManager()": "dc4c90d3",
    "redeemLiquidity(address,uint256,address)": "e5f415c9",
    "renounceOwnership()": "715018a6",
    "setLiquidityManager(address)": "3c1624d4",
    "setPoolManager(address)": "7aef6715",
    "setSwapManager(address)": "30284efc",
    "swapManager()": "709d039d",
    "transferOwnership(address)": "f2fde38b"
  },
  "id": 71
}