{
  "abi": [
    {
      "inputs": [],
      "name": "LiquidityManager__BlockNumberExceeds32Bits",
      "type": "error"
    },
    {
      "inputs": [],
      "name": "LiquidityManager__InsufficientLiquidity",
      "type": "error"
    },
    {
      "inputs": [],
      "name": "LiquidityManager__SingleTransactionLimitExceeded",
      "type": "error"
    },
    {
      "inputs": [],
      "name": "LiquidityManager__Unauthorized",
      "type": "error"
    },
    {
      "anonymous": false,
      "inputs": [
        {
          "indexed": true,
          "internalType": "address",
          "name": "previousOwner",
          "type": "address"
        },
        {
          "indexed": true,
          "internalType": "address",
          "name": "newOwner",
          "type": "address"
        }
      ],
      "name": "OwnershipTransferred",
      "type": "event"
    },
    {
      "inputs": [
        {
          "internalType": "uint256",
          "name": "index",
          "type": "uint256"
        }
      ],
      "name": "calculateIndexCapacity",
      "outputs": [
        {
          "internalType": "uint256",
          "name": "capacity",
          "type": "uint256"
        }
      ],
      "stateMutability": "pure",
      "type": "function"
    },
    {
      "inputs": [],
      "name": "clusterRegistry",
      "outputs": [
        {
          "internalType": "contract IClusterRegistry",
          "name": "",
          "type": "address"
        }
      ],
      "stateMutability": "view",
      "type": "function"
    },
    {
      "inputs": [
        {
          "internalType": "contract IERC20",
          "name": "",
          "type": "address"
        }
      ],
      "name": "currentClusters",
      "outputs": [
        {
          "internalType": "uint256",
          "name": "",
          "type": "uint256"
        }
      ],
      "stateMutability": "view",
      "type": "function"
    },
    {
      "inputs": [
        {
          "internalType": "uint256",
          "name": "poolIdx",
          "type": "uint256"
        },
        {
          "internalType": "contract IERC20",
          "name": "token",
          "type": "address"
        },
        {
          "internalType": "uint256",
          "name": "amount",
          "type": "uint256"
        }
      ],
      "name": "distributeToClusters",
      "outputs": [],
      "stateMutability": "nonpayable",
      "type": "function"
    },
    {
      "inputs": [
        {
          "internalType": "uint256",
          "name": "poolIdx",
          "type": "uint256"
        },
        {
          "internalType": "contract IERC20",
          "name": "token",
          "type": "address"
        },
        {
          "internalType": "uint256",
          "name": "blockNumber",
          "type": "uint256"
        }
      ],
      "name": "getPastPoolTokenBalance",
      "outputs": [
        {
          "internalType": "uint256",
          "name": "",
          "type": "uint256"
        }
      ],
      "stateMutability": "view",
      "type": "function"
    },
    {
      "inputs": [],
      "name": "liquidityRamp",
      "outputs": [
        {
          "internalType": "contract ILiquidityRamp",
          "name": "",
          "type": "address"
        }
      ],
      "stateMutability": "view",
      "type": "function"
    },
    {
      "inputs": [],
      "name": "owner",
      "outputs": [
        {
          "internalType": "address",
          "name": "",
          "type": "address"
        }
      ],
      "stateMutability": "view",
      "type": "function"
    },
    {
      "inputs": [
        {
          "internalType": "uint256",
          "name": "",
          "type": "uint256"
        }
      ],
      "name": "poolLiquidityProduct",
      "outputs": [
        {
          "internalType": "uint256",
          "name": "",
          "type": "uint256"
        }
      ],
      "stateMutability": "view",
      "type": "function"
    },
    {
      "inputs": [
        {
          "internalType": "uint256",
          "name": "",
          "type": "uint256"
        },
        {
          "internalType": "contract IERC20",
          "name": "",
          "type": "address"
        },
        {
          "internalType": "uint256",
          "name": "",
          "type": "uint256"
        }
      ],
      "name": "poolTokenBalanceSnapshots",
      "outputs": [
        {
          "internalType": "uint32",
          "name": "fromBlock",
          "type": "uint32"
        },
        {
          "internalType": "uint256",
          "name": "value",
          "type": "uint256"
        }
      ],
      "stateMutability": "view",
      "type": "function"
    },
    {
      "inputs": [
        {
          "internalType": "uint256",
          "name": "",
          "type": "uint256"
        },
        {
          "internalType": "contract IERC20",
          "name": "",
          "type": "address"
        }
      ],
      "name": "poolTokenBalances",
      "outputs": [
        {
          "internalType": "uint256",
          "name": "",
          "type": "uint256"
        }
      ],
      "stateMutability": "view",
      "type": "function"
    },
    {
      "inputs": [],
      "name": "renounceOwnership",
      "outputs": [],
      "stateMutability": "nonpayable",
      "type": "function"
    },
    {
      "inputs": [
        {
          "internalType": "contract IClusterRegistry",
          "name": "_clusterRegistry",
          "type": "address"
        }
      ],
      "name": "setClusterRegistry",
      "outputs": [],
      "stateMutability": "nonpayable",
      "type": "function"
    },
    {
      "inputs": [
        {
          "internalType": "contract ILiquidityRamp",
          "name": "_liquidityRamp",
          "type": "address"
        }
      ],
      "name": "setLiquidityRamp",
      "outputs": [],
      "stateMutability": "nonpayable",
      "type": "function"
    },
    {
      "inputs": [
        {
          "internalType": "contract ISwapManager",
          "name": "_swapManager",
          "type": "address"
        }
      ],
      "name": "setSwapManager",
      "outputs": [],
      "stateMutability": "nonpayable",
      "type": "function"
    },
    {
      "inputs": [
        {
          "internalType": "contract IERC20",
          "name": "token",
          "type": "address"
        }
      ],
      "name": "singleTransactionDepositLimit",
      "outputs": [
        {
          "internalType": "uint256",
          "name": "limit",
          "type": "uint256"
        }
      ],
      "stateMutability": "view",
      "type": "function"
    },
    {
      "inputs": [
        {
          "internalType": "contract IERC20",
          "name": "token",
          "type": "address"
        }
      ],
      "name": "singleTransactionWithdrawalLimit",
      "outputs": [
        {
          "internalType": "uint256",
          "name": "limit",
          "type": "uint256"
        }
      ],
      "stateMutability": "view",
      "type": "function"
    },
    {
      "inputs": [],
      "name": "swapManager",
      "outputs": [
        {
          "internalType": "contract ISwapManager",
          "name": "",
          "type": "address"
        }
      ],
      "stateMutability": "view",
      "type": "function"
    },
    {
      "inputs": [
        {
          "internalType": "contract IERC20",
          "name": "",
          "type": "address"
        }
      ],
      "name": "tokenBalances",
      "outputs": [
        {
          "internalType": "uint256",
          "name": "",
          "type": "uint256"
        }
      ],
      "stateMutability": "view",
      "type": "function"
    },
    {
      "inputs": [
        {
          "internalType": "address",
          "name": "newOwner",
          "type": "address"
        }
      ],
      "name": "transferOwnership",
      "outputs": [],
      "stateMutability": "nonpayable",
      "type": "function"
    },
    {
      "inputs": [
        {
          "internalType": "uint256",
          "name": "poolIdx",
          "type": "uint256"
        },
        {
          "internalType": "uint256",
          "name": "nextLiquidityProduct",
          "type": "uint256"
        }
      ],
      "name": "updateLiquidityProduct",
      "outputs": [],
      "stateMutability": "nonpayable",
      "type": "function"
    },
    {
      "inputs": [
        {
          "internalType": "uint256",
          "name": "poolIdx",
          "type": "uint256"
        },
        {
          "internalType": "contract IERC20",
          "name": "token",
          "type": "address"
        },
        {
          "internalType": "address",
          "name": "to",
          "type": "address"
        },
        {
          "internalType": "uint256",
          "name": "amount",
          "type": "uint256"
        }
      ],
      "name": "withdraw",
      "outputs": [],
      "stateMutability": "nonpayable",
      "type": "function"
    }
  ],
  "bytecode": {
    "object": "0x608060405234801561001057600080fd5b5061001a3361001f565b61006f565b600080546001600160a01b038381166001600160a01b0319831681178455604051919092169283917f8be0079c531659141344cd1fd0a4f28419497f9722a3daafe3b4186f6b6457e09190a35050565b611e858061007e6000396000f3fe608060405234801561001057600080fd5b50600436106101375760003560e01c8063591409fa116100b85780638da5cb5b1161007c5780638da5cb5b146102c9578063a318c1a4146102da578063afe3b8d9146102ed578063ccc0c8a114610300578063f2fde38b14610320578063fb6993161461033357600080fd5b8063591409fa1461027557806367e45cf2146102885780636e6746a41461029b578063709d039d146102ae578063715018a6146102c157600080fd5b80633394c740116100ff5780633394c740146101d9578063375c69de146101ec5780634dfd324e146101ff578063523fba7f1461022a5780635496696b1461024a57600080fd5b80630ddfb51c1461013c57806311d72c2b1461015157806323bae8a71461018557806330284efc14610198578063332d39d5146101ab575b600080fd5b61014f61014a366004611c2f565b610346565b005b61016461015f366004611c4c565b61039a565b6040805163ffffffff90931683526020830191909152015b60405180910390f35b61014f610193366004611c2f565b6103eb565b61014f6101a6366004611c2f565b61043f565b6101cb6101b9366004611c84565b60056020526000908152604090205481565b60405190815260200161017c565b6101cb6101e7366004611c4c565b610493565b61014f6101fa366004611c9d565b610687565b600254610212906001600160a01b031681565b6040516001600160a01b03909116815260200161017c565b6101cb610238366004611c2f565b60046020526000908152604090205481565b6101cb610258366004611cbf565b600660209081526000928352604080842090915290825290205481565b6101cb610283366004611c2f565b6106dd565b6101cb610296366004611c2f565b6108a8565b6101cb6102a9366004611c84565b610a6a565b600354610212906001600160a01b031681565b61014f610b3a565b6000546001600160a01b0316610212565b61014f6102e8366004611cef565b610b4e565b600154610212906001600160a01b031681565b6101cb61030e366004611c2f565b60086020526000908152604090205481565b61014f61032e366004611c2f565b611080565b61014f610341366004611c4c565b6110fe565b61034e611b45565b6001546001600160a01b031615610378576040516334bb764760e01b815260040160405180910390fd5b600180546001600160a01b0319166001600160a01b0392909216919091179055565b600760205282600052604060002060205281600052604060002081815481106103c257600080fd5b60009182526020909120600290910201805460019091015463ffffffff90911693509150839050565b6103f3611b45565b6002546001600160a01b03161561041d576040516334bb764760e01b815260040160405180910390fd5b600280546001600160a01b0319166001600160a01b0392909216919091179055565b610447611b45565b6003546001600160a01b031615610471576040516334bb764760e01b815260040160405180910390fd5b600380546001600160a01b0319166001600160a01b0392909216919091179055565b6000438211156104b657604051639b4dbcab60e01b815260040160405180910390fd5b60008481526007602090815260408083206001600160a01b038716845290915290208054158061051d57508054839082906104f390600190611d4d565b8154811061050357610503611d60565b600091825260209091206002909102015463ffffffff1611155b1561054c57505060008381526006602090815260408083206001600160a01b0386168452909152902054610680565b828160008154811061056057610560611d60565b600091825260209091206002909102015463ffffffff161115610587576000915050610680565b8054600090819061059a90600190611d4d565b90505b8181111561065657600060026105b38484611d76565b6105be906001611d76565b6105c89190611d9f565b905060008482815481106105de576105de611d60565b600091825260209182902060408051808201909152600290920201805463ffffffff1680835260019091015492820192909252915087900361062a576020015194506106809350505050565b805163ffffffff168711156106415781935061064f565b61064c600183611d4d565b92505b505061059d565b82828154811061066857610668611d60565b90600052602060002090600202016001015493505050505b9392505050565b6003546001600160a01b031633148015906106ad57506002546001600160a01b03163314155b156106cb576040516334bb764760e01b815260040160405180910390fd5b60009182526005602052604090912055565b6040516309ab24eb60e41b8152600060048201819052906001600160a01b03831690639ab24eb090602401602060405180830381865afa925050508015610741575060408051601f3d908101601f1916820190925261073e91810190611db3565b60015b61076457506001600160a01b03811660009081526004602052604090205461086e565b506001600160a01b03828116600090815260086020526040808220546001549151630246540360e61b8152600481018290529093919091169063919500c090602401602060405180830381865afa1580156107c3573d6000803e3d6000fd5b505050506040513d601f19601f820116820180604052508101906107e79190611dcc565b60405163523fba7f60e01b81526001600160a01b038681166004830152919091169063523fba7f90602401602060405180830381865afa15801561082f573d6000803e3d6000fd5b505050506040513d601f19601f820116820180604052508101906108539190611db3565b90508061085f83610a6a565b6108699190611d76565b925050505b80610883670de0b6b3a7640000600019611d9f565b1061088e57806108a2565b6108a2670de0b6b3a7640000600019611d9f565b92915050565b6040516309ab24eb60e41b8152600060048201819052906001600160a01b03831690639ab24eb090602401602060405180830381865afa92505050801561090c575060408051601f3d908101601f1916820190925261090991810190611db3565b60015b61093c576001600160a01b03821660009081526004602052604090205461093590600019611d4d565b905061086e565b506001600160a01b03828116600090815260086020526040808220546001549151630246540360e61b8152600481018290529093919091169063919500c090602401602060405180830381865afa15801561099b573d6000803e3d6000fd5b505050506040513d601f19601f820116820180604052508101906109bf9190611dcc565b60405163523fba7f60e01b81526001600160a01b038681166004830152919091169063523fba7f90602401602060405180830381865afa158015610a07573d6000803e3d6000fd5b505050506040513d601f19601f82011682018060405250810190610a2b9190611db3565b90506102fb610a3b604884611d76565b11610a5057610a4b604883611d76565b610a54565b6102fb5b915080610a6083610a6a565b6108699190611d4d565b600080610a78600384611d9f565b90506000610a89600180841b611d4d565b9050610a96816003611de9565b9250610aa3600385611e00565b610ab0906001841b611de9565b610aba9084611d76565b92506048841115610b33576003610ad2604886611d4d565b610adc9190611d9f565b9150610aeb600180841b611d4d565b90506003610afa604886611d4d565b610b049190611e00565b610b11906001841b611de9565b610b1c826003611de9565b610b269190611d76565b610b309084611d4d565b92505b5050919050565b610b42611b45565b610b4c6000611b9f565b565b6003546001600160a01b03163314801590610b7457506002546001600160a01b03163314155b15610b92576040516334bb764760e01b815260040160405180910390fd5b60008481526006602090815260408083206001600160a01b0387168452909152902054811115610bd5576040516312366dfd60e31b815260040160405180910390fd5b60008481526006602090815260408083206001600160a01b038716845290915281208054839290610c07908490611d4d565b90915550506001600160a01b03831660009081526004602052604081208054839290610c34908490611d4d565b90915550506040516309ab24eb60e41b8152600060048201526001600160a01b03841690639ab24eb090602401602060405180830381865afa925050508015610c9a575060408051601f3d908101601f19168201909252610c9791810190611db3565b60015b610d7e57600154604051630246540360e61b81526102fb60048201526001600160a01b039091169063919500c090602401602060405180830381865afa158015610ce8573d6000803e3d6000fd5b505050506040513d601f19601f82011682018060405250810190610d0c9190611dcc565b604051636ce5768960e11b81526001600160a01b038581166004830152848116602483015260448201849052919091169063d9caed12906064015b600060405180830381600087803b158015610d6157600080fd5b505af1158015610d75573d6000803e3d6000fd5b5050505061107a565b506001600160a01b038316600090815260086020526040812054905b600083118015610daa5750604881105b15610fb357600154604051630246540360e61b8152600481018490526000916001600160a01b03169063919500c090602401602060405180830381865afa158015610df9573d6000803e3d6000fd5b505050506040513d601f19601f82011682018060405250810190610e1d9190611dcc565b60405163523fba7f60e01b81526001600160a01b038881166004830152919091169063523fba7f90602401602060405180830381865afa158015610e65573d6000803e3d6000fd5b505050506040513d601f19601f82011682018060405250810190610e899190611db3565b905080600003610ea657610e9e600184611d4d565b925050610d9a565b6000848210610eb55784610eb7565b815b600154604051630246540360e61b8152600481018790529192506001600160a01b03169063919500c090602401602060405180830381865afa158015610f01573d6000803e3d6000fd5b505050506040513d601f19601f82011682018060405250810190610f259190611dcc565b604051636ce5768960e11b81526001600160a01b038981166004830152888116602483015260448201849052919091169063d9caed1290606401600060405180830381600087803b158015610f7957600080fd5b505af1158015610f8d573d6000803e3d6000fd5b505050508085610f9d9190611d4d565b945082610fa981611e14565b9350505050610d9a565b8215610fd257604051635cdab33f60e11b815260040160405180910390fd5b6001600160a01b0385166000818152600860209081526040808320869055898352600782528083209383529290528190208151808301909252908061101643611bef565b63ffffffff908116825260008a81526006602090815260408083206001600160a01b038d168452825282205493810193909352845460018082018755958252908390208451600290920201805463ffffffff19169190921617815591015191015550505b50505050565b611088611b45565b6001600160a01b0381166110f25760405162461bcd60e51b815260206004820152602660248201527f4f776e61626c653a206e6577206f776e657220697320746865207a65726f206160448201526564647265737360d01b60648201526084015b60405180910390fd5b6110fb81611b9f565b50565b6003546001600160a01b0316331480159061112457506002546001600160a01b03163314155b15611142576040516334bb764760e01b815260040160405180910390fd5b6040516370a0823160e01b815230600482015281906001600160a01b038416906370a0823190602401602060405180830381865afa158015611188573d6000803e3d6000fd5b505050506040513d601f19601f820116820180604052508101906111ac9190611db3565b10156111cb576040516312366dfd60e31b815260040160405180910390fd5b6001600160a01b038216600090815260046020526040812080548392906111f3908490611d76565b909155505060008381526006602090815260408083206001600160a01b03861684529091528120805483929061122a908490611d76565b90915550506001600160a01b0382166000818152600860205260408082205490516309ab24eb60e41b815260048101929092529190639ab24eb090602401602060405180830381865afa9250505080156112a1575060408051601f3d908101601f1916820190925261129e91810190611db3565b60015b61143357600154604051630246540360e61b81526102fb60048201526001600160a01b038581169263095ea7b39291169063919500c090602401602060405180830381865afa1580156112f8573d6000803e3d6000fd5b505050506040513d601f19601f8201168201806040525081019061131c9190611dcc565b6040516001600160e01b031960e084901b1681526001600160a01b039091166004820152602481018590526044016020604051808303816000875af1158015611369573d6000803e3d6000fd5b505050506040513d601f19601f8201168201806040525081019061138d9190611e2d565b50600154604051630246540360e61b81526102fb60048201526001600160a01b039091169063919500c090602401602060405180830381865afa1580156113d8573d6000803e3d6000fd5b505050506040513d601f19601f820116820180604052508101906113fc9190611dcc565b6040516311f9fbc960e21b81526001600160a01b0385811660048301526024820185905291909116906347e7ef2490604401610d47565b5060005b6000831180156114475750604881105b15611a7857600154604051630246540360e61b8152600481018490526001600160a01b039091169063919500c090602401602060405180830381865afa158015611495573d6000803e3d6000fd5b505050506040513d601f19601f820116820180604052508101906114b99190611dcc565b6040516382b5e88960e01b81526001600160a01b03868116600483015291909116906382b5e88990602401600060405180830381600087803b1580156114fe57600080fd5b505af1158015611512573d6000803e3d6000fd5b5050600154604051630246540360e61b8152600481018690526001600160a01b03909116925063919500c09150602401602060405180830381865afa15801561155f573d6000803e3d6000fd5b505050506040513d601f19601f820116820180604052508101906115839190611dcc565b6001600160a01b03166359b6a0c96040518163ffffffff1660e01b8152600401602060405180830381865afa1580156115c0573d6000803e3d6000fd5b505050506040513d601f19601f820116820180604052508101906115e49190611db3565b600154604051630246540360e61b8152600481018590526001600160a01b039091169063919500c090602401602060405180830381865afa15801561162d573d6000803e3d6000fd5b505050506040513d601f19601f820116820180604052508101906116519190611dcc565b60405163523fba7f60e01b81526001600160a01b038781166004830152919091169063523fba7f90602401602060405180830381865afa158015611699573d6000803e3d6000fd5b505050506040513d601f19601f820116820180604052508101906116bd9190611db3565b106116d4576116cd600183611d76565b9150611437565b600154604051630246540360e61b8152600481018490526000916001600160a01b03169063919500c090602401602060405180830381865afa15801561171e573d6000803e3d6000fd5b505050506040513d601f19601f820116820180604052508101906117429190611dcc565b60405163523fba7f60e01b81526001600160a01b038781166004830152919091169063523fba7f90602401602060405180830381865afa15801561178a573d6000803e3d6000fd5b505050506040513d601f19601f820116820180604052508101906117ae9190611db3565b600154604051630246540360e61b8152600481018690526001600160a01b039091169063919500c090602401602060405180830381865afa1580156117f7573d6000803e3d6000fd5b505050506040513d601f19601f8201168201806040525081019061181b9190611dcc565b6001600160a01b03166359b6a0c96040518163ffffffff1660e01b8152600401602060405180830381865afa158015611858573d6000803e3d6000fd5b505050506040513d601f19601f8201168201806040525081019061187c9190611db3565b6118869190611d4d565b905060008482106118975784611899565b815b90506118a58186611d4d565b600154604051630246540360e61b8152600481018790529196506001600160a01b038881169263095ea7b392919091169063919500c090602401602060405180830381865afa1580156118fc573d6000803e3d6000fd5b505050506040513d601f19601f820116820180604052508101906119209190611dcc565b6040516001600160e01b031960e084901b1681526001600160a01b039091166004820152602481018490526044016020604051808303816000875af115801561196d573d6000803e3d6000fd5b505050506040513d601f19601f820116820180604052508101906119919190611e2d565b50600154604051630246540360e61b8152600481018690526001600160a01b039091169063919500c090602401602060405180830381865afa1580156119db573d6000803e3d6000fd5b505050506040513d601f19601f820116820180604052508101906119ff9190611dcc565b6040516311f9fbc960e21b81526001600160a01b0388811660048301526024820184905291909116906347e7ef2490604401600060405180830381600087803b158015611a4b57600080fd5b505af1158015611a5f573d6000803e3d6000fd5b505050508280611a6e90611e14565b9350505050611437565b8215611a9757604051635cdab33f60e11b815260040160405180910390fd5b6001600160a01b03841660008181526008602090815260408083208690558883526007825280832093835292905281902081518083019092529080611adb43611bef565b63ffffffff908116825260008981526006602090815260408083206001600160a01b038c16845282528220549381019390935284546001818101875595825290839020845160029092020180549190921663ffffffff199091161781559101519101555050505050565b6000546001600160a01b03163314610b4c5760405162461bcd60e51b815260206004820181905260248201527f4f776e61626c653a2063616c6c6572206973206e6f7420746865206f776e657260448201526064016110e9565b600080546001600160a01b038381166001600160a01b0319831681178455604051919092169283917f8be0079c531659141344cd1fd0a4f28419497f9722a3daafe3b4186f6b6457e09190a35050565b60006401000000008210611c1657604051639b4dbcab60e01b815260040160405180910390fd5b5090565b6001600160a01b03811681146110fb57600080fd5b600060208284031215611c4157600080fd5b813561068081611c1a565b600080600060608486031215611c6157600080fd5b833592506020840135611c7381611c1a565b929592945050506040919091013590565b600060208284031215611c9657600080fd5b5035919050565b60008060408385031215611cb057600080fd5b50508035926020909101359150565b60008060408385031215611cd257600080fd5b823591506020830135611ce481611c1a565b809150509250929050565b60008060008060808587031215611d0557600080fd5b843593506020850135611d1781611c1a565b92506040850135611d2781611c1a565b9396929550929360600135925050565b634e487b7160e01b600052601160045260246000fd5b818103818111156108a2576108a2611d37565b634e487b7160e01b600052603260045260246000fd5b808201808211156108a2576108a2611d37565b634e487b7160e01b600052601260045260246000fd5b600082611dae57611dae611d89565b500490565b600060208284031215611dc557600080fd5b5051919050565b600060208284031215611dde57600080fd5b815161068081611c1a565b80820281158282048414176108a2576108a2611d37565b600082611e0f57611e0f611d89565b500690565b600060018201611e2657611e26611d37565b5060010190565b600060208284031215611e3f57600080fd5b8151801515811461068057600080fdfea2646970667358221220122c759436ea148ced4e0a647a5a3fdc15f91bf08c97124581b7a3c2e837520f64736f6c63430008130033",
    "linkReferences": {}
  },
  "methodIdentifiers": {
    "calculateIndexCapacity(uint256)": "6e6746a4",
    "clusterRegistry()": "afe3b8d9",
    "currentClusters(address)": "ccc0c8a1",
    "distributeToClusters(uint256,address,uint256)": "fb699316",
    "getPastPoolTokenBalance(uint256,address,uint256)": "3394c740",
    "liquidityRamp()": "4dfd324e",
    "owner()": "8da5cb5b",
    "poolLiquidityProduct(uint256)": "332d39d5",
    "poolTokenBalanceSnapshots(uint256,address,uint256)": "11d72c2b",
    "poolTokenBalances(uint256,address)": "5496696b",
    "renounceOwnership()": "715018a6",
    "setClusterRegistry(address)": "0ddfb51c",
    "setLiquidityRamp(address)": "23bae8a7",
    "setSwapManager(address)": "30284efc",
    "singleTransactionDepositLimit(address)": "67e45cf2",
    "singleTransactionWithdrawalLimit(address)": "591409fa",
    "swapManager()": "709d039d",
    "tokenBalances(address)": "523fba7f",
    "transferOwnership(address)": "f2fde38b",
    "updateLiquidityProduct(uint256,uint256)": "375c69de",
    "withdraw(uint256,address,address,uint256)": "a318c1a4"
  },
  "id": 70
}