{
  "abi": [
    {
      "inputs": [],
      "name": "LiquidityManager__BlockNumberExceeds32Bits",
      "type": "error"
    },
    {
      "inputs": [],
      "name": "LiquidityManager__InsufficientLiquidity",
      "type": "error"
    },
    {
      "inputs": [],
      "name": "LiquidityManager__SingleTransactionLimitExceeded",
      "type": "error"
    },
    {
      "inputs": [],
      "name": "LiquidityManager__Unauthorized",
      "type": "error"
    },
    {
      "anonymous": false,
      "inputs": [
        {
          "indexed": true,
          "internalType": "address",
          "name": "previousOwner",
          "type": "address"
        },
        {
          "indexed": true,
          "internalType": "address",
          "name": "newOwner",
          "type": "address"
        }
      ],
      "name": "OwnershipTransferred",
      "type": "event"
    },
    {
      "inputs": [
        {
          "internalType": "uint256",
          "name": "index",
          "type": "uint256"
        }
      ],
      "name": "calculateIndexCapacity",
      "outputs": [
        {
          "internalType": "uint256",
          "name": "capacity",
          "type": "uint256"
        }
      ],
      "stateMutability": "pure",
      "type": "function"
    },
    {
      "inputs": [],
      "name": "clusterRegistry",
      "outputs": [
        {
          "internalType": "contract IClusterRegistry",
          "name": "",
          "type": "address"
        }
      ],
      "stateMutability": "view",
      "type": "function"
    },
    {
      "inputs": [
        {
          "internalType": "contract IERC20",
          "name": "",
          "type": "address"
        }
      ],
      "name": "currentClusters",
      "outputs": [
        {
          "internalType": "uint256",
          "name": "",
          "type": "uint256"
        }
      ],
      "stateMutability": "view",
      "type": "function"
    },
    {
      "inputs": [
        {
          "internalType": "uint256",
          "name": "poolIdx",
          "type": "uint256"
        },
        {
          "internalType": "contract IERC20",
          "name": "token",
          "type": "address"
        },
        {
          "internalType": "uint256",
          "name": "amount",
          "type": "uint256"
        }
      ],
      "name": "distributeToClusters",
      "outputs": [],
      "stateMutability": "nonpayable",
      "type": "function"
    },
    {
      "inputs": [
        {
          "internalType": "uint256",
          "name": "poolIdx",
          "type": "uint256"
        },
        {
          "internalType": "contract IERC20",
          "name": "token",
          "type": "address"
        },
        {
          "internalType": "uint256",
          "name": "blockNumber",
          "type": "uint256"
        }
      ],
      "name": "getPastPoolTokenBalance",
      "outputs": [
        {
          "internalType": "uint256",
          "name": "",
          "type": "uint256"
        }
      ],
      "stateMutability": "view",
      "type": "function"
    },
    {
      "inputs": [],
      "name": "liquidityRamp",
      "outputs": [
        {
          "internalType": "contract ILiquidityRamp",
          "name": "",
          "type": "address"
        }
      ],
      "stateMutability": "view",
      "type": "function"
    },
    {
      "inputs": [],
      "name": "owner",
      "outputs": [
        {
          "internalType": "address",
          "name": "",
          "type": "address"
        }
      ],
      "stateMutability": "view",
      "type": "function"
    },
    {
      "inputs": [
        {
          "internalType": "uint256",
          "name": "",
          "type": "uint256"
        },
        {
          "internalType": "contract IERC20",
          "name": "",
          "type": "address"
        },
        {
          "internalType": "uint256",
          "name": "",
          "type": "uint256"
        }
      ],
      "name": "poolTokenBalanceSnapshots",
      "outputs": [
        {
          "internalType": "uint32",
          "name": "fromBlock",
          "type": "uint32"
        },
        {
          "internalType": "uint256",
          "name": "value",
          "type": "uint256"
        }
      ],
      "stateMutability": "view",
      "type": "function"
    },
    {
      "inputs": [
        {
          "internalType": "uint256",
          "name": "",
          "type": "uint256"
        },
        {
          "internalType": "contract IERC20",
          "name": "",
          "type": "address"
        }
      ],
      "name": "poolTokenBalances",
      "outputs": [
        {
          "internalType": "uint256",
          "name": "",
          "type": "uint256"
        }
      ],
      "stateMutability": "view",
      "type": "function"
    },
    {
      "inputs": [],
      "name": "renounceOwnership",
      "outputs": [],
      "stateMutability": "nonpayable",
      "type": "function"
    },
    {
      "inputs": [
        {
          "internalType": "contract IClusterRegistry",
          "name": "_clusterRegistry",
          "type": "address"
        }
      ],
      "name": "setClusterRegistry",
      "outputs": [],
      "stateMutability": "nonpayable",
      "type": "function"
    },
    {
      "inputs": [
        {
          "internalType": "contract ILiquidityRamp",
          "name": "_liquidityRamp",
          "type": "address"
        }
      ],
      "name": "setLiquidityRamp",
      "outputs": [],
      "stateMutability": "nonpayable",
      "type": "function"
    },
    {
      "inputs": [
        {
          "internalType": "contract ISwapManager",
          "name": "_swapManager",
          "type": "address"
        }
      ],
      "name": "setSwapManager",
      "outputs": [],
      "stateMutability": "nonpayable",
      "type": "function"
    },
    {
      "inputs": [
        {
          "internalType": "contract IERC20",
          "name": "token",
          "type": "address"
        }
      ],
      "name": "singleTransactionDepositLimit",
      "outputs": [
        {
          "internalType": "uint256",
          "name": "limit",
          "type": "uint256"
        }
      ],
      "stateMutability": "view",
      "type": "function"
    },
    {
      "inputs": [
        {
          "internalType": "contract IERC20",
          "name": "token",
          "type": "address"
        }
      ],
      "name": "singleTransactionWithdrawalLimit",
      "outputs": [
        {
          "internalType": "uint256",
          "name": "limit",
          "type": "uint256"
        }
      ],
      "stateMutability": "view",
      "type": "function"
    },
    {
      "inputs": [],
      "name": "swapManager",
      "outputs": [
        {
          "internalType": "contract ISwapManager",
          "name": "",
          "type": "address"
        }
      ],
      "stateMutability": "view",
      "type": "function"
    },
    {
      "inputs": [
        {
          "internalType": "contract IERC20",
          "name": "",
          "type": "address"
        }
      ],
      "name": "tokenBalances",
      "outputs": [
        {
          "internalType": "uint256",
          "name": "",
          "type": "uint256"
        }
      ],
      "stateMutability": "view",
      "type": "function"
    },
    {
      "inputs": [
        {
          "internalType": "address",
          "name": "newOwner",
          "type": "address"
        }
      ],
      "name": "transferOwnership",
      "outputs": [],
      "stateMutability": "nonpayable",
      "type": "function"
    },
    {
      "inputs": [
        {
          "internalType": "uint256",
          "name": "poolIdx",
          "type": "uint256"
        },
        {
          "internalType": "contract IERC20",
          "name": "token",
          "type": "address"
        },
        {
          "internalType": "address",
          "name": "to",
          "type": "address"
        },
        {
          "internalType": "uint256",
          "name": "amount",
          "type": "uint256"
        }
      ],
      "name": "withdraw",
      "outputs": [],
      "stateMutability": "nonpayable",
      "type": "function"
    }
  ],
  "bytecode": {
    "object": "0x608060405234801561001057600080fd5b5061001a3361001f565b61006f565b600080546001600160a01b038381166001600160a01b0319831681178455604051919092169283917f8be0079c531659141344cd1fd0a4f28419497f9722a3daafe3b4186f6b6457e09190a35050565b61226b8061007e6000396000f3fe608060405234801561001057600080fd5b50600436106101215760003560e01c806367e45cf2116100ad578063a318c1a411610071578063a318c1a414610291578063afe3b8d9146102a4578063ccc0c8a1146102b7578063f2fde38b146102d7578063fb699316146102ea57600080fd5b806367e45cf21461023f5780636e6746a414610252578063709d039d14610265578063715018a6146102785780638da5cb5b1461028057600080fd5b80633394c740116100f45780633394c740146101955780634dfd324e146101b6578063523fba7f146101e15780635496696b14610201578063591409fa1461022c57600080fd5b80630ddfb51c1461012657806311d72c2b1461013b57806323bae8a71461016f57806330284efc14610182575b600080fd5b610139610134366004611e72565b6102fd565b005b61014e610149366004611e8f565b610392565b6040805163ffffffff90931683526020830191909152015b60405180910390f35b61013961017d366004611e72565b6103e3565b610139610190366004611e72565b610475565b6101a86101a3366004611e8f565b610507565b604051908152602001610166565b6002546101c9906001600160a01b031681565b6040516001600160a01b039091168152602001610166565b6101a86101ef366004611e72565b60046020526000908152604090205481565b6101a861020f366004611ec7565b600560209081526000928352604080842090915290825290205481565b6101a861023a366004611e72565b6106fb565b6101a861024d366004611e72565b6108c6565b6101a8610260366004611ef7565b610a88565b6003546101c9906001600160a01b031681565b610139610b58565b6000546001600160a01b03166101c9565b61013961029f366004611f10565b610b6c565b6001546101c9906001600160a01b031681565b6101a86102c5366004611e72565b60086020526000908152604090205481565b6101396102e5366004611e72565b611240565b6101396102f8366004611e8f565b6112bb565b610305611cd8565b6103266040518060600160405280602581526020016121ee60259139611d32565b6001546001600160a01b031615610350576040516334bb764760e01b815260040160405180910390fd5b600180546001600160a01b0319166001600160a01b0383161790556040805180820190915260048152637365742160e01b602082015261038f90611d32565b50565b600660205282600052604060002060205281600052604060002081815481106103ba57600080fd5b60009182526020909120600290910201805460019091015463ffffffff90911693509150839050565b6103eb611cd8565b61040c60405180606001604052806023815260200161221360239139611d32565b6002546001600160a01b031615610436576040516334bb764760e01b815260040160405180910390fd5b600280546001600160a01b0319166001600160a01b0383161790556040805180820190915260048152637365742160e01b602082015261038f90611d32565b61047d611cd8565b61049e6040518060600160405280602181526020016121cd60219139611d32565b6003546001600160a01b0316156104c8576040516334bb764760e01b815260040160405180910390fd5b600380546001600160a01b0319166001600160a01b0383161790556040805180820190915260048152637365742160e01b602082015261038f90611d32565b60004382111561052a57604051639b4dbcab60e01b815260040160405180910390fd5b60008481526006602090815260408083206001600160a01b0387168452909152902080541580610591575080548390829061056790600190611f6e565b8154811061057757610577611f81565b600091825260209091206002909102015463ffffffff1611155b156105c057505060008381526005602090815260408083206001600160a01b03861684529091529020546106f4565b82816000815481106105d4576105d4611f81565b600091825260209091206002909102015463ffffffff1611156105fb5760009150506106f4565b8054600090819061060e90600190611f6e565b90505b818111156106ca57600060026106278484611f97565b610632906001611f97565b61063c9190611fc0565b9050600084828154811061065257610652611f81565b600091825260209182902060408051808201909152600290920201805463ffffffff1680835260019091015492820192909252915087900361069e576020015194506106f49350505050565b805163ffffffff168711156106b5578193506106c3565b6106c0600183611f6e565b92505b5050610611565b8282815481106106dc576106dc611f81565b90600052602060002090600202016001015493505050505b9392505050565b6040516309ab24eb60e41b8152600060048201819052906001600160a01b03831690639ab24eb090602401602060405180830381865afa92505050801561075f575060408051601f3d908101601f1916820190925261075c91810190611fd4565b60015b61078257506001600160a01b03811660009081526004602052604090205461088c565b506001600160a01b03828116600090815260086020526040808220546001549151630246540360e61b8152600481018290529093919091169063919500c090602401602060405180830381865afa1580156107e1573d6000803e3d6000fd5b505050506040513d601f19601f820116820180604052508101906108059190611fed565b60405163523fba7f60e01b81526001600160a01b038681166004830152919091169063523fba7f90602401602060405180830381865afa15801561084d573d6000803e3d6000fd5b505050506040513d601f19601f820116820180604052508101906108719190611fd4565b90508061087d83610a88565b6108879190611f97565b925050505b806108a1670de0b6b3a7640000600019611fc0565b106108ac57806108c0565b6108c0670de0b6b3a7640000600019611fc0565b92915050565b6040516309ab24eb60e41b8152600060048201819052906001600160a01b03831690639ab24eb090602401602060405180830381865afa92505050801561092a575060408051601f3d908101601f1916820190925261092791810190611fd4565b60015b61095a576001600160a01b03821660009081526004602052604090205461095390600019611f6e565b905061088c565b506001600160a01b03828116600090815260086020526040808220546001549151630246540360e61b8152600481018290529093919091169063919500c090602401602060405180830381865afa1580156109b9573d6000803e3d6000fd5b505050506040513d601f19601f820116820180604052508101906109dd9190611fed565b60405163523fba7f60e01b81526001600160a01b038681166004830152919091169063523fba7f90602401602060405180830381865afa158015610a25573d6000803e3d6000fd5b505050506040513d601f19601f82011682018060405250810190610a499190611fd4565b90506102fb610a59604884611f97565b11610a6e57610a69604883611f97565b610a72565b6102fb5b915080610a7e83610a88565b6108879190611f6e565b600080610a96600384611fc0565b90506000610aa7600180841b611f6e565b9050610ab481600361200a565b9250610ac1600385612021565b610ace906001841b61200a565b610ad89084611f97565b92506048841115610b51576003610af0604886611f6e565b610afa9190611fc0565b9150610b09600180841b611f6e565b90506003610b18604886611f6e565b610b229190612021565b610b2f906001841b61200a565b610b3a82600361200a565b610b449190611f97565b610b4e9084611f6e565b92505b5050919050565b610b60611cd8565b610b6a6000611d75565b565b6003546001600160a01b03163314801590610b9257506002546001600160a01b03163314155b15610bb0576040516334bb764760e01b815260040160405180910390fd5b610bee6040518060400160405280601d81526020017f0a4c69717569646974794d616e616765723a3a77697468647261772829000000815250611d32565b60008481526005602090815260408083206001600160a01b0387168452909152902054811115610c31576040516312366dfd60e31b815260040160405180910390fd5b610cc96040518060400160405280601081526020016f77697468647261775b25735d3a20256960801b815250846001600160a01b03166395d89b416040518163ffffffff1660e01b8152600401600060405180830381865afa158015610c9b573d6000803e3d6000fd5b505050506040513d6000823e601f3d908101601f19168201604052610cc3919081019061206f565b83611dc5565b60008481526005602090815260408083206001600160a01b038716845290915281208054839290610cfb908490611f6e565b90915550506001600160a01b03831660009081526004602052604081208054839290610d28908490611f6e565b909155505060408051808201909152601f81527f616d6f756e7420737562747261637465642066726f6d2062616c616e636573006020820152610d6a90611d32565b6040516309ab24eb60e41b8152600060048201526001600160a01b03841690639ab24eb090602401602060405180830381865afa925050508015610dcb575060408051601f3d908101601f19168201909252610dc891810190611fd4565b60015b610f0a57610e02604051806040016040528060128152602001712737ba1030903b37ba34b733903a37b5b2b760711b815250611d32565b600154604051630246540360e61b81526102fb60048201526001600160a01b039091169063919500c090602401602060405180830381865afa158015610e4c573d6000803e3d6000fd5b505050506040513d601f19601f82011682018060405250810190610e709190611fed565b604051636ce5768960e11b81526001600160a01b038581166004830152848116602483015260448201849052919091169063d9caed1290606401600060405180830381600087803b158015610ec457600080fd5b505af1158015610ed8573d6000803e3d6000fd5b50505050610f0560405180604001604052806008815260200167576974686472657760c01b815250611d32565b61123a565b50610f3f6040518060400160405280601381526020017224ba13b99030903b37ba34b733903a37b5b2b760691b815250611d32565b6001600160a01b038316600090815260086020526040812054905b600083118015610f6a5750604881105b1561117357600154604051630246540360e61b8152600481018490526000916001600160a01b03169063919500c090602401602060405180830381865afa158015610fb9573d6000803e3d6000fd5b505050506040513d601f19601f82011682018060405250810190610fdd9190611fed565b60405163523fba7f60e01b81526001600160a01b038881166004830152919091169063523fba7f90602401602060405180830381865afa158015611025573d6000803e3d6000fd5b505050506040513d601f19601f820116820180604052508101906110499190611fd4565b9050806000036110665761105e600184611f6e565b925050610f5a565b60008482106110755784611077565b815b600154604051630246540360e61b8152600481018790529192506001600160a01b03169063919500c090602401602060405180830381865afa1580156110c1573d6000803e3d6000fd5b505050506040513d601f19601f820116820180604052508101906110e59190611fed565b604051636ce5768960e11b81526001600160a01b038981166004830152888116602483015260448201849052919091169063d9caed1290606401600060405180830381600087803b15801561113957600080fd5b505af115801561114d573d6000803e3d6000fd5b50505050808561115d9190611f6e565b9450826111698161211c565b9350505050610f5a565b821561119257604051635cdab33f60e11b815260040160405180910390fd5b6001600160a01b038516600081815260086020908152604080832086905589835260068252808320938352929052819020815180830190925290806111d643611e11565b63ffffffff908116825260008a81526005602090815260408083206001600160a01b038d168452825282205493810193909352845460018082018755958252908390208451600290920201805463ffffffff19169190921617815591015191015550505b50505050565b611248611cd8565b6001600160a01b0381166112b25760405162461bcd60e51b815260206004820152602660248201527f4f776e61626c653a206e6577206f776e657220697320746865207a65726f206160448201526564647265737360d01b60648201526084015b60405180910390fd5b61038f81611d75565b6003546001600160a01b031633148015906112e157506002546001600160a01b03163314155b156112ff576040516334bb764760e01b815260040160405180910390fd5b6040516370a0823160e01b815230600482015281906001600160a01b038416906370a0823190602401602060405180830381865afa158015611345573d6000803e3d6000fd5b505050506040513d601f19601f820116820180604052508101906113699190611fd4565b1015611388576040516312366dfd60e31b815260040160405180910390fd5b6001600160a01b038216600090815260046020526040812080548392906113b0908490611f97565b909155505060008381526005602090815260408083206001600160a01b0386168452909152812080548392906113e7908490611f97565b90915550506001600160a01b0382166000818152600860205260408082205490516309ab24eb60e41b815260048101929092529190639ab24eb090602401602060405180830381865afa92505050801561145e575060408051601f3d908101601f1916820190925261145b91810190611fd4565b60015b61162257600154604051630246540360e61b81526102fb60048201526001600160a01b038581169263095ea7b39291169063919500c090602401602060405180830381865afa1580156114b5573d6000803e3d6000fd5b505050506040513d601f19601f820116820180604052508101906114d99190611fed565b6040516001600160e01b031960e084901b1681526001600160a01b039091166004820152602481018590526044016020604051808303816000875af1158015611526573d6000803e3d6000fd5b505050506040513d601f19601f8201168201806040525081019061154a9190612135565b50600154604051630246540360e61b81526102fb60048201526001600160a01b039091169063919500c090602401602060405180830381865afa158015611595573d6000803e3d6000fd5b505050506040513d601f19601f820116820180604052508101906115b99190611fed565b6040516311f9fbc960e21b81526001600160a01b0385811660048301526024820185905291909116906347e7ef2490604401600060405180830381600087803b15801561160557600080fd5b505af1158015611619573d6000803e3d6000fd5b5050505061123a565b506000805b6000841180156116375750604882105b15611c7557600154604051630246540360e61b8152600481018590526001600160a01b039091169063919500c090602401602060405180830381865afa158015611685573d6000803e3d6000fd5b505050506040513d601f19601f820116820180604052508101906116a99190611fed565b6040516382b5e88960e01b81526001600160a01b03878116600483015291909116906382b5e88990602401600060405180830381600087803b1580156116ee57600080fd5b505af1158015611702573d6000803e3d6000fd5b5050600154604051630246540360e61b8152600481018790526001600160a01b03909116925063919500c09150602401602060405180830381865afa15801561174f573d6000803e3d6000fd5b505050506040513d601f19601f820116820180604052508101906117739190611fed565b6001600160a01b03166359b6a0c96040518163ffffffff1660e01b8152600401602060405180830381865afa1580156117b0573d6000803e3d6000fd5b505050506040513d601f19601f820116820180604052508101906117d49190611fd4565b600154604051630246540360e61b8152600481018690526001600160a01b039091169063919500c090602401602060405180830381865afa15801561181d573d6000803e3d6000fd5b505050506040513d601f19601f820116820180604052508101906118419190611fed565b60405163523fba7f60e01b81526001600160a01b038881166004830152919091169063523fba7f90602401602060405180830381865afa158015611889573d6000803e3d6000fd5b505050506040513d601f19601f820116820180604052508101906118ad9190611fd4565b106118c4576118bd600184611f97565b9250611627565b600154604051630246540360e61b8152600481018590526000916001600160a01b03169063919500c090602401602060405180830381865afa15801561190e573d6000803e3d6000fd5b505050506040513d601f19601f820116820180604052508101906119329190611fed565b60405163523fba7f60e01b81526001600160a01b038881166004830152919091169063523fba7f90602401602060405180830381865afa15801561197a573d6000803e3d6000fd5b505050506040513d601f19601f8201168201806040525081019061199e9190611fd4565b600154604051630246540360e61b8152600481018790526001600160a01b039091169063919500c090602401602060405180830381865afa1580156119e7573d6000803e3d6000fd5b505050506040513d601f19601f82011682018060405250810190611a0b9190611fed565b6001600160a01b03166359b6a0c96040518163ffffffff1660e01b8152600401602060405180830381865afa158015611a48573d6000803e3d6000fd5b505050506040513d601f19601f82011682018060405250810190611a6c9190611fd4565b611a769190611f6e565b90506000858210611a875785611a89565b815b9050611a958187611f6e565b600154604051630246540360e61b8152600481018890529197506001600160a01b038981169263095ea7b392919091169063919500c090602401602060405180830381865afa158015611aec573d6000803e3d6000fd5b505050506040513d601f19601f82011682018060405250810190611b109190611fed565b6040516001600160e01b031960e084901b1681526001600160a01b039091166004820152602481018490526044016020604051808303816000875af1158015611b5d573d6000803e3d6000fd5b505050506040513d601f19601f82011682018060405250810190611b819190612135565b50600154604051630246540360e61b8152600481018790526001600160a01b039091169063919500c090602401602060405180830381865afa158015611bcb573d6000803e3d6000fd5b505050506040513d601f19601f82011682018060405250810190611bef9190611fed565b6040516311f9fbc960e21b81526001600160a01b0389811660048301526024820184905291909116906347e7ef2490604401600060405180830381600087803b158015611c3b57600080fd5b505af1158015611c4f573d6000803e3d6000fd5b505050508083611c5f9190611f97565b925083611c6b8161211c565b9450505050611627565b8315611c9457604051635cdab33f60e11b815260040160405180910390fd5b6001600160a01b038516600081815260086020908152604080832087905589835260068252808320938352929052819020815180830190925290806111d643611e11565b6000546001600160a01b03163314610b6a5760405162461bcd60e51b815260206004820181905260248201527f4f776e61626c653a2063616c6c6572206973206e6f7420746865206f776e657260448201526064016112a9565b61038f81604051602401611d469190612183565b60408051601f198184030181529190526020810180516001600160e01b031663104c13eb60e21b179052611e3c565b600080546001600160a01b038381166001600160a01b0319831681178455604051919092169283917f8be0079c531659141344cd1fd0a4f28419497f9722a3daafe3b4186f6b6457e09190a35050565b611e0c838383604051602401611ddd93929190612196565b60408051601f198184030181529190526020810180516001600160e01b031663f362ca5960e01b179052611e3c565b505050565b60006401000000008210611e3857604051639b4dbcab60e01b815260040160405180910390fd5b5090565b80516a636f6e736f6c652e6c6f67602083016000808483855afa5050505050565b6001600160a01b038116811461038f57600080fd5b600060208284031215611e8457600080fd5b81356106f481611e5d565b600080600060608486031215611ea457600080fd5b833592506020840135611eb681611e5d565b929592945050506040919091013590565b60008060408385031215611eda57600080fd5b823591506020830135611eec81611e5d565b809150509250929050565b600060208284031215611f0957600080fd5b5035919050565b60008060008060808587031215611f2657600080fd5b843593506020850135611f3881611e5d565b92506040850135611f4881611e5d565b9396929550929360600135925050565b634e487b7160e01b600052601160045260246000fd5b818103818111156108c0576108c0611f58565b634e487b7160e01b600052603260045260246000fd5b808201808211156108c0576108c0611f58565b634e487b7160e01b600052601260045260246000fd5b600082611fcf57611fcf611faa565b500490565b600060208284031215611fe657600080fd5b5051919050565b600060208284031215611fff57600080fd5b81516106f481611e5d565b80820281158282048414176108c0576108c0611f58565b60008261203057612030611faa565b500690565b634e487b7160e01b600052604160045260246000fd5b60005b8381101561206657818101518382015260200161204e565b50506000910152565b60006020828403121561208157600080fd5b815167ffffffffffffffff8082111561209957600080fd5b818401915084601f8301126120ad57600080fd5b8151818111156120bf576120bf612035565b604051601f8201601f19908116603f011681019083821181831017156120e7576120e7612035565b8160405282815287602084870101111561210057600080fd5b61211183602083016020880161204b565b979650505050505050565b60006001820161212e5761212e611f58565b5060010190565b60006020828403121561214757600080fd5b815180151581146106f457600080fd5b6000815180845261216f81602086016020860161204b565b601f01601f19169290920160200192915050565b6020815260006106f46020830184612157565b6060815260006121a96060830186612157565b82810360208401526121bb8186612157565b91505082604083015294935050505056fe0a4c69717569646974794d616e616765723a3a736574537761704d616e616765720a4c69717569646974794d616e616765723a3a736574436c757374657252656769737472790a4c69717569646974794d616e616765723a3a7365744c697175696469747952616d70a26469706673582212205193e08fdc511888356bb975ccd19c28abe42c2b1e31ea328f33a08c9f412ed064736f6c63430008130033",
    "linkReferences": {}
  },
  "methodIdentifiers": {
    "calculateIndexCapacity(uint256)": "6e6746a4",
    "clusterRegistry()": "afe3b8d9",
    "currentClusters(address)": "ccc0c8a1",
    "distributeToClusters(uint256,address,uint256)": "fb699316",
    "getPastPoolTokenBalance(uint256,address,uint256)": "3394c740",
    "liquidityRamp()": "4dfd324e",
    "owner()": "8da5cb5b",
    "poolTokenBalanceSnapshots(uint256,address,uint256)": "11d72c2b",
    "poolTokenBalances(uint256,address)": "5496696b",
    "renounceOwnership()": "715018a6",
    "setClusterRegistry(address)": "0ddfb51c",
    "setLiquidityRamp(address)": "23bae8a7",
    "setSwapManager(address)": "30284efc",
    "singleTransactionDepositLimit(address)": "67e45cf2",
    "singleTransactionWithdrawalLimit(address)": "591409fa",
    "swapManager()": "709d039d",
    "tokenBalances(address)": "523fba7f",
    "transferOwnership(address)": "f2fde38b",
    "withdraw(uint256,address,address,uint256)": "a318c1a4"
  },
  "id": 71
}