{
  "abi": [
    {
      "inputs": [],
      "name": "LiquidityRamp__AmountIsZero",
      "type": "error"
    },
    {
      "inputs": [],
      "name": "LiquidityRamp__AmountTooHigh",
      "type": "error"
    },
    {
      "inputs": [],
      "name": "LiquidityRamp__MinLiquidity",
      "type": "error"
    },
    {
      "inputs": [],
      "name": "LiquidityRamp__PoolDoesNotExist",
      "type": "error"
    },
    {
      "inputs": [],
      "name": "LiquidityRamp__Unauthorized",
      "type": "error"
    },
    {
      "anonymous": false,
      "inputs": [
        {
          "indexed": true,
          "internalType": "uint256",
          "name": "poolIdx",
          "type": "uint256"
        },
        {
          "indexed": true,
          "internalType": "address",
          "name": "provider",
          "type": "address"
        },
        {
          "indexed": false,
          "internalType": "contract IERC20",
          "name": "tokenA",
          "type": "address"
        },
        {
          "indexed": false,
          "internalType": "contract IERC20",
          "name": "tokenB",
          "type": "address"
        },
        {
          "indexed": false,
          "internalType": "uint256",
          "name": "amountA",
          "type": "uint256"
        },
        {
          "indexed": false,
          "internalType": "uint256",
          "name": "amountB",
          "type": "uint256"
        }
      ],
      "name": "LiquidityAdded",
      "type": "event"
    },
    {
      "anonymous": false,
      "inputs": [
        {
          "indexed": true,
          "internalType": "uint256",
          "name": "poolIdx",
          "type": "uint256"
        },
        {
          "indexed": true,
          "internalType": "address",
          "name": "receiver",
          "type": "address"
        },
        {
          "indexed": false,
          "internalType": "contract IERC20",
          "name": "thisToken",
          "type": "address"
        },
        {
          "indexed": false,
          "internalType": "contract IERC20",
          "name": "thatToken",
          "type": "address"
        },
        {
          "indexed": false,
          "internalType": "uint256",
          "name": "thisOut",
          "type": "uint256"
        },
        {
          "indexed": false,
          "internalType": "uint256",
          "name": "thatOut",
          "type": "uint256"
        }
      ],
      "name": "LiquidityRedeemed",
      "type": "event"
    },
    {
      "anonymous": false,
      "inputs": [
        {
          "indexed": true,
          "internalType": "address",
          "name": "previousOwner",
          "type": "address"
        },
        {
          "indexed": true,
          "internalType": "address",
          "name": "newOwner",
          "type": "address"
        }
      ],
      "name": "OwnershipTransferred",
      "type": "event"
    },
    {
      "inputs": [
        {
          "internalType": "contract IERC20",
          "name": "tokenA",
          "type": "address"
        },
        {
          "internalType": "contract IERC20",
          "name": "tokenB",
          "type": "address"
        },
        {
          "internalType": "uint256",
          "name": "amountA",
          "type": "uint256"
        },
        {
          "internalType": "uint256",
          "name": "amountB",
          "type": "uint256"
        },
        {
          "internalType": "address",
          "name": "provider",
          "type": "address"
        }
      ],
      "name": "addLiquidity",
      "outputs": [],
      "stateMutability": "nonpayable",
      "type": "function"
    },
    {
      "inputs": [
        {
          "internalType": "contract IERC20",
          "name": "_thisToken",
          "type": "address"
        },
        {
          "internalType": "contract IERC20",
          "name": "_thatToken",
          "type": "address"
        }
      ],
      "name": "createLpToken",
      "outputs": [
        {
          "internalType": "contract ILPToken",
          "name": "",
          "type": "address"
        }
      ],
      "stateMutability": "nonpayable",
      "type": "function"
    },
    {
      "inputs": [],
      "name": "liquidityManager",
      "outputs": [
        {
          "internalType": "contract ILiquidityManager",
          "name": "",
          "type": "address"
        }
      ],
      "stateMutability": "view",
      "type": "function"
    },
    {
      "inputs": [],
      "name": "owner",
      "outputs": [
        {
          "internalType": "address",
          "name": "",
          "type": "address"
        }
      ],
      "stateMutability": "view",
      "type": "function"
    },
    {
      "inputs": [],
      "name": "poolManager",
      "outputs": [
        {
          "internalType": "contract IPoolManager",
          "name": "",
          "type": "address"
        }
      ],
      "stateMutability": "view",
      "type": "function"
    },
    {
      "inputs": [
        {
          "internalType": "contract ILPToken",
          "name": "lpToken",
          "type": "address"
        },
        {
          "internalType": "uint256",
          "name": "amountLpTokens",
          "type": "uint256"
        },
        {
          "internalType": "address",
          "name": "recipient",
          "type": "address"
        }
      ],
      "name": "redeemLiquidity",
      "outputs": [
        {
          "internalType": "uint256",
          "name": "thisOut",
          "type": "uint256"
        },
        {
          "internalType": "uint256",
          "name": "thatOut",
          "type": "uint256"
        }
      ],
      "stateMutability": "nonpayable",
      "type": "function"
    },
    {
      "inputs": [],
      "name": "renounceOwnership",
      "outputs": [],
      "stateMutability": "nonpayable",
      "type": "function"
    },
    {
      "inputs": [
        {
          "internalType": "contract ILiquidityManager",
          "name": "_liquidityManager",
          "type": "address"
        }
      ],
      "name": "setLiquidityManager",
      "outputs": [],
      "stateMutability": "nonpayable",
      "type": "function"
    },
    {
      "inputs": [
        {
          "internalType": "contract IPoolManager",
          "name": "_poolManager",
          "type": "address"
        }
      ],
      "name": "setPoolManager",
      "outputs": [],
      "stateMutability": "nonpayable",
      "type": "function"
    },
    {
      "inputs": [
        {
          "internalType": "contract ISwapManager",
          "name": "_swapManager",
          "type": "address"
        }
      ],
      "name": "setSwapManager",
      "outputs": [],
      "stateMutability": "nonpayable",
      "type": "function"
    },
    {
      "inputs": [],
      "name": "swapManager",
      "outputs": [
        {
          "internalType": "contract ISwapManager",
          "name": "",
          "type": "address"
        }
      ],
      "stateMutability": "view",
      "type": "function"
    },
    {
      "inputs": [
        {
          "internalType": "address",
          "name": "newOwner",
          "type": "address"
        }
      ],
      "name": "transferOwnership",
      "outputs": [],
      "stateMutability": "nonpayable",
      "type": "function"
    }
  ],
  "bytecode": {
    "object": "0x608060405234801561001057600080fd5b5061001a33610023565b60018055610073565b600080546001600160a01b038381166001600160a01b0319831681178455604051919092169283917f8be0079c531659141344cd1fd0a4f28419497f9722a3daafe3b4186f6b6457e09190a35050565b6149e3806100826000396000f3fe60806040523480156200001157600080fd5b5060043610620000c35760003560e01c8063715018a6116200007a578063715018a6146200016b5780637aef671514620001755780638da5cb5b146200018c578063dc4c90d3146200019e578063e5f415c914620001b2578063f2fde38b14620001df57600080fd5b806309ee07c414620000c857806330284efc14620000fc5780633382743814620001155780633c1624d414620001295780634b2fc7bb1462000140578063709d039d1462000157575b600080fd5b620000df620000d936600462001c43565b620001f6565b6040516001600160a01b0390911681526020015b60405180910390f35b620001136200010d36600462001c81565b620003aa565b005b600254620000df906001600160a01b031681565b620001136200013a36600462001c81565b62000462565b620001136200015136600462001ca1565b620004fc565b600454620000df906001600160a01b031681565b6200011362000d88565b620001136200018636600462001c81565b62000da0565b6000546001600160a01b0316620000df565b600354620000df906001600160a01b031681565b620001c9620001c336600462001d07565b62000e56565b60408051928352602083019190915201620000f3565b62000113620001f036600462001c81565b620017df565b6000620002386040518060400160405280601f81526020017f0a4c697175696469747952616d703a3a6f6e6c79506f6f6c4d616e61676572008152506200185f565b620002796040518060400160405280601781526020017f6d73672e73656e6465722020202020202020202020257300000000000000000081525033620018a6565b60408051808201909152601781527f6164647265737320706f6f6c206d616e616765722025730000000000000000006020820152600354620002c591906001600160a01b0316620018a6565b6003546001600160a01b03163314620002f1576040516308a6ef2360e31b815260040160405180910390fd5b620003316040518060400160405280601f81526020017f0a4c697175696469747952616d703a3a6372656174654c70546f6b656e2829008152506200185f565b6000838330600460009054906101000a90046001600160a01b03166040516200035a9062001c1f565b6001600160a01b039485168152928416602084015290831660408301529091166060820152608001604051809103906000f0801580156200039f573d6000803e3d6000fd5b509150505b92915050565b620003b4620018f3565b620003f46040518060400160405280601e81526020017f0a4c697175696469747952616d703a3a736574537761704d616e6167657200008152506200185f565b6004546001600160a01b0316156200041f576040516308a6ef2360e31b815260040160405180910390fd5b600480546001600160a01b0319166001600160a01b03831617815560408051808201909152908152637365742160e01b60208201526200045f906200185f565b50565b6200046c620018f3565b620004906040518060600160405280602381526020016200498b602391396200185f565b6002546001600160a01b031615620004bb576040516308a6ef2360e31b815260040160405180910390fd5b600280546001600160a01b0319166001600160a01b0383161790556040805180820190915260048152637365742160e01b60208201526200045f906200185f565b620005066200194f565b620005466040518060400160405280601c81526020017f0a4c697175696469747952616d703a3a6164644c6971756964697479000000008152506200185f565b600354604051638ae93f0b60e01b81526001600160a01b03878116600483015286811660248301526000921690638ae93f0b90604401602060405180830381865afa1580156200059a573d6000803e3d6000fd5b505050506040513d601f19601f82011682018060405250810190620005c0919062001d4e565b905080600003620005e4576040516303fd3b0560e01b815260040160405180910390fd5b6200060e6040518060400160405280600781526020016636382a37b5b2b760c91b8152506200185f565b6003546040516306ed78b760e21b8152600481018390526000916001600160a01b031690631bb5e2dc90602401602060405180830381865afa15801562000659573d6000803e3d6000fd5b505050506040513d601f19601f820116820180604052508101906200067f919062001d68565b9050620006ba604051806040016040528060168152602001754469737472696275746520746f20636c75737465727360501b8152506200185f565b600254604051637db4c98b60e11b8152600481018490526001600160a01b038981166024830152604482018890529091169063fb69931690606401600060405180830381600087803b1580156200071057600080fd5b505af115801562000725573d6000803e3d6000fd5b5050600254604051637db4c98b60e11b8152600481018690526001600160a01b038a8116602483015260448201899052909116925063fb6993169150606401600060405180830381600087803b1580156200077f57600080fd5b505af115801562000794573d6000803e3d6000fd5b50505050806001600160a01b03166318160ddd6040518163ffffffff1660e01b8152600401602060405180830381865afa158015620007d7573d6000803e3d6000fd5b505050506040513d601f19601f82011682018060405250810190620007fd919062001d4e565b60000362000a5257620008456040518060400160405280601a81526020017f6c70546f6b656e2e746f74616c537570706c792829203d3d20300000000000008152506200185f565b60006200085d62000857868862001d9e565b620019aa565b90506103e88111620008825760405163cff7acc560e01b815260040160405180910390fd5b620008c26040518060400160405280601981526020017f696e697469616c697a6550726963657328706f6f6c49647829000000000000008152506200185f565b600480546040516332ddee3f60e21b81529182018590526001600160a01b03169063cb77b8fc90602401600060405180830381600087803b1580156200090757600080fd5b505af11580156200091c573d6000803e3d6000fd5b5050505062000944604051806060016040528060298152602001620048f6602991396200185f565b6040516340c10f1960e01b815261dead60048201526103e860248201526001600160a01b038316906340c10f1990604401600060405180830381600087803b1580156200099057600080fd5b505af1158015620009a5573d6000803e3d6000fd5b50505050620009cd6040518060600160405280602e8152602001620048c8602e91396200185f565b6001600160a01b0382166340c10f1985620009eb6103e88562001db8565b6040516001600160e01b031960e085901b1681526001600160a01b0390921660048301526024820152604401600060405180830381600087803b15801562000a3257600080fd5b505af115801562000a47573d6000803e3d6000fd5b505050505062000cf8565b62000a7b60405180604001604052806006815260200165726174696f7360d01b8152506200185f565b600254604051635496696b60e01b8152600481018490526001600160a01b0389811660248301526000921690635496696b90604401602060405180830381865afa15801562000ace573d6000803e3d6000fd5b505050506040513d601f19601f8201168201806040525081019062000af4919062001d4e565b62000b08670de0b6b3a76400008862001d9e565b62000b14919062001de4565b600254604051635496696b60e01b8152600481018690526001600160a01b038a8116602483015292935060009290911690635496696b90604401602060405180830381865afa15801562000b6c573d6000803e3d6000fd5b505050506040513d601f19601f8201168201806040525081019062000b92919062001d4e565b62000ba6670de0b6b3a76400008862001d9e565b62000bb2919062001de4565b9050600062000bc2838362001ab6565b90506000670de0b6b3a764000082866001600160a01b03166318160ddd6040518163ffffffff1660e01b8152600401602060405180830381865afa15801562000c0f573d6000803e3d6000fd5b505050506040513d601f19601f8201168201806040525081019062000c35919062001d4e565b62000c41919062001d9e565b62000c4d919062001de4565b905062000c8f6040518060400160405280601e81526020017f6c70546f6b656e2e6d696e742870726f76696465722c20746f4d696e742900008152506200185f565b6040516340c10f1960e01b81526001600160a01b038881166004830152602482018390528616906340c10f1990604401600060405180830381600087803b15801562000cda57600080fd5b505af115801562000cef573d6000803e3d6000fd5b50505050505050505b62000d1c60405180608001604052806048815260200162004943604891396200185f565b604080516001600160a01b0389811682528881166020830152918101879052606081018690529084169083907f50dec338711d35a3c4031888b5588efcddc7258d887b4087496cc6beaa97fd279060800160405180910390a3505062000d8160018055565b5050505050565b62000d92620018f3565b62000d9e600062001ace565b565b62000daa620018f3565b62000dea6040518060400160405280601e81526020017f0a4c697175696469747952616d703a3a736574506f6f6c4d616e6167657200008152506200185f565b6003546001600160a01b03161562000e15576040516308a6ef2360e31b815260040160405180910390fd5b600380546001600160a01b0319166001600160a01b0383161790556040805180820190915260048152637365742160e01b60208201526200045f906200185f565b60008062000e636200194f565b62000e87604051806060016040528060218152602001620048a7602191396200185f565b62000ebd60405180604001604052806012815260200171616d6f756e744c70546f6b656e733a20256960701b8152508562001b1e565b62000f4c6040518060600160405280602481526020016200491f602491396040516370a0823160e01b81523060048201526001600160a01b038816906370a0823190602401602060405180830381865afa15801562000f20573d6000803e3d6000fd5b505050506040513d601f19601f8201168201806040525081019062000f46919062001d4e565b62001b1e565b8360000362000f6e576040516319d1f64360e21b815260040160405180910390fd5b6040516370a0823160e01b81523060048201526001600160a01b038616906370a0823190602401602060405180830381865afa15801562000fb3573d6000803e3d6000fd5b505050506040513d601f19601f8201168201806040525081019062000fd9919062001d4e565b84111562000ffa576040516350a4355f60e11b815260040160405180910390fd5b6000600360009054906101000a90046001600160a01b03166001600160a01b0316638ae93f0b876001600160a01b03166375f4f18e6040518163ffffffff1660e01b8152600401602060405180830381865afa1580156200105f573d6000803e3d6000fd5b505050506040513d601f19601f8201168201806040525081019062001085919062001d68565b886001600160a01b031663c451463b6040518163ffffffff1660e01b8152600401602060405180830381865afa158015620010c4573d6000803e3d6000fd5b505050506040513d601f19601f82011682018060405250810190620010ea919062001d68565b6040516001600160e01b031960e085901b1681526001600160a01b03928316600482015291166024820152604401602060405180830381865afa15801562001136573d6000803e3d6000fd5b505050506040513d601f19601f820116820180604052508101906200115c919062001d4e565b9050856001600160a01b03166318160ddd6040518163ffffffff1660e01b8152600401602060405180830381865afa1580156200119d573d6000803e3d6000fd5b505050506040513d601f19601f82011682018060405250810190620011c3919062001d4e565b600260009054906101000a90046001600160a01b03166001600160a01b0316635496696b83896001600160a01b03166375f4f18e6040518163ffffffff1660e01b8152600401602060405180830381865afa15801562001227573d6000803e3d6000fd5b505050506040513d601f19601f820116820180604052508101906200124d919062001d68565b6040516001600160e01b031960e085901b16815260048101929092526001600160a01b03166024820152604401602060405180830381865afa15801562001298573d6000803e3d6000fd5b505050506040513d601f19601f82011682018060405250810190620012be919062001d4e565b620012ca908762001d9e565b620012d6919062001de4565b9250856001600160a01b03166318160ddd6040518163ffffffff1660e01b8152600401602060405180830381865afa15801562001317573d6000803e3d6000fd5b505050506040513d601f19601f820116820180604052508101906200133d919062001d4e565b600260009054906101000a90046001600160a01b03166001600160a01b0316635496696b83896001600160a01b031663c451463b6040518163ffffffff1660e01b8152600401602060405180830381865afa158015620013a1573d6000803e3d6000fd5b505050506040513d601f19601f82011682018060405250810190620013c7919062001d68565b6040516001600160e01b031960e085901b16815260048101929092526001600160a01b03166024820152604401602060405180830381865afa15801562001412573d6000803e3d6000fd5b505050506040513d601f19601f8201168201806040525081019062001438919062001d4e565b62001444908762001d9e565b62001450919062001de4565b604051630852cd8d60e31b8152600481018790529092506001600160a01b038716906342966c6890602401600060405180830381600087803b1580156200149657600080fd5b505af1158015620014ab573d6000803e3d6000fd5b50505050600260009054906101000a90046001600160a01b03166001600160a01b031663a318c1a482886001600160a01b03166375f4f18e6040518163ffffffff1660e01b8152600401602060405180830381865afa15801562001513573d6000803e3d6000fd5b505050506040513d601f19601f8201168201806040525081019062001539919062001d68565b6040516001600160e01b031960e085901b16815260048101929092526001600160a01b0390811660248301528716604482015260648101869052608401600060405180830381600087803b1580156200159157600080fd5b505af1158015620015a6573d6000803e3d6000fd5b50505050600260009054906101000a90046001600160a01b03166001600160a01b031663a318c1a482886001600160a01b031663c451463b6040518163ffffffff1660e01b8152600401602060405180830381865afa1580156200160e573d6000803e3d6000fd5b505050506040513d601f19601f8201168201806040525081019062001634919062001d68565b6040516001600160e01b031960e085901b16815260048101929092526001600160a01b0390811660248301528716604482015260648101859052608401600060405180830381600087803b1580156200168c57600080fd5b505af1158015620016a1573d6000803e3d6000fd5b50505050836001600160a01b0316817f1b849ae1f9bad1660570e51a3f0528fb6a14d22b574ac4239eb907acde88df4b886001600160a01b03166375f4f18e6040518163ffffffff1660e01b8152600401602060405180830381865afa15801562001710573d6000803e3d6000fd5b505050506040513d601f19601f8201168201806040525081019062001736919062001d68565b896001600160a01b031663c451463b6040518163ffffffff1660e01b8152600401602060405180830381865afa15801562001775573d6000803e3d6000fd5b505050506040513d601f19601f820116820180604052508101906200179b919062001d68565b604080516001600160a01b03938416815292909116602083015281018790526060810186905260800160405180910390a350620017d760018055565b935093915050565b620017e9620018f3565b6001600160a01b038116620018545760405162461bcd60e51b815260206004820152602660248201527f4f776e61626c653a206e6577206f776e657220697320746865207a65726f206160448201526564647265737360d01b60648201526084015b60405180910390fd5b6200045f8162001ace565b6200045f8160405160240162001876919062001e4f565b60408051601f198184030181529190526020810180516001600160e01b031663104c13eb60e21b17905262001b62565b620018ef8282604051602401620018bf92919062001e64565b60408051601f198184030181529190526020810180516001600160e01b031663319af33360e01b17905262001b62565b5050565b6000546001600160a01b0316331462000d9e5760405162461bcd60e51b815260206004820181905260248201527f4f776e61626c653a2063616c6c6572206973206e6f7420746865206f776e657260448201526064016200184b565b600260015403620019a35760405162461bcd60e51b815260206004820152601f60248201527f5265656e7472616e637947756172643a207265656e7472616e742063616c6c0060448201526064016200184b565b6002600155565b600081600003620019bd57506000919050565b60006001620019cc8462001b83565b901c6001901b90506001818481620019e857620019e862001dce565b048201901c9050600181848162001a035762001a0362001dce565b048201901c9050600181848162001a1e5762001a1e62001dce565b048201901c9050600181848162001a395762001a3962001dce565b048201901c9050600181848162001a545762001a5462001dce565b048201901c9050600181848162001a6f5762001a6f62001dce565b048201901c9050600181848162001a8a5762001a8a62001dce565b048201901c905062001aaf8182858162001aa85762001aa862001dce565b0462001ab6565b9392505050565b600081831062001ac7578162001aaf565b5090919050565b600080546001600160a01b038381166001600160a01b0319831681178455604051919092169283917f8be0079c531659141344cd1fd0a4f28419497f9722a3daafe3b4186f6b6457e09190a35050565b620018ef828260405160240162001b3792919062001e90565b60408051601f198184030181529190526020810180516001600160e01b03166309710a9d60e41b1790525b80516a636f6e736f6c652e6c6f67602083016000808483855afa5050505050565b600080608083901c1562001b9957608092831c92015b604083901c1562001bac57604092831c92015b602083901c1562001bbf57602092831c92015b601083901c1562001bd257601092831c92015b600883901c1562001be557600892831c92015b600483901c1562001bf857600492831c92015b600283901c1562001c0b57600292831c92015b600183901c15620003a45760010192915050565b6129f28062001eb583390190565b6001600160a01b03811681146200045f57600080fd5b6000806040838503121562001c5757600080fd5b823562001c648162001c2d565b9150602083013562001c768162001c2d565b809150509250929050565b60006020828403121562001c9457600080fd5b813562001aaf8162001c2d565b600080600080600060a0868803121562001cba57600080fd5b853562001cc78162001c2d565b9450602086013562001cd98162001c2d565b93506040860135925060608601359150608086013562001cf98162001c2d565b809150509295509295909350565b60008060006060848603121562001d1d57600080fd5b833562001d2a8162001c2d565b925060208401359150604084013562001d438162001c2d565b809150509250925092565b60006020828403121562001d6157600080fd5b5051919050565b60006020828403121562001d7b57600080fd5b815162001aaf8162001c2d565b634e487b7160e01b600052601160045260246000fd5b8082028115828204841417620003a457620003a462001d88565b81810381811115620003a457620003a462001d88565b634e487b7160e01b600052601260045260246000fd5b60008262001e0257634e487b7160e01b600052601260045260246000fd5b500490565b6000815180845260005b8181101562001e2f5760208185018101518683018201520162001e11565b506000602082860101526020601f19601f83011685010191505092915050565b60208152600062001aaf602083018462001e07565b60408152600062001e79604083018562001e07565b905060018060a01b03831660208301529392505050565b60408152600062001ea5604083018562001e07565b9050826020830152939250505056fe6101e06040523480156200001257600080fd5b50604051620029f2380380620029f2833981016040819052620000359162000263565b6040518060400160405280601181526020017029ba30b4b93bb0bc902628102a37b5b2b760791b81525080604051806040016040528060018152602001603160f81b8152506040518060400160405280601181526020017029ba30b4b93bb0bc902628102a37b5b2b760791b8152506040518060400160405280600681526020016505357592d4c560d41b8152508160039081620000d4919062000370565b506004620000e3828262000370565b50620000f591508390506005620001c5565b6101205262000106816006620001c5565b61014052815160208084019190912060e052815190820120610100524660a0526200019460e05161010051604080517f8b73c3c69bb8fe3d512ecc4cf759cc79239f7b179b0ffacaa9a75d522b39400f60208201529081019290925260608201524660808201523060a082015260009060c00160405160208183030381529060405280519060200120905090565b60805250503060c052506001600160a01b039384166101a0529183166101c0528216610160521661018052620004b1565b6000602083511015620001e557620001dd83620001fe565b9050620001f8565b81620001f2848262000370565b5060ff90505b92915050565b600080829050601f8151111562000235578260405163305a27a960e01b81526004016200022c91906200043c565b60405180910390fd5b805162000242826200048c565b179392505050565b6001600160a01b03811681146200026057600080fd5b50565b600080600080608085870312156200027a57600080fd5b845162000287816200024a565b60208601519094506200029a816200024a565b6040860151909350620002ad816200024a565b6060860151909250620002c0816200024a565b939692955090935050565b634e487b7160e01b600052604160045260246000fd5b600181811c90821680620002f657607f821691505b6020821081036200031757634e487b7160e01b600052602260045260246000fd5b50919050565b601f8211156200036b57600081815260208120601f850160051c81016020861015620003465750805b601f850160051c820191505b81811015620003675782815560010162000352565b5050505b505050565b81516001600160401b038111156200038c576200038c620002cb565b620003a4816200039d8454620002e1565b846200031d565b602080601f831160018114620003dc5760008415620003c35750858301515b600019600386901b1c1916600185901b17855562000367565b600085815260208120601f198616915b828110156200040d57888601518255948401946001909101908401620003ec565b50858210156200042c5787850151600019600388901b60f8161c191681555b5050505050600190811b01905550565b600060208083528351808285015260005b818110156200046b578581018301518582016040015282016200044d565b506000604082860101526040601f19601f8301168501019250505092915050565b80516020808301519190811015620003175760001960209190910360031b1b16919050565b60805160a05160c05160e05161010051610120516101405161016051610180516101a0516101c05161249062000562600039600081816104b101528181610644015261066a0152600081816103d60152818161060a01526106a401526000818161038601526107a70152600081816102f801526107db01526000610952015260006109270152600061129901526000611271015260006111cc015260006111f60152600061122001526124906000f3fe608060405234801561001057600080fd5b50600436106101f05760003560e01c8063709d039d1161010f5780639ab24eb0116100a2578063c451463b11610071578063c451463b146104ac578063d505accf146104d3578063dd62ed3e146104e6578063f1127ed8146104f957600080fd5b80639ab24eb014610460578063a457c2d714610473578063a9059cbb14610486578063c3cda5201461049957600080fd5b806384b0196e116100de57806384b0196e1461040b5780638e539e8c1461042657806391ddadf41461043957806395d89b411461045857600080fd5b8063709d039d1461038157806370a08231146103a857806375f4f18e146103d15780637ecebe00146103f857600080fd5b80633a46b1a8116101875780634dfd324e116101565780634dfd324e146102f3578063587cde1e1461031a5780635c19a95c146103465780636fcfff451461035957600080fd5b80633a46b1a8146102b057806340c10f19146102c357806342966c68146102d85780634bf5d7e9146102eb57600080fd5b8063302bb94d116101c3578063302bb94d1461025b578063313ce567146102865780633644e51514610295578063395093511461029d57600080fd5b806306fdde03146101f5578063095ea7b31461021357806318160ddd1461023657806323b872dd14610248575b600080fd5b6101fd610536565b60405161020a91906120d7565b60405180910390f35b6102266102213660046120ff565b6105c8565b604051901515815260200161020a565b6002545b60405190815260200161020a565b61022661025636600461212b565b6105e2565b61026e61026936600461216c565b610606565b6040516001600160a01b03909116815260200161020a565b6040516012815260200161020a565b61023a6106e1565b6102266102ab3660046120ff565b6106f0565b61023a6102be3660046120ff565b610712565b6102d66102d13660046120ff565b61079c565b005b6102d66102e6366004612189565b61082a565b6101fd610837565b61026e7f000000000000000000000000000000000000000000000000000000000000000081565b61026e61032836600461216c565b6001600160a01b039081166000908152600960205260409020541690565b6102d661035436600461216c565b6108cf565b61036c61036736600461216c565b6108d9565b60405163ffffffff909116815260200161020a565b61026e7f000000000000000000000000000000000000000000000000000000000000000081565b61023a6103b636600461216c565b6001600160a01b031660009081526020819052604090205490565b61026e7f000000000000000000000000000000000000000000000000000000000000000081565b61023a61040636600461216c565b6108fb565b610413610919565b60405161020a97969594939291906121a2565b61023a610434366004612189565b6109a2565b610441610a09565b60405165ffffffffffff909116815260200161020a565b6101fd610a14565b61023a61046e36600461216c565b610a23565b6102266104813660046120ff565b610aa5565b6102266104943660046120ff565b610b20565b6102d66104a736600461224e565b610b2e565b61026e7f000000000000000000000000000000000000000000000000000000000000000081565b6102d66104e13660046122a8565b610c64565b61023a6104f4366004612316565b610dc8565b61050c61050736600461234f565b610df3565b60408051825163ffffffff1681526020928301516001600160e01b0316928101929092520161020a565b60606003805461054590612386565b80601f016020809104026020016040519081016040528092919081815260200182805461057190612386565b80156105be5780601f10610593576101008083540402835291602001916105be565b820191906000526020600020905b8154815290600101906020018083116105a157829003601f168201915b5050505050905090565b6000336105d6818585610e77565b60019150505b92915050565b6000336105f0858285610f9b565b6105fb858585611015565b506001949350505050565b60007f00000000000000000000000000000000000000000000000000000000000000006001600160a01b0316826001600160a01b03160361066857507f0000000000000000000000000000000000000000000000000000000000000000919050565b7f00000000000000000000000000000000000000000000000000000000000000006001600160a01b0316826001600160a01b0316036106c857507f0000000000000000000000000000000000000000000000000000000000000000919050565b6040516303685ab360e61b815260040160405180910390fd5b60006106eb6111bf565b905090565b6000336105d68185856107038383610dc8565b61070d91906123d0565b610e77565b600061071c610a09565b65ffffffffffff1682106107735760405162461bcd60e51b815260206004820152601960248201527804552433230566f7465733a20667574757265206c6f6f6b757603c1b60448201526064015b60405180910390fd5b6001600160a01b0383166000908152600a6020526040902061079590836112ea565b9392505050565b336001600160a01b037f000000000000000000000000000000000000000000000000000000000000000016148015906107fe5750336001600160a01b037f00000000000000000000000000000000000000000000000000000000000000001614155b1561081c576040516312819b5160e21b815260040160405180910390fd5b61082682826113d3565b5050565b61083433826113dd565b50565b606043610842610a09565b65ffffffffffff16146108975760405162461bcd60e51b815260206004820152601d60248201527f4552433230566f7465733a2062726f6b656e20636c6f636b206d6f6465000000604482015260640161076a565b5060408051808201909152601d81527f6d6f64653d626c6f636b6e756d6265722666726f6d3d64656661756c74000000602082015290565b61083433826113e7565b6001600160a01b0381166000908152600a60205260408120546105dc90611460565b6001600160a01b0381166000908152600760205260408120546105dc565b60006060808280808361094d7f000000000000000000000000000000000000000000000000000000000000000060056114c9565b6109787f000000000000000000000000000000000000000000000000000000000000000060066114c9565b60408051600080825260208201909252600f60f81b9b939a50919850469750309650945092509050565b60006109ac610a09565b65ffffffffffff1682106109fe5760405162461bcd60e51b815260206004820152601960248201527804552433230566f7465733a20667574757265206c6f6f6b757603c1b604482015260640161076a565b6105dc600b836112ea565b60006106eb43611574565b60606004805461054590612386565b6001600160a01b0381166000908152600a60205260408120548015610a92576001600160a01b0383166000908152600a6020526040902080546000198301908110610a7057610a706123e3565b60009182526020909120015464010000000090046001600160e01b0316610a95565b60005b6001600160e01b03169392505050565b60003381610ab38286610dc8565b905083811015610b135760405162461bcd60e51b815260206004820152602560248201527f45524332303a2064656372656173656420616c6c6f77616e63652062656c6f77604482015264207a65726f60d81b606482015260840161076a565b6105fb8286868403610e77565b6000336105d6818585611015565b83421115610b7e5760405162461bcd60e51b815260206004820152601d60248201527f4552433230566f7465733a207369676e61747572652065787069726564000000604482015260640161076a565b604080517fe48329057bfd03d55e49b547132e39cffd9c1820ad7b9d4c5307691425d15adf60208201526001600160a01b038816918101919091526060810186905260808101859052600090610bf890610bf09060a001604051602081830303815290604052805190602001206115db565b858585611608565b9050610c0381611630565b8614610c515760405162461bcd60e51b815260206004820152601960248201527f4552433230566f7465733a20696e76616c6964206e6f6e636500000000000000604482015260640161076a565b610c5b81886113e7565b50505050505050565b83421115610cb45760405162461bcd60e51b815260206004820152601d60248201527f45524332305065726d69743a206578706972656420646561646c696e65000000604482015260640161076a565b60007f6e71edae12b1b97f4d1f60370fef10105fa2faae0126114a169c64845d6126c9888888610ce38c611630565b6040805160208101969096526001600160a01b0394851690860152929091166060840152608083015260a082015260c0810186905260e0016040516020818303038152906040528051906020012090506000610d3e826115db565b90506000610d4e82878787611608565b9050896001600160a01b0316816001600160a01b031614610db15760405162461bcd60e51b815260206004820152601e60248201527f45524332305065726d69743a20696e76616c6964207369676e61747572650000604482015260640161076a565b610dbc8a8a8a610e77565b50505050505050505050565b6001600160a01b03918216600090815260016020908152604080832093909416825291909152205490565b60408051808201909152600080825260208201526001600160a01b0383166000908152600a60205260409020805463ffffffff8416908110610e3757610e376123e3565b60009182526020918290206040805180820190915291015463ffffffff8116825264010000000090046001600160e01b0316918101919091529392505050565b6001600160a01b038316610ed95760405162461bcd60e51b8152602060048201526024808201527f45524332303a20617070726f76652066726f6d20746865207a65726f206164646044820152637265737360e01b606482015260840161076a565b6001600160a01b038216610f3a5760405162461bcd60e51b815260206004820152602260248201527f45524332303a20617070726f766520746f20746865207a65726f206164647265604482015261737360f01b606482015260840161076a565b6001600160a01b0383811660008181526001602090815260408083209487168084529482529182902085905590518481527f8c5be1e5ebec7d5bd14f71427d1e84f3dd0314c0f7b2291e5b200ac8c7c3b925910160405180910390a3505050565b6000610fa78484610dc8565b9050600019811461100f57818110156110025760405162461bcd60e51b815260206004820152601d60248201527f45524332303a20696e73756666696369656e7420616c6c6f77616e6365000000604482015260640161076a565b61100f8484848403610e77565b50505050565b6001600160a01b0383166110795760405162461bcd60e51b815260206004820152602560248201527f45524332303a207472616e736665722066726f6d20746865207a65726f206164604482015264647265737360d81b606482015260840161076a565b6001600160a01b0382166110db5760405162461bcd60e51b815260206004820152602360248201527f45524332303a207472616e7366657220746f20746865207a65726f206164647260448201526265737360e81b606482015260840161076a565b6001600160a01b038316600090815260208190526040902054818110156111535760405162461bcd60e51b815260206004820152602660248201527f45524332303a207472616e7366657220616d6f756e7420657863656564732062604482015265616c616e636560d01b606482015260840161076a565b6001600160a01b03848116600081815260208181526040808320878703905593871680835291849020805487019055925185815290927fddf252ad1be2c89b69c2b068fc378daa952ba7f163c4a11628f55a4df523b3ef910160405180910390a361100f84848461165d565b6000306001600160a01b037f00000000000000000000000000000000000000000000000000000000000000001614801561121857507f000000000000000000000000000000000000000000000000000000000000000046145b1561124257507f000000000000000000000000000000000000000000000000000000000000000090565b6106eb604080517f8b73c3c69bb8fe3d512ecc4cf759cc79239f7b179b0ffacaa9a75d522b39400f60208201527f0000000000000000000000000000000000000000000000000000000000000000918101919091527f000000000000000000000000000000000000000000000000000000000000000060608201524660808201523060a082015260009060c00160405160208183030381529060405280519060200120905090565b81546000908181600581111561134457600061130584611668565b61130f90856123f9565b600088815260209020909150869082015463ffffffff16111561133457809150611342565b61133f8160016123d0565b92505b505b808210156113915760006113588383611750565b600088815260209020909150869082015463ffffffff16111561137d5780915061138b565b6113888160016123d0565b92505b50611344565b80156113bd576000868152602090208101600019015464010000000090046001600160e01b03166113c0565b60005b6001600160e01b03169695505050505050565b610826828261176b565b61082682826117f5565b6001600160a01b038281166000818152600960208181526040808420805485845282862054949093528787166001600160a01b03198416811790915590519190951694919391928592917f3134e8a2e6d97e929a7e54011ea5485d7d196dd5f0ba4d4ef95803e8e3fc257f9190a461100f82848361180d565b600063ffffffff8211156114c55760405162461bcd60e51b815260206004820152602660248201527f53616665436173743a2076616c756520646f65736e27742066697420696e203360448201526532206269747360d01b606482015260840161076a565b5090565b606060ff83146114e3576114dc8361194a565b90506105dc565b8180546114ef90612386565b80601f016020809104026020016040519081016040528092919081815260200182805461151b90612386565b80156115685780601f1061153d57610100808354040283529160200191611568565b820191906000526020600020905b81548152906001019060200180831161154b57829003601f168201915b505050505090506105dc565b600065ffffffffffff8211156114c55760405162461bcd60e51b815260206004820152602660248201527f53616665436173743a2076616c756520646f65736e27742066697420696e203460448201526538206269747360d01b606482015260840161076a565b60006105dc6115e86111bf565b8360405161190160f01b8152600281019290925260228201526042902090565b600080600061161987878787611989565b9150915061162681611a4d565b5095945050505050565b6001600160a01b03811660009081526007602052604090208054600181018255905b50919050565b505050565b611658838383611b97565b60008160000361167a57506000919050565b6000600161168784611bc9565b901c6001901b905060018184816116a0576116a061240c565b048201901c905060018184816116b8576116b861240c565b048201901c905060018184816116d0576116d061240c565b048201901c905060018184816116e8576116e861240c565b048201901c905060018184816117005761170061240c565b048201901c905060018184816117185761171861240c565b048201901c905060018184816117305761173061240c565b048201901c90506107958182858161174a5761174a61240c565b04611c5d565b600061175f6002848418612422565b610795908484166123d0565b6117758282611c73565b6002546001600160e01b0310156117e75760405162461bcd60e51b815260206004820152603060248201527f4552433230566f7465733a20746f74616c20737570706c79207269736b73206f60448201526f766572666c6f77696e6720766f74657360801b606482015260840161076a565b61100f600b611d3a83611d46565b6117ff8282611ebb565b61100f600b611ff483611d46565b816001600160a01b0316836001600160a01b03161415801561182f5750600081115b15611658576001600160a01b038316156118bd576001600160a01b0383166000908152600a60205260408120819061186a90611ff485611d46565b91509150846001600160a01b03167fdec2bacdd2f05b59de34da9b523dff8be42e5e38e818c82fdb0bae774387a72483836040516118b2929190918252602082015260400190565b60405180910390a250505b6001600160a01b03821615611658576001600160a01b0382166000908152600a6020526040812081906118f390611d3a85611d46565b91509150836001600160a01b03167fdec2bacdd2f05b59de34da9b523dff8be42e5e38e818c82fdb0bae774387a724838360405161193b929190918252602082015260400190565b60405180910390a25050505050565b6060600061195783612000565b604080516020808252818301909252919250600091906020820181803683375050509182525060208101929092525090565b6000807f7fffffffffffffffffffffffffffffff5d576e7357a4501ddfe92f46681b20a08311156119c05750600090506003611a44565b6040805160008082526020820180845289905260ff881692820192909252606081018690526080810185905260019060a0016020604051602081039080840390855afa158015611a14573d6000803e3d6000fd5b5050604051601f1901519150506001600160a01b038116611a3d57600060019250925050611a44565b9150600090505b94509492505050565b6000816004811115611a6157611a61612444565b03611a695750565b6001816004811115611a7d57611a7d612444565b03611aca5760405162461bcd60e51b815260206004820152601860248201527f45434453413a20696e76616c6964207369676e61747572650000000000000000604482015260640161076a565b6002816004811115611ade57611ade612444565b03611b2b5760405162461bcd60e51b815260206004820152601f60248201527f45434453413a20696e76616c6964207369676e6174757265206c656e67746800604482015260640161076a565b6003816004811115611b3f57611b3f612444565b036108345760405162461bcd60e51b815260206004820152602260248201527f45434453413a20696e76616c6964207369676e6174757265202773272076616c604482015261756560f01b606482015260840161076a565b6001600160a01b038381166000908152600960205260408082205485841683529120546116589291821691168361180d565b600080608083901c15611bde57608092831c92015b604083901c15611bf057604092831c92015b602083901c15611c0257602092831c92015b601083901c15611c1457601092831c92015b600883901c15611c2657600892831c92015b600483901c15611c3857600492831c92015b600283901c15611c4a57600292831c92015b600183901c156105dc5760010192915050565b6000818310611c6c5781610795565b5090919050565b6001600160a01b038216611cc95760405162461bcd60e51b815260206004820152601f60248201527f45524332303a206d696e7420746f20746865207a65726f206164647265737300604482015260640161076a565b8060026000828254611cdb91906123d0565b90915550506001600160a01b038216600081815260208181526040808320805486019055518481527fddf252ad1be2c89b69c2b068fc378daa952ba7f163c4a11628f55a4df523b3ef910160405180910390a36108266000838361165d565b600061079582846123d0565b82546000908190818115611d935760008781526020902082016000190160408051808201909152905463ffffffff8116825264010000000090046001600160e01b03166020820152611da8565b60408051808201909152600080825260208201525b905080602001516001600160e01b03169350611dc884868863ffffffff16565b9250600082118015611df25750611ddd610a09565b65ffffffffffff16816000015163ffffffff16145b15611e3757611e0083612028565b60008881526020902083016000190180546001600160e01b03929092166401000000000263ffffffff909216919091179055611eb1565b866040518060400160405280611e5b611e4e610a09565b65ffffffffffff16611460565b63ffffffff168152602001611e6f86612028565b6001600160e01b0390811690915282546001810184556000938452602093849020835194909301519091166401000000000263ffffffff909316929092179101555b5050935093915050565b6001600160a01b038216611f1b5760405162461bcd60e51b815260206004820152602160248201527f45524332303a206275726e2066726f6d20746865207a65726f206164647265736044820152607360f81b606482015260840161076a565b6001600160a01b03821660009081526020819052604090205481811015611f8f5760405162461bcd60e51b815260206004820152602260248201527f45524332303a206275726e20616d6f756e7420657863656564732062616c616e604482015261636560f01b606482015260840161076a565b6001600160a01b0383166000818152602081815260408083208686039055600280548790039055518581529192917fddf252ad1be2c89b69c2b068fc378daa952ba7f163c4a11628f55a4df523b3ef910160405180910390a36116588360008461165d565b600061079582846123f9565b600060ff8216601f8111156105dc57604051632cd44ac360e21b815260040160405180910390fd5b60006001600160e01b038211156114c55760405162461bcd60e51b815260206004820152602760248201527f53616665436173743a2076616c756520646f65736e27742066697420696e20326044820152663234206269747360c81b606482015260840161076a565b6000815180845260005b818110156120b75760208185018101518683018201520161209b565b506000602082860101526020601f19601f83011685010191505092915050565b6020815260006107956020830184612091565b6001600160a01b038116811461083457600080fd5b6000806040838503121561211257600080fd5b823561211d816120ea565b946020939093013593505050565b60008060006060848603121561214057600080fd5b833561214b816120ea565b9250602084013561215b816120ea565b929592945050506040919091013590565b60006020828403121561217e57600080fd5b8135610795816120ea565b60006020828403121561219b57600080fd5b5035919050565b60ff60f81b881681526000602060e0818401526121c260e084018a612091565b83810360408501526121d4818a612091565b606085018990526001600160a01b038816608086015260a0850187905284810360c0860152855180825283870192509083019060005b818110156122265783518352928401929184019160010161220a565b50909c9b505050505050505050505050565b803560ff8116811461224957600080fd5b919050565b60008060008060008060c0878903121561226757600080fd5b8635612272816120ea565b9550602087013594506040870135935061228e60608801612238565b92506080870135915060a087013590509295509295509295565b600080600080600080600060e0888a0312156122c357600080fd5b87356122ce816120ea565b965060208801356122de816120ea565b955060408801359450606088013593506122fa60808901612238565b925060a0880135915060c0880135905092959891949750929550565b6000806040838503121561232957600080fd5b8235612334816120ea565b91506020830135612344816120ea565b809150509250929050565b6000806040838503121561236257600080fd5b823561236d816120ea565b9150602083013563ffffffff8116811461234457600080fd5b600181811c9082168061239a57607f821691505b60208210810361165257634e487b7160e01b600052602260045260246000fd5b634e487b7160e01b600052601160045260246000fd5b808201808211156105dc576105dc6123ba565b634e487b7160e01b600052603260045260246000fd5b818103818111156105dc576105dc6123ba565b634e487b7160e01b600052601260045260246000fd5b60008261243f57634e487b7160e01b600052601260045260246000fd5b500490565b634e487b7160e01b600052602160045260246000fdfea26469706673582212206ea25c507ade8178b5aa71ea74ab4fb4e306110ccf455f9df72bec2f7732dbcc64736f6c634300081300330a4c697175696469747952616d703a3a72656465656d4c697175696469747928296c70546f6b656e2e6d696e742870726f76696465722c20746f4d696e74202d204d494e5f4c4951554944495459296c70546f6b656e2e6d696e7428444541445f414444524553532c204d494e5f4c4951554944495459296c70546f6b656e2e62616c616e63654f662861646472657373287468697329293a202569656d6974204c6971756964697479416464656428706f6f6c4964782c2070726f76696465722c20746f6b656e412c20746f6b656e422c20616d6f756e74412c20616d6f756e7442290a4c697175696469747952616d703a3a7365744c69717569646974794d616e61676572a26469706673582212203ac774e0e68cc145cf805982f84cf03fa2ae3cb3ebdb9e49afe03d3a1da558ee64736f6c63430008130033",
    "linkReferences": {}
  },
  "methodIdentifiers": {
    "addLiquidity(address,address,uint256,uint256,address)": "4b2fc7bb",
    "createLpToken(address,address)": "09ee07c4",
    "liquidityManager()": "33827438",
    "owner()": "8da5cb5b",
    "poolManager()": "dc4c90d3",
    "redeemLiquidity(address,uint256,address)": "e5f415c9",
    "renounceOwnership()": "715018a6",
    "setLiquidityManager(address)": "3c1624d4",
    "setPoolManager(address)": "7aef6715",
    "setSwapManager(address)": "30284efc",
    "swapManager()": "709d039d",
    "transferOwnership(address)": "f2fde38b"
  },
  "id": 72
}