{
  "abi": [
    {
      "inputs": [],
      "name": "LiquidityManager__BlockNumberExceeds32Bits",
      "type": "error"
    },
    {
      "inputs": [],
      "name": "LiquidityManager__InsufficientLiquidity",
      "type": "error"
    },
    {
      "inputs": [],
      "name": "LiquidityManager__SingleTransactionLimitExceeded",
      "type": "error"
    },
    {
      "inputs": [],
      "name": "LiquidityManager__Unauthorized",
      "type": "error"
    },
    {
      "anonymous": false,
      "inputs": [
        {
          "indexed": true,
          "internalType": "address",
          "name": "previousOwner",
          "type": "address"
        },
        {
          "indexed": true,
          "internalType": "address",
          "name": "newOwner",
          "type": "address"
        }
      ],
      "name": "OwnershipTransferred",
      "type": "event"
    },
    {
      "inputs": [
        {
          "internalType": "uint256",
          "name": "index",
          "type": "uint256"
        }
      ],
      "name": "calculateIndexCapacity",
      "outputs": [
        {
          "internalType": "uint256",
          "name": "capacity",
          "type": "uint256"
        }
      ],
      "stateMutability": "pure",
      "type": "function"
    },
    {
      "inputs": [],
      "name": "clusterRegistry",
      "outputs": [
        {
          "internalType": "contract IClusterRegistry",
          "name": "",
          "type": "address"
        }
      ],
      "stateMutability": "view",
      "type": "function"
    },
    {
      "inputs": [
        {
          "internalType": "contract IERC20",
          "name": "",
          "type": "address"
        }
      ],
      "name": "currentClusters",
      "outputs": [
        {
          "internalType": "uint256",
          "name": "",
          "type": "uint256"
        }
      ],
      "stateMutability": "view",
      "type": "function"
    },
    {
      "inputs": [
        {
          "internalType": "uint256",
          "name": "poolIdx",
          "type": "uint256"
        },
        {
          "internalType": "contract IERC20",
          "name": "token",
          "type": "address"
        },
        {
          "internalType": "uint256",
          "name": "amount",
          "type": "uint256"
        }
      ],
      "name": "distributeToClusters",
      "outputs": [],
      "stateMutability": "nonpayable",
      "type": "function"
    },
    {
      "inputs": [
        {
          "internalType": "uint256",
          "name": "poolIdx",
          "type": "uint256"
        },
        {
          "internalType": "contract IERC20",
          "name": "token",
          "type": "address"
        },
        {
          "internalType": "uint256",
          "name": "blockNumber",
          "type": "uint256"
        }
      ],
      "name": "getPastPoolTokenBalance",
      "outputs": [
        {
          "internalType": "uint256",
          "name": "",
          "type": "uint256"
        }
      ],
      "stateMutability": "view",
      "type": "function"
    },
    {
      "inputs": [],
      "name": "liquidityRamp",
      "outputs": [
        {
          "internalType": "contract ILiquidityRamp",
          "name": "",
          "type": "address"
        }
      ],
      "stateMutability": "view",
      "type": "function"
    },
    {
      "inputs": [],
      "name": "owner",
      "outputs": [
        {
          "internalType": "address",
          "name": "",
          "type": "address"
        }
      ],
      "stateMutability": "view",
      "type": "function"
    },
    {
      "inputs": [
        {
          "internalType": "uint256",
          "name": "",
          "type": "uint256"
        },
        {
          "internalType": "contract IERC20",
          "name": "",
          "type": "address"
        },
        {
          "internalType": "uint256",
          "name": "",
          "type": "uint256"
        }
      ],
      "name": "poolTokenBalanceSnapshots",
      "outputs": [
        {
          "internalType": "uint32",
          "name": "fromBlock",
          "type": "uint32"
        },
        {
          "internalType": "uint256",
          "name": "value",
          "type": "uint256"
        }
      ],
      "stateMutability": "view",
      "type": "function"
    },
    {
      "inputs": [
        {
          "internalType": "uint256",
          "name": "",
          "type": "uint256"
        },
        {
          "internalType": "contract IERC20",
          "name": "",
          "type": "address"
        }
      ],
      "name": "poolTokenBalances",
      "outputs": [
        {
          "internalType": "uint256",
          "name": "",
          "type": "uint256"
        }
      ],
      "stateMutability": "view",
      "type": "function"
    },
    {
      "inputs": [],
      "name": "renounceOwnership",
      "outputs": [],
      "stateMutability": "nonpayable",
      "type": "function"
    },
    {
      "inputs": [
        {
          "internalType": "contract IClusterRegistry",
          "name": "_clusterRegistry",
          "type": "address"
        }
      ],
      "name": "setClusterRegistry",
      "outputs": [],
      "stateMutability": "nonpayable",
      "type": "function"
    },
    {
      "inputs": [
        {
          "internalType": "contract ILiquidityRamp",
          "name": "_liquidityRamp",
          "type": "address"
        }
      ],
      "name": "setLiquidityRamp",
      "outputs": [],
      "stateMutability": "nonpayable",
      "type": "function"
    },
    {
      "inputs": [
        {
          "internalType": "contract ISwapManager",
          "name": "_swapManager",
          "type": "address"
        }
      ],
      "name": "setSwapManager",
      "outputs": [],
      "stateMutability": "nonpayable",
      "type": "function"
    },
    {
      "inputs": [
        {
          "internalType": "contract IERC20",
          "name": "token",
          "type": "address"
        }
      ],
      "name": "singleTransactionDepositLimit",
      "outputs": [
        {
          "internalType": "uint256",
          "name": "limit",
          "type": "uint256"
        }
      ],
      "stateMutability": "view",
      "type": "function"
    },
    {
      "inputs": [
        {
          "internalType": "contract IERC20",
          "name": "token",
          "type": "address"
        }
      ],
      "name": "singleTransactionWithdrawalLimit",
      "outputs": [
        {
          "internalType": "uint256",
          "name": "limit",
          "type": "uint256"
        }
      ],
      "stateMutability": "view",
      "type": "function"
    },
    {
      "inputs": [],
      "name": "swapManager",
      "outputs": [
        {
          "internalType": "contract ISwapManager",
          "name": "",
          "type": "address"
        }
      ],
      "stateMutability": "view",
      "type": "function"
    },
    {
      "inputs": [
        {
          "internalType": "contract IERC20",
          "name": "",
          "type": "address"
        }
      ],
      "name": "tokenBalances",
      "outputs": [
        {
          "internalType": "uint256",
          "name": "",
          "type": "uint256"
        }
      ],
      "stateMutability": "view",
      "type": "function"
    },
    {
      "inputs": [
        {
          "internalType": "address",
          "name": "newOwner",
          "type": "address"
        }
      ],
      "name": "transferOwnership",
      "outputs": [],
      "stateMutability": "nonpayable",
      "type": "function"
    },
    {
      "inputs": [
        {
          "internalType": "uint256",
          "name": "poolIdx",
          "type": "uint256"
        },
        {
          "internalType": "contract IERC20",
          "name": "token",
          "type": "address"
        },
        {
          "internalType": "address",
          "name": "to",
          "type": "address"
        },
        {
          "internalType": "uint256",
          "name": "amount",
          "type": "uint256"
        }
      ],
      "name": "withdraw",
      "outputs": [],
      "stateMutability": "nonpayable",
      "type": "function"
    }
  ],
  "bytecode": {
    "object": "0x608060405234801561001057600080fd5b5061001a3361001f565b61006f565b600080546001600160a01b038381166001600160a01b0319831681178455604051919092169283917f8be0079c531659141344cd1fd0a4f28419497f9722a3daafe3b4186f6b6457e09190a35050565b611dc48061007e6000396000f3fe608060405234801561001057600080fd5b50600436106101215760003560e01c806367e45cf2116100ad578063a318c1a411610071578063a318c1a414610291578063afe3b8d9146102a4578063ccc0c8a1146102b7578063f2fde38b146102d7578063fb699316146102ea57600080fd5b806367e45cf21461023f5780636e6746a414610252578063709d039d14610265578063715018a6146102785780638da5cb5b1461028057600080fd5b80633394c740116100f45780633394c740146101955780634dfd324e146101b6578063523fba7f146101e15780635496696b14610201578063591409fa1461022c57600080fd5b80630ddfb51c1461012657806311d72c2b1461013b57806323bae8a71461016f57806330284efc14610182575b600080fd5b610139610134366004611b90565b6102fd565b005b61014e610149366004611bad565b610351565b6040805163ffffffff90931683526020830191909152015b60405180910390f35b61013961017d366004611b90565b6103a2565b610139610190366004611b90565b6103f6565b6101a86101a3366004611bad565b61044a565b604051908152602001610166565b6002546101c9906001600160a01b031681565b6040516001600160a01b039091168152602001610166565b6101a86101ef366004611b90565b60046020526000908152604090205481565b6101a861020f366004611be5565b600560209081526000928352604080842090915290825290205481565b6101a861023a366004611b90565b61063e565b6101a861024d366004611b90565b610809565b6101a8610260366004611c15565b6109cb565b6003546101c9906001600160a01b031681565b610139610a9b565b6000546001600160a01b03166101c9565b61013961029f366004611c2e565b610aaf565b6001546101c9906001600160a01b031681565b6101a86102c5366004611b90565b60076020526000908152604090205481565b6101396102e5366004611b90565b610fe1565b6101396102f8366004611bad565b61105f565b610305611aa6565b6001546001600160a01b03161561032f576040516334bb764760e01b815260040160405180910390fd5b600180546001600160a01b0319166001600160a01b0392909216919091179055565b6006602052826000526040600020602052816000526040600020818154811061037957600080fd5b60009182526020909120600290910201805460019091015463ffffffff90911693509150839050565b6103aa611aa6565b6002546001600160a01b0316156103d4576040516334bb764760e01b815260040160405180910390fd5b600280546001600160a01b0319166001600160a01b0392909216919091179055565b6103fe611aa6565b6003546001600160a01b031615610428576040516334bb764760e01b815260040160405180910390fd5b600380546001600160a01b0319166001600160a01b0392909216919091179055565b60004382111561046d57604051639b4dbcab60e01b815260040160405180910390fd5b60008481526006602090815260408083206001600160a01b03871684529091529020805415806104d457508054839082906104aa90600190611c8c565b815481106104ba576104ba611c9f565b600091825260209091206002909102015463ffffffff1611155b1561050357505060008381526005602090815260408083206001600160a01b0386168452909152902054610637565b828160008154811061051757610517611c9f565b600091825260209091206002909102015463ffffffff16111561053e576000915050610637565b8054600090819061055190600190611c8c565b90505b8181111561060d576000600261056a8484611cb5565b610575906001611cb5565b61057f9190611cde565b9050600084828154811061059557610595611c9f565b600091825260209182902060408051808201909152600290920201805463ffffffff168083526001909101549282019290925291508790036105e1576020015194506106379350505050565b805163ffffffff168711156105f857819350610606565b610603600183611c8c565b92505b5050610554565b82828154811061061f5761061f611c9f565b90600052602060002090600202016001015493505050505b9392505050565b6040516309ab24eb60e41b8152600060048201819052906001600160a01b03831690639ab24eb090602401602060405180830381865afa9250505080156106a2575060408051601f3d908101601f1916820190925261069f91810190611cf2565b60015b6106c557506001600160a01b0381166000908152600460205260409020546107cf565b506001600160a01b03828116600090815260076020526040808220546001549151630246540360e61b8152600481018290529093919091169063919500c090602401602060405180830381865afa158015610724573d6000803e3d6000fd5b505050506040513d601f19601f820116820180604052508101906107489190611d0b565b60405163523fba7f60e01b81526001600160a01b038681166004830152919091169063523fba7f90602401602060405180830381865afa158015610790573d6000803e3d6000fd5b505050506040513d601f19601f820116820180604052508101906107b49190611cf2565b9050806107c0836109cb565b6107ca9190611cb5565b925050505b806107e4670de0b6b3a7640000600019611cde565b106107ef5780610803565b610803670de0b6b3a7640000600019611cde565b92915050565b6040516309ab24eb60e41b8152600060048201819052906001600160a01b03831690639ab24eb090602401602060405180830381865afa92505050801561086d575060408051601f3d908101601f1916820190925261086a91810190611cf2565b60015b61089d576001600160a01b03821660009081526004602052604090205461089690600019611c8c565b90506107cf565b506001600160a01b03828116600090815260076020526040808220546001549151630246540360e61b8152600481018290529093919091169063919500c090602401602060405180830381865afa1580156108fc573d6000803e3d6000fd5b505050506040513d601f19601f820116820180604052508101906109209190611d0b565b60405163523fba7f60e01b81526001600160a01b038681166004830152919091169063523fba7f90602401602060405180830381865afa158015610968573d6000803e3d6000fd5b505050506040513d601f19601f8201168201806040525081019061098c9190611cf2565b90506102fb61099c604884611cb5565b116109b1576109ac604883611cb5565b6109b5565b6102fb5b9150806109c1836109cb565b6107ca9190611c8c565b6000806109d9600384611cde565b905060006109ea600180841b611c8c565b90506109f7816003611d28565b9250610a04600385611d3f565b610a11906001841b611d28565b610a1b9084611cb5565b92506048841115610a94576003610a33604886611c8c565b610a3d9190611cde565b9150610a4c600180841b611c8c565b90506003610a5b604886611c8c565b610a659190611d3f565b610a72906001841b611d28565b610a7d826003611d28565b610a879190611cb5565b610a919084611c8c565b92505b5050919050565b610aa3611aa6565b610aad6000611b00565b565b6003546001600160a01b03163314801590610ad557506002546001600160a01b03163314155b15610af3576040516334bb764760e01b815260040160405180910390fd5b60008481526005602090815260408083206001600160a01b0387168452909152902054811115610b36576040516312366dfd60e31b815260040160405180910390fd5b60008481526005602090815260408083206001600160a01b038716845290915281208054839290610b68908490611c8c565b90915550506001600160a01b03831660009081526004602052604081208054839290610b95908490611c8c565b90915550506040516309ab24eb60e41b8152600060048201526001600160a01b03841690639ab24eb090602401602060405180830381865afa925050508015610bfb575060408051601f3d908101601f19168201909252610bf891810190611cf2565b60015b610cdf57600154604051630246540360e61b81526102fb60048201526001600160a01b039091169063919500c090602401602060405180830381865afa158015610c49573d6000803e3d6000fd5b505050506040513d601f19601f82011682018060405250810190610c6d9190611d0b565b604051636ce5768960e11b81526001600160a01b038581166004830152848116602483015260448201849052919091169063d9caed12906064015b600060405180830381600087803b158015610cc257600080fd5b505af1158015610cd6573d6000803e3d6000fd5b50505050610fdb565b506001600160a01b038316600090815260076020526040812054905b600083118015610d0b5750604881105b15610f1457600154604051630246540360e61b8152600481018490526000916001600160a01b03169063919500c090602401602060405180830381865afa158015610d5a573d6000803e3d6000fd5b505050506040513d601f19601f82011682018060405250810190610d7e9190611d0b565b60405163523fba7f60e01b81526001600160a01b038881166004830152919091169063523fba7f90602401602060405180830381865afa158015610dc6573d6000803e3d6000fd5b505050506040513d601f19601f82011682018060405250810190610dea9190611cf2565b905080600003610e0757610dff600184611c8c565b925050610cfb565b6000848210610e165784610e18565b815b600154604051630246540360e61b8152600481018790529192506001600160a01b03169063919500c090602401602060405180830381865afa158015610e62573d6000803e3d6000fd5b505050506040513d601f19601f82011682018060405250810190610e869190611d0b565b604051636ce5768960e11b81526001600160a01b038981166004830152888116602483015260448201849052919091169063d9caed1290606401600060405180830381600087803b158015610eda57600080fd5b505af1158015610eee573d6000803e3d6000fd5b505050508085610efe9190611c8c565b945082610f0a81611d53565b9350505050610cfb565b8215610f3357604051635cdab33f60e11b815260040160405180910390fd5b6001600160a01b03851660008181526007602090815260408083208690558983526006825280832093835292905281902081518083019092529080610f7743611b50565b63ffffffff908116825260008a81526005602090815260408083206001600160a01b038d168452825282205493810193909352845460018082018755958252908390208451600290920201805463ffffffff19169190921617815591015191015550505b50505050565b610fe9611aa6565b6001600160a01b0381166110535760405162461bcd60e51b815260206004820152602660248201527f4f776e61626c653a206e6577206f776e657220697320746865207a65726f206160448201526564647265737360d01b60648201526084015b60405180910390fd5b61105c81611b00565b50565b6003546001600160a01b0316331480159061108557506002546001600160a01b03163314155b156110a3576040516334bb764760e01b815260040160405180910390fd5b6040516370a0823160e01b815230600482015281906001600160a01b038416906370a0823190602401602060405180830381865afa1580156110e9573d6000803e3d6000fd5b505050506040513d601f19601f8201168201806040525081019061110d9190611cf2565b101561112c576040516312366dfd60e31b815260040160405180910390fd5b6001600160a01b03821660009081526004602052604081208054839290611154908490611cb5565b909155505060008381526005602090815260408083206001600160a01b03861684529091528120805483929061118b908490611cb5565b90915550506001600160a01b0382166000818152600760205260408082205490516309ab24eb60e41b815260048101929092529190639ab24eb090602401602060405180830381865afa925050508015611202575060408051601f3d908101601f191682019092526111ff91810190611cf2565b60015b61139457600154604051630246540360e61b81526102fb60048201526001600160a01b038581169263095ea7b39291169063919500c090602401602060405180830381865afa158015611259573d6000803e3d6000fd5b505050506040513d601f19601f8201168201806040525081019061127d9190611d0b565b6040516001600160e01b031960e084901b1681526001600160a01b039091166004820152602481018590526044016020604051808303816000875af11580156112ca573d6000803e3d6000fd5b505050506040513d601f19601f820116820180604052508101906112ee9190611d6c565b50600154604051630246540360e61b81526102fb60048201526001600160a01b039091169063919500c090602401602060405180830381865afa158015611339573d6000803e3d6000fd5b505050506040513d601f19601f8201168201806040525081019061135d9190611d0b565b6040516311f9fbc960e21b81526001600160a01b0385811660048301526024820185905291909116906347e7ef2490604401610ca8565b5060005b6000831180156113a85750604881105b156119d957600154604051630246540360e61b8152600481018490526001600160a01b039091169063919500c090602401602060405180830381865afa1580156113f6573d6000803e3d6000fd5b505050506040513d601f19601f8201168201806040525081019061141a9190611d0b565b6040516382b5e88960e01b81526001600160a01b03868116600483015291909116906382b5e88990602401600060405180830381600087803b15801561145f57600080fd5b505af1158015611473573d6000803e3d6000fd5b5050600154604051630246540360e61b8152600481018690526001600160a01b03909116925063919500c09150602401602060405180830381865afa1580156114c0573d6000803e3d6000fd5b505050506040513d601f19601f820116820180604052508101906114e49190611d0b565b6001600160a01b03166359b6a0c96040518163ffffffff1660e01b8152600401602060405180830381865afa158015611521573d6000803e3d6000fd5b505050506040513d601f19601f820116820180604052508101906115459190611cf2565b600154604051630246540360e61b8152600481018590526001600160a01b039091169063919500c090602401602060405180830381865afa15801561158e573d6000803e3d6000fd5b505050506040513d601f19601f820116820180604052508101906115b29190611d0b565b60405163523fba7f60e01b81526001600160a01b038781166004830152919091169063523fba7f90602401602060405180830381865afa1580156115fa573d6000803e3d6000fd5b505050506040513d601f19601f8201168201806040525081019061161e9190611cf2565b106116355761162e600183611cb5565b9150611398565b600154604051630246540360e61b8152600481018490526000916001600160a01b03169063919500c090602401602060405180830381865afa15801561167f573d6000803e3d6000fd5b505050506040513d601f19601f820116820180604052508101906116a39190611d0b565b60405163523fba7f60e01b81526001600160a01b038781166004830152919091169063523fba7f90602401602060405180830381865afa1580156116eb573d6000803e3d6000fd5b505050506040513d601f19601f8201168201806040525081019061170f9190611cf2565b600154604051630246540360e61b8152600481018690526001600160a01b039091169063919500c090602401602060405180830381865afa158015611758573d6000803e3d6000fd5b505050506040513d601f19601f8201168201806040525081019061177c9190611d0b565b6001600160a01b03166359b6a0c96040518163ffffffff1660e01b8152600401602060405180830381865afa1580156117b9573d6000803e3d6000fd5b505050506040513d601f19601f820116820180604052508101906117dd9190611cf2565b6117e79190611c8c565b905060008482106117f857846117fa565b815b90506118068186611c8c565b600154604051630246540360e61b8152600481018790529196506001600160a01b038881169263095ea7b392919091169063919500c090602401602060405180830381865afa15801561185d573d6000803e3d6000fd5b505050506040513d601f19601f820116820180604052508101906118819190611d0b565b6040516001600160e01b031960e084901b1681526001600160a01b039091166004820152602481018490526044016020604051808303816000875af11580156118ce573d6000803e3d6000fd5b505050506040513d601f19601f820116820180604052508101906118f29190611d6c565b50600154604051630246540360e61b8152600481018690526001600160a01b039091169063919500c090602401602060405180830381865afa15801561193c573d6000803e3d6000fd5b505050506040513d601f19601f820116820180604052508101906119609190611d0b565b6040516311f9fbc960e21b81526001600160a01b0388811660048301526024820184905291909116906347e7ef2490604401600060405180830381600087803b1580156119ac57600080fd5b505af11580156119c0573d6000803e3d6000fd5b5050505082806119cf90611d53565b9350505050611398565b82156119f857604051635cdab33f60e11b815260040160405180910390fd5b6001600160a01b03841660008181526007602090815260408083208690558883526006825280832093835292905281902081518083019092529080611a3c43611b50565b63ffffffff908116825260008981526005602090815260408083206001600160a01b038c16845282528220549381019390935284546001818101875595825290839020845160029092020180549190921663ffffffff199091161781559101519101555050505050565b6000546001600160a01b03163314610aad5760405162461bcd60e51b815260206004820181905260248201527f4f776e61626c653a2063616c6c6572206973206e6f7420746865206f776e6572604482015260640161104a565b600080546001600160a01b038381166001600160a01b0319831681178455604051919092169283917f8be0079c531659141344cd1fd0a4f28419497f9722a3daafe3b4186f6b6457e09190a35050565b60006401000000008210611b7757604051639b4dbcab60e01b815260040160405180910390fd5b5090565b6001600160a01b038116811461105c57600080fd5b600060208284031215611ba257600080fd5b813561063781611b7b565b600080600060608486031215611bc257600080fd5b833592506020840135611bd481611b7b565b929592945050506040919091013590565b60008060408385031215611bf857600080fd5b823591506020830135611c0a81611b7b565b809150509250929050565b600060208284031215611c2757600080fd5b5035919050565b60008060008060808587031215611c4457600080fd5b843593506020850135611c5681611b7b565b92506040850135611c6681611b7b565b9396929550929360600135925050565b634e487b7160e01b600052601160045260246000fd5b8181038181111561080357610803611c76565b634e487b7160e01b600052603260045260246000fd5b8082018082111561080357610803611c76565b634e487b7160e01b600052601260045260246000fd5b600082611ced57611ced611cc8565b500490565b600060208284031215611d0457600080fd5b5051919050565b600060208284031215611d1d57600080fd5b815161063781611b7b565b808202811582820484141761080357610803611c76565b600082611d4e57611d4e611cc8565b500690565b600060018201611d6557611d65611c76565b5060010190565b600060208284031215611d7e57600080fd5b8151801515811461063757600080fdfea26469706673582212204ac3fb3ca1b66bd108a66e3d8d07d9aaa70f9507f3190b580f4789272f72037264736f6c63430008130033",
    "linkReferences": {}
  },
  "methodIdentifiers": {
    "calculateIndexCapacity(uint256)": "6e6746a4",
    "clusterRegistry()": "afe3b8d9",
    "currentClusters(address)": "ccc0c8a1",
    "distributeToClusters(uint256,address,uint256)": "fb699316",
    "getPastPoolTokenBalance(uint256,address,uint256)": "3394c740",
    "liquidityRamp()": "4dfd324e",
    "owner()": "8da5cb5b",
    "poolTokenBalanceSnapshots(uint256,address,uint256)": "11d72c2b",
    "poolTokenBalances(uint256,address)": "5496696b",
    "renounceOwnership()": "715018a6",
    "setClusterRegistry(address)": "0ddfb51c",
    "setLiquidityRamp(address)": "23bae8a7",
    "setSwapManager(address)": "30284efc",
    "singleTransactionDepositLimit(address)": "67e45cf2",
    "singleTransactionWithdrawalLimit(address)": "591409fa",
    "swapManager()": "709d039d",
    "tokenBalances(address)": "523fba7f",
    "transferOwnership(address)": "f2fde38b",
    "withdraw(uint256,address,address,uint256)": "a318c1a4"
  },
  "id": 70
}