{
  "abi": [
    {
      "inputs": [
        {
          "internalType": "contract IERC20",
          "name": "_thisToken",
          "type": "address"
        },
        {
          "internalType": "contract IERC20",
          "name": "_thatToken",
          "type": "address"
        },
        {
          "internalType": "contract ILiquidityRamp",
          "name": "_liquidityRamp",
          "type": "address"
        },
        {
          "internalType": "contract ISwapManager",
          "name": "_swapManager",
          "type": "address"
        }
      ],
      "stateMutability": "nonpayable",
      "type": "constructor"
    },
    {
      "inputs": [],
      "name": "InvalidShortString",
      "type": "error"
    },
    {
      "inputs": [],
      "name": "LPToken__Unauthorized",
      "type": "error"
    },
    {
      "inputs": [],
      "name": "LPToken__UnknownToken",
      "type": "error"
    },
    {
      "inputs": [
        {
          "internalType": "string",
          "name": "str",
          "type": "string"
        }
      ],
      "name": "StringTooLong",
      "type": "error"
    },
    {
      "anonymous": false,
      "inputs": [
        {
          "indexed": true,
          "internalType": "address",
          "name": "owner",
          "type": "address"
        },
        {
          "indexed": true,
          "internalType": "address",
          "name": "spender",
          "type": "address"
        },
        {
          "indexed": false,
          "internalType": "uint256",
          "name": "value",
          "type": "uint256"
        }
      ],
      "name": "Approval",
      "type": "event"
    },
    {
      "anonymous": false,
      "inputs": [
        {
          "indexed": true,
          "internalType": "address",
          "name": "delegator",
          "type": "address"
        },
        {
          "indexed": true,
          "internalType": "address",
          "name": "fromDelegate",
          "type": "address"
        },
        {
          "indexed": true,
          "internalType": "address",
          "name": "toDelegate",
          "type": "address"
        }
      ],
      "name": "DelegateChanged",
      "type": "event"
    },
    {
      "anonymous": false,
      "inputs": [
        {
          "indexed": true,
          "internalType": "address",
          "name": "delegate",
          "type": "address"
        },
        {
          "indexed": false,
          "internalType": "uint256",
          "name": "previousBalance",
          "type": "uint256"
        },
        {
          "indexed": false,
          "internalType": "uint256",
          "name": "newBalance",
          "type": "uint256"
        }
      ],
      "name": "DelegateVotesChanged",
      "type": "event"
    },
    {
      "anonymous": false,
      "inputs": [],
      "name": "EIP712DomainChanged",
      "type": "event"
    },
    {
      "anonymous": false,
      "inputs": [
        {
          "indexed": true,
          "internalType": "address",
          "name": "from",
          "type": "address"
        },
        {
          "indexed": true,
          "internalType": "address",
          "name": "to",
          "type": "address"
        },
        {
          "indexed": false,
          "internalType": "uint256",
          "name": "value",
          "type": "uint256"
        }
      ],
      "name": "Transfer",
      "type": "event"
    },
    {
      "inputs": [],
      "name": "CLOCK_MODE",
      "outputs": [
        {
          "internalType": "string",
          "name": "",
          "type": "string"
        }
      ],
      "stateMutability": "view",
      "type": "function"
    },
    {
      "inputs": [],
      "name": "DOMAIN_SEPARATOR",
      "outputs": [
        {
          "internalType": "bytes32",
          "name": "",
          "type": "bytes32"
        }
      ],
      "stateMutability": "view",
      "type": "function"
    },
    {
      "inputs": [
        {
          "internalType": "address",
          "name": "owner",
          "type": "address"
        },
        {
          "internalType": "address",
          "name": "spender",
          "type": "address"
        }
      ],
      "name": "allowance",
      "outputs": [
        {
          "internalType": "uint256",
          "name": "",
          "type": "uint256"
        }
      ],
      "stateMutability": "view",
      "type": "function"
    },
    {
      "inputs": [
        {
          "internalType": "address",
          "name": "spender",
          "type": "address"
        },
        {
          "internalType": "uint256",
          "name": "amount",
          "type": "uint256"
        }
      ],
      "name": "approve",
      "outputs": [
        {
          "internalType": "bool",
          "name": "",
          "type": "bool"
        }
      ],
      "stateMutability": "nonpayable",
      "type": "function"
    },
    {
      "inputs": [
        {
          "internalType": "address",
          "name": "account",
          "type": "address"
        }
      ],
      "name": "balanceOf",
      "outputs": [
        {
          "internalType": "uint256",
          "name": "",
          "type": "uint256"
        }
      ],
      "stateMutability": "view",
      "type": "function"
    },
    {
      "inputs": [
        {
          "internalType": "uint256",
          "name": "amount",
          "type": "uint256"
        }
      ],
      "name": "burn",
      "outputs": [],
      "stateMutability": "nonpayable",
      "type": "function"
    },
    {
      "inputs": [
        {
          "internalType": "address",
          "name": "account",
          "type": "address"
        },
        {
          "internalType": "uint32",
          "name": "pos",
          "type": "uint32"
        }
      ],
      "name": "checkpoints",
      "outputs": [
        {
          "components": [
            {
              "internalType": "uint32",
              "name": "fromBlock",
              "type": "uint32"
            },
            {
              "internalType": "uint224",
              "name": "votes",
              "type": "uint224"
            }
          ],
          "internalType": "struct ERC20Votes.Checkpoint",
          "name": "",
          "type": "tuple"
        }
      ],
      "stateMutability": "view",
      "type": "function"
    },
    {
      "inputs": [],
      "name": "clock",
      "outputs": [
        {
          "internalType": "uint48",
          "name": "",
          "type": "uint48"
        }
      ],
      "stateMutability": "view",
      "type": "function"
    },
    {
      "inputs": [],
      "name": "decimals",
      "outputs": [
        {
          "internalType": "uint8",
          "name": "",
          "type": "uint8"
        }
      ],
      "stateMutability": "view",
      "type": "function"
    },
    {
      "inputs": [
        {
          "internalType": "address",
          "name": "spender",
          "type": "address"
        },
        {
          "internalType": "uint256",
          "name": "subtractedValue",
          "type": "uint256"
        }
      ],
      "name": "decreaseAllowance",
      "outputs": [
        {
          "internalType": "bool",
          "name": "",
          "type": "bool"
        }
      ],
      "stateMutability": "nonpayable",
      "type": "function"
    },
    {
      "inputs": [
        {
          "internalType": "address",
          "name": "delegatee",
          "type": "address"
        }
      ],
      "name": "delegate",
      "outputs": [],
      "stateMutability": "nonpayable",
      "type": "function"
    },
    {
      "inputs": [
        {
          "internalType": "address",
          "name": "delegatee",
          "type": "address"
        },
        {
          "internalType": "uint256",
          "name": "nonce",
          "type": "uint256"
        },
        {
          "internalType": "uint256",
          "name": "expiry",
          "type": "uint256"
        },
        {
          "internalType": "uint8",
          "name": "v",
          "type": "uint8"
        },
        {
          "internalType": "bytes32",
          "name": "r",
          "type": "bytes32"
        },
        {
          "internalType": "bytes32",
          "name": "s",
          "type": "bytes32"
        }
      ],
      "name": "delegateBySig",
      "outputs": [],
      "stateMutability": "nonpayable",
      "type": "function"
    },
    {
      "inputs": [
        {
          "internalType": "address",
          "name": "account",
          "type": "address"
        }
      ],
      "name": "delegates",
      "outputs": [
        {
          "internalType": "address",
          "name": "",
          "type": "address"
        }
      ],
      "stateMutability": "view",
      "type": "function"
    },
    {
      "inputs": [],
      "name": "eip712Domain",
      "outputs": [
        {
          "internalType": "bytes1",
          "name": "fields",
          "type": "bytes1"
        },
        {
          "internalType": "string",
          "name": "name",
          "type": "string"
        },
        {
          "internalType": "string",
          "name": "version",
          "type": "string"
        },
        {
          "internalType": "uint256",
          "name": "chainId",
          "type": "uint256"
        },
        {
          "internalType": "address",
          "name": "verifyingContract",
          "type": "address"
        },
        {
          "internalType": "bytes32",
          "name": "salt",
          "type": "bytes32"
        },
        {
          "internalType": "uint256[]",
          "name": "extensions",
          "type": "uint256[]"
        }
      ],
      "stateMutability": "view",
      "type": "function"
    },
    {
      "inputs": [
        {
          "internalType": "uint256",
          "name": "timepoint",
          "type": "uint256"
        }
      ],
      "name": "getPastTotalSupply",
      "outputs": [
        {
          "internalType": "uint256",
          "name": "",
          "type": "uint256"
        }
      ],
      "stateMutability": "view",
      "type": "function"
    },
    {
      "inputs": [
        {
          "internalType": "address",
          "name": "account",
          "type": "address"
        },
        {
          "internalType": "uint256",
          "name": "timepoint",
          "type": "uint256"
        }
      ],
      "name": "getPastVotes",
      "outputs": [
        {
          "internalType": "uint256",
          "name": "",
          "type": "uint256"
        }
      ],
      "stateMutability": "view",
      "type": "function"
    },
    {
      "inputs": [
        {
          "internalType": "address",
          "name": "account",
          "type": "address"
        }
      ],
      "name": "getVotes",
      "outputs": [
        {
          "internalType": "uint256",
          "name": "",
          "type": "uint256"
        }
      ],
      "stateMutability": "view",
      "type": "function"
    },
    {
      "inputs": [
        {
          "internalType": "address",
          "name": "spender",
          "type": "address"
        },
        {
          "internalType": "uint256",
          "name": "addedValue",
          "type": "uint256"
        }
      ],
      "name": "increaseAllowance",
      "outputs": [
        {
          "internalType": "bool",
          "name": "",
          "type": "bool"
        }
      ],
      "stateMutability": "nonpayable",
      "type": "function"
    },
    {
      "inputs": [],
      "name": "liquidityRamp",
      "outputs": [
        {
          "internalType": "contract ILiquidityRamp",
          "name": "",
          "type": "address"
        }
      ],
      "stateMutability": "view",
      "type": "function"
    },
    {
      "inputs": [
        {
          "internalType": "address",
          "name": "to",
          "type": "address"
        },
        {
          "internalType": "uint256",
          "name": "amount",
          "type": "uint256"
        }
      ],
      "name": "mint",
      "outputs": [],
      "stateMutability": "nonpayable",
      "type": "function"
    },
    {
      "inputs": [],
      "name": "name",
      "outputs": [
        {
          "internalType": "string",
          "name": "",
          "type": "string"
        }
      ],
      "stateMutability": "view",
      "type": "function"
    },
    {
      "inputs": [
        {
          "internalType": "address",
          "name": "owner",
          "type": "address"
        }
      ],
      "name": "nonces",
      "outputs": [
        {
          "internalType": "uint256",
          "name": "",
          "type": "uint256"
        }
      ],
      "stateMutability": "view",
      "type": "function"
    },
    {
      "inputs": [
        {
          "internalType": "address",
          "name": "account",
          "type": "address"
        }
      ],
      "name": "numCheckpoints",
      "outputs": [
        {
          "internalType": "uint32",
          "name": "",
          "type": "uint32"
        }
      ],
      "stateMutability": "view",
      "type": "function"
    },
    {
      "inputs": [
        {
          "internalType": "contract IERC20",
          "name": "token",
          "type": "address"
        }
      ],
      "name": "otherToken",
      "outputs": [
        {
          "internalType": "contract IERC20",
          "name": "",
          "type": "address"
        }
      ],
      "stateMutability": "view",
      "type": "function"
    },
    {
      "inputs": [
        {
          "internalType": "address",
          "name": "owner",
          "type": "address"
        },
        {
          "internalType": "address",
          "name": "spender",
          "type": "address"
        },
        {
          "internalType": "uint256",
          "name": "value",
          "type": "uint256"
        },
        {
          "internalType": "uint256",
          "name": "deadline",
          "type": "uint256"
        },
        {
          "internalType": "uint8",
          "name": "v",
          "type": "uint8"
        },
        {
          "internalType": "bytes32",
          "name": "r",
          "type": "bytes32"
        },
        {
          "internalType": "bytes32",
          "name": "s",
          "type": "bytes32"
        }
      ],
      "name": "permit",
      "outputs": [],
      "stateMutability": "nonpayable",
      "type": "function"
    },
    {
      "inputs": [],
      "name": "swapManager",
      "outputs": [
        {
          "internalType": "contract ISwapManager",
          "name": "",
          "type": "address"
        }
      ],
      "stateMutability": "view",
      "type": "function"
    },
    {
      "inputs": [],
      "name": "symbol",
      "outputs": [
        {
          "internalType": "string",
          "name": "",
          "type": "string"
        }
      ],
      "stateMutability": "view",
      "type": "function"
    },
    {
      "inputs": [],
      "name": "thatToken",
      "outputs": [
        {
          "internalType": "contract IERC20",
          "name": "",
          "type": "address"
        }
      ],
      "stateMutability": "view",
      "type": "function"
    },
    {
      "inputs": [],
      "name": "thisToken",
      "outputs": [
        {
          "internalType": "contract IERC20",
          "name": "",
          "type": "address"
        }
      ],
      "stateMutability": "view",
      "type": "function"
    },
    {
      "inputs": [],
      "name": "totalSupply",
      "outputs": [
        {
          "internalType": "uint256",
          "name": "",
          "type": "uint256"
        }
      ],
      "stateMutability": "view",
      "type": "function"
    },
    {
      "inputs": [
        {
          "internalType": "address",
          "name": "to",
          "type": "address"
        },
        {
          "internalType": "uint256",
          "name": "amount",
          "type": "uint256"
        }
      ],
      "name": "transfer",
      "outputs": [
        {
          "internalType": "bool",
          "name": "",
          "type": "bool"
        }
      ],
      "stateMutability": "nonpayable",
      "type": "function"
    },
    {
      "inputs": [
        {
          "internalType": "address",
          "name": "from",
          "type": "address"
        },
        {
          "internalType": "address",
          "name": "to",
          "type": "address"
        },
        {
          "internalType": "uint256",
          "name": "amount",
          "type": "uint256"
        }
      ],
      "name": "transferFrom",
      "outputs": [
        {
          "internalType": "bool",
          "name": "",
          "type": "bool"
        }
      ],
      "stateMutability": "nonpayable",
      "type": "function"
    }
  ],
  "bytecode": {
    "object": "0x6101e06040523480156200001257600080fd5b5060405162002a3c38038062002a3c833981016040819052620000359162000263565b6040518060400160405280601181526020017029ba30b4b93bb0bc902628102a37b5b2b760791b81525080604051806040016040528060018152602001603160f81b8152506040518060400160405280601181526020017029ba30b4b93bb0bc902628102a37b5b2b760791b8152506040518060400160405280600681526020016505357592d4c560d41b8152508160039081620000d4919062000370565b506004620000e3828262000370565b50620000f591508390506005620001c5565b6101205262000106816006620001c5565b61014052815160208084019190912060e052815190820120610100524660a0526200019460e05161010051604080517f8b73c3c69bb8fe3d512ecc4cf759cc79239f7b179b0ffacaa9a75d522b39400f60208201529081019290925260608201524660808201523060a082015260009060c00160405160208183030381529060405280519060200120905090565b60805250503060c052506001600160a01b039384166101a0529183166101c0528216610160521661018052620004b1565b6000602083511015620001e557620001dd83620001fe565b9050620001f8565b81620001f2848262000370565b5060ff90505b92915050565b600080829050601f8151111562000235578260405163305a27a960e01b81526004016200022c91906200043c565b60405180910390fd5b805162000242826200048c565b179392505050565b6001600160a01b03811681146200026057600080fd5b50565b600080600080608085870312156200027a57600080fd5b845162000287816200024a565b60208601519094506200029a816200024a565b6040860151909350620002ad816200024a565b6060860151909250620002c0816200024a565b939692955090935050565b634e487b7160e01b600052604160045260246000fd5b600181811c90821680620002f657607f821691505b6020821081036200031757634e487b7160e01b600052602260045260246000fd5b50919050565b601f8211156200036b57600081815260208120601f850160051c81016020861015620003465750805b601f850160051c820191505b81811015620003675782815560010162000352565b5050505b505050565b81516001600160401b038111156200038c576200038c620002cb565b620003a4816200039d8454620002e1565b846200031d565b602080601f831160018114620003dc5760008415620003c35750858301515b600019600386901b1c1916600185901b17855562000367565b600085815260208120601f198616915b828110156200040d57888601518255948401946001909101908401620003ec565b50858210156200042c5787850151600019600388901b60f8161c191681555b5050505050600190811b01905550565b600060208083528351808285015260005b818110156200046b578581018301518582016040015282016200044d565b506000604082860101526040601f19601f8301168501019250505092915050565b80516020808301519190811015620003175760001960209190910360031b1b16919050565b60805160a05160c05160e05161010051610120516101405161016051610180516101a0516101c0516124da62000562600039600081816104b101528181610644015261066a0152600081816103d60152818161060a01526106a401526000818161038601526107ce0152600081816102f801526108000152600061099c01526000610971015260006112e3015260006112bb01526000611216015260006112400152600061126a01526124da6000f3fe608060405234801561001057600080fd5b50600436106101f05760003560e01c8063709d039d1161010f5780639ab24eb0116100a2578063c451463b11610071578063c451463b146104ac578063d505accf146104d3578063dd62ed3e146104e6578063f1127ed8146104f957600080fd5b80639ab24eb014610460578063a457c2d714610473578063a9059cbb14610486578063c3cda5201461049957600080fd5b806384b0196e116100de57806384b0196e1461040b5780638e539e8c1461042657806391ddadf41461043957806395d89b411461045857600080fd5b8063709d039d1461038157806370a08231146103a857806375f4f18e146103d15780637ecebe00146103f857600080fd5b80633a46b1a8116101875780634dfd324e116101565780634dfd324e146102f3578063587cde1e1461031a5780635c19a95c146103465780636fcfff451461035957600080fd5b80633a46b1a8146102b057806340c10f19146102c357806342966c68146102d85780634bf5d7e9146102eb57600080fd5b8063302bb94d116101c3578063302bb94d1461025b578063313ce567146102865780633644e51514610295578063395093511461029d57600080fd5b806306fdde03146101f5578063095ea7b31461021357806318160ddd1461023657806323b872dd14610248575b600080fd5b6101fd610536565b60405161020a9190612121565b60405180910390f35b610226610221366004612149565b6105c8565b604051901515815260200161020a565b6002545b60405190815260200161020a565b610226610256366004612175565b6105e2565b61026e6102693660046121b6565b610606565b6040516001600160a01b03909116815260200161020a565b6040516012815260200161020a565b61023a61070d565b6102266102ab366004612149565b61071c565b61023a6102be366004612149565b61073e565b6102d66102d1366004612149565b6107c3565b005b6102d66102e63660046121d3565b610874565b6101fd610881565b61026e7f000000000000000000000000000000000000000000000000000000000000000081565b61026e6103283660046121b6565b6001600160a01b039081166000908152600960205260409020541690565b6102d66103543660046121b6565b610919565b61036c6103673660046121b6565b610923565b60405163ffffffff909116815260200161020a565b61026e7f000000000000000000000000000000000000000000000000000000000000000081565b61023a6103b63660046121b6565b6001600160a01b031660009081526020819052604090205490565b61026e7f000000000000000000000000000000000000000000000000000000000000000081565b61023a6104063660046121b6565b610945565b610413610963565b60405161020a97969594939291906121ec565b61023a6104343660046121d3565b6109ec565b610441610a53565b60405165ffffffffffff909116815260200161020a565b6101fd610a5e565b61023a61046e3660046121b6565b610a6d565b610226610481366004612149565b610aef565b610226610494366004612149565b610b6a565b6102d66104a7366004612298565b610b78565b61026e7f000000000000000000000000000000000000000000000000000000000000000081565b6102d66104e13660046122f2565b610cae565b61023a6104f4366004612360565b610e12565b61050c610507366004612399565b610e3d565b60408051825163ffffffff1681526020928301516001600160e01b0316928101929092520161020a565b606060038054610545906123d0565b80601f0160208091040260200160405190810160405280929190818152602001828054610571906123d0565b80156105be5780601f10610593576101008083540402835291602001916105be565b820191906000526020600020905b8154815290600101906020018083116105a157829003601f168201915b5050505050905090565b6000336105d6818585610ec1565b60019150505b92915050565b6000336105f0858285610fe5565b6105fb85858561105f565b506001949350505050565b60007f00000000000000000000000000000000000000000000000000000000000000006001600160a01b0316826001600160a01b03160361066857507f0000000000000000000000000000000000000000000000000000000000000000919050565b7f00000000000000000000000000000000000000000000000000000000000000006001600160a01b0316826001600160a01b0316036106c857507f0000000000000000000000000000000000000000000000000000000000000000919050565b60405162461bcd60e51b815260206004820152601560248201527426282a37b5b2b72fafaab735b737bbb72a37b5b2b760591b60448201526064015b60405180910390fd5b6000610717611209565b905090565b6000336105d681858561072f8383610e12565b610739919061241a565b610ec1565b6000610748610a53565b65ffffffffffff16821061079a5760405162461bcd60e51b815260206004820152601960248201527804552433230566f7465733a20667574757265206c6f6f6b757603c1b6044820152606401610704565b6001600160a01b0383166000908152600a602052604090206107bc9083611334565b9392505050565b336001600160a01b037f00000000000000000000000000000000000000000000000000000000000000001614806108225750336001600160a01b037f000000000000000000000000000000000000000000000000000000000000000016145b6108665760405162461bcd60e51b81526020600482015260156024820152741314151bdad95b97d7d55b985d5d1a1bdc9a5e9959605a1b6044820152606401610704565b610870828261141d565b5050565b61087e3382611427565b50565b60604361088c610a53565b65ffffffffffff16146108e15760405162461bcd60e51b815260206004820152601d60248201527f4552433230566f7465733a2062726f6b656e20636c6f636b206d6f64650000006044820152606401610704565b5060408051808201909152601d81527f6d6f64653d626c6f636b6e756d6265722666726f6d3d64656661756c74000000602082015290565b61087e3382611431565b6001600160a01b0381166000908152600a60205260408120546105dc906114aa565b6001600160a01b0381166000908152600760205260408120546105dc565b6000606080828080836109977f00000000000000000000000000000000000000000000000000000000000000006005611513565b6109c27f00000000000000000000000000000000000000000000000000000000000000006006611513565b60408051600080825260208201909252600f60f81b9b939a50919850469750309650945092509050565b60006109f6610a53565b65ffffffffffff168210610a485760405162461bcd60e51b815260206004820152601960248201527804552433230566f7465733a20667574757265206c6f6f6b757603c1b6044820152606401610704565b6105dc600b83611334565b6000610717436115be565b606060048054610545906123d0565b6001600160a01b0381166000908152600a60205260408120548015610adc576001600160a01b0383166000908152600a6020526040902080546000198301908110610aba57610aba61242d565b60009182526020909120015464010000000090046001600160e01b0316610adf565b60005b6001600160e01b03169392505050565b60003381610afd8286610e12565b905083811015610b5d5760405162461bcd60e51b815260206004820152602560248201527f45524332303a2064656372656173656420616c6c6f77616e63652062656c6f77604482015264207a65726f60d81b6064820152608401610704565b6105fb8286868403610ec1565b6000336105d681858561105f565b83421115610bc85760405162461bcd60e51b815260206004820152601d60248201527f4552433230566f7465733a207369676e617475726520657870697265640000006044820152606401610704565b604080517fe48329057bfd03d55e49b547132e39cffd9c1820ad7b9d4c5307691425d15adf60208201526001600160a01b038816918101919091526060810186905260808101859052600090610c4290610c3a9060a00160405160208183030381529060405280519060200120611625565b858585611652565b9050610c4d8161167a565b8614610c9b5760405162461bcd60e51b815260206004820152601960248201527f4552433230566f7465733a20696e76616c6964206e6f6e6365000000000000006044820152606401610704565b610ca58188611431565b50505050505050565b83421115610cfe5760405162461bcd60e51b815260206004820152601d60248201527f45524332305065726d69743a206578706972656420646561646c696e650000006044820152606401610704565b60007f6e71edae12b1b97f4d1f60370fef10105fa2faae0126114a169c64845d6126c9888888610d2d8c61167a565b6040805160208101969096526001600160a01b0394851690860152929091166060840152608083015260a082015260c0810186905260e0016040516020818303038152906040528051906020012090506000610d8882611625565b90506000610d9882878787611652565b9050896001600160a01b0316816001600160a01b031614610dfb5760405162461bcd60e51b815260206004820152601e60248201527f45524332305065726d69743a20696e76616c6964207369676e617475726500006044820152606401610704565b610e068a8a8a610ec1565b50505050505050505050565b6001600160a01b03918216600090815260016020908152604080832093909416825291909152205490565b60408051808201909152600080825260208201526001600160a01b0383166000908152600a60205260409020805463ffffffff8416908110610e8157610e8161242d565b60009182526020918290206040805180820190915291015463ffffffff8116825264010000000090046001600160e01b0316918101919091529392505050565b6001600160a01b038316610f235760405162461bcd60e51b8152602060048201526024808201527f45524332303a20617070726f76652066726f6d20746865207a65726f206164646044820152637265737360e01b6064820152608401610704565b6001600160a01b038216610f845760405162461bcd60e51b815260206004820152602260248201527f45524332303a20617070726f766520746f20746865207a65726f206164647265604482015261737360f01b6064820152608401610704565b6001600160a01b0383811660008181526001602090815260408083209487168084529482529182902085905590518481527f8c5be1e5ebec7d5bd14f71427d1e84f3dd0314c0f7b2291e5b200ac8c7c3b925910160405180910390a3505050565b6000610ff18484610e12565b90506000198114611059578181101561104c5760405162461bcd60e51b815260206004820152601d60248201527f45524332303a20696e73756666696369656e7420616c6c6f77616e63650000006044820152606401610704565b6110598484848403610ec1565b50505050565b6001600160a01b0383166110c35760405162461bcd60e51b815260206004820152602560248201527f45524332303a207472616e736665722066726f6d20746865207a65726f206164604482015264647265737360d81b6064820152608401610704565b6001600160a01b0382166111255760405162461bcd60e51b815260206004820152602360248201527f45524332303a207472616e7366657220746f20746865207a65726f206164647260448201526265737360e81b6064820152608401610704565b6001600160a01b0383166000908152602081905260409020548181101561119d5760405162461bcd60e51b815260206004820152602660248201527f45524332303a207472616e7366657220616d6f756e7420657863656564732062604482015265616c616e636560d01b6064820152608401610704565b6001600160a01b03848116600081815260208181526040808320878703905593871680835291849020805487019055925185815290927fddf252ad1be2c89b69c2b068fc378daa952ba7f163c4a11628f55a4df523b3ef910160405180910390a36110598484846116a7565b6000306001600160a01b037f00000000000000000000000000000000000000000000000000000000000000001614801561126257507f000000000000000000000000000000000000000000000000000000000000000046145b1561128c57507f000000000000000000000000000000000000000000000000000000000000000090565b610717604080517f8b73c3c69bb8fe3d512ecc4cf759cc79239f7b179b0ffacaa9a75d522b39400f60208201527f0000000000000000000000000000000000000000000000000000000000000000918101919091527f000000000000000000000000000000000000000000000000000000000000000060608201524660808201523060a082015260009060c00160405160208183030381529060405280519060200120905090565b81546000908181600581111561138e57600061134f846116b2565b6113599085612443565b600088815260209020909150869082015463ffffffff16111561137e5780915061138c565b61138981600161241a565b92505b505b808210156113db5760006113a2838361179a565b600088815260209020909150869082015463ffffffff1611156113c7578091506113d5565b6113d281600161241a565b92505b5061138e565b8015611407576000868152602090208101600019015464010000000090046001600160e01b031661140a565b60005b6001600160e01b03169695505050505050565b61087082826117b5565b610870828261183f565b6001600160a01b038281166000818152600960208181526040808420805485845282862054949093528787166001600160a01b03198416811790915590519190951694919391928592917f3134e8a2e6d97e929a7e54011ea5485d7d196dd5f0ba4d4ef95803e8e3fc257f9190a4611059828483611857565b600063ffffffff82111561150f5760405162461bcd60e51b815260206004820152602660248201527f53616665436173743a2076616c756520646f65736e27742066697420696e203360448201526532206269747360d01b6064820152608401610704565b5090565b606060ff831461152d5761152683611994565b90506105dc565b818054611539906123d0565b80601f0160208091040260200160405190810160405280929190818152602001828054611565906123d0565b80156115b25780601f10611587576101008083540402835291602001916115b2565b820191906000526020600020905b81548152906001019060200180831161159557829003601f168201915b505050505090506105dc565b600065ffffffffffff82111561150f5760405162461bcd60e51b815260206004820152602660248201527f53616665436173743a2076616c756520646f65736e27742066697420696e203460448201526538206269747360d01b6064820152608401610704565b60006105dc611632611209565b8360405161190160f01b8152600281019290925260228201526042902090565b6000806000611663878787876119d3565b9150915061167081611a97565b5095945050505050565b6001600160a01b03811660009081526007602052604090208054600181018255905b50919050565b505050565b6116a2838383611be1565b6000816000036116c457506000919050565b600060016116d184611c13565b901c6001901b905060018184816116ea576116ea612456565b048201901c9050600181848161170257611702612456565b048201901c9050600181848161171a5761171a612456565b048201901c9050600181848161173257611732612456565b048201901c9050600181848161174a5761174a612456565b048201901c9050600181848161176257611762612456565b048201901c9050600181848161177a5761177a612456565b048201901c90506107bc8182858161179457611794612456565b04611ca7565b60006117a9600284841861246c565b6107bc9084841661241a565b6117bf8282611cbd565b6002546001600160e01b0310156118315760405162461bcd60e51b815260206004820152603060248201527f4552433230566f7465733a20746f74616c20737570706c79207269736b73206f60448201526f766572666c6f77696e6720766f74657360801b6064820152608401610704565b611059600b611d8483611d90565b6118498282611f05565b611059600b61203e83611d90565b816001600160a01b0316836001600160a01b0316141580156118795750600081115b156116a2576001600160a01b03831615611907576001600160a01b0383166000908152600a6020526040812081906118b49061203e85611d90565b91509150846001600160a01b03167fdec2bacdd2f05b59de34da9b523dff8be42e5e38e818c82fdb0bae774387a72483836040516118fc929190918252602082015260400190565b60405180910390a250505b6001600160a01b038216156116a2576001600160a01b0382166000908152600a60205260408120819061193d90611d8485611d90565b91509150836001600160a01b03167fdec2bacdd2f05b59de34da9b523dff8be42e5e38e818c82fdb0bae774387a7248383604051611985929190918252602082015260400190565b60405180910390a25050505050565b606060006119a18361204a565b604080516020808252818301909252919250600091906020820181803683375050509182525060208101929092525090565b6000807f7fffffffffffffffffffffffffffffff5d576e7357a4501ddfe92f46681b20a0831115611a0a5750600090506003611a8e565b6040805160008082526020820180845289905260ff881692820192909252606081018690526080810185905260019060a0016020604051602081039080840390855afa158015611a5e573d6000803e3d6000fd5b5050604051601f1901519150506001600160a01b038116611a8757600060019250925050611a8e565b9150600090505b94509492505050565b6000816004811115611aab57611aab61248e565b03611ab35750565b6001816004811115611ac757611ac761248e565b03611b145760405162461bcd60e51b815260206004820152601860248201527f45434453413a20696e76616c6964207369676e617475726500000000000000006044820152606401610704565b6002816004811115611b2857611b2861248e565b03611b755760405162461bcd60e51b815260206004820152601f60248201527f45434453413a20696e76616c6964207369676e6174757265206c656e677468006044820152606401610704565b6003816004811115611b8957611b8961248e565b0361087e5760405162461bcd60e51b815260206004820152602260248201527f45434453413a20696e76616c6964207369676e6174757265202773272076616c604482015261756560f01b6064820152608401610704565b6001600160a01b038381166000908152600960205260408082205485841683529120546116a292918216911683611857565b600080608083901c15611c2857608092831c92015b604083901c15611c3a57604092831c92015b602083901c15611c4c57602092831c92015b601083901c15611c5e57601092831c92015b600883901c15611c7057600892831c92015b600483901c15611c8257600492831c92015b600283901c15611c9457600292831c92015b600183901c156105dc5760010192915050565b6000818310611cb657816107bc565b5090919050565b6001600160a01b038216611d135760405162461bcd60e51b815260206004820152601f60248201527f45524332303a206d696e7420746f20746865207a65726f2061646472657373006044820152606401610704565b8060026000828254611d25919061241a565b90915550506001600160a01b038216600081815260208181526040808320805486019055518481527fddf252ad1be2c89b69c2b068fc378daa952ba7f163c4a11628f55a4df523b3ef910160405180910390a3610870600083836116a7565b60006107bc828461241a565b82546000908190818115611ddd5760008781526020902082016000190160408051808201909152905463ffffffff8116825264010000000090046001600160e01b03166020820152611df2565b60408051808201909152600080825260208201525b905080602001516001600160e01b03169350611e1284868863ffffffff16565b9250600082118015611e3c5750611e27610a53565b65ffffffffffff16816000015163ffffffff16145b15611e8157611e4a83612072565b60008881526020902083016000190180546001600160e01b03929092166401000000000263ffffffff909216919091179055611efb565b866040518060400160405280611ea5611e98610a53565b65ffffffffffff166114aa565b63ffffffff168152602001611eb986612072565b6001600160e01b0390811690915282546001810184556000938452602093849020835194909301519091166401000000000263ffffffff909316929092179101555b5050935093915050565b6001600160a01b038216611f655760405162461bcd60e51b815260206004820152602160248201527f45524332303a206275726e2066726f6d20746865207a65726f206164647265736044820152607360f81b6064820152608401610704565b6001600160a01b03821660009081526020819052604090205481811015611fd95760405162461bcd60e51b815260206004820152602260248201527f45524332303a206275726e20616d6f756e7420657863656564732062616c616e604482015261636560f01b6064820152608401610704565b6001600160a01b0383166000818152602081815260408083208686039055600280548790039055518581529192917fddf252ad1be2c89b69c2b068fc378daa952ba7f163c4a11628f55a4df523b3ef910160405180910390a36116a2836000846116a7565b60006107bc8284612443565b600060ff8216601f8111156105dc57604051632cd44ac360e21b815260040160405180910390fd5b60006001600160e01b0382111561150f5760405162461bcd60e51b815260206004820152602760248201527f53616665436173743a2076616c756520646f65736e27742066697420696e20326044820152663234206269747360c81b6064820152608401610704565b6000815180845260005b81811015612101576020818501810151868301820152016120e5565b506000602082860101526020601f19601f83011685010191505092915050565b6020815260006107bc60208301846120db565b6001600160a01b038116811461087e57600080fd5b6000806040838503121561215c57600080fd5b823561216781612134565b946020939093013593505050565b60008060006060848603121561218a57600080fd5b833561219581612134565b925060208401356121a581612134565b929592945050506040919091013590565b6000602082840312156121c857600080fd5b81356107bc81612134565b6000602082840312156121e557600080fd5b5035919050565b60ff60f81b881681526000602060e08184015261220c60e084018a6120db565b838103604085015261221e818a6120db565b606085018990526001600160a01b038816608086015260a0850187905284810360c0860152855180825283870192509083019060005b8181101561227057835183529284019291840191600101612254565b50909c9b505050505050505050505050565b803560ff8116811461229357600080fd5b919050565b60008060008060008060c087890312156122b157600080fd5b86356122bc81612134565b955060208701359450604087013593506122d860608801612282565b92506080870135915060a087013590509295509295509295565b600080600080600080600060e0888a03121561230d57600080fd5b873561231881612134565b9650602088013561232881612134565b9550604088013594506060880135935061234460808901612282565b925060a0880135915060c0880135905092959891949750929550565b6000806040838503121561237357600080fd5b823561237e81612134565b9150602083013561238e81612134565b809150509250929050565b600080604083850312156123ac57600080fd5b82356123b781612134565b9150602083013563ffffffff8116811461238e57600080fd5b600181811c908216806123e457607f821691505b60208210810361169c57634e487b7160e01b600052602260045260246000fd5b634e487b7160e01b600052601160045260246000fd5b808201808211156105dc576105dc612404565b634e487b7160e01b600052603260045260246000fd5b818103818111156105dc576105dc612404565b634e487b7160e01b600052601260045260246000fd5b60008261248957634e487b7160e01b600052601260045260246000fd5b500490565b634e487b7160e01b600052602160045260246000fdfea264697066735822122022ddb164c390feedd1fbf864a0203495fab379c8ab1b47e22caa45980b48737564736f6c63430008130033",
    "linkReferences": {}
  },
  "methodIdentifiers": {
    "CLOCK_MODE()": "4bf5d7e9",
    "DOMAIN_SEPARATOR()": "3644e515",
    "allowance(address,address)": "dd62ed3e",
    "approve(address,uint256)": "095ea7b3",
    "balanceOf(address)": "70a08231",
    "burn(uint256)": "42966c68",
    "checkpoints(address,uint32)": "f1127ed8",
    "clock()": "91ddadf4",
    "decimals()": "313ce567",
    "decreaseAllowance(address,uint256)": "a457c2d7",
    "delegate(address)": "5c19a95c",
    "delegateBySig(address,uint256,uint256,uint8,bytes32,bytes32)": "c3cda520",
    "delegates(address)": "587cde1e",
    "eip712Domain()": "84b0196e",
    "getPastTotalSupply(uint256)": "8e539e8c",
    "getPastVotes(address,uint256)": "3a46b1a8",
    "getVotes(address)": "9ab24eb0",
    "increaseAllowance(address,uint256)": "39509351",
    "liquidityRamp()": "4dfd324e",
    "mint(address,uint256)": "40c10f19",
    "name()": "06fdde03",
    "nonces(address)": "7ecebe00",
    "numCheckpoints(address)": "6fcfff45",
    "otherToken(address)": "302bb94d",
    "permit(address,address,uint256,uint256,uint8,bytes32,bytes32)": "d505accf",
    "swapManager()": "709d039d",
    "symbol()": "95d89b41",
    "thatToken()": "c451463b",
    "thisToken()": "75f4f18e",
    "totalSupply()": "18160ddd",
    "transfer(address,uint256)": "a9059cbb",
    "transferFrom(address,address,uint256)": "23b872dd"
  },
  "id": 69
}