{
  "abi": [
    {
      "inputs": [
        {
          "internalType": "contract IERC20",
          "name": "_thisToken",
          "type": "address"
        },
        {
          "internalType": "contract IERC20",
          "name": "_thatToken",
          "type": "address"
        },
        {
          "internalType": "contract ILiquidityRamp",
          "name": "_liquidityRamp",
          "type": "address"
        },
        {
          "internalType": "contract ISwapManager",
          "name": "_swapManager",
          "type": "address"
        }
      ],
      "stateMutability": "nonpayable",
      "type": "constructor"
    },
    {
      "inputs": [],
      "name": "InvalidShortString",
      "type": "error"
    },
    {
      "inputs": [],
      "name": "LPToken__Unauthorized",
      "type": "error"
    },
    {
      "inputs": [],
      "name": "LPToken__UnknownToken",
      "type": "error"
    },
    {
      "inputs": [
        {
          "internalType": "string",
          "name": "str",
          "type": "string"
        }
      ],
      "name": "StringTooLong",
      "type": "error"
    },
    {
      "anonymous": false,
      "inputs": [
        {
          "indexed": true,
          "internalType": "address",
          "name": "owner",
          "type": "address"
        },
        {
          "indexed": true,
          "internalType": "address",
          "name": "spender",
          "type": "address"
        },
        {
          "indexed": false,
          "internalType": "uint256",
          "name": "value",
          "type": "uint256"
        }
      ],
      "name": "Approval",
      "type": "event"
    },
    {
      "anonymous": false,
      "inputs": [
        {
          "indexed": true,
          "internalType": "address",
          "name": "delegator",
          "type": "address"
        },
        {
          "indexed": true,
          "internalType": "address",
          "name": "fromDelegate",
          "type": "address"
        },
        {
          "indexed": true,
          "internalType": "address",
          "name": "toDelegate",
          "type": "address"
        }
      ],
      "name": "DelegateChanged",
      "type": "event"
    },
    {
      "anonymous": false,
      "inputs": [
        {
          "indexed": true,
          "internalType": "address",
          "name": "delegate",
          "type": "address"
        },
        {
          "indexed": false,
          "internalType": "uint256",
          "name": "previousBalance",
          "type": "uint256"
        },
        {
          "indexed": false,
          "internalType": "uint256",
          "name": "newBalance",
          "type": "uint256"
        }
      ],
      "name": "DelegateVotesChanged",
      "type": "event"
    },
    {
      "anonymous": false,
      "inputs": [],
      "name": "EIP712DomainChanged",
      "type": "event"
    },
    {
      "anonymous": false,
      "inputs": [
        {
          "indexed": true,
          "internalType": "address",
          "name": "from",
          "type": "address"
        },
        {
          "indexed": true,
          "internalType": "address",
          "name": "to",
          "type": "address"
        },
        {
          "indexed": false,
          "internalType": "uint256",
          "name": "value",
          "type": "uint256"
        }
      ],
      "name": "Transfer",
      "type": "event"
    },
    {
      "inputs": [],
      "name": "CLOCK_MODE",
      "outputs": [
        {
          "internalType": "string",
          "name": "",
          "type": "string"
        }
      ],
      "stateMutability": "view",
      "type": "function"
    },
    {
      "inputs": [],
      "name": "DOMAIN_SEPARATOR",
      "outputs": [
        {
          "internalType": "bytes32",
          "name": "",
          "type": "bytes32"
        }
      ],
      "stateMutability": "view",
      "type": "function"
    },
    {
      "inputs": [
        {
          "internalType": "address",
          "name": "owner",
          "type": "address"
        },
        {
          "internalType": "address",
          "name": "spender",
          "type": "address"
        }
      ],
      "name": "allowance",
      "outputs": [
        {
          "internalType": "uint256",
          "name": "",
          "type": "uint256"
        }
      ],
      "stateMutability": "view",
      "type": "function"
    },
    {
      "inputs": [
        {
          "internalType": "address",
          "name": "spender",
          "type": "address"
        },
        {
          "internalType": "uint256",
          "name": "amount",
          "type": "uint256"
        }
      ],
      "name": "approve",
      "outputs": [
        {
          "internalType": "bool",
          "name": "",
          "type": "bool"
        }
      ],
      "stateMutability": "nonpayable",
      "type": "function"
    },
    {
      "inputs": [
        {
          "internalType": "address",
          "name": "account",
          "type": "address"
        }
      ],
      "name": "balanceOf",
      "outputs": [
        {
          "internalType": "uint256",
          "name": "",
          "type": "uint256"
        }
      ],
      "stateMutability": "view",
      "type": "function"
    },
    {
      "inputs": [
        {
          "internalType": "uint256",
          "name": "amount",
          "type": "uint256"
        }
      ],
      "name": "burn",
      "outputs": [],
      "stateMutability": "nonpayable",
      "type": "function"
    },
    {
      "inputs": [
        {
          "internalType": "address",
          "name": "account",
          "type": "address"
        },
        {
          "internalType": "uint32",
          "name": "pos",
          "type": "uint32"
        }
      ],
      "name": "checkpoints",
      "outputs": [
        {
          "components": [
            {
              "internalType": "uint32",
              "name": "fromBlock",
              "type": "uint32"
            },
            {
              "internalType": "uint224",
              "name": "votes",
              "type": "uint224"
            }
          ],
          "internalType": "struct ERC20Votes.Checkpoint",
          "name": "",
          "type": "tuple"
        }
      ],
      "stateMutability": "view",
      "type": "function"
    },
    {
      "inputs": [],
      "name": "clock",
      "outputs": [
        {
          "internalType": "uint48",
          "name": "",
          "type": "uint48"
        }
      ],
      "stateMutability": "view",
      "type": "function"
    },
    {
      "inputs": [],
      "name": "decimals",
      "outputs": [
        {
          "internalType": "uint8",
          "name": "",
          "type": "uint8"
        }
      ],
      "stateMutability": "view",
      "type": "function"
    },
    {
      "inputs": [
        {
          "internalType": "address",
          "name": "spender",
          "type": "address"
        },
        {
          "internalType": "uint256",
          "name": "subtractedValue",
          "type": "uint256"
        }
      ],
      "name": "decreaseAllowance",
      "outputs": [
        {
          "internalType": "bool",
          "name": "",
          "type": "bool"
        }
      ],
      "stateMutability": "nonpayable",
      "type": "function"
    },
    {
      "inputs": [
        {
          "internalType": "address",
          "name": "delegatee",
          "type": "address"
        }
      ],
      "name": "delegate",
      "outputs": [],
      "stateMutability": "nonpayable",
      "type": "function"
    },
    {
      "inputs": [
        {
          "internalType": "address",
          "name": "delegatee",
          "type": "address"
        },
        {
          "internalType": "uint256",
          "name": "nonce",
          "type": "uint256"
        },
        {
          "internalType": "uint256",
          "name": "expiry",
          "type": "uint256"
        },
        {
          "internalType": "uint8",
          "name": "v",
          "type": "uint8"
        },
        {
          "internalType": "bytes32",
          "name": "r",
          "type": "bytes32"
        },
        {
          "internalType": "bytes32",
          "name": "s",
          "type": "bytes32"
        }
      ],
      "name": "delegateBySig",
      "outputs": [],
      "stateMutability": "nonpayable",
      "type": "function"
    },
    {
      "inputs": [
        {
          "internalType": "address",
          "name": "account",
          "type": "address"
        }
      ],
      "name": "delegates",
      "outputs": [
        {
          "internalType": "address",
          "name": "",
          "type": "address"
        }
      ],
      "stateMutability": "view",
      "type": "function"
    },
    {
      "inputs": [],
      "name": "eip712Domain",
      "outputs": [
        {
          "internalType": "bytes1",
          "name": "fields",
          "type": "bytes1"
        },
        {
          "internalType": "string",
          "name": "name",
          "type": "string"
        },
        {
          "internalType": "string",
          "name": "version",
          "type": "string"
        },
        {
          "internalType": "uint256",
          "name": "chainId",
          "type": "uint256"
        },
        {
          "internalType": "address",
          "name": "verifyingContract",
          "type": "address"
        },
        {
          "internalType": "bytes32",
          "name": "salt",
          "type": "bytes32"
        },
        {
          "internalType": "uint256[]",
          "name": "extensions",
          "type": "uint256[]"
        }
      ],
      "stateMutability": "view",
      "type": "function"
    },
    {
      "inputs": [
        {
          "internalType": "uint256",
          "name": "timepoint",
          "type": "uint256"
        }
      ],
      "name": "getPastTotalSupply",
      "outputs": [
        {
          "internalType": "uint256",
          "name": "",
          "type": "uint256"
        }
      ],
      "stateMutability": "view",
      "type": "function"
    },
    {
      "inputs": [
        {
          "internalType": "address",
          "name": "account",
          "type": "address"
        },
        {
          "internalType": "uint256",
          "name": "timepoint",
          "type": "uint256"
        }
      ],
      "name": "getPastVotes",
      "outputs": [
        {
          "internalType": "uint256",
          "name": "",
          "type": "uint256"
        }
      ],
      "stateMutability": "view",
      "type": "function"
    },
    {
      "inputs": [
        {
          "internalType": "address",
          "name": "account",
          "type": "address"
        }
      ],
      "name": "getVotes",
      "outputs": [
        {
          "internalType": "uint256",
          "name": "",
          "type": "uint256"
        }
      ],
      "stateMutability": "view",
      "type": "function"
    },
    {
      "inputs": [
        {
          "internalType": "address",
          "name": "spender",
          "type": "address"
        },
        {
          "internalType": "uint256",
          "name": "addedValue",
          "type": "uint256"
        }
      ],
      "name": "increaseAllowance",
      "outputs": [
        {
          "internalType": "bool",
          "name": "",
          "type": "bool"
        }
      ],
      "stateMutability": "nonpayable",
      "type": "function"
    },
    {
      "inputs": [],
      "name": "liquidityRamp",
      "outputs": [
        {
          "internalType": "contract ILiquidityRamp",
          "name": "",
          "type": "address"
        }
      ],
      "stateMutability": "view",
      "type": "function"
    },
    {
      "inputs": [
        {
          "internalType": "address",
          "name": "to",
          "type": "address"
        },
        {
          "internalType": "uint256",
          "name": "amount",
          "type": "uint256"
        }
      ],
      "name": "mint",
      "outputs": [],
      "stateMutability": "nonpayable",
      "type": "function"
    },
    {
      "inputs": [],
      "name": "name",
      "outputs": [
        {
          "internalType": "string",
          "name": "",
          "type": "string"
        }
      ],
      "stateMutability": "view",
      "type": "function"
    },
    {
      "inputs": [
        {
          "internalType": "address",
          "name": "owner",
          "type": "address"
        }
      ],
      "name": "nonces",
      "outputs": [
        {
          "internalType": "uint256",
          "name": "",
          "type": "uint256"
        }
      ],
      "stateMutability": "view",
      "type": "function"
    },
    {
      "inputs": [
        {
          "internalType": "address",
          "name": "account",
          "type": "address"
        }
      ],
      "name": "numCheckpoints",
      "outputs": [
        {
          "internalType": "uint32",
          "name": "",
          "type": "uint32"
        }
      ],
      "stateMutability": "view",
      "type": "function"
    },
    {
      "inputs": [
        {
          "internalType": "contract IERC20",
          "name": "token",
          "type": "address"
        }
      ],
      "name": "otherToken",
      "outputs": [
        {
          "internalType": "contract IERC20",
          "name": "",
          "type": "address"
        }
      ],
      "stateMutability": "view",
      "type": "function"
    },
    {
      "inputs": [
        {
          "internalType": "address",
          "name": "owner",
          "type": "address"
        },
        {
          "internalType": "address",
          "name": "spender",
          "type": "address"
        },
        {
          "internalType": "uint256",
          "name": "value",
          "type": "uint256"
        },
        {
          "internalType": "uint256",
          "name": "deadline",
          "type": "uint256"
        },
        {
          "internalType": "uint8",
          "name": "v",
          "type": "uint8"
        },
        {
          "internalType": "bytes32",
          "name": "r",
          "type": "bytes32"
        },
        {
          "internalType": "bytes32",
          "name": "s",
          "type": "bytes32"
        }
      ],
      "name": "permit",
      "outputs": [],
      "stateMutability": "nonpayable",
      "type": "function"
    },
    {
      "inputs": [],
      "name": "swapManager",
      "outputs": [
        {
          "internalType": "contract ISwapManager",
          "name": "",
          "type": "address"
        }
      ],
      "stateMutability": "view",
      "type": "function"
    },
    {
      "inputs": [],
      "name": "symbol",
      "outputs": [
        {
          "internalType": "string",
          "name": "",
          "type": "string"
        }
      ],
      "stateMutability": "view",
      "type": "function"
    },
    {
      "inputs": [],
      "name": "thatToken",
      "outputs": [
        {
          "internalType": "contract IERC20",
          "name": "",
          "type": "address"
        }
      ],
      "stateMutability": "view",
      "type": "function"
    },
    {
      "inputs": [],
      "name": "thisToken",
      "outputs": [
        {
          "internalType": "contract IERC20",
          "name": "",
          "type": "address"
        }
      ],
      "stateMutability": "view",
      "type": "function"
    },
    {
      "inputs": [],
      "name": "totalSupply",
      "outputs": [
        {
          "internalType": "uint256",
          "name": "",
          "type": "uint256"
        }
      ],
      "stateMutability": "view",
      "type": "function"
    },
    {
      "inputs": [
        {
          "internalType": "address",
          "name": "to",
          "type": "address"
        },
        {
          "internalType": "uint256",
          "name": "amount",
          "type": "uint256"
        }
      ],
      "name": "transfer",
      "outputs": [
        {
          "internalType": "bool",
          "name": "",
          "type": "bool"
        }
      ],
      "stateMutability": "nonpayable",
      "type": "function"
    },
    {
      "inputs": [
        {
          "internalType": "address",
          "name": "from",
          "type": "address"
        },
        {
          "internalType": "address",
          "name": "to",
          "type": "address"
        },
        {
          "internalType": "uint256",
          "name": "amount",
          "type": "uint256"
        }
      ],
      "name": "transferFrom",
      "outputs": [
        {
          "internalType": "bool",
          "name": "",
          "type": "bool"
        }
      ],
      "stateMutability": "nonpayable",
      "type": "function"
    }
  ],
  "bytecode": {
    "object": "0x6101e06040523480156200001257600080fd5b50604051620029f2380380620029f2833981016040819052620000359162000263565b6040518060400160405280601181526020017029ba30b4b93bb0bc902628102a37b5b2b760791b81525080604051806040016040528060018152602001603160f81b8152506040518060400160405280601181526020017029ba30b4b93bb0bc902628102a37b5b2b760791b8152506040518060400160405280600681526020016505357592d4c560d41b8152508160039081620000d4919062000370565b506004620000e3828262000370565b50620000f591508390506005620001c5565b6101205262000106816006620001c5565b61014052815160208084019190912060e052815190820120610100524660a0526200019460e05161010051604080517f8b73c3c69bb8fe3d512ecc4cf759cc79239f7b179b0ffacaa9a75d522b39400f60208201529081019290925260608201524660808201523060a082015260009060c00160405160208183030381529060405280519060200120905090565b60805250503060c052506001600160a01b039384166101a0529183166101c0528216610160521661018052620004b1565b6000602083511015620001e557620001dd83620001fe565b9050620001f8565b81620001f2848262000370565b5060ff90505b92915050565b600080829050601f8151111562000235578260405163305a27a960e01b81526004016200022c91906200043c565b60405180910390fd5b805162000242826200048c565b179392505050565b6001600160a01b03811681146200026057600080fd5b50565b600080600080608085870312156200027a57600080fd5b845162000287816200024a565b60208601519094506200029a816200024a565b6040860151909350620002ad816200024a565b6060860151909250620002c0816200024a565b939692955090935050565b634e487b7160e01b600052604160045260246000fd5b600181811c90821680620002f657607f821691505b6020821081036200031757634e487b7160e01b600052602260045260246000fd5b50919050565b601f8211156200036b57600081815260208120601f850160051c81016020861015620003465750805b601f850160051c820191505b81811015620003675782815560010162000352565b5050505b505050565b81516001600160401b038111156200038c576200038c620002cb565b620003a4816200039d8454620002e1565b846200031d565b602080601f831160018114620003dc5760008415620003c35750858301515b600019600386901b1c1916600185901b17855562000367565b600085815260208120601f198616915b828110156200040d57888601518255948401946001909101908401620003ec565b50858210156200042c5787850151600019600388901b60f8161c191681555b5050505050600190811b01905550565b600060208083528351808285015260005b818110156200046b578581018301518582016040015282016200044d565b506000604082860101526040601f19601f8301168501019250505092915050565b80516020808301519190811015620003175760001960209190910360031b1b16919050565b60805160a05160c05160e05161010051610120516101405161016051610180516101a0516101c05161249062000562600039600081816104b101528181610644015261066a0152600081816103d60152818161060a01526106a401526000818161038601526107a70152600081816102f801526107db01526000610952015260006109270152600061129901526000611271015260006111cc015260006111f60152600061122001526124906000f3fe608060405234801561001057600080fd5b50600436106101f05760003560e01c8063709d039d1161010f5780639ab24eb0116100a2578063c451463b11610071578063c451463b146104ac578063d505accf146104d3578063dd62ed3e146104e6578063f1127ed8146104f957600080fd5b80639ab24eb014610460578063a457c2d714610473578063a9059cbb14610486578063c3cda5201461049957600080fd5b806384b0196e116100de57806384b0196e1461040b5780638e539e8c1461042657806391ddadf41461043957806395d89b411461045857600080fd5b8063709d039d1461038157806370a08231146103a857806375f4f18e146103d15780637ecebe00146103f857600080fd5b80633a46b1a8116101875780634dfd324e116101565780634dfd324e146102f3578063587cde1e1461031a5780635c19a95c146103465780636fcfff451461035957600080fd5b80633a46b1a8146102b057806340c10f19146102c357806342966c68146102d85780634bf5d7e9146102eb57600080fd5b8063302bb94d116101c3578063302bb94d1461025b578063313ce567146102865780633644e51514610295578063395093511461029d57600080fd5b806306fdde03146101f5578063095ea7b31461021357806318160ddd1461023657806323b872dd14610248575b600080fd5b6101fd610536565b60405161020a91906120d7565b60405180910390f35b6102266102213660046120ff565b6105c8565b604051901515815260200161020a565b6002545b60405190815260200161020a565b61022661025636600461212b565b6105e2565b61026e61026936600461216c565b610606565b6040516001600160a01b03909116815260200161020a565b6040516012815260200161020a565b61023a6106e1565b6102266102ab3660046120ff565b6106f0565b61023a6102be3660046120ff565b610712565b6102d66102d13660046120ff565b61079c565b005b6102d66102e6366004612189565b61082a565b6101fd610837565b61026e7f000000000000000000000000000000000000000000000000000000000000000081565b61026e61032836600461216c565b6001600160a01b039081166000908152600960205260409020541690565b6102d661035436600461216c565b6108cf565b61036c61036736600461216c565b6108d9565b60405163ffffffff909116815260200161020a565b61026e7f000000000000000000000000000000000000000000000000000000000000000081565b61023a6103b636600461216c565b6001600160a01b031660009081526020819052604090205490565b61026e7f000000000000000000000000000000000000000000000000000000000000000081565b61023a61040636600461216c565b6108fb565b610413610919565b60405161020a97969594939291906121a2565b61023a610434366004612189565b6109a2565b610441610a09565b60405165ffffffffffff909116815260200161020a565b6101fd610a14565b61023a61046e36600461216c565b610a23565b6102266104813660046120ff565b610aa5565b6102266104943660046120ff565b610b20565b6102d66104a736600461224e565b610b2e565b61026e7f000000000000000000000000000000000000000000000000000000000000000081565b6102d66104e13660046122a8565b610c64565b61023a6104f4366004612316565b610dc8565b61050c61050736600461234f565b610df3565b60408051825163ffffffff1681526020928301516001600160e01b0316928101929092520161020a565b60606003805461054590612386565b80601f016020809104026020016040519081016040528092919081815260200182805461057190612386565b80156105be5780601f10610593576101008083540402835291602001916105be565b820191906000526020600020905b8154815290600101906020018083116105a157829003601f168201915b5050505050905090565b6000336105d6818585610e77565b60019150505b92915050565b6000336105f0858285610f9b565b6105fb858585611015565b506001949350505050565b60007f00000000000000000000000000000000000000000000000000000000000000006001600160a01b0316826001600160a01b03160361066857507f0000000000000000000000000000000000000000000000000000000000000000919050565b7f00000000000000000000000000000000000000000000000000000000000000006001600160a01b0316826001600160a01b0316036106c857507f0000000000000000000000000000000000000000000000000000000000000000919050565b6040516303685ab360e61b815260040160405180910390fd5b60006106eb6111bf565b905090565b6000336105d68185856107038383610dc8565b61070d91906123d0565b610e77565b600061071c610a09565b65ffffffffffff1682106107735760405162461bcd60e51b815260206004820152601960248201527804552433230566f7465733a20667574757265206c6f6f6b757603c1b60448201526064015b60405180910390fd5b6001600160a01b0383166000908152600a6020526040902061079590836112ea565b9392505050565b336001600160a01b037f000000000000000000000000000000000000000000000000000000000000000016148015906107fe5750336001600160a01b037f00000000000000000000000000000000000000000000000000000000000000001614155b1561081c576040516312819b5160e21b815260040160405180910390fd5b61082682826113d3565b5050565b61083433826113dd565b50565b606043610842610a09565b65ffffffffffff16146108975760405162461bcd60e51b815260206004820152601d60248201527f4552433230566f7465733a2062726f6b656e20636c6f636b206d6f6465000000604482015260640161076a565b5060408051808201909152601d81527f6d6f64653d626c6f636b6e756d6265722666726f6d3d64656661756c74000000602082015290565b61083433826113e7565b6001600160a01b0381166000908152600a60205260408120546105dc90611460565b6001600160a01b0381166000908152600760205260408120546105dc565b60006060808280808361094d7f000000000000000000000000000000000000000000000000000000000000000060056114c9565b6109787f000000000000000000000000000000000000000000000000000000000000000060066114c9565b60408051600080825260208201909252600f60f81b9b939a50919850469750309650945092509050565b60006109ac610a09565b65ffffffffffff1682106109fe5760405162461bcd60e51b815260206004820152601960248201527804552433230566f7465733a20667574757265206c6f6f6b757603c1b604482015260640161076a565b6105dc600b836112ea565b60006106eb43611574565b60606004805461054590612386565b6001600160a01b0381166000908152600a60205260408120548015610a92576001600160a01b0383166000908152600a6020526040902080546000198301908110610a7057610a706123e3565b60009182526020909120015464010000000090046001600160e01b0316610a95565b60005b6001600160e01b03169392505050565b60003381610ab38286610dc8565b905083811015610b135760405162461bcd60e51b815260206004820152602560248201527f45524332303a2064656372656173656420616c6c6f77616e63652062656c6f77604482015264207a65726f60d81b606482015260840161076a565b6105fb8286868403610e77565b6000336105d6818585611015565b83421115610b7e5760405162461bcd60e51b815260206004820152601d60248201527f4552433230566f7465733a207369676e61747572652065787069726564000000604482015260640161076a565b604080517fe48329057bfd03d55e49b547132e39cffd9c1820ad7b9d4c5307691425d15adf60208201526001600160a01b038816918101919091526060810186905260808101859052600090610bf890610bf09060a001604051602081830303815290604052805190602001206115db565b858585611608565b9050610c0381611630565b8614610c515760405162461bcd60e51b815260206004820152601960248201527f4552433230566f7465733a20696e76616c6964206e6f6e636500000000000000604482015260640161076a565b610c5b81886113e7565b50505050505050565b83421115610cb45760405162461bcd60e51b815260206004820152601d60248201527f45524332305065726d69743a206578706972656420646561646c696e65000000604482015260640161076a565b60007f6e71edae12b1b97f4d1f60370fef10105fa2faae0126114a169c64845d6126c9888888610ce38c611630565b6040805160208101969096526001600160a01b0394851690860152929091166060840152608083015260a082015260c0810186905260e0016040516020818303038152906040528051906020012090506000610d3e826115db565b90506000610d4e82878787611608565b9050896001600160a01b0316816001600160a01b031614610db15760405162461bcd60e51b815260206004820152601e60248201527f45524332305065726d69743a20696e76616c6964207369676e61747572650000604482015260640161076a565b610dbc8a8a8a610e77565b50505050505050505050565b6001600160a01b03918216600090815260016020908152604080832093909416825291909152205490565b60408051808201909152600080825260208201526001600160a01b0383166000908152600a60205260409020805463ffffffff8416908110610e3757610e376123e3565b60009182526020918290206040805180820190915291015463ffffffff8116825264010000000090046001600160e01b0316918101919091529392505050565b6001600160a01b038316610ed95760405162461bcd60e51b8152602060048201526024808201527f45524332303a20617070726f76652066726f6d20746865207a65726f206164646044820152637265737360e01b606482015260840161076a565b6001600160a01b038216610f3a5760405162461bcd60e51b815260206004820152602260248201527f45524332303a20617070726f766520746f20746865207a65726f206164647265604482015261737360f01b606482015260840161076a565b6001600160a01b0383811660008181526001602090815260408083209487168084529482529182902085905590518481527f8c5be1e5ebec7d5bd14f71427d1e84f3dd0314c0f7b2291e5b200ac8c7c3b925910160405180910390a3505050565b6000610fa78484610dc8565b9050600019811461100f57818110156110025760405162461bcd60e51b815260206004820152601d60248201527f45524332303a20696e73756666696369656e7420616c6c6f77616e6365000000604482015260640161076a565b61100f8484848403610e77565b50505050565b6001600160a01b0383166110795760405162461bcd60e51b815260206004820152602560248201527f45524332303a207472616e736665722066726f6d20746865207a65726f206164604482015264647265737360d81b606482015260840161076a565b6001600160a01b0382166110db5760405162461bcd60e51b815260206004820152602360248201527f45524332303a207472616e7366657220746f20746865207a65726f206164647260448201526265737360e81b606482015260840161076a565b6001600160a01b038316600090815260208190526040902054818110156111535760405162461bcd60e51b815260206004820152602660248201527f45524332303a207472616e7366657220616d6f756e7420657863656564732062604482015265616c616e636560d01b606482015260840161076a565b6001600160a01b03848116600081815260208181526040808320878703905593871680835291849020805487019055925185815290927fddf252ad1be2c89b69c2b068fc378daa952ba7f163c4a11628f55a4df523b3ef910160405180910390a361100f84848461165d565b6000306001600160a01b037f00000000000000000000000000000000000000000000000000000000000000001614801561121857507f000000000000000000000000000000000000000000000000000000000000000046145b1561124257507f000000000000000000000000000000000000000000000000000000000000000090565b6106eb604080517f8b73c3c69bb8fe3d512ecc4cf759cc79239f7b179b0ffacaa9a75d522b39400f60208201527f0000000000000000000000000000000000000000000000000000000000000000918101919091527f000000000000000000000000000000000000000000000000000000000000000060608201524660808201523060a082015260009060c00160405160208183030381529060405280519060200120905090565b81546000908181600581111561134457600061130584611668565b61130f90856123f9565b600088815260209020909150869082015463ffffffff16111561133457809150611342565b61133f8160016123d0565b92505b505b808210156113915760006113588383611750565b600088815260209020909150869082015463ffffffff16111561137d5780915061138b565b6113888160016123d0565b92505b50611344565b80156113bd576000868152602090208101600019015464010000000090046001600160e01b03166113c0565b60005b6001600160e01b03169695505050505050565b610826828261176b565b61082682826117f5565b6001600160a01b038281166000818152600960208181526040808420805485845282862054949093528787166001600160a01b03198416811790915590519190951694919391928592917f3134e8a2e6d97e929a7e54011ea5485d7d196dd5f0ba4d4ef95803e8e3fc257f9190a461100f82848361180d565b600063ffffffff8211156114c55760405162461bcd60e51b815260206004820152602660248201527f53616665436173743a2076616c756520646f65736e27742066697420696e203360448201526532206269747360d01b606482015260840161076a565b5090565b606060ff83146114e3576114dc8361194a565b90506105dc565b8180546114ef90612386565b80601f016020809104026020016040519081016040528092919081815260200182805461151b90612386565b80156115685780601f1061153d57610100808354040283529160200191611568565b820191906000526020600020905b81548152906001019060200180831161154b57829003601f168201915b505050505090506105dc565b600065ffffffffffff8211156114c55760405162461bcd60e51b815260206004820152602660248201527f53616665436173743a2076616c756520646f65736e27742066697420696e203460448201526538206269747360d01b606482015260840161076a565b60006105dc6115e86111bf565b8360405161190160f01b8152600281019290925260228201526042902090565b600080600061161987878787611989565b9150915061162681611a4d565b5095945050505050565b6001600160a01b03811660009081526007602052604090208054600181018255905b50919050565b505050565b611658838383611b97565b60008160000361167a57506000919050565b6000600161168784611bc9565b901c6001901b905060018184816116a0576116a061240c565b048201901c905060018184816116b8576116b861240c565b048201901c905060018184816116d0576116d061240c565b048201901c905060018184816116e8576116e861240c565b048201901c905060018184816117005761170061240c565b048201901c905060018184816117185761171861240c565b048201901c905060018184816117305761173061240c565b048201901c90506107958182858161174a5761174a61240c565b04611c5d565b600061175f6002848418612422565b610795908484166123d0565b6117758282611c73565b6002546001600160e01b0310156117e75760405162461bcd60e51b815260206004820152603060248201527f4552433230566f7465733a20746f74616c20737570706c79207269736b73206f60448201526f766572666c6f77696e6720766f74657360801b606482015260840161076a565b61100f600b611d3a83611d46565b6117ff8282611ebb565b61100f600b611ff483611d46565b816001600160a01b0316836001600160a01b03161415801561182f5750600081115b15611658576001600160a01b038316156118bd576001600160a01b0383166000908152600a60205260408120819061186a90611ff485611d46565b91509150846001600160a01b03167fdec2bacdd2f05b59de34da9b523dff8be42e5e38e818c82fdb0bae774387a72483836040516118b2929190918252602082015260400190565b60405180910390a250505b6001600160a01b03821615611658576001600160a01b0382166000908152600a6020526040812081906118f390611d3a85611d46565b91509150836001600160a01b03167fdec2bacdd2f05b59de34da9b523dff8be42e5e38e818c82fdb0bae774387a724838360405161193b929190918252602082015260400190565b60405180910390a25050505050565b6060600061195783612000565b604080516020808252818301909252919250600091906020820181803683375050509182525060208101929092525090565b6000807f7fffffffffffffffffffffffffffffff5d576e7357a4501ddfe92f46681b20a08311156119c05750600090506003611a44565b6040805160008082526020820180845289905260ff881692820192909252606081018690526080810185905260019060a0016020604051602081039080840390855afa158015611a14573d6000803e3d6000fd5b5050604051601f1901519150506001600160a01b038116611a3d57600060019250925050611a44565b9150600090505b94509492505050565b6000816004811115611a6157611a61612444565b03611a695750565b6001816004811115611a7d57611a7d612444565b03611aca5760405162461bcd60e51b815260206004820152601860248201527f45434453413a20696e76616c6964207369676e61747572650000000000000000604482015260640161076a565b6002816004811115611ade57611ade612444565b03611b2b5760405162461bcd60e51b815260206004820152601f60248201527f45434453413a20696e76616c6964207369676e6174757265206c656e67746800604482015260640161076a565b6003816004811115611b3f57611b3f612444565b036108345760405162461bcd60e51b815260206004820152602260248201527f45434453413a20696e76616c6964207369676e6174757265202773272076616c604482015261756560f01b606482015260840161076a565b6001600160a01b038381166000908152600960205260408082205485841683529120546116589291821691168361180d565b600080608083901c15611bde57608092831c92015b604083901c15611bf057604092831c92015b602083901c15611c0257602092831c92015b601083901c15611c1457601092831c92015b600883901c15611c2657600892831c92015b600483901c15611c3857600492831c92015b600283901c15611c4a57600292831c92015b600183901c156105dc5760010192915050565b6000818310611c6c5781610795565b5090919050565b6001600160a01b038216611cc95760405162461bcd60e51b815260206004820152601f60248201527f45524332303a206d696e7420746f20746865207a65726f206164647265737300604482015260640161076a565b8060026000828254611cdb91906123d0565b90915550506001600160a01b038216600081815260208181526040808320805486019055518481527fddf252ad1be2c89b69c2b068fc378daa952ba7f163c4a11628f55a4df523b3ef910160405180910390a36108266000838361165d565b600061079582846123d0565b82546000908190818115611d935760008781526020902082016000190160408051808201909152905463ffffffff8116825264010000000090046001600160e01b03166020820152611da8565b60408051808201909152600080825260208201525b905080602001516001600160e01b03169350611dc884868863ffffffff16565b9250600082118015611df25750611ddd610a09565b65ffffffffffff16816000015163ffffffff16145b15611e3757611e0083612028565b60008881526020902083016000190180546001600160e01b03929092166401000000000263ffffffff909216919091179055611eb1565b866040518060400160405280611e5b611e4e610a09565b65ffffffffffff16611460565b63ffffffff168152602001611e6f86612028565b6001600160e01b0390811690915282546001810184556000938452602093849020835194909301519091166401000000000263ffffffff909316929092179101555b5050935093915050565b6001600160a01b038216611f1b5760405162461bcd60e51b815260206004820152602160248201527f45524332303a206275726e2066726f6d20746865207a65726f206164647265736044820152607360f81b606482015260840161076a565b6001600160a01b03821660009081526020819052604090205481811015611f8f5760405162461bcd60e51b815260206004820152602260248201527f45524332303a206275726e20616d6f756e7420657863656564732062616c616e604482015261636560f01b606482015260840161076a565b6001600160a01b0383166000818152602081815260408083208686039055600280548790039055518581529192917fddf252ad1be2c89b69c2b068fc378daa952ba7f163c4a11628f55a4df523b3ef910160405180910390a36116588360008461165d565b600061079582846123f9565b600060ff8216601f8111156105dc57604051632cd44ac360e21b815260040160405180910390fd5b60006001600160e01b038211156114c55760405162461bcd60e51b815260206004820152602760248201527f53616665436173743a2076616c756520646f65736e27742066697420696e20326044820152663234206269747360c81b606482015260840161076a565b6000815180845260005b818110156120b75760208185018101518683018201520161209b565b506000602082860101526020601f19601f83011685010191505092915050565b6020815260006107956020830184612091565b6001600160a01b038116811461083457600080fd5b6000806040838503121561211257600080fd5b823561211d816120ea565b946020939093013593505050565b60008060006060848603121561214057600080fd5b833561214b816120ea565b9250602084013561215b816120ea565b929592945050506040919091013590565b60006020828403121561217e57600080fd5b8135610795816120ea565b60006020828403121561219b57600080fd5b5035919050565b60ff60f81b881681526000602060e0818401526121c260e084018a612091565b83810360408501526121d4818a612091565b606085018990526001600160a01b038816608086015260a0850187905284810360c0860152855180825283870192509083019060005b818110156122265783518352928401929184019160010161220a565b50909c9b505050505050505050505050565b803560ff8116811461224957600080fd5b919050565b60008060008060008060c0878903121561226757600080fd5b8635612272816120ea565b9550602087013594506040870135935061228e60608801612238565b92506080870135915060a087013590509295509295509295565b600080600080600080600060e0888a0312156122c357600080fd5b87356122ce816120ea565b965060208801356122de816120ea565b955060408801359450606088013593506122fa60808901612238565b925060a0880135915060c0880135905092959891949750929550565b6000806040838503121561232957600080fd5b8235612334816120ea565b91506020830135612344816120ea565b809150509250929050565b6000806040838503121561236257600080fd5b823561236d816120ea565b9150602083013563ffffffff8116811461234457600080fd5b600181811c9082168061239a57607f821691505b60208210810361165257634e487b7160e01b600052602260045260246000fd5b634e487b7160e01b600052601160045260246000fd5b808201808211156105dc576105dc6123ba565b634e487b7160e01b600052603260045260246000fd5b818103818111156105dc576105dc6123ba565b634e487b7160e01b600052601260045260246000fd5b60008261243f57634e487b7160e01b600052601260045260246000fd5b500490565b634e487b7160e01b600052602160045260246000fdfea26469706673582212200d06d8c1b4a47197927261ac3874d486166189dbb915a86d7552af5100f2957164736f6c63430008130033",
    "linkReferences": {}
  },
  "methodIdentifiers": {
    "CLOCK_MODE()": "4bf5d7e9",
    "DOMAIN_SEPARATOR()": "3644e515",
    "allowance(address,address)": "dd62ed3e",
    "approve(address,uint256)": "095ea7b3",
    "balanceOf(address)": "70a08231",
    "burn(uint256)": "42966c68",
    "checkpoints(address,uint32)": "f1127ed8",
    "clock()": "91ddadf4",
    "decimals()": "313ce567",
    "decreaseAllowance(address,uint256)": "a457c2d7",
    "delegate(address)": "5c19a95c",
    "delegateBySig(address,uint256,uint256,uint8,bytes32,bytes32)": "c3cda520",
    "delegates(address)": "587cde1e",
    "eip712Domain()": "84b0196e",
    "getPastTotalSupply(uint256)": "8e539e8c",
    "getPastVotes(address,uint256)": "3a46b1a8",
    "getVotes(address)": "9ab24eb0",
    "increaseAllowance(address,uint256)": "39509351",
    "liquidityRamp()": "4dfd324e",
    "mint(address,uint256)": "40c10f19",
    "name()": "06fdde03",
    "nonces(address)": "7ecebe00",
    "numCheckpoints(address)": "6fcfff45",
    "otherToken(address)": "302bb94d",
    "permit(address,address,uint256,uint256,uint8,bytes32,bytes32)": "d505accf",
    "swapManager()": "709d039d",
    "symbol()": "95d89b41",
    "thatToken()": "c451463b",
    "thisToken()": "75f4f18e",
    "totalSupply()": "18160ddd",
    "transfer(address,uint256)": "a9059cbb",
    "transferFrom(address,address,uint256)": "23b872dd"
  },
  "id": 69
}