{
  "abi": [
    {
      "inputs": [],
      "name": "PoolManager__PoolDoesNotExist",
      "type": "error"
    },
    {
      "inputs": [],
      "name": "PoolManager__PoolExists",
      "type": "error"
    },
    {
      "inputs": [],
      "name": "PoolManager__Unauthorized",
      "type": "error"
    },
    {
      "anonymous": false,
      "inputs": [
        {
          "indexed": true,
          "internalType": "address",
          "name": "previousOwner",
          "type": "address"
        },
        {
          "indexed": true,
          "internalType": "address",
          "name": "newOwner",
          "type": "address"
        }
      ],
      "name": "OwnershipTransferred",
      "type": "event"
    },
    {
      "inputs": [
        {
          "internalType": "contract IERC20",
          "name": "_thisToken",
          "type": "address"
        },
        {
          "internalType": "contract IERC20",
          "name": "_thatToken",
          "type": "address"
        }
      ],
      "name": "createPool",
      "outputs": [
        {
          "internalType": "uint256",
          "name": "poolIdx",
          "type": "uint256"
        }
      ],
      "stateMutability": "nonpayable",
      "type": "function"
    },
    {
      "inputs": [
        {
          "internalType": "uint256",
          "name": "poolIdx",
          "type": "uint256"
        }
      ],
      "name": "getTokens",
      "outputs": [
        {
          "internalType": "contract IERC20",
          "name": "thisToken",
          "type": "address"
        },
        {
          "internalType": "contract IERC20",
          "name": "thatToken",
          "type": "address"
        }
      ],
      "stateMutability": "view",
      "type": "function"
    },
    {
      "inputs": [],
      "name": "liquidityRamp",
      "outputs": [
        {
          "internalType": "contract ILiquidityRamp",
          "name": "",
          "type": "address"
        }
      ],
      "stateMutability": "view",
      "type": "function"
    },
    {
      "inputs": [
        {
          "internalType": "uint256",
          "name": "",
          "type": "uint256"
        }
      ],
      "name": "lpTokens",
      "outputs": [
        {
          "internalType": "contract ILPToken",
          "name": "",
          "type": "address"
        }
      ],
      "stateMutability": "view",
      "type": "function"
    },
    {
      "inputs": [],
      "name": "numPools",
      "outputs": [
        {
          "internalType": "uint256",
          "name": "",
          "type": "uint256"
        }
      ],
      "stateMutability": "view",
      "type": "function"
    },
    {
      "inputs": [],
      "name": "owner",
      "outputs": [
        {
          "internalType": "address",
          "name": "",
          "type": "address"
        }
      ],
      "stateMutability": "view",
      "type": "function"
    },
    {
      "inputs": [
        {
          "internalType": "contract IERC20",
          "name": "",
          "type": "address"
        },
        {
          "internalType": "contract IERC20",
          "name": "",
          "type": "address"
        }
      ],
      "name": "poolIdxForPair",
      "outputs": [
        {
          "internalType": "uint256",
          "name": "",
          "type": "uint256"
        }
      ],
      "stateMutability": "view",
      "type": "function"
    },
    {
      "inputs": [],
      "name": "renounceOwnership",
      "outputs": [],
      "stateMutability": "nonpayable",
      "type": "function"
    },
    {
      "inputs": [
        {
          "internalType": "contract ILiquidityRamp",
          "name": "_liquidityRamp",
          "type": "address"
        }
      ],
      "name": "setLiquidityRamp",
      "outputs": [],
      "stateMutability": "nonpayable",
      "type": "function"
    },
    {
      "inputs": [
        {
          "internalType": "address",
          "name": "newOwner",
          "type": "address"
        }
      ],
      "name": "transferOwnership",
      "outputs": [],
      "stateMutability": "nonpayable",
      "type": "function"
    }
  ],
  "bytecode": {
    "object": "0x608060405234801561001057600080fd5b5061001a3361001f565b61006f565b600080546001600160a01b038381166001600160a01b0319831681178455604051919092169283917f8be0079c531659141344cd1fd0a4f28419497f9722a3daafe3b4186f6b6457e09190a35050565b6109a48061007e6000396000f3fe608060405234801561001057600080fd5b506004361061009e5760003560e01c80638ae93f0b116100665780638ae93f0b146101305780638da5cb5b1461015b578063d3c9cc261461016c578063e34336151461019f578063f2fde38b146101b257600080fd5b80631bb5e2dc146100a357806323bae8a7146100e957806335c62bc2146100fe5780634dfd324e14610115578063715018a614610128575b600080fd5b6100cc6100b13660046107b8565b6003602052600090815260409020546001600160a01b031681565b6040516001600160a01b0390911681526020015b60405180910390f35b6100fc6100f73660046107e6565b6101c5565b005b61010760025481565b6040519081526020016100e0565b6001546100cc906001600160a01b031681565b6100fc610277565b61010761013e36600461080a565b600460209081526000928352604080842090915290825290205481565b6000546001600160a01b03166100cc565b61017f61017a3660046107b8565b61028b565b604080516001600160a01b039384168152929091166020830152016100e0565b6101076101ad36600461080a565b61039e565b6100fc6101c03660046107e6565b6105e6565b6101cd610661565b61020b6040518060400160405280601c81526020017f0a506f6f6c4d616e616765723a3a5f6c697175696469747952616d70000000008152506106bb565b6001546001600160a01b031615610235576040516319b828f360e01b815260040160405180910390fd5b600180546001600160a01b0319166001600160a01b0383161790556040805180820190915260048152637365742160e01b6020820152610274906106bb565b50565b61027f610661565b61028960006106fe565b565b60008082158061029c575060025483115b156102ba5760405163cebecd7b60e01b815260040160405180910390fd5b600083815260036020908152604091829020548251633afa78c760e11b815292516001600160a01b039091169283926375f4f18e926004808401938290030181865afa15801561030e573d6000803e3d6000fd5b505050506040513d601f19601f820116820180604052508101906103329190610843565b9250806001600160a01b031663c451463b6040518163ffffffff1660e01b8152600401602060405180830381865afa158015610372573d6000803e3d6000fd5b505050506040513d601f19601f820116820180604052508101906103969190610843565b915050915091565b60006103de6040518060400160405280601a81526020017f0a506f6f6c4d616e616765723a3a637265617465506f6f6c28290000000000008152506106bb565b6001600160a01b03808416600090815260046020908152604080832093861683529290522054156104225760405163aa684b2360e01b815260040160405180910390fd5b60026000815461043190610860565b919050819055905061045a60405180606001604052806033815260200161093c603391396106bb565b60408051808201909152601a81527f61646472657373286c697175696469747952616d70293a20257300000000000060208201526001546104a491906001600160a01b031661074e565b60015460405163027b81f160e21b81526001600160a01b038581166004830152848116602483015260009216906309ee07c4906044016020604051808303816000875af11580156104f9573d6000803e3d6000fd5b505050506040513d601f19601f8201168201806040525081019061051d9190610843565b905061055d6040518060400160405280601e81526020017f6c70546f6b656e735b706f6f6c4964785d203d206e65774c70546f6b656e00008152506106bb565b60008281526003602090815260409182902080546001600160a01b0319166001600160a01b03851617905581516060810190925260318083526105a7929161090b908301396106bb565b506001600160a01b0392831660008181526004602081815260408084209690971683529485528582208490558452848120918152925291902081905590565b6105ee610661565b6001600160a01b0381166106585760405162461bcd60e51b815260206004820152602660248201527f4f776e61626c653a206e6577206f776e657220697320746865207a65726f206160448201526564647265737360d01b60648201526084015b60405180910390fd5b610274816106fe565b6000546001600160a01b031633146102895760405162461bcd60e51b815260206004820181905260248201527f4f776e61626c653a2063616c6c6572206973206e6f7420746865206f776e6572604482015260640161064f565b610274816040516024016106cf91906108cd565b60408051601f198184030181529190526020810180516001600160e01b031663104c13eb60e21b179052610797565b600080546001600160a01b038381166001600160a01b0319831681178455604051919092169283917f8be0079c531659141344cd1fd0a4f28419497f9722a3daafe3b4186f6b6457e09190a35050565b61079382826040516024016107649291906108e0565b60408051601f198184030181529190526020810180516001600160e01b031663319af33360e01b179052610797565b5050565b80516a636f6e736f6c652e6c6f67602083016000808483855afa5050505050565b6000602082840312156107ca57600080fd5b5035919050565b6001600160a01b038116811461027457600080fd5b6000602082840312156107f857600080fd5b8135610803816107d1565b9392505050565b6000806040838503121561081d57600080fd5b8235610828816107d1565b91506020830135610838816107d1565b809150509250929050565b60006020828403121561085557600080fd5b8151610803816107d1565b60006001820161088057634e487b7160e01b600052601160045260246000fd5b5060010190565b6000815180845260005b818110156108ad57602081850181015186830182015201610891565b506000602082860101526020601f19601f83011685010191505092915050565b6020815260006108036020830184610887565b6040815260006108f36040830185610887565b905060018060a01b0383166020830152939250505056fe706f6f6c496478466f72506169725b5f74686973546f6b656e5d5b5f74686174546f6b656e5d203d20706f6f6c4964783b6c697175696469747952616d702e6372656174654c70546f6b656e285f74686973546f6b656e2c205f74686174546f6b656e29a26469706673582212209a3aab139e46a2800abf15311673558d8962375282111c0cc891124b86d87c9e64736f6c63430008130033",
    "linkReferences": {}
  },
  "methodIdentifiers": {
    "createPool(address,address)": "e3433615",
    "getTokens(uint256)": "d3c9cc26",
    "liquidityRamp()": "4dfd324e",
    "lpTokens(uint256)": "1bb5e2dc",
    "numPools()": "35c62bc2",
    "owner()": "8da5cb5b",
    "poolIdxForPair(address,address)": "8ae93f0b",
    "renounceOwnership()": "715018a6",
    "setLiquidityRamp(address)": "23bae8a7",
    "transferOwnership(address)": "f2fde38b"
  },
  "id": 73
}