{
  "abi": [
    {
      "inputs": [],
      "name": "PoolManager__PoolDoesNotExist",
      "type": "error"
    },
    {
      "inputs": [],
      "name": "PoolManager__PoolExists",
      "type": "error"
    },
    {
      "inputs": [],
      "name": "PoolManager__Unauthorized",
      "type": "error"
    },
    {
      "anonymous": false,
      "inputs": [
        {
          "indexed": true,
          "internalType": "address",
          "name": "previousOwner",
          "type": "address"
        },
        {
          "indexed": true,
          "internalType": "address",
          "name": "newOwner",
          "type": "address"
        }
      ],
      "name": "OwnershipTransferred",
      "type": "event"
    },
    {
      "inputs": [
        {
          "internalType": "contract IERC20",
          "name": "_thisToken",
          "type": "address"
        },
        {
          "internalType": "contract IERC20",
          "name": "_thatToken",
          "type": "address"
        }
      ],
      "name": "createPool",
      "outputs": [
        {
          "internalType": "uint256",
          "name": "poolIdx",
          "type": "uint256"
        }
      ],
      "stateMutability": "nonpayable",
      "type": "function"
    },
    {
      "inputs": [
        {
          "internalType": "uint256",
          "name": "poolIdx",
          "type": "uint256"
        }
      ],
      "name": "getTokens",
      "outputs": [
        {
          "internalType": "contract IERC20",
          "name": "thisToken",
          "type": "address"
        },
        {
          "internalType": "contract IERC20",
          "name": "thatToken",
          "type": "address"
        }
      ],
      "stateMutability": "view",
      "type": "function"
    },
    {
      "inputs": [],
      "name": "liquidityRamp",
      "outputs": [
        {
          "internalType": "contract ILiquidityRamp",
          "name": "",
          "type": "address"
        }
      ],
      "stateMutability": "view",
      "type": "function"
    },
    {
      "inputs": [
        {
          "internalType": "uint256",
          "name": "",
          "type": "uint256"
        }
      ],
      "name": "lpTokens",
      "outputs": [
        {
          "internalType": "contract ILPToken",
          "name": "",
          "type": "address"
        }
      ],
      "stateMutability": "view",
      "type": "function"
    },
    {
      "inputs": [],
      "name": "numPools",
      "outputs": [
        {
          "internalType": "uint256",
          "name": "",
          "type": "uint256"
        }
      ],
      "stateMutability": "view",
      "type": "function"
    },
    {
      "inputs": [],
      "name": "owner",
      "outputs": [
        {
          "internalType": "address",
          "name": "",
          "type": "address"
        }
      ],
      "stateMutability": "view",
      "type": "function"
    },
    {
      "inputs": [
        {
          "internalType": "contract IERC20",
          "name": "",
          "type": "address"
        },
        {
          "internalType": "contract IERC20",
          "name": "",
          "type": "address"
        }
      ],
      "name": "poolIdxForPair",
      "outputs": [
        {
          "internalType": "uint256",
          "name": "",
          "type": "uint256"
        }
      ],
      "stateMutability": "view",
      "type": "function"
    },
    {
      "inputs": [],
      "name": "renounceOwnership",
      "outputs": [],
      "stateMutability": "nonpayable",
      "type": "function"
    },
    {
      "inputs": [
        {
          "internalType": "contract ILiquidityRamp",
          "name": "_liquidityRamp",
          "type": "address"
        }
      ],
      "name": "setLiquidityRamp",
      "outputs": [],
      "stateMutability": "nonpayable",
      "type": "function"
    },
    {
      "inputs": [
        {
          "internalType": "address",
          "name": "newOwner",
          "type": "address"
        }
      ],
      "name": "transferOwnership",
      "outputs": [],
      "stateMutability": "nonpayable",
      "type": "function"
    }
  ],
  "bytecode": {
    "object": "0x608060405234801561001057600080fd5b5061001a3361001f565b61006f565b600080546001600160a01b038381166001600160a01b0319831681178455604051919092169283917f8be0079c531659141344cd1fd0a4f28419497f9722a3daafe3b4186f6b6457e09190a35050565b6106a38061007e6000396000f3fe608060405234801561001057600080fd5b506004361061009e5760003560e01c80638ae93f0b116100665780638ae93f0b146101305780638da5cb5b1461015b578063d3c9cc261461016c578063e34336151461019f578063f2fde38b146101b257600080fd5b80631bb5e2dc146100a357806323bae8a7146100e957806335c62bc2146100fe5780634dfd324e14610115578063715018a614610128575b600080fd5b6100cc6100b136600461059e565b6003602052600090815260409020546001600160a01b031681565b6040516001600160a01b0390911681526020015b60405180910390f35b6100fc6100f73660046105cc565b6101c5565b005b61010760025481565b6040519081526020016100e0565b6001546100cc906001600160a01b031681565b6100fc610219565b61010761013e3660046105f0565b600460209081526000928352604080842090915290825290205481565b6000546001600160a01b03166100cc565b61017f61017a36600461059e565b61022d565b604080516001600160a01b039384168152929091166020830152016100e0565b6101076101ad3660046105f0565b610340565b6100fc6101c03660046105cc565b610476565b6101cd6104f4565b6001546001600160a01b0316156101f7576040516319b828f360e01b815260040160405180910390fd5b600180546001600160a01b0319166001600160a01b0392909216919091179055565b6102216104f4565b61022b600061054e565b565b60008082158061023e575060025483115b1561025c5760405163cebecd7b60e01b815260040160405180910390fd5b600083815260036020908152604091829020548251633afa78c760e11b815292516001600160a01b039091169283926375f4f18e926004808401938290030181865afa1580156102b0573d6000803e3d6000fd5b505050506040513d601f19601f820116820180604052508101906102d49190610629565b9250806001600160a01b031663c451463b6040518163ffffffff1660e01b8152600401602060405180830381865afa158015610314573d6000803e3d6000fd5b505050506040513d601f19601f820116820180604052508101906103389190610629565b915050915091565b6001600160a01b038083166000908152600460209081526040808320938516835292905290812054156103865760405163aa684b2360e01b815260040160405180910390fd5b60026000815461039590610646565b918290555060015460405163027b81f160e21b81526001600160a01b0386811660048301528581166024830152929350600092909116906309ee07c4906044016020604051808303816000875af11580156103f4573d6000803e3d6000fd5b505050506040513d601f19601f820116820180604052508101906104189190610629565b600083815260036020908152604080832080546001600160a01b0319166001600160a01b0395861617905596831680835260048083528884209790941683529581528682208590559182528581209481529390525091902081905590565b61047e6104f4565b6001600160a01b0381166104e85760405162461bcd60e51b815260206004820152602660248201527f4f776e61626c653a206e6577206f776e657220697320746865207a65726f206160448201526564647265737360d01b60648201526084015b60405180910390fd5b6104f18161054e565b50565b6000546001600160a01b0316331461022b5760405162461bcd60e51b815260206004820181905260248201527f4f776e61626c653a2063616c6c6572206973206e6f7420746865206f776e657260448201526064016104df565b600080546001600160a01b038381166001600160a01b0319831681178455604051919092169283917f8be0079c531659141344cd1fd0a4f28419497f9722a3daafe3b4186f6b6457e09190a35050565b6000602082840312156105b057600080fd5b5035919050565b6001600160a01b03811681146104f157600080fd5b6000602082840312156105de57600080fd5b81356105e9816105b7565b9392505050565b6000806040838503121561060357600080fd5b823561060e816105b7565b9150602083013561061e816105b7565b809150509250929050565b60006020828403121561063b57600080fd5b81516105e9816105b7565b60006001820161066657634e487b7160e01b600052601160045260246000fd5b506001019056fea264697066735822122025a8833c329d997076cf75a7e9b7d7aa20f5a3ea35bcfde3e79d148f3a4588fe64736f6c63430008130033",
    "linkReferences": {}
  },
  "methodIdentifiers": {
    "createPool(address,address)": "e3433615",
    "getTokens(uint256)": "d3c9cc26",
    "liquidityRamp()": "4dfd324e",
    "lpTokens(uint256)": "1bb5e2dc",
    "numPools()": "35c62bc2",
    "owner()": "8da5cb5b",
    "poolIdxForPair(address,address)": "8ae93f0b",
    "renounceOwnership()": "715018a6",
    "setLiquidityRamp(address)": "23bae8a7",
    "transferOwnership(address)": "f2fde38b"
  },
  "id": 72
}