{
  "abi": [
    {
      "inputs": [],
      "name": "Pool__AlreadyInitialized",
      "type": "error"
    },
    {
      "inputs": [],
      "name": "Pool__AmountIsZero",
      "type": "error"
    },
    {
      "inputs": [],
      "name": "Pool__ForbiddenTokenInteraction",
      "type": "error"
    },
    {
      "inputs": [],
      "name": "Pool__MinLiquidity",
      "type": "error"
    },
    {
      "inputs": [],
      "name": "Pool__OnlyFactory",
      "type": "error"
    },
    {
      "anonymous": false,
      "inputs": [
        {
          "indexed": true,
          "internalType": "address",
          "name": "beneficiary",
          "type": "address"
        },
        {
          "indexed": false,
          "internalType": "uint256",
          "name": "thisIn",
          "type": "uint256"
        },
        {
          "indexed": false,
          "internalType": "uint256",
          "name": "thatIn",
          "type": "uint256"
        },
        {
          "indexed": false,
          "internalType": "uint256",
          "name": "thisOut",
          "type": "uint256"
        },
        {
          "indexed": false,
          "internalType": "uint256",
          "name": "thatOut",
          "type": "uint256"
        }
      ],
      "name": "LiquidityChange",
      "type": "event"
    },
    {
      "inputs": [],
      "name": "INCREMENT",
      "outputs": [
        {
          "internalType": "uint256",
          "name": "",
          "type": "uint256"
        }
      ],
      "stateMutability": "view",
      "type": "function"
    },
    {
      "inputs": [],
      "name": "MIN_LIQUIDITY",
      "outputs": [
        {
          "internalType": "uint256",
          "name": "",
          "type": "uint256"
        }
      ],
      "stateMutability": "view",
      "type": "function"
    },
    {
      "inputs": [
        {
          "internalType": "address",
          "name": "recipient",
          "type": "address"
        }
      ],
      "name": "addLiquidity",
      "outputs": [],
      "stateMutability": "nonpayable",
      "type": "function"
    },
    {
      "inputs": [],
      "name": "factory",
      "outputs": [
        {
          "internalType": "address",
          "name": "",
          "type": "address"
        }
      ],
      "stateMutability": "view",
      "type": "function"
    },
    {
      "inputs": [
        {
          "internalType": "contract ITokenManager",
          "name": "_thisTokenManager",
          "type": "address"
        },
        {
          "internalType": "contract ITokenManager",
          "name": "_thatTokenManager",
          "type": "address"
        },
        {
          "internalType": "address",
          "name": "_factory",
          "type": "address"
        }
      ],
      "name": "initialize",
      "outputs": [],
      "stateMutability": "nonpayable",
      "type": "function"
    },
    {
      "inputs": [],
      "name": "lpToken",
      "outputs": [
        {
          "internalType": "contract ILPToken",
          "name": "",
          "type": "address"
        }
      ],
      "stateMutability": "view",
      "type": "function"
    },
    {
      "inputs": [
        {
          "internalType": "contract IERC20",
          "name": "token",
          "type": "address"
        },
        {
          "internalType": "address",
          "name": "recipient",
          "type": "address"
        }
      ],
      "name": "recoverTokens",
      "outputs": [],
      "stateMutability": "nonpayable",
      "type": "function"
    },
    {
      "inputs": [
        {
          "internalType": "address",
          "name": "recipient",
          "type": "address"
        }
      ],
      "name": "redeemLiquidity",
      "outputs": [
        {
          "internalType": "uint256",
          "name": "thisOut",
          "type": "uint256"
        },
        {
          "internalType": "uint256",
          "name": "thatOut",
          "type": "uint256"
        }
      ],
      "stateMutability": "nonpayable",
      "type": "function"
    },
    {
      "inputs": [
        {
          "internalType": "contract IERC20",
          "name": "token",
          "type": "address"
        },
        {
          "internalType": "address",
          "name": "recipient",
          "type": "address"
        }
      ],
      "name": "skim",
      "outputs": [],
      "stateMutability": "nonpayable",
      "type": "function"
    },
    {
      "inputs": [
        {
          "internalType": "address",
          "name": "recipient",
          "type": "address"
        }
      ],
      "name": "swap",
      "outputs": [],
      "stateMutability": "nonpayable",
      "type": "function"
    },
    {
      "inputs": [
        {
          "internalType": "address",
          "name": "recipient",
          "type": "address"
        },
        {
          "internalType": "address",
          "name": "routingAgent",
          "type": "address"
        }
      ],
      "name": "swap",
      "outputs": [],
      "stateMutability": "nonpayable",
      "type": "function"
    },
    {
      "inputs": [],
      "name": "thatBalance",
      "outputs": [
        {
          "internalType": "uint256",
          "name": "",
          "type": "uint256"
        }
      ],
      "stateMutability": "view",
      "type": "function"
    },
    {
      "inputs": [],
      "name": "thatPrice",
      "outputs": [
        {
          "internalType": "uint256",
          "name": "",
          "type": "uint256"
        }
      ],
      "stateMutability": "view",
      "type": "function"
    },
    {
      "inputs": [],
      "name": "thatToken",
      "outputs": [
        {
          "internalType": "contract IERC20",
          "name": "",
          "type": "address"
        }
      ],
      "stateMutability": "view",
      "type": "function"
    },
    {
      "inputs": [],
      "name": "thatTokenManager",
      "outputs": [
        {
          "internalType": "contract ITokenManager",
          "name": "",
          "type": "address"
        }
      ],
      "stateMutability": "view",
      "type": "function"
    },
    {
      "inputs": [],
      "name": "thisBalance",
      "outputs": [
        {
          "internalType": "uint256",
          "name": "",
          "type": "uint256"
        }
      ],
      "stateMutability": "view",
      "type": "function"
    },
    {
      "inputs": [],
      "name": "thisPrice",
      "outputs": [
        {
          "internalType": "uint256",
          "name": "",
          "type": "uint256"
        }
      ],
      "stateMutability": "view",
      "type": "function"
    },
    {
      "inputs": [],
      "name": "thisToken",
      "outputs": [
        {
          "internalType": "contract IERC20",
          "name": "",
          "type": "address"
        }
      ],
      "stateMutability": "view",
      "type": "function"
    },
    {
      "inputs": [],
      "name": "thisTokenManager",
      "outputs": [
        {
          "internalType": "contract ITokenManager",
          "name": "",
          "type": "address"
        }
      ],
      "stateMutability": "view",
      "type": "function"
    }
  ],
  "bytecode": {
    "object": "0x608060405234801561001057600080fd5b506001600055615599806100256000396000f3fe60806040523480156200001157600080fd5b5060043610620001395760003560e01c8063712b772f11620000bb578063c45a0155116200007a578063c45a0155146200024d578063ce7f0cc31462000261578063e3412e3d146200026b578063efaa89231462000282578063fa175600146200029657600080fd5b8063712b772f146200020157806375f4f18e146200021857806378b4103a1462000222578063c0c53b8b146200022c578063c451463b146200024357600080fd5b8063244addfe1162000108578063244addfe146200019557806327f3a72a146200019f5780635fcbd28514620001a95780636b76484e14620001d65780636e8378a714620001ed57600080fd5b806303438dd0146200013e578063056097ac1462000157578063112ed88e146200016e57806321b77d63146200018b575b600080fd5b620001556200014f36600462002e35565b620002c3565b005b620001556200016836600462002e55565b62000360565b6200017860035481565b6040519081526020015b60405180910390f35b620001786103e881565b6200017860045481565b620001786200057a565b600254620001bd906001600160a01b031681565b6040516001600160a01b03909116815260200162000182565b62000155620001e736600462002e55565b620005f0565b600654620001bd906001600160a01b031681565b620001556200021236600462002e55565b62000615565b620001bd62000758565b62000178620007c9565b620001556200023d36600462002e93565b62000814565b620001bd620009bc565b600154620001bd906001600160a01b031681565b6200017862000a07565b620001556200027c36600462002e35565b62000a1f565b600554620001bd906001600160a01b031681565b620002ad620002a736600462002e35565b62001424565b6040805192835260208301919091520162000182565b620002cd620018be565b6200035281600160009054906101000a90046001600160a01b03166001600160a01b031663b88fd16e6040518163ffffffff1660e01b8152600401602060405180830381865afa15801562000326573d6000803e3d6000fd5b505050506040513d601f19601f820116820180604052508101906200034c919062002ee5565b6200191d565b6200035d6001600055565b50565b6001546001600160a01b031633146200038c57604051633035e8b560e01b815260040160405180910390fd5b600260009054906101000a90046001600160a01b03166001600160a01b03166375f4f18e6040518163ffffffff1660e01b8152600401602060405180830381865afa158015620003e0573d6000803e3d6000fd5b505050506040513d601f19601f8201168201806040525081019062000406919062002ee5565b6001600160a01b0316826001600160a01b03161480620004b05750600260009054906101000a90046001600160a01b03166001600160a01b031663c451463b6040518163ffffffff1660e01b8152600401602060405180830381865afa15801562000475573d6000803e3d6000fd5b505050506040513d601f19601f820116820180604052508101906200049b919062002ee5565b6001600160a01b0316826001600160a01b0316145b80620004c957506002546001600160a01b038381169116145b15620004e85760405163d0a066eb60e01b815260040160405180910390fd5b6040516370a0823160e01b81523060048201526000906001600160a01b038416906370a0823190602401602060405180830381865afa15801562000530573d6000803e3d6000fd5b505050506040513d601f19601f8201168201806040525081019062000556919062002f05565b905080156200057557620005756001600160a01b0384168383620028ac565b505050565b6005546040805163ad7a672f60e01b815290516000926001600160a01b03169163ad7a672f9160048083019260209291908290030181865afa158015620005c5573d6000803e3d6000fd5b505050506040513d601f19601f82011682018060405250810190620005eb919062002f05565b905090565b620005fa620018be565b6200060682826200191d565b620006116001600055565b5050565b600260009054906101000a90046001600160a01b03166001600160a01b03166375f4f18e6040518163ffffffff1660e01b8152600401602060405180830381865afa15801562000669573d6000803e3d6000fd5b505050506040513d601f19601f820116820180604052508101906200068f919062002ee5565b6001600160a01b0316826001600160a01b031614158015620004c95750600260009054906101000a90046001600160a01b03166001600160a01b031663c451463b6040518163ffffffff1660e01b8152600401602060405180830381865afa15801562000700573d6000803e3d6000fd5b505050506040513d601f19601f8201168201806040525081019062000726919062002ee5565b6001600160a01b0316826001600160a01b031614620004e85760405163d0a066eb60e01b815260040160405180910390fd5b60025460408051633afa78c760e11b815290516000926001600160a01b0316916375f4f18e9160048083019260209291908290030181865afa158015620007a3573d6000803e3d6000fd5b505050506040513d601f19601f82011682018060405250810190620005eb919062002ee5565b6006546040805163ad7a672f60e01b815290516000926001600160a01b03169163ad7a672f9160048083019260209291908290030181865afa158015620005c5573d6000803e3d6000fd5b60085460ff16156200083957604051630d2bb64560e01b815260040160405180910390fd5b80600160006101000a8154816001600160a01b0302191690836001600160a01b03160217905550826001600160a01b031663fc0c546a6040518163ffffffff1660e01b8152600401602060405180830381865afa1580156200089f573d6000803e3d6000fd5b505050506040513d601f19601f82011682018060405250810190620008c5919062002ee5565b826001600160a01b031663fc0c546a6040518163ffffffff1660e01b8152600401602060405180830381865afa15801562000904573d6000803e3d6000fd5b505050506040513d601f19601f820116820180604052508101906200092a919062002ee5565b604051620009389062002e11565b6001600160a01b03928316815291166020820152604001604051809103906000f0801580156200096c573d6000803e3d6000fd5b50600280546001600160a01b03199081166001600160a01b03938416179091556005805482169583169590951790945560068054909416921691909117909155506008805460ff19166001179055565b6002546040805163c451463b60e01b815290516000926001600160a01b03169163c451463b9160048083019260209291908290030181865afa158015620007a3573d6000803e3d6000fd5b62000a1c6064670de0b6b3a764000062002f4b565b81565b62000a29620018be565b60025460408051633afa78c760e11b815290516000926001600160a01b0316916375f4f18e9160048083019260209291908290030181865afa15801562000a74573d6000803e3d6000fd5b505050506040513d601f19601f8201168201806040525081019062000a9a919062002ee5565b6040516370a0823160e01b81523060048201526001600160a01b0391909116906370a0823190602401602060405180830381865afa15801562000ae1573d6000803e3d6000fd5b505050506040513d601f19601f8201168201806040525081019062000b07919062002f05565b90508060000362000b2b5760405163ced6e79560e01b815260040160405180910390fd5b6002546040805163c451463b60e01b815290516000926001600160a01b03169163c451463b9160048083019260209291908290030181865afa15801562000b76573d6000803e3d6000fd5b505050506040513d601f19601f8201168201806040525081019062000b9c919062002ee5565b6040516370a0823160e01b81523060048201526001600160a01b0391909116906370a0823190602401602060405180830381865afa15801562000be3573d6000803e3d6000fd5b505050506040513d601f19601f8201168201806040525081019062000c09919062002f05565b90508060000362000c2d5760405163ced6e79560e01b815260040160405180910390fd5b600260009054906101000a90046001600160a01b03166001600160a01b03166375f4f18e6040518163ffffffff1660e01b8152600401602060405180830381865afa15801562000c81573d6000803e3d6000fd5b505050506040513d601f19601f8201168201806040525081019062000ca7919062002ee5565b60055460405163095ea7b360e01b81526001600160a01b039283169263095ea7b39262000cdc92911690869060040162002f6e565b6020604051808303816000875af115801562000cfc573d6000803e3d6000fd5b505050506040513d601f19601f8201168201806040525081019062000d22919062002f87565b50600260009054906101000a90046001600160a01b03166001600160a01b031663c451463b6040518163ffffffff1660e01b8152600401602060405180830381865afa15801562000d77573d6000803e3d6000fd5b505050506040513d601f19601f8201168201806040525081019062000d9d919062002ee5565b60065460405163095ea7b360e01b81526001600160a01b039283169263095ea7b39262000dd292911690859060040162002f6e565b6020604051808303816000875af115801562000df2573d6000803e3d6000fd5b505050506040513d601f19601f8201168201806040525081019062000e18919062002f87565b5060055460405163b6b55f2560e01b8152600481018490526001600160a01b039091169063b6b55f2590602401600060405180830381600087803b15801562000e6057600080fd5b505af115801562000e75573d6000803e3d6000fd5b505060065460405163b6b55f2560e01b8152600481018590526001600160a01b03909116925063b6b55f259150602401600060405180830381600087803b15801562000ec057600080fd5b505af115801562000ed5573d6000803e3d6000fd5b5050505062000fe3600660009054906101000a90046001600160a01b03166001600160a01b031663ad7a672f6040518163ffffffff1660e01b8152600401602060405180830381865afa15801562000f31573d6000803e3d6000fd5b505050506040513d601f19601f8201168201806040525081019062000f57919062002f05565b600560009054906101000a90046001600160a01b03166001600160a01b031663ad7a672f6040518163ffffffff1660e01b8152600401602060405180830381865afa15801562000fab573d6000803e3d6000fd5b505050506040513d601f19601f8201168201806040525081019062000fd1919062002f05565b62000fdd919062002fab565b62002906565b600755600254604080516318160ddd60e01b815290516001600160a01b03909216916318160ddd916004808201926020929091908290030181865afa15801562001031573d6000803e3d6000fd5b505050506040513d601f19601f8201168201806040525081019062001057919062002f05565b600003620011885760006200107162000fdd838562002fab565b90506103e8811162001096576040516377eb3b4f60e11b815260040160405180910390fd5b620010a2838362002a12565b6002546040516340c10f1960e01b81526001600160a01b03909116906340c10f1990620010d89083906103e89060040162002f6e565b600060405180830381600087803b158015620010f357600080fd5b505af115801562001108573d6000803e3d6000fd5b50506002546001600160a01b031691506340c10f199050856200112e6103e88562002fcd565b6040518363ffffffff1660e01b81526004016200114d92919062002f6e565b600060405180830381600087803b1580156200116857600080fd5b505af11580156200117d573d6000803e3d6000fd5b5050505050620013d5565b6005546040805163ad7a672f60e01b815290516000926001600160a01b03169163ad7a672f9160048083019260209291908290030181865afa158015620011d3573d6000803e3d6000fd5b505050506040513d601f19601f82011682018060405250810190620011f9919062002f05565b6200120d670de0b6b3a76400008562002fab565b62001219919062002f4b565b90506000600660009054906101000a90046001600160a01b03166001600160a01b031663ad7a672f6040518163ffffffff1660e01b8152600401602060405180830381865afa15801562001271573d6000803e3d6000fd5b505050506040513d601f19601f8201168201806040525081019062001297919062002f05565b620012ab670de0b6b3a76400008562002fab565b620012b7919062002f4b565b90506000620012c7838362002a75565b90506000670de0b6b3a764000082600260009054906101000a90046001600160a01b03166001600160a01b03166318160ddd6040518163ffffffff1660e01b8152600401602060405180830381865afa15801562001329573d6000803e3d6000fd5b505050506040513d601f19601f820116820180604052508101906200134f919062002f05565b6200135b919062002fab565b62001367919062002f4b565b6002546040516340c10f1960e01b81529192506001600160a01b0316906340c10f19906200139c908a90859060040162002f6e565b600060405180830381600087803b158015620013b757600080fd5b505af1158015620013cc573d6000803e3d6000fd5b50505050505050505b60408051838152602081018390526000818301819052606082015290516001600160a01b0385169160008051602062005544833981519152919081900360800190a250506200035d6001600055565b60008062001431620018be565b6002546040516370a0823160e01b81523060048201526000916001600160a01b0316906370a0823190602401602060405180830381865afa1580156200147b573d6000803e3d6000fd5b505050506040513d601f19601f82011682018060405250810190620014a1919062002f05565b905080600003620014c55760405163ced6e79560e01b815260040160405180910390fd5b600260009054906101000a90046001600160a01b03166001600160a01b03166318160ddd6040518163ffffffff1660e01b8152600401602060405180830381865afa15801562001519573d6000803e3d6000fd5b505050506040513d601f19601f820116820180604052508101906200153f919062002f05565b600560009054906101000a90046001600160a01b03166001600160a01b031663ad7a672f6040518163ffffffff1660e01b8152600401602060405180830381865afa15801562001593573d6000803e3d6000fd5b505050506040513d601f19601f82011682018060405250810190620015b9919062002f05565b620015c5908362002fab565b620015d1919062002f4b565b9250600260009054906101000a90046001600160a01b03166001600160a01b03166318160ddd6040518163ffffffff1660e01b8152600401602060405180830381865afa15801562001627573d6000803e3d6000fd5b505050506040513d601f19601f820116820180604052508101906200164d919062002f05565b600660009054906101000a90046001600160a01b03166001600160a01b031663ad7a672f6040518163ffffffff1660e01b8152600401602060405180830381865afa158015620016a1573d6000803e3d6000fd5b505050506040513d601f19601f82011682018060405250810190620016c7919062002f05565b620016d3908362002fab565b620016df919062002f4b565b600254604051630852cd8d60e31b8152600481018490529193506001600160a01b0316906342966c6890602401600060405180830381600087803b1580156200172757600080fd5b505af11580156200173c573d6000803e3d6000fd5b505060055460405163f3fef3a360e01b81526001600160a01b03909116925063f3fef3a3915062001774908790879060040162002f6e565b600060405180830381600087803b1580156200178f57600080fd5b505af1158015620017a4573d6000803e3d6000fd5b505060065460405163f3fef3a360e01b81526001600160a01b03909116925063f3fef3a39150620017dc908790869060040162002f6e565b600060405180830381600087803b158015620017f757600080fd5b505af11580156200180c573d6000803e3d6000fd5b5050505062001868600660009054906101000a90046001600160a01b03166001600160a01b031663ad7a672f6040518163ffffffff1660e01b8152600401602060405180830381865afa15801562000f31573d6000803e3d6000fd5b6007556040805160008082526020820152908101849052606081018390526001600160a01b03851690600080516020620055448339815191529060800160405180910390a250620018b96001600055565b915091565b600260005403620019165760405162461bcd60e51b815260206004820152601f60248201527f5265656e7472616e637947756172643a207265656e7472616e742063616c6c0060448201526064015b60405180910390fd5b6002600055565b6005546040805163ad7a672f60e01b815290516000926001600160a01b03169163ad7a672f9160048083019260209291908290030181865afa15801562001968573d6000803e3d6000fd5b505050506040513d601f19601f820116820180604052508101906200198e919062002f05565b90506000600660009054906101000a90046001600160a01b03166001600160a01b031663ad7a672f6040518163ffffffff1660e01b8152600401602060405180830381865afa158015620019e6573d6000803e3d6000fd5b505050506040513d601f19601f8201168201806040525081019062001a0c919062002f05565b6004805460035460025460408051633afa78c760e11b81529051959650929491936000936001600160a01b03909216926375f4f18e9280830192602092918290030181865afa15801562001a64573d6000803e3d6000fd5b505050506040513d601f19601f8201168201806040525081019062001a8a919062002ee5565b6040516370a0823160e01b81523060048201526001600160a01b0391909116906370a0823190602401602060405180830381865afa15801562001ad1573d6000803e3d6000fd5b505050506040513d601f19601f8201168201806040525081019062001af7919062002f05565b905080156200216a57600062001b0f85878662002a91565b9050600062001b3f828662001b2d670de0b6b3a76400008762002fab565b62001b39919062002f4b565b62002a75565b905062001b7a670de0b6b3a764000062001b5a878462002fab565b62001b66919062002f4b565b62001b7390600162002fe3565b8462002a75565b925062001b88838862002fe3565b965062001b96818762002fcd565b955081810362001bb25762001bac878762002a12565b62001bf0565b62001bd28462001bcc6064670de0b6b3a764000062002f4b565b62002b10565b9350600062001be388888762002a91565b111562001bf05760038490555b600062001c0262000fdd888a62002fab565b905060006007548262001c16919062002fcd565b600160009054906101000a90046001600160a01b03166001600160a01b031663c614368e6040518163ffffffff1660e01b8152600401602060405180830381865afa15801562001c6a573d6000803e3d6000fd5b505050506040513d601f19601f8201168201806040525081019062001c90919062002f05565b62001c9c919062002fab565b905060008162001cb5670de0b6b3a76400008562002fab565b62001cc1919062002fcd565b600260009054906101000a90046001600160a01b03166001600160a01b03166318160ddd6040518163ffffffff1660e01b8152600401602060405180830381865afa15801562001d15573d6000803e3d6000fd5b505050506040513d601f19601f8201168201806040525081019062001d3b919062002f05565b62001d47908462002fab565b62001d53919062002f4b565b60078490559050801562001f5c57600154604080516302f1ce0160e01b815290516000926001600160a01b0316916302f1ce019160048083019260209291908290030181865afa15801562001dac573d6000803e3d6000fd5b505050506040513d601f19601f8201168201806040525081019062001dd2919062002f05565b9050801562001e8b576000670de0b6b3a764000062001df2838562002fab565b62001dfe919062002f4b565b9050600260009054906101000a90046001600160a01b03166001600160a01b03166340c10f198e836040518363ffffffff1660e01b815260040162001e4592919062002f6e565b600060405180830381600087803b15801562001e6057600080fd5b505af115801562001e75573d6000803e3d6000fd5b50505050808362001e87919062002fcd565b9250505b60025460015460408051635c47e8b760e11b815290516001600160a01b03938416936340c10f1993169163b88fd16e9160048083019260209291908290030181865afa15801562001ee0573d6000803e3d6000fd5b505050506040513d601f19601f8201168201806040525081019062001f06919062002ee5565b846040518363ffffffff1660e01b815260040162001f2692919062002f6e565b600060405180830381600087803b15801562001f4157600080fd5b505af115801562001f56573d6000803e3d6000fd5b50505050505b600260009054906101000a90046001600160a01b03166001600160a01b03166375f4f18e6040518163ffffffff1660e01b8152600401602060405180830381865afa15801562001fb0573d6000803e3d6000fd5b505050506040513d601f19601f8201168201806040525081019062001fd6919062002ee5565b60055460405163095ea7b360e01b81526001600160a01b039283169263095ea7b3926200200b929116908a9060040162002f6e565b6020604051808303816000875af11580156200202b573d6000803e3d6000fd5b505050506040513d601f19601f8201168201806040525081019062002051919062002f87565b5060055460405163b6b55f2560e01b8152600481018890526001600160a01b039091169063b6b55f2590602401600060405180830381600087803b1580156200209957600080fd5b505af1158015620020ae573d6000803e3d6000fd5b505060065460405163f3fef3a360e01b81526001600160a01b03909116925063f3fef3a39150620020e6908f90889060040162002f6e565b600060405180830381600087803b1580156200210157600080fd5b505af115801562002116573d6000803e3d6000fd5b50506040805189815260006020820181905291810191909152606081018790526001600160a01b038f16925060008051602062005544833981519152915060800160405180910390a25050505050620028a3565b6002546040805163c451463b60e01b815290516000926001600160a01b03169163c451463b9160048083019260209291908290030181865afa158015620021b5573d6000803e3d6000fd5b505050506040513d601f19601f82011682018060405250810190620021db919062002ee5565b6040516370a0823160e01b81523060048201526001600160a01b0391909116906370a0823190602401602060405180830381865afa15801562002222573d6000803e3d6000fd5b505050506040513d601f19601f8201168201806040525081019062002248919062002f05565b90508015620028995760006200226087878662002a91565b905060006200227e828662001b2d670de0b6b3a76400008762002fab565b905062002299670de0b6b3a764000062001b5a878462002fab565b9250620022a7818962002fcd565b9750620022b5838862002fe3565b9650818103620022d157620022cb888862002a12565b62002309565b620022eb8662001bcc6064670de0b6b3a764000062002f4b565b95506000620022fc888a8962002a91565b1115620023095760048690555b60006200231b62000fdd898b62002fab565b90506000600754826200232f919062002fcd565b600160009054906101000a90046001600160a01b03166001600160a01b031663c614368e6040518163ffffffff1660e01b8152600401602060405180830381865afa15801562002383573d6000803e3d6000fd5b505050506040513d601f19601f82011682018060405250810190620023a9919062002f05565b620023b5919062002fab565b9050600081620023ce670de0b6b3a76400008562002fab565b620023da919062002fcd565b600260009054906101000a90046001600160a01b03166001600160a01b03166318160ddd6040518163ffffffff1660e01b8152600401602060405180830381865afa1580156200242e573d6000803e3d6000fd5b505050506040513d601f19601f8201168201806040525081019062002454919062002f05565b62002460908462002fab565b6200246c919062002f4b565b6007849055905080156200267557600154604080516302f1ce0160e01b815290516000926001600160a01b0316916302f1ce019160048083019260209291908290030181865afa158015620024c5573d6000803e3d6000fd5b505050506040513d601f19601f82011682018060405250810190620024eb919062002f05565b90508015620025a4576000670de0b6b3a76400006200250b838562002fab565b62002517919062002f4b565b9050600260009054906101000a90046001600160a01b03166001600160a01b03166340c10f198f836040518363ffffffff1660e01b81526004016200255e92919062002f6e565b600060405180830381600087803b1580156200257957600080fd5b505af11580156200258e573d6000803e3d6000fd5b505050508083620025a0919062002fcd565b9250505b60025460015460408051635c47e8b760e11b815290516001600160a01b03938416936340c10f1993169163b88fd16e9160048083019260209291908290030181865afa158015620025f9573d6000803e3d6000fd5b505050506040513d601f19601f820116820180604052508101906200261f919062002ee5565b846040518363ffffffff1660e01b81526004016200263f92919062002f6e565b600060405180830381600087803b1580156200265a57600080fd5b505af11580156200266f573d6000803e3d6000fd5b50505050505b600260009054906101000a90046001600160a01b03166001600160a01b031663c451463b6040518163ffffffff1660e01b8152600401602060405180830381865afa158015620026c9573d6000803e3d6000fd5b505050506040513d601f19601f82011682018060405250810190620026ef919062002ee5565b60065460405163095ea7b360e01b81526001600160a01b039283169263095ea7b39262002724929116908a9060040162002f6e565b6020604051808303816000875af115801562002744573d6000803e3d6000fd5b505050506040513d601f19601f820116820180604052508101906200276a919062002f87565b5060065460405163b6b55f2560e01b8152600481018890526001600160a01b039091169063b6b55f2590602401600060405180830381600087803b158015620027b257600080fd5b505af1158015620027c7573d6000803e3d6000fd5b50505050600560009054906101000a90046001600160a01b03166001600160a01b031663f3fef3a38e866040518363ffffffff1660e01b81526004016200281092919062002f6e565b600060405180830381600087803b1580156200282b57600080fd5b505af115801562002840573d6000803e3d6000fd5b505050508c6001600160a01b0316600080516020620055448339815191526000888760006040516200288b949392919093845260208401929092526040830152606082015260800190565b60405180910390a250505050505b5050505050505050565b50505050505050565b620005758363a9059cbb60e01b8484604051602401620028ce92919062002f6e565b60408051601f198184030181529190526020810180516001600160e01b03166001600160e01b03199093169290921790915262002b46565b6000816000036200291957506000919050565b60006001620029288462002c1f565b901c6001901b9050600181848162002944576200294462002f1f565b048201901c905060018184816200295f576200295f62002f1f565b048201901c905060018184816200297a576200297a62002f1f565b048201901c9050600181848162002995576200299562002f1f565b048201901c90506001818481620029b057620029b062002f1f565b048201901c90506001818481620029cb57620029cb62002f1f565b048201901c90506001818481620029e657620029e662002f1f565b048201901c905062002a0b8182858162002a045762002a0462002f1f565b0462002a75565b9392505050565b62002a528262002a2b670de0b6b3a76400008462002fab565b62002a37919062002f4b565b62002a4c6064670de0b6b3a764000062002f4b565b62002cbb565b60035562002a6e8162002a2b670de0b6b3a76400008562002fab565b6004555050565b600081831062002a86578162002a88565b825b90505b92915050565b600062002a9f848362002fab565b62002ab384670de0b6b3a764000062002fab565b1062002ac25750600062002a0b565b62002acf82600262002fab565b62002ae3670de0b6b3a76400008562002fab565b62002aef919062002f4b565b62002afc60028662002f4b565b62002b08919062002fcd565b949350505050565b600062002b2682670de0b6b3a764000062002fe3565b62002b3a670de0b6b3a76400008562002fab565b62002a88919062002f4b565b600062002b9d826040518060400160405280602081526020017f5361666545524332303a206c6f772d6c6576656c2063616c6c206661696c6564815250856001600160a01b031662002cde9092919063ffffffff16565b80519091501562000575578080602001905181019062002bbe919062002f87565b620005755760405162461bcd60e51b815260206004820152602a60248201527f5361666545524332303a204552433230206f7065726174696f6e20646964206e6044820152691bdd081cdd58d8d9595960b21b60648201526084016200190d565b600080608083901c1562002c3557608092831c92015b604083901c1562002c4857604092831c92015b602083901c1562002c5b57602092831c92015b601083901c1562002c6e57601092831c92015b600883901c1562002c8157600892831c92015b600483901c1562002c9457600492831c92015b600283901c1562002ca757600292831c92015b600183901c1562002a8b5760010192915050565b6000670de0b6b3a764000062002cd2838262002fe3565b62002b3a908562002fab565b606062002b08848460008585600080866001600160a01b0316858760405162002d0891906200301f565b60006040518083038185875af1925050503d806000811462002d47576040519150601f19603f3d011682016040523d82523d6000602084013e62002d4c565b606091505b509150915062002d5f8783838762002d6a565b979650505050505050565b6060831562002dde57825160000362002dd6576001600160a01b0385163b62002dd65760405162461bcd60e51b815260206004820152601d60248201527f416464726573733a2063616c6c20746f206e6f6e2d636f6e747261637400000060448201526064016200190d565b508162002b08565b62002b08838381511562002df55781518083602001fd5b8060405162461bcd60e51b81526004016200190d91906200303d565b6124d1806200307383390190565b6001600160a01b03811681146200035d57600080fd5b60006020828403121562002e4857600080fd5b813562002a0b8162002e1f565b6000806040838503121562002e6957600080fd5b823562002e768162002e1f565b9150602083013562002e888162002e1f565b809150509250929050565b60008060006060848603121562002ea957600080fd5b833562002eb68162002e1f565b9250602084013562002ec88162002e1f565b9150604084013562002eda8162002e1f565b809150509250925092565b60006020828403121562002ef857600080fd5b815162002a0b8162002e1f565b60006020828403121562002f1857600080fd5b5051919050565b634e487b7160e01b600052601260045260246000fd5b634e487b7160e01b600052601160045260246000fd5b60008262002f6957634e487b7160e01b600052601260045260246000fd5b500490565b6001600160a01b03929092168252602082015260400190565b60006020828403121562002f9a57600080fd5b8151801515811462002a0b57600080fd5b600081600019048311821515161562002fc85762002fc862002f35565b500290565b8181038181111562002a8b5762002a8b62002f35565b8082018082111562002a8b5762002a8b62002f35565b60005b838110156200301657818101518382015260200162002ffc565b50506000910152565b600082516200303381846020870162002ff9565b9190910192915050565b60208152600082518060208401526200305e81604085016020870162002ff9565b601f01601f1916919091016040019291505056fe6101806040523480156200001257600080fd5b50604051620024d1380380620024d183398101604081905262000035916200020b565b6040518060400160405280601181526020017029ba30b4b92bb0bc902628102a37b5b2b760791b81525080604051806040016040528060018152602001603160f81b8152506040518060400160405280601181526020017029ba30b4b92bb0bc902628102a37b5b2b760791b8152506040518060400160405280600681526020016505357592d4c560d41b8152508160039081620000d49190620002e8565b506004620000e38282620002e8565b5050825160209384012082519284019290922060e08390526101008190524660a0818152604080517f8b73c3c69bb8fe3d512ecc4cf759cc79239f7b179b0ffacaa9a75d522b39400f818901819052818301979097526060810194909452608080850193909352308483018190528151808603909301835260c0948501909152815191909601209052929092526101205250620001829050336200019c565b6001600160a01b03918216610140521661016052620003b4565b600a80546001600160a01b038381166001600160a01b0319831681179093556040519116919082907f8be0079c531659141344cd1fd0a4f28419497f9722a3daafe3b4186f6b6457e090600090a35050565b80516001600160a01b03811681146200020657600080fd5b919050565b600080604083850312156200021f57600080fd5b6200022a83620001ee565b91506200023a60208401620001ee565b90509250929050565b634e487b7160e01b600052604160045260246000fd5b600181811c908216806200026e57607f821691505b6020821081036200028f57634e487b7160e01b600052602260045260246000fd5b50919050565b601f821115620002e357600081815260208120601f850160051c81016020861015620002be5750805b601f850160051c820191505b81811015620002df57828155600101620002ca565b5050505b505050565b81516001600160401b0381111562000304576200030462000243565b6200031c8162000315845462000259565b8462000295565b602080601f8311600181146200035457600084156200033b5750858301515b600019600386901b1c1916600185901b178555620002df565b600085815260208120601f198616915b82811015620003855788860151825594840194600190910190840162000364565b5085821015620003a45787850151600019600388901b60f8161c191681555b5050505050600190811b01905550565b60805160a05160c05160e051610100516101205161014051610160516120b76200041a60003960006104240152600061035f01526000610fde0152600061102d0152600061100801526000610f6101526000610f8b01526000610fb501526120b76000f3fe608060405234801561001057600080fd5b50600436106101da5760003560e01c806375f4f18e11610104578063a457c2d7116100a2578063d505accf11610071578063d505accf14610446578063dd62ed3e14610459578063f1127ed81461046c578063f2fde38b146104a957600080fd5b8063a457c2d7146103e6578063a9059cbb146103f9578063c3cda5201461040c578063c451463b1461041f57600080fd5b80638da5cb5b116100de5780638da5cb5b146103a75780638e539e8c146103b857806395d89b41146103cb5780639ab24eb0146103d357600080fd5b806375f4f18e1461035a57806379cc6790146103815780637ecebe001461039457600080fd5b80633a46b1a81161017c5780635c19a95c1161014b5780635c19a95c146102ee5780636fcfff451461030157806370a0823114610329578063715018a61461035257600080fd5b80633a46b1a81461026f57806340c10f191461028257806342966c6814610297578063587cde1e146102aa57600080fd5b806323b872dd116101b857806323b872dd14610232578063313ce567146102455780633644e51514610254578063395093511461025c57600080fd5b806306fdde03146101df578063095ea7b3146101fd57806318160ddd14610220575b600080fd5b6101e76104bc565b6040516101f49190611d63565b60405180910390f35b61021061020b366004611dcd565b61054e565b60405190151581526020016101f4565b6002545b6040519081526020016101f4565b610210610240366004611df7565b610568565b604051601281526020016101f4565b61022461058c565b61021061026a366004611dcd565b61059b565b61022461027d366004611dcd565b6105bd565b610295610290366004611dcd565b61063c565b005b6102956102a5366004611e33565b610652565b6102d66102b8366004611e4c565b6001600160a01b039081166000908152600760205260409020541690565b6040516001600160a01b0390911681526020016101f4565b6102956102fc366004611e4c565b61065f565b61031461030f366004611e4c565b610669565b60405163ffffffff90911681526020016101f4565b610224610337366004611e4c565b6001600160a01b031660009081526020819052604090205490565b61029561068b565b6102d67f000000000000000000000000000000000000000000000000000000000000000081565b61029561038f366004611dcd565b61069f565b6102246103a2366004611e4c565b6106b4565b600a546001600160a01b03166102d6565b6102246103c6366004611e33565b6106d2565b6101e761072e565b6102246103e1366004611e4c565b61073d565b6102106103f4366004611dcd565b6107c4565b610210610407366004611dcd565b61083f565b61029561041a366004611e78565b61084d565b6102d67f000000000000000000000000000000000000000000000000000000000000000081565b610295610454366004611ed0565b610983565b610224610467366004611f3a565b610ae7565b61047f61047a366004611f6d565b610b12565b60408051825163ffffffff1681526020928301516001600160e01b031692810192909252016101f4565b6102956104b7366004611e4c565b610b96565b6060600380546104cb90611fad565b80601f01602080910402602001604051908101604052809291908181526020018280546104f790611fad565b80156105445780601f1061051957610100808354040283529160200191610544565b820191906000526020600020905b81548152906001019060200180831161052757829003601f168201915b5050505050905090565b60003361055c818585610c0c565b60019150505b92915050565b600033610576858285610d30565b610581858585610daa565b506001949350505050565b6000610596610f54565b905090565b60003361055c8185856105ae8383610ae7565b6105b89190611ff7565b610c0c565b60004382106106135760405162461bcd60e51b815260206004820152601f60248201527f4552433230566f7465733a20626c6f636b206e6f7420796574206d696e65640060448201526064015b60405180910390fd5b6001600160a01b0383166000908152600860205260409020610635908361107b565b9392505050565b610644611172565b61064e82826111cc565b5050565b61065c33826111d6565b50565b61065c33826111e0565b6001600160a01b03811660009081526008602052604081205461056290611259565b610693611172565b61069d60006112c2565b565b6106aa823383610d30565b61064e82826111d6565b6001600160a01b038116600090815260056020526040812054610562565b60004382106107235760405162461bcd60e51b815260206004820152601f60248201527f4552433230566f7465733a20626c6f636b206e6f7420796574206d696e656400604482015260640161060a565b61056260098361107b565b6060600480546104cb90611fad565b6001600160a01b03811660009081526008602052604081205480156107b1576001600160a01b038316600090815260086020526040902061077f60018361200a565b8154811061078f5761078f61201d565b60009182526020909120015464010000000090046001600160e01b03166107b4565b60005b6001600160e01b03169392505050565b600033816107d28286610ae7565b9050838110156108325760405162461bcd60e51b815260206004820152602560248201527f45524332303a2064656372656173656420616c6c6f77616e63652062656c6f77604482015264207a65726f60d81b606482015260840161060a565b6105818286868403610c0c565b60003361055c818585610daa565b8342111561089d5760405162461bcd60e51b815260206004820152601d60248201527f4552433230566f7465733a207369676e61747572652065787069726564000000604482015260640161060a565b604080517fe48329057bfd03d55e49b547132e39cffd9c1820ad7b9d4c5307691425d15adf60208201526001600160a01b0388169181019190915260608101869052608081018590526000906109179061090f9060a00160405160208183030381529060405280519060200120611314565b858585611362565b90506109228161138a565b86146109705760405162461bcd60e51b815260206004820152601960248201527f4552433230566f7465733a20696e76616c6964206e6f6e636500000000000000604482015260640161060a565b61097a81886111e0565b50505050505050565b834211156109d35760405162461bcd60e51b815260206004820152601d60248201527f45524332305065726d69743a206578706972656420646561646c696e65000000604482015260640161060a565b60007f6e71edae12b1b97f4d1f60370fef10105fa2faae0126114a169c64845d6126c9888888610a028c61138a565b6040805160208101969096526001600160a01b0394851690860152929091166060840152608083015260a082015260c0810186905260e0016040516020818303038152906040528051906020012090506000610a5d82611314565b90506000610a6d82878787611362565b9050896001600160a01b0316816001600160a01b031614610ad05760405162461bcd60e51b815260206004820152601e60248201527f45524332305065726d69743a20696e76616c6964207369676e61747572650000604482015260640161060a565b610adb8a8a8a610c0c565b50505050505050505050565b6001600160a01b03918216600090815260016020908152604080832093909416825291909152205490565b60408051808201909152600080825260208201526001600160a01b0383166000908152600860205260409020805463ffffffff8416908110610b5657610b5661201d565b60009182526020918290206040805180820190915291015463ffffffff8116825264010000000090046001600160e01b0316918101919091529392505050565b610b9e611172565b6001600160a01b038116610c035760405162461bcd60e51b815260206004820152602660248201527f4f776e61626c653a206e6577206f776e657220697320746865207a65726f206160448201526564647265737360d01b606482015260840161060a565b61065c816112c2565b6001600160a01b038316610c6e5760405162461bcd60e51b8152602060048201526024808201527f45524332303a20617070726f76652066726f6d20746865207a65726f206164646044820152637265737360e01b606482015260840161060a565b6001600160a01b038216610ccf5760405162461bcd60e51b815260206004820152602260248201527f45524332303a20617070726f766520746f20746865207a65726f206164647265604482015261737360f01b606482015260840161060a565b6001600160a01b0383811660008181526001602090815260408083209487168084529482529182902085905590518481527f8c5be1e5ebec7d5bd14f71427d1e84f3dd0314c0f7b2291e5b200ac8c7c3b925910160405180910390a3505050565b6000610d3c8484610ae7565b90506000198114610da45781811015610d975760405162461bcd60e51b815260206004820152601d60248201527f45524332303a20696e73756666696369656e7420616c6c6f77616e6365000000604482015260640161060a565b610da48484848403610c0c565b50505050565b6001600160a01b038316610e0e5760405162461bcd60e51b815260206004820152602560248201527f45524332303a207472616e736665722066726f6d20746865207a65726f206164604482015264647265737360d81b606482015260840161060a565b6001600160a01b038216610e705760405162461bcd60e51b815260206004820152602360248201527f45524332303a207472616e7366657220746f20746865207a65726f206164647260448201526265737360e81b606482015260840161060a565b6001600160a01b03831660009081526020819052604090205481811015610ee85760405162461bcd60e51b815260206004820152602660248201527f45524332303a207472616e7366657220616d6f756e7420657863656564732062604482015265616c616e636560d01b606482015260840161060a565b6001600160a01b03848116600081815260208181526040808320878703905593871680835291849020805487019055925185815290927fddf252ad1be2c89b69c2b068fc378daa952ba7f163c4a11628f55a4df523b3ef910160405180910390a3610da48484846113b7565b6000306001600160a01b037f000000000000000000000000000000000000000000000000000000000000000016148015610fad57507f000000000000000000000000000000000000000000000000000000000000000046145b15610fd757507f000000000000000000000000000000000000000000000000000000000000000090565b50604080517f00000000000000000000000000000000000000000000000000000000000000006020808301919091527f0000000000000000000000000000000000000000000000000000000000000000828401527f000000000000000000000000000000000000000000000000000000000000000060608301524660808301523060a0808401919091528351808403909101815260c0909201909252805191012090565b8154600090818160058111156110d5576000611096846113c2565b6110a0908561200a565b600088815260209020909150869082015463ffffffff1611156110c5578091506110d3565b6110d0816001611ff7565b92505b505b808210156111225760006110e983836114aa565b600088815260209020909150869082015463ffffffff16111561110e5780915061111c565b611119816001611ff7565b92505b506110d5565b801561115c576111458661113760018461200a565b600091825260209091200190565b5464010000000090046001600160e01b031661115f565b60005b6001600160e01b03169695505050505050565b600a546001600160a01b0316331461069d5760405162461bcd60e51b815260206004820181905260248201527f4f776e61626c653a2063616c6c6572206973206e6f7420746865206f776e6572604482015260640161060a565b61064e82826114c5565b61064e828261154f565b6001600160a01b038281166000818152600760208181526040808420805485845282862054949093528787166001600160a01b03198416811790915590519190951694919391928592917f3134e8a2e6d97e929a7e54011ea5485d7d196dd5f0ba4d4ef95803e8e3fc257f9190a4610da4828483611567565b600063ffffffff8211156112be5760405162461bcd60e51b815260206004820152602660248201527f53616665436173743a2076616c756520646f65736e27742066697420696e203360448201526532206269747360d01b606482015260840161060a565b5090565b600a80546001600160a01b038381166001600160a01b0319831681179093556040519116919082907f8be0079c531659141344cd1fd0a4f28419497f9722a3daafe3b4186f6b6457e090600090a35050565b6000610562611321610f54565b8360405161190160f01b6020820152602281018390526042810182905260009060620160405160208183030381529060405280519060200120905092915050565b6000806000611373878787876116a4565b9150915061138081611768565b5095945050505050565b6001600160a01b03811660009081526005602052604090208054600181018255905b50919050565b505050565b6113b28383836118b2565b6000816000036113d457506000919050565b600060016113e1846118e4565b901c6001901b905060018184816113fa576113fa612033565b048201901c9050600181848161141257611412612033565b048201901c9050600181848161142a5761142a612033565b048201901c9050600181848161144257611442612033565b048201901c9050600181848161145a5761145a612033565b048201901c9050600181848161147257611472612033565b048201901c9050600181848161148a5761148a612033565b048201901c9050610635818285816114a4576114a4612033565b04611978565b60006114b96002848418612049565b61063590848416611ff7565b6114cf828261198e565b6002546001600160e01b0310156115415760405162461bcd60e51b815260206004820152603060248201527f4552433230566f7465733a20746f74616c20737570706c79207269736b73206f60448201526f766572666c6f77696e6720766f74657360801b606482015260840161060a565b610da46009611a5583611a61565b6115598282611bb5565b610da46009611cee83611a61565b816001600160a01b0316836001600160a01b0316141580156115895750600081115b156113b2576001600160a01b03831615611617576001600160a01b038316600090815260086020526040812081906115c490611cee85611a61565b91509150846001600160a01b03167fdec2bacdd2f05b59de34da9b523dff8be42e5e38e818c82fdb0bae774387a724838360405161160c929190918252602082015260400190565b60405180910390a250505b6001600160a01b038216156113b2576001600160a01b0382166000908152600860205260408120819061164d90611a5585611a61565b91509150836001600160a01b03167fdec2bacdd2f05b59de34da9b523dff8be42e5e38e818c82fdb0bae774387a7248383604051611695929190918252602082015260400190565b60405180910390a25050505050565b6000807f7fffffffffffffffffffffffffffffff5d576e7357a4501ddfe92f46681b20a08311156116db575060009050600361175f565b6040805160008082526020820180845289905260ff881692820192909252606081018690526080810185905260019060a0016020604051602081039080840390855afa15801561172f573d6000803e3d6000fd5b5050604051601f1901519150506001600160a01b0381166117585760006001925092505061175f565b9150600090505b94509492505050565b600081600481111561177c5761177c61206b565b036117845750565b60018160048111156117985761179861206b565b036117e55760405162461bcd60e51b815260206004820152601860248201527f45434453413a20696e76616c6964207369676e61747572650000000000000000604482015260640161060a565b60028160048111156117f9576117f961206b565b036118465760405162461bcd60e51b815260206004820152601f60248201527f45434453413a20696e76616c6964207369676e6174757265206c656e67746800604482015260640161060a565b600381600481111561185a5761185a61206b565b0361065c5760405162461bcd60e51b815260206004820152602260248201527f45434453413a20696e76616c6964207369676e6174757265202773272076616c604482015261756560f01b606482015260840161060a565b6001600160a01b038381166000908152600760205260408082205485841683529120546113b292918216911683611567565b600080608083901c156118f957608092831c92015b604083901c1561190b57604092831c92015b602083901c1561191d57602092831c92015b601083901c1561192f57601092831c92015b600883901c1561194157600892831c92015b600483901c1561195357600492831c92015b600283901c1561196557600292831c92015b600183901c156105625760010192915050565b60008183106119875781610635565b5090919050565b6001600160a01b0382166119e45760405162461bcd60e51b815260206004820152601f60248201527f45524332303a206d696e7420746f20746865207a65726f206164647265737300604482015260640161060a565b80600260008282546119f69190611ff7565b90915550506001600160a01b038216600081815260208181526040808320805486019055518481527fddf252ad1be2c89b69c2b068fc378daa952ba7f163c4a11628f55a4df523b3ef910160405180910390a361064e600083836113b7565b60006106358284611ff7565b82546000908190818115611aae57611a7e8761113760018561200a565b60408051808201909152905463ffffffff8116825264010000000090046001600160e01b03166020820152611ac3565b60408051808201909152600080825260208201525b905080602001516001600160e01b03169350611ae384868863ffffffff16565b9250600082118015611afb5750805163ffffffff1643145b15611b4057611b0983611cfa565b611b188861113760018661200a565b80546001600160e01b03929092166401000000000263ffffffff909216919091179055611bab565b866040518060400160405280611b5543611259565b63ffffffff168152602001611b6986611cfa565b6001600160e01b0390811690915282546001810184556000938452602093849020835194909301519091166401000000000263ffffffff909316929092179101555b5050935093915050565b6001600160a01b038216611c155760405162461bcd60e51b815260206004820152602160248201527f45524332303a206275726e2066726f6d20746865207a65726f206164647265736044820152607360f81b606482015260840161060a565b6001600160a01b03821660009081526020819052604090205481811015611c895760405162461bcd60e51b815260206004820152602260248201527f45524332303a206275726e20616d6f756e7420657863656564732062616c616e604482015261636560f01b606482015260840161060a565b6001600160a01b0383166000818152602081815260408083208686039055600280548790039055518581529192917fddf252ad1be2c89b69c2b068fc378daa952ba7f163c4a11628f55a4df523b3ef910160405180910390a36113b2836000846113b7565b6000610635828461200a565b60006001600160e01b038211156112be5760405162461bcd60e51b815260206004820152602760248201527f53616665436173743a2076616c756520646f65736e27742066697420696e20326044820152663234206269747360c81b606482015260840161060a565b600060208083528351808285015260005b81811015611d9057858101830151858201604001528201611d74565b506000604082860101526040601f19601f8301168501019250505092915050565b80356001600160a01b0381168114611dc857600080fd5b919050565b60008060408385031215611de057600080fd5b611de983611db1565b946020939093013593505050565b600080600060608486031215611e0c57600080fd5b611e1584611db1565b9250611e2360208501611db1565b9150604084013590509250925092565b600060208284031215611e4557600080fd5b5035919050565b600060208284031215611e5e57600080fd5b61063582611db1565b803560ff81168114611dc857600080fd5b60008060008060008060c08789031215611e9157600080fd5b611e9a87611db1565b95506020870135945060408701359350611eb660608801611e67565b92506080870135915060a087013590509295509295509295565b600080600080600080600060e0888a031215611eeb57600080fd5b611ef488611db1565b9650611f0260208901611db1565b95506040880135945060608801359350611f1e60808901611e67565b925060a0880135915060c0880135905092959891949750929550565b60008060408385031215611f4d57600080fd5b611f5683611db1565b9150611f6460208401611db1565b90509250929050565b60008060408385031215611f8057600080fd5b611f8983611db1565b9150602083013563ffffffff81168114611fa257600080fd5b809150509250929050565b600181811c90821680611fc157607f821691505b6020821081036113ac57634e487b7160e01b600052602260045260246000fd5b634e487b7160e01b600052601160045260246000fd5b8082018082111561056257610562611fe1565b8181038181111561056257610562611fe1565b634e487b7160e01b600052603260045260246000fd5b634e487b7160e01b600052601260045260246000fd5b60008261206657634e487b7160e01b600052601260045260246000fd5b500490565b634e487b7160e01b600052602160045260246000fdfea2646970667358221220c6ddb5643dc25ca3d8dff3d3de845c28f69434ed2aaba30dc02e8d9b5e4bd00764736f6c63430008100033b81d4b68d3effcc6fba59d3ddaab0fb2b5ce4ce5e23a1280e98aa079b6261f3da26469706673582212205efc96aa3646c7df07daba3a02495c86ec55a04c52a0c71de3a3743917adfaec64736f6c63430008100033",
    "linkReferences": {}
  },
  "methodIdentifiers": {
    "INCREMENT()": "ce7f0cc3",
    "MIN_LIQUIDITY()": "21b77d63",
    "addLiquidity(address)": "e3412e3d",
    "factory()": "c45a0155",
    "initialize(address,address,address)": "c0c53b8b",
    "lpToken()": "5fcbd285",
    "recoverTokens(address,address)": "056097ac",
    "redeemLiquidity(address)": "fa175600",
    "skim(address,address)": "712b772f",
    "swap(address)": "03438dd0",
    "swap(address,address)": "6b76484e",
    "thatBalance()": "78b4103a",
    "thatPrice()": "244addfe",
    "thatToken()": "c451463b",
    "thatTokenManager()": "6e8378a7",
    "thisBalance()": "27f3a72a",
    "thisPrice()": "112ed88e",
    "thisToken()": "75f4f18e",
    "thisTokenManager()": "efaa8923"
  },
  "id": 63
}