{
  "abi": [
    {
      "inputs": [
        {
          "internalType": "address",
          "name": "daotoken_address",
          "type": "address"
        },
        {
          "internalType": "contract TimelockController",
          "name": "_timelock",
          "type": "address"
        }
      ],
      "stateMutability": "nonpayable",
      "type": "constructor"
    },
    {
      "inputs": [],
      "name": "Empty",
      "type": "error"
    },
    {
      "inputs": [],
      "name": "InvalidShortString",
      "type": "error"
    },
    {
      "inputs": [
        {
          "internalType": "string",
          "name": "str",
          "type": "string"
        }
      ],
      "name": "StringTooLong",
      "type": "error"
    },
    {
      "anonymous": false,
      "inputs": [],
      "name": "EIP712DomainChanged",
      "type": "event"
    },
    {
      "anonymous": false,
      "inputs": [
        {
          "indexed": false,
          "internalType": "uint256",
          "name": "proposalId",
          "type": "uint256"
        }
      ],
      "name": "ProposalCanceled",
      "type": "event"
    },
    {
      "anonymous": false,
      "inputs": [
        {
          "indexed": false,
          "internalType": "uint256",
          "name": "proposalId",
          "type": "uint256"
        },
        {
          "indexed": false,
          "internalType": "address",
          "name": "proposer",
          "type": "address"
        },
        {
          "indexed": false,
          "internalType": "address[]",
          "name": "targets",
          "type": "address[]"
        },
        {
          "indexed": false,
          "internalType": "uint256[]",
          "name": "values",
          "type": "uint256[]"
        },
        {
          "indexed": false,
          "internalType": "string[]",
          "name": "signatures",
          "type": "string[]"
        },
        {
          "indexed": false,
          "internalType": "bytes[]",
          "name": "calldatas",
          "type": "bytes[]"
        },
        {
          "indexed": false,
          "internalType": "uint256",
          "name": "voteStart",
          "type": "uint256"
        },
        {
          "indexed": false,
          "internalType": "uint256",
          "name": "voteEnd",
          "type": "uint256"
        },
        {
          "indexed": false,
          "internalType": "string",
          "name": "description",
          "type": "string"
        }
      ],
      "name": "ProposalCreated",
      "type": "event"
    },
    {
      "anonymous": false,
      "inputs": [
        {
          "indexed": false,
          "internalType": "uint256",
          "name": "proposalId",
          "type": "uint256"
        }
      ],
      "name": "ProposalExecuted",
      "type": "event"
    },
    {
      "anonymous": false,
      "inputs": [
        {
          "indexed": false,
          "internalType": "uint256",
          "name": "proposalId",
          "type": "uint256"
        },
        {
          "indexed": false,
          "internalType": "uint256",
          "name": "eta",
          "type": "uint256"
        }
      ],
      "name": "ProposalQueued",
      "type": "event"
    },
    {
      "anonymous": false,
      "inputs": [
        {
          "indexed": false,
          "internalType": "uint256",
          "name": "oldProposalThreshold",
          "type": "uint256"
        },
        {
          "indexed": false,
          "internalType": "uint256",
          "name": "newProposalThreshold",
          "type": "uint256"
        }
      ],
      "name": "ProposalThresholdSet",
      "type": "event"
    },
    {
      "anonymous": false,
      "inputs": [
        {
          "indexed": false,
          "internalType": "uint256",
          "name": "oldQuorumNumerator",
          "type": "uint256"
        },
        {
          "indexed": false,
          "internalType": "uint256",
          "name": "newQuorumNumerator",
          "type": "uint256"
        }
      ],
      "name": "QuorumNumeratorUpdated",
      "type": "event"
    },
    {
      "anonymous": false,
      "inputs": [
        {
          "indexed": false,
          "internalType": "address",
          "name": "oldTimelock",
          "type": "address"
        },
        {
          "indexed": false,
          "internalType": "address",
          "name": "newTimelock",
          "type": "address"
        }
      ],
      "name": "TimelockChange",
      "type": "event"
    },
    {
      "anonymous": false,
      "inputs": [
        {
          "indexed": true,
          "internalType": "address",
          "name": "voter",
          "type": "address"
        },
        {
          "indexed": false,
          "internalType": "uint256",
          "name": "proposalId",
          "type": "uint256"
        },
        {
          "indexed": false,
          "internalType": "uint8",
          "name": "support",
          "type": "uint8"
        },
        {
          "indexed": false,
          "internalType": "uint256",
          "name": "weight",
          "type": "uint256"
        },
        {
          "indexed": false,
          "internalType": "string",
          "name": "reason",
          "type": "string"
        }
      ],
      "name": "VoteCast",
      "type": "event"
    },
    {
      "anonymous": false,
      "inputs": [
        {
          "indexed": true,
          "internalType": "address",
          "name": "voter",
          "type": "address"
        },
        {
          "indexed": false,
          "internalType": "uint256",
          "name": "proposalId",
          "type": "uint256"
        },
        {
          "indexed": false,
          "internalType": "uint8",
          "name": "support",
          "type": "uint8"
        },
        {
          "indexed": false,
          "internalType": "uint256",
          "name": "weight",
          "type": "uint256"
        },
        {
          "indexed": false,
          "internalType": "string",
          "name": "reason",
          "type": "string"
        },
        {
          "indexed": false,
          "internalType": "bytes",
          "name": "params",
          "type": "bytes"
        }
      ],
      "name": "VoteCastWithParams",
      "type": "event"
    },
    {
      "anonymous": false,
      "inputs": [
        {
          "indexed": false,
          "internalType": "uint256",
          "name": "oldVotingDelay",
          "type": "uint256"
        },
        {
          "indexed": false,
          "internalType": "uint256",
          "name": "newVotingDelay",
          "type": "uint256"
        }
      ],
      "name": "VotingDelaySet",
      "type": "event"
    },
    {
      "anonymous": false,
      "inputs": [
        {
          "indexed": false,
          "internalType": "uint256",
          "name": "oldVotingPeriod",
          "type": "uint256"
        },
        {
          "indexed": false,
          "internalType": "uint256",
          "name": "newVotingPeriod",
          "type": "uint256"
        }
      ],
      "name": "VotingPeriodSet",
      "type": "event"
    },
    {
      "inputs": [],
      "name": "BALLOT_TYPEHASH",
      "outputs": [
        {
          "internalType": "bytes32",
          "name": "",
          "type": "bytes32"
        }
      ],
      "stateMutability": "view",
      "type": "function"
    },
    {
      "inputs": [],
      "name": "CLOCK_MODE",
      "outputs": [
        {
          "internalType": "string",
          "name": "",
          "type": "string"
        }
      ],
      "stateMutability": "view",
      "type": "function"
    },
    {
      "inputs": [],
      "name": "COUNTING_MODE",
      "outputs": [
        {
          "internalType": "string",
          "name": "",
          "type": "string"
        }
      ],
      "stateMutability": "pure",
      "type": "function"
    },
    {
      "inputs": [],
      "name": "EXTENDED_BALLOT_TYPEHASH",
      "outputs": [
        {
          "internalType": "bytes32",
          "name": "",
          "type": "bytes32"
        }
      ],
      "stateMutability": "view",
      "type": "function"
    },
    {
      "inputs": [
        {
          "internalType": "address[]",
          "name": "targets",
          "type": "address[]"
        },
        {
          "internalType": "uint256[]",
          "name": "values",
          "type": "uint256[]"
        },
        {
          "internalType": "bytes[]",
          "name": "calldatas",
          "type": "bytes[]"
        },
        {
          "internalType": "bytes32",
          "name": "descriptionHash",
          "type": "bytes32"
        }
      ],
      "name": "cancel",
      "outputs": [
        {
          "internalType": "uint256",
          "name": "",
          "type": "uint256"
        }
      ],
      "stateMutability": "nonpayable",
      "type": "function"
    },
    {
      "inputs": [
        {
          "internalType": "uint256",
          "name": "proposalId",
          "type": "uint256"
        },
        {
          "internalType": "uint8",
          "name": "support",
          "type": "uint8"
        }
      ],
      "name": "castVote",
      "outputs": [
        {
          "internalType": "uint256",
          "name": "",
          "type": "uint256"
        }
      ],
      "stateMutability": "nonpayable",
      "type": "function"
    },
    {
      "inputs": [
        {
          "internalType": "uint256",
          "name": "proposalId",
          "type": "uint256"
        },
        {
          "internalType": "uint8",
          "name": "support",
          "type": "uint8"
        },
        {
          "internalType": "uint8",
          "name": "v",
          "type": "uint8"
        },
        {
          "internalType": "bytes32",
          "name": "r",
          "type": "bytes32"
        },
        {
          "internalType": "bytes32",
          "name": "s",
          "type": "bytes32"
        }
      ],
      "name": "castVoteBySig",
      "outputs": [
        {
          "internalType": "uint256",
          "name": "",
          "type": "uint256"
        }
      ],
      "stateMutability": "nonpayable",
      "type": "function"
    },
    {
      "inputs": [
        {
          "internalType": "uint256",
          "name": "proposalId",
          "type": "uint256"
        },
        {
          "internalType": "uint8",
          "name": "support",
          "type": "uint8"
        },
        {
          "internalType": "string",
          "name": "reason",
          "type": "string"
        }
      ],
      "name": "castVoteWithReason",
      "outputs": [
        {
          "internalType": "uint256",
          "name": "",
          "type": "uint256"
        }
      ],
      "stateMutability": "nonpayable",
      "type": "function"
    },
    {
      "inputs": [
        {
          "internalType": "uint256",
          "name": "proposalId",
          "type": "uint256"
        },
        {
          "internalType": "uint8",
          "name": "support",
          "type": "uint8"
        },
        {
          "internalType": "string",
          "name": "reason",
          "type": "string"
        },
        {
          "internalType": "bytes",
          "name": "params",
          "type": "bytes"
        }
      ],
      "name": "castVoteWithReasonAndParams",
      "outputs": [
        {
          "internalType": "uint256",
          "name": "",
          "type": "uint256"
        }
      ],
      "stateMutability": "nonpayable",
      "type": "function"
    },
    {
      "inputs": [
        {
          "internalType": "uint256",
          "name": "proposalId",
          "type": "uint256"
        },
        {
          "internalType": "uint8",
          "name": "support",
          "type": "uint8"
        },
        {
          "internalType": "string",
          "name": "reason",
          "type": "string"
        },
        {
          "internalType": "bytes",
          "name": "params",
          "type": "bytes"
        },
        {
          "internalType": "uint8",
          "name": "v",
          "type": "uint8"
        },
        {
          "internalType": "bytes32",
          "name": "r",
          "type": "bytes32"
        },
        {
          "internalType": "bytes32",
          "name": "s",
          "type": "bytes32"
        }
      ],
      "name": "castVoteWithReasonAndParamsBySig",
      "outputs": [
        {
          "internalType": "uint256",
          "name": "",
          "type": "uint256"
        }
      ],
      "stateMutability": "nonpayable",
      "type": "function"
    },
    {
      "inputs": [],
      "name": "clock",
      "outputs": [
        {
          "internalType": "uint48",
          "name": "",
          "type": "uint48"
        }
      ],
      "stateMutability": "view",
      "type": "function"
    },
    {
      "inputs": [],
      "name": "eip712Domain",
      "outputs": [
        {
          "internalType": "bytes1",
          "name": "fields",
          "type": "bytes1"
        },
        {
          "internalType": "string",
          "name": "name",
          "type": "string"
        },
        {
          "internalType": "string",
          "name": "version",
          "type": "string"
        },
        {
          "internalType": "uint256",
          "name": "chainId",
          "type": "uint256"
        },
        {
          "internalType": "address",
          "name": "verifyingContract",
          "type": "address"
        },
        {
          "internalType": "bytes32",
          "name": "salt",
          "type": "bytes32"
        },
        {
          "internalType": "uint256[]",
          "name": "extensions",
          "type": "uint256[]"
        }
      ],
      "stateMutability": "view",
      "type": "function"
    },
    {
      "inputs": [
        {
          "internalType": "address[]",
          "name": "targets",
          "type": "address[]"
        },
        {
          "internalType": "uint256[]",
          "name": "values",
          "type": "uint256[]"
        },
        {
          "internalType": "bytes[]",
          "name": "calldatas",
          "type": "bytes[]"
        },
        {
          "internalType": "bytes32",
          "name": "descriptionHash",
          "type": "bytes32"
        }
      ],
      "name": "execute",
      "outputs": [
        {
          "internalType": "uint256",
          "name": "",
          "type": "uint256"
        }
      ],
      "stateMutability": "payable",
      "type": "function"
    },
    {
      "inputs": [
        {
          "internalType": "address",
          "name": "account",
          "type": "address"
        },
        {
          "internalType": "uint256",
          "name": "timepoint",
          "type": "uint256"
        }
      ],
      "name": "getVotes",
      "outputs": [
        {
          "internalType": "uint256",
          "name": "",
          "type": "uint256"
        }
      ],
      "stateMutability": "view",
      "type": "function"
    },
    {
      "inputs": [
        {
          "internalType": "address",
          "name": "account",
          "type": "address"
        },
        {
          "internalType": "uint256",
          "name": "timepoint",
          "type": "uint256"
        },
        {
          "internalType": "bytes",
          "name": "params",
          "type": "bytes"
        }
      ],
      "name": "getVotesWithParams",
      "outputs": [
        {
          "internalType": "uint256",
          "name": "",
          "type": "uint256"
        }
      ],
      "stateMutability": "view",
      "type": "function"
    },
    {
      "inputs": [
        {
          "internalType": "uint256",
          "name": "proposalId",
          "type": "uint256"
        },
        {
          "internalType": "address",
          "name": "account",
          "type": "address"
        }
      ],
      "name": "hasVoted",
      "outputs": [
        {
          "internalType": "bool",
          "name": "",
          "type": "bool"
        }
      ],
      "stateMutability": "view",
      "type": "function"
    },
    {
      "inputs": [
        {
          "internalType": "address[]",
          "name": "targets",
          "type": "address[]"
        },
        {
          "internalType": "uint256[]",
          "name": "values",
          "type": "uint256[]"
        },
        {
          "internalType": "bytes[]",
          "name": "calldatas",
          "type": "bytes[]"
        },
        {
          "internalType": "bytes32",
          "name": "descriptionHash",
          "type": "bytes32"
        }
      ],
      "name": "hashProposal",
      "outputs": [
        {
          "internalType": "uint256",
          "name": "",
          "type": "uint256"
        }
      ],
      "stateMutability": "pure",
      "type": "function"
    },
    {
      "inputs": [],
      "name": "name",
      "outputs": [
        {
          "internalType": "string",
          "name": "",
          "type": "string"
        }
      ],
      "stateMutability": "view",
      "type": "function"
    },
    {
      "inputs": [
        {
          "internalType": "address",
          "name": "",
          "type": "address"
        },
        {
          "internalType": "address",
          "name": "",
          "type": "address"
        },
        {
          "internalType": "uint256[]",
          "name": "",
          "type": "uint256[]"
        },
        {
          "internalType": "uint256[]",
          "name": "",
          "type": "uint256[]"
        },
        {
          "internalType": "bytes",
          "name": "",
          "type": "bytes"
        }
      ],
      "name": "onERC1155BatchReceived",
      "outputs": [
        {
          "internalType": "bytes4",
          "name": "",
          "type": "bytes4"
        }
      ],
      "stateMutability": "nonpayable",
      "type": "function"
    },
    {
      "inputs": [
        {
          "internalType": "address",
          "name": "",
          "type": "address"
        },
        {
          "internalType": "address",
          "name": "",
          "type": "address"
        },
        {
          "internalType": "uint256",
          "name": "",
          "type": "uint256"
        },
        {
          "internalType": "uint256",
          "name": "",
          "type": "uint256"
        },
        {
          "internalType": "bytes",
          "name": "",
          "type": "bytes"
        }
      ],
      "name": "onERC1155Received",
      "outputs": [
        {
          "internalType": "bytes4",
          "name": "",
          "type": "bytes4"
        }
      ],
      "stateMutability": "nonpayable",
      "type": "function"
    },
    {
      "inputs": [
        {
          "internalType": "address",
          "name": "",
          "type": "address"
        },
        {
          "internalType": "address",
          "name": "",
          "type": "address"
        },
        {
          "internalType": "uint256",
          "name": "",
          "type": "uint256"
        },
        {
          "internalType": "bytes",
          "name": "",
          "type": "bytes"
        }
      ],
      "name": "onERC721Received",
      "outputs": [
        {
          "internalType": "bytes4",
          "name": "",
          "type": "bytes4"
        }
      ],
      "stateMutability": "nonpayable",
      "type": "function"
    },
    {
      "inputs": [
        {
          "internalType": "uint256",
          "name": "proposalId",
          "type": "uint256"
        }
      ],
      "name": "proposalDeadline",
      "outputs": [
        {
          "internalType": "uint256",
          "name": "",
          "type": "uint256"
        }
      ],
      "stateMutability": "view",
      "type": "function"
    },
    {
      "inputs": [
        {
          "internalType": "uint256",
          "name": "proposalId",
          "type": "uint256"
        }
      ],
      "name": "proposalEta",
      "outputs": [
        {
          "internalType": "uint256",
          "name": "",
          "type": "uint256"
        }
      ],
      "stateMutability": "view",
      "type": "function"
    },
    {
      "inputs": [
        {
          "internalType": "uint256",
          "name": "proposalId",
          "type": "uint256"
        }
      ],
      "name": "proposalProposer",
      "outputs": [
        {
          "internalType": "address",
          "name": "",
          "type": "address"
        }
      ],
      "stateMutability": "view",
      "type": "function"
    },
    {
      "inputs": [
        {
          "internalType": "uint256",
          "name": "proposalId",
          "type": "uint256"
        }
      ],
      "name": "proposalSnapshot",
      "outputs": [
        {
          "internalType": "uint256",
          "name": "",
          "type": "uint256"
        }
      ],
      "stateMutability": "view",
      "type": "function"
    },
    {
      "inputs": [],
      "name": "proposalThreshold",
      "outputs": [
        {
          "internalType": "uint256",
          "name": "",
          "type": "uint256"
        }
      ],
      "stateMutability": "view",
      "type": "function"
    },
    {
      "inputs": [
        {
          "internalType": "uint256",
          "name": "proposalId",
          "type": "uint256"
        }
      ],
      "name": "proposalVotes",
      "outputs": [
        {
          "internalType": "uint256",
          "name": "againstVotes",
          "type": "uint256"
        },
        {
          "internalType": "uint256",
          "name": "forVotes",
          "type": "uint256"
        },
        {
          "internalType": "uint256",
          "name": "abstainVotes",
          "type": "uint256"
        }
      ],
      "stateMutability": "view",
      "type": "function"
    },
    {
      "inputs": [
        {
          "internalType": "address[]",
          "name": "targets",
          "type": "address[]"
        },
        {
          "internalType": "uint256[]",
          "name": "values",
          "type": "uint256[]"
        },
        {
          "internalType": "bytes[]",
          "name": "calldatas",
          "type": "bytes[]"
        },
        {
          "internalType": "string",
          "name": "description",
          "type": "string"
        }
      ],
      "name": "propose",
      "outputs": [
        {
          "internalType": "uint256",
          "name": "",
          "type": "uint256"
        }
      ],
      "stateMutability": "nonpayable",
      "type": "function"
    },
    {
      "inputs": [
        {
          "internalType": "address[]",
          "name": "targets",
          "type": "address[]"
        },
        {
          "internalType": "uint256[]",
          "name": "values",
          "type": "uint256[]"
        },
        {
          "internalType": "bytes[]",
          "name": "calldatas",
          "type": "bytes[]"
        },
        {
          "internalType": "bytes32",
          "name": "descriptionHash",
          "type": "bytes32"
        }
      ],
      "name": "queue",
      "outputs": [
        {
          "internalType": "uint256",
          "name": "",
          "type": "uint256"
        }
      ],
      "stateMutability": "nonpayable",
      "type": "function"
    },
    {
      "inputs": [
        {
          "internalType": "uint256",
          "name": "blockNumber",
          "type": "uint256"
        }
      ],
      "name": "quorum",
      "outputs": [
        {
          "internalType": "uint256",
          "name": "",
          "type": "uint256"
        }
      ],
      "stateMutability": "view",
      "type": "function"
    },
    {
      "inputs": [],
      "name": "quorumDenominator",
      "outputs": [
        {
          "internalType": "uint256",
          "name": "",
          "type": "uint256"
        }
      ],
      "stateMutability": "view",
      "type": "function"
    },
    {
      "inputs": [
        {
          "internalType": "uint256",
          "name": "timepoint",
          "type": "uint256"
        }
      ],
      "name": "quorumNumerator",
      "outputs": [
        {
          "internalType": "uint256",
          "name": "",
          "type": "uint256"
        }
      ],
      "stateMutability": "view",
      "type": "function"
    },
    {
      "inputs": [],
      "name": "quorumNumerator",
      "outputs": [
        {
          "internalType": "uint256",
          "name": "",
          "type": "uint256"
        }
      ],
      "stateMutability": "view",
      "type": "function"
    },
    {
      "inputs": [
        {
          "internalType": "address",
          "name": "target",
          "type": "address"
        },
        {
          "internalType": "uint256",
          "name": "value",
          "type": "uint256"
        },
        {
          "internalType": "bytes",
          "name": "data",
          "type": "bytes"
        }
      ],
      "name": "relay",
      "outputs": [],
      "stateMutability": "payable",
      "type": "function"
    },
    {
      "inputs": [
        {
          "internalType": "uint256",
          "name": "newProposalThreshold",
          "type": "uint256"
        }
      ],
      "name": "setProposalThreshold",
      "outputs": [],
      "stateMutability": "nonpayable",
      "type": "function"
    },
    {
      "inputs": [
        {
          "internalType": "uint256",
          "name": "newVotingDelay",
          "type": "uint256"
        }
      ],
      "name": "setVotingDelay",
      "outputs": [],
      "stateMutability": "nonpayable",
      "type": "function"
    },
    {
      "inputs": [
        {
          "internalType": "uint256",
          "name": "newVotingPeriod",
          "type": "uint256"
        }
      ],
      "name": "setVotingPeriod",
      "outputs": [],
      "stateMutability": "nonpayable",
      "type": "function"
    },
    {
      "inputs": [
        {
          "internalType": "uint256",
          "name": "proposalId",
          "type": "uint256"
        }
      ],
      "name": "state",
      "outputs": [
        {
          "internalType": "enum IGovernor.ProposalState",
          "name": "",
          "type": "uint8"
        }
      ],
      "stateMutability": "view",
      "type": "function"
    },
    {
      "inputs": [
        {
          "internalType": "bytes4",
          "name": "interfaceId",
          "type": "bytes4"
        }
      ],
      "name": "supportsInterface",
      "outputs": [
        {
          "internalType": "bool",
          "name": "",
          "type": "bool"
        }
      ],
      "stateMutability": "view",
      "type": "function"
    },
    {
      "inputs": [],
      "name": "timelock",
      "outputs": [
        {
          "internalType": "address",
          "name": "",
          "type": "address"
        }
      ],
      "stateMutability": "view",
      "type": "function"
    },
    {
      "inputs": [],
      "name": "token",
      "outputs": [
        {
          "internalType": "contract IERC5805",
          "name": "",
          "type": "address"
        }
      ],
      "stateMutability": "view",
      "type": "function"
    },
    {
      "inputs": [
        {
          "internalType": "uint256",
          "name": "newQuorumNumerator",
          "type": "uint256"
        }
      ],
      "name": "updateQuorumNumerator",
      "outputs": [],
      "stateMutability": "nonpayable",
      "type": "function"
    },
    {
      "inputs": [
        {
          "internalType": "contract TimelockController",
          "name": "newTimelock",
          "type": "address"
        }
      ],
      "name": "updateTimelock",
      "outputs": [],
      "stateMutability": "nonpayable",
      "type": "function"
    },
    {
      "inputs": [],
      "name": "version",
      "outputs": [
        {
          "internalType": "string",
          "name": "",
          "type": "string"
        }
      ],
      "stateMutability": "view",
      "type": "function"
    },
    {
      "inputs": [],
      "name": "votingDelay",
      "outputs": [
        {
          "internalType": "uint256",
          "name": "",
          "type": "uint256"
        }
      ],
      "stateMutability": "view",
      "type": "function"
    },
    {
      "inputs": [],
      "name": "votingPeriod",
      "outputs": [
        {
          "internalType": "uint256",
          "name": "",
          "type": "uint256"
        }
      ],
      "stateMutability": "view",
      "type": "function"
    },
    {
      "stateMutability": "payable",
      "type": "receive"
    }
  ],
  "bytecode": {
    "object": "0x6101806040523480156200001257600080fd5b50604051620053a0380380620053a0833981016040819052620000359162000952565b80600483600161c4e068056bc75e2d6310000060405180604001604052806008815260200167537461697277617960c01b815250806200007a6200019160201b60201c565b62000087826000620001ac565b6101205262000098816001620001ac565b61014052815160208084019190912060e052815190820120610100524660a0526200012660e05161010051604080517f8b73c3c69bb8fe3d512ecc4cf759cc79239f7b179b0ffacaa9a75d522b39400f60208201529081019290925260608201524660808201523060a082015260009060c00160405160208183030381529060405280519060200120905090565b60805250503060c05260026200013d828262000a36565b506200014b905083620001e5565b620001568262000226565b6200016181620002cd565b5050506001600160a01b0316610160526200017c816200030e565b5062000188816200048d565b50505062000bc3565b6040805180820190915260018152603160f81b602082015290565b6000602083511015620001cc57620001c483620004f6565b9050620001df565b81620001d9848262000a36565b5060ff90505b92915050565b60065460408051918252602082018390527fc565b045403dc03c2eea82b81a0465edad9e2e7fc4d97e11421c209da93d7a93910160405180910390a1600655565b600081116200028c5760405162461bcd60e51b815260206004820152602760248201527f476f7665726e6f7253657474696e67733a20766f74696e6720706572696f6420604482015266746f6f206c6f7760c81b60648201526084015b60405180910390fd5b60075460408051918252602082018390527f7e3f7f0708a84de9203036abaa450dccc85ad5ff52f78c170f3edb55cf5e8828910160405180910390a1600755565b60085460408051918252602082018390527fccb45da8d5717e6c4544694297c4ba5cf151d455c9bb0ed4fc7a38411bc05461910160405180910390a1600855565b6064811115620003935760405162461bcd60e51b815260206004820152604360248201527f476f7665726e6f72566f74657351756f72756d4672616374696f6e3a2071756f60448201527f72756d4e756d657261746f72206f7665722071756f72756d44656e6f6d696e616064820152623a37b960e91b608482015260a40162000283565b60006200039f62000539565b90508015801590620003b15750600b54155b1562000419576040805180820190915260008152600b9060208101620003d78462000568565b6001600160e01b0390811690915282546001810184556000938452602093849020835194909301519091166401000000000263ffffffff909316929092179101555b6200044e620004396200042b620005d7565b65ffffffffffff166200064e565b620004448462000568565b600b9190620006b5565b505060408051828152602081018490527f0553476bf02ef2726e8ce5ced78d63e26e602e4a2257b1f559418e24b4633997910160405180910390a15050565b600c54604080516001600160a01b03928316815291831660208301527f08f74ea46ef7894f65eabfb5e6e695de773a000b47c529ab559178069b226401910160405180910390a1600c80546001600160a01b0319166001600160a01b0392909216919091179055565b600080829050601f8151111562000524578260405163305a27a960e01b815260040162000283919062000b02565b8051620005318262000b52565b179392505050565b600b54600090156200055f5762000551600b620006d2565b6001600160e01b0316905090565b600a545b905090565b60006001600160e01b03821115620005d35760405162461bcd60e51b815260206004820152602760248201527f53616665436173743a2076616c756520646f65736e27742066697420696e20326044820152663234206269747360c81b606482015260840162000283565b5090565b6000610160516001600160a01b03166391ddadf46040518163ffffffff1660e01b8152600401602060405180830381865afa92505050801562000639575060408051601f3d908101601f19168201909252620006369181019062000b77565b60015b6200064957620005634362000720565b919050565b600063ffffffff821115620005d35760405162461bcd60e51b815260206004820152602660248201527f53616665436173743a2076616c756520646f65736e27742066697420696e203360448201526532206269747360d01b606482015260840162000283565b600080620006c585858562000789565b915091505b935093915050565b805460009080156200071657620006fe83620006f060018462000ba1565b600091825260209091200190565b5464010000000090046001600160e01b031662000719565b60005b9392505050565b600065ffffffffffff821115620005d35760405162461bcd60e51b815260206004820152602660248201527f53616665436173743a2076616c756520646f65736e27742066697420696e203460448201526538206269747360d01b606482015260840162000283565b825460009081908015620008de576000620007ab87620006f060018562000ba1565b60408051808201909152905463ffffffff8082168084526401000000009092046001600160e01b0316602084015291925090871610156200082f5760405162461bcd60e51b815260206004820152601b60248201527f436865636b706f696e743a2064656372656173696e67206b6579730000000000604482015260640162000283565b805163ffffffff8088169116036200087d57846200085488620006f060018662000ba1565b80546001600160e01b03929092166401000000000263ffffffff909216919091179055620008cd565b6040805180820190915263ffffffff80881682526001600160e01b0380881660208085019182528b54600181018d5560008d81529190912094519151909216640100000000029216919091179101555b602001519250839150620006ca9050565b50506040805180820190915263ffffffff80851682526001600160e01b0380851660208085019182528854600181018a5560008a815291822095519251909316640100000000029190931617920191909155905081620006ca565b6001600160a01b03811681146200094f57600080fd5b50565b600080604083850312156200096657600080fd5b8251620009738162000939565b6020840151909250620009868162000939565b809150509250929050565b634e487b7160e01b600052604160045260246000fd5b600181811c90821680620009bc57607f821691505b602082108103620009dd57634e487b7160e01b600052602260045260246000fd5b50919050565b601f82111562000a3157600081815260208120601f850160051c8101602086101562000a0c5750805b601f850160051c820191505b8181101562000a2d5782815560010162000a18565b5050505b505050565b81516001600160401b0381111562000a525762000a5262000991565b62000a6a8162000a638454620009a7565b84620009e3565b602080601f83116001811462000aa2576000841562000a895750858301515b600019600386901b1c1916600185901b17855562000a2d565b600085815260208120601f198616915b8281101562000ad35788860151825594840194600190910190840162000ab2565b508582101562000af25787850151600019600388901b60f8161c191681555b5050505050600190811b01905550565b600060208083528351808285015260005b8181101562000b315785810183015185820160400152820162000b13565b506000604082860101526040601f19601f8301168501019250505092915050565b80516020808301519190811015620009dd5760001960209190910360031b1b16919050565b60006020828403121562000b8a57600080fd5b815165ffffffffffff811681146200071957600080fd5b81810381811115620001df57634e487b7160e01b600052601160045260246000fd5b60805160a05160c05160e0516101005161012051610140516101605161475b62000c45600039600081816109e1015281816110e0015281816114340152818161252f0152612753015260006113e0015260006113b6015260006129500152600061292801526000612883015260006128ad015260006128d7015261475b6000f3fe6080604052600436106102815760003560e01c80637b3c71d31161014f578063c01f9e37116100c1578063ea0217cf1161007a578063ea0217cf14610923578063eb9019d414610943578063ece40cc114610963578063f23a6e6114610983578063f8ce560a146109af578063fc0c546a146109cf57600080fd5b8063c01f9e371461081f578063c28bc2fa14610858578063c59057e41461086b578063d33219b41461088b578063dd4e2ba5146108a9578063deaaa7cc146108ef57600080fd5b80639a802a6d116101135780639a802a6d14610769578063a7713a7014610789578063a890c9101461079e578063ab58fb8e146107be578063b58131b0146107de578063bc197c81146107f357600080fd5b80637b3c71d3146106c15780637d5e81e2146106e157806384b0196e1461070157806391ddadf41461072957806397c3d3341461075557600080fd5b80633932abb1116101f3578063544ffc9c116101ac578063544ffc9c146105c257806354fd4d501461061757806356781388146106415780635f398a141461066157806360c4247f1461068157806370b0f660146106a157600080fd5b80633932abb1146104e15780633bccf4fd146104f65780633e4f49e6146105165780634385963214610543578063452115d61461058d5780634bf5d7e9146105ad57600080fd5b8063143489d011610245578063143489d0146103ab578063150b7a0214610400578063160cbed7146104445780632656227d146104645780632d63f693146104775780632fe3e261146104ad57600080fd5b806301ffc9a7146102f157806302a251a314610326578063034201811461034957806306f3f9e61461036957806306fdde031461038957600080fd5b366102ec573061028f610a03565b6001600160a01b0316146102ea5760405162461bcd60e51b815260206004820152601f60248201527f476f7665726e6f723a206d7573742073656e6420746f206578656375746f720060448201526064015b60405180910390fd5b005b600080fd5b3480156102fd57600080fd5b5061031161030c3660046137cd565b610a1c565b60405190151581526020015b60405180910390f35b34801561033257600080fd5b5061033b610a2d565b60405190815260200161031d565b34801561035557600080fd5b5061033b61036436600461391b565b610a38565b34801561037557600080fd5b506102ea6103843660046139c1565b610b30565b34801561039557600080fd5b5061039e610bba565b60405161031d9190613a2a565b3480156103b757600080fd5b506103e86103c63660046139c1565b600090815260036020526040902054600160401b90046001600160a01b031690565b6040516001600160a01b03909116815260200161031d565b34801561040c57600080fd5b5061042b61041b366004613a52565b630a85bd0160e11b949350505050565b6040516001600160e01b0319909116815260200161031d565b34801561045057600080fd5b5061033b61045f366004613c29565b610c4c565b61033b610472366004613c29565b610e4d565b34801561048357600080fd5b5061033b6104923660046139c1565b6000908152600360205260409020546001600160401b031690565b3480156104b957600080fd5b5061033b7fb3b3f3b703cd84ce352197dcff232b1b5d3cfb2025ce47cf04742d0651f1af8881565b3480156104ed57600080fd5b5061033b610f3f565b34801561050257600080fd5b5061033b610511366004613cb8565b610f4a565b34801561052257600080fd5b506105366105313660046139c1565b610fc0565b60405161031d9190613d1c565b34801561054f57600080fd5b5061031161055e366004613d44565b60008281526009602090815260408083206001600160a01b038516845260030190915290205460ff1692915050565b34801561059957600080fd5b5061033b6105a8366004613c29565b610fcb565b3480156105b957600080fd5b5061039e6110dc565b3480156105ce57600080fd5b506105fc6105dd3660046139c1565b6000908152600960205260409020805460018201546002909201549092565b6040805193845260208401929092529082015260600161031d565b34801561062357600080fd5b506040805180820190915260018152603160f81b602082015261039e565b34801561064d57600080fd5b5061033b61065c366004613d74565b61119e565b34801561066d57600080fd5b5061033b61067c366004613da0565b6111c7565b34801561068d57600080fd5b5061033b61069c3660046139c1565b611211565b3480156106ad57600080fd5b506102ea6106bc3660046139c1565b6112c2565b3480156106cd57600080fd5b5061033b6106dc366004613e23565b611349565b3480156106ed57600080fd5b5061033b6106fc366004613e7c565b611391565b34801561070d57600080fd5b506107166113a8565b60405161031d9796959493929190613f6b565b34801561073557600080fd5b5061073e611430565b60405165ffffffffffff909116815260200161031d565b34801561076157600080fd5b50606461033b565b34801561077557600080fd5b5061033b610784366004613fcd565b6114b9565b34801561079557600080fd5b5061033b6114d0565b3480156107aa57600080fd5b506102ea6107b9366004614025565b6114fa565b3480156107ca57600080fd5b5061033b6107d93660046139c1565b611581565b3480156107ea57600080fd5b5061033b61161b565b3480156107ff57600080fd5b5061042b61080e366004614042565b63bc197c8160e01b95945050505050565b34801561082b57600080fd5b5061033b61083a3660046139c1565b6000908152600360205260409020600101546001600160401b031690565b6102ea6108663660046140d5565b611626565b34801561087757600080fd5b5061033b610886366004613c29565b611735565b34801561089757600080fd5b50600c546001600160a01b03166103e8565b3480156108b557600080fd5b506040805180820190915260208082527f737570706f72743d627261766f2671756f72756d3d666f722c6162737461696e9082015261039e565b3480156108fb57600080fd5b5061033b7f150214d74d59b7d1e90c73fc22ef3d991dd0a76b046543d4d80ab92d2a50328f81565b34801561092f57600080fd5b506102ea61093e3660046139c1565b61176f565b34801561094f57600080fd5b5061033b61095e366004614118565b6117f6565b34801561096f57600080fd5b506102ea61097e3660046139c1565b611817565b34801561098f57600080fd5b5061042b61099e366004614144565b63f23a6e6160e01b95945050505050565b3480156109bb57600080fd5b5061033b6109ca3660046139c1565b61189e565b3480156109db57600080fd5b506103e87f000000000000000000000000000000000000000000000000000000000000000081565b6000610a17600c546001600160a01b031690565b905090565b6000610a27826118a9565b92915050565b6000610a1760075490565b600080610adc610ad47fb3b3f3b703cd84ce352197dcff232b1b5d3cfb2025ce47cf04742d0651f1af888c8c8c8c604051610a749291906141ac565b60405180910390208b80519060200120604051602001610ab9959493929190948552602085019390935260ff9190911660408401526060830152608082015260a00190565b604051602081830303815290604052805190602001206118ce565b8686866118fb565b9050610b228a828b8b8b8080601f0160208091040260200160405190810160405280939291908181526020018383808284376000920191909152508d9250611919915050565b9a9950505050505050505050565b610b38610a03565b6001600160a01b0316336001600160a01b031614610b685760405162461bcd60e51b81526004016102e1906141bc565b30610b71610a03565b6001600160a01b031614610bae5760008036604051610b919291906141ac565b604051809103902090505b80610ba76004611a6e565b03610b9c57505b610bb781611aed565b50565b606060028054610bc9906141f3565b80601f0160208091040260200160405190810160405280929190818152602001828054610bf5906141f3565b8015610c425780601f10610c1757610100808354040283529160200191610c42565b820191906000526020600020905b815481529060010190602001808311610c2557829003601f168201915b5050505050905090565b600080610c5b86868686611735565b90506004610c6882610fc0565b6007811115610c7957610c79613d06565b14610c965760405162461bcd60e51b81526004016102e19061422d565b600c546040805163793d064960e11b815290516000926001600160a01b03169163f27a0c929160048083019260209291908290030181865afa158015610ce0573d6000803e3d6000fd5b505050506040513d601f19601f82011682018060405250810190610d04919061426e565b600c5460405163b1c5f42760e01b81529192506001600160a01b03169063b1c5f42790610d3e908a908a908a906000908b90600401614315565b602060405180830381865afa158015610d5b573d6000803e3d6000fd5b505050506040513d601f19601f82011682018060405250810190610d7f919061426e565b6000838152600d602052604080822092909255600c5491516308f2a0bb60e41b81526001600160a01b0390921691638f2a0bb091610dca918b918b918b91908b908990600401614363565b600060405180830381600087803b158015610de457600080fd5b505af1158015610df8573d6000803e3d6000fd5b505050507f9a2e42fd6722813d69113e7d0079d3d940171428df7373df9c7f7617cfda2892828242610e2a91906143d1565b604080519283526020830191909152015b60405180910390a15095945050505050565b600080610e5c86868686611735565b90506000610e6982610fc0565b90506004816007811115610e7f57610e7f613d06565b1480610e9c57506005816007811115610e9a57610e9a613d06565b145b610eb85760405162461bcd60e51b81526004016102e19061422d565b60008281526003602052604090819020600201805460ff19166001179055517f712ae1383f79ac853f8d882153778e0260ef8f03b504e2866e0593e04d2b291f90610f069084815260200190565b60405180910390a1610f1b8288888888611c5b565b610f288288888888611cfd565b610f358288888888611d0a565b5095945050505050565b6000610a1760065490565b604080517f150214d74d59b7d1e90c73fc22ef3d991dd0a76b046543d4d80ab92d2a50328f602082015290810186905260ff851660608201526000908190610f9890610ad490608001610ab9565b9050610fb587828860405180602001604052806000815250611d43565b979650505050505050565b6000610a2782611d66565b600080610fda86868686611735565b90506000610fe782610fc0565b6007811115610ff857610ff8613d06565b146110455760405162461bcd60e51b815260206004820152601c60248201527f476f7665726e6f723a20746f6f206c61746520746f2063616e63656c0000000060448201526064016102e1565b600081815260036020526040902054600160401b90046001600160a01b0316336001600160a01b0316146110c65760405162461bcd60e51b815260206004820152602260248201527f476f7665726e6f723a206f6e6c792070726f706f7365722063616e2063616e63604482015261195b60f21b60648201526084016102e1565b6110d286868686611eb0565b9695505050505050565b60607f00000000000000000000000000000000000000000000000000000000000000006001600160a01b0316634bf5d7e96040518163ffffffff1660e01b8152600401600060405180830381865afa92505050801561115d57506040513d6000823e601f3d908101601f1916820160405261115a91908101906143e4565b60015b611199575060408051808201909152601d81527f6d6f64653d626c6f636b6e756d6265722666726f6d3d64656661756c74000000602082015290565b919050565b6000803390506111bf84828560405180602001604052806000815250611d43565b949350505050565b600080339050610fb587828888888080601f0160208091040260200160405190810160405280939291908181526020018383808284376000920191909152508a9250611919915050565b600b54600090808203611228575050600a54919050565b6000600b611237600184614451565b8154811061124757611247614464565b60009182526020918290206040805180820190915291015463ffffffff8116808352600160201b9091046001600160e01b0316928201929092529150841061129d57602001516001600160e01b03169392505050565b6112b16112a985611ebe565b600b90611f27565b6001600160e01b0316949350505050565b6112ca610a03565b6001600160a01b0316336001600160a01b0316146112fa5760405162461bcd60e51b81526004016102e1906141bc565b30611303610a03565b6001600160a01b03161461134057600080366040516113239291906141ac565b604051809103902090505b806113396004611a6e565b0361132e57505b610bb781611fda565b6000803390506110d286828787878080601f016020809104026020016040519081016040528093929190818152602001838380828437600092019190915250611d4392505050565b600061139f8585858561201b565b95945050505050565b6000606080828080836113db7f0000000000000000000000000000000000000000000000000000000000000000836123f4565b6114067f000000000000000000000000000000000000000000000000000000000000000060016123f4565b60408051600080825260208201909252600f60f81b9b939a50919850469750309650945092509050565b60007f00000000000000000000000000000000000000000000000000000000000000006001600160a01b03166391ddadf46040518163ffffffff1660e01b8152600401602060405180830381865afa9250505080156114ac575060408051601f3d908101601f191682019092526114a99181019061447a565b60015b61119957610a174361249f565b60006114c6848484612506565b90505b9392505050565b600b54600090156114f3576114e5600b61259c565b6001600160e01b0316905090565b50600a5490565b611502610a03565b6001600160a01b0316336001600160a01b0316146115325760405162461bcd60e51b81526004016102e1906141bc565b3061153b610a03565b6001600160a01b031614611578576000803660405161155b9291906141ac565b604051809103902090505b806115716004611a6e565b0361156657505b610bb7816125cc565b600c546000828152600d602052604080822054905163d45c443560e01b81526004810191909152909182916001600160a01b039091169063d45c443590602401602060405180830381865afa1580156115de573d6000803e3d6000fd5b505050506040513d601f19601f82011682018060405250810190611602919061426e565b90508060011461161257806114c9565b60009392505050565b6000610a1760085490565b61162e610a03565b6001600160a01b0316336001600160a01b03161461165e5760405162461bcd60e51b81526004016102e1906141bc565b30611667610a03565b6001600160a01b0316146116a457600080366040516116879291906141ac565b604051809103902090505b8061169d6004611a6e565b0361169257505b600080856001600160a01b03168585856040516116c29291906141ac565b60006040518083038185875af1925050503d80600081146116ff576040519150601f19603f3d011682016040523d82523d6000602084013e611704565b606091505b509150915061172c82826040518060600160405280602881526020016146fe60289139612635565b50505050505050565b60008484848460405160200161174e94939291906144a2565b60408051601f19818403018152919052805160209091012095945050505050565b611777610a03565b6001600160a01b0316336001600160a01b0316146117a75760405162461bcd60e51b81526004016102e1906141bc565b306117b0610a03565b6001600160a01b0316146117ed57600080366040516117d09291906141ac565b604051809103902090505b806117e66004611a6e565b036117db57505b610bb78161264e565b60006114c9838361181260408051602081019091526000815290565b612506565b61181f610a03565b6001600160a01b0316336001600160a01b03161461184f5760405162461bcd60e51b81526004016102e1906141bc565b30611858610a03565b6001600160a01b03161461189557600080366040516118789291906141ac565b604051809103902090505b8061188e6004611a6e565b0361188357505b610bb7816126ef565b6000610a2782612730565b60006001600160e01b03198216636e665ced60e01b1480610a275750610a27826127da565b6000610a276118db612876565b8360405161190160f01b8152600281019290925260228201526042902090565b600080600061190c878787876129a1565b91509150610f3581612a65565b6000858152600360205260408120600161193288610fc0565b600781111561194357611943613d06565b1461199c5760405162461bcd60e51b815260206004820152602360248201527f476f7665726e6f723a20766f7465206e6f742063757272656e746c792061637460448201526269766560e81b60648201526084016102e1565b80546000906119b69088906001600160401b031686612506565b90506119c58888888488612baf565b8351600003611a1a57866001600160a01b03167fb8e138887d0aa13bab447e82de9d5c1777041ecd21ca36ba824ff1e6c07ddda489888489604051611a0d94939291906144ed565b60405180910390a2610fb5565b866001600160a01b03167fe2babfbac5889a709b63bb7f598b324e08bc5a4fb9ec647fb3cbc9ec07eb87128988848989604051611a5b959493929190614515565b60405180910390a2979650505050505050565b6000611a898254600f81810b600160801b909204900b131590565b15611aa757604051631ed9509560e11b815260040160405180910390fd5b508054600f0b6000818152600180840160205260408220805492905583546fffffffffffffffffffffffffffffffff191692016001600160801b03169190911790915590565b6064811115611b705760405162461bcd60e51b815260206004820152604360248201527f476f7665726e6f72566f74657351756f72756d4672616374696f6e3a2071756f60448201527f72756d4e756d657261746f72206f7665722071756f72756d44656e6f6d696e616064820152623a37b960e91b608482015260a4016102e1565b6000611b7a6114d0565b90508015801590611b8b5750600b54155b15611bef576040805180820190915260008152600b9060208101611bae84612d29565b6001600160e01b039081169091528254600181018455600093845260209384902083519490930151909116600160201b0263ffffffff909316929092179101555b611c1c611c0a611bfd611430565b65ffffffffffff16611ebe565b611c1384612d29565b600b9190612d92565b505060408051828152602081018490527f0553476bf02ef2726e8ce5ced78d63e26e602e4a2257b1f559418e24b4633997910160405180910390a15050565b30611c64610a03565b6001600160a01b031614611cf65760005b8451811015611cf457306001600160a01b0316858281518110611c9a57611c9a614464565b60200260200101516001600160a01b031603611ce457611ce4838281518110611cc557611cc5614464565b6020026020010151805190602001206004612dad90919063ffffffff16565b611ced8161455b565b9050611c75565b505b5050505050565b611cf68585858585612de9565b30611d13610a03565b6001600160a01b031614611cf657600454600f81810b600160801b909204900b1315611cf6576000600455611cf6565b600061139f85858585611d6160408051602081019091526000815290565b611919565b600080611d7283612e5d565b90506004816007811115611d8857611d88613d06565b14611d935792915050565b6000838152600d602052604090205480611dae575092915050565b600c54604051632ab0f52960e01b8152600481018390526001600160a01b0390911690632ab0f52990602401602060405180830381865afa158015611df7573d6000803e3d6000fd5b505050506040513d601f19601f82011682018060405250810190611e1b9190614574565b15611e2a575060079392505050565b600c54604051632c258a9f60e11b8152600481018390526001600160a01b039091169063584b153e90602401602060405180830381865afa158015611e73573d6000803e3d6000fd5b505050506040513d601f19601f82011682018060405250810190611e979190614574565b15611ea6575060059392505050565b5060029392505050565b600061139f85858585612f9d565b600063ffffffff821115611f235760405162461bcd60e51b815260206004820152602660248201527f53616665436173743a2076616c756520646f65736e27742066697420696e203360448201526532206269747360d01b60648201526084016102e1565b5090565b815460009081816005811115611f84576000611f428461304f565b611f4c9085614451565b60008881526020902090915081015463ffffffff9081169087161015611f7457809150611f82565b611f7f8160016143d1565b92505b505b6000611f9287878585613137565b90508015611fcd57611fb787611fa9600184614451565b600091825260209091200190565b54600160201b90046001600160e01b0316610fb5565b6000979650505050505050565b60065460408051918252602082018390527fc565b045403dc03c2eea82b81a0465edad9e2e7fc4d97e11421c209da93d7a93910160405180910390a1600655565b6000336120288184613195565b6120745760405162461bcd60e51b815260206004820152601d60248201527f476f7665726e6f723a2070726f706f736572207265737472696374656400000060448201526064016102e1565b600061207e611430565b65ffffffffffff16905061209061161b565b61209f8361095e600185614451565b10156121075760405162461bcd60e51b815260206004820152603160248201527f476f7665726e6f723a2070726f706f73657220766f7465732062656c6f7720706044820152701c9bdc1bdcd85b081d1a1c995cda1bdb19607a1b60648201526084016102e1565b600061211c8888888880519060200120611735565b9050865188511461213f5760405162461bcd60e51b81526004016102e190614596565b85518851146121605760405162461bcd60e51b81526004016102e190614596565b60008851116121b15760405162461bcd60e51b815260206004820152601860248201527f476f7665726e6f723a20656d7074792070726f706f73616c000000000000000060448201526064016102e1565b6000818152600360205260409020546001600160401b0316156122205760405162461bcd60e51b815260206004820152602160248201527f476f7665726e6f723a2070726f706f73616c20616c72656164792065786973746044820152607360f81b60648201526084016102e1565b600061222a610f3f565b61223490846143d1565b90506000612240610a2d565b61224a90836143d1565b90506040518060e0016040528061226084613286565b6001600160401b031681526001600160a01b03871660208201526000604082015260600161228d83613286565b6001600160401b039081168252600060208084018290526040808501839052606094850183905288835260038252918290208551815492870151878501519186166001600160e01b031990941693909317600160401b6001600160a01b039094168402176001600160e01b0316600160e01b60e09290921c91909102178155938501516080860151908416921c0217600183015560a08301516002909201805460c09094015161ffff1990941692151561ff00191692909217610100931515939093029290921790558a517f7d84a6263ae0d98d3329bd7b46bb4e8d6f98cd35a7adb45c274c8b7fd5ebd5e091859188918e918e9181111561239157612391613850565b6040519080825280602002602001820160405280156123c457816020015b60608152602001906001900390816123af5790505b508d88888f6040516123de999897969594939291906145d7565b60405180910390a1509098975050505050505050565b606060ff831461240e57612407836132ee565b9050610a27565b81805461241a906141f3565b80601f0160208091040260200160405190810160405280929190818152602001828054612446906141f3565b80156124935780601f1061246857610100808354040283529160200191612493565b820191906000526020600020905b81548152906001019060200180831161247657829003601f168201915b50505050509050610a27565b600065ffffffffffff821115611f235760405162461bcd60e51b815260206004820152602660248201527f53616665436173743a2076616c756520646f65736e27742066697420696e203460448201526538206269747360d01b60648201526084016102e1565b604051630748d63560e31b81526001600160a01b038481166004830152602482018490526000917f000000000000000000000000000000000000000000000000000000000000000090911690633a46b1a890604401602060405180830381865afa158015612578573d6000803e3d6000fd5b505050506040513d601f19601f820116820180604052508101906114c6919061426e565b80546000908015611612576125b683611fa9600184614451565b54600160201b90046001600160e01b03166114c9565b600c54604080516001600160a01b03928316815291831660208301527f08f74ea46ef7894f65eabfb5e6e695de773a000b47c529ab559178069b226401910160405180910390a1600c80546001600160a01b0319166001600160a01b0392909216919091179055565b606083156126445750816114c9565b6114c9838361332d565b600081116126ae5760405162461bcd60e51b815260206004820152602760248201527f476f7665726e6f7253657474696e67733a20766f74696e6720706572696f6420604482015266746f6f206c6f7760c81b60648201526084016102e1565b60075460408051918252602082018390527f7e3f7f0708a84de9203036abaa450dccc85ad5ff52f78c170f3edb55cf5e8828910160405180910390a1600755565b60085460408051918252602082018390527fccb45da8d5717e6c4544694297c4ba5cf151d455c9bb0ed4fc7a38411bc05461910160405180910390a1600855565b6000606461273d83611211565b604051632394e7a360e21b8152600481018590527f00000000000000000000000000000000000000000000000000000000000000006001600160a01b031690638e539e8c90602401602060405180830381865afa1580156127a2573d6000803e3d6000fd5b505050506040513d601f19601f820116820180604052508101906127c6919061426e565b6127d091906146ae565b610a2791906146db565b600063288ace0360e11b6318df743f60e31b63bf26d89760e01b6379dd796f60e01b6001600160e01b0319861682148061282057506001600160e01b0319868116908216145b8061283757506001600160e01b0319868116908516145b8061285257506001600160e01b03198616630271189760e51b145b806110d257506301ffc9a760e01b6001600160e01b03198716149695505050505050565b6000306001600160a01b037f0000000000000000000000000000000000000000000000000000000000000000161480156128cf57507f000000000000000000000000000000000000000000000000000000000000000046145b156128f957507f000000000000000000000000000000000000000000000000000000000000000090565b610a17604080517f8b73c3c69bb8fe3d512ecc4cf759cc79239f7b179b0ffacaa9a75d522b39400f60208201527f0000000000000000000000000000000000000000000000000000000000000000918101919091527f000000000000000000000000000000000000000000000000000000000000000060608201524660808201523060a082015260009060c00160405160208183030381529060405280519060200120905090565b6000807f7fffffffffffffffffffffffffffffff5d576e7357a4501ddfe92f46681b20a08311156129d85750600090506003612a5c565b6040805160008082526020820180845289905260ff881692820192909252606081018690526080810185905260019060a0016020604051602081039080840390855afa158015612a2c573d6000803e3d6000fd5b5050604051601f1901519150506001600160a01b038116612a5557600060019250925050612a5c565b9150600090505b94509492505050565b6000816004811115612a7957612a79613d06565b03612a815750565b6001816004811115612a9557612a95613d06565b03612ae25760405162461bcd60e51b815260206004820152601860248201527f45434453413a20696e76616c6964207369676e6174757265000000000000000060448201526064016102e1565b6002816004811115612af657612af6613d06565b03612b435760405162461bcd60e51b815260206004820152601f60248201527f45434453413a20696e76616c6964207369676e6174757265206c656e6774680060448201526064016102e1565b6003816004811115612b5757612b57613d06565b03610bb75760405162461bcd60e51b815260206004820152602260248201527f45434453413a20696e76616c6964207369676e6174757265202773272076616c604482015261756560f01b60648201526084016102e1565b60008581526009602090815260408083206001600160a01b0388168452600381019092529091205460ff1615612c375760405162461bcd60e51b815260206004820152602760248201527f476f7665726e6f72566f74696e6753696d706c653a20766f746520616c726561604482015266191e4818d85cdd60ca1b60648201526084016102e1565b6001600160a01b03851660009081526003820160205260409020805460ff1916600117905560ff8416612c835782816000016000828254612c7891906143d1565b90915550611cf49050565b60001960ff851601612ca35782816001016000828254612c7891906143d1565b60011960ff851601612cc35782816002016000828254612c7891906143d1565b60405162461bcd60e51b815260206004820152603560248201527f476f7665726e6f72566f74696e6753696d706c653a20696e76616c69642076616044820152746c756520666f7220656e756d20566f74655479706560581b60648201526084016102e1565b60006001600160e01b03821115611f235760405162461bcd60e51b815260206004820152602760248201527f53616665436173743a2076616c756520646f65736e27742066697420696e20326044820152663234206269747360c81b60648201526084016102e1565b600080612da0858585613357565b915091505b935093915050565b8154600160801b90819004600f0b6000818152600180860160205260409091209390935583546001600160801b03908116939091011602179055565b600c5460405163e38335e560e01b81526001600160a01b039091169063e38335e5903490612e24908890889088906000908990600401614315565b6000604051808303818588803b158015612e3d57600080fd5b505af1158015612e51573d6000803e3d6000fd5b50505050505050505050565b6000818152600360205260408120600281015460ff1615612e815750600792915050565b6002810154610100900460ff1615612e9c5750600292915050565b6000838152600360205260408120546001600160401b031690819003612f045760405162461bcd60e51b815260206004820152601d60248201527f476f7665726e6f723a20756e6b6e6f776e2070726f706f73616c20696400000060448201526064016102e1565b6000612f0e611430565b65ffffffffffff169050808210612f2a57506000949350505050565b6000858152600360205260409020600101546001600160401b0316818110612f585750600195945050505050565b612f61866134f6565b8015612f80575060008681526009602052604090208054600190910154115b15612f915750600495945050505050565b50600395945050505050565b600080612fac86868686613542565b6000818152600d60205260409020549091501561139f57600c546000828152600d60205260409081902054905163c4d252f560e01b81526001600160a01b039092169163c4d252f5916130059160040190815260200190565b600060405180830381600087803b15801561301f57600080fd5b505af1158015613033573d6000803e3d6000fd5b5050506000828152600d60205260408120555095945050505050565b60008160000361306157506000919050565b6000600161306e8461364e565b901c6001901b90506001818481613087576130876146c5565b048201901c9050600181848161309f5761309f6146c5565b048201901c905060018184816130b7576130b76146c5565b048201901c905060018184816130cf576130cf6146c5565b048201901c905060018184816130e7576130e76146c5565b048201901c905060018184816130ff576130ff6146c5565b048201901c90506001818481613117576131176146c5565b048201901c90506114c981828581613131576131316146c5565b046136e2565b60005b8183101561318d57600061314e84846136f8565b60008781526020902090915063ffffffff86169082015463ffffffff16111561317957809250613187565b6131848160016143d1565b93505b5061313a565b509392505050565b805160009060348110156131ad576001915050610a27565b82810160131901516001600160a01b031981166b046e0e4dee0dee6cae47a60f60a31b146131e057600192505050610a27565b6000806131ee602885614451565b90505b838110156132655760008061322588848151811061321157613211614464565b01602001516001600160f81b031916613713565b915091508161323d5760019650505050505050610a27565b8060ff166004856001600160a01b0316901b17935050508061325e9061455b565b90506131f1565b50856001600160a01b0316816001600160a01b031614935050505092915050565b60006001600160401b03821115611f235760405162461bcd60e51b815260206004820152602660248201527f53616665436173743a2076616c756520646f65736e27742066697420696e203660448201526534206269747360d01b60648201526084016102e1565b606060006132fb836137a5565b604080516020808252818301909252919250600091906020820181803683375050509182525060208101929092525090565b81511561333d5781518083602001fd5b8060405162461bcd60e51b81526004016102e19190613a2a565b82546000908190801561349d57600061337587611fa9600185614451565b60408051808201909152905463ffffffff808216808452600160201b9092046001600160e01b0316602084015291925090871610156133f65760405162461bcd60e51b815260206004820152601b60248201527f436865636b706f696e743a2064656372656173696e67206b657973000000000060448201526064016102e1565b805163ffffffff80881691160361343e578461341788611fa9600186614451565b80546001600160e01b0392909216600160201b0263ffffffff90921691909117905561348d565b6040805180820190915263ffffffff80881682526001600160e01b0380881660208085019182528b54600181018d5560008d81529190912094519151909216600160201b029216919091179101555b602001519250839150612da59050565b50506040805180820190915263ffffffff80851682526001600160e01b0380851660208085019182528854600181018a5560008a815291822095519251909316600160201b029190931617920191909155905081612da5565b60008181526009602052604081206002810154600182015461351891906143d1565b600084815260036020526040902054613539906001600160401b031661189e565b11159392505050565b60008061355186868686611735565b9050600061355e82610fc0565b9050600281600781111561357457613574613d06565b141580156135945750600681600781111561359157613591613d06565b14155b80156135b2575060078160078111156135af576135af613d06565b14155b6135fe5760405162461bcd60e51b815260206004820152601d60248201527f476f7665726e6f723a2070726f706f73616c206e6f742061637469766500000060448201526064016102e1565b60008281526003602052604090819020600201805461ff001916610100179055517f789cf55be980739dad1d0699b93b58e806b51c9d96619bfa8fe0a28abaa7b30c90610e3b9084815260200190565b600080608083901c1561366357608092831c92015b604083901c1561367557604092831c92015b602083901c1561368757602092831c92015b601083901c1561369957601092831c92015b600883901c156136ab57600892831c92015b600483901c156136bd57600492831c92015b600283901c156136cf57600292831c92015b600183901c15610a275760010192915050565b60008183106136f157816114c9565b5090919050565b600061370760028484186146db565b6114c9908484166143d1565b60008060f883901c602f8111801561372e5750603a8160ff16105b1561374357600194602f199091019350915050565b8060ff166040108015613759575060478160ff16105b1561376e576001946036199091019350915050565b8060ff166060108015613784575060678160ff16105b15613799576001946056199091019350915050565b50600093849350915050565b600060ff8216601f811115610a2757604051632cd44ac360e21b815260040160405180910390fd5b6000602082840312156137df57600080fd5b81356001600160e01b0319811681146114c957600080fd5b803560ff8116811461119957600080fd5b60008083601f84011261381a57600080fd5b5081356001600160401b0381111561383157600080fd5b60208301915083602082850101111561384957600080fd5b9250929050565b634e487b7160e01b600052604160045260246000fd5b604051601f8201601f191681016001600160401b038111828210171561388e5761388e613850565b604052919050565b60006001600160401b038211156138af576138af613850565b50601f01601f191660200190565b60006138d06138cb84613896565b613866565b90508281528383830111156138e457600080fd5b828260208301376000602084830101529392505050565b600082601f83011261390c57600080fd5b6114c9838335602085016138bd565b60008060008060008060008060e0898b03121561393757600080fd5b8835975061394760208a016137f7565b965060408901356001600160401b038082111561396357600080fd5b61396f8c838d01613808565b909850965060608b013591508082111561398857600080fd5b506139958b828c016138fb565b9450506139a460808a016137f7565b925060a0890135915060c089013590509295985092959890939650565b6000602082840312156139d357600080fd5b5035919050565b60005b838110156139f55781810151838201526020016139dd565b50506000910152565b60008151808452613a168160208601602086016139da565b601f01601f19169290920160200192915050565b6020815260006114c960208301846139fe565b6001600160a01b0381168114610bb757600080fd5b60008060008060808587031215613a6857600080fd5b8435613a7381613a3d565b93506020850135613a8381613a3d565b92506040850135915060608501356001600160401b03811115613aa557600080fd5b613ab1878288016138fb565b91505092959194509250565b60006001600160401b03821115613ad657613ad6613850565b5060051b60200190565b600082601f830112613af157600080fd5b81356020613b016138cb83613abd565b82815260059290921b84018101918181019086841115613b2057600080fd5b8286015b84811015613b44578035613b3781613a3d565b8352918301918301613b24565b509695505050505050565b600082601f830112613b6057600080fd5b81356020613b706138cb83613abd565b82815260059290921b84018101918181019086841115613b8f57600080fd5b8286015b84811015613b445780358352918301918301613b93565b600082601f830112613bbb57600080fd5b81356020613bcb6138cb83613abd565b82815260059290921b84018101918181019086841115613bea57600080fd5b8286015b84811015613b445780356001600160401b03811115613c0d5760008081fd5b613c1b8986838b01016138fb565b845250918301918301613bee565b60008060008060808587031215613c3f57600080fd5b84356001600160401b0380821115613c5657600080fd5b613c6288838901613ae0565b95506020870135915080821115613c7857600080fd5b613c8488838901613b4f565b94506040870135915080821115613c9a57600080fd5b50613ca787828801613baa565b949793965093946060013593505050565b600080600080600060a08688031215613cd057600080fd5b85359450613ce0602087016137f7565b9350613cee604087016137f7565b94979396509394606081013594506080013592915050565b634e487b7160e01b600052602160045260246000fd5b6020810160088310613d3e57634e487b7160e01b600052602160045260246000fd5b91905290565b60008060408385031215613d5757600080fd5b823591506020830135613d6981613a3d565b809150509250929050565b60008060408385031215613d8757600080fd5b82359150613d97602084016137f7565b90509250929050565b600080600080600060808688031215613db857600080fd5b85359450613dc8602087016137f7565b935060408601356001600160401b0380821115613de457600080fd5b613df089838a01613808565b90955093506060880135915080821115613e0957600080fd5b50613e16888289016138fb565b9150509295509295909350565b60008060008060608587031215613e3957600080fd5b84359350613e49602086016137f7565b925060408501356001600160401b03811115613e6457600080fd5b613e7087828801613808565b95989497509550505050565b60008060008060808587031215613e9257600080fd5b84356001600160401b0380821115613ea957600080fd5b613eb588838901613ae0565b95506020870135915080821115613ecb57600080fd5b613ed788838901613b4f565b94506040870135915080821115613eed57600080fd5b613ef988838901613baa565b93506060870135915080821115613f0f57600080fd5b508501601f81018713613f2157600080fd5b613ab1878235602084016138bd565b600081518084526020808501945080840160005b83811015613f6057815187529582019590820190600101613f44565b509495945050505050565b60ff60f81b8816815260e060208201526000613f8a60e08301896139fe565b8281036040840152613f9c81896139fe565b606084018890526001600160a01b038716608085015260a0840186905283810360c08501529050610b228185613f30565b600080600060608486031215613fe257600080fd5b8335613fed81613a3d565b92506020840135915060408401356001600160401b0381111561400f57600080fd5b61401b868287016138fb565b9150509250925092565b60006020828403121561403757600080fd5b81356114c981613a3d565b600080600080600060a0868803121561405a57600080fd5b853561406581613a3d565b9450602086013561407581613a3d565b935060408601356001600160401b038082111561409157600080fd5b61409d89838a01613b4f565b945060608801359150808211156140b357600080fd5b6140bf89838a01613b4f565b93506080880135915080821115613e0957600080fd5b600080600080606085870312156140eb57600080fd5b84356140f681613a3d565b93506020850135925060408501356001600160401b03811115613e6457600080fd5b6000806040838503121561412b57600080fd5b823561413681613a3d565b946020939093013593505050565b600080600080600060a0868803121561415c57600080fd5b853561416781613a3d565b9450602086013561417781613a3d565b9350604086013592506060860135915060808601356001600160401b038111156141a057600080fd5b613e16888289016138fb565b8183823760009101908152919050565b60208082526018908201527f476f7665726e6f723a206f6e6c79476f7665726e616e63650000000000000000604082015260600190565b600181811c9082168061420757607f821691505b60208210810361422757634e487b7160e01b600052602260045260246000fd5b50919050565b60208082526021908201527f476f7665726e6f723a2070726f706f73616c206e6f74207375636365737366756040820152601b60fa1b606082015260800190565b60006020828403121561428057600080fd5b5051919050565b600081518084526020808501945080840160005b83811015613f605781516001600160a01b03168752958201959082019060010161429b565b600081518084526020808501808196508360051b8101915082860160005b858110156143085782840389526142f68483516139fe565b988501989350908401906001016142de565b5091979650505050505050565b60a08152600061432860a0830188614287565b828103602084015261433a8188613f30565b9050828103604084015261434e81876142c0565b60608401959095525050608001529392505050565b60c08152600061437660c0830189614287565b82810360208401526143888189613f30565b9050828103604084015261439c81886142c0565b60608401969096525050608081019290925260a0909101529392505050565b634e487b7160e01b600052601160045260246000fd5b80820180821115610a2757610a276143bb565b6000602082840312156143f657600080fd5b81516001600160401b0381111561440c57600080fd5b8201601f8101841361441d57600080fd5b805161442b6138cb82613896565b81815285602083850101111561444057600080fd5b61139f8260208301602086016139da565b81810381811115610a2757610a276143bb565b634e487b7160e01b600052603260045260246000fd5b60006020828403121561448c57600080fd5b815165ffffffffffff811681146114c957600080fd5b6080815260006144b56080830187614287565b82810360208401526144c78187613f30565b905082810360408401526144db81866142c0565b91505082606083015295945050505050565b84815260ff841660208201528260408201526080606082015260006110d260808301846139fe565b85815260ff8516602082015283604082015260a06060820152600061453d60a08301856139fe565b828103608084015261454f81856139fe565b98975050505050505050565b60006001820161456d5761456d6143bb565b5060010190565b60006020828403121561458657600080fd5b815180151581146114c957600080fd5b60208082526021908201527f476f7665726e6f723a20696e76616c69642070726f706f73616c206c656e67746040820152600d60fb1b606082015260800190565b60006101208b8352602060018060a01b038c16818501528160408501526146008285018c614287565b91508382036060850152614614828b613f30565b915083820360808501528189518084528284019150828160051b850101838c0160005b8381101561466557601f198784030185526146538383516139fe565b94860194925090850190600101614637565b505086810360a0880152614679818c6142c0565b9450505050508560c08401528460e084015282810361010084015261469e81856139fe565b9c9b505050505050505050505050565b8082028115828204841417610a2757610a276143bb565b634e487b7160e01b600052601260045260246000fd5b6000826146f857634e487b7160e01b600052601260045260246000fd5b50049056fe476f7665726e6f723a2072656c617920726576657274656420776974686f7574206d657373616765a26469706673582212207b6506d5e7f659067b21ba9d50b915edd12b0a62a4b5832da82e5a19be9cb69064736f6c63430008130033",
    "linkReferences": {}
  },
  "methodIdentifiers": {
    "BALLOT_TYPEHASH()": "deaaa7cc",
    "CLOCK_MODE()": "4bf5d7e9",
    "COUNTING_MODE()": "dd4e2ba5",
    "EXTENDED_BALLOT_TYPEHASH()": "2fe3e261",
    "cancel(address[],uint256[],bytes[],bytes32)": "452115d6",
    "castVote(uint256,uint8)": "56781388",
    "castVoteBySig(uint256,uint8,uint8,bytes32,bytes32)": "3bccf4fd",
    "castVoteWithReason(uint256,uint8,string)": "7b3c71d3",
    "castVoteWithReasonAndParams(uint256,uint8,string,bytes)": "5f398a14",
    "castVoteWithReasonAndParamsBySig(uint256,uint8,string,bytes,uint8,bytes32,bytes32)": "03420181",
    "clock()": "91ddadf4",
    "eip712Domain()": "84b0196e",
    "execute(address[],uint256[],bytes[],bytes32)": "2656227d",
    "getVotes(address,uint256)": "eb9019d4",
    "getVotesWithParams(address,uint256,bytes)": "9a802a6d",
    "hasVoted(uint256,address)": "43859632",
    "hashProposal(address[],uint256[],bytes[],bytes32)": "c59057e4",
    "name()": "06fdde03",
    "onERC1155BatchReceived(address,address,uint256[],uint256[],bytes)": "bc197c81",
    "onERC1155Received(address,address,uint256,uint256,bytes)": "f23a6e61",
    "onERC721Received(address,address,uint256,bytes)": "150b7a02",
    "proposalDeadline(uint256)": "c01f9e37",
    "proposalEta(uint256)": "ab58fb8e",
    "proposalProposer(uint256)": "143489d0",
    "proposalSnapshot(uint256)": "2d63f693",
    "proposalThreshold()": "b58131b0",
    "proposalVotes(uint256)": "544ffc9c",
    "propose(address[],uint256[],bytes[],string)": "7d5e81e2",
    "queue(address[],uint256[],bytes[],bytes32)": "160cbed7",
    "quorum(uint256)": "f8ce560a",
    "quorumDenominator()": "97c3d334",
    "quorumNumerator()": "a7713a70",
    "quorumNumerator(uint256)": "60c4247f",
    "relay(address,uint256,bytes)": "c28bc2fa",
    "setProposalThreshold(uint256)": "ece40cc1",
    "setVotingDelay(uint256)": "70b0f660",
    "setVotingPeriod(uint256)": "ea0217cf",
    "state(uint256)": "3e4f49e6",
    "supportsInterface(bytes4)": "01ffc9a7",
    "timelock()": "d33219b4",
    "token()": "fc0c546a",
    "updateQuorumNumerator(uint256)": "06f3f9e6",
    "updateTimelock(address)": "a890c910",
    "version()": "54fd4d50",
    "votingDelay()": "3932abb1",
    "votingPeriod()": "02a251a3"
  },
  "id": 77
}