{
  "abi": [
    {
      "inputs": [
        {
          "internalType": "address",
          "name": "_treasury",
          "type": "address"
        }
      ],
      "stateMutability": "nonpayable",
      "type": "constructor"
    },
    {
      "inputs": [],
      "name": "SwapManager__MismatchedPoolIdx",
      "type": "error"
    },
    {
      "inputs": [],
      "name": "SwapManager__PoolDoesNotExist",
      "type": "error"
    },
    {
      "inputs": [],
      "name": "SwapManager__Unauthorized",
      "type": "error"
    },
    {
      "anonymous": false,
      "inputs": [
        {
          "indexed": false,
          "internalType": "uint256",
          "name": "oldAllocation",
          "type": "uint256"
        },
        {
          "indexed": false,
          "internalType": "uint256",
          "name": "newAllocation",
          "type": "uint256"
        }
      ],
      "name": "MaintenanceAllocationUpdated",
      "type": "event"
    },
    {
      "anonymous": false,
      "inputs": [
        {
          "indexed": true,
          "internalType": "address",
          "name": "previousOwner",
          "type": "address"
        },
        {
          "indexed": true,
          "internalType": "address",
          "name": "newOwner",
          "type": "address"
        }
      ],
      "name": "OwnershipTransferred",
      "type": "event"
    },
    {
      "anonymous": false,
      "inputs": [
        {
          "indexed": false,
          "internalType": "uint256",
          "name": "oldAllocation",
          "type": "uint256"
        },
        {
          "indexed": false,
          "internalType": "uint256",
          "name": "newAllocation",
          "type": "uint256"
        }
      ],
      "name": "RoutingAllocationUpdated",
      "type": "event"
    },
    {
      "anonymous": false,
      "inputs": [
        {
          "indexed": true,
          "internalType": "uint256",
          "name": "poolIdx",
          "type": "uint256"
        },
        {
          "indexed": true,
          "internalType": "address",
          "name": "sender",
          "type": "address"
        },
        {
          "indexed": true,
          "internalType": "address",
          "name": "beneficiary",
          "type": "address"
        },
        {
          "indexed": false,
          "internalType": "contract IERC20",
          "name": "tokenIn",
          "type": "address"
        },
        {
          "indexed": false,
          "internalType": "contract IERC20",
          "name": "tokenOut",
          "type": "address"
        },
        {
          "indexed": false,
          "internalType": "uint256",
          "name": "amountIn",
          "type": "uint256"
        },
        {
          "indexed": false,
          "internalType": "uint256",
          "name": "amountOut",
          "type": "uint256"
        }
      ],
      "name": "Swap",
      "type": "event"
    },
    {
      "inputs": [
        {
          "internalType": "uint256",
          "name": "poolIdx",
          "type": "uint256"
        }
      ],
      "name": "initializePrices",
      "outputs": [],
      "stateMutability": "nonpayable",
      "type": "function"
    },
    {
      "inputs": [],
      "name": "liquidityManager",
      "outputs": [
        {
          "internalType": "contract ILiquidityManager",
          "name": "",
          "type": "address"
        }
      ],
      "stateMutability": "view",
      "type": "function"
    },
    {
      "inputs": [],
      "name": "liquidityRamp",
      "outputs": [
        {
          "internalType": "contract ILiquidityRamp",
          "name": "",
          "type": "address"
        }
      ],
      "stateMutability": "view",
      "type": "function"
    },
    {
      "inputs": [],
      "name": "maintenanceAllocation",
      "outputs": [
        {
          "internalType": "uint256",
          "name": "",
          "type": "uint256"
        }
      ],
      "stateMutability": "view",
      "type": "function"
    },
    {
      "inputs": [],
      "name": "owner",
      "outputs": [
        {
          "internalType": "address",
          "name": "",
          "type": "address"
        }
      ],
      "stateMutability": "view",
      "type": "function"
    },
    {
      "inputs": [],
      "name": "poolManager",
      "outputs": [
        {
          "internalType": "contract IPoolManager",
          "name": "",
          "type": "address"
        }
      ],
      "stateMutability": "view",
      "type": "function"
    },
    {
      "inputs": [
        {
          "internalType": "uint256",
          "name": "",
          "type": "uint256"
        },
        {
          "internalType": "contract IERC20",
          "name": "",
          "type": "address"
        }
      ],
      "name": "prices",
      "outputs": [
        {
          "internalType": "uint256",
          "name": "",
          "type": "uint256"
        }
      ],
      "stateMutability": "view",
      "type": "function"
    },
    {
      "inputs": [],
      "name": "renounceOwnership",
      "outputs": [],
      "stateMutability": "nonpayable",
      "type": "function"
    },
    {
      "inputs": [],
      "name": "routingAllocation",
      "outputs": [
        {
          "internalType": "uint256",
          "name": "",
          "type": "uint256"
        }
      ],
      "stateMutability": "view",
      "type": "function"
    },
    {
      "inputs": [
        {
          "internalType": "contract ILiquidityManager",
          "name": "_liquidityManager",
          "type": "address"
        }
      ],
      "name": "setLiquidityManager",
      "outputs": [],
      "stateMutability": "nonpayable",
      "type": "function"
    },
    {
      "inputs": [
        {
          "internalType": "contract ILiquidityRamp",
          "name": "_liquidityRamp",
          "type": "address"
        }
      ],
      "name": "setLiquidityRamp",
      "outputs": [],
      "stateMutability": "nonpayable",
      "type": "function"
    },
    {
      "inputs": [
        {
          "internalType": "uint256",
          "name": "_maintenanceAllocation",
          "type": "uint256"
        }
      ],
      "name": "setMaintenanceAllocation",
      "outputs": [],
      "stateMutability": "nonpayable",
      "type": "function"
    },
    {
      "inputs": [
        {
          "internalType": "contract IPoolManager",
          "name": "_poolManager",
          "type": "address"
        }
      ],
      "name": "setPoolManager",
      "outputs": [],
      "stateMutability": "nonpayable",
      "type": "function"
    },
    {
      "inputs": [
        {
          "internalType": "uint256",
          "name": "_routingAllocation",
          "type": "uint256"
        }
      ],
      "name": "setRoutingAllocation",
      "outputs": [],
      "stateMutability": "nonpayable",
      "type": "function"
    },
    {
      "inputs": [
        {
          "internalType": "uint256",
          "name": "poolIdx",
          "type": "uint256"
        },
        {
          "internalType": "address",
          "name": "recipient",
          "type": "address"
        },
        {
          "internalType": "contract IERC20",
          "name": "tokenIn",
          "type": "address"
        },
        {
          "internalType": "uint256",
          "name": "amountIn",
          "type": "uint256"
        }
      ],
      "name": "swap",
      "outputs": [
        {
          "internalType": "uint256",
          "name": "amountOut",
          "type": "uint256"
        }
      ],
      "stateMutability": "nonpayable",
      "type": "function"
    },
    {
      "inputs": [
        {
          "internalType": "uint256",
          "name": "poolIdx",
          "type": "uint256"
        },
        {
          "internalType": "address",
          "name": "recipient",
          "type": "address"
        },
        {
          "internalType": "contract IERC20",
          "name": "tokenIn",
          "type": "address"
        },
        {
          "internalType": "uint256",
          "name": "amountIn",
          "type": "uint256"
        },
        {
          "internalType": "address",
          "name": "routingAgent",
          "type": "address"
        }
      ],
      "name": "swap",
      "outputs": [
        {
          "internalType": "uint256",
          "name": "amountOut",
          "type": "uint256"
        }
      ],
      "stateMutability": "nonpayable",
      "type": "function"
    },
    {
      "inputs": [
        {
          "internalType": "address",
          "name": "newOwner",
          "type": "address"
        }
      ],
      "name": "transferOwnership",
      "outputs": [],
      "stateMutability": "nonpayable",
      "type": "function"
    }
  ],
  "bytecode": {
    "object": "0x60a060405260646200001b670de0b6b3a7640000600a620000e3565b6200002791906200010f565b6005556200003f6002670de0b6b3a76400006200010f565b6006553480156200004f57600080fd5b5060405162001c9c38038062001c9c833981016040819052620000729162000132565b6200007d3362000093565b600180556001600160a01b031660805262000164565b600080546001600160a01b038381166001600160a01b0319831681178455604051919092169283917f8be0079c531659141344cd1fd0a4f28419497f9722a3daafe3b4186f6b6457e09190a35050565b80820281158282048414176200010957634e487b7160e01b600052601160045260246000fd5b92915050565b6000826200012d57634e487b7160e01b600052601260045260246000fd5b500490565b6000602082840312156200014557600080fd5b81516001600160a01b03811681146200015d57600080fd5b9392505050565b608051611b15620001876000396000818161041701526117830152611b156000f3fe608060405234801561001057600080fd5b506004361061010b5760003560e01c80637aef6715116100a2578063c20e783d11610071578063c20e783d14610200578063cb77b8fc14610213578063dc4c90d314610226578063f2fde38b14610239578063fd02dac01461024c57600080fd5b80637aef6715146101c05780638da5cb5b146101d35780639485546a146101e45780639f6eb106146101ed57600080fd5b806346ecca77116100de57806346ecca771461017b5780634dfd324e1461019257806370085be0146101a5578063715018a6146101b857600080fd5b806315550a151461011057806323bae8a71461012557806333827438146101385780633c1624d414610168575b600080fd5b61012361011e3660046117f8565b610277565b005b610123610133366004611826565b6102c0565b60025461014b906001600160a01b031681565b6040516001600160a01b0390911681526020015b60405180910390f35b610123610176366004611826565b610372565b61018460065481565b60405190815260200161015f565b60035461014b906001600160a01b031681565b6101846101b3366004611843565b610404565b61012361044e565b6101236101ce366004611826565b610462565b6000546001600160a01b031661014b565b61018460055481565b6101846101fb36600461188b565b610510565b61012361020e3660046117f8565b61053b565b6101236102213660046117f8565b610584565b60045461014b906001600160a01b031681565b610123610247366004611826565b6107a3565b61018461025a3660046118ea565b600760209081526000928352604080842090915290825290205481565b61027f61081e565b60055460408051918252602082018390527fcf7ab7f4b447283d3f185f28d5a518b565e20331c39c7f8c3f8bd9adb54b4c24910160405180910390a1600555565b6102c861081e565b6103066040518060400160405280601e81526020017f0a537761704d616e616765723a3a7365744c697175696469747952616d700000815250610878565b6003546001600160a01b031615610330576040516324727e8f60e11b815260040160405180910390fd5b600380546001600160a01b0319166001600160a01b0383161790556040805180820190915260048152637365742160e01b602082015261036f90610878565b50565b61037a61081e565b61039b604051806060016040528060218152602001611abf60219139610878565b6002546001600160a01b0316156103c5576040516324727e8f60e11b815260040160405180910390fd5b600280546001600160a01b0319166001600160a01b0383161790556040805180820190915260048152637365742160e01b602082015261036f90610878565b600061040e6108bb565b61043b858585857f0000000000000000000000000000000000000000000000000000000000000000610914565b905061044660018055565b949350505050565b61045661081e565b6104606000611420565b565b61046a61081e565b6104a86040518060400160405280601c81526020017f0a537761704d616e616765723a3a736574506f6f6c4d616e6167657200000000815250610878565b6004546001600160a01b0316156104d2576040516324727e8f60e11b815260040160405180910390fd5b600480546001600160a01b0319166001600160a01b03831617815560408051808201909152908152637365742160e01b602082015261036f90610878565b600061051a6108bb565b6105278686868686610914565b905061053260018055565b95945050505050565b61054361081e565b60065460408051918252602082018390527f2163cc98c2e8650c8b966e6dac8d59694192c58e9f362d8e2b70867d23418d76910160405180910390a1600655565b6003546001600160a01b031633146105af576040516324727e8f60e11b815260040160405180910390fd5b600480546040516369e4e61360e11b815291820183905260009182916001600160a01b03169063d3c9cc26906024016040805180830381865afa1580156105fa573d6000803e3d6000fd5b505050506040513d601f19601f8201168201806040525081019061061e919061191a565b600254604051635496696b60e01b8152600481018790526001600160a01b0380851660248301529395509193506000921690635496696b90604401602060405180830381865afa158015610676573d6000803e3d6000fd5b505050506040513d601f19601f8201168201806040525081019061069a9190611949565b600254604051635496696b60e01b8152600481018790526001600160a01b03858116602483015292935060009290911690635496696b90604401602060405180830381865afa1580156106f1573d6000803e3d6000fd5b505050506040513d601f19601f820116820180604052508101906107159190611949565b905061073c8261072d670de0b6b3a764000084611978565b610737919061198f565b611470565b60008681526007602090815260408083206001600160a01b03891684529091529020556107758161072d670de0b6b3a764000085611978565b60009586526007602090815260408088206001600160a01b0390961688529490529290942091909155505050565b6107ab61081e565b6001600160a01b0381166108155760405162461bcd60e51b815260206004820152602660248201527f4f776e61626c653a206e6577206f776e657220697320746865207a65726f206160448201526564647265737360d01b60648201526084015b60405180910390fd5b61036f81611420565b6000546001600160a01b031633146104605760405162461bcd60e51b815260206004820181905260248201527f4f776e61626c653a2063616c6c6572206973206e6f7420746865206f776e6572604482015260640161080c565b61036f8160405160240161088c91906119f7565b60408051601f198184030181529190526020810180516001600160e01b031663104c13eb60e21b1790526114a6565b60026001540361090d5760405162461bcd60e51b815260206004820152601f60248201527f5265656e7472616e637947756172643a207265656e7472616e742063616c6c00604482015260640161080c565b6002600155565b600061094c604051806040016040528060158152602001740a537761704d616e616765723a3a5f73776170282960581b815250610878565b8515806109c257506004805460408051631ae315e160e11b815290516001600160a01b03909216926335c62bc29282820192602092908290030181865afa15801561099b573d6000803e3d6000fd5b505050506040513d601f19601f820116820180604052508101906109bf9190611949565b86115b156109e057604051632d285c6360e01b815260040160405180910390fd5b610a0d6040518060400160405280600b81526020016a706f6f6c4964783a20256960a81b815250876114c7565b610a3c6040518060400160405280600d81526020016c726563697069656e743a20257360981b81525086611510565b610a696040518060400160405280600b81526020016a746f6b656e496e3a20257360a81b81525085611510565b610a976040518060400160405280600c81526020016b616d6f756e74496e3a20256960a01b815250846114c7565b610ac96040518060400160405280601081526020016f726f7574696e674167656e743a20257360801b81525083611510565b600480546040516306ed78b760e21b81529182018890526000916001600160a01b0390911690631bb5e2dc90602401602060405180830381865afa158015610b15573d6000803e3d6000fd5b505050506040513d601f19601f82011682018060405250810190610b399190611a0a565b60405163302bb94d60e01b81526001600160a01b03878116600483015291925060009183169063302bb94d90602401602060405180830381865afa158015610b85573d6000803e3d6000fd5b505050506040513d601f19601f82011682018060405250810190610ba99190611a0a565b60048054604051638ae93f0b60e01b81526001600160a01b038a81169382019390935282841660248201529293508a92911690638ae93f0b90604401602060405180830381865afa158015610c02573d6000803e3d6000fd5b505050506040513d601f19601f82011682018060405250810190610c269190611949565b14610c445760405163ebff506360e01b815260040160405180910390fd5b600254604051635496696b60e01b8152600481018a90526001600160a01b0388811660248301526000921690635496696b90604401602060405180830381865afa158015610c96573d6000803e3d6000fd5b505050506040513d601f19601f82011682018060405250810190610cba9190611949565b600254604051635496696b60e01b8152600481018c90526001600160a01b03858116602483015292935060009290911690635496696b90604401602060405180830381865afa158015610d11573d6000803e3d6000fd5b505050506040513d601f19601f82011682018060405250810190610d359190611949565b9050610d6b6040518060400160405280601281526020017162616c616e6365546f6b656e496e3a20256960701b815250836114c7565b610da06040518060400160405280601381526020017262616c616e6365546f6b656e4f75743a20256960681b815250826114c7565b6000610dac8284611978565b9050610de26040518060400160405280601281526020017173746172744c69717569646974793a20256960701b815250826114c7565b60008b81526007602090815260408083206001600160a01b0388168452825291829020548251808401909352600983526870726963653a20256960b81b9183019190915290610e3190826114c7565b610e3c838583611555565b9650610e7560405180604001604052806015815260200174616d6f756e744f757420286465707468293a20256960581b815250886114c7565b610e7f8985611a27565b9350610eb56040518060400160405280601281526020017162616c616e6365546f6b656e496e3a20256960701b815250856114c7565b8681610ec9670de0b6b3a76400008c611978565b610ed3919061198f565b101561106657610f0c6040518060400160405280601281526020017109cdee840e6eec2e0e0d2dcce40c8cae0e8d60731b815250610878565b80610f1f670de0b6b3a76400008b611978565b610f29919061198f565b9650610f5a6040518060400160405280600d81526020016c616d6f756e744f75743a20256960981b815250886114c7565b610f648784611a3a565b9250610f9b6040518060400160405280601381526020017262616c616e6365546f6b656e4f75743a20256960681b815250846114c7565b60008c81526007602090815260408083206001600160a01b038e168452909152902054610fc7906115c6565b9050610ffe6040518060400160405280601381526020017270726963652063616e6469646174653a20256960681b815250826114c7565b600061100b858584611555565b11156110615760008c81526007602090815260408083206001600160a01b038e16845282529182902083905581516060810190925260258083526110619291611a9a9083013961105c868685611555565b6114c7565b6111e5565b61109a604051806040016040528060138152602001720a6eec2e0e0d2dcce40ccead8d840c8cae0e8d606b1b815250610878565b6110a48784611a3a565b92506110db6040518060400160405280601381526020017262616c616e6365546f6b656e4f75743a20256960681b815250846114c7565b6110f18461072d670de0b6b3a764000086611978565b60008d81526007602090815260408083206001600160a01b038f16845290915290205561112a8361072d670de0b6b3a764000087611978565b60008d81526007602090815260408083206001600160a01b03808b168552818452828520959095558151808301835260138152726e65775072696365546f6b656e496e3a20256960681b81850152948f16845290915290205461118d91906114c7565b60408051808201825260148152736e65775072696365546f6b656e4f75743a20256960601b60208083019190915260008f8152600782528381206001600160a01b038a16825290915291909120546111e591906114c7565b600254604051637db4c98b60e11b8152600481018e90526001600160a01b038c81166024830152604482018c90529091169063fb69931690606401600060405180830381600087803b15801561123a57600080fd5b505af115801561124e573d6000803e3d6000fd5b505050506112906040518060400160405280601781526020017f446973747269627574656420746f20636c757374657273000000000000000000815250610878565b6002546040516328c6306960e21b8152600481018e90526001600160a01b0387811660248301528d81166044830152606482018a90529091169063a318c1a490608401600060405180830381600087803b1580156112ed57600080fd5b505af1158015611301573d6000803e3d6000fd5b505050506113436040518060400160405280601b81526020017f0a4261636b20746f20537761704d616e616765723a3a62757928290000000000815250610878565b611350828585898c6115f3565b61138360405180604001604052806012815260200171135a5b9d195908199c9bdb481c1c9bd99a5d60721b815250610878565b604080516001600160a01b038c8116825287811660208301529181018b905260608101899052908c169033908e907fc6887c51c37a61649529f34b82c5b1f312aee8702f4b13149e7c40d74830f4589060800160405180910390a46114116040518060400160405280601281526020017114ddd85c08195d995b9d08195b5a5d1d195960721b815250610878565b50505050505095945050505050565b600080546001600160a01b038381166001600160a01b0319831681178455604051919092169283917f8be0079c531659141344cd1fd0a4f28419497f9722a3daafe3b4186f6b6457e09190a35050565b6000670de0b6b3a764000061148c6611c37937e0800082611a27565b6114969084611978565b6114a0919061198f565b92915050565b80516a636f6e736f6c652e6c6f67602083016000808483855afa5050505050565b61150c82826040516024016114dd929190611a4d565b60408051601f198184030181529190526020810180516001600160e01b03166309710a9d60e41b1790526114a6565b5050565b61150c8282604051602401611526929190611a6f565b60408051601f198184030181529190526020810180516001600160e01b031663319af33360e01b1790526114a6565b60006115618483611978565b61157384670de0b6b3a7640000611978565b10611580575060006115bf565b61158b826002611978565b61159d670de0b6b3a764000085611978565b6115a7919061198f565b6115b260028661198f565b6115bc9190611a3a565b90505b9392505050565b60006115e16611c37937e08000670de0b6b3a7640000611a27565b611496670de0b6b3a764000084611978565b60006115ff8486611978565b9050600061160d8783611a3a565b60055461161a9190611978565b61162c670de0b6b3a764000084611978565b6116369190611a3a565b846001600160a01b03166318160ddd6040518163ffffffff1660e01b8152600401602060405180830381865afa158015611674573d6000803e3d6000fd5b505050506040513d601f19601f820116820180604052508101906116989190611949565b6116a28985611a3a565b6005546116af9190611978565b6116b99190611978565b6116c3919061198f565b905080156117ef576006541561176c576000670de0b6b3a7640000600654836116ec9190611978565b6116f6919061198f565b6040516340c10f1960e01b81526001600160a01b03868116600483015260248201839052919250908616906340c10f1990604401600060405180830381600087803b15801561174457600080fd5b505af1158015611758573d6000803e3d6000fd5b5050505080826117689190611a3a565b9150505b6040516340c10f1960e01b81526001600160a01b037f000000000000000000000000000000000000000000000000000000000000000081166004830152602482018390528516906340c10f1990604401600060405180830381600087803b1580156117d657600080fd5b505af11580156117ea573d6000803e3d6000fd5b505050505b50505050505050565b60006020828403121561180a57600080fd5b5035919050565b6001600160a01b038116811461036f57600080fd5b60006020828403121561183857600080fd5b81356115bf81611811565b6000806000806080858703121561185957600080fd5b84359350602085013561186b81611811565b9250604085013561187b81611811565b9396929550929360600135925050565b600080600080600060a086880312156118a357600080fd5b8535945060208601356118b581611811565b935060408601356118c581611811565b92506060860135915060808601356118dc81611811565b809150509295509295909350565b600080604083850312156118fd57600080fd5b82359150602083013561190f81611811565b809150509250929050565b6000806040838503121561192d57600080fd5b825161193881611811565b602084015190925061190f81611811565b60006020828403121561195b57600080fd5b5051919050565b634e487b7160e01b600052601160045260246000fd5b80820281158282048414176114a0576114a0611962565b6000826119ac57634e487b7160e01b600052601260045260246000fd5b500490565b6000815180845260005b818110156119d7576020818501810151868301820152016119bb565b506000602082860101526020601f19601f83011685010191505092915050565b6020815260006115bf60208301846119b1565b600060208284031215611a1c57600080fd5b81516115bf81611811565b808201808211156114a0576114a0611962565b818103818111156114a0576114a0611962565b604081526000611a6060408301856119b1565b90508260208301529392505050565b604081526000611a8260408301856119b1565b905060018060a01b0383166020830152939250505056fe70726963652063616e6469646174652061636365707465642062792064657074683a2025690a537761704d616e616765723a3a7365744c69717569646974794d616e61676572a2646970667358221220a23214d477c9f11f0ad73fb0c86758b240712c3153a09aae8caaf3f5a1b440b664736f6c63430008130033",
    "linkReferences": {}
  },
  "methodIdentifiers": {
    "initializePrices(uint256)": "cb77b8fc",
    "liquidityManager()": "33827438",
    "liquidityRamp()": "4dfd324e",
    "maintenanceAllocation()": "9485546a",
    "owner()": "8da5cb5b",
    "poolManager()": "dc4c90d3",
    "prices(uint256,address)": "fd02dac0",
    "renounceOwnership()": "715018a6",
    "routingAllocation()": "46ecca77",
    "setLiquidityManager(address)": "3c1624d4",
    "setLiquidityRamp(address)": "23bae8a7",
    "setMaintenanceAllocation(uint256)": "15550a15",
    "setPoolManager(address)": "7aef6715",
    "setRoutingAllocation(uint256)": "c20e783d",
    "swap(uint256,address,address,uint256)": "70085be0",
    "swap(uint256,address,address,uint256,address)": "9f6eb106",
    "transferOwnership(address)": "f2fde38b"
  },
  "id": 75
}