{
  "abi": [
    {
      "inputs": [
        {
          "internalType": "address",
          "name": "_treasury",
          "type": "address"
        }
      ],
      "stateMutability": "nonpayable",
      "type": "constructor"
    },
    {
      "inputs": [],
      "name": "SwapManager__BadAllocation",
      "type": "error"
    },
    {
      "inputs": [],
      "name": "SwapManager__MismatchedPoolIdx",
      "type": "error"
    },
    {
      "inputs": [],
      "name": "SwapManager__PoolDoesNotExist",
      "type": "error"
    },
    {
      "inputs": [],
      "name": "SwapManager__Unauthorized",
      "type": "error"
    },
    {
      "anonymous": false,
      "inputs": [
        {
          "indexed": false,
          "internalType": "uint256",
          "name": "oldAllocation",
          "type": "uint256"
        },
        {
          "indexed": false,
          "internalType": "uint256",
          "name": "newAllocation",
          "type": "uint256"
        }
      ],
      "name": "MaintenanceAllocationUpdated",
      "type": "event"
    },
    {
      "anonymous": false,
      "inputs": [
        {
          "indexed": true,
          "internalType": "address",
          "name": "previousOwner",
          "type": "address"
        },
        {
          "indexed": true,
          "internalType": "address",
          "name": "newOwner",
          "type": "address"
        }
      ],
      "name": "OwnershipTransferred",
      "type": "event"
    },
    {
      "anonymous": false,
      "inputs": [
        {
          "indexed": false,
          "internalType": "uint256",
          "name": "oldAllocation",
          "type": "uint256"
        },
        {
          "indexed": false,
          "internalType": "uint256",
          "name": "newAllocation",
          "type": "uint256"
        }
      ],
      "name": "RoutingAllocationUpdated",
      "type": "event"
    },
    {
      "anonymous": false,
      "inputs": [
        {
          "indexed": true,
          "internalType": "uint256",
          "name": "poolIdx",
          "type": "uint256"
        },
        {
          "indexed": true,
          "internalType": "address",
          "name": "beneficiary",
          "type": "address"
        },
        {
          "indexed": false,
          "internalType": "address",
          "name": "routingAgent",
          "type": "address"
        },
        {
          "indexed": false,
          "internalType": "contract IERC20",
          "name": "tokenIn",
          "type": "address"
        },
        {
          "indexed": false,
          "internalType": "contract IERC20",
          "name": "tokenOut",
          "type": "address"
        },
        {
          "indexed": false,
          "internalType": "uint256",
          "name": "amountIn",
          "type": "uint256"
        },
        {
          "indexed": false,
          "internalType": "uint256",
          "name": "amountOut",
          "type": "uint256"
        }
      ],
      "name": "Swap",
      "type": "event"
    },
    {
      "inputs": [
        {
          "internalType": "uint256",
          "name": "poolIdx",
          "type": "uint256"
        }
      ],
      "name": "initializePrices",
      "outputs": [],
      "stateMutability": "nonpayable",
      "type": "function"
    },
    {
      "inputs": [],
      "name": "liquidityManager",
      "outputs": [
        {
          "internalType": "contract ILiquidityManager",
          "name": "",
          "type": "address"
        }
      ],
      "stateMutability": "view",
      "type": "function"
    },
    {
      "inputs": [],
      "name": "liquidityRamp",
      "outputs": [
        {
          "internalType": "contract ILiquidityRamp",
          "name": "",
          "type": "address"
        }
      ],
      "stateMutability": "view",
      "type": "function"
    },
    {
      "inputs": [],
      "name": "maintenanceAllocation",
      "outputs": [
        {
          "internalType": "uint256",
          "name": "",
          "type": "uint256"
        }
      ],
      "stateMutability": "view",
      "type": "function"
    },
    {
      "inputs": [],
      "name": "owner",
      "outputs": [
        {
          "internalType": "address",
          "name": "",
          "type": "address"
        }
      ],
      "stateMutability": "view",
      "type": "function"
    },
    {
      "inputs": [],
      "name": "poolManager",
      "outputs": [
        {
          "internalType": "contract IPoolManager",
          "name": "",
          "type": "address"
        }
      ],
      "stateMutability": "view",
      "type": "function"
    },
    {
      "inputs": [
        {
          "internalType": "uint256",
          "name": "",
          "type": "uint256"
        },
        {
          "internalType": "contract IERC20",
          "name": "",
          "type": "address"
        }
      ],
      "name": "prices",
      "outputs": [
        {
          "internalType": "uint256",
          "name": "",
          "type": "uint256"
        }
      ],
      "stateMutability": "view",
      "type": "function"
    },
    {
      "inputs": [],
      "name": "renounceOwnership",
      "outputs": [],
      "stateMutability": "nonpayable",
      "type": "function"
    },
    {
      "inputs": [],
      "name": "routingAllocation",
      "outputs": [
        {
          "internalType": "uint256",
          "name": "",
          "type": "uint256"
        }
      ],
      "stateMutability": "view",
      "type": "function"
    },
    {
      "inputs": [
        {
          "internalType": "contract ILiquidityManager",
          "name": "_liquidityManager",
          "type": "address"
        }
      ],
      "name": "setLiquidityManager",
      "outputs": [],
      "stateMutability": "nonpayable",
      "type": "function"
    },
    {
      "inputs": [
        {
          "internalType": "contract ILiquidityRamp",
          "name": "_liquidityRamp",
          "type": "address"
        }
      ],
      "name": "setLiquidityRamp",
      "outputs": [],
      "stateMutability": "nonpayable",
      "type": "function"
    },
    {
      "inputs": [
        {
          "internalType": "uint256",
          "name": "_maintenanceAllocation",
          "type": "uint256"
        }
      ],
      "name": "setMaintenanceAllocation",
      "outputs": [],
      "stateMutability": "nonpayable",
      "type": "function"
    },
    {
      "inputs": [
        {
          "internalType": "contract IPoolManager",
          "name": "_poolManager",
          "type": "address"
        }
      ],
      "name": "setPoolManager",
      "outputs": [],
      "stateMutability": "nonpayable",
      "type": "function"
    },
    {
      "inputs": [
        {
          "internalType": "uint256",
          "name": "_routingAllocation",
          "type": "uint256"
        }
      ],
      "name": "setRoutingAllocation",
      "outputs": [],
      "stateMutability": "nonpayable",
      "type": "function"
    },
    {
      "inputs": [
        {
          "internalType": "uint256",
          "name": "poolIdx",
          "type": "uint256"
        },
        {
          "internalType": "address",
          "name": "recipient",
          "type": "address"
        },
        {
          "internalType": "address",
          "name": "routingAgent",
          "type": "address"
        },
        {
          "internalType": "contract IERC20",
          "name": "tokenIn",
          "type": "address"
        },
        {
          "internalType": "uint256",
          "name": "amountIn",
          "type": "uint256"
        },
        {
          "internalType": "bytes",
          "name": "data",
          "type": "bytes"
        }
      ],
      "name": "swap",
      "outputs": [
        {
          "internalType": "uint256",
          "name": "amountOut",
          "type": "uint256"
        }
      ],
      "stateMutability": "nonpayable",
      "type": "function"
    },
    {
      "inputs": [
        {
          "internalType": "address",
          "name": "newOwner",
          "type": "address"
        }
      ],
      "name": "transferOwnership",
      "outputs": [],
      "stateMutability": "nonpayable",
      "type": "function"
    }
  ],
  "bytecode": {
    "object": "0x60a060405260646200001b670de0b6b3a7640000600a620000e3565b6200002791906200010f565b6005556200003f6002670de0b6b3a76400006200010f565b6006553480156200004f57600080fd5b5060405162001a4338038062001a43833981016040819052620000729162000132565b6200007d3362000093565b600180556001600160a01b031660805262000164565b600080546001600160a01b038381166001600160a01b0319831681178455604051919092169283917f8be0079c531659141344cd1fd0a4f28419497f9722a3daafe3b4186f6b6457e09190a35050565b80820281158282048414176200010957634e487b7160e01b600052601160045260246000fd5b92915050565b6000826200012d57634e487b7160e01b600052601260045260246000fd5b500490565b6000602082840312156200014557600080fd5b81516001600160a01b03811681146200015d57600080fd5b9392505050565b6080516118c362000180600039600061128e01526118c36000f3fe608060405234801561001057600080fd5b50600436106101005760003560e01c80637aef671511610097578063cb77b8fc11610066578063cb77b8fc146101f5578063dc4c90d314610208578063f2fde38b1461021b578063fd02dac01461022e57600080fd5b80637aef6715146101b55780638da5cb5b146101c85780639485546a146101d9578063c20e783d146101e257600080fd5b80633c1624d4116100d35780633c1624d41461017e57806346ecca77146101915780634dfd324e1461019a578063715018a6146101ad57600080fd5b806315550a151461010557806323bae8a71461011a578063338274381461012d57806337acfb901461015d575b600080fd5b610118610113366004611618565b610259565b005b610118610128366004611646565b6102d5565b600254610140906001600160a01b031681565b6040516001600160a01b0390911681526020015b60405180910390f35b61017061016b366004611663565b610329565b604051908152602001610154565b61011861018c366004611646565b610723565b61017060065481565b600354610140906001600160a01b031681565b610118610777565b6101186101c3366004611646565b61078b565b6000546001600160a01b0316610140565b61017060055481565b6101186101f0366004611618565b6107df565b610118610203366004611618565b610851565b600454610140906001600160a01b031681565b610118610229366004611646565b610a76565b61017061023c366004611721565b600760209081526000928352604080842090915290825290205481565b610261610af4565b6102746002670de0b6b3a764000061177d565b8111156102945760405163c4910a3d60e01b815260040160405180910390fd5b60055460408051918252602082018390527fcf7ab7f4b447283d3f185f28d5a518b565e20331c39c7f8c3f8bd9adb54b4c24910160405180910390a1600555565b6102dd610af4565b6003546001600160a01b031615610307576040516324727e8f60e11b815260040160405180910390fd5b600380546001600160a01b0319166001600160a01b0392909216919091179055565b6000610333610b4e565b8715806103a957506004805460408051631ae315e160e11b815290516001600160a01b03909216926335c62bc29282820192602092908290030181865afa158015610382573d6000803e3d6000fd5b505050506040513d601f19601f820116820180604052508101906103a6919061179f565b88115b156103c757604051632d285c6360e01b815260040160405180910390fd5b600480546040516306ed78b760e21b81529182018a90526000916001600160a01b0390911690631bb5e2dc90602401602060405180830381865afa158015610413573d6000803e3d6000fd5b505050506040513d601f19601f8201168201806040525081019061043791906117b8565b60405163302bb94d60e01b81526001600160a01b03888116600483015291925060009183169063302bb94d90602401602060405180830381865afa158015610483573d6000803e3d6000fd5b505050506040513d601f19601f820116820180604052508101906104a791906117b8565b60048054604051638ae93f0b60e01b81526001600160a01b038b81169382019390935282841660248201529293508c92911690638ae93f0b90604401602060405180830381865afa158015610500573d6000803e3d6000fd5b505050506040513d601f19601f82011682018060405250810190610524919061179f565b146105425760405163ebff506360e01b815260040160405180910390fd5b61054e8a888389610ba7565b6002546040516328c6306960e21b8152600481018d90526001600160a01b0384811660248301528c811660448301526064820184905292955091169063a318c1a490608401600060405180830381600087803b1580156105ad57600080fd5b505af11580156105c1573d6000803e3d6000fd5b50508515915061063490505760405163a5a6edad60e01b81526001600160a01b038a169063a5a6edad90610601908c908a9088908b908b906004016117d5565b600060405180830381600087803b15801561061b57600080fd5b505af115801561062f573d6000803e3d6000fd5b505050505b600254604051637db4c98b60e11b8152600481018c90526001600160a01b038981166024830152604482018990529091169063fb69931690606401600060405180830381600087803b15801561068957600080fd5b505af115801561069d573d6000803e3d6000fd5b505050506106ac8a838a610e2a565b604080516001600160a01b038a8116825289811660208301528381168284015260608201899052608082018690529151918b16918c917fc6887c51c37a61649529f34b82c5b1f312aee8702f4b13149e7c40d74830f458919081900360a00190a3505061071860018055565b979650505050505050565b61072b610af4565b6002546001600160a01b031615610755576040516324727e8f60e11b815260040160405180910390fd5b600280546001600160a01b0319166001600160a01b0392909216919091179055565b61077f610af4565b6107896000611302565b565b610793610af4565b6004546001600160a01b0316156107bd576040516324727e8f60e11b815260040160405180910390fd5b600480546001600160a01b0319166001600160a01b0392909216919091179055565b6107e7610af4565b670de0b6b3a76400008111156108105760405163c4910a3d60e01b815260040160405180910390fd5b60065460408051918252602082018390527f2163cc98c2e8650c8b966e6dac8d59694192c58e9f362d8e2b70867d23418d76910160405180910390a1600655565b6003546001600160a01b0316331461087c576040516324727e8f60e11b815260040160405180910390fd5b600480546040516369e4e61360e11b815291820183905260009182916001600160a01b03169063d3c9cc26906024016040805180830381865afa1580156108c7573d6000803e3d6000fd5b505050506040513d601f19601f820116820180604052508101906108eb9190611821565b600254604051635496696b60e01b8152600481018790526001600160a01b0380851660248301529395509193506000921690635496696b90604401602060405180830381865afa158015610943573d6000803e3d6000fd5b505050506040513d601f19601f82011682018060405250810190610967919061179f565b600254604051635496696b60e01b8152600481018790526001600160a01b03858116602483015292935060009290911690635496696b90604401602060405180830381865afa1580156109be573d6000803e3d6000fd5b505050506040513d601f19601f820116820180604052508101906109e2919061179f565b9050610a07610a026109fc670de0b6b3a764000084611850565b84611352565b61138c565b60008681526007602090815260408083206001600160a01b0389168452909152902055610a48610a02610a42670de0b6b3a764000085611850565b83611352565b60009586526007602090815260408088206001600160a01b0390961688529490529290942091909155505050565b610a7e610af4565b6001600160a01b038116610ae85760405162461bcd60e51b815260206004820152602660248201527f4f776e61626c653a206e6577206f776e657220697320746865207a65726f206160448201526564647265737360d01b60648201526084015b60405180910390fd5b610af181611302565b50565b6000546001600160a01b031633146107895760405162461bcd60e51b815260206004820181905260248201527f4f776e61626c653a2063616c6c6572206973206e6f7420746865206f776e65726044820152606401610adf565b600260015403610ba05760405162461bcd60e51b815260206004820152601f60248201527f5265656e7472616e637947756172643a207265656e7472616e742063616c6c006044820152606401610adf565b6002600155565b600254604051635496696b60e01b8152600481018690526001600160a01b0385811660248301526000928392911690635496696b90604401602060405180830381865afa158015610bfc573d6000803e3d6000fd5b505050506040513d601f19601f82011682018060405250810190610c20919061179f565b600254604051635496696b60e01b8152600481018990526001600160a01b03878116602483015292935060009290911690635496696b90604401602060405180830381865afa158015610c77573d6000803e3d6000fd5b505050506040513d601f19601f82011682018060405250810190610c9b919061179f565b60008881526007602090815260408083206001600160a01b038a168452909152902054909150610ccc8284836113d3565b9350610cd88584611867565b92508381610cee670de0b6b3a764000088611850565b610cf8919061177d565b1015610d965780610d11670de0b6b3a764000087611850565b610d1b919061177d565b9350610d27848361187a565b60008981526007602090815260408083206001600160a01b038c168452909152902054909250610d5690611444565b90506000610d658484846113d3565b1115610d915760008881526007602090815260408083206001600160a01b038b16845290915290208190555b610e1f565b610da0848361187a565b9150610dc283610db8670de0b6b3a764000085611850565b610a02919061177d565b60008981526007602090815260408083206001600160a01b038c168452909152902055610dfb82610db8670de0b6b3a764000086611850565b60008981526007602090815260408083206001600160a01b038b1684529091529020555b505050949350505050565b60025460405163332d39d560e01b815260048101859052600091610ea3916001600160a01b039091169063332d39d590602401602060405180830381865afa158015610e7a573d6000803e3d6000fd5b505050506040513d601f19601f82011682018060405250810190610e9e919061179f565b611486565b90506000600260009054906101000a90046001600160a01b03166001600160a01b0316635496696b86866001600160a01b031663c451463b6040518163ffffffff1660e01b8152600401602060405180830381865afa158015610f0a573d6000803e3d6000fd5b505050506040513d601f19601f82011682018060405250810190610f2e91906117b8565b6040516001600160e01b031960e085901b16815260048101929092526001600160a01b03166024820152604401602060405180830381865afa158015610f78573d6000803e3d6000fd5b505050506040513d601f19601f82011682018060405250810190610f9c919061179f565b600260009054906101000a90046001600160a01b03166001600160a01b0316635496696b87876001600160a01b03166375f4f18e6040518163ffffffff1660e01b8152600401602060405180830381865afa158015610fff573d6000803e3d6000fd5b505050506040513d601f19601f8201168201806040525081019061102391906117b8565b6040516001600160e01b031960e085901b16815260048101929092526001600160a01b03166024820152604401602060405180830381865afa15801561106d573d6000803e3d6000fd5b505050506040513d601f19601f82011682018060405250810190611091919061179f565b61109b9190611850565b600254604051631bae34ef60e11b815260048101889052602481018390529192506001600160a01b03169063375c69de90604401600060405180830381600087803b1580156110e957600080fd5b505af11580156110fd573d6000803e3d6000fd5b5050505061110a81611486565b90506000611118838361187a565b6005546111259190611850565b611137670de0b6b3a764000084611850565b611141919061187a565b856001600160a01b03166318160ddd6040518163ffffffff1660e01b8152600401602060405180830381865afa15801561117f573d6000803e3d6000fd5b505050506040513d601f19601f820116820180604052508101906111a3919061179f565b6111ad858561187a565b6005546111ba9190611850565b6111c49190611850565b6111ce919061177d565b905080156112fa5760065415611277576000670de0b6b3a7640000600654836111f79190611850565b611201919061177d565b6040516340c10f1960e01b81526001600160a01b03878116600483015260248201839052919250908716906340c10f1990604401600060405180830381600087803b15801561124f57600080fd5b505af1158015611263573d6000803e3d6000fd5b505050508082611273919061187a565b9150505b6040516340c10f1960e01b81526001600160a01b037f000000000000000000000000000000000000000000000000000000000000000081166004830152602482018390528616906340c10f1990604401600060405180830381600087803b1580156112e157600080fd5b505af11580156112f5573d6000803e3d6000fd5b505050505b505050505050565b600080546001600160a01b038381166001600160a01b0319831681178455604051919092169283917f8be0079c531659141344cd1fd0a4f28419497f9722a3daafe3b4186f6b6457e09190a35050565b60008215611380578161136660018561187a565b611370919061177d565b61137b906001611867565b611383565b60005b90505b92915050565b6000670de0b6b3a76400006001816113ab6611c37937e0800082611867565b6113b59086611850565b6113bf9190611867565b6113c9919061187a565b611386919061177d565b60006113df8483611850565b6113f184670de0b6b3a7640000611850565b106113fe5750600061143d565b611409826002611850565b61141b670de0b6b3a764000085611850565b611425919061177d565b61143060028661177d565b61143a919061187a565b90505b9392505050565b600061145f6611c37937e08000670de0b6b3a7640000611867565b60016611c37937e08000670de0b6b3a764000061147c8187611850565b6113b59190611867565b60008160000361149857506000919050565b600060016114a58461156e565b901c6001901b905060018184816114be576114be611751565b048201901c905060018184816114d6576114d6611751565b048201901c905060018184816114ee576114ee611751565b048201901c9050600181848161150657611506611751565b048201901c9050600181848161151e5761151e611751565b048201901c9050600181848161153657611536611751565b048201901c9050600181848161154e5761154e611751565b048201901c905061143d8182858161156857611568611751565b04611602565b600080608083901c1561158357608092831c92015b604083901c1561159557604092831c92015b602083901c156115a757602092831c92015b601083901c156115b957601092831c92015b600883901c156115cb57600892831c92015b600483901c156115dd57600492831c92015b600283901c156115ef57600292831c92015b600183901c156113865760010192915050565b60008183106116115781611383565b5090919050565b60006020828403121561162a57600080fd5b5035919050565b6001600160a01b0381168114610af157600080fd5b60006020828403121561165857600080fd5b813561143d81611631565b600080600080600080600060c0888a03121561167e57600080fd5b87359650602088013561169081611631565b955060408801356116a081611631565b945060608801356116b081611631565b93506080880135925060a088013567ffffffffffffffff808211156116d457600080fd5b818a0191508a601f8301126116e857600080fd5b8135818111156116f757600080fd5b8b602082850101111561170957600080fd5b60208301945080935050505092959891949750929550565b6000806040838503121561173457600080fd5b82359150602083013561174681611631565b809150509250929050565b634e487b7160e01b600052601260045260246000fd5b634e487b7160e01b600052601160045260246000fd5b60008261179a57634e487b7160e01b600052601260045260246000fd5b500490565b6000602082840312156117b157600080fd5b5051919050565b6000602082840312156117ca57600080fd5b815161143d81611631565b60018060a01b038616815284602082015283604082015260806060820152816080820152818360a0830137600081830160a090810191909152601f909201601f19160101949350505050565b6000806040838503121561183457600080fd5b825161183f81611631565b602084015190925061174681611631565b808202811582820484141761138657611386611767565b8082018082111561138657611386611767565b818103818111156113865761138661176756fea26469706673582212209781b8c954f9cc961b992e2d85ad713b732d6d71c1904567d8d91947373bfb4b64736f6c63430008130033",
    "linkReferences": {}
  },
  "methodIdentifiers": {
    "initializePrices(uint256)": "cb77b8fc",
    "liquidityManager()": "33827438",
    "liquidityRamp()": "4dfd324e",
    "maintenanceAllocation()": "9485546a",
    "owner()": "8da5cb5b",
    "poolManager()": "dc4c90d3",
    "prices(uint256,address)": "fd02dac0",
    "renounceOwnership()": "715018a6",
    "routingAllocation()": "46ecca77",
    "setLiquidityManager(address)": "3c1624d4",
    "setLiquidityRamp(address)": "23bae8a7",
    "setMaintenanceAllocation(uint256)": "15550a15",
    "setPoolManager(address)": "7aef6715",
    "setRoutingAllocation(uint256)": "c20e783d",
    "swap(uint256,address,address,address,uint256,bytes)": "37acfb90",
    "transferOwnership(address)": "f2fde38b"
  },
  "id": 73
}