{
  "abi": [
    {
      "inputs": [
        {
          "internalType": "address",
          "name": "_treasury",
          "type": "address"
        }
      ],
      "stateMutability": "nonpayable",
      "type": "constructor"
    },
    {
      "inputs": [],
      "name": "SwapManager__MismatchedPoolIdx",
      "type": "error"
    },
    {
      "inputs": [],
      "name": "SwapManager__PoolDoesNotExist",
      "type": "error"
    },
    {
      "inputs": [],
      "name": "SwapManager__Unauthorized",
      "type": "error"
    },
    {
      "anonymous": false,
      "inputs": [
        {
          "indexed": false,
          "internalType": "uint256",
          "name": "oldAllocation",
          "type": "uint256"
        },
        {
          "indexed": false,
          "internalType": "uint256",
          "name": "newAllocation",
          "type": "uint256"
        }
      ],
      "name": "MaintenanceAllocationUpdated",
      "type": "event"
    },
    {
      "anonymous": false,
      "inputs": [
        {
          "indexed": true,
          "internalType": "address",
          "name": "previousOwner",
          "type": "address"
        },
        {
          "indexed": true,
          "internalType": "address",
          "name": "newOwner",
          "type": "address"
        }
      ],
      "name": "OwnershipTransferred",
      "type": "event"
    },
    {
      "anonymous": false,
      "inputs": [
        {
          "indexed": false,
          "internalType": "uint256",
          "name": "oldAllocation",
          "type": "uint256"
        },
        {
          "indexed": false,
          "internalType": "uint256",
          "name": "newAllocation",
          "type": "uint256"
        }
      ],
      "name": "RoutingAllocationUpdated",
      "type": "event"
    },
    {
      "anonymous": false,
      "inputs": [
        {
          "indexed": true,
          "internalType": "uint256",
          "name": "poolIdx",
          "type": "uint256"
        },
        {
          "indexed": true,
          "internalType": "address",
          "name": "sender",
          "type": "address"
        },
        {
          "indexed": true,
          "internalType": "address",
          "name": "beneficiary",
          "type": "address"
        },
        {
          "indexed": false,
          "internalType": "contract IERC20",
          "name": "tokenIn",
          "type": "address"
        },
        {
          "indexed": false,
          "internalType": "contract IERC20",
          "name": "tokenOut",
          "type": "address"
        },
        {
          "indexed": false,
          "internalType": "uint256",
          "name": "amountIn",
          "type": "uint256"
        },
        {
          "indexed": false,
          "internalType": "uint256",
          "name": "amountOut",
          "type": "uint256"
        }
      ],
      "name": "Swap",
      "type": "event"
    },
    {
      "inputs": [
        {
          "internalType": "uint256",
          "name": "poolIdx",
          "type": "uint256"
        }
      ],
      "name": "initializePrices",
      "outputs": [],
      "stateMutability": "nonpayable",
      "type": "function"
    },
    {
      "inputs": [],
      "name": "liquidityManager",
      "outputs": [
        {
          "internalType": "contract ILiquidityManager",
          "name": "",
          "type": "address"
        }
      ],
      "stateMutability": "view",
      "type": "function"
    },
    {
      "inputs": [],
      "name": "liquidityRamp",
      "outputs": [
        {
          "internalType": "contract ILiquidityRamp",
          "name": "",
          "type": "address"
        }
      ],
      "stateMutability": "view",
      "type": "function"
    },
    {
      "inputs": [],
      "name": "maintenanceAllocation",
      "outputs": [
        {
          "internalType": "uint256",
          "name": "",
          "type": "uint256"
        }
      ],
      "stateMutability": "view",
      "type": "function"
    },
    {
      "inputs": [],
      "name": "owner",
      "outputs": [
        {
          "internalType": "address",
          "name": "",
          "type": "address"
        }
      ],
      "stateMutability": "view",
      "type": "function"
    },
    {
      "inputs": [],
      "name": "poolManager",
      "outputs": [
        {
          "internalType": "contract IPoolManager",
          "name": "",
          "type": "address"
        }
      ],
      "stateMutability": "view",
      "type": "function"
    },
    {
      "inputs": [
        {
          "internalType": "uint256",
          "name": "",
          "type": "uint256"
        },
        {
          "internalType": "contract IERC20",
          "name": "",
          "type": "address"
        }
      ],
      "name": "prices",
      "outputs": [
        {
          "internalType": "uint256",
          "name": "",
          "type": "uint256"
        }
      ],
      "stateMutability": "view",
      "type": "function"
    },
    {
      "inputs": [],
      "name": "renounceOwnership",
      "outputs": [],
      "stateMutability": "nonpayable",
      "type": "function"
    },
    {
      "inputs": [],
      "name": "routingAllocation",
      "outputs": [
        {
          "internalType": "uint256",
          "name": "",
          "type": "uint256"
        }
      ],
      "stateMutability": "view",
      "type": "function"
    },
    {
      "inputs": [
        {
          "internalType": "contract ILiquidityManager",
          "name": "_liquidityManager",
          "type": "address"
        }
      ],
      "name": "setLiquidityManager",
      "outputs": [],
      "stateMutability": "nonpayable",
      "type": "function"
    },
    {
      "inputs": [
        {
          "internalType": "contract ILiquidityRamp",
          "name": "_liquidityRamp",
          "type": "address"
        }
      ],
      "name": "setLiquidityRamp",
      "outputs": [],
      "stateMutability": "nonpayable",
      "type": "function"
    },
    {
      "inputs": [
        {
          "internalType": "uint256",
          "name": "_maintenanceAllocation",
          "type": "uint256"
        }
      ],
      "name": "setMaintenanceAllocation",
      "outputs": [],
      "stateMutability": "nonpayable",
      "type": "function"
    },
    {
      "inputs": [
        {
          "internalType": "contract IPoolManager",
          "name": "_poolManager",
          "type": "address"
        }
      ],
      "name": "setPoolManager",
      "outputs": [],
      "stateMutability": "nonpayable",
      "type": "function"
    },
    {
      "inputs": [
        {
          "internalType": "uint256",
          "name": "_routingAllocation",
          "type": "uint256"
        }
      ],
      "name": "setRoutingAllocation",
      "outputs": [],
      "stateMutability": "nonpayable",
      "type": "function"
    },
    {
      "inputs": [
        {
          "internalType": "uint256",
          "name": "poolIdx",
          "type": "uint256"
        },
        {
          "internalType": "address",
          "name": "recipient",
          "type": "address"
        },
        {
          "internalType": "contract IERC20",
          "name": "tokenIn",
          "type": "address"
        },
        {
          "internalType": "uint256",
          "name": "amountIn",
          "type": "uint256"
        }
      ],
      "name": "swap",
      "outputs": [
        {
          "internalType": "uint256",
          "name": "amountOut",
          "type": "uint256"
        }
      ],
      "stateMutability": "nonpayable",
      "type": "function"
    },
    {
      "inputs": [
        {
          "internalType": "uint256",
          "name": "poolIdx",
          "type": "uint256"
        },
        {
          "internalType": "address",
          "name": "recipient",
          "type": "address"
        },
        {
          "internalType": "contract IERC20",
          "name": "tokenIn",
          "type": "address"
        },
        {
          "internalType": "uint256",
          "name": "amountIn",
          "type": "uint256"
        },
        {
          "internalType": "address",
          "name": "routingAgent",
          "type": "address"
        }
      ],
      "name": "swap",
      "outputs": [
        {
          "internalType": "uint256",
          "name": "amountOut",
          "type": "uint256"
        }
      ],
      "stateMutability": "nonpayable",
      "type": "function"
    },
    {
      "inputs": [
        {
          "internalType": "address",
          "name": "newOwner",
          "type": "address"
        }
      ],
      "name": "transferOwnership",
      "outputs": [],
      "stateMutability": "nonpayable",
      "type": "function"
    }
  ],
  "bytecode": {
    "object": "0x60a060405260646200001b670de0b6b3a7640000600a620000e3565b6200002791906200010f565b6005556200003f6002670de0b6b3a76400006200010f565b6006553480156200004f57600080fd5b506040516200169338038062001693833981016040819052620000729162000132565b6200007d3362000093565b600180556001600160a01b031660805262000164565b600080546001600160a01b038381166001600160a01b0319831681178455604051919092169283917f8be0079c531659141344cd1fd0a4f28419497f9722a3daafe3b4186f6b6457e09190a35050565b80820281158282048414176200010957634e487b7160e01b600052601160045260246000fd5b92915050565b6000826200012d57634e487b7160e01b600052601260045260246000fd5b500490565b6000602082840312156200014557600080fd5b81516001600160a01b03811681146200015d57600080fd5b9392505050565b60805161150c620001876000396000818161041701526111f6015261150c6000f3fe608060405234801561001057600080fd5b506004361061010b5760003560e01c80637aef6715116100a2578063c20e783d11610071578063c20e783d14610200578063cb77b8fc14610213578063dc4c90d314610226578063f2fde38b14610239578063fd02dac01461024c57600080fd5b80637aef6715146101c05780638da5cb5b146101d35780639485546a146101e45780639f6eb106146101ed57600080fd5b806346ecca77116100de57806346ecca771461017b5780634dfd324e1461019257806370085be0146101a5578063715018a6146101b857600080fd5b806315550a151461011057806323bae8a71461012557806333827438146101385780633c1624d414610168575b600080fd5b61012361011e36600461126b565b610277565b005b610123610133366004611299565b6102c0565b60025461014b906001600160a01b031681565b6040516001600160a01b0390911681526020015b60405180910390f35b610123610176366004611299565b610372565b61018460065481565b60405190815260200161015f565b60035461014b906001600160a01b031681565b6101846101b33660046112b6565b610404565b61012361044e565b6101236101ce366004611299565b610462565b6000546001600160a01b031661014b565b61018460055481565b6101846101fb3660046112fe565b610510565b61012361020e36600461126b565b61053b565b61012361022136600461126b565b610584565b60045461014b906001600160a01b031681565b610123610247366004611299565b6107a3565b61018461025a36600461135d565b600760209081526000928352604080842090915290825290205481565b61027f61081e565b60055460408051918252602082018390527fcf7ab7f4b447283d3f185f28d5a518b565e20331c39c7f8c3f8bd9adb54b4c24910160405180910390a1600555565b6102c861081e565b6103066040518060400160405280601e81526020017f0a537761704d616e616765723a3a7365744c697175696469747952616d700000815250610878565b6003546001600160a01b031615610330576040516324727e8f60e11b815260040160405180910390fd5b600380546001600160a01b0319166001600160a01b0383161790556040805180820190915260048152637365742160e01b602082015261036f90610878565b50565b61037a61081e565b61039b6040518060600160405280602181526020016114b660219139610878565b6002546001600160a01b0316156103c5576040516324727e8f60e11b815260040160405180910390fd5b600280546001600160a01b0319166001600160a01b0383161790556040805180820190915260048152637365742160e01b602082015261036f90610878565b600061040e6108bb565b61043b858585857f0000000000000000000000000000000000000000000000000000000000000000610914565b905061044660018055565b949350505050565b61045661081e565b6104606000610f21565b565b61046a61081e565b6104a86040518060400160405280601c81526020017f0a537761704d616e616765723a3a736574506f6f6c4d616e6167657200000000815250610878565b6004546001600160a01b0316156104d2576040516324727e8f60e11b815260040160405180910390fd5b600480546001600160a01b0319166001600160a01b03831617815560408051808201909152908152637365742160e01b602082015261036f90610878565b600061051a6108bb565b6105278686868686610914565b905061053260018055565b95945050505050565b61054361081e565b60065460408051918252602082018390527f2163cc98c2e8650c8b966e6dac8d59694192c58e9f362d8e2b70867d23418d76910160405180910390a1600655565b6003546001600160a01b031633146105af576040516324727e8f60e11b815260040160405180910390fd5b600480546040516369e4e61360e11b815291820183905260009182916001600160a01b03169063d3c9cc26906024016040805180830381865afa1580156105fa573d6000803e3d6000fd5b505050506040513d601f19601f8201168201806040525081019061061e919061138d565b600254604051635496696b60e01b8152600481018790526001600160a01b0380851660248301529395509193506000921690635496696b90604401602060405180830381865afa158015610676573d6000803e3d6000fd5b505050506040513d601f19601f8201168201806040525081019061069a91906113bc565b600254604051635496696b60e01b8152600481018790526001600160a01b03858116602483015292935060009290911690635496696b90604401602060405180830381865afa1580156106f1573d6000803e3d6000fd5b505050506040513d601f19601f8201168201806040525081019061071591906113bc565b905061073c8261072d670de0b6b3a7640000846113eb565b6107379190611402565b610f71565b60008681526007602090815260408083206001600160a01b03891684529091529020556107758161072d670de0b6b3a7640000856113eb565b60009586526007602090815260408088206001600160a01b0390961688529490529290942091909155505050565b6107ab61081e565b6001600160a01b0381166108155760405162461bcd60e51b815260206004820152602660248201527f4f776e61626c653a206e6577206f776e657220697320746865207a65726f206160448201526564647265737360d01b60648201526084015b60405180910390fd5b61036f81610f21565b6000546001600160a01b031633146104605760405162461bcd60e51b815260206004820181905260248201527f4f776e61626c653a2063616c6c6572206973206e6f7420746865206f776e6572604482015260640161080c565b61036f8160405160240161088c9190611424565b60408051601f198184030181529190526020810180516001600160e01b031663104c13eb60e21b179052610fa7565b60026001540361090d5760405162461bcd60e51b815260206004820152601f60248201527f5265656e7472616e637947756172643a207265656e7472616e742063616c6c00604482015260640161080c565b6002600155565b600085158061098c57506004805460408051631ae315e160e11b815290516001600160a01b03909216926335c62bc29282820192602092908290030181865afa158015610965573d6000803e3d6000fd5b505050506040513d601f19601f8201168201806040525081019061098991906113bc565b86115b156109aa57604051632d285c6360e01b815260040160405180910390fd5b600480546040516306ed78b760e21b81529182018890526000916001600160a01b0390911690631bb5e2dc90602401602060405180830381865afa1580156109f6573d6000803e3d6000fd5b505050506040513d601f19601f82011682018060405250810190610a1a9190611472565b60405163302bb94d60e01b81526001600160a01b03878116600483015291925060009183169063302bb94d90602401602060405180830381865afa158015610a66573d6000803e3d6000fd5b505050506040513d601f19601f82011682018060405250810190610a8a9190611472565b60048054604051638ae93f0b60e01b81526001600160a01b038a81169382019390935282841660248201529293508a92911690638ae93f0b90604401602060405180830381865afa158015610ae3573d6000803e3d6000fd5b505050506040513d601f19601f82011682018060405250810190610b0791906113bc565b14610b255760405163ebff506360e01b815260040160405180910390fd5b600254604051635496696b60e01b8152600481018a90526001600160a01b0388811660248301526000921690635496696b90604401602060405180830381865afa158015610b77573d6000803e3d6000fd5b505050506040513d601f19601f82011682018060405250810190610b9b91906113bc565b600254604051635496696b60e01b8152600481018c90526001600160a01b03858116602483015292935060009290911690635496696b90604401602060405180830381865afa158015610bf2573d6000803e3d6000fd5b505050506040513d601f19601f82011682018060405250810190610c1691906113bc565b90506000610c2482846113eb565b60008c81526007602090815260408083206001600160a01b0389168452909152902054909150610c55838583610fc8565b96508681610c6b670de0b6b3a76400008c6113eb565b610c759190611402565b1015610c9b5780610c8e670de0b6b3a76400008b6113eb565b610c989190611402565b96505b610ca5898561148f565b9350610cb187846114a2565b9250610cbe838583610fc8565b871015610d315760008c81526007602090815260408083206001600160a01b038e168452909152902054610cf190611039565b90506000610d00858584610fc8565b1115610d2c5760008c81526007602090815260408083206001600160a01b038e16845290915290208190555b610da4565b610d478461072d670de0b6b3a7640000866113eb565b60008d81526007602090815260408083206001600160a01b038f168452909152902055610d808361072d670de0b6b3a7640000876113eb565b60008d81526007602090815260408083206001600160a01b038a1684529091529020555b600254604051637db4c98b60e11b8152600481018e90526001600160a01b038c81166024830152604482018c90529091169063fb69931690606401600060405180830381600087803b158015610df957600080fd5b505af1158015610e0d573d6000803e3d6000fd5b50505050600260009054906101000a90046001600160a01b03166001600160a01b031663a318c1a48d878e8b6040518563ffffffff1660e01b8152600401610e7894939291909384526001600160a01b03928316602085015291166040830152606082015260800190565b600060405180830381600087803b158015610e9257600080fd5b505af1158015610ea6573d6000803e3d6000fd5b50505050610eb7828585898c611066565b604080516001600160a01b038c8116825287811660208301529181018b905260608101899052908c169033908e907fc6887c51c37a61649529f34b82c5b1f312aee8702f4b13149e7c40d74830f4589060800160405180910390a450505050505095945050505050565b600080546001600160a01b038381166001600160a01b0319831681178455604051919092169283917f8be0079c531659141344cd1fd0a4f28419497f9722a3daafe3b4186f6b6457e09190a35050565b6000670de0b6b3a7640000610f8d6611c37937e080008261148f565b610f9790846113eb565b610fa19190611402565b92915050565b80516a636f6e736f6c652e6c6f67602083016000808483855afa5050505050565b6000610fd484836113eb565b610fe684670de0b6b3a76400006113eb565b10610ff357506000611032565b610ffe8260026113eb565b611010670de0b6b3a7640000856113eb565b61101a9190611402565b611025600286611402565b61102f91906114a2565b90505b9392505050565b60006110546611c37937e08000670de0b6b3a764000061148f565b610f97670de0b6b3a7640000846113eb565b600061107284866113eb565b9050600061108087836114a2565b60055461108d91906113eb565b61109f670de0b6b3a7640000846113eb565b6110a991906114a2565b846001600160a01b03166318160ddd6040518163ffffffff1660e01b8152600401602060405180830381865afa1580156110e7573d6000803e3d6000fd5b505050506040513d601f19601f8201168201806040525081019061110b91906113bc565b61111589856114a2565b60055461112291906113eb565b61112c91906113eb565b6111369190611402565b9050801561126257600654156111df576000670de0b6b3a76400006006548361115f91906113eb565b6111699190611402565b6040516340c10f1960e01b81526001600160a01b03868116600483015260248201839052919250908616906340c10f1990604401600060405180830381600087803b1580156111b757600080fd5b505af11580156111cb573d6000803e3d6000fd5b5050505080826111db91906114a2565b9150505b6040516340c10f1960e01b81526001600160a01b037f000000000000000000000000000000000000000000000000000000000000000081166004830152602482018390528516906340c10f1990604401600060405180830381600087803b15801561124957600080fd5b505af115801561125d573d6000803e3d6000fd5b505050505b50505050505050565b60006020828403121561127d57600080fd5b5035919050565b6001600160a01b038116811461036f57600080fd5b6000602082840312156112ab57600080fd5b813561103281611284565b600080600080608085870312156112cc57600080fd5b8435935060208501356112de81611284565b925060408501356112ee81611284565b9396929550929360600135925050565b600080600080600060a0868803121561131657600080fd5b85359450602086013561132881611284565b9350604086013561133881611284565b925060608601359150608086013561134f81611284565b809150509295509295909350565b6000806040838503121561137057600080fd5b82359150602083013561138281611284565b809150509250929050565b600080604083850312156113a057600080fd5b82516113ab81611284565b602084015190925061138281611284565b6000602082840312156113ce57600080fd5b5051919050565b634e487b7160e01b600052601160045260246000fd5b8082028115828204841417610fa157610fa16113d5565b60008261141f57634e487b7160e01b600052601260045260246000fd5b500490565b600060208083528351808285015260005b8181101561145157858101830151858201604001528201611435565b506000604082860101526040601f19601f8301168501019250505092915050565b60006020828403121561148457600080fd5b815161103281611284565b80820180821115610fa157610fa16113d5565b81810381811115610fa157610fa16113d556fe0a537761704d616e616765723a3a7365744c69717569646974794d616e61676572a264697066735822122098ce06f063193944588810e21bcc53d1b5acd403c624d8d49a6889a8749967b964736f6c63430008130033",
    "linkReferences": {}
  },
  "methodIdentifiers": {
    "initializePrices(uint256)": "cb77b8fc",
    "liquidityManager()": "33827438",
    "liquidityRamp()": "4dfd324e",
    "maintenanceAllocation()": "9485546a",
    "owner()": "8da5cb5b",
    "poolManager()": "dc4c90d3",
    "prices(uint256,address)": "fd02dac0",
    "renounceOwnership()": "715018a6",
    "routingAllocation()": "46ecca77",
    "setLiquidityManager(address)": "3c1624d4",
    "setLiquidityRamp(address)": "23bae8a7",
    "setMaintenanceAllocation(uint256)": "15550a15",
    "setPoolManager(address)": "7aef6715",
    "setRoutingAllocation(uint256)": "c20e783d",
    "swap(uint256,address,address,uint256)": "70085be0",
    "swap(uint256,address,address,uint256,address)": "9f6eb106",
    "transferOwnership(address)": "f2fde38b"
  },
  "id": 74
}