{
  "abi": [
    {
      "inputs": [
        {
          "internalType": "address",
          "name": "_treasury",
          "type": "address"
        }
      ],
      "stateMutability": "nonpayable",
      "type": "constructor"
    },
    {
      "inputs": [],
      "name": "SwapManager__BadAllocation",
      "type": "error"
    },
    {
      "inputs": [],
      "name": "SwapManager__MismatchedPoolIdx",
      "type": "error"
    },
    {
      "inputs": [],
      "name": "SwapManager__PoolDoesNotExist",
      "type": "error"
    },
    {
      "inputs": [],
      "name": "SwapManager__Unauthorized",
      "type": "error"
    },
    {
      "anonymous": false,
      "inputs": [
        {
          "indexed": false,
          "internalType": "uint256",
          "name": "oldAllocation",
          "type": "uint256"
        },
        {
          "indexed": false,
          "internalType": "uint256",
          "name": "newAllocation",
          "type": "uint256"
        }
      ],
      "name": "MaintenanceAllocationUpdated",
      "type": "event"
    },
    {
      "anonymous": false,
      "inputs": [
        {
          "indexed": true,
          "internalType": "address",
          "name": "previousOwner",
          "type": "address"
        },
        {
          "indexed": true,
          "internalType": "address",
          "name": "newOwner",
          "type": "address"
        }
      ],
      "name": "OwnershipTransferred",
      "type": "event"
    },
    {
      "anonymous": false,
      "inputs": [
        {
          "indexed": false,
          "internalType": "uint256",
          "name": "oldAllocation",
          "type": "uint256"
        },
        {
          "indexed": false,
          "internalType": "uint256",
          "name": "newAllocation",
          "type": "uint256"
        }
      ],
      "name": "RoutingAllocationUpdated",
      "type": "event"
    },
    {
      "anonymous": false,
      "inputs": [
        {
          "indexed": true,
          "internalType": "uint256",
          "name": "poolIdx",
          "type": "uint256"
        },
        {
          "indexed": true,
          "internalType": "address",
          "name": "beneficiary",
          "type": "address"
        },
        {
          "indexed": false,
          "internalType": "address",
          "name": "routingAgent",
          "type": "address"
        },
        {
          "indexed": false,
          "internalType": "contract IERC20",
          "name": "tokenIn",
          "type": "address"
        },
        {
          "indexed": false,
          "internalType": "contract IERC20",
          "name": "tokenOut",
          "type": "address"
        },
        {
          "indexed": false,
          "internalType": "uint256",
          "name": "amountIn",
          "type": "uint256"
        },
        {
          "indexed": false,
          "internalType": "uint256",
          "name": "amountOut",
          "type": "uint256"
        }
      ],
      "name": "Swap",
      "type": "event"
    },
    {
      "inputs": [
        {
          "internalType": "uint256",
          "name": "poolIdx",
          "type": "uint256"
        }
      ],
      "name": "initializePrices",
      "outputs": [],
      "stateMutability": "nonpayable",
      "type": "function"
    },
    {
      "inputs": [],
      "name": "liquidityManager",
      "outputs": [
        {
          "internalType": "contract ILiquidityManager",
          "name": "",
          "type": "address"
        }
      ],
      "stateMutability": "view",
      "type": "function"
    },
    {
      "inputs": [],
      "name": "liquidityRamp",
      "outputs": [
        {
          "internalType": "contract ILiquidityRamp",
          "name": "",
          "type": "address"
        }
      ],
      "stateMutability": "view",
      "type": "function"
    },
    {
      "inputs": [],
      "name": "maintenanceAllocation",
      "outputs": [
        {
          "internalType": "uint256",
          "name": "",
          "type": "uint256"
        }
      ],
      "stateMutability": "view",
      "type": "function"
    },
    {
      "inputs": [],
      "name": "owner",
      "outputs": [
        {
          "internalType": "address",
          "name": "",
          "type": "address"
        }
      ],
      "stateMutability": "view",
      "type": "function"
    },
    {
      "inputs": [],
      "name": "poolManager",
      "outputs": [
        {
          "internalType": "contract IPoolManager",
          "name": "",
          "type": "address"
        }
      ],
      "stateMutability": "view",
      "type": "function"
    },
    {
      "inputs": [
        {
          "internalType": "uint256",
          "name": "",
          "type": "uint256"
        },
        {
          "internalType": "contract IERC20",
          "name": "",
          "type": "address"
        }
      ],
      "name": "prices",
      "outputs": [
        {
          "internalType": "uint256",
          "name": "",
          "type": "uint256"
        }
      ],
      "stateMutability": "view",
      "type": "function"
    },
    {
      "inputs": [],
      "name": "renounceOwnership",
      "outputs": [],
      "stateMutability": "nonpayable",
      "type": "function"
    },
    {
      "inputs": [],
      "name": "routingAllocation",
      "outputs": [
        {
          "internalType": "uint256",
          "name": "",
          "type": "uint256"
        }
      ],
      "stateMutability": "view",
      "type": "function"
    },
    {
      "inputs": [
        {
          "internalType": "contract ILiquidityManager",
          "name": "_liquidityManager",
          "type": "address"
        }
      ],
      "name": "setLiquidityManager",
      "outputs": [],
      "stateMutability": "nonpayable",
      "type": "function"
    },
    {
      "inputs": [
        {
          "internalType": "contract ILiquidityRamp",
          "name": "_liquidityRamp",
          "type": "address"
        }
      ],
      "name": "setLiquidityRamp",
      "outputs": [],
      "stateMutability": "nonpayable",
      "type": "function"
    },
    {
      "inputs": [
        {
          "internalType": "uint256",
          "name": "_maintenanceAllocation",
          "type": "uint256"
        }
      ],
      "name": "setMaintenanceAllocation",
      "outputs": [],
      "stateMutability": "nonpayable",
      "type": "function"
    },
    {
      "inputs": [
        {
          "internalType": "contract IPoolManager",
          "name": "_poolManager",
          "type": "address"
        }
      ],
      "name": "setPoolManager",
      "outputs": [],
      "stateMutability": "nonpayable",
      "type": "function"
    },
    {
      "inputs": [
        {
          "internalType": "uint256",
          "name": "_routingAllocation",
          "type": "uint256"
        }
      ],
      "name": "setRoutingAllocation",
      "outputs": [],
      "stateMutability": "nonpayable",
      "type": "function"
    },
    {
      "inputs": [
        {
          "internalType": "uint256",
          "name": "poolIdx",
          "type": "uint256"
        },
        {
          "internalType": "address",
          "name": "recipient",
          "type": "address"
        },
        {
          "internalType": "address",
          "name": "routingAgent",
          "type": "address"
        },
        {
          "internalType": "contract IERC20",
          "name": "tokenIn",
          "type": "address"
        },
        {
          "internalType": "uint256",
          "name": "amountIn",
          "type": "uint256"
        }
      ],
      "name": "swap",
      "outputs": [
        {
          "internalType": "uint256",
          "name": "amountOut",
          "type": "uint256"
        }
      ],
      "stateMutability": "nonpayable",
      "type": "function"
    },
    {
      "inputs": [
        {
          "internalType": "address",
          "name": "newOwner",
          "type": "address"
        }
      ],
      "name": "transferOwnership",
      "outputs": [],
      "stateMutability": "nonpayable",
      "type": "function"
    }
  ],
  "bytecode": {
    "object": "0x60a060405260646200001b670de0b6b3a7640000600a620000e3565b6200002791906200010f565b6005556200003f6002670de0b6b3a76400006200010f565b6006553480156200004f57600080fd5b506040516200144438038062001444833981016040819052620000729162000132565b6200007d3362000093565b600180556001600160a01b031660805262000164565b600080546001600160a01b038381166001600160a01b0319831681178455604051919092169283917f8be0079c531659141344cd1fd0a4f28419497f9722a3daafe3b4186f6b6457e09190a35050565b80820281158282048414176200010957634e487b7160e01b600052601160045260246000fd5b92915050565b6000826200012d57634e487b7160e01b600052601260045260246000fd5b500490565b6000602082840312156200014557600080fd5b81516001600160a01b03811681146200015d57600080fd5b9392505050565b6080516112c4620001806000396000610fbf01526112c46000f3fe608060405234801561001057600080fd5b50600436106101005760003560e01c80637aef671511610097578063cb77b8fc11610066578063cb77b8fc146101f5578063dc4c90d314610208578063f2fde38b1461021b578063fd02dac01461022e57600080fd5b80637aef6715146101b55780638da5cb5b146101c85780639485546a146101d9578063c20e783d146101e257600080fd5b80633c1624d4116100d35780633c1624d41461017e57806346ecca77146101915780634dfd324e1461019a578063715018a6146101ad57600080fd5b806310e2df9b1461010557806315550a151461012b57806323bae8a7146101405780633382743814610153575b600080fd5b6101186101133660046110f3565b610259565b6040519081526020015b60405180910390f35b61013e61013936600461114e565b610876565b005b61013e61014e366004611167565b6108f2565b600254610166906001600160a01b031681565b6040516001600160a01b039091168152602001610122565b61013e61018c366004611167565b610946565b61011860065481565b600354610166906001600160a01b031681565b61013e61099a565b61013e6101c3366004611167565b6109ae565b6000546001600160a01b0316610166565b61011860055481565b61013e6101f036600461114e565b610a02565b61013e61020336600461114e565b610a74565b600454610166906001600160a01b031681565b61013e610229366004611167565b610c84565b61011861023c366004611184565b600760209081526000928352604080842090915290825290205481565b6000610263610d02565b8515806102d957506004805460408051631ae315e160e11b815290516001600160a01b03909216926335c62bc29282820192602092908290030181865afa1580156102b2573d6000803e3d6000fd5b505050506040513d601f19601f820116820180604052508101906102d691906111b4565b86115b156102f757604051632d285c6360e01b815260040160405180910390fd5b600480546040516306ed78b760e21b81529182018890526000916001600160a01b0390911690631bb5e2dc90602401602060405180830381865afa158015610343573d6000803e3d6000fd5b505050506040513d601f19601f8201168201806040525081019061036791906111cd565b60405163302bb94d60e01b81526001600160a01b03868116600483015291925060009183169063302bb94d90602401602060405180830381865afa1580156103b3573d6000803e3d6000fd5b505050506040513d601f19601f820116820180604052508101906103d791906111cd565b60048054604051638ae93f0b60e01b81526001600160a01b038981169382019390935282841660248201529293508a92911690638ae93f0b90604401602060405180830381865afa158015610430573d6000803e3d6000fd5b505050506040513d601f19601f8201168201806040525081019061045491906111b4565b146104725760405163ebff506360e01b815260040160405180910390fd5b600254604051635496696b60e01b8152600481018a90526001600160a01b0387811660248301526000921690635496696b90604401602060405180830381865afa1580156104c4573d6000803e3d6000fd5b505050506040513d601f19601f820116820180604052508101906104e891906111b4565b600254604051635496696b60e01b8152600481018c90526001600160a01b03858116602483015292935060009290911690635496696b90604401602060405180830381865afa15801561053f573d6000803e3d6000fd5b505050506040513d601f19601f8201168201806040525081019061056391906111b4565b905060006105718284611200565b60008c81526007602090815260408083206001600160a01b03891684529091529020549091506105a2838583610d5b565b965086816105b8670de0b6b3a76400008b611200565b6105c29190611217565b101561066057806105db670de0b6b3a76400008a611200565b6105e59190611217565b96506105f18784611239565b60008d81526007602090815260408083206001600160a01b038e16845290915290205490935061062090610dcc565b9050600061062f858584610d5b565b111561065b5760008c81526007602090815260408083206001600160a01b038d16845290915290208190555b6106ee565b61066a8784611239565b925061069184610682670de0b6b3a764000086611200565b61068c9190611217565b610e09565b60008d81526007602090815260408083206001600160a01b038e1684529091529020556106ca83610682670de0b6b3a764000087611200565b60008d81526007602090815260408083206001600160a01b038a1684529091529020555b600254604051637db4c98b60e11b8152600481018e90526001600160a01b038b81166024830152604482018b90529091169063fb69931690606401600060405180830381600087803b15801561074357600080fd5b505af1158015610757573d6000803e3d6000fd5b50505050600260009054906101000a90046001600160a01b03166001600160a01b031663a318c1a48d878e8b6040518563ffffffff1660e01b81526004016107c294939291909384526001600160a01b03928316602085015291166040830152606082015260800190565b600060405180830381600087803b1580156107dc57600080fd5b505af11580156107f0573d6000803e3d6000fd5b50505050610801828585898e610e2f565b604080516001600160a01b038d811682528b81166020830152871681830152606081018a905260808101899052905133918e917fc6887c51c37a61649529f34b82c5b1f312aee8702f4b13149e7c40d74830f4589181900360a00190a350505050505061086d60018055565b95945050505050565b61087e611034565b6108916002670de0b6b3a7640000611217565b8111156108b15760405163c4910a3d60e01b815260040160405180910390fd5b60055460408051918252602082018390527fcf7ab7f4b447283d3f185f28d5a518b565e20331c39c7f8c3f8bd9adb54b4c24910160405180910390a1600555565b6108fa611034565b6003546001600160a01b031615610924576040516324727e8f60e11b815260040160405180910390fd5b600380546001600160a01b0319166001600160a01b0392909216919091179055565b61094e611034565b6002546001600160a01b031615610978576040516324727e8f60e11b815260040160405180910390fd5b600280546001600160a01b0319166001600160a01b0392909216919091179055565b6109a2611034565b6109ac600061108e565b565b6109b6611034565b6004546001600160a01b0316156109e0576040516324727e8f60e11b815260040160405180910390fd5b600480546001600160a01b0319166001600160a01b0392909216919091179055565b610a0a611034565b670de0b6b3a7640000811115610a335760405163c4910a3d60e01b815260040160405180910390fd5b60065460408051918252602082018390527f2163cc98c2e8650c8b966e6dac8d59694192c58e9f362d8e2b70867d23418d76910160405180910390a1600655565b6003546001600160a01b03163314610a9f576040516324727e8f60e11b815260040160405180910390fd5b600480546040516369e4e61360e11b815291820183905260009182916001600160a01b03169063d3c9cc26906024016040805180830381865afa158015610aea573d6000803e3d6000fd5b505050506040513d601f19601f82011682018060405250810190610b0e919061124c565b600254604051635496696b60e01b8152600481018790526001600160a01b0380851660248301529395509193506000921690635496696b90604401602060405180830381865afa158015610b66573d6000803e3d6000fd5b505050506040513d601f19601f82011682018060405250810190610b8a91906111b4565b600254604051635496696b60e01b8152600481018790526001600160a01b03858116602483015292935060009290911690635496696b90604401602060405180830381865afa158015610be1573d6000803e3d6000fd5b505050506040513d601f19601f82011682018060405250810190610c0591906111b4565b9050610c1d82610682670de0b6b3a764000084611200565b60008681526007602090815260408083206001600160a01b0389168452909152902055610c5681610682670de0b6b3a764000085611200565b60009586526007602090815260408088206001600160a01b0390961688529490529290942091909155505050565b610c8c611034565b6001600160a01b038116610cf65760405162461bcd60e51b815260206004820152602660248201527f4f776e61626c653a206e6577206f776e657220697320746865207a65726f206160448201526564647265737360d01b60648201526084015b60405180910390fd5b610cff8161108e565b50565b600260015403610d545760405162461bcd60e51b815260206004820152601f60248201527f5265656e7472616e637947756172643a207265656e7472616e742063616c6c006044820152606401610ced565b6002600155565b6000610d678483611200565b610d7984670de0b6b3a7640000611200565b10610d8657506000610dc5565b610d91826002611200565b610da3670de0b6b3a764000085611200565b610dad9190611217565b610db8600286611217565b610dc29190611239565b90505b9392505050565b6000610de76611c37937e08000670de0b6b3a764000061127b565b610df9670de0b6b3a764000084611200565b610e039190611217565b92915050565b6000670de0b6b3a7640000610e256611c37937e080008261127b565b610df99084611200565b6000610e3b8486611200565b90506000610e498783611239565b600554610e569190611200565b610e68670de0b6b3a764000084611200565b610e729190611239565b846001600160a01b03166318160ddd6040518163ffffffff1660e01b8152600401602060405180830381865afa158015610eb0573d6000803e3d6000fd5b505050506040513d601f19601f82011682018060405250810190610ed491906111b4565b610ede8985611239565b600554610eeb9190611200565b610ef59190611200565b610eff9190611217565b9050801561102b5760065415610fa8576000670de0b6b3a764000060065483610f289190611200565b610f329190611217565b6040516340c10f1960e01b81526001600160a01b03868116600483015260248201839052919250908616906340c10f1990604401600060405180830381600087803b158015610f8057600080fd5b505af1158015610f94573d6000803e3d6000fd5b505050508082610fa49190611239565b9150505b6040516340c10f1960e01b81526001600160a01b037f000000000000000000000000000000000000000000000000000000000000000081166004830152602482018390528516906340c10f1990604401600060405180830381600087803b15801561101257600080fd5b505af1158015611026573d6000803e3d6000fd5b505050505b50505050505050565b6000546001600160a01b031633146109ac5760405162461bcd60e51b815260206004820181905260248201527f4f776e61626c653a2063616c6c6572206973206e6f7420746865206f776e65726044820152606401610ced565b600080546001600160a01b038381166001600160a01b0319831681178455604051919092169283917f8be0079c531659141344cd1fd0a4f28419497f9722a3daafe3b4186f6b6457e09190a35050565b6001600160a01b0381168114610cff57600080fd5b600080600080600060a0868803121561110b57600080fd5b85359450602086013561111d816110de565b9350604086013561112d816110de565b9250606086013561113d816110de565b949793965091946080013592915050565b60006020828403121561116057600080fd5b5035919050565b60006020828403121561117957600080fd5b8135610dc5816110de565b6000806040838503121561119757600080fd5b8235915060208301356111a9816110de565b809150509250929050565b6000602082840312156111c657600080fd5b5051919050565b6000602082840312156111df57600080fd5b8151610dc5816110de565b634e487b7160e01b600052601160045260246000fd5b8082028115828204841417610e0357610e036111ea565b60008261123457634e487b7160e01b600052601260045260246000fd5b500490565b81810381811115610e0357610e036111ea565b6000806040838503121561125f57600080fd5b825161126a816110de565b60208401519092506111a9816110de565b80820180821115610e0357610e036111ea56fea264697066735822122022df3cd983a2157b66e0642ae745503659feda533df12b6d4510d427b7e479d564736f6c63430008130033",
    "linkReferences": {}
  },
  "methodIdentifiers": {
    "initializePrices(uint256)": "cb77b8fc",
    "liquidityManager()": "33827438",
    "liquidityRamp()": "4dfd324e",
    "maintenanceAllocation()": "9485546a",
    "owner()": "8da5cb5b",
    "poolManager()": "dc4c90d3",
    "prices(uint256,address)": "fd02dac0",
    "renounceOwnership()": "715018a6",
    "routingAllocation()": "46ecca77",
    "setLiquidityManager(address)": "3c1624d4",
    "setLiquidityRamp(address)": "23bae8a7",
    "setMaintenanceAllocation(uint256)": "15550a15",
    "setPoolManager(address)": "7aef6715",
    "setRoutingAllocation(uint256)": "c20e783d",
    "swap(uint256,address,address,address,uint256)": "10e2df9b",
    "transferOwnership(address)": "f2fde38b"
  },
  "id": 73
}