{
  "abi": [
    {
      "inputs": [
        {
          "internalType": "string",
          "name": "_symbol",
          "type": "string"
        }
      ],
      "name": "createToken",
      "outputs": [
        {
          "internalType": "contract IERC20",
          "name": "",
          "type": "address"
        }
      ],
      "stateMutability": "nonpayable",
      "type": "function"
    },
    {
      "inputs": [],
      "name": "getAllTokens",
      "outputs": [
        {
          "internalType": "address[]",
          "name": "",
          "type": "address[]"
        }
      ],
      "stateMutability": "view",
      "type": "function"
    },
    {
      "inputs": [
        {
          "internalType": "string",
          "name": "_symbol",
          "type": "string"
        },
        {
          "internalType": "uint256",
          "name": "_amount",
          "type": "uint256"
        }
      ],
      "name": "mint",
      "outputs": [],
      "stateMutability": "nonpayable",
      "type": "function"
    },
    {
      "inputs": [
        {
          "internalType": "uint256",
          "name": "",
          "type": "uint256"
        }
      ],
      "name": "tokenAddresses",
      "outputs": [
        {
          "internalType": "address",
          "name": "",
          "type": "address"
        }
      ],
      "stateMutability": "view",
      "type": "function"
    },
    {
      "inputs": [
        {
          "internalType": "string",
          "name": "",
          "type": "string"
        }
      ],
      "name": "tokens",
      "outputs": [
        {
          "internalType": "address",
          "name": "",
          "type": "address"
        }
      ],
      "stateMutability": "view",
      "type": "function"
    }
  ],
  "bytecode": {
    "object": "0x608060405234801561001057600080fd5b50611222806100206000396000f3fe608060405234801561001057600080fd5b50600436106100575760003560e01c806304c2320b1461005c578063056b01ce146100ad5780632a5c792a146100c257806345576f94146100d7578063e5df8b84146100ea575b600080fd5b61009061006a36600461049f565b80516020818301810180516000825292820191909301209152546001600160a01b031681565b6040516001600160a01b0390911681526020015b60405180910390f35b6100c06100bb3660046104dc565b6100fd565b005b6100ca610217565b6040516100a49190610521565b6100906100e536600461049f565b610279565b6100906100f836600461056e565b6103c5565b60006001600160a01b031660008360405161011891906105ab565b908152604051908190036020019020546001600160a01b0316036101925760405162461bcd60e51b815260206004820152602660248201527f546f6b656e207769746820746869732073796d626f6c20646f6573206e6f742060448201526532bc34b9ba1760d11b60648201526084015b60405180910390fd5b600080836040516101a391906105ab565b908152604051908190036020018120546340c10f1960e01b8252336004830152602482018490526001600160a01b0316915081906340c10f1990604401600060405180830381600087803b1580156101fa57600080fd5b505af115801561020e573d6000803e3d6000fd5b50505050505050565b6060600180548060200260200160405190810160405280929190818152602001828054801561026f57602002820191906000526020600020905b81546001600160a01b03168152600190910190602001808311610251575b5050505050905090565b6000806001600160a01b031660008360405161029591906105ab565b908152604051908190036020019020546001600160a01b03161461030a5760405162461bcd60e51b815260206004820152602660248201527f546f6b656e207769746820746869732073796d626f6c20616c726561647920656044820152653c34b9ba399760d11b6064820152608401610189565b600082604051610319906103ef565b61032391906105c7565b604051809103906000f08015801561033f573d6000803e3d6000fd5b5090508060008460405161035391906105ab565b90815260405190819003602001902080546001600160a01b039283166001600160a01b0319918216179091556001805480820182556000919091527fb10e2d527612073b26eecdfd717e6a320cf44b4afac2b0732d9fcbe2b7fa0cf60180549284169290911691909117905592915050565b600181815481106103d557600080fd5b6000918252602090912001546001600160a01b0316905081565b610bf2806105fb83390190565b634e487b7160e01b600052604160045260246000fd5b600082601f83011261042357600080fd5b813567ffffffffffffffff8082111561043e5761043e6103fc565b604051601f8301601f19908116603f01168101908282118183101715610466576104666103fc565b8160405283815286602085880101111561047f57600080fd5b836020870160208301376000602085830101528094505050505092915050565b6000602082840312156104b157600080fd5b813567ffffffffffffffff8111156104c857600080fd5b6104d484828501610412565b949350505050565b600080604083850312156104ef57600080fd5b823567ffffffffffffffff81111561050657600080fd5b61051285828601610412565b95602094909401359450505050565b6020808252825182820181905260009190848201906040850190845b818110156105625783516001600160a01b03168352928401929184019160010161053d565b50909695505050505050565b60006020828403121561058057600080fd5b5035919050565b60005b838110156105a257818101518382015260200161058a565b50506000910152565b600082516105bd818460208701610587565b9190910192915050565b60208152600082518060208401526105e6816040850160208701610587565b601f01601f1916919091016040019291505056fe60806040523480156200001157600080fd5b5060405162000bf238038062000bf2833981016040819052620000349162000073565b80806003620000448282620001d7565b506004620000538282620001d7565b50505050620002a3565b634e487b7160e01b600052604160045260246000fd5b600060208083850312156200008757600080fd5b82516001600160401b03808211156200009f57600080fd5b818501915085601f830112620000b457600080fd5b815181811115620000c957620000c96200005d565b604051601f8201601f19908116603f01168101908382118183101715620000f457620000f46200005d565b8160405282815288868487010111156200010d57600080fd5b600093505b8284101562000131578484018601518185018701529285019262000112565b600086848301015280965050505050505092915050565b600181811c908216806200015d57607f821691505b6020821081036200017e57634e487b7160e01b600052602260045260246000fd5b50919050565b601f821115620001d257600081815260208120601f850160051c81016020861015620001ad5750805b601f850160051c820191505b81811015620001ce57828155600101620001b9565b5050505b505050565b81516001600160401b03811115620001f357620001f36200005d565b6200020b8162000204845462000148565b8462000184565b602080601f8311600181146200024357600084156200022a5750858301515b600019600386901b1c1916600185901b178555620001ce565b600085815260208120601f198616915b82811015620002745788860151825594840194600190910190840162000253565b5085821015620002935787850151600019600388901b60f8161c191681555b5050505050600190811b01905550565b61093f80620002b36000396000f3fe608060405234801561001057600080fd5b50600436106100b45760003560e01c806340c10f191161007157806340c10f191461014157806370a082311461015657806395d89b411461017f578063a457c2d714610187578063a9059cbb1461019a578063dd62ed3e146101ad57600080fd5b806306fdde03146100b9578063095ea7b3146100d757806318160ddd146100fa57806323b872dd1461010c578063313ce5671461011f578063395093511461012e575b600080fd5b6100c16101c0565b6040516100ce9190610789565b60405180910390f35b6100ea6100e53660046107f3565b610252565b60405190151581526020016100ce565b6002545b6040519081526020016100ce565b6100ea61011a36600461081d565b61026c565b604051601281526020016100ce565b6100ea61013c3660046107f3565b610290565b61015461014f3660046107f3565b6102b2565b005b6100fe610164366004610859565b6001600160a01b031660009081526020819052604090205490565b6100c16102c0565b6100ea6101953660046107f3565b6102cf565b6100ea6101a83660046107f3565b61034f565b6100fe6101bb36600461087b565b61035d565b6060600380546101cf906108ae565b80601f01602080910402602001604051908101604052809291908181526020018280546101fb906108ae565b80156102485780601f1061021d57610100808354040283529160200191610248565b820191906000526020600020905b81548152906001019060200180831161022b57829003601f168201915b5050505050905090565b600033610260818585610388565b60019150505b92915050565b60003361027a8582856104ac565b610285858585610526565b506001949350505050565b6000336102608185856102a3838361035d565b6102ad91906108e8565b610388565b6102bc82826106ca565b5050565b6060600480546101cf906108ae565b600033816102dd828661035d565b9050838110156103425760405162461bcd60e51b815260206004820152602560248201527f45524332303a2064656372656173656420616c6c6f77616e63652062656c6f77604482015264207a65726f60d81b60648201526084015b60405180910390fd5b6102858286868403610388565b600033610260818585610526565b6001600160a01b03918216600090815260016020908152604080832093909416825291909152205490565b6001600160a01b0383166103ea5760405162461bcd60e51b8152602060048201526024808201527f45524332303a20617070726f76652066726f6d20746865207a65726f206164646044820152637265737360e01b6064820152608401610339565b6001600160a01b03821661044b5760405162461bcd60e51b815260206004820152602260248201527f45524332303a20617070726f766520746f20746865207a65726f206164647265604482015261737360f01b6064820152608401610339565b6001600160a01b0383811660008181526001602090815260408083209487168084529482529182902085905590518481527f8c5be1e5ebec7d5bd14f71427d1e84f3dd0314c0f7b2291e5b200ac8c7c3b925910160405180910390a3505050565b60006104b8848461035d565b9050600019811461052057818110156105135760405162461bcd60e51b815260206004820152601d60248201527f45524332303a20696e73756666696369656e7420616c6c6f77616e63650000006044820152606401610339565b6105208484848403610388565b50505050565b6001600160a01b03831661058a5760405162461bcd60e51b815260206004820152602560248201527f45524332303a207472616e736665722066726f6d20746865207a65726f206164604482015264647265737360d81b6064820152608401610339565b6001600160a01b0382166105ec5760405162461bcd60e51b815260206004820152602360248201527f45524332303a207472616e7366657220746f20746865207a65726f206164647260448201526265737360e81b6064820152608401610339565b6001600160a01b038316600090815260208190526040902054818110156106645760405162461bcd60e51b815260206004820152602660248201527f45524332303a207472616e7366657220616d6f756e7420657863656564732062604482015265616c616e636560d01b6064820152608401610339565b6001600160a01b03848116600081815260208181526040808320878703905593871680835291849020805487019055925185815290927fddf252ad1be2c89b69c2b068fc378daa952ba7f163c4a11628f55a4df523b3ef910160405180910390a3610520565b6001600160a01b0382166107205760405162461bcd60e51b815260206004820152601f60248201527f45524332303a206d696e7420746f20746865207a65726f2061646472657373006044820152606401610339565b806002600082825461073291906108e8565b90915550506001600160a01b038216600081815260208181526040808320805486019055518481527fddf252ad1be2c89b69c2b068fc378daa952ba7f163c4a11628f55a4df523b3ef910160405180910390a35050565b600060208083528351808285015260005b818110156107b65785810183015185820160400152820161079a565b506000604082860101526040601f19601f8301168501019250505092915050565b80356001600160a01b03811681146107ee57600080fd5b919050565b6000806040838503121561080657600080fd5b61080f836107d7565b946020939093013593505050565b60008060006060848603121561083257600080fd5b61083b846107d7565b9250610849602085016107d7565b9150604084013590509250925092565b60006020828403121561086b57600080fd5b610874826107d7565b9392505050565b6000806040838503121561088e57600080fd5b610897836107d7565b91506108a5602084016107d7565b90509250929050565b600181811c908216806108c257607f821691505b6020821081036108e257634e487b7160e01b600052602260045260246000fd5b50919050565b8082018082111561026657634e487b7160e01b600052601160045260246000fdfea26469706673582212202973ae5df6003bc826a2fc226b7cbf8c9aaea9dc28026f5e9506b19efd6f856f64736f6c63430008130033a2646970667358221220d90ebc26a404ba05f21439ddb995f9dd3e72569abccf091b0099ae4dc3bcabb664736f6c63430008130033",
    "linkReferences": {}
  },
  "methodIdentifiers": {
    "createToken(string)": "45576f94",
    "getAllTokens()": "2a5c792a",
    "mint(string,uint256)": "056b01ce",
    "tokenAddresses(uint256)": "e5df8b84",
    "tokens(string)": "04c2320b"
  },
  "id": 94
}