{
  "abi": [
    {
      "inputs": [],
      "name": "TokenManager__AlreadyInitialized",
      "type": "error"
    },
    {
      "inputs": [],
      "name": "TokenManager__ClusterAlreadyExists",
      "type": "error"
    },
    {
      "inputs": [],
      "name": "TokenManager__InsufficientLiquidity",
      "type": "error"
    },
    {
      "inputs": [],
      "name": "MAX_CLUSTERS",
      "outputs": [
        {
          "internalType": "uint16",
          "name": "",
          "type": "uint16"
        }
      ],
      "stateMutability": "view",
      "type": "function"
    },
    {
      "inputs": [],
      "name": "clusterTemplate",
      "outputs": [
        {
          "internalType": "address",
          "name": "",
          "type": "address"
        }
      ],
      "stateMutability": "view",
      "type": "function"
    },
    {
      "inputs": [
        {
          "internalType": "uint16",
          "name": "",
          "type": "uint16"
        }
      ],
      "name": "clusters",
      "outputs": [
        {
          "internalType": "contract ICluster",
          "name": "",
          "type": "address"
        }
      ],
      "stateMutability": "view",
      "type": "function"
    },
    {
      "inputs": [],
      "name": "currentCluster",
      "outputs": [
        {
          "internalType": "uint16",
          "name": "",
          "type": "uint16"
        }
      ],
      "stateMutability": "view",
      "type": "function"
    },
    {
      "inputs": [
        {
          "internalType": "uint256",
          "name": "amount",
          "type": "uint256"
        }
      ],
      "name": "deposit",
      "outputs": [],
      "stateMutability": "nonpayable",
      "type": "function"
    },
    {
      "inputs": [
        {
          "internalType": "contract IERC20",
          "name": "_token",
          "type": "address"
        },
        {
          "internalType": "address",
          "name": "_clusterTemplate",
          "type": "address"
        }
      ],
      "name": "initialize",
      "outputs": [],
      "stateMutability": "nonpayable",
      "type": "function"
    },
    {
      "inputs": [
        {
          "internalType": "address",
          "name": "",
          "type": "address"
        }
      ],
      "name": "poolBalances",
      "outputs": [
        {
          "internalType": "uint256",
          "name": "",
          "type": "uint256"
        }
      ],
      "stateMutability": "view",
      "type": "function"
    },
    {
      "inputs": [],
      "name": "token",
      "outputs": [
        {
          "internalType": "contract IERC20",
          "name": "",
          "type": "address"
        }
      ],
      "stateMutability": "view",
      "type": "function"
    },
    {
      "inputs": [],
      "name": "totalBalance",
      "outputs": [
        {
          "internalType": "uint256",
          "name": "",
          "type": "uint256"
        }
      ],
      "stateMutability": "view",
      "type": "function"
    },
    {
      "inputs": [
        {
          "internalType": "address",
          "name": "to",
          "type": "address"
        },
        {
          "internalType": "uint256",
          "name": "amount",
          "type": "uint256"
        }
      ],
      "name": "withdraw",
      "outputs": [],
      "stateMutability": "nonpayable",
      "type": "function"
    }
  ],
  "bytecode": {
    "object": "0x608060405234801561001057600080fd5b50611012806100206000396000f3fe608060405234801561001057600080fd5b506004361061009e5760003560e01c8063b281c47811610066578063b281c47814610151578063b6b55f251461015f578063f3fef3a314610172578063f5389d4a14610185578063fc0c546a1461019857600080fd5b8063485cc955146100a35780639155ccc8146100b85780639c68c504146100eb5780639e0c5f2a14610107578063ad7a672f14610148575b600080fd5b6100b66100b1366004610dba565b6101b1565b005b6100d86100c6366004610df3565b60036020526000908152604090205481565b6040519081526020015b60405180910390f35b6100f461030081565b60405161ffff90911681526020016100e2565b610130610115366004610e17565b6000602081905290815260409020546001600160a01b031681565b6040516001600160a01b0390911681526020016100e2565b6100d860025481565b6001546100f49061ffff1681565b6100b661016d366004610e3b565b610233565b6100b6610180366004610e54565b610240565b600454610130906001600160a01b031681565b600154610130906201000090046001600160a01b031681565b6001546201000090046001600160a01b0316156101e1576040516307aff13f60e41b815260040160405180910390fd5b600180546001600160b01b031916620100006001600160a01b038581169190910261ffff191691909117909155600480546001600160a01b03191691831691909117905561022f600061027a565b5050565b61023d33826103a4565b50565b33600090815260036020526040902054811115610270576040516303571d3f60e41b815260040160405180910390fd5b61022f82826107b2565b61ffff81166000908152602081905260409020546001600160a01b0316156102b5576040516301b55a3f60e21b815260040160405180910390fd5b6004546000906102cd906001600160a01b0316610a3f565b9050600061030061ffff8416106102e6576000196102fa565b6102f1600384610e96565b61ffff166001901b5b60015460405163c350a1b560e01b81526001600160a01b0362010000909204821660048201526024810183905230604482015291925083169063c350a1b590606401600060405180830381600087803b15801561035657600080fd5b505af115801561036a573d6000803e3d6000fd5b5050505061ffff92909216600090815260208190526040902080546001600160a01b0319166001600160a01b039290921691909117905550565b801561022f5760015461ffff16600090815260208181526040918290205482516339d6a34560e11b815292516001600160a01b03909116926373ad468a9260048083019391928290030181865afa158015610403573d6000803e3d6000fd5b505050506040513d601f19601f820116820180604052508101906104279190610ec5565b60015461ffff16600090815260208181526040918290205482516316d3df1560e31b815292516001600160a01b039091169263b69ef8a89260048083019391928290030181865afa158015610480573d6000803e3d6000fd5b505050506040513d601f19601f820116820180604052508101906104a49190610ec5565b106104dc576001805481906000906104c190839061ffff16610ede565b92506101000a81548161ffff021916908361ffff1602179055505b60015461ffff166000908152602081905260409020546001600160a01b031661050f5760015461050f9061ffff1661027a565b60015461ffff166000908152602081815260408083205481516316d3df1560e31b8152915185936001600160a01b039092169263b69ef8a89260048083019391928290030181865afa158015610569573d6000803e3d6000fd5b505050506040513d601f19601f8201168201806040525081019061058d9190610ec5565b6105979190610f00565b60015461ffff16600090815260208181526040918290205482516339d6a34560e11b815292516001600160a01b03909116926373ad468a9260048083019391928290030181865afa1580156105f0573d6000803e3d6000fd5b505050506040513d601f19601f820116820180604052508101906106149190610ec5565b116107225760015461ffff16600090815260208181526040918290205482516316d3df1560e31b815292516001600160a01b039091169263b69ef8a89260048083019391928290030181865afa158015610672573d6000803e3d6000fd5b505050506040513d601f19601f820116820180604052508101906106969190610ec5565b60015461ffff16600090815260208181526040918290205482516339d6a34560e11b815292516001600160a01b03909116926373ad468a9260048083019391928290030181865afa1580156106ef573d6000803e3d6000fd5b505050506040513d601f19601f820116820180604052508101906107139190610ec5565b61071d9190610f19565b610724565b815b90506107308183610f19565b915080600260008282546107449190610f00565b90915550506001600160a01b03831660009081526003602052604081208054839290610771908490610f00565b909155505060015461ffff81166000908152602081905260409020546107ac916201000090046001600160a01b039081169186911684610ade565b506103a4565b801561022f5760015461ffff16600090815260208181526040918290205482516316d3df1560e31b815292516001600160a01b039091169263b69ef8a89260048083019391928290030181865afa158015610811573d6000803e3d6000fd5b505050506040513d601f19601f820116820180604052508101906108359190610ec5565b60000361086f5760018054819060009061085490839061ffff16610f2c565b92506101000a81548161ffff021916908361ffff1602179055505b60015461ffff166000908152602081815260408083205481516316d3df1560e31b8152915185936001600160a01b039092169263b69ef8a89260048083019391928290030181865afa1580156108c9573d6000803e3d6000fd5b505050506040513d601f19601f820116820180604052508101906108ed9190610ec5565b116109745760015461ffff16600090815260208181526040918290205482516316d3df1560e31b815292516001600160a01b039091169263b69ef8a89260048083019391928290030181865afa15801561094b573d6000803e3d6000fd5b505050506040513d601f19601f8201168201806040525081019061096f9190610ec5565b610976565b815b90506109828183610f19565b915080600260008282546109969190610f19565b909155505033600090815260036020526040812080548392906109ba908490610f19565b909155505060015461ffff166000908152602081905260409081902054905163f3fef3a360e01b81526001600160a01b038581166004830152602482018490529091169063f3fef3a390604401600060405180830381600087803b158015610a2157600080fd5b505af1158015610a35573d6000803e3d6000fd5b50505050506107b2565b6000763d602d80600a3d3981f3363d3d373d3d3d363d730000008260601b60e81c176000526e5af43d82803e903d91602b57fd5bf38260781b17602052603760096000f090506001600160a01b038116610ad95760405162461bcd60e51b8152602060048201526016602482015275115490cc4c4d8dce8818dc99585d194819985a5b195960521b60448201526064015b60405180910390fd5b919050565b604080516001600160a01b0385811660248301528416604482015260648082018490528251808303909101815260849091019091526020810180516001600160e01b03166323b872dd60e01b179052610b38908590610b3e565b50505050565b6000610b93826040518060400160405280602081526020017f5361666545524332303a206c6f772d6c6576656c2063616c6c206661696c6564815250856001600160a01b0316610c159092919063ffffffff16565b805190915015610c105780806020019051810190610bb19190610f47565b610c105760405162461bcd60e51b815260206004820152602a60248201527f5361666545524332303a204552433230206f7065726174696f6e20646964206e6044820152691bdd081cdd58d8d9595960b21b6064820152608401610ad0565b505050565b6060610c248484600085610c2c565b949350505050565b606082471015610c8d5760405162461bcd60e51b815260206004820152602660248201527f416464726573733a20696e73756666696369656e742062616c616e636520666f6044820152651c8818d85b1b60d21b6064820152608401610ad0565b600080866001600160a01b03168587604051610ca99190610f8d565b60006040518083038185875af1925050503d8060008114610ce6576040519150601f19603f3d011682016040523d82523d6000602084013e610ceb565b606091505b5091509150610cfc87838387610d07565b979650505050505050565b60608315610d76578251600003610d6f576001600160a01b0385163b610d6f5760405162461bcd60e51b815260206004820152601d60248201527f416464726573733a2063616c6c20746f206e6f6e2d636f6e74726163740000006044820152606401610ad0565b5081610c24565b610c248383815115610d8b5781518083602001fd5b8060405162461bcd60e51b8152600401610ad09190610fa9565b6001600160a01b038116811461023d57600080fd5b60008060408385031215610dcd57600080fd5b8235610dd881610da5565b91506020830135610de881610da5565b809150509250929050565b600060208284031215610e0557600080fd5b8135610e1081610da5565b9392505050565b600060208284031215610e2957600080fd5b813561ffff81168114610e1057600080fd5b600060208284031215610e4d57600080fd5b5035919050565b60008060408385031215610e6757600080fd5b8235610e7281610da5565b946020939093013593505050565b634e487b7160e01b600052601160045260246000fd5b600061ffff80841680610eb957634e487b7160e01b600052601260045260246000fd5b92169190910492915050565b600060208284031215610ed757600080fd5b5051919050565b61ffff818116838216019080821115610ef957610ef9610e80565b5092915050565b80820180821115610f1357610f13610e80565b92915050565b81810381811115610f1357610f13610e80565b61ffff828116828216039080821115610ef957610ef9610e80565b600060208284031215610f5957600080fd5b81518015158114610e1057600080fd5b60005b83811015610f84578181015183820152602001610f6c565b50506000910152565b60008251610f9f818460208701610f69565b9190910192915050565b6020815260008251806020840152610fc8816040850160208701610f69565b601f01601f1916919091016040019291505056fea2646970667358221220210f026bbd4dd9933bb543317284f06db2c07f6a93bf411d5984305d14b023cb64736f6c63430008100033",
    "linkReferences": {}
  },
  "methodIdentifiers": {
    "MAX_CLUSTERS()": "9c68c504",
    "clusterTemplate()": "f5389d4a",
    "clusters(uint16)": "9e0c5f2a",
    "currentCluster()": "b281c478",
    "deposit(uint256)": "b6b55f25",
    "initialize(address,address)": "485cc955",
    "poolBalances(address)": "9155ccc8",
    "token()": "fc0c546a",
    "totalBalance()": "ad7a672f",
    "withdraw(address,uint256)": "f3fef3a3"
  },
  "id": 64
}